:103584006873636F6D20312031206368303A3125D0
:10359400316278206368313A30253162782063687B
:1035A400323A3025316278206368333A302531620B
:1035B400780A0D006873636F6D20312031206368D1
:1035C400313A3125316278206368303A30253162EE
:1035D40078206368323A3025316278206368333A60
:1035E40030253162780A0D006873636F6D203120D5
:1035F40031206368323A3125316278206368303A89
:103604003025316278206368313A30253162782080
:103614006368333A30253162780A0D006873636F4A
:103624006D20312031206368333A312531627820AE
:103634006368303A3025316278206368313A302546
:10364400316278206368323A30253162780A0D009D
:103654006873636F6D20322032206368303A3125FD
:10366400316278206368313A3025316278206368AA
:10367400323A3025316278206368333A302531623A
:10368400780A0D006873636F6D20322032206368FE
:10369400323A3025316278206368333A3125316219
:1036A40078206368303A3025316278206368313A93
:1036B40030253162780A0D006873636F6D20322003
:1036C40032206368303A3025316278206368333AB7
:1036D4003125316278206368313A302531627820AF
:1036E4006368323A30253162780A0D006873636F7B
:1036F4006D20322032206368333A312531627820DC
:103704006368313A3025316278206368303A302575
:10371400316278206368323A30253162780A0D00CC
:103724006873636F6D20332031206368333A312529
:10373400316278206368303A3025316278206368DA
:10374400313A3025316278206368323A302531626B
:10375400780A0D006873636F6D203320332063682B
:10376400303A3025316278206368313A302531624D
:1037740078206368333A3125316278206368323ABD
:1037840030253162780A0D006873636F6D20332031
:1037940034206368303A3025316278206368313AE6
:1037A4003025316278206368333A312531627820DC
:1037B4006368323A30253162780A0D006873636FAA
:1037C4006D20342031206368303A3025316278200E
:1037D4006368313A3025316278206368323A3025A3
:1037E400316278206368333A31253162780A0D00FA
:1037F4006873636F6D20322032206368303A31255C
:10380400316278206368323A302531627820636807
:10381400313A3025316278206368333A3025316299
:10382400780A0D006873636F6D203220322063685C
:10383400323A3125316278206368313A3025316279
:1038440078206368303A3025316278206368333AEF
:1038540030253162780A0D006873636F6D20332060
:1038640033206368333A3125316278206368303A13
:103874003025316278206368313A3025316278200E
:103884006368323A30253162780A0D006873636FD9
:103894006D20322032206368333A3125316278203A
:1038A4006368323A3025316278206368313A3025D2
:1038B400316278206368303A30253162780A0D002D
:1038C4006873636F6D20332031206368333A312588
:1038D400316278206368303A302531627820636839
:1038E400323A3025316278206368313A30253162CA
:1038F400780A0D006873636F6D203320312063688C
:10390400333A3125316278206368313A30253162A7
:1039140078206368323A3025316278206368303A1F
:1039240030253162780A0D006873636F6D2033208F
:1039340033206368333A3125316278206368303A42
:103944003025316278206368323A3025316278203C
:103954006368313A30253162780A0D006873636F09
:103964006D20332033206368333A31253162782067
:103974006368313A3025316278206368323A302501
:10398400316278206368303A30253162780A0D005C
:103994006873636F6D20332033206368303A3125B8
:1039A400316278206368313A302531627820636867
:1039B400323A3025316278206368333A30253162F7
:1039C400780A0D006873636F6D20332033206368B9
:1039D400303A3025316278206368323A30253162DA
:1039E40078206368333A3125316278206368313A4C
:1039F40030253162780A0D006873636F6D203220C0
:103A040032206368313A3125316278206368303A74
:103A14003025316278206368323A3025316278206B
:103A24006368333A30253162780A0D006873636F36
:103A34006D20322032206368313A3125316278209A
:103A44006368323A3025316278206368333A30252E
:103A5400316278206368303A30253162780A0D008B
:103A64006873636F6D20322032206368313A3025E9
:103A7400316278206368333A312531627820636893
:103A8400323A3025316278206368303A3025316229
:103A9400780A0D006873636F6D20332033206368E8
:103AA400313A3125316278206368303A3025316209
:103AB40078206368323A3025316278206368333A7B
:103AC40030253162780A0D006873636F6D203320EE
:103AD40033206368313A3025316278206368303AA4
:103AE4003025316278206368333A31253162782099
:103AF4006368323A30253162780A0D006873636F67
:103B04006D20332033206368313A302531627820C8
:103B14006368323A3025316278206368333A31255C
:103B2400316278206368303A30253162780A0D00BA
:103B34006873636F6D20322032206368323A312516
:103B4400316278206368303A3025316278206368C6
:103B5400313A3025316278206368333A3025316256
:103B6400780A0D006873636F6D2032203220636819
:103B7400323A3125316278206368313A3025316236
:103B840078206368333A3025316278206368303AAC
:103B940030253162780A0D006873636F6D2032201E
:103BA40032206368323A3025316278206368333AD0
:103BB4003125316278206368313A302531627820CA
:103BC4006368303A30253162780A0D006873636F98
:103BD4006D20332033206368323A312531627820F6
:103BE4006368303A3025316278206368313A302591
:103BF400316278206368333A30253162780A0D00E7
:103C04006873636F6D20332033206368323A302544
:103C1400316278206368303A3025316278206368F5
:103C2400333A3125316278206368313A3025316284
:103C3400780A0D006873636F6D2033203320636846
:103C4400323A3025316278206368313A3025316266
:103C540078206368333A3125316278206368303ADA
:103C640030253162780A0D006873636F6D2032204D
:103C740031206368333A3125316278206368323AFF
:103C84003025316278206368313A302531627820FA
:103C94006368303A30253162780A0D000D0A50729B
:103CA40065762E46573A25303478000D0A437572EE
:103CB400722E46573A25303478000D0A5B4D53472F
:103CC4005D6D61696E5F696E697428293D3E20727D
:103CD400657620213D2046575645522026206361B3
:103CE4006C6C20436C65617242617369634545285D
:103CF400290D0A000D0A43616E6E6F7420616363BF
:103D040065737320454550524F4D21212121000DEB
:103D14000A4E6F20696E697469616C697A65005432
:103D240057383831360054573838313642005457F2
:103D340038383137004E6F7468696E67202D2D3026
:103D440078253032780D0A00436865636B2061671B
:103D540061696E202D2D3078253032780D0A004CA3
:103D640061737420436865636B202D2D3078253092
:103D740032780D0A00FF3584FF35B8FF35ECFF3685
:103D840020FF3654FF3688FF36BCFF36F0FF372459
:103D9400FF3758FF378CFF37C0FF37F4FF3828FF51
:103DA400385CFF3890FF38C4FF38F8FF392CFF39EE
:103DB40060FF3994FF39C8FF39FCFF3A30FF3A6499
:103DC400FF3A98FF3ACCFF3B00FF3B34FF3B68FFD0
:103DD4003B9CFF3BD0FF3C04FF3C38FF3C6C2D2D4B
:103DE4002D3E2050616E656C3A20575647412D3860
:103DF40030302A343830202D2D205449434F4E4C36
:0D3E04004553532048532037696E63680012
:10752000014200014500C109C108024600000144B2
:1075300000025500004100F101C10AC10B4100F4F5
:10754000004100F2004100F5004400F70000000097
:10999700ED90001CF090001AE090001D2290001A34
:1099A700E090001CF022EBA3F090001BE090001E5B
:1099B7002290001BE0A3F0A32290001CF090001B54
:0F99C700E090001D22900027F0A3EFF07BFF221D
:106D58007B107DE07F8A12A0291290E7900000EE58
:106D68001299CF7A3C79A0900027EEF0A3EFF012A9
:106D78009FB61290E7EF7003EE640260277BFF7AFC
:106D88003C79AF9000277402F0A3E4F0129FB67F1D
:106D9800007E0212984B1290E7EE1299CC7A3C7959
:106DA800AF129FB61290E7EF7003EE640270319055
:106DB8000000E064027002A3E0601B9000DBE0FFCB
:106DC80012A4527F0112A46D129B0D7BFF7A3C79AD
:106DD800BE129FB6802C12A4BD9000DBEFF080227B
:106DE8007BFF7A3C79F8129FB67BFF7A3D791312C4
:106DF8009FB69000DB74FFF07F01129C30E4FF0225
:106E08008C277F087E0012A0039000E3EFF0600457
:106E1800E0FF80027F01129C301288159000D87420
:106E2800FEF0129204129C697DFF126E567D82124A
:106E38006E56E4FB7DFF7F8A12A0297BFF7DD07F01
:0D6E48008A12A0297BFF7DD17F8A12A0292C
:096E5500227B017F8A12A0292290
:10969C0075F68775F65975BF10E4F5F6758DF4758A
:1096AC009850758922758855758A40758C407587D8
:1096BC008075B80275A892D299D2ACF5C8C2CAD23C
:1096CC00AD75AA5075BAF443A61843AD10C20B750C
:0B96DC00DE4243D840F5B175B22022F9
:03000B000265711A
:0B657100C0E0C083C082C0D075D0081D
:10657C0005549000F3E0600214F09000F3E07033E7
:10658C00E5A05460C4135403FF9000FAE06F60233D
:10659C009000F8E09000F7F09000F9E09000F8F02F
:1065AC009000FAE09000F9F0A3EFF0D20C9000F319
:1065BC007430F0E554D3946050030266B80549E595
:1065CC0049700205487554000544E5446464600351
:1065DC000266709000E2E094FF5003E004F0E56284
:1065EC002401FFE43561FEE43560FDE4355F8F6224
:1065FC008E618D60F55F7544009000D4E0D39401FA
:10660C004003E014F0900068E004F09000FEE0D34A
:10661C0094004003E014F0300D069000F2E004F01A
:10662C003003069000F5E004F0900068E0B43C08FC
:10663C00E4F090007BE004F090007BE0B43C08E4D4
:10664C00F0900087E004F0900087E0B41808E4F0C4
:10665C00900086E004F0E5459000F46005E004F05D
:10666C008002E4F0E556F47003E555F46008055635
:10667C00E55670020555E5A0F4549C6029E542B43A
:10668C00030DE5A0F4549CF545C208D2098013E52E
:10669C0042B4640EE5A0F4549CF545D208D20975B9
:0C66AC0042500542800675420075450012
:0966B800D0D0D082D083D0E032B2
:10A1E800E4F562F561F560F55F9000DBF07F6412DD
:0EA1F800A303C21712A491D2B47F0102A303E5
:10878A00E4FD7F8A129BBEEF24DE601024D96014B8
:10879A00242870197BFF7A3D7923800E7BFF7A3D6E
:1087AA00792A80067BFF7A3D793202A2CF1287F6B8
:1087BA007A3D7939129FB612A447EF701B1287F6D9
:1087CA007A3D794C129FB6128808EF60EAE4FD7F81
:1087DA008A129BBEEFF460DF7F6312A3031288083C
:1087EA00E41299CC7A3D7963129FB622E4FD7F8A1E
:1087FA00129BBE900027E4F0A3EFF07BFF227F6379
:0B880A0012A303E4FD7F8A129BBE2234
:10A20600EFB4010553E8FE8011EF700743E80153F0
:0EA21600E8FD22EFB4020643E80143E802220D
:03001300020026C2
:03002600C2AA3239
:03002300029CD666
:109CD600C0E0C0D075D00830981EC298AF99744ABB
:109CE6002552F8EFF674572552F8A60F0552E5529D
:109CF600C394084003755200309904C299C20AD031
:049D0600D0D0E032A7
:03006300029D718A
:109D7100C0E0C0D075D008E5AA30E01653AAFE7441
:109D8100242543F8A69A0543E543C3941E40037571
:109D91004300E5AA30E10553AAFDC20BD0D0D0E0C3
:019DA100328F
:0BA44700E552B553037F00227F012285
:08000300200AFD8F99D20A22A8
:08A4B500200BFD8F9AD20B224F
:03002B0002A39796
:0FA39700C0E0C2CF0547E54770020546D0E0326F
:10A30300E5442FFFE433FE7C007D64123F71E54496
:07A31300B505FBE4B504F7FA
:01A31A002220
:109AD000900024E4F0A3E544F0E47B3CFAF9F8AF0D
:109AE00062AE61AD60AC5F12411FAC00AD01AE0271
:109AF000AF03E47B64FAF9F8124094900024EE8FEF
:0C9B0000F0123FFC900024E0FEA3E0FF08
:019B0C002236
:10A1AA00C3ED9FEC9E5010C374709FFF74179EFE00
:0FA1BA00EF2DFFEE3CFE22C3ED9FFFEC9EFE2239
:08973200900024EEF0A3EFF01B
:10973A00900024E07002A3E06035E4900026F0A3D4
:10974A00F0900026E0FEA3E0FFE4FCFD7BD8FAF9E6
:10975A00F8D31241B1400C900026E475F001123F93
:0F976A00FC80DE90002474FFF5F0123FFC80C1FC
:0197790022CD
:06532B00900017EFF0FCFA
:10533100ED4410FDEB4410FB90001AE04410F0A383
:10534100E04410F0EC1242DC53B60053B80153C1F3
:105351000253C80353CE0453DF0553E20653EB0750
:1053610053C808540B09540B0A53B60B53F40C538E
:10537100FC0D53C80E541A0F5428105433115428DD
:105381001254331353CE1454411553B816544B17BA
:1053910054541853B81954611A544B1B53C11C541B
:1053A100751D53DF1E53C11F548C20547521541A8F
:1053B100220000549D801690001CEBF0A3ED801498
:1053C1001299A4A3ED802F1299B8ED801890001CBA
:1053D100EDF0A3EBF090001AE090001E802502543E
:1053E10081ED1299C0F0A3EB80281299B8EBF0A3DC
:1053F100ED801F129997F0A3EB80081299A4A3EBFB
:10540100F0A3EDF090001B02546E90001CEDF01221
:1054110099ADF090001A02546E90001BE0A312990E
:105421009BF0A3EB02547B1299B8EDF090001A02A5
:1054310054951299B8EBF090001AE090001E803A52
:10544100129997F090001B025495EB1299981299BA
:10545100AF8027EB1299C0F0A3EDF090001A800DF8
:1054610090001CEBF0ED1299AEF090001AE0900064
:105471001FF080281299A41299ADF0A3EDF0801CC1
:105481001299A41299C4F0A3ED800D1299A4A3ED71
:10549100F090001BE090001EF0A3EBF0E4900020E0
:1054A100F0900020E0FFC39408501174572FF8E4E6
:1054B100F6744A2FF8E4F6E004F080E5E490002168
:1054C100F0900017E0FF3395E0FE903D7975F00311
:1054D100EF12424BEE75F003A42583F5831242804F
:1054E10090001CE0900027F090001DE0900028F053
:1054F10090001EE0900029F090001FE090002AF03B
:10550100129FB6129AD0900022EEF0A3EFF0129AF9
:10551100D0C3900023E09FFF900022E09EFE12A4E2
:105521003BC3EF9428EE6480948040E2E490002035
:10553100F0900020E0FFC39408502B74572FF8E639
:105541006441701AE00454072457F8E6B4430FEF9E
:10555100240254072457F8E6B44B037F012290003C
:1055610020E004F080CB7FC87E00129732900021AA
:0E557100E004F0E0C3940350030254C27F0034
:01557F002209
:108B2B0020000D0A5B4D53475D446973706C61798E
:108B3B00496E7075742829203D3E2053656C656322
:108B4B00744D6F6465547970653D41564D6F646526
:108B5B0020746F207365742074696D652026206402
:108B6B006973706C6179686F6C645F666C61673D8B
:108B7B00256278000D0A2B2B28446973706C617980
:108B8B00566F6C290020202054573838303620205F
:0F8B9B0020005465636877656C6C2C496E63002D
:0475500041010300F2
:0FA3B50075F011A42463F9746B35F0FA7BFF2265
:0CA41700900103E0FEEFF4FFEE5FF02286
:07A4FD00900103E04FF02283
:06A50B00900103E0FF22B5
:109B490012A50B90001BEFF020E204E030E70312AE
:109B59009FDD90001BE030E00312A3A690001BE0FC
:109B690030E40312A31B90001BE030E103129A9228
:0A9B790090001BE030E60312A3D3B6
:019B830022BF
:1078910090001A74C2F0129B497BFF7A7479B1127D
:1078A10082C87DFF7FA07E00129E8F7BFF7D327F8D
:1078B100A07E00129DA2E4900019F0900019E0FF53
:1078C100C394F050197E007BFF7A8B792B90005482
:1078D1007401F0129D3E900019E004F080DD9001EA
:1078E10003E04410F012A517EF64016077900019CE
:1078F1007401F0900019E0FE75F011906B62124274
:107901004BE4936F6008900019E004F080E5EE12FB
:10791100A3B512A2B4900018EFF0A3E012A3B590A2
:107921000018E0900054F07FA07E00129D3E7FA3DE
:107931007E0012A003BF01199000D2E070139000E5
:10794100D47405F07BFF7A8B792D900027F0129F7C
:10795100B67D017F0212988F7F01129E33129AD059
:047961008E6A8F6B30
:0179650022FF
:10A31B00E4FF129E33E4FD7F0212988F900103E05D
:06A32B0054EFF07F012257
:107BD9007BFF7A8B797F129FB67DFF127C977D821E
:107BE900127C97E4FB7DFF7F8A12A029900103E0B4
:107BF90020E27C129B497F0A12A3037BFF7A7579E5
:107C09000D1282C87D327FC87E00129E8F7B197D3E
:107C1900377FC87E00129DA27B197D737FE17E00AC
:107C2900129DA212A36575F003EF900AA712424BA9
:107C3900124280AE02AF01900006EEF0A3EFF07B96
:107C4900FF12A2B4900006E0FCA3E0AA04F97BFFAE
:107C5900900054EFF07FC87E00129D3E7D017F01A8
:107C690012988FE4FD7F0412988F7F01129E3330A2
:107C790014059001078003900106E0FF12866E90BB
:0D7C89000103E04404F0129AD08E6A8F6B64
:107C9600227B017F8A12A0297F057E00129732225D
:0FA3A600E4FD7F0212988F900103E054FEF02235
:10853F00E4900006F012A50B900005EFF054967032
:10854F00030285D4E030E11512A49A900001EEF0F9
:10855F00A3EFF0A37407F0A374D0F0801190000183
:10856F00E56AF0A3E56BF0A3E4F0A374C8F0129AE8
:10857F00D0AD07AC06900001E0FEA3E0FF12A1AA68
:10858F00D3900004E09F900003E09E5038900005C8
:10859F00E05484600B129FDD900006EFF01278918B
:1085AF00900005E030E11B129A92900006EFF07FE9
:1085BF00A37E0012A003BF01069000D47403F01233
:0785CF0078917F01227F007B
:0185D6002282
:109FDD00900103E030E20A7F01129FF954FBF080FB
:109FED00087F02129FF9547FF07F0122E4FD129841
:069FFD008F900103E02239
:1090E700E4FFFE12A003EF6454600280287F017E34
:1090F7000012A003EF64576002801A7F027E0012FD
:10910700A003EF64386002800C7F037E0012A00387
:10911700EF64386004E4FEFF227F047E0012A003A0
:10912700EF900002F0A3E4F07F05FE12A003900089
:1091370002E0FEA3E04FFF900002EEF0FEA3EFF087
:019147002205
:10984B00900002EEF0A3EFF07D54E4FFFE12977A46
:10985B007D577F017E0012977A7D387F027E001242
:10986B00977A7D387F037E0012977A900002E0FD95
:10987B007F047E0012977A900002A3E0FD7F057EA5
:04988B000002977AC6
:08A4BD007F067E0012A00322BD
:09A45200AD077F067E0002977A37
:08A4C5007F097E0012A00322B2
:09A45B00AD077F097E0002977A2B
:07A4CD007F0A7E0012A003CC
:01A4D4002265
:10881500E4900003F0900002F0900002E075F01182
:10882500906BB712424BE4931242DC884C00885897
:1088350001886102886A03887304887C0588850637
:10884500888E0700008895900003E0FD7F0A7E0072
:1088550002977A900003E04401F08034900003E031
:108865004402F0802B900003E04404F08022900045
:1088750003E04408F08019900003E04410F08010F4
:10888500900003E04420F08007900003E04440F0AE
:08889500900002E004F0808174
:07A4D5007F0D7E0012A003C1
:01A4DC00225D
:09A46400AD077F0D7E0002977A1E
:02A14800AB0763
:10A14A009000D8E0FF7E007C007D06123F5FEF247E
:0EA15A000CFFE43EFEEF2BFFEC3EFE12A003D6
:01A1680022D4
:10A343009000D8E075F006A4240C2FFF7E0002973E
:01A353007A8F
:09A46D00AD077F0F7E0002977A13
:07A4DD007F0C7E0012A003BA
:01A4E4002255
:09A47600AD077F0C7E0002977A0D
:08A4E5007F387E0012A0032263
:09A47F00AD077F387E0002977AD8
:08A4ED007F377E0012A003225C
:09A48800AD077F377E0002977AD0
:109B0D00E4FD7FADFE12977AE49000DDF0FD7F0855
:109B1D00FE12977AE4FD7F0EFE12977A7D0C7F116F
:109B2D007E0212977A7F117E0212A00390010BEF35
:0C9B3D00F0125D8512901F7F01026E5E29
:10A224009291D290120012C290221242578E8275DD
:0EA234008300123F20FF22EFF0A3EDF0A322E3
:0B977A00900028EEF0A3EFF0A3EDF04C
:10978500900028E0FEA3E07807CEC313CE13D8F9E6
:1097950044A054FE90002BF012A33190002BE0FF63
:1097A500128EE5900028A3E0FF128EE590002AE0D6
:0C97B500FF128EE51200167F0202A303D3
:04A00300AD07AC06F3
:10A00700ED7807CEC313CE13D8F944A054FEFF1240
:10A017009BBE900033EFF07F0212A303900033E062
:01A02700FF39
:01A028002215
:089BBE00900034EFF0A3EDF07C
:109BC60012A331900034E0FF128EE5900035E0FFDD
:109BD600128EE512A331900034E04401FF128EE5A7
:109BE600129DD3900036EFF0120016900036E0FF7B
:019BF600224C
:10A0290090005512A23BEBF012A331900055E0FFCE
:10A03900128EE5900056E0FF128EE5900057E0FF82
:06A04900128EE502001674
:089A540090003412A23BEBF07C
:109A5C0012A331900034E0FF128EE5900035E0FF48
:109A6C00128EE5E4900038F0900037E0FFA3E0C3DD
:109A7C009F5010900036E0FF128EE5900038E00405
:069A8C00F080E502001667
:0999150090005512A23B124277AA
:10991E0012A331900055E0FF128EE5900056E0FF45
:10992E00128EE5E490005BF090005AE0FFA3E0FE9B
:10993E00C39F501190005712A22E128EE590005B1D
:08994E00E004F080E3020016C2
:099BF700900020EFF0A312427768
:109C000012A331900020E0FF128EE5E4900025F0D1
:109C1000900024E0FFA3E0FEC39F501190002112AA
:109C2000A22E128EE5900025E004F080E3020016DB
:0100120022CB
:10A33100D291120012D290120012C291120012C2D6
:02A34100902268
:0D001600C291120012D290120012D291225B
:108EE500C290EF30E703D38001C312A224EF30E62E
:108EF50003D38001C312A224EF30E503D38001C35D
:108F050012A224EF30E403D38001C312A224EF3070
:108F1500E303D38001C312A224EF30E203D380011F
:108F2500C312A224EF30E103D38001C312A224EFC0
:108F350030E003D38001C312A224C290C290D29123
:098F4500D290D290D290C2902289
:109DD300E4FFD291120012C290FDFCD290EF25E075
:109DE300FF3091034401FFC2900DBD00010CED64EF
:0F9DF300084C70E7120012D290D290D290C2901A
:019E0200223D
:106C50000D0A504F574552206B657920707265734D
:106C6000736564000D0A4D454E55206B65792070A3
:106C7000726573736564000D0A494E505554534F45
:106C800055524345206B6579207072657373656456
:106C9000000D0A5550206B6579207072657373651D
:106CA00064000D0A444F574E206B65792070726561
:106CB00073736564000D0A53454C4543544B455965
:106CC000206B65792070726573736564000D0A4EE0
:106CD0004F542041535349474E4544206B6579201A
:106CE00070726573736564000D0A504F57455220EA
:106CF0006B657920000D0A4D454E554B4559206B6B
:106D0000657920000D4F53445F4C4F434B000D0AF3
:106D100052454D4F5F564F4C5550000D0A52454D50
:106D20004F5F564F4C444E000D0A4556454E544B4E
:106D30004559206B65792070726573736564000D29
:106D40000A56657273696F6E4B4559206B657920E1
:086D5000707265737365640045
:107554004100FC00410100004100FF004100FD002A
:087564004100FB00410102009F
:08A4F5007BFFE4900027F02238
:0EA3E20012A50BEF30E10302002E129D0A229D
:0DA3F00012A50BEF30E1057F0112610B2279
:0DA3FD0012A50BEF30E1057F0212610B226B
:10A0BD0012A50BEF30E10A3016047F01800B025917
:10A0CD009C9000FBE07F0160030266C112690712DC
:03A0DD007BD9220A
:10A0E00012A50BEF30E108301602800902002E9015
:10A0F00000FBE060057F020266C17FFF1269071264
:03A100007BD922E6
:1077B700900004EFF0A3EDF012A423900004E01270
:1077C70042DC783B00783B01783B02783B03783B0F
:1077D70004783B05783B06783B07783B08783B09FC
:1077E700780C0C786110786611784C1578791678D2
:1077F700422078472178203878293A78873E786B75
:107807003F0000788E74FF9000DFF0A3F090000532
:10781700E060037F01227F002212A1C91284A67FA4
:10782700012212A50BEF30E40512A31B8003127887
:10783700917F0122900005E07F012212A3F080478B
:1078470012A3FD8042900005E060037F012212A58C
:107857000BEF30E13212599C802D12A0BD80281207
:10786700A0E08023900005E060037F012212A3E2DD
:10787700801512A50BEF30E10E7FF412802D8007E3
:0A7887007D017FC0122CCE7F01228C
:104DB3009000017401F0FF127259900002EFF0703D
:104DC30003025058E024F8601C24F8602024F060AB
:104DD3002424E0602824C0602C247C70307BFF7A7C
:104DE3006C7950802E7BFF7A6C796480267BFF7A06
:104DF3006C7977801E7BFF7A6C799180167BFF7AC2
:104E03006C79A2800E7BFF7A6C79B580067BFF7A82
:104E13006C79CD129FB69000ECE06007E49000023D
:104E2300024FF27FAC7E0012A003900003EFF0E587
:104E3300A0F454906490702EE0702B7FD07E071204
:104E43009732E5A0F4549064906007900100E0B4B9
:104E530003147E0012505E12A3D3E49000FEF09080
:104E63000100F0127891900100E06403701A900041
:104E730003E07014FE12505E12A3D3127891E490F3
:104E83000100F07F0112A2069000FEE07013900073
:104E930003E0700D900100E06007E4F07F0112A2CF
:104EA3000612A423900002E01242DC5026024ECAEE
:104EB300044EFE085006104F98204FBE404FFA8014
:104EC300503190000050587BFF7A6C79E8129FB6FE
:104ED300200E239000ECE06003025058FD7F0C127B
:104EE30077B7900001EFF0E49000D1F0FD7FABFEC7
:104EF30012977A025058C20E024F847BFF7A6C7964
:104F0300F5129FB6900102E06036E4F09000FBF0EA
:104F13007B167D0A7F8A12A0297B807D617F8A129E
:104F2300A029E4FB7D667F8A12A0297FB07E001250
:104F3300A0039000D2EFF0129B49129A92025058AC
:104F4300200E4D900003E07019FF127E1F7FF412B4
:104F5300A30312A3D31278917A6D790412A4F502F4
:104F6300502C12A50BEF30E10B30160280191259A9
:104F73009C02505812A50BEF30E20C129B49129A77
:104F8300921278910250587F3F125072F00250589B
:104F93007F0902501F200E1F12A50BEF30E1077F80
:104FA3000130162C80247A6D790E12A4F5129FB667
:104FB3007F1012507280387F068061200E3512A553
:104FC3000BEF30E1117F023016061266C102505812
:104FD30012610B0250587BFF7A6D791BE490002716
:104FE300F0129FB6E4FD7F111277B7900001EFF046
:104FF3007F01227F078025200E05128AAB80567F12
:10500300058019200E149000E9E0700404F0800577
:10501300E49000E9F012946F803B7F04125790D222
:105023001980327BFF7A6D7928129FB680277BFF28
:105033007A6D793F129FB6900106E0640F70167D7A
:10504300FF12507C7D8212507CE4FB7DFF7F8A122D
:0A505300A0291294C3900001E0FFB1
:10505D00227D017FAC12977A7F01127E1F7FD07E59
:10506D000712973222E4FD1277B7900001EF227BF1
:0E507D00017F8A12A0297F057E001297322241
:05725900900004EFF0BD
:10725E00A2099217C209200C03027335D2179000AF
:10726E00F7E0FF7012A3E0B4010DA3E0B40308A38E
:10727E00E0B40203434520EFB403139000F8E0B4EA
:10728E00020CA3E07008A3E0B40103434520900074
:10729E00F7E07012A3E0B4020DA3E0B40308A3E07C
:1072AE00B401034345409000F7E0B40311A3E0B4EA
:1072BE00010CA3E07008A3E0B4020343454012A5FD
:1072CE000BEF20E1609000F7E0FFB40111A3E0B4F2
:1072DE00030CA3E0B40207A3E07003434520EFB410
:1072EE0002139000F8E0700DA3E0B40108A3E0B41F
:1072FE0003034345209000F7E0B40211A3E0B4036A
:10730E000CA3E0B40107A3E070034345409000F7DF
:10731E00E0B40111A3E0700DA3E0B40208A3E0B441
:10732E000303434540C20C2017037F002290000444
:0E733E00E06003AF4522200803AF45227F0028
:01734C00221E
:106B3C000D0A43485F5457323833352825303278A4
:106B4C0029000D0A2043485F415628253032782908
:106B5C000020200A0D00FE000000000000000000D4
:106B6C0000000000000000014356425300000000EA
:106B7C0000000000000000000243414D20440000D2
:106B8C00000000000000000000034156202000001F
:106B9C0000000000000000000000000000000000E9
:106BAC000000000000000000000000FE00000000DB
:106BBC00000000000000000000000000014E5453D3
:106BCC0043000000000000000000000000025041E3
:106BDC004C00000000000000000000000000035307
:106BEC004543414D0000000000000000000000057E
:106BFC0050414C4D0000000000000000000000005F
:106C0C000650414C4E000000000000000000000047
:106C1C00000750414C36300000000000000000001E
:106C2C000000044E545343342E3433000000000053
:106C3C000000000000000000000000000000000048
:046C4C000000000044
:10756C00C107C103C1024100D600016900C100C1BD
:03757C0004C10146
:109F6600EF75F011A42462F582E4346BF583E49373
:109F760022900001023F20E4FB7DFF7F8A22E4F568
:089F860067F568F566F5652238
:0695670090001E12427785
:10956D00E4FE123F07900021F0129F7780299000B2
:10957D001E124257123F07FFB4FF06129F77F46089
:10958D0022900022EFF0FD129F77900023F0FB90C8
:10959D000021E0FF12A02990001FE475F002123F98
:0995AD00FC80CB129F7D02A02975
:1089A80090001DEFF07BFF7A50798B129567129F2C
:1089B8007D12A02990001DE024FE6013146010248D
:1089C800FD600C240624F85011240A600D80117BE8
:1089D800FF7A5179DB129567800690001D7401F0CB
:1089E8009000D8E0B405139000E3E07002800B908B
:1089F800001DE014FF12A25F800312A18A7B157D7F
:108A0800297F8A12A0297B067D5C7F8A12A0297F94
:108A18000B7E0012A00312734D12A4C5126E5EC223
:028A28001A2210
:10A354007D017F8A129BBEEF30E7037F01227F00DD
:01A3640022D6
:10836A00E490001AF0A3F09000D8E0B4050690005B
:10837A00E3E0707BE4900018F0129419900019EF72
:10838A00F090001BE004F0E0C3940A5062900019D8
:10839A00E0FF64FE60E39000D3E0FEEF6E60DA90E7
:1083AA000018E0FFA3E0FEB50706A3E004F0800A88
:1083BA00E490001AF0900018EEF090001AE0C394CE
:1083CA000240B6900019E0FF700A129C3090001C1F
:1083DA007401F0229000D3E090001970051283FA1C
:0F83EA0080081283FA7F3212A303E490001CF084
:0F83F90022E0FF129C30900019E0FF1289A822A9
:10A1030012A354EF60037F01227D1C7F8A129BBE42
:10A11300EF54F0FF30E7037F0122EF5470C4540F74
:02A1230004FF37
:01A125002217
:1092BA0012A103AB07EB24FE601914601624FD60AB
:1092CA0012240224FC50042407701775670075687D
:1092DA003C8006756700756832E475666B75653D96
:1092EA008003129F84F564F563E4FFEF75F011A41F
:1092FA0024B7F582E4346BF583E493FEB5030122C7
:08930A00EE60030F80E57F0017
:019312002238
:06A511009000D3E0FF22E0
:109C30009000D3EFF024FE601914601624FD60122A
:109C4000240224FC50042407701775670075683CD3
:109C50008006756700756832E475666B75653D80D2
:099C600003129F84F564F56322F0
:06A517009000D8E0FF22D5
:10A1C9007F01129F66FE9000D8E0FDEE6D60030FDF
:0EA1D90080F00F129F6670027F01129F66FFDA
:01A1E7002255
:09A49100301703D2B722C2B72232
:1084A600900017EFF09000D8E06F70030285341249
:1084B6009B84900017E09000D8F09000D3E0FF1264
:1084C60089A89000D8E024FD60142402702E12A022
:1084D60075128535C2957BFF7A6B793C800E12A0AA
:1084E60099128535D2957BFF7A6B794E9000D8E04C
:1084F600FF900027E4F0A3EFF0129FB612931390BB
:1085060000D8E0FF12A46D7F1E12A30312836A1225
:108516007891E4FF128C277F6412A3037BFF7DD042
:108526007F8A12A0297BFF7DD17F8A12A02922C2D1
:0985360014E4FF126907C294224B
:0DA40A00C21712A4AC129B84E4FF02A2064C
:0CA42300129AD09000DFEEF0A3EFF022C0
:09A49A009000DFE0FEA3E0FF22C8
:107A3800C374FF9FFFC39400400CEF94645007E4A5
:107A4800900002F0804BEFC39464400DEF948C508B
:107A580008900002741EF08038EFC3948C400DEF3C
:107A680094B45008900002743CF08025EFC394B49D
:107A7800400DEF94DC50089000027450F08012EF33
:107A8800C394DC400CEFD394FF5006900002746E50
:107A9800F09000FDE0701E900002E0FFE569D39FC2
:107AA800400415698008E569C39F50020569E490A0
:107AB80000D6F08006900002E0F5697DFF7F8A120B
:107AC8009BBE900001EFF0129F7D12A0297DBE7F22
:107AD8008A129BBEEF54CF4410FB7DBE7F8A12A052
:107AE800297DC47F8A129BBEEF54804569FB7DC403
:107AF8007F8A12A029900001E0FB7DFF7F8A02A007
:017B08002953
:10A38700E49000F0F09000E2F09000EE7408F02204
:107061007FAB7E0012A0039000D1EFF07FB07E00D5
:1070710012A0039000D2EFF07FAA7E0012A003902D
:1070810000E5EFF0E49000DDF07FA0FE12A0039098
:1070910000FDEFF07FB87E0012A0039000DAEFF060
:1070A1007FB77E0012A0039000D7EFF07FB97E007A
:1070B10012A0039000D0EFF07FBF7E0012A003EF7B
:1070C10024FF92067FC57E0012A0039000DCEFF042
:1070D1007FAF7E0012A0039000E9EFF07FA512714F
:1070E10056EE9000E67006E04401F08004E0540E94
:1070F100F07FA6127156EE9000E77006E04401F0B1
:107101008004E0540EF07FA77E0012A003AE07EECC
:107111009000E87006E04401F08004E0540EF07F36
:10712100A87E0012A003AE07EF9000EA7006E044CB
:1071310001F08004E0540EF012A4E5900106EFF096
:1071410012A4ED900107EFF07FB27E0012A0039030
:0471510000D5EFF086
:09715500227E0012A003AE072205
:106A28007BFF7A6B795D12A2CF1285D7900000EFB9
:106A3800F0125B999000ECE0701B9000F0E060159C
:106A48009000E5E0FF9000E2E0C39F400812A169D2
:106A5800E49000E2F09000FDE0700E7DC97F8A129C
:106A68009BBE900000EFF080027FFF127A38124D33
:106A7800B3EF7003026B3B7FA37E0012A003EF60AD
:106A8800679000D4E06401705F12A50BEF20E15815
:106A980012A50BEF20E2519000ECE070469000D276
:106AA800E0700512A31B803B9000E6E0540DF090C7
:106AB80000E7E0540DF09000E8E0540DF09000EA93
:106AC800E0540DF01298069000E6E04402F09000C1
:106AD800E7E04402F09000E8E04402F09000EAE0C9
:106AE8004402F0E49000D4F012853F12A517EF1489
:106AF80024FD5002800A12A50BEF20E10312836ADD
:106B08007DB27F8A129BBEEF6003026A317BB07D43
:106B1800FD7F8A12A029E4FF12A2067FF47E0112EB
:106B280097327F0112A2067B307DFD7F8A12A02951
:036B3800026A31BD
:016B3B002237
:10936B00C2B5C21712A4AC7F0A7E00129732C2B4E8
:10937B0012969C7F0112A20612A1E812A3871287F4
:10938B008A126D587F0A7E001297321270617FA984
:10939B007E0012A003129603E49000ECF07F117E86
:1093AB000212A0039000D9EFF09000D1E0600312FD
:0793BB006A28128BAA80F260
:108BAA00E4900002F01285D7900001EFF0601BE01C
:108BBA00FF125B999000EEE0B40803D38001C34032
:108BCA0019E4FF128C27D217800D900001E0FF12E2
:108BDA005B9912A40AC21712A4ACE4FF127259904C
:108BEA000000EFF060BFE0B404BB1285D7EF70B5A8
:108BFA009000D104F0FD7FAB7E0012977A12789133
:108C0A001298067FA37E0012A003BF01069000D42B
:0D8C1A007403F0E4FF128C27D21702A4AC03
:10743A00A10AA20AA000A310A410A591A601A7015F
:10744A00A822A910AA00AB62119E00000100CC0C70
:10745A0002700000005000000F4000119E30310001
:10746A00AFC81202F1100800500030004000119E0F
:10747A003100029000040170000000A0F5000F40E6
:10748A0000119E3100029000030170000000F0F527
:10749A00000F4000119E3230000C0D0A01B10404A5
:1074AA000050C800044000119E313000160D0F0133
:1074BA003101000040A0000840119E3330100C98A2
:1074CA0028013101000000B400084000119E32304A
:1074DA0000222C0205B1000020F000040340119E96
:1074EA00313000862C1707B1921740502508034007
:1074FA00119E30B400222C0201F1000000F00000BD
:10750A0003C100119E303C10647E1902B10204408E
:06751A0050C80005C1008D
:10889D00900051FFE475F001124260EF023F4D90E0
:1088AD00004FE0FEA3E0FF22EF14FB7D9E7F8A22A6
:1088BD0090001B12425790001EE0F5827583000256
:1088CD003F20E0A4FFA3E5F0F0A3EFF07DA07F8AA9
:1088DD002290005BE0FCA3E0FD22EEF0A3EFF0A3FD
:1088ED0022123F71900059EEF0A3EFF04E22A3E05B
:1088FD00FB7D967F8A22123F7190004FECF0A3ED25
:10890D00F022F07B047D947F8A22EDF0EFC3940179
:08891D0022E4FB7D947F8A2215
:109E6200129E84900028F0E4A3F0129E84FF9000DA
:109E720028E06F700C900029E004F0E0C3940A40DF
:019E8200E9F6
:0C9E8300227D957F8A129BBEEF54402286
:10920400E490000EF0E490000DF090000DE0FFC338
:109214009408502FA3E075F008A4FEEF2E7D9C1255
:109224009254FFA3E075F0089017DC12424BE582DC
:109234002FF582E43583F583E4937D9D12925404E3
:0F924400F080C790000EE004F0E0C3940240B643
:0C92530022FB7F8A12A02990000DE0226F
:10914800900003EFF0A312427712919644017D94A8
:1091580012919F900003E07D9912919F7DE07F8A94
:10916800129BBEEF4410FB7DE07F8A12A02990007D
:109178000412425790005A741BF07D9A7F8A129904
:109188001512919654FEFB7D947F8A02A0297D9446
:0E9198007F8A129BBEEF22FB7F8A12A0292243
:109C69007B607D9B7F8A12A029E4900002F090001E
:109C790002E0FFC394E2501FEF94C6501AEF75F04B
:109C89001BA424ECF9741735F0FA7BFF1291489064
:079C99000002E004F080D797
:019CA00022A1
:0399D600900015E9
:1099D9001289174036EFD3940850301288B512A077
:1099E9002990001575F0081288CF129BBEEF54F02C
:1099F900FD900016E04DFB7DA07F8A12A029900002
:0B9A090016A3E0FB7DA17F8A12A029BC
:019A1400222F
:0398D300900015ED
:1098D6001289174039EFD3940850331288B512A075
:1098E6002990001575F0041288CF129BBEEF540F15
:1098F600FD900016E0C454F04DFB7DA07F8A12A0B7
:0E99060029900016A3E0FB7DA27F8A12A02903
:019914002230
:059E330090001DEFF09E
:109E3800129E627D9C7F8A129BBE90001EEFF0905E
:109E4800001DE06006A3E054EF800690001EE04489
:099E580010FB7D9C7F8A12A029F9
:019E610022DE
:03988F0090001C2A
:10989200128917403BEFD3940850351288B512A0B5
:1098A200297D9F7F8A129BBE90001DEFF090001CC5
:1098B200E06007A3E04401F0800790001DE054FE41
:1098C200F0129E6290001DE0FB7D9F7F8A12A0290C
:0198D2002273
:1096E700EFC394014006EFD394084004E4FEFF2241
:1096F7001288B512A0297DA07F8A129BBEEF540F56
:10970700900028F0A3E4F07DA17F8A129BBE900011
:1097170028E0F0A3E04FF0900028E0FEA3E07803F4
:0A972700CEC313CE13D8F9FF7E0065
:019731002215
:1093C200EFC394014006EFD394084004E4FEFF2269
:1093D2001288B512A0297DA07F8A129BBEEF54F09D
:1093E200C4F8540FC868FEE4C454F048900028F052
:1093F200A3CEF07DA27F8A129BBE900028E0F0A34C
:10940200E04FF0900028E0FEA3E07802CEC313CE36
:0694120013D8F9FF7E00F3
:019418002231
:109D3E0090004F1288E712427712891012A02990D4
:109D4E00004F1288FB12A02990005112425790002A
:109D5E0054E090005AF07D977F8A12991512891E51
:039D6E0002A02927
:109DA2009000301288E7EDF0A3EB12890F12A02980
:109DB2009000301288FB12A029900032E0FBA3E051
:109DC200900037F07D987F8A129A5412891E02A061
:019DD2002967
:109E8F009000301288E7ED12890F12A02990003050
:109E9F001288FB12A029900032E0900037F07B204F
:0D9EAF007D977F8A129A5412891E02A02905
:0967E60090004F1288E71242777F
:1067EF00900056124277E4900055F0900054E06408
:1067FF000A707990005B7427F0A37410F01288DE92
:10680F00C3940AEC940040561288AC1288EE6012C2
:10681F00900059A3E0243012889D900055E004F0B9
:10682F008015900055E0600F900051E475F0011253
:10683F0042607430123F4D1288AC90005BE0FAA3B7
:10684F00E0FBFDAC021289037D0A7C00AF03AE02B0
:10685F00123F7190005BEEF0A3EFF002680C900016
:10686F004FA3E02430A31288A00268FA900054E0EE
:10687F006410600302690490005B7410F0A3E4F0ED
:10688F001288DEC39410EC940040441288AC128836
:10689F00EE6028900059E0FEA3E0FFC3940AEE9447
:1068AF00004005EF24378007900059A3E0243012F1
:1068BF00889D1288AC1288DE12890390005BE0C4B9
:1068CF00F854F0C868F0A3E0C4540F48F080B11238
:1068DF0088ACC3940AEE94004005EF2437800790EC
:1068EF00004FA3E02430FFA31288A1900051124261
:0768FF0057E4123F4D7F0139
:01690600226E
:06A2B40090004F124277FA
:10A2BA00E4FF90004FE475F001124260123F07601C
:04A2CA00030F80EE10
:01A2CE00226D
:0682C80090001B1242773A
:1082CE007DFF7F8A129BBE90001FEFF054FEFB7D58
:1082DE00FF7F8A12A0297DE07F8A129BBEEF54EFAA
:1082EE00128357E490001EF01288BDFF604290008A
:1082FE001EE02401FDE433FC90001B124257E92DD1
:10830E00F9EA3CFAEF12836090001EE02401FFE4CC
:10831E0033FE90001B124257E92FF9EA3EFA74051C
:10832E001283601288BD04FF90001EE02FF080B80B
:10833E007DE07F8A129BBEEF441012835790001F80
:09834E00E0FB7DFF7F8A02A029FB
:10835700FB7DE07F8A12A02922900024F07F8A12F9
:038367009BF7225F
:100066000A0D6D6F646520300A0D000D0A53455464
:10007600204974656D2056616C75653A2069642D5A
:100086002558000D0A2B2B284F5344486967684DA5
:10009600656E755F73756229204F53444D656E75A5
:1000A6004C6576656C3A2564000D0A5245534554F5
:1000B6005F4D6F6E69746F7256414C5545000D0A5F
:1000C6004F6E4368616E67696E6756616C75653D14
:1000D6003078256278000A0D79766D6978203400CB
:1000E6000A0D79766D69782030000A0D79766D698A
:1000F600782031000A0D79766D69782032000A0D74
:1001060079766D6978203300436865636B205647BE
:1001160041204361626C65004F7574204F66205222
:10012600616E676500FE62596B62714C2F713A34DD
:10013600FF001213566F6C756D6500202020417507
:10014600746F2041646A757374696E67202E2E2E53
:100156002E20202000436F6D706F73697465005602
:10016600657273696F6E004C4344205665727369FD
:100176006F6E004456522056657273696F6E005753
:100186004946492049500057494649204D414300B8
:1001960047415445574159004F534420506F7369A6
:1001A60074696F6E004F534420506F736963695FC3
:1001B6006E004F534420FE5465714667FF004C6144
:1001C6006E6775616765004C616E67756500537093
:1001D6007261636865004964696F6D6100FE575618
:1001E600714667FF004272696768746E65737300D3
:1001F6004C756D696E6F7369745F0048656C6C69E8
:10020600676B656974004272696C6C6F00FE40240E
:10021600715F60FF00436F6E747261737400436FA9
:100226006E747261737465004B6F6E747261737471
:1002360000436F6E74726173746500FE394F715FAF
:1002460060FF0053617475726174696F6E0053AA22
:1002560074746967756E670053617475726163695A
:100266005F6E00FE4A2C33715F60FF0048756500C3
:10027600546F6E616C69745C00466172626500540D
:100286006F6E616C6964616400FE4A5448715F6018
:10029600FF0053686172706E657373004163756920
:1002A600745C00536368AA7266650041677564658D
:1002B6007A6100FE463933715F60FF0052657365EF
:1002C6007400445C66617574004772756E64656996
:1002D6006E7374656C7567005072656465746572DB
:1002E6006D696E6163695F6E00FE66246DFF00577F
:1002F6006964652053637265656E005749444520FD
:10030600FE6D3B714667FF004D6972726F72004A5F
:10031600756D70005345512054696D6520537465A1
:1003260070004A756D702041560043616D204F750F
:10033600740052657475726E00526563616C6C0070
:100346004D6F6E69746F7220526563616C6C004408
:10035600565220526563616C6C00457869740020C2
:1003660000766572204856322E300054696D654F0E
:100376007574205365747570004761756765205301
:100386006574757000476175676520526563616CB9
:100396006C005072696F7269747900526576657285
:1003A60073204D6F6465005265736F6C7574696F69
:1003B6006E00465053005175616C69747900526540
:1003C600636F7264204D6F6465005265636F72647B
:1003D600204C656E677468005072652D616C6172A1
:1003E6006D00506F73742D7265636F726400417097
:1003F600706C79005265636F726453746172740035
:100406005265636F726453746F7000536E617073DC
:10041600686F7400446174652054696D65005965A0
:100426006172004D6F6E74680044617900486F75A3
:1004360072004D696E00536563004461796C6967AB
:100446006874536176696E6700426567696E650018
:10045600456E64005765656B0054696D65005469A7
:100466006D65205A6F6E650052657475726E264111
:1004760070706C7900466F726D617420534420432E
:1004860061726400417564696F205265636F7264BE
:10049600004669726D776172652055706461746596
:1004A60000596573004E6F004669727374204E756D
:1004B6006D626572005365636F6E64204E756D6282
:1004C6006572005468697264204E756D62657200CB
:1004D600466F75727468204E756D6265720043686A
:1004E600616E67652050617373776F7264004F7633
:1004F6006572577269746500547269676765722020
:1005060053657400547269676765722056474100E7
:10051600547269676765722044656C617900496E3B
:10052600666F726D6174696F6E0055706461746593
:1005360020436F6E66696700534420636F76657269
:10054600204465742E00446973706C6179004456CA
:100556005220446973706C61790044697374616EEA
:100566006365204761756765004F5344204C6F6390
:100576006B0050617373776F726400536F757263AB
:1005860065205469746C650043564253204100430C
:10059600564253204200435642532043004356429C
:1005A600532052004175746F20446179264E696765
:1005B60068740044697220496D6167650044697218
:1005C60020496D61676520410044697220496D616B
:1005D600676520420044697220496D616765204362
:1005E60000526561722053657475700043414D2059
:1005F600410043414D20520043414D2042004341BA
:100606004D20430043414D2044000200456E676C77
:10061600697368004672616E7B6169730044657533
:100626007473636800457370617E6F6C00FE6A23A5
:1006360056FF200004014D6F646531004D6F6465FF
:1006460032004D6F6465330055736572004D6F64FB
:100656006531004D6F646532004D6F64653300553A
:100666007361676572004D6F64757331004D6F6419
:10067600757332004D6F647573330042656E757421
:100686007A6572004D6F646F31004D6F646F320092
:100696004D6F646F33005573756172696F00FE3A72
:1006A60034FF3100FE3A34FF3200FE3A34FF3300A5
:1006B600FE47515B71FF200008004175746F004EC4
:1006C6005453430050414C00534543414D004E5452
:1006D6005343342E34330050414C4D0050414C4E60
:1006E6000050414C36300005004E6F726D616C0053
:1006F600576964650050616E6F72616D6100467581
:100706006C6C000500FE1A1BFF2000FE1C1DFF205E
:1007160000FE1E1DFF2000FE1F20FF2000FE1F21E1
:10072600FF200009004F6666004343310043433211
:1007360000434333004343340054310054320054E1
:10074600330054340002004F4E004F46460002006C
:100756004D4952524F52004E4F524D414C000300EC
:10076600446179004155544F004E69676874000230
:100776000031363A3900343A33000200004F4E0059
:100786004F464600030053494E474C4500445541E9
:100796004C00545249504C450007004100412B4241
:1007A60000412B4300412B5200412B424300412B79
:1007B600425200412B43520007004200422B4100A7
:1007C600422B4300422B5200422B414300422B4115
:1007D6005200422B43520007004300432B41004383
:1007E6002B4200432B5200432B414200432B4152E4
:1007F60000432B42520006005200522B4100522B5E
:100806004200522F414200522B414200522F4300D8
:100816000F00515541440053455100412B420043BE
:100826002B5200412B5200522B4200412B430043D6
:100836002B4200522F414200522B414200522F437D
:10084600004100420043005200050051554144005A
:1008560043414D410043414D420043414D43004316
:10086600414D5200020000373230783438300033C0
:100876003532783234300005000035003130003131
:1008860035003230003235003330000500004C654B
:1008960076656C2D31004C6576656C2D32004C65A5
:1008A60076656C2D33004C6576656C2D34004C6591
:1008B60076656C2D35000300004E6F6E65004E6F39
:1008C600726D616C00416C61726D00060000312032
:1008D600206D696E003220206D696E003320206D18
:1008E600696E003420206D696E003520206D696EBA
:1008F600003130206D696E000500003135207365CA
:1009060063003330207365630036302073656300FF
:10091600080000313520736563003330207365634A
:10092600003630207365630002000044697361621B
:100936006C6500456E61626C650004000046697274
:100946007374005365636F6E640054686972640063
:10095600466F7572746800040041004200430052FD
:10096600001900002D3132002D3131002D313000BB
:100976002D39002D38002D37002D36002D35002D50
:1009860034002D33002D32002D310030003100327D
:1009960000330034003500360037003800390031A6
:1009A6003000313100313200020050200044200076
:1009B60003003234303000343830300039363030CD
:1009C600000200FE1819FF2000FE1A1BFF2000047B
:1009D60000FE1C1D1E1F2021FF2000FE22232829A9
:1009E6002A2BFF2000FE242528292A2BFF20004140
:1009F6002B422C422B41000E00FE262728292A2BAB
:100A0600FF200053455100412B4200432B52004129
:100A16002B5200522B4200412B4300432B420052E3
:100A26002F414200522B41420041004200430052F6
:100A36000056474100FF0165FF0165FF0165FF01A3
:100A460065FF0165FF016DFF016DFF016DFF016D22
:100A5600FF016DFF0179FF0179FF0179FF0179FF40
:100A66000179FF0185FF0185FF0185FF0185FF01F2
:100A760085FF018DFF018DFF018DFF018DFF018D2A
:100A8600FF0196FF0196FF0196FF0196FF0196FF73
:100A9600010EFF011EFF011EFF011EFF011EFF01C9
:100AA6002BFF0138FF019EFF019EFF019EFF01AB58
:100AB600FF01B8FF01C4FF01CDFF01D4FF01DCFF38
:100AC60001E3FF01EBFF01F6FF0201FF020CFF024B
:100AD60013FF021BFF0224FF022EFF0237FF024113
:100AE600FF0249FF0249FF0254FF025EFF0269FF4F
:100AF6000272FF0276FF027FFF0285FF028FFF026E
:100B060098FF02A2FF02A9FF02B1FF02B9FF02C2CB
:100B1600FF02C8FF02CFFF02DEFF02EFFF030EFF58
:100B2600030EFF030EFF030EFF030EFF0315FF0365
:100B360015FF0315FF0315FF0315FF031AFF031A1D
:100B4600FF031AFF031AFF031AFF0330FF0330FFE8
:100B56000330FF0330FF0330FF0328FF0338FF0392
:100B660038FF0338FF0338FF0338FF033FFF033F17
:100B7600FF033FFF033FFF033FFF0346FF0346FF1D
:100B86000346FF0346FF0346FF0355FF0355FF03D6
:100B960055FF0355FF0355FF0360FF0360FF036026
:100BA600FF0360FF0360FF054CFF054CFF054CFF8C
:100BB600054CFF054CFF0554FF0554FF0554FF0582
:100BC60054FF0554FF0560FF0560FF0560FF0560E3
:100BD600FF0560FF056FFF056FFF056FFF056FFFE0
:100BE600056FFF0578FF0578FF0578FF0578FF0597
:100BF60078FF0581FF0581FF0581FF0581FF0581DE
:100C0600FF058EFF058EFF058EFF058EFF058EFF05
:100C16000595FF0595FF0595FF0595FF0595FF05CC
:100C26009CFF059CFF059CFF059CFF059CFF05A3FB
:100C3600FF05A3FF05A3FF05A3FF05A3FF05AAFF65
:100C460005AAFF05AAFF05AAFF05AAFF05B9FF0524
:100C5600B9FF05B9FF05B9FF05B9FF05C3FF05CF04
:100C6600FF05DBFF05E7FF05E7FF05E7FF05E7FFF4
:100C760005E7FF05F2FF05F2FF05F2FF05F2FF05A6
:100C8600F2FF05FEFF05FEFF05FEFF05FEFF05FE62
:100C9600FF0604FF0604FF0604FF0604FF0604FF22
:100CA60005F8FF05F8FF05F8FF05F8FF05F8FF064C
:100CB6000AFF060AFF060AFF060AFF060AFF036581
:100CC600FF0367FF0371FF037FFF038BFF0398FF9B
:100CD60003A1FF03ADFF03B8FF03BCFF03C4FF037B
:100CE600D0FF03DEFF03E8FF03F4FF03FAFF040669
:100CF600FF0411FF041AFF0424FF0429FF042FFF39
:100D06000433FF0438FF043CFF0440FF044FFF0494
:100D160056FF045AFF045FFF0464FF046EFF047B62
:100D2600FF048AFF0497FF04A7FF04ABFF04AEFF8E
:100D360004BBFF04C9FF04D6FF04E4FF04F4FF0468
:100D4600FEFF050AFF0516FF0524FF0530FF053ED9
:100D5600FF02F5FF02F5FF02F5FF02F5FF0301FEB4
:100D66006C6F00FE727500FE606300FE787B00FE0D
:100D7600666900FE848700FE010200FE7E8100FE99
:100D86008A8D00FE909300FE969900FEC0C300FE79
:100D96009C9F00FEA2A500FEA8AB00FEAEB100FE21
:100DA600B4B700FEBABD000000170316611702169D
:100DB600610000FF0C42FFFFFF3700000700B80785
:100DC6004B0000FF0BACFFFFFF3700000700B90721
:100DD6004B0000FF0BCAFFFFFF3700000700BA07F2
:100DE6004B0000FF0CCCFFFFFF37000010007A0D10
:100DF600AE0000FF0BD9FFFFFF3700000700BB075F
:100E06004B0000FF0B61FFFFFF3700000300F100FE
:100E16000000000000000000FFFF000000000000CE
:100E260000170216610000FF0D2FFFFFFF370000BD
:100E36000300F100000000FF0D2CFFFFFF3700004C
:100E46000300ED000000000000000000FFFF0000AE
:100E56000000000000170216610000FF0D32FFFFC0
:100E6600FF37000005002D0DAE0000FF0D35FFFF1A
:100E7600FF37000005002E0DAE0000FF0D38FFFF06
:100E8600FF37000005002F0DAE0000FF0D3BFFFFF2
:100E9600FF3700000500380DAE0000FF0D3EFFFFD6
:100EA600FF3700000300EE00000000FF0B61FFFFAC
:100EB600FF3700000300F100000000000000000002
:100EC600FFFF00000000000000170216610000FF8F
:100ED6000D32FFFFFF37000005002D0DAE0000FFAD
:100EE6000D35FFFFFF37000005002E0DAE0000FF99
:100EF6000D38FFFFFF37000005002F0DAE0000FF85
:100F06000D3BFFFFFF3700000500380DAE0000FF68
:100F16000D23FFFFFF3700000300EB00000000FF7A
:100F26000D3EFFFFFF370E5F0100000E5B0000FF66
:100F36000B61FFFFFF3700000300F1000000000017
:100F460000000000FFFF000000000000001705166B
:100F5600610000FF0D1DFFFFFF37000007002C0991
:100F6600670000FF0CFCFFFFFF3700000500200DA7
:100F7600AE0000FF0CFFFFFFFF3700000500210D4C
:100F8600AE0000FF0D02FFFFFF3700000500220D37
:100F9600AE0000FF0D05FFFFFF3700000500230D23
:100FA600AE0000FF0D08FFFFFF3700000500240D0F
:100FB600AE0000FF0D20FFFFFF3700000300F60024
:100FC6000000000000000000FFFF0000000000001D
:100FD600000000FF0D2CFFFFFF37000003009B0001
:100FE600000000FF0D2FFFFFFF3700000300F10098
:100FF6000000000000000000FFFF000000000000ED
:10100600000000FF0D2CFFFFFF37000003007000FB
:10101600000000FF0D2FFFFFFF3700000300F10067
:101026000000000000000000FFFF000000000000BC
:10103600000000FF0D2CFFFFFF37000003009E009D
:10104600000000FF0D2FFFFFFF3700000300F10037
:101056000000000000000000FFFF0000000000008C
:10106600000000FF0B7FFFFFFF3710070100000D98
:10107600AF0000FF0B8EFFFFFF3710370100000D9A
:10108600AF0000FF0B61FFFFFF3700000300F10018
:101096000000000000000000FFFF0000000000004C
:1010A60000170416610000FF0A68FFFFFF36000004
:1010B6000B00F100000000000000FFFFFF370000FA
:1010C6000C00390DAE0000FF0A77FFFFFF36000067
:1010D6000B00F100000000000000FFFFFF360000DB
:1010E6000C003A0DAE0000FF0A86FFFFFF36000037
:1010F6000B00F100000000000000FFFFFF360000BB
:101106000C003B0DAE0000FF0B61FFFFFF37000038
:101116000300F1000000000000000000FFFF0000D7
:101126000000000000170416610000FF0B70FFFFAF
:10113600FF37000003009B00000000FF0CCFFFFFFD
:10114600FF37000003009D00000000FF0B9DFFFF1E
:10115600FF3700000300F400000000FF0CC3FFFF90
:10116600FF3700000B00F400000000FF0CC3FFFF78
:10117600FF3700000B00F400000000FF0CC3FFFF68
:10118600FF3700000B00F400000000FF0CC6FFFF55
:10119600FF3600000B00F400000000000000000015
:1011A600FFFF00000000000000170516610000FFA9
:1011B6000CE4FFFFFF3700000700E408D10000FF42
:1011C6000CEAFFFFFF3700000700E609160000FFE4
:1011D6000D26FFFFFF3700000700EC095D0000FF4A
:1011E6000D20FFFFFF3700000300F50000000000A0
:1011F60000000000FFFF00000000000000170416BA
:10120600610000FF0CE1FFFFFF3711B30100001181
:10121600AF0000FF0CDBFFFFFF3700000700E1080F
:101226007D0000FF0CDEFFFFFF3700000700E2082D
:10123600910000FF0D23FFFFFF370ED30100000EC4
:10124600CF0000FF0D29FFFFFF370E2B0100000E18
:10125600270000FF0D20FFFFFF3700000300F50009
:101266000000000000000000FFFF0000000000007A
:10127600001705166100000000000000FFFF0000D7
:101286000000000000170416610000FF0AC8FFFFF7
:10129600FF3700000500960DAE0000FF0AD7FFFFDE
:1012A600FF3700000500950DAE0000FF0AE6FFFFC0
:1012B600FF3700000500970DAE0000FF0AF5FFFF9F
:1012C600FF3700000500990DAE0000FF0B04FFFF7D
:1012D600FF37000005009A0DAE0000FF0B61FFFF0F
:1012E600FF3700000300F1000000000000000000CE
:1012F600FFFF00000000000000170516610000FF58
:101306000C78FFFFFF3700000700C1074B0000FF06
:101316000C87FFFFFF3700000700C2074B0000FFE6
:101326000C96FFFFFF3700000700C3074B0000FFC6
:101336000CA5FFFFFF3700000700C4074B0000FFA6
:101346000B61FFFFFF3700000300F1000000000003
:1013560000000000FFFF0000000000000017051657
:10136600610000FF0C60FFFFFF3700000700CD079C
:101376009F0000FF0C63FFFFFF3700000700CE074A
:10138600BE0000FF0C66FFFFFF3700000700CF0717
:10139600DD0000FF0B61FFFFFF3700000300F100D7
:1013A6000000000000000000FFFF00000000000039
:1013B60000170716610000FF0B22FFFFFF3713031C
:1013C6000100000DAF0000FF0C51FFFFFF370000CA
:1013D6000700C5078A0000FF0C69FFFFFF37000002
:1013E6000700C607FC0000FF0B31FFFFFF370000B8
:1013F6000700C708160000FF0B4FFFFFFF3700006E
:101406000700C8084F0000FF0B40FFFFFF37000032
:101416000500C90DAE0000FF0B61FFFFFF3700009E
:101426000300F1000000000000000000FFFF0000C4
:1014360000000000000204FF370D65000000FFFFFA
:1014460037FF128F01009F128B0D69000000FFFF0E
:1014560037FF0DB70100000DB30D6D000000FFFF53
:1014660037FF13BB01009F13B70D71000000FFFF8C
:1014760037FF112F010000112B00000000000000B3
:10148600FFFF000000000000000000000000FFFF5A
:1014960037FF143F010000143B000000000000006D
:1014A600FFFF0000000000000000000064003200A2
:1014B600020034001A0001002C001600000037005C
:1014C6001C000000C70064002D00D2008000000050
:1014D6000700030000003F0020002D00D20080001E
:1014E60000001F0010001000740042002300870057
:1014F60055FFB60022FFE8000000FF0080FF8000D5
:101506007F00000000000700030000007F0040117C
:10151600111171113B161A010201342C342C024BA5
:10152600323232323232324B323232111013141519
:101536007071747273707174727378630080800056
:10154600608080808020808080803B68F89090005A
:10155600608080808020808080800358F8A0A00072
:1015660060808080802080808080033232323232F8
:1015760032323232323232000A00600061006200DA
:101586006300660067006800B900FC13DBA67B00F9
:1015960060000017481BDB807B0000000017481E18
:1015A600F2807C800001B6314826D58069000000B3
:1015B600006FDF13D4A69100600000174821D48085
:1015C6009100000000174813F28092800001B634A3
:1015D6004813DC807F00000000605A14008B7C01F9
:1015E600500000294814DC807C00000000294814C3
:1015F600F2807C800001B6294814DC805F00000080
:10160600007B5A0C008B94015000002D480CDC80A6
:1016160094000000002D480CF28094800001B62D45
:10162600480CDC807F00000000605A3AF680FB0020
:1016360050000026483AC380FB0000000026483AC6
:10164600CC80FB800001B626483AC380BE0000006D
:1016560000705A3FF98029045000002E483FC3808D
:1016660029040000002E483FD08029840001B62EB0
:10167600483FC380E800000000805A28A4806A041E
:10168600500000165A2884806A04000000165A2862
:1016960089806A84350035165A2884801C04000027
:1016A600006B5A23F98014045000001F5A23C88087
:1016B60014040000001F5A23F08014843501871F8C
:1016C6005A23C880E700000000565A202020496EA1
:1016D60070757420203A20202020202020202020F1
:1016E600202020200020202053797374656D203A35
:1016F6002020202020202020202020202020002004
:101706002020482046726571203A20202020202083
:101716006B487A2020202020002020205620467268
:101726006571203A20202020202020487A20202081
:10173600202000202020462F57205265763A202070
:101746002020202020202020202020200000000013
:101756000000000000000000000000000000000083
:101766000000000000000001020205050304040455
:101776000404040404040404040404040404040423
:101786000404032020201C202020202020202020AC
:1017960020002020202020202020202020002E0095
:1017A6003A000101010102020202020505050505D2
:1017B600030404040404040404032020200020205D
:1017C6002020202020202020200020202020202033
:0617D6002020202020006D
:10757F004100C3FF4100C4004100CA00C116C1153C
:10758F004100B1004100C7004100CC004100CB00D9
:07759F004100BE00011E00C7
:10433C009000AFE0FEA3E0F5828E83227E00900019
:10434C0011E09000105403FFEEF0A3EFF022900068
:10435C00257A007926E0FF7E007B0190002E124228
:10436C00777BFF22EE900010F0A3EFF02275F01097
:10437C0012424B740E93FB740F939000B2CBF0A3CC
:10438C00EBF08F828E83ED75F01012424B74099313
:10439C00FF740A939000AFCFF0A3EFF022900029A6
:1043AC00E024F1FF900028E034FFFE90002D024243
:1043BC005775F01012424B740D9322D3900011E0FC
:1043CC009400900010E09400227A1479C19000318E
:1043DC001242777A1479AF2290001F124257900044
:1043EC000E12403DAAF0F97BFF90002D12427790FF
:1043FC00001F024257E0FDE4900035F0A3EDF022DF
:10440C00900010A3E0FD229000AFE0FEA3E0FFF5CA
:10441C00828E8322900028E0FEA3E0FF227E009093
:10442C0000CDEEF0A3EFF0229000AFE0FEA3E0FF92
:10443C00EE9000BFF0A3EFF0A322E0FF900010E499
:10444C00F0A322E0FEA3E0FF9000B2E0FCA3E0F5B5
:10445C00828C8322E0FEA3E0FF7B01900054740861
:10446C00F02290000EE0900010A4FFE5F08FF00217
:10447C003FFC75F01012424B740E93FC740F93AA10
:10448C0004F97BFF9000071242778F828E8322E41F
:10449C00900010F0A3F022FFE975F003A42416F5A8
:1044AC0082E43400F58322900010E0FEA3E0FF903C
:1044BC0000B2E0FAA3E0F5828A83740393FDE493DF
:1044CC002274342DF582E43400F583227D017BFFC8
:1044DC007E007F0C023EE190004CE475F00112422C
:1044EC0060023F079000021242AC9000CAE075F0E7
:1044FC0003A4F58285F0830242ACF0A3EFF0D390D5
:10450C0014AF7401939FEE6480F8E4936480982256
:10451C00FF900028E03400229000AFE0FEA3E0AA58
:10452C0006F97BFF2275F01002424BE0FD75F00A94
:10453C0084E5F0243022A3E475F001023FFCE0FE98
:10454C00A3E02DFDEE3CFCEDA4FBAAF0FF900018BF
:10455C00E0229014B1E493FE740193FF22900010BA
:10456C00E4F0A3740EF022EFF090000FE022F0E0E4
:10457C00FF25E0241BF582E43415F583E49322F047
:10458C00EF25E0241CF582E43415F583E493227EB8
:10459C0000EEF0A3EFF022EEF0A3EFF0A3024277CF
:1045AC009000CFE0640122740E93FB740F93900083
:1045BC00B2CBF0A3EBF022EF54F8FFA3E054074F7B
:1045CC00FB7D177F8A22900011E02403F0900010ED
:1045DC00E03400F022C3900011E0940222FFE49337
:1045EC00FC740193FDC3EF9DFEE49C2290000EEE43
:1045FC00F0A3EFF0FD900014E0FF22E51E25E0246F
:10460C00B6F582E43400F5832235F0FA7BFF900096
:10461C000BE0900054F022F583EEF0EF75F00A8475
:10462C00900032F0222440F582E43400F58322908D
:10463C0000CDA3E0FF22E0FFA3E09000BFCFF0A3EA
:10464C00EFF0227D177C00123F5FEF22FFE08FF02E
:10465C00A4FF2290000D023F20A3E054074438FB36
:10466C007D787F8A22F090003AE004F022E0FF7E11
:10467C00007B017A00792722F0ED75F00A84900016
:10468C0008F022FBC3EF9BFFEE9400FEC322F9E47B
:10469C003AFA0242772FFFE035F0FAA9077BFF22A6
:1046AC00E024052FF075F0058422FFE4F0A3EFF071
:1046BC0022900013A3E0FF22FF7E007B017A007999
:1046CC0026229FEE6480F8EC6480982212425702F6
:1046DC003F0775F011A42463F9746B22F582E4345E
:1046EC0000F583EEF0227B017A00793B22E4FB7D1E
:0446FC009E7F8A22F1
:03000E0012A4D564
:0100110022CC
:05640800900012EFF00E
:10640D0012000E900017EFF0900012E0B401047F1F
:10641D000180027FFF9000171246ACE5F012457A1D
:10642D00FEFD900013E4F0A3EDF09000C8E0FDC375
:10643D00900014E09DF0900013E09400F09000C8DF
:10644D00EE12458BFFFD900015E4F0A3EDF09000EA
:10645D00C9E0FDC3900016E09DF0900015E094009A
:10646D00F09000C9EFF09000187401F0900018E062
:10647D00FFD39404506D1296E7AD07AC0690001350
:10648D0075F00812454AF975F003A42417F582E456
:10649D003400F583EFF0EA1244A3EFF0AF0112934D
:1064AD00C2AC06AD0790001575F00412454A75F0A3
:1064BD0003A42418F582E43400F583EFF0EAC4F860
:1064CD0054F0C8EBC4540F485470FF900018E0F915
:1064DD001244A5E04F1244A3EFF0900018E004F031
:1064ED00026479129E627DE07F8A129BBEEF54EFAB
:1064FD001265689000187401F0900018E0FFD394B5
:10650D00045031EF14FB7D9E7F8A12A02990001854
:10651D00E075F003A42416F9740035F0FA7B0190B0
:10652D00005A7403F07DA07F8A129915900018E02F
:10653D0004F080C57DE07F8A129BBEEF441012658A
:10654D0068900017E0FF12A464129E62E4FB7D9038
:0A655D007F8A12A029900017E0FFCA
:0A65670022FB7DE07F8A12A02922AA
:105D850090151BE4939000C8F090151CE4939000C7
:105D9500C9F0E4FF12A4647FB0125EFE7FA0125E1C
:105DA500FE7FA07E0012A0039000FDEFF07FA11200
:105DB5005F067FA2125F067FBA125F157FA4125F8E
:105DC500157FAB125F0D7FA3125F247FBB125F248B
:105DD5007FA5125F0D7FA6125F1C7FA7125F1C7F38
:105DE500A8125F2B7D327F387E0012977A900106CC
:105DF5007432F0E4FF1269077D327F377E00129717
:105E05007A7D037FB27E0012977A7FBC125F2B7F6B
:105E1500BD125F3A7FBE125F3A9000DDE0700FFD64
:105E25007FAEFE12977A7D017FAC7E00800E7D0DE0
:105E35007FAE7E0012977AE4FD7FACFE12977AE47E
:105E45009000F0F07D027FAAFE12977A7FA9125F7B
:105E550049E4FF1296037BFF7A00796612A2CF7D93
:105E6500337FA07E00129E8F7FB2125F497FB312EF
:105E75005F327FB4125F327FB5125F417FB6125F2A
:105E850041127061E4FF12A4767D017FBF7E00128E
:105E9500977A7FBF7E0012A003EF24FF9206E4FDF0
:105EA5007FB8FE12977A7FB87E0012A0039000DAC1
:105EB500EFF07D017FB77E0012977A7FB77E0012E3
:105EC500A0039000D7EFF07D027FB97E0012977A8C
:105ED5007FB97E0012A0039000D0EFF0E4FD7FAF04
:105EE500FE12977AE49000E9F09000DC04F0FD7F63
:105EF500C57E0012977A0289257D017E0012977A68
:105F050022E4FDFE12977A227D017E0012977A2205
:105F1500E4FDFE12977A227D017E0012977A22E433
:105F2500FDFE12977A22E4FDFE12977A227D017E0C
:105F35000012977A22E4FDFE12977A227D017E00F7
:0B5F450012977A22E4FDFE12977A22E8
:10A3650012A4DD9000CAEFF075F00584AFF0EFF0B0
:01A3750022C5
:10A24200EFB401047F0180027FFF9000CA1246AC86
:0CA25200AFF0EFF012A4769000CAE0FF1D
:01A25E0022DD
:058FB700900014EDF034
:108FBC00EF75F003A42481FEE435F0A3F0A3CEF00A
:108FCC00E4A3F0900017E0FFC39403504590001603
:108FDC00E02FFF900015E03400FE12A00390001863
:108FEC0012459B7B017A00791A1243671243D51202
:108FFC008180900017E02471FD90001AA3E0FF908F
:10900C000014E02FFB7F8A12A029900017E004F0D7
:02901C0080B121
:01901E00222F
:108D1F00EFB401047F0180027FFF9000CEE02404B6
:108D2F00FD9000CDE03400FCEF3395E0FEED2FFF1A
:108D3F00EC3EF0A3EFF07E009000CD124351FD7F8B
:108D4F008012977A7F107E0012A0037E007B017A3B
:108D5F000079121243677A1479C71243D9128180AE
:108D6F0012463B900012A3E0FD128FB77F807E006A
:108D7F0012A003EF64037B8A60047D3080027D378D
:0A8D8F007F3C7E00129DA212463BBD
:018D990022B7
:057F8000900012EFF07B
:107F8500ED9000CEB4010DE02401FF9000CDE0346A
:107F950000FE800BE024FFFF9000CDE034FFFE9053
:107FA5000013EE124506501512455E900014E09F31
:107FB500EE6480F8900013E0648098400302802905
:107FC500900013E0FEA3E0FF12442B7B017A0079B9
:107FD500151243671243D5128180900012E0248A5E
:107FE500FFE433FEA3A3E0FD12977A7F107E001213
:107FF500A00390001312459B7B017A007917124369
:10800500677A1479C71243D9128180900012E0244F
:1080150071FD900017A3E0FF900015A3E02FFB7FF3
:078025008A12A02912463B5C
:01802C002231
:109313007D707F8A129BBEEF54BFFB7D707F8A12E4
:10932300A0297D741293617D757F8A12A0297D76B1
:109333001293617D717F8A12A0297B807D727F8A5F
:1093430012A0297B807D737F8A12A0297D707F8A7A
:10935300129BBEEF4440FB7D707F8A02A0297B8075
:089363007F8A12A0297B802201
:06734D0090001EEFF0FDB0
:107353007F0B7E0012977A90001EE06403606CE45A
:10736300A3F0A3F090001FE0FEA3E0FFC3940FEE91
:1073730064809480503B90001EE0C454F02441F597
:1073830082E43415F583E5822FF582E5833EF583A8
:10739300E493FB90001FA3E02431F58274153EF5BE
:1073A30083E493FD7F8A12A02990001F1245438036
:1073B300B390001EE0C454F02450F582E43415F574
:0B73C30083E4939000211246B6805234
:1073CE00E4FF12A504129A157F0112A5041296501D
:1073DE007F0212A504AD07E4FF128D9A7F0312A55A
:1073EE0004AD077F01128D9A7F0412A504128E79C7
:1073FE007F0512A5047E00900023EEF0A3EFF07B34
:10740E00017A0079211243677A1579091243D9124C
:02741E0081806B
:1074200090002112466512A0297D177F8A129BBE0B
:097430009000211245C312A029AD
:017439002230
:03A51D007F00229A
:07A5040012A14812442922B4
:05840800900012EFF0EE
:10840D00EDB401067E007F0180047EFF7FFF9000AA
:10841D00CDE0FCA3E0FD2FFFEC3EFE9000131245D6
:10842D0006501612455E900013E0FAA3E0FB9FEE96
:10843D006480F8EA6480984003AF0522900012E052
:10844D0014601814601D14601A14602724FE602B2C
:10845D002406702DAF03129A1580261246BD129672
:10846D0050801E900012E024FEFFA3A3E0FD128DAC
:10847D009A800E1246BD128E7980061246BD128F5D
:10848D004E900012E0FFA3A3E0FD12A34390001352
:08849D00E0FEA3E0FF12442BF6
:0184A50022B4
:059A1500900025EFF0B8
:109A1A0012A517900025E0BF010C1246C412436735
:109A2A007A1479F1800A1246C41243677A1479EBE0
:109A3A001243D91281809000D8E090151493FD90BA
:0A9A4A000026A3E0FB7F8A02A0299A
:05965000900025EFF081
:109655009000D8E06404701712435A7A1479CD1239
:1096650043D9128180900026A3E0FB7D74802212ED
:10967500435A7A1479F71243D912818012A51DEF46
:109685009000266007A3E0FB7D3A8005A3E0FB7D03
:06969500107F8A12A029DB
:01969B0022AC
:108F4E007E007B017A0079151243677A1479E51257
:108F5E0043D91281807DFF7F8A129BBE900017EF4E
:108F6E00F0E47DFF128FB07DBE7F8A129BBEEF5460
:108F7E00CF44107DBE128FB07DC47F8A129BBEEF90
:108F8E005480FD900015E0A2E713A3E0134DFB7D86
:108F9E00C47F8A12A029900017E0FB7DFF7F8A0212
:028FAE00A029F8
:078FB000FB7F8A12A02922B9
:058E7900900025EFF060
:108E7E009000D8E06404702A9000257A00792612BA
:108E8E0043617A1479D91243D91281807D707F8A19
:108E9E00129BBEEF54C0FF900026A3E04FFB7D70E7
:108EAE00802F900025E0FF7E007B017A007926124C
:108EBE0043677A1579031243D912818012A51DEFEB
:108ECE009000266007A3E0FB7D3E8005A3E0FB7DBE
:068EDE00157F8A12A02995
:018EE400226B
:088D9A00900025EFF0A3EDF0BD
:108DA20012A51DEF60301246791243677A15790FCA
:108DB2001243D9128180900025E0243CFD7F8A1263
:108DC2009BBEEF5480FF900027A3E02FFB9000256D
:108DD200E0243CFD802C9000261246791243677AEB
:108DE2001479FD1243D91281809000D8E0900025B9
:108DF200B40405E024728003E02413FD900027A34D
:078E0200E0FB7F8A12A029AA
:018E09002246
:05822500900012EFF0D3
:10822A007D787F8A129BBEEF5407540F9000151277
:10823A0046B6900012E0B401047F0180027FFFEF8E
:10824A003395E09000158FF0123FFC901509124506
:10825A0061900015E0FCA3E0FDC31246CE400D90EC
:10826A00150B124561D3ED1246CE400412463B224D
:10827A00AF057E007B017A0079131243677A14797D
:10828A00AF9000311242777A1579091281809000F5
:10829A001512466512A0297D177F8A129BBE90008F
:1082AA00151245C312A029900013A3E0FD7F051201
:0D82BA00A343900013E0FEA3E0FF12442B4D
:0182C7002294
:10901F009000D8E090000AF09000D87401F0900012
:10902F00D8E0FFC394075030EFB40413E490000965
:10903F00F0900009E090157712907440F48011E4DD
:10904F00900009F0900009E090157112907440F4AF
:10905F009000D8E004F080C690000AE09000D8F0AD
:05906F007F0302734DB8
:10907400FF93FD12A343900009E004F0E0C39406BB
:0190840022C9
:106E5E0090001EEFF0D39403400B7F01126E5E90F4
:106E6E00001E7401F09000E9E0FF70089000D2E07F
:106E7E00640D602BEFB4010C7FAE7E0012A003EF09
:106E8E00640A601B9000ECE030E5197FA27E0012D0
:106E9E00A003EF600A7FA27E0012A003BF0505E4E7
:0C6EAE0090001EF090001EE09000E1F04B
:106EBA0012A511EF6401601E12A511EF6404601699
:106ECA0012A511EF6405600E12A511EF64076006A2
:106EDA0012A511EF700F90001EE075F00AA424911C
:106EEA00F97415800D90001EE075F00AA424B9F912
:106EFA00741535F0FA7BFF9000211242779000E179
:106F0A007401F0129E62E490001FF0A3F090001F3B
:106F1A00E0FEA3E0FFC3940AEE64809480502FEF52
:106F2A0025E0FFEE33FE747D2FF58274153EF5835E
:106F3A00740193FD9000211246D8FB7F8A12A02982
:0E6F4A0090002212454390001F12454380BF65
:086F58009000E1E0FF02A45BE0
:109EBC00E51EC3940450229000BFE0FEA3E0FF1205
:109ECC004607EEF0A3EFF09000C2E0FFAE1E051EB9
:0C9EDC00741A2EF8A6077F01227F0022D6
:10A27C00E51E6015151E124607124642741A251E5D
:0CA28C00F8E69000C2F07F01227F002263
:1097C10090001D124277900020EDF0BDFF037FFF56
:1097D10022900020E004F0E075F010A4FF90001D3D
:1097E100124257E92FF9EA35F0FA900007123F20AB
:1097F100B4FF0C900008123F20B4FF037FFF2290BA
:059801000020E0FF2241
:09A4A300EFB4FF037FFF221F222A
:02995600AC075C
:109958009000AFE07002A3E06004E4FE80027EFFA6
:10996800EEF460289000AFE0FAA3E0FBF5828A836A
:1099780075F010EE1243C0540FB50403AF0622A9C8
:0E998800037BFFAD061297C1AE0780D4AF0679
:0199960022AE
:10629B0090000A7401F0129EBC9000AFE0FFA3E0E7
:1062AB00CF12443DE0A3F09000CFE004F0E4900067
:1062BB00AFF0A3F09000C174FFF07F01125F507B31
:1062CB00737D327F257E00129DA2E4900009F09031
:1062DB000009E075F01AA424D1F582E43416F58395
:1062EB00E493603C90000AE0FF900009E0FB2FFF75
:1062FB00E433FE12464F240EFDE43EFCEB75F01A20
:10630B00A424D1F9741635F0FA7BFF90005474175E
:10631B00F0AF05AE04129D3E900009E004F080AF93
:10632B0012A5179000097401F0900009E0FE75F0BA
:10633B0011906B6212424BE4936F6008900009E07E
:10634B0004F080E5EE1246DE1263D2241AFDE43E21
:10635B00FC900009E01246DE124615AF05AE0412A2
:10636B009D3E1263EF1263D22431FFE43EFEC00662
:10637B00C0071263EF124615D007D006129D3E7F61
:10638B00041263FD243090000CF0A3742EF07F05F3
:10639B001263FDE0FDC4540F243090000EF0ED5459
:1063AB000F2430A3F0E4A3F090000AE0FF7E00126C
:1063BB00464F2448FFE43EFE7B017A00790C9000A7
:0763CB00547404F0029D3E32
:1063D20035F0FA7BFF12A2B490000BEFF090000AA6
:1063E200E0FF7E007C007D17123F5FEF221292BA1F
:1063F200EF75F011A424B8F9746B227E0012A00389
:06640200900009EFF022FA
:05866E00900008EFF090
:1086730078097C007D017BFF7A1779747E007F186F
:10868300123EE1900008E0C394645030E0FF75F0BF
:108693000584E5F090176D93FEEF75F00584FF24D4
:1086A300091246E8EF04FFEFC39414500F90176DBF
:1086B300E493FE74092F1246E80F80EB900009E063
:1086C300B401037402F090000812453790002012A1
:1086D300468412453790001F1246842430FF9000D1
:1086E3001EF0BF30037420F07FE17E007B017A002F
:0B86F30079099000547418F0029D3EBD
:109E030090000874FFF0EF24D1700A12A517900098
:109E130009EFF080037F0022900009E0FF129956BA
:0F9E2300900008EFF0BFFF02E4F0900008E0FFAE
:019E3200220D
:0647000090001D1245A30C
:104706009000C5E0B40309E4900028F0A3F0800609
:1047160090002812456C9000B212433FE49390003B
:1047260023124658900022E0FD900029E02DFD124C
:10473600451DCD2FFEED35F0F0A3CEF01243FB90D4
:104746000007123F20FFF460211243FB900027EF81
:10475600F0124012AAF0F97BFF124A83FD124420A0
:10476600124A6E900022E02402F07B8A7D377F2574
:104776007E00129DA21243FB900008123F20F460B7
:10478600701243FB1244F0124A83E4FFA3F0900038
:1047960025E0FDEFC39D501F90002A1242578F82DD
:1047A600758300123F20FEF46004EEB4FE0690000E
:1047B60026E004F00F80D7124420124A6E9000269D
:1047C600E0FD900025E0C39DC3940F501AE0FCFF66
:1047D600900029E02F12451CFEED12468F740F9CA7
:1047E600FCED2CFD129E8F900028E475F00F123F11
:1047F600FC9000CFE0C39403500B900024E06401CA
:1048060070030249931243FB90000B123F201242A1
:10481600DC49770149770249770348390448480556
:10482600495C0749770A49840B48630C49791000AB
:1048360000499312465FFF125580AD0712442002CD
:0248460076DC1E
:104848001243E412465FFF125580900035EEF0A344
:0B485800EFF01244201243B702495950
:104863001243E412465F24C66030147003024939D0
:10487300240260030249931243A990006C124994E5
:1048830024F51243AF90006D1249C390006E124A93
:104893000290006F1244010249591243A99000701B
:1048A300124401124A7B24F4124A4124F51243AF05
:1048B300900071124401124A7B24F8124A4124F9F0
:1048C3001243AF900072124401127966900029E0FE
:1048D30024FCFF900028E034FF124A5D900029E099
:1048E30024FD1243AF9000731244011279661244FF
:1048F300207BFF7A1779A69000547401F0129D3E35
:10490300900029E0240112451C1243B69000741252
:104913004401127966900029E0240412451C124ACE
:104923005D900029E0240512451C1243B6900075E2
:104933001244010249591243A99000761249942462
:10494300F51243AF9000771249C3900078124A02E0
:094953009000791244010279661A
