:103585006873636F6D20312031206368303A3125CF
:10359500316278206368313A30253162782063687A
:1035A500323A3025316278206368333A302531620A
:1035B500780A0D006873636F6D20312031206368D0
:1035C500313A3125316278206368303A30253162ED
:1035D50078206368323A3025316278206368333A5F
:1035E50030253162780A0D006873636F6D203120D4
:1035F50031206368323A3125316278206368303A88
:103605003025316278206368313A3025316278207F
:103615006368333A30253162780A0D006873636F49
:103625006D20312031206368333A312531627820AD
:103635006368303A3025316278206368313A302545
:10364500316278206368323A30253162780A0D009C
:103655006873636F6D20322032206368303A3125FC
:10366500316278206368313A3025316278206368A9
:10367500323A3025316278206368333A3025316239
:10368500780A0D006873636F6D20322032206368FD
:10369500323A3025316278206368333A3125316218
:1036A50078206368303A3025316278206368313A92
:1036B50030253162780A0D006873636F6D20322002
:1036C50032206368303A3025316278206368333AB6
:1036D5003125316278206368313A302531627820AE
:1036E5006368323A30253162780A0D006873636F7A
:1036F5006D20322032206368333A312531627820DB
:103705006368313A3025316278206368303A302574
:10371500316278206368323A30253162780A0D00CB
:103725006873636F6D20332031206368333A312528
:10373500316278206368303A3025316278206368D9
:10374500313A3025316278206368323A302531626A
:10375500780A0D006873636F6D203320332063682A
:10376500303A3025316278206368313A302531624C
:1037750078206368333A3125316278206368323ABC
:1037850030253162780A0D006873636F6D20332030
:1037950034206368303A3025316278206368313AE5
:1037A5003025316278206368333A312531627820DB
:1037B5006368323A30253162780A0D006873636FA9
:1037C5006D20342031206368303A3025316278200D
:1037D5006368313A3025316278206368323A3025A2
:1037E500316278206368333A31253162780A0D00F9
:1037F5006873636F6D20322032206368303A31255B
:10380500316278206368323A302531627820636806
:10381500313A3025316278206368333A3025316298
:10382500780A0D006873636F6D203220322063685B
:10383500323A3125316278206368313A3025316278
:1038450078206368303A3025316278206368333AEE
:1038550030253162780A0D006873636F6D2033205F
:1038650033206368333A3125316278206368303A12
:103875003025316278206368313A3025316278200D
:103885006368323A30253162780A0D006873636FD8
:103895006D20322032206368333A31253162782039
:1038A5006368323A3025316278206368313A3025D1
:1038B500316278206368303A30253162780A0D002C
:1038C5006873636F6D20332031206368333A312587
:1038D500316278206368303A302531627820636838
:1038E500323A3025316278206368313A30253162C9
:1038F500780A0D006873636F6D203320312063688B
:10390500333A3125316278206368313A30253162A6
:1039150078206368323A3025316278206368303A1E
:1039250030253162780A0D006873636F6D2033208E
:1039350033206368333A3125316278206368303A41
:103945003025316278206368323A3025316278203B
:103955006368313A30253162780A0D006873636F08
:103965006D20332033206368333A31253162782066
:103975006368313A3025316278206368323A302500
:10398500316278206368303A30253162780A0D005B
:103995006873636F6D20332033206368303A3125B7
:1039A500316278206368313A302531627820636866
:1039B500323A3025316278206368333A30253162F6
:1039C500780A0D006873636F6D20332033206368B8
:1039D500303A3025316278206368323A30253162D9
:1039E50078206368333A3125316278206368313A4B
:1039F50030253162780A0D006873636F6D203220BF
:103A050032206368313A3125316278206368303A73
:103A15003025316278206368323A3025316278206A
:103A25006368333A30253162780A0D006873636F35
:103A35006D20322032206368313A31253162782099
:103A45006368323A3025316278206368333A30252D
:103A5500316278206368303A30253162780A0D008A
:103A65006873636F6D20322032206368313A3025E8
:103A7500316278206368333A312531627820636892
:103A8500323A3025316278206368303A3025316228
:103A9500780A0D006873636F6D20332033206368E7
:103AA500313A3125316278206368303A3025316208
:103AB50078206368323A3025316278206368333A7A
:103AC50030253162780A0D006873636F6D203320ED
:103AD50033206368313A3025316278206368303AA3
:103AE5003025316278206368333A31253162782098
:103AF5006368323A30253162780A0D006873636F66
:103B05006D20332033206368313A302531627820C7
:103B15006368323A3025316278206368333A31255B
:103B2500316278206368303A30253162780A0D00B9
:103B35006873636F6D20322032206368323A312515
:103B4500316278206368303A3025316278206368C5
:103B5500313A3025316278206368333A3025316255
:103B6500780A0D006873636F6D2032203220636818
:103B7500323A3125316278206368313A3025316235
:103B850078206368333A3025316278206368303AAB
:103B950030253162780A0D006873636F6D2032201D
:103BA50032206368323A3025316278206368333ACF
:103BB5003125316278206368313A302531627820C9
:103BC5006368303A30253162780A0D006873636F97
:103BD5006D20332033206368323A312531627820F5
:103BE5006368303A3025316278206368313A302590
:103BF500316278206368333A30253162780A0D00E6
:103C05006873636F6D20332033206368323A302543
:103C1500316278206368303A3025316278206368F4
:103C2500333A3125316278206368313A3025316283
:103C3500780A0D006873636F6D2033203320636845
:103C4500323A3025316278206368313A3025316265
:103C550078206368333A3125316278206368303AD9
:103C650030253162780A0D006873636F6D2032204C
:103C750031206368333A3125316278206368323AFE
:103C85003025316278206368313A302531627820F9
:103C95006368303A30253162780A0D000D0A50729A
:103CA50065762E46573A25303478000D0A437572ED
:103CB500722E46573A25303478000D0A5B4D53472E
:103CC5005D6D61696E5F696E697428293D3E20727C
:103CD500657620213D2046575645522026206361B2
:103CE5006C6C20436C65617242617369634545285C
:103CF500290D0A000D0A43616E6E6F7420616363BE
:103D050065737320454550524F4D21212121000DEA
:103D15000A4E6F20696E697469616C697A65005431
:103D250057383831360054573838313642005457F1
:103D350038383137004E6F7468696E67202D2D3025
:103D450078253032780D0A00436865636B2061671A
:103D550061696E202D2D3078253032780D0A004CA2
:103D650061737420436865636B202D2D3078253091
:103D750032780D0A00FF3585FF35B9FF35EDFF3681
:103D850021FF3655FF3689FF36BDFF36F1FF372552
:103D9500FF3759FF378DFF37C1FF37F5FF3829FF4B
:103DA500385DFF3891FF38C5FF38F9FF392DFF39E8
:103DB50061FF3995FF39C9FF39FDFF3A31FF3A6592
:103DC500FF3A99FF3ACDFF3B01FF3B35FF3B69FFCA
:103DD5003B9DFF3BD1FF3C05FF3C39FF3C6D2D2D45
:103DE5002D3E2050616E656C3A20575647412D385F
:103DF50030302A343830202D2D205449434F4E4C35
:0D3E05004553532048532037696E63680011
:10768C00014200014500C109C10802460000014445
:10769C0000025500004100F101C10AC10B4100F488
:1076AC00004100F2004100F5004400F7000000002A
:109B7600ED90001CF090001AE090001D2290001A53
:109B8600E090001CF022EBA3F090001BE090001E7A
:109B96002290001BE0A3F0A32290001CF090001B73
:0F9BA600E090001D22900027F0A3EFF07BFF223C
:10709A007B107DE07F8A12A1E21291FE900000EE41
:1070AA00129BAE7A3C79A1900027EEF0A3EFF01282
:1070BA00A16F1291FEEF64307003EE640260287BC8
:1070CA00FF7A3C79B09000277402F0A37430F01272
:1070DA00A16F7F307E02129A2A1291FEEE129BABAA
:1070EA007A3C79B012A16F1291FEEF64307003EE10
:1070FA0064027033900000E064027004A3E064301C
:10710A00601B9000DBE0FF12A6267F0112A6411247
:10711A009D2A7BFF7A3C79BF12A16F802C12A69A16
:10712A009000DBEFF080227BFF7A3C79F912A16FA5
:10713A007BFF7A3D791412A16F9000DB74FFF07F18
:10714A0001129E12E4FF028DA37F087E0012A1BCE9
:10715A009000E3EFF06004E0FF80027F01129E12CC
:10716A001289879000D874FEF01293D9129E4B7D33
:10717A00FF12719F7D8212719FE4FB7DFF7F8A124D
:10718A00A1E27BFF7DD07F8A12A1E27BFF7DD17FC6
:04719A008A12A1E2D2
:09719E00227B017F8A12A1E2228A
:1098C00075F68775F65975BF10E4F5F6758DF47564
:1098D0009850758922758855758A40758C407587B2
:1098E0008075B80275A892D299D2ACF5C8C2CAD216
:1098F000AD75AA5075BAF443A61843AD10C20B75E6
:0B990000DE4243D840F5B175B22022D2
:03000B0002685C2C
:0B685C00C0E0C083C082C0D075D0082F
:1068670005549000F3E0600214F09000F3E07033F9
:10687700E5A05460C4135403FF9000FAE06F60234F
:106887009000F8E09000F7F09000F9E09000F8F041
:106897009000FAE09000F9F0A3EFF0D20C9000F32B
:1068A7007430F0E554D3946050030269A30549E5B9
:1068B70049700205487554000544E5446464600363
:1068C70002695B9000E2E094FF5003E004F0E562A8
:1068D7002401FFE43561FEE43560FDE4355F8F6236
:1068E7008E618D60F55F7544009000D4E0D394010C
:1068F7004003E014F0900068E004F09000FEE0D35D
:1069070094004003E014F0300D069000F2E004F02C
:106917003003069000F5E004F0900068E0B43C080E
:10692700E4F090007BE004F090007BE0B43C08E4E6
:10693700F0900087E004F0900087E0B41808E4F0D6
:10694700900086E004F0E5459000F46005E004F06F
:106957008002E4F0E556F47003E555F46008055647
:10696700E55670020555E5A0F4549C6029E542B44C
:10697700030DE5A0F4549CF545C208D2098013E540
:1069870042B4640EE5A0F4549CF545D208D20975CB
:0C69970042500542800675420075450024
:0969A300D0D0D082D083D0E032C4
:10A3A100E4F562F561F560F55F9000DBF07F641222
:0EA3B100A4D7C21A12A66ED2B47F0102A4D79E
:1088FC00E4FD7F8A129DA0EF24DE601024D9601461
:10890C00242870197BFF7A3D7924800E7BFF7A3DF9
:10891C00792B80067BFF7A3D793302A48812896813
:10892C007A3D793A12A16F12A61BEF701B1289685F
:10893C007A3D794D12A16F12897AEF60EAE4FD7FDE
:10894C008A129DA0EFF460DF7F6312A4D712897A9C
:10895C00E4129BAB7A3D796412A16F22E4FD7F8A0D
:10896C00129DA0900027E4F0A3EFF07BFF227F6321
:0B897C0012A4D7E4FD7F8A129DA02208
:10A3BF00EFB4010553E8FE8011EF700743E8015336
:0EA3CF00E8FD22EFB4020643E80143E8022253
:03001300020026C2
:03002600C2AA3239
:03002300029EB882
:109EB800C0E0C0D075D00830981EC298AF99744AD7
:109EC8002552F8EFF674572552F8A60F0552E552B9
:109ED800C394084003755200309904C299C20AD04D
:049EE800D0D0E032C4
:03006300029F53A6
:109F5300C0E0C0D075D008E5AA30E01653AAFE745D
:109F6300242543F8A69A0543E543C3941E4003758D
:109F73004300E5AA30E10553AAFDC20BD0D0D0E0DF
:019F830032AB
:0BA61B00E552B553037F00227F0122AF
:08000300200AFD8F99D20A22A8
:08A69200200BFD8F9AD20B2270
:03002B0002A56BC0
:0FA56B00C0E0C2CF0547E54770020546D0E03299
:10A4D700E5442FFFE433FE7C007D64123F72E544C0
:07A4E700B505FBE4B504F725
:01A4EE00224B
:109CED00900024E4F0A3E544F0E47B3CFAF9F8AFEE
:109CFD0062AE61AD60AC5F124120AC00AD01AE0251
:109D0D00AF03E47B64FAF9F8124095900024EE8FCE
:0C9D1D00F0123FFD900024E0FEA3E0FFE8
:019D29002217
:10A36300C3ED9FEC9E5010C374709FFF74179EFE45
:0FA37300EF2DFFEE3CFE22C3ED9FFFEC9EFE227E
:08995600900024EEF0A3EFF0F5
:10995E00900024E07002A3E06035E4900026F0A3AE
:10996E00F0900026E0FEA3E0FFE4FCFD7BD8FAF9C0
:10997E00F8D31241B2400C900026E475F001123F6C
:0F998E00FD80DE90002474FFF5F0123FFD80C1D4
:01999D0022A7
:06548700900017EFF0FC9D
:10548D00ED4410FDEB4410FB90001AE04410F0A326
:10549D00E04410F0EC1242DD551200551401551D7B
:1054AD0002552403552A04553B05553E065547071D
:1054BD0055240855670955670A55120B55500C555B
:1054CD00580D55240E55760F558410558F11558452
:1054DD0012558F13552A14559D1555141655A7178A
:1054ED0055B01855141955BD1A55A71B551D1C55EA
:1054FD00D11D553B1E551D1F55E82055D121557603
:10550D0022000055F9801690001CEBF0A3ED8014DD
:10551D00129B83A3ED802F129B97ED801890001C9A
:10552D00EDF0A3EBF090001AE090001E80250255DF
:10553D00DDED129B9FF0A3EB8028129B97EBF0A360
:10554D00ED801F129B76F0A3EB8008129B83A3EBDB
:10555D00F0A3EDF090001B0255CA90001CEDF01267
:10556D009B8CF090001A0255CA90001BE0A3129B71
:10557D007AF0A3EB0255D7129B97EDF090001A022B
:10558D0055F1129B97EBF090001AE090001E803AB7
:10559D00129B76F090001B0255F1EB129B77129B3C
:1055AD008E8027EB129B9FF0A3EDF090001A800DDB
:1055BD0090001CEBF0ED129B8DF090001AE0900026
:1055CD001FF08028129B83129B8CF0A3EDF0801CA2
:1055DD00129B83129BA3F0A3ED800D129B83A3ED71
:1055ED00F090001BE090001EF0A3EBF0E490002083
:1055FD00F0900020E0FFC39408501174572FF8E489
:10560D00F6744A2FF8E4F6E004F080E5E49000210A
:10561D00F0900017E0FF3395E0FE903D7A75F003B2
:10562D00EF12424CEE75F003A42583F583124281EF
:10563D0090001CE0900027F090001DE0900028F0F5
:10564D0090001EE0900029F090001FE090002AF0DD
:10565D0012A16F129CED900022EEF0A3EFF0129CC0
:10566D00EDC3900023E09FFF900022E09EFE12A666
:10567D000FC3EF9428EE6480948040E2E490002004
:10568D00F0900020E0FFC39408502B74572FF8E6DC
:10569D006441701AE00454072457F8E6B4430FEF41
:1056AD00240254072457F8E6B44B037F01229000DF
:1056BD0020E004F080CB7FC87E0012995690002127
:0E56CD00E004F0E0C39403500302561E7F0079
:0156DB0022AC
:108392000D0A2B2B28436C6561724F5344496E665C
:1083A2006F293A20446973706C617965644F534454
:1083B2003A2532780020000D0A5B4D53475D44692F
:1083C20073706C6179496E7075742829203D3E2066
:1083D20053656C6563744D6F6465547970653D4196
:1083E200564D6F646520746F207365742074696DD7
:1083F20065202620646973706C6179686F6C645FB4
:10840200666C61673D256278000D0A2B2B28446952
:1084120073706C6179566F6C290020202054573894
:10842200383036202020005465636877656C6C2CE8
:04843200496E63002C
:0476BC004101030085
:0FA5890075F011A4240DF9746A35F0FA7BFF22E6
:0CA5EB00900103E0FEEFF4FFEE5FF022B1
:07A6D200900103E04FF022AC
:06A6E000900103E0FF22DF
:1096960012A6E090001BEFF012A6E0900027E4F07F
:1096A600A3EFF07BFF7A83799212A16F90001BE003
:1096B600FF20E20330E70312A19690001BE030E0A2
:1096C6000312A57A90001BE030E40312A4EF900089
:1096D6001BE030E103129C7190001BE030E60312A0
:0296E600A5A736
:0196E800225F
:107A040090001A74C2F01296967BFF7A75791D1253
:107A140084D97DFF7FA07E0012A0717BFF7D327F21
:107A2400A07E00129F84E4900019F0900019E0FFFA
:107A3400C394F050197E007BFF7A8379B790005489
:107A44007401F0129F20900019E004F080DD900191
:107A540003E04410F012A6ECEF6401607790001983
:107A64007401F0900019E0FE75F011906A0C124256
:107A74004CE4936F6008900019E004F080E5EE1286
:107A8400A58912A46D900018EFF0A3E012A58990C7
:107A94000018E0900054F07FA07E00129F207FA386
:107AA4007E0012A1BCBF01199000D2E070139000B7
:107AB400D47405F07BFF7A8379B9900027F012A182
:107AC4006F7D017F02129A6E7F0112A015129CED48
:047AD4008E6F8F70B2
:017AD800228B
:10A4EF00E4FF12A015E4FD7F02129A6E900103E0C3
:06A4FF0054EFF07F012282
:107D4C007BFF7A84790B12A16F7DFF127E0A7D82F4
:107D5C00127E0AE4FB7DFF7F8A12A1E2900103E010
:107D6C0020E27C1296967F0A12A4D77BFF7A757953
:107D7C008C1284D97D327FC87E0012A0717B197D54
:107D8C00377FC87E00129F847B197D737FE17E0054
:107D9C00129F8412A53975F003EF900AA812424C79
:107DAC00124281AE02AF01900006EEF0A3EFF07B21
:107DBC00FF12A46D900006E0FCA3E0AA04F97BFF7F
:107DCC00900054EFF07FC87E00129F207D017F0150
:107DDC00129A6EE4FD7F04129A6E7F0112A0153088
:107DEC0017059001078003900106E0FF1287E090D1
:0D7DFC000103E04404F0129CED8E6F8F70C7
:107E0900227B017F8A12A1E27F057E001299562208
:0FA57A00E4FD7F02129A6E900103E054FEF0227E
:1086B700E4900006F012A6E0900005EFF0549670E3
:1086C7000302874CE030E11512A677900001EEF027
:1086D700A3EFF0A37407F0A374D0F080119000010A
:1086E700E56FF0A3E570F0A3E4F0A374C8F0129C63
:1086F700EDAD07AC06900001E0FEA3E0FF12A36317
:10870700D3900004E09F900003E09E50389000054E
:10871700E05484600B12A196900006EFF0127A04E1
:10872700900005E030E11B129C71900006EFF07F8E
:10873700A37E0012A1BCBF01069000D47403F012FF
:078747007A047F01227F008C
:01874E002208
:10A19600900103E030E20A7F0112A1B254FBF08085
:10A1A600087F0212A1B2547FF07F0122E4FD129AC9
:06A1B6006E900103E0229F
:1091FE00E4FFFE12A1BCEF6454600280287F017E62
:10920E000012A1BCEF64576002801A7F027E00122A
:10921E00A1BCEF64386002800C7F037E0012A1BCFB
:10922E00EF64386004E4FEFF227F047E0012A1BCCE
:10923E00EF900002F0A3E4F07F05FE12A1BC9000B7
:10924E0002E0FEA3E04FFF900002EEF0FEA3EFF06F
:01925E0022ED
:109A2A00900002EEF0A3EFF07D54E4FFFE12999E3F
:109A3A007D577F017E0012999E7D387F027E00123B
:109A4A00999E7D387F037E0012999E900002E0FD68
:109A5A007F047E0012999E900002A3E0FD7F057E9E
:049A6A000002999EBF
:08A69A007F067E0012A1BC2224
:09A62600AD077F067E0002999E3B
:08A6A2007F097E0012A1BC2219
:09A62F00AD077F097E0002999E2F
:07A6AA007F0A7E0012A1BC33
:01A6B1002286
:10898700E4900003F0900002F0900002E075F0110F
:10899700906A6112424CE4931242DD89BE0089CA93
:1089A7000189D30289DC0389E50489EE0589F70685
:1089B7008A000700008A07900003E0FD7F0A7E0017
:1089C70002999E900003E04401F08034900003E098
:1089D7004402F0802B900003E04404F080229000D2
:1089E70003E04408F08019900003E04410F0801081
:1089F700900003E04420F08007900003E04440F03B
:088A0700900002E004F0808100
:07A6B2007F0D7E0012A1BC28
:01A6B900227E
:09A63800AD077F0D7E0002999E22
:02A30100AB07A8
:10A303009000D8E0FF7E007C007D06123F60EF24C2
:0EA313000CFFE43EFEEF2BFFEC3EFE12A1BC61
:01A321002219
:10A517009000D8E075F006A4240C2FFF7E00029966
:01A527009E95
:09A64100AD077F0F7E0002999E17
:07A6BA007F0C7E0012A1BC21
:01A6C1002276
:09A64A00AD077F0C7E0002999E11
:08A6C2007F387E0012A1BC22CA
:09A65300AD077F387E0002999EDC
:08A6CA007F377E0012A1BC22C3
:09A65C00AD077F377E0002999ED4
:109D2A00E4FD7FADFE12999EE49000DDF0FD7F0810
:109D3A00FE12999EE4FD7F0EFE12999E7D0C7F1104
:109D4A007E0212999E7F117E0212A1BC90010BEF36
:0C9D5A00F0125D441291987F01027ED748
:10A3DD009291D290120012C290221242588E827522
:0EA3ED008300123F21FF22EFF0A3EDF0A32228
:0B999E00900028EEF0A3EFF0A3EDF026
:1099A900900028E0FEA3E07807CEC313CE13D8F9C0
:1099B90044A054FE90002BF012A50590002BE0FF67
:1099C90012905E900028A3E0FF12905E90002AE0BA
:0C99D900FF12905E1200167F0202A4D75D
:04A1BC00AD07AC0639
:10A1C000ED7807CEC313CE13D8F944A054FEFF1286
:10A1D0009DA0900033EFF07F0212A4D7900033E0EF
:01A1E000FF7F
:01A1E100225B
:089DA000900034EFF0A3EDF098
:109DA80012A505900034E0FF12905E900035E0FFA8
:109DB80012905E12A505900034E04401FF12905EF7
:109DC800129FB5900036EFF0120016900036E0FFB3
:019DD8002268
:10A1E20090005512A3F4EBF012A505900055E0FF84
:10A1F20012905E900056E0FF12905E900057E0FFD2
:06A2020012905E0200163E
:089C330090003412A3F4EBF0E1
:109C3B0012A505900034E0FF12905E900035E0FF16
:109C4B0012905EE4900038F0900037E0FFA3E0C381
:109C5B009F5010900036E0FF12905E900038E004A9
:069C6B00F080E502001686
:099AF40090005512A3F41242780F
:109AFD0012A505900055E0FF12905E900056E0FF14
:109B0D0012905EE490005BF090005AE0FFA3E0FE3F
:109B1D00C39F501190005712A3E712905E90005B07
:089B2D00E004F080E3020016E1
:099DD900900020EFF0A312427883
:109DE20012A505900020E0FF12905EE4900025F09D
:109DF200900024E0FFA3E0FEC39F501190002112C7
:109E0200A3E712905E900025E004F080E3020016C2
:0100120022CB
:10A50500D291120012D290120012C291120012C200
:02A51500902292
:0D001600C291120012D290120012D291225B
:10905E00C290EF30E703D38001C312A3DDEF30E6F9
:10906E0003D38001C312A3DDEF30E503D38001C328
:10907E0012A3DDEF30E403D38001C312A3DDEF3082
:10908E00E303D38001C312A3DDEF30E203D38001EB
:10909E00C312A3DDEF30E103D38001C312A3DDEFD2
:1090AE0030E003D38001C312A3DDC290C290D291EF
:0990BE00D290D290D290C290220F
:109FB500E4FFD291120012C290FDFCD290EF25E091
:109FC500FF3091034401FFC2900DBD00010CED640B
:0F9FD500084C70E7120012D290D290D290C29036
:019FE400225A
:1056DC000D0A504F574552206B65792070726573D7
:1056EC00736564000D0A4D454E55206B657920702D
:1056FC00726573736564000D0A494E505554534FCF
:10570C0055524345206B65792070726573736564DF
:10571C00000D0A5550206B657920707265737365A6
:10572C0064000D0A444F574E206B657920707265EA
:10573C0073736564000D0A53454C4543544B4559EE
:10574C00206B65792070726573736564000D0A4E69
:10575C004F542041535349474E4544206B657920A3
:10576C0070726573736564000D0A504F5745522073
:10577C006B657920000A0D6275737720302031201B
:10578C0037452038300D0A000A0D627573772030CA
:10579C0020312037452038310D0A000A0D6275730F
:1057AC0077203020312037452038320D0A000A0D81
:1057BC0062757377203020312037452038330D0A3D
:1057CC00000A0D6275737720302031203745203860
:1057DC00340D0A000A0D62757377203020312037A2
:1057EC00452038350D0A000A0D627573772030207C
:1057FC00312037452038360D0A000A0D6275737753
:10580C00203020312037452038370D0A000A0D6230
:10581C00757377203020312037452038380D0A0039
:10582C000A0D6275737720302031203745203839C6
:10583C000D0A000A0D627573772030203120374530
:10584C002038410D0A000A0D627573772030203123
:10585C002037452038420D0A000A0D6275737720F7
:10586C003020312037452038430D0A000A0D62756F
:10587C007377203020312037452038440D0A000A38
:10588C000D62757377203020312037452038450D57
:10589C000A000A0D627573772030203120374520BD
:1058AC0038460D0A000D0A4D454E554B4559206B97
:1058BC00657920000D4F53445F4C4F434B000D0A4C
:1058CC0052454D4F5F564F4C5550000D0A52454DA9
:1058DC004F5F564F4C444E000D0A4556454E544BA7
:1058EC004559206B65792070726573736564000D82
:1058FC000A5B4D53475D436865636B4B6579496E35
:10590C0028293D3E20497352756E32383335436C2D
:0C591C006B54756E653D256278002020FC
:1076C0004100FC00410100004100FF004100FD00BD
:0F76D0004100FB0041010200C112011A00C11468
:09A665007C007D0AAE02023F7286
:0EA5B60012A6E0EF30E10302002E129EEC220E
:0DA5C40012A6E0EF30E1057F0112627D225A
:0DA5D10012A6E0EF30E1057F0212627D224C
:10A2760012A6E0EF30E10A3019047F01800B02607C
:10A28600CA9000FBE07F016003026AFA126E651253
:03A296007D4C22DA
:10A2990012A6E0EF30E108301902800902002E9081
:10A2A90000FBE060057F02026AFA7FFF126E651209
:03A2B9007D4C22B7
:10792A00900004EFF0A3EDF012A5F7900004E01226
:10793A0042DD79AE0079AE0179AE0279AE0379AE55
:10794A000479AE0579AE0679AE0779AE0879AE0943
:10795A00797F0C79D41079D91179BF1579EC167918
:10796A00B52079BA21799338799C3A79FA3E79DE49
:10797A003F00007A0174FF9000DFF0A3F090000549
:10798A00E060037F01227F002212A3821282487FD5
:10799A00012212A6E0EF30E40512A4EF8003127A66
:1079AA00047F0122900005E07F012212A5C48047CE
:1079BA0012A5D18042900005E060037F012212A641
:1079CA00E0EF30E1321260CA802D12A276802812CE
:1079DA00A2998023900005E060037F012212A5B6D8
:1079EA00801512A6E0EF30E10E7FF41280F58007D1
:0A79FA007D017FC0122CCF7F012217
:10433D009000017401F0301426201223C3E562951C
:10434D001EFFE561951DFEE560951CFDE55F951B66
:10435D00FCE47B0AFAF9F8D31241B25002C2147F81
:10436D00011296E9900002EFF07003024728E02455
:10437D00F8601C24F8602024F0602424E0602824D8
:10438D00C0602C247C70307BFF7A5679DC802E7BCC
:10439D00FF7A5679F080267BFF7A577903801E7B52
:1043AD00FF7A57791D80167BFF7A57792E800E7B09
:1043BD00FF7A57794180067BFF7A57795912A16FA1
:1043CD009000ECE06007E49000020246797FAC7E3D
:1043DD000012A1BC900003EFF0E5A0F4549064909E
:1043ED00702EE0702B7FD07E07129956E5A0F45405
:1043FD009064906007900100E0B403147E001247B2
:10440D004712A5A7E49000FEF0900100F0127A0487
:10441D00900100E06403701A900003E07014FE1226
:10442D00474712A5A7127A04E4900100F07F01120C
:10443D00A3BF9000FEE07013900003E0700D90019B
:10444D0000E06007E4F07F0112A3BF12A5F7900012
:10445D0002E01242DD46B00244810445820846FB6B
:10446D000C468E10462920464C4046818046B89019
:10447D00000047287BFF7A57797412A16F20120331
:10448D00024557E51AC3940F4005E4F51A8002055D
:10449D001AE51A1242DD44DC0144E40244EC034403
:1044AD00F40444FC05450406450C07451408451C59
:1044BD000945240A452C0B45340C453C0D45440E4D
:1044CD00454C0F000044D47BFF7A57798180767B71
:1044DD00FF7A577994806E7BFF7A5779A780667B38
:1044ED00FF7A5779BA805E7BFF7A5779CD80567BFC
:1044FD00FF7A5779E0804E7BFF7A5779F380467BC0
:10450D00FF7A587906803E7BFF7A58791980367B81
:10451D00FF7A58792C802E7BFF7A58793F80267B45
:10452D00FF7A587952801E7BFF7A58796580167B09
:10453D00FF7A587978800E7BFF7A58798B80067BCD
:10454D00FF7A58799E12A4888037200E239000ECB4
:10455D00E06003024728FD7F0C12792A900001EFDD
:10456D00F0E49000D1F0FD7FABFE12999E0247283A
:10457D00C20E0246157BFF7A5879B112A16F301227
:10458D000AAF1A7E00128CA3024728900102E06048
:10459D0036E4F09000FBF07B167D0A7F8A12A1E2D3
:1045AD007B807D617F8A12A1E2E4FB7D667F8A12AA
:1045BD00A1E27FB07E0012A1BC9000D2EFF0129666
:1045CD0096129C71024728200E4D900003E0701941
:1045DD00FF127F947FF412A4D712A5A7127A047B41
:1045ED00FF7A5879C0E40246F212A6E0EF30E10BF3
:1045FD0030190280191260CA02472812A6E0EF3066
:10460D00E20C129696129C71127A040247287F3F93
:10461D0012475BF00247287F090246A8200E1C12A4
:10462D00A6E0EF30E1077F0130192980217A587912
:10463D00CA1247657F1012475B80317F06805C2070
:10464D000E2E12A6E0EF30E1117F02301906126A2C
:10465D00FA02472812627D0247287A5879D7124705
:10466D0065E4FD7F1112792A900001EFF07F0122A0
:10467D007F078027200E06128D230247287F058095
:10468D001A200E159000E9E0700404F08005E49006
:10469D0000E9F01296420247287F04125B38D213CC
:1046AD000247287BFF7A5879E4803E900106E0644A
:1046BD00147068301465301214C2127F0112A3BF3A
:1046CD007D027FA07E0012A071C214800ED2127FD7
:1046DD000212A3BFAF1A7E00128CA37BFF7A58790A
:1046ED00FBA212E433900027F012A16F802D9001F0
:1046FD0006E0641770257F0212A3BF7F647E00124F
:10470D00995612472E12472E7F0112A3BFD2148540
:10471D00621E85611D85601C855F1B900001E0FF99
:10472D00227F0112A3BF7F647E001299567F021271
:10473D00A3BF7F647E00129956227D017FAC129932
:10474D009E7F01127F947FD07E0712995622E4FD41
:10475D0012792A900001EF227BFFE4900027F012DE
:03476D00A16F2217
:1096E900A209921AC209300C34D21A9000F7E0FE8E
:1096F900B40111A3E0B4030CA3E0B40207A3E07022
:1097090003434540EEB401139000F8E0700DA3E067
:10971900B40208A3E0B40303434520C20C201A0392
:109729007F0022EF6003AF4522200803AF45227F67
:01973900002F
:01973A00220C
:088CA300900004EEF0A3EFF0D5
:108CAB0078067C007D017BFF7A5979267E007F0256
:108CBB00123EE2900004E0FAA3E0FBFF12A665ED82
:108CCB002430900007F0AF0312A665900004EEF07D
:108CDB00A3EFF02430A3F07BFF7A7579421284D98D
:108CEB007F1012A6D27D027FA07E0012A0717B02A4
:108CFB007D377FA07E00129F847B017A00790690DE
:108D0B0000547402F07FA07E00129F207D017F0231
:088D1B00129A6E7F0102A015FF
:1069AC000D0A43485F545732383335282530327836
:1069BC00292C526561644465636F64657228307874
:1069CC003636293D256278000D0A2043485F415632
:1069DC002825303278290020200A0D000A0D627516
:1069EC00737720302031203745203839000A0D626A
:1069FC00757377203020312037452038390D0A0047
:106A0C00FE0000000000000000000000000000007C
:106A1C00000143564253000000000000000000003B
:106A2C0000000243414D2044000000000000000023
:106A3C000000000341562020000000000000000070
:106A4C00000000000000000000000000000000003A
:106A5C000000000000FE000000000000000000002C
:106A6C00000000000000014E5453430000000000E1
:106A7C00000000000000000250414C00000000002B
:106A8C00000000000000000003534543414D00008E
:106A9C000000000000000000000550414C4D0000BB
:106AAC00000000000000000000000650414C4E00A9
:106ABC0000000000000000000000000750414C36B0
:106ACC00300000000000000000000000044E545391
:106ADC0043342E343300000000000000000000009E
:0E6AEC0000000000000000000000000000009C
:1076DF00C107C103C1024100D600016900C100C149
:0376EF0004C101D2
:10A11F00EF75F011A4240CF582E4346AF583E4930F
:10A12F0022900001023F21E4FB7DFF7F8A22E4F5AC
:08A13F0067F568F566F565227D
:06978B0090001E1242785E
:10979100E4FE123F08900021F012A13080299000D0
:1097A1001E124258123F08FFB4FF0612A130F460A6
:1097B10022900022EFF0FD12A130900023F0FB90E7
:1097C1000021E0FF12A1E290001FE475F002123FB8
:0997D100FD80CB12A13602A1E2D9
:108BA00090001DEFF07BFF7A5179E712978B12A1AD
:108BB0003612A1E290001DE024FE60131460102420
:108BC000FD600C240624F85011240A600D80117BEE
:108BD000FF7A53793712978B800690001D7401F04D
:108BE0009000D8E0B405139000E3E07002800B9091
:108BF000001DE014FF12A418800312A3437B157D0F
:108C0000297F8A12A1E27B067D5C7F8A12A1E27F26
:108C10000B7E0012A1BC12759F12A6A2127ED7C2B3
:028C20001C2214
:10A528007D017F8A129DA0EF30E7037F01227F0023
:01A538002200
:10857B00E490001AF0A3F09000D8E0B40506900048
:10858B00E3E0707BE4900018F0129597900019EFE0
:10859B00F090001BE004F0E0C3940A5062900019C5
:1085AB00E0FF64FE60E39000D3E0FEEF6E60DA90D4
:1085BB000018E0FFA3E0FEB50706A3E004F0800A75
:1085CB00E490001AF0900018EEF090001AE0C394BB
:1085DB000240B6900019E0FF700A129E1290001C28
:1085EB007401F0229000D3E0900019700512860BF5
:0F85FB00800812860B7F3212A4D7E490001CF088
:0F860A0022E0FF129E12900019E0FF128BA022B7
:10A2BC0012A528EF60037F01227D1C7F8A129DA0CE
:10A2CC00EF54F0FF30E7037F0122EF5470C4540FBA
:02A2DC0004FF7D
:01A2DE00225D
:10948F0012A2BCAB07EB24FE601914601624FD601A
:10949F0012240224FC5004240770177567007568A6
:1094AF003C8006756700756832E475666B75653DBF
:1094BF00800312A13DF564F563E4FFEF75F011A48D
:1094CF002461F582E4346AF583E493FEB503012247
:0894DF00EE60030F80E57F0041
:0194E7002262
:06A6E6009000D3E0FF220A
:109E12009000D3EFF024FE601914601624FD601246
:109E2200240224FC50042407701775670075683CEF
:109E32008006756700756832E475666B75653D80EE
:099E42000312A13DF564F5632251
:06A6EC009000D8E0FF22FF
:10A382007F0112A11FFE9000D8E0FDEE6D60030F69
:0EA3920080F00F12A11F70027F0112A11FFFA9
:01A3A000229A
:09A66E00301A03D2B722C2B72250
:10824800900017EFF09000D8E06F70030282E212FE
:108258009D66900017E09000D8F09000D3E0FF12E0
:108268008BA09000D8E024FD60202402703A12A26E
:108278002E1282E3C2957D667F8A129DA090002906
:10828800EFF07BFF7A6979AC800E12A2521282E37A
:10829800D2957BFF7A6979D49000D8E0FF900027C7
:1082A800E4F0A3EFF012A16F1294E89000D8E0FF79
:1082B80012A6417F1E12A4D712857B127A04E4FF0E
:1082C800128DA37F6412A4D77BFF7DD07F8A12A171
:1082D800E27BFF7DD17F8A12A1E222C217E4FF125E
:0582E8006E65C2942246
:0DA5DE00C21A12A689129D66E4FF02A3BFF7
:0CA5F700129CED9000DFEEF0A3EFF022CC
:09A677009000DFE0FEA3E0FF22E9
:107BAB00C374FF9FFFC39400400CEF94645007E431
:107BBB00900002F0804BEFC39464400DEF948C5017
:107BCB0008900002741EF08038EFC3948C400DEFC8
:107BDB0094B45008900002743CF08025EFC394B429
:107BEB00400DEF94DC50089000027450F08012EFBF
:107BFB00C394DC400CEFD394FF5006900002746EDC
:107C0B00F09000FDE0701E900002E0FFE569D39F4D
:107C1B00400415698008E569C39F50020569E4902B
:107C2B0000D6F08006900002E0F5697DFF7F8A1296
:107C3B009DA0900001EFF012A13612A1E27DBE7F54
:107C4B008A129DA0EF54CF4410FB7DBE7F8A12A1F8
:107C5B00E27DC47F8A129DA0EF54804569FB7DC4F1
:107C6B007F8A12A1E2900001E0FB7DFF7F8A02A1D7
:017C7B00E226
:10A55B00E49000F0F09000E2F09000EE7408F0222E
:1072AE007FAB7E0012A1BC9000D1EFF07FB07E00CC
:1072BE0012A1BC9000D2EFF07FAA7E0012A1BC906A
:1072CE0000E5EFF0E49000DDF07FA0FE12A1BC908F
:1072DE0000FDEFF07FB87E0012A1BC9000DAEFF057
:1072EE007FB77E0012A1BC9000D7EFF07FB97E0071
:1072FE0012A1BC9000D0EFF07FBF7E0012A1BCEFB8
:10730E0024FF92067FC57E0012A1BC9000DCEFF038
:10731E007FAF7E0012A1BC9000E9EFF07FA5127343
:10732E00A3EE9000E67006E04401F08004E0540EF7
:10733E00F07FA61273A3EE9000E77006E04401F012
:10734E008004E0540EF07FA77E0012A1BCAE07EEC3
:10735E009000E87006E04401F08004E0540EF07FE7
:10736E00A87E0012A1BCAE07EF9000EA7006E044C2
:10737E0001F08004E0540EF012A6C2900106EFF068
:10738E0012A6CA900107EFF07FB27E0012A1BC9048
:04739E0000D5EFF037
:0973A200227E0012A1BCAE0722FC
:106F86007BFF7A6979E312A48812874F900000EF9D
:106F9600F012640D9000ECE0701B9000F0E06015BC
:106FA6009000E5E0FF9000E2E0C39F400812A322B4
:106FB600E49000E2F09000FDE0700E7DC97F8A1239
:106FC6009DA0900000EFF080027FFF127BAB124382
:106FD6003DEF70030270997FA37E0012A1BCEF60A3
:106FE600679000D4E06401705F12A6E0EF20E158DC
:106FF60012A6E0EF20E2519000ECE070469000D23D
:10700600E0700512A4EF803B9000E6E0540DF0908E
:1070160000E7E0540DF09000E8E0540DF09000EA2F
:10702600E0540DF01295ED9000E6E04402F0900079
:10703600E7E04402F09000E8E04402F09000EAE065
:107046004402F0E49000D4F01286B712A6ECEF14D6
:1070560024FD5002800A12A6E0EF20E10312857B90
:107066007DB27F8A129DA0EF6003026F8F7BB07D99
:10707600FD7F8A12A1E2E4FF12A3BF7FF47E011214
:1070860099567F0112A3BF7B307DFD7F8A12A1E254
:03709600026F8FF7
:0170990022D4
:10925F00C2B5C21A12A6897F0A7E00129956C2B4ED
:10926F001298C07F0112A3BF12A3A112A55B12888F
:10927F00FC12709A7F0A7E001299561272AE7FA965
:10928F007E0012A1BC129827E49000ECF07F117EB3
:10929F000212A1BC9000D9EFF07BFF7A6979E81236
:1092AF00A4889000D1E06003126F86128A9780F233
:108A9700E4900002F012874F900001EFF0601BE0B6
:108AA700FF12640D9000EEE0B40803D38001C340C9
:108AB70019E4FF128DA3D21A800D900001E0FF1276
:108AC700640D12A5DEC21A12A689E4FF1296E99078
:108AD7000000EFF060BFE0B404BB12874FEF70B542
:108AE7009000D104F0FD7FAB7E0012999E127A04AC
:108AF7001295ED7FA37E0012A1BCBF01069000D4A2
:108B07007403F0E4FF128DA3D21A12A6897BFF7AB1
:068B17006979F902A4884F
:1074A600A10AA20AA000A310A410A591A601A701F3
:1074B600A822A910AA00AB62119E00000100CC0C04
:1074C60002700000005000000F4000119E30310095
:1074D600AFC81202F1100800500030004000119EA3
:1074E6003100029000040170000000A0F5000F407A
:1074F60000119E3100029000030170000000F0F5BB
:10750600000F4000119E3230000C0D0A01B1040438
:107516000050C800044000119E313000160D0F01C6
:107526003101000040A0000840119E3330100C9835
:1075360028013101000000B400084000119E3130DE
:10754600000A0502013101000050A00008400011A8
:107556009E323000222C0205B1000020F000040308
:1075660040119E313000862C1707B19217405025E6
:10757600080340119E30B400222C0201F1000000E5
:10758600F0000003C100119E303C10647E1902B168
:0975960002044050C80005C100C8
:108A0F00900051FFE475F001124261EF023F4E906A
:108A1F00004FE0FEA3E0FF22EF14FB7D9E7F8A2232
:108A2F0090001B12425890001EE0F58275830002E1
:108A3F003F21E0A4FFA3E5F0F0A3EFF07DA07F8A34
:108A4F002290005BE0FCA3E0FD22EEF0A3EFF0A389
:108A5F0022123F72900059EEF0A3EFF04E22A3E0E6
:108A6F00FB7D967F8A22123F7290004FECF0A3EDB0
:108A7F00F022F07B047D947F8A22EDF0EFC3940106
:088A8F0022E4FB7D947F8A22A2
:10A0440012A066900028F0E4A3F012A066FF90002E
:10A0540028E06F700C900029E004F0E0C3940A40FB
:01A06400E912
:0CA06500227D957F8A129DA0EF544022BE
:1093D900E490000BF0E490000AF090000AE0FFC36B
:1093E9009408502FA3E075F008A4FEEF2E7D9C127F
:1093F9009429FFA3E075F0089017DD12424CE5822D
:109409002FF582E43583F583E4937D9D1294290435
:0F941900F080C790000BE004F0E0C3940240B66F
:0C94280022FB7F8A12A1E290000AE022E1
:1092BF00900003EFF0A312427812930D44017D94B6
:1092CF00129316900003E07D991293167DE07F8A2A
:1092DF00129DA0EF4410FB7DE07F8A12A1E2900067
:1092EF000412425890005A741BF07D9A7F8A129A8A
:1092FF00F412930D54FEFB7D947F8A02A1E27D94BC
:0E930F007F8A129DA0EF22FB7F8A12A1E2222C
:109E4B007B607D9B7F8A12A1E2E4900002F0900080
:109E5B0002E0FFC394E2501FEF94C6501AEF75F067
:109E6B001BA424EDF9741735F0FA7BFF1292BF9007
:079E7B000002E004F080D7B3
:019E820022BD
:039BB5009000120B
:109BB800128A894036EFD394085030128A2712A1AE
:109BC800E290001275F008128A41129DA0EF54F03D
:109BD800FD900013E04DFB7DA07F8A12A1E290006A
:0B9BE80013A3E0FB7DA17F8A12A1E225
:019BF300224F
:039AB2009000120F
:109AB500128A894039EFD394085033128A2712A1AC
:109AC500E290001275F004128A41129DA0EF540F26
:109AD500FD900013E0C454F04DFB7DA07F8A12A1D8
:0E9AE500E2900013A3E0FB7DA27F8A12A1E2B3
:019AF3002250
:05A0150090001DEFF0BA
:10A01A0012A0447D9C7F8A129DA090001EEFF090B2
:10A02A00001DE06006A3E054EF800690001EE044A5
:09A03A0010FB7D9C7F8A12A1E25B
:01A0430022FA
:039A6E0090001C49
:109A7100128A89403BEFD394085035128A2712A1EC
:109A8100E27D9F7F8A129DA090001DEFF090001C47
:109A9100E06007A3E04401F0800790001DE054FE60
:109AA100F012A04490001DE0FB7D9F7F8A12A1E28D
:019AB1002292
:10990B00EFC394014006EFD394084004E4FEFF221A
:10991B00128A2712A1E27DA07F8A129DA0EF540F1D
:10992B00900028F0A3E4F07DA17F8A129DA0900007
:10993B0028E0F0A3E04FF0900028E0FEA3E07803CE
:0A994B00CEC313CE13D8F9FF7E003F
:0199550022EF
:10954000EFC394014006EFD394084004E4FEFF22E9
:10955000128A2712A1E27DA07F8A129DA0EF54F00B
:10956000C4F8540FC868FEE4C454F048900028F0D2
:10957000A3CEF07DA27F8A129DA0900028E0F0A3E8
:10958000E04FF0900028E0FEA3E07802CEC313CEB7
:0695900013D8F9FF7E0074
:0195960022B2
:109F200090004F128A59124278128A8212A1E2904E
:109F3000004F128A6D12A1E2900051124258900017
:109F400054E090005AF07D977F8A129AF4128A901A
:039F500002A1E289
:109F8400900030128A59EDF0A3EB128A8112A1E2FB
:109F9400900030128A6D12A1E2900032E0FBA3E03F
:109FA400900037F07D987F8A129C33128A9002A128
:019FB400E2CA
:10A07100900030128A59ED128A8112A1E2900030CB
:10A08100128A6D12A1E2900032E0900037F07B203D
:0DA091007D977F8A129C33128A9002A1E213
:096D440090004F128A59124278A6
:106D4D00900056124278E4900055F0900054E064A3
:106D5D000A707990005B7427F0A37410F0128A50BA
:106D6D00C3940AEC94004056128A1E128A60601277
:106D7D00900059A3E02430128A0F900055E004F0E2
:106D8D008015900055E0600F900051E475F00112F0
:106D9D0042617430123F4E128A1E90005BE0FAA3DE
:106DAD00E0FBFDAC02128A757D0A7C00AF03AE02DA
:106DBD00123F7290005BEEF0A3EFF0026D6A90004F
:106DCD004FA3E02430A3128A12026E58900054E0B3
:106DDD0064106003026E6290005B7410F0A3E4F027
:106DED00128A50C39410EC94004044128A1E128AE9
:106DFD00606028900059E0FEA3E0FFC3940AEE9472
:106E0D00004005EF24378007900059A3E02430128D
:106E1D008A0F128A1E128A50128A7590005BE0C486
:106E2D00F854F0C868F0A3E0C4540F48F080B112D4
:106E3D008A1EC3940AEE94004005EF243780079014
:106E4D00004FA3E02430FFA3128A13900051124289
:076E5D0058E4123F4E7F01D3
:016E6400220B
:06A46D0090004F1242783E
:10A47300E4FF90004FE475F001124261123F08605F
:04A48300030F80EE55
:01A4870022B2
:0684D90090001B12427826
:1084DF007DFF7F8A129DA090001FEFF054FEFB7D61
:1084EF00FF7F8A12A1E27DE07F8A129DA0EF54EFF9
:1084FF00128568E490001EF0128A2FFF60429000F0
:10850F001EE02401FDE433FC90001B124258E92DBC
:10851F00F9EA3CFAEF12857190001EE02401FFE4A6
:10852F0033FE90001B124258E92FF9EA3EFA740508
:10853F00128571128A2F04FF90001EE02FF080B871
:10854F007DE07F8A129DA0EF441012856890001F76
:09855F00E0FB7DFF7F8A02A1E22E
:10856800FB7DE07F8A12A1E222900024F07F8A122C
:038578009DD92268
:100066000A0D6D6F646520300A0D000D0A53455464
:10007600204974656D2056616C75653A2069642D5A
:100086002558000D0A2B2B284F5344486967684DA5
:10009600656E755F73756229204F53444D656E75A5
:1000A6004C6576656C3A2564000D0A5245534554F5
:1000B6005F4D6F6E69746F7256414C5545000D0A5F
:1000C6004F6E4368616E67696E6756616C75653D14
:1000D6003078256278000A0D79766D6978203400CB
:1000E6000A0D79766D69782030000A0D79766D698A
:1000F600782031000A0D79766D69782032000A0D74
:1001060079766D6978203300436865636B205647BE
:1001160041204361626C65004F7574204F66205222
:10012600616E676500FE62596B62714C2F713A34DD
:10013600FF001213566F6C756D6500202020417507
:10014600746F2041646A757374696E67202E2E2E53
:100156002E20202000436F6D706F73697465005602
:10016600657273696F6E004C4344205665727369FD
:100176006F6E004456522056657273696F6E005753
:100186004946492049500057494649204D414300B8
:1001960047415445574159004F534420506F7369A6
:1001A60074696F6E004F534420506F736963695FC3
:1001B6006E004F534420FE5465714667FF004C6144
:1001C6006E6775616765004C616E67756500537093
:1001D6007261636865004964696F6D6100FE575618
:1001E600714667FF004272696768746E65737300D3
:1001F6004C756D696E6F7369745F0048656C6C69E8
:10020600676B656974004272696C6C6F00FE40240E
:10021600715F60FF00436F6E747261737400436FA9
:100226006E747261737465004B6F6E747261737471
:1002360000436F6E74726173746500FE394F715FAF
:1002460060FF0053617475726174696F6E0053AA22
:1002560074746967756E670053617475726163695A
:100266005F6E00FE4A2C33715F60FF0048756500C3
:10027600546F6E616C69745C00466172626500540D
:100286006F6E616C6964616400FE4A5448715F6018
:10029600FF0053686172706E657373004163756920
:1002A600745C00536368AA7266650041677564658D
:1002B6007A6100FE463933715F60FF0052657365EF
:1002C6007400445C66617574004772756E64656996
:1002D6006E7374656C7567005072656465746572DB
:1002E6006D696E6163695F6E00FE66246DFF00577F
:1002F6006964652053637265656E005749444520FD
:10030600FE6D3B714667FF004D6972726F72004A5F
:10031600756D70005345512054696D6520537465A1
:1003260070004A756D702041560043616D204F750F
:10033600740052657475726E00526563616C6C0070
:100346004D6F6E69746F7220526563616C6C004408
:10035600565220526563616C6C00457869740020C2
:1003660000766572204856322E33200054696D653A
:100376004F75742053657475700047617567652005
:1003860053657475700047617567652052656361D2
:100396006C6C005072696F7269747900526576658B
:1003A6007273204D6F6465005265736F6C75746966
:1003B6006F6E00465053005175616C697479005236
:1003C60065636F7264204D6F6465005265636F727A
:1003D60064204C656E677468005072652D616C61AF
:1003E600726D00506F73742D7265636F7264004195
:1003F60070706C79005265636F72645374617274C5
:10040600005265636F726453746F7000536E61704F
:1004160073686F7400446174652054696D65005992
:10042600656172004D6F6E74680044617900486FB3
:100436007572004D696E00536563004461796C699D
:10044600676874536176696E6700426567696E65B1
:1004560000456E64005765656B0054696D65005410
:10046600696D65205A6F6E650052657475726E26E9
:100476004170706C7900466F726D61742053442030
:100486004361726400417564696F205265636F72DF
:1004960064004669726D7761726520557064617497
:1004A6006500596573004E6F004669727374204E7D
:1004B600756D626572005365636F6E64204E756D6F
:1004C600626572005468697264204E756D62657269
:1004D60000466F75727468204E756D6265720043D2
:1004E60068616E67652050617373776F7264004F41
:1004F60076657257726974650054726967676572CA
:1005060020536574005472696767657220564741C7
:1005160000547269676765722044656C61790049A9
:100526006E666F726D6174696F6E0055706461748A
:100536006520436F6E66696700534420636F766576
:1005460072204465742E00446973706C61790044AE
:10055600565220446973706C617900446973746102
:100566006E6365204761756765004F5344204C6F85
:10057600636B0050617373776F726400536F7572AB
:100586006365205469746C650043564253204100EC
:10059600435642532042004356425320430043569B
:1005A60042532052004175746F20446179264E698A
:1005B6006768740044697220496D61676500446923
:1005C6007220496D61676520410044697220496D5A
:1005D60061676520420044697220496D6167652044
:1005E6004300526561722053657475700043414D36
:1005F60020410043414D20520043414D20420043DB
:10060600414D20430043414D2044000200456E67A2
:100616006C697368004672616E7B6169730044653C
:10062600757473636800457370617E6F6C00FE6A53
:100636002356FF200004014D6F646531004D6F6441
:100646006532004D6F6465330055736572004D6FFA
:10065600646531004D6F646532004D6F646533002B
:10066600557361676572004D6F64757331004D6F28
:1006760064757332004D6F647573330042656E7531
:10068600747A6572004D6F646F31004D6F646F321E
:10069600004D6F646F33005573756172696F00FEAC
:1006A6003A34FF3100FE3A34FF3200FE3A34FF336B
:1006B60000FE47515B71FF200008004175746F0012
:1006C6004E5453430050414C00534543414D004E58
:1006D600545343342E34330050414C4D0050414C5A
:1006E6004E0050414C36300005004E6F726D616C05
:1006F60000576964650050616E6F72616D610046F6
:10070600756C6C000500FE1A1BFF2000FE1C1DFF09
:100716002000FE1E1DFF2000FE1F20FF2000FE1FE2
:1007260021FF200009004F66660043433100434322
:100736003200434333004343340054310054320003
:1007460054330054340002004F4E004F4646000218
:10075600004D4952524F52004E4F524D414C0003EC
:1007660000446179004155544F004E696768740032
:10077600020031363A3900343A33000200004F4E57
:10078600004F464600030053494E474C450044552A
:10079600414C00545249504C450007004100412B42
:1007A6004200412B4300412B5200412B4243004162
:1007B6002B425200412B43520007004200422B417C
:1007C60000422B4300422B5200422B414300422B56
:1007D600415200422B43520007004300432B410085
:1007E600432B4200432B5200432B414200432B41F3
:1007F6005200432B42520006005200522B41005237
:100806002B4200522F414200522B414200522F43AD
:10081600000F00515541440053455100412B420001
:10082600432B5200412B5200522B4200412B4300D6
:10083600432B4200522F414200522B414200522F7D
:100846004300410042004300520005005155414417
:100856000043414D410043414D420043414D430059
:1008660043414D52000200003732307834383000B0
:10087600333532783234300005000035003130002F
:100886003135003230003235003330000500004C7F
:100896006576656C2D31004C6576656C2D32004CA5
:1008A6006576656C2D33004C6576656C2D34004C91
:1008B6006576656C2D35000300004E6F6E65004E43
:1008C6006F726D616C00416C61726D0006000031E3
:1008D60020206D696E003220206D696E0033202065
:1008E6006D696E003420206D696E003520206D69BB
:1008F6006E003130206D696E0005000031352073C1
:10090600656300333020736563003630207365639A
:1009160000080000313520736563003330207365AD
:10092600630036302073656300020000446973611A
:10093600626C6500456E61626C6500040000466984
:10094600727374005365636F6E64005468697264F1
:1009560000466F757274680004004100420043004F
:1009660052001900002D3132002D3131002D313069
:10097600002D39002D38002D37002D36002D35007D
:100986002D34002D33002D32002D31003000310082
:1009960032003300340035003600370038003900A5
:1009A6003130003131003132000200502000442045
:1009B60000030032343030003438303000393630FD
:1009C60030000200FE1819FF2000FE1A1BFF20004F
:1009D6000400FE1C1D1E1F2021FF2000FE222328CE
:1009E600292A2BFF2000FE242528292A2BFF200058
:1009F600412B422C422B41000E00FE262728292A95
:100A06002BFF200053455100412B4200432B52003F
:100A1600412B5200522B4200412B4300432B4200F4
:100A2600522F414200522B414200410042004300F6
:100A3600520056474100FF0165FF0165FF0165FF52
:100A46000165FF0165FF016DFF016DFF016DFF018E
:100A56006DFF016DFF0179FF0179FF0179FF0179D2
:100A6600FF0179FF0185FF0185FF0185FF0185FFF4
:100A76000185FF018DFF018DFF018DFF018DFF01B6
:100A86008DFF0196FF0196FF0196FF0196FF0196E5
:100A9600FF010EFF011EFF011EFF011EFF011EFFCB
:100AA600012BFF0138FF019EFF019EFF019EFF0102
:100AB600ABFF01B8FF01C4FF01CDFF01D4FF01DC8C
:100AC600FF01E3FF01EBFF01F6FF0201FF020CFF4E
:100AD6000213FF021BFF0224FF022EFF0237FF0252
:100AE60041FF0249FF0249FF0254FF025EFF02690D
:100AF600FF0272FF0276FF027FFF0285FF028FFF71
:100B06000298FF02A2FF02A9FF02B1FF02B9FF028B
:100B1600C2FF02C8FF02CFFF02DEFF02EFFF030E95
:100B2600FF030EFF030EFF030EFF030EFF0315FF69
:100B36000315FF0315FF0315FF0315FF031AFF0334
:100B46001AFF031AFF031AFF031AFF0330FF0330CD
:100B5600FF0330FF0330FF0330FF0328FF0338FF96
:100B66000338FF0338FF0338FF0338FF033FFF0353
:100B76003FFF033FFF033FFF033FFF0346FF0346DD
:100B8600FF0346FF0346FF0346FF0355FF0355FFDA
:100B96000355FF0355FF0355FF0360FF0360FF0383
:100BA60060FF0360FF0360FF054DFF054DFF054D28
:100BB600FF054DFF054DFF0555FF0555FF0555FF83
:100BC6000555FF0555FF0561FF0561FF0561FF0539
:100BD60061FF0561FF0570FF0570FF0570FF057079
:100BE600FF0570FF0579FF0579FF0579FF0579FF98
:100BF6000579FF0582FF0582FF0582FF0582FF0555
:100C060082FF058FFF058FFF058FFF058FFF058F7D
:100C1600FF0596FF0596FF0596FF0596FF0596FFCD
:100C2600059DFF059DFF059DFF059DFF059DFF0594
:100C3600A4FF05A4FF05A4FF05A4FF05A4FF05ABBB
:100C4600FF05ABFF05ABFF05ABFF05ABFF05BAFF25
:100C560005BAFF05BAFF05BAFF05BAFF05C4FF05C9
:100C6600D0FF05DCFF05E8FF05E8FF05E8FF05E81E
:100C7600FF05E8FF05F3FF05F3FF05F3FF05F3FFA7
:100C860005F3FF05FFFF05FFFF05FFFF05FFFF0556
:100C9600FFFF0605FF0605FF0605FF0605FF06051D
:100CA600FF05F9FF05F9FF05F9FF05F9FF05F9FF4E
:100CB600060BFF060BFF060BFF060BFF060BFF03DB
:100CC60065FF0367FF0372FF0380FF038CFF039931
:100CD600FF03A2FF03AEFF03B9FF03BDFF03C5FF7A
:100CE60003D1FF03DFFF03E9FF03F5FF03FBFF0467
:100CF60007FF0412FF041BFF0425FF042AFF04302C
:100D0600FF0434FF0439FF043DFF0441FF0450FF94
:100D16000457FF045BFF0460FF0465FF046FFF04D4
:100D26007CFF048BFF0498FF04A8FF04ACFF04AF0C
:100D3600FF04BCFF04CAFF04D7FF04E5FF04F5FF68
:100D460004FFFF050BFF0517FF0525FF0531FF050E
:100D56003FFF02F5FF02F5FF02F5FF02F5FF030173
:100D6600FE6C6F00FE727500FE606300FE787B000D
:100D7600FE666900FE848700FE010200FE7E810099
:100D8600FE8A8D00FE909300FE969900FEC0C30079
:100D9600FE9C9F00FEA2A500FEA8AB00FEAEB10021
:100DA600FEB4B700FEBABD000000170316611702B5
:100DB60016610000FF0C43FFFFFF3700000700B875
:100DC600074C0000FF0BADFFFFFF3700000700B91F
:100DD600074C0000FF0BCBFFFFFF3700000700BAF0
:100DE600074C0000FF0CCDFFFFFF37000010007A14
:100DF6000DAF0000FF0BDAFFFFFF3700000700BB57
:100E0600074C0000FF0B62FFFFFF3700000300F1F5
:100E1600000000000000000000FFFF0000000000CE
:100E26000000170216610000FF0D30FFFFFF3700BC
:100E3600000300F100000000FF0D2DFFFFFF37004B
:100E4600000300ED000000000000000000FFFF00AE
:100E5600000000000000170216610000FF0D33FFBE
:100E6600FFFF37000005002D0DAF0000FF0D36FF18
:100E7600FFFF37000005002E0DAF0000FF0D39FF04
:100E8600FFFF37000005002F0DAF0000FF0D3CFFF0
:100E9600FFFF3700000500380DAF0000FF0D3FFFD4
:100EA600FFFF3700000300EE00000000FF0B62FFAB
:100EB600FFFF3700000300F1000000000000000003
:100EC60000FFFF000000000000001702166100008E
:100ED600FF0D33FFFFFF37000005002D0DAF0000AB
:100EE600FF0D36FFFFFF37000005002E0DAF000097
:100EF600FF0D39FFFFFF37000005002F0DAF000083
:100F0600FF0D3CFFFFFF3700000500380DAF000066
:100F1600FF0D24FFFFFF3700000300EB0000000079
:100F2600FF0D3FFFFFFF370E600100000E5C000063
:100F3600FF0B62FFFFFF3700000300F10000000017
:100F46000000000000FFFF00000000000000170581
:100F560016610000FF0D1EFFFFFF37000007002C83
:100F660009680000FF0CFDFFFFFF370000050020A9
:100F76000DAF0000FF0D00FFFFFF37000005002149
:100F86000DAF0000FF0D03FFFFFF37000005002235
:100F96000DAF0000FF0D06FFFFFF37000005002321
:100FA6000DAF0000FF0D09FFFFFF3700000500240D
:100FB6000DAF0000FF0D21FFFFFF3700000300F615
:100FC600000000000000000000FFFF00000000001D
:100FD60000000000FF0D2DFFFFFF37000003009B00
:100FE60000000000FF0D30FFFFFF3700000300F197
:100FF600000000000000000000FFFF0000000000ED
:1010060000000000FF0D2DFFFFFF370000030070FA
:1010160000000000FF0D30FFFFFF3700000300F166
:10102600000000000000000000FFFF0000000000BC
:1010360000000000FF0D2DFFFFFF37000003009E9C
:1010460000000000FF0D30FFFFFF3700000300F136
:10105600000000000000000000FFFF00000000008C
:1010660000000000FF0B80FFFFFF371008010000A3
:101076000DB00000FF0B8FFFFFFF37103801000097
:101086000DB00000FF0B62FFFFFF3700000300F109
:10109600000000000000000000FFFF00000000004C
:1010A6000000170416610000FF0A69FFFFFF360003
:1010B600000B00F100000000000000FFFFFF3700FA
:1010C600000C00390DAF0000FF0A78FFFFFF360065
:1010D600000B00F100000000000000FFFFFF3600DB
:1010E600000C003A0DAF0000FF0A87FFFFFF360035
:1010F600000B00F100000000000000FFFFFF3600BB
:10110600000C003B0DAF0000FF0B62FFFFFF370036
:10111600000300F1000000000000000000FFFF00D7
:10112600000000000000170416610000FF0B71FFAD
:10113600FFFF37000003009B00000000FF0CD0FFFC
:10114600FFFF37000003009D00000000FF0B9EFF1D
:10115600FFFF3700000300F400000000FF0CC4FF8F
:10116600FFFF3700000B00F400000000FF0CC4FF77
:10117600FFFF3700000B00F400000000FF0CC4FF67
:10118600FFFF3700000B00F400000000FF0CC7FF54
:10119600FFFF3600000B00F4000000000000000016
:1011A60000FFFF00000000000000170516610000A8
:1011B600FF0CE5FFFFFF3700000700E408D2000040
:1011C600FF0CEBFFFFFF3700000700E609170000E2
:1011D600FF0D27FFFFFF3700000700EC095E000048
:1011E600FF0D21FFFFFF3700000300F500000000A0
:1011F6000000000000FFFF000000000000001704D0
:1012060016610000FF0CE2FFFFFF3711B40100007A
:1012160011B00000FF0CDCFFFFFF3700000700E104
:10122600087E0000FF0CDFFFFFFF3700000700E22B
:1012360008920000FF0D24FFFFFF370ED4010000C7
:101246000ED00000FF0D2AFFFFFF370E2C01000015
:101256000E280000FF0D21FFFFFF3700000300F5F9
:10126600000000000000000000FFFF00000000007A
:1012760000001705166100000000000000FFFF00D7
:10128600000000000000170416610000FF0AC9FFF5
:10129600FFFF3700000500960DAF0000FF0AD8FFDC
:1012A600FFFF3700000500950DAF0000FF0AE7FFBE
:1012B600FFFF3700000500970DAF0000FF0AF6FF9D
:1012C600FFFF3700000500990DAF0000FF0B05FF7B
:1012D600FFFF37000005009A0DAF0000FF0B62FF0D
:1012E600FFFF3700000300F10000000000000000CF
:1012F60000FFFF0000000000000017051661000057
:10130600FF0C79FFFFFF3700000700C1074C000004
:10131600FF0C88FFFFFF3700000700C2074C0000E4
:10132600FF0C97FFFFFF3700000700C3074C0000C4
:10133600FF0CA6FFFFFF3700000700C4074C0000A4
:10134600FF0B62FFFFFF3700000300F10000000003
:101356000000000000FFFF0000000000000017056D
:1013660016610000FF0C61FFFFFF3700000700CD8C
:1013760007A00000FF0C64FFFFFF3700000700CE48
:1013860007BF0000FF0C67FFFFFF3700000700CF15
:1013960007DE0000FF0B62FFFFFF3700000300F1CE
:1013A600000000000000000000FFFF000000000039
:1013B6000000170716610000FF0B23FFFFFF37131E
:1013C600040100000DB00000FF0C52FFFFFF3700C4
:1013D600000700C5078B0000FF0C6AFFFFFF370000
:1013E600000700C607FD0000FF0B32FFFFFF3700B6
:1013F600000700C708170000FF0B50FFFFFF37006C
:10140600000700C808500000FF0B41FFFFFF370030
:10141600000500C90DAF0000FF0B62FFFFFF37009C
:10142600000300F1000000000000000000FFFF00C4
:101436000000000000000204FF370D66000000FFF8
:10144600FF37FF129001009F128C0D6A000000FF0B
:10145600FF37FF0DB80100000DB40D6E000000FF50
:10146600FF37FF13BC01009F13B80D72000000FF89
:10147600FF37FF1130010000112C000000000000B2
:1014860000FFFF000000000000000000000000FF59
:10149600FF37FF1440010000143C0000000000006C
:1014A60000FFFF00000000000000000000640032A2
:1014B60000020034001A0001002C0016000000375C
:1014C600001C000000C70064002D00D20080000050
:1014D600000700030000003F0020002D00D200801E
:1014E6000000001F00100010007400420023008757
:1014F6000055FFB60022FFE8000000FF0080FF80D5
:10150600007F00000000000700030000007F00408D
:1015160011111171113B161A010201342C342C02DF
:101526004B323232323232324B32323211101314E3
:101536001570717472737071747273786300808041
:1015460000608080808020808080803B68F890905A
:1015560000608080808020808080800358F8A0A072
:10156600006080808080208080808003323232322A
:101576003232323232323232000A006000610062A8
:10158600006300660067006800B900FC13DBA67BF9
:101596000060000017481BDB807B00000000174836
:1015A6001EF2807C800001B6314826D58069000095
:1015B60000006FDF13D4A69100600000174821D405
:1015C600809100000000174813F28092800001B657
:1015D600344813DC807F00000000605A14008B7CC6
:1015E60001500000294814DC807C000000002948D6
:1015F60014F2807C800001B6294814DC805F00006C
:1016060000007B5A0C008B94015000002D480CDC26
:101616008094000000002D480CF28094800001B6F2
:101626002D480CDC807F00000000605A3AF680FBF3
:101636000050000026483AC380FB00000000264800
:101646003ACC80FB800001B626483AC380BE000033
:101656000000705A3FF98029045000002E483FC30D
:101666008029040000002E483FD08029840001B65E
:101676002E483FC380E800000000805A28A4806AF4
:1016860004500000165A2884806A04000000165A86
:101696002889806A84350035165A2884801C0400FF
:1016A60000006B5A23F98014045000001F5A23C807
:1016B6008014040000001F5A23F08014843501872B
:1016C6001F5A23C880E700000000565A20202049F0
:1016D6006E70757420203A202020202020202020A3
:1016E60020202020200020202053797374656D204F
:1016F6003A202020202020202020202020202000EA
:10170600202020482046726571203A202020202083
:10171600206B487A202020202000202020562046BA
:10172600726571203A20202020202020487A20202F
:1017360020202000202020462F57205265763A2070
:1017460020202020202020202020202020000000F3
:101756000000000000000000000000000000000083
:101766000000000000000000010202050503040459
:101776000404040404040404040404040404040423
:10178600040404032020201C2020202020202020C8
:101796002020002020202020202020202020002E75
:1017A600003A0001010101020202020205050505D7
:1017B6000503040404040404040403202020002078
:1017C6002020202020202020202000202020202033
:0717D600202020202020004C
:1076F2004100C3FF4100C4004100CA00C119C118C2
:107702004100B1004100C7004100CC004100CB0064
:077712004100BE00016E0002
:104770009000AFE0FEA3E0F5828E83227E009000E1
:1047800011E09000105403FFEEF0A3EFF022900030
:10479000257A007926E0FF7E007B0190002E1242F0
:1047A000787BFF22EE900010F0A3EFF02275F0105E
:1047B00012424C740E93FB740F939000B2CBF0A393
:1047C000EBF08F828E83ED75F01012424C740993DA
:1047D000FF740A939000AFCFF0A3EFF0229000296E
:1047E000E024F1FF900028E034FFFE90002D02420B
:1047F0005875F01012424C740D9322D3900011E0C2
:104800009400900010E09400227A1479C290003154
:104810001242787A1479B02290001F124258900008
:104820000E12403EAAF0F97BFF90002D12427890C4
:10483000001F024258E0FDE4900035F0A3EDF022A5
:10484000900010A3E0FD229000AFE0FEA3E0FFF592
:10485000828E8322900028E0FEA3E0FF227E00905B
:1048600000CDEEF0A3EFF0229000AFE0FEA3E0FF5A
:10487000EE9000BFF0A3EFF0A322E0FF900010E461
:10488000F0A322E0FEA3E0FF9000B2E0FCA3E0F57D
:10489000828C8322E0FEA3E0FF7B01900054740829
:1048A000F02290000BE090000DA4FFE5F08FF002E5
:1048B0003FFD75F01012424C740E93FC740F93AAD6
:1048C00004F97BFF9000071242788F828E8322E4E6
:1048D000900010F0A3F022FFE975F003A42416F570
:1048E00082E43400F5832290000DE0FEA3E0FF9007
:1048F00000B2E0FAA3E0F5828A83740393FDE493A7
:104900002274342DF582E43400F583227D017BFF8F
:104910007E007F0C023EE290004CE475F0011242F2
:1049200061023F089000021242AD9000CAE075F0AB
:1049300003A4F58285F0830242ADF0A3EFF0D3909B
:1049400014B07401939FEE6480F8E493648098221D
:10495000FF900028E03400229000AFE0FEA3E0AA20
:1049600006F97BFF2275F01002424CE0FD75F00A5B
:1049700084E5F0243022A3E475F001023FFDE0FE5F
:10498000A3E02DFDEE3CFCEDA4FBAAF0FF90001887
:10499000E0229014B2E493FE740193FF2290000D84
:1049A000E4F0A3740EF022EFF090000FE022F0E0AC
:1049B000FF25E0241CF582E43415F583E49322F00E
:1049C000EF25E0241DF582E43415F583E493227E7F
:1049D00000EEF0A3EFF022EEF0A3EFF0A302427896
:1049E0009000CFE0640122740E93FB740F9390004B
:1049F000B2CBF0A3EBF022EF54F8FFA3E054074F43
:104A0000FB7D177F8A22900011E02403F0900010B4
:104A1000E03400F022C3900011E0940222FFE493FE
:104A2000FC740193FDC3EF9DFEE49C2290000BEE0D
:104A3000F0A3EFF0FD900011E0FF22E56E25E024E9
:104A4000B6F582E43400F5832235F0FA7BFF90005E
:104A50000BE0900054F022F583EEF0EF75F00A843D
:104A6000900032F0222440F582E43400F583229055
:104A700000CDA3E0FF22E0FFA3E09000BFCFF0A3B2
:104A8000EFF0227D177C00123F60EF22FFE08FF0F5
:104A9000A4FF2290000D023F21A3E054074438FBFD
:104AA0007D787F8A22F090003AE004F022E0FF7ED9
:104AB000007B017A00792722F0ED75F00A849000DE
:104AC00008F022FBC3EF9BFFEE9400FEC322F9E443
:104AD0003AFA0242782FFFE035F0FAA9077BFF226D
:104AE000E024052FF075F0058422FFE4F0A3EFF039
:104AF00022900013A3E0FF22FF7E007B017A007961
:104B000026229FEE6480F8EC6480982212425802BC
:104B10003F0875F011A4240DF9746A22F582E4347B
:104B200000F583EEF0227B017A00793B22E4FB7DE5
:044B30009E7F8A22B8
:03000E0012A6B285
:0100110022CC
:0566F300900012EFF021
:1066F80012000E900017EFF0900012E0B401047F32
:106708000180027FFF900017124AE0E5F01249AEBF
:10671800FEFD900013E4F0A3EDF09000C8E0FDC387
:10672800900014E09DF0900013E09400F09000C8F1
:10673800EE1249BFFFFD900015E4F0A3EDF09000C4
:10674800C9E0FDC3900016E09DF0900015E09400AC
:10675800F09000C9EFF09000187401F0900018E074
:10676800FFD39404506D12990BAD07AC069000133B
:1067780075F00812497EF975F003A42417F582E430
:106788003400F583EFF0EA1248D7EFF0AF01129525
:1067980040AC06AD0790001575F00412497E75F0FF
:1067A80003A42418F582E43400F583EFF0EAC4F872
:1067B80054F0C8EBC4540F485470FF900018E0F927
:1067C8001248D9E04F1248D7EFF0900018E004F0D3
:1067D80002676412A0447DE07F8A129DA0EF54EF07
:1067E8001268539000187401F0900018E0FFD394D9
:1067F800045031EF14FB7D9E7F8A12A1E2900018AD
:10680800E075F003A42416F9740035F0FA7B0190C2
:10681800005A7403F07DA07F8A129AF4900018E061
:1068280004F080C57DE07F8A129DA0EF44101268B5
:1068380053900017E0FF12A63812A044E4FB7D90A5
:0A6848007F8A12A1E2900017E0FF22
:0A68520022FB7DE07F8A12A1E22202
:105D440090151CE4939000C8F090151DE493900006
:105D5400C9F0E4FF12A6387FB0125EBD7FA0125EC8
:105D6400BD7FA07E0012A1BC9000FDEFF07FA112C8
:105D74005EC57FA2125EC57FBA125ED47FA4125E96
:105D8400D47FAB125ECC7FA3125EE37FBB125EE3D3
:105D94007FA5125ECC7FA6125EDB7FA7125EDB7F3F
:105DA400A8125EEA7D327F387E0012999E90010629
:105DB4007432F0E4FF126E657D327F377E001299F3
:105DC4009E7D037FB27E0012999E7FBC125EEA7FA5
:105DD400BD125EF97FBE125EF99000DDE0700FFD2A
:105DE4007FAEFE12999E7D017FAC7E00800E7D0DFC
:105DF4007FAE7E0012999EE4FD7FACFE12999EE474
:105E04009000F0F07D027FAAFE12999E7FA9125F96
:105E140008E4FF1298277BFF7A00796612A4887D34
:105E2400337FA07E0012A0717FB2125F087FB3128D
:105E34005EF17FB4125EF17FB5125F007FB6125F30
:105E4400001272AEE4FF12A64A7D017FBF7E0012EB
:105E5400999E7FBF7E0012A1BCEF24FF9206E4FD51
:105E64007FB8FE12999E7FB87E0012A1BC9000DA22
:105E7400EFF07D017FB77E0012999E7FB77E0012FE
:105E8400A1BC9000D7EFF07D027FB97E0012999EED
:105E94007FB97E0012A1BC9000D0EFF0E4FD7FAF8B
:105EA400FE12999EE49000E9F09000DC04F0FD7F7E
:105EB400C57E0012999E028B1D7D017E0012999E63
:105EC40022E4FDFE12999E227D017E0012999E22FB
:105ED400E4FDFE12999E227D017E0012999E22E429
:105EE400FDFE12999E22E4FDFE12999E227D017E02
:105EF4000012999E22E4FDFE12999E227D017E00ED
:0B5F040012999E22E4FDFE12999E22DD
:10A5390012A6BA9000CAEFF075F00584AFF0EFF0FB
:01A5490022EF
:10A3FB00EFB401047F0180027FFF9000CA124AE094
:0CA40B00AFF0EFF012A64A9000CAE0FF8C
:01A417002222
:05913000900014EDF0B9
:10913500EF75F003A42481FEE435F0A3F0A3CEF08F
:10914500E4A3F0900017E0FFC39403504590001688
:10915500E02FFF900015E03400FE12A1BC9000182E
:109165001249CF7B017A00791A12479B12480912DE
:1091750082ED900017E02471FD90001AA3E0FF90A6
:109185000014E02FFB7F8A12A1E2900017E004F0A3
:0291950080B1A7
:0191970022B5
:108E9B00EFB401047F0180027FFF9000CEE0240439
:108EAB00FD9000CDE03400FCEF3395E0FEED2FFF9D
:108EBB00EC3EF0A3EFF07E009000CD124785FD7FD6
:108ECB008012999E7F107E0012A1BC7E007B017ADE
:108EDB0000791212479B7A1479C812480D1282ED51
:108EEB00124A6F900012A3E0FD1291307F807E003A
:108EFB0012A1BCEF64037B8A60047D3080027D3756
:0A8F0B007F3C7E00129F84124A6F23
:018F15002239
:05804800900012EFF0B2
:10804D00ED9000CEB4010DE02401FF9000CDE034A1
:10805D0000FE800BE024FFFF9000CDE034FFFE908A
:10806D000013EE12493A5015124992900014E09FF8
:10807D00EE6480F8900013E064809840030280F174
:10808D00900013E0FEA3E0FF12485F7B017A0079B8
:10809D001512479B1248091282ED900012E0248AB6
:1080AD00FFE433FEA3A3E0FD12999E7F107E001224
:1080BD00A1BC9000131249CF7B017A0079171247AA
:1080CD009B7A1479C812480D1282ED900012E024AB
:1080DD0071FD900017A3E0FF900015A3E02FFB7F2B
:0780ED008A12A1E2124A6FA2
:0180F4002269
:1094E8007D707F8A129DA0EF54BFFB7D707F8A122A
:1094F800A1E27D741295367D757F8A12A1E27D7690
:109508001295367D717F8A12A1E27B807D727F8AF7
:1095180012A1E27B807D737F8A12A1E27D707F8A2F
:10952800129DA0EF4440FB7D707F8A02A1E27B8000
:089538007F8A12A1E27B802270
:06759F0090001EEFF0FD5C
:1075A5007F0B7E0012999E90001EE06403606CE4E0
:1075B500A3F0A3F090001FE0FEA3E0FFC3940FEE3D
:1075C50064809480503B90001EE0C454F02442F542
:1075D50082E43415F583E5822FF582E5833EF58354
:1075E500E493FB90001FA3E02432F58274153EF569
:1075F50083E493FD7F8A12A1E290001F12497780F0
:10760500B390001EE0C454F02451F582E43415F51E
:0B76150083E493900021124AEA8052A7
:10762000E4FF12A6D9129BF47F0112A6D912987416
:107630007F0212A6D9AD07E4FF128F167F0312A6B0
:10764000D9AD077F01128F167F0412A6D9128F863B
:107650007F0512A6D97E00900023EEF0A3EFF07B09
:10766000017A00792112479B7A15790A12480D1286
:0276700082EDA9
:10767200900021124A9912A1E27D177F8A129DA0E1
:097682009000211249F712A1E267
:01768B0022DC
:03A6F2007F0022C4
:07A6D90012A30112485D22EB
:05861900900012EFF0DB
:10861E00EDB401067E007F0180047EFF7FFF900097
:10862E00CDE0FCA3E0FD2FFFEC3EFE9000131249BF
:10863E003A5016124992900013E0FAA3E0FB9FEE17
:10864E006480F8EA6480984003AF0522900012E03F
:10865E0014601814601D14601A14602724FE602B19
:10866E002406702DAF03129BF48026124AF1129845
:10867E0074801E900012E024FEFFA3A3E0FD128F73
:10868E0016800E124AF1128F868006124AF112904F
:10869E00C7900012E0FFA3A3E0FD12A517900013F0
:0886AE00E0FEA3E0FF12485FAB
:0186B60022A1
:059BF400900025EFF0D8
:109BF90012A6EC900025E0BF010C124AF812479B0F
:109C09007A1479F2800A124AF812479B7A1479EC8D
:109C190012480D1282ED9000D8E090151593FD9031
:0A9C29000026A3E0FB7F8A02A1E2FF
:05987400900025EFF05B
:109879009000D8E06404701712478E7A1479CE12DA
:10988900480D1282ED900026A3E0FB7D7480221220
:10989900478E7A1479F812480D1282ED12A6F2EF6A
:1098A9009000266007A3E0FB7D3A8005A3E0FB7DDD
:0698B900107F8A12A1E2FB
:0198BF002286
:1090C7007E007B017A00791512479B7A1479E612A4
:1090D700480D1282ED7DFF7F8A129DA0900017EF49
:1090E700F0E47DFF1291297DBE7F8A129DA0EF5487
:1090F700CF44107DBE1291297DC47F8A129DA0EFB7
:109107005480FD900015E0A2E713A3E0134DFB7D0B
:10911700C47F8A12A1E2900017E0FB7DFF7F8A02DD
:02912700A1E2C3
:07912900FB7F8A12A1E22284
:058F8600900025EFF052
:108F8B009000D8E06404702A9000257A00792612AC
:108F9B0047957A1479DA12480D1282ED7D707F8A2B
:108FAB00129DA0EF54C0FF900026A3E04FFB7D70F5
:108FBB00802F900025E0FF7E007B017A007926123E
:108FCB00479B7A15790412480D1282ED12A6F2EF27
:108FDB009000266007A3E0FB7D3E8005A3E0FB7DB0
:068FEB00157F8A12A1E2CD
:018FF100225D
:088F1600900025EFF0A3EDF03F
:108F1E0012A6F2EF6030124AAD12479B7A15791005
:108F2E0012480D1282ED900025E0243CFD7F8A123E
:108F3E009DA0EF5480FF900027A3E02FFB9000250B
:108F4E00E0243CFD802C900026124AAD12479B7AFD
:108F5E001479FE12480D1282ED9000D8E090002593
:108F6E00B40405E024728003E02413FD900027A3CF
:078F7E00E0FB7F8A12A1E273
:018F850022C9
:05843600900012EFF0C0
:10843B007D787F8A129DA0EF5407540F9000151280
:10844B004AEA900012E0B401047F0180027FFFEF43
:10845B003395E09000158FF0123FFD90150A1249ED
:10846B0095900015E0FCA3E0FDC3124B02400D906C
:10847B00150C124995D3ED124B024004124A6F2290
:10848B00AF057E007B017A00791312479B7A147932
:10849B00B09000311242787A15790A1282ED900071
:1084AB0015124A9912A1E27D177F8A129DA09000A6
:1084BB00151249F712A1E2900013A3E0FD7F0512FC
:0D84CB00A517900013E0FEA3E0FF12485F2C
:0184D8002281
:109198009000D8E090000AF09000D87401F0900098
:1091A800D8E0FFC394075030EFB40413E4900009EB
:1091B800F0900009E09015781291ED40F48011E4E8
:1091C800900009F0900009E09015721291ED40F4BA
:1091D8009000D8E004F080C690000AE09000D8F033
:0591E8007F0302759FEA
:1091ED00FF93FD12A517900009E004F0E0C394066B
:0191FD00224F
:107ED70090001EEFF0D39403400B7F01127ED790E2
:0D7EE700001E7401F090001EE09000E1F01C
:107EF40012A6E6EF6401601E12A6E6EF64046016A3
:107F040012A6E6EF6405600E12A6E6EF64076006AB
:107F140012A6E6EF700F90001EE075F00AA42492FA
:107F2400F97415800D90001EE075F00AA424BAF9C6
:107F3400741535F0FA7BFF90002112427812A044A8
:107F4400E490001FF0A3F090001FE0FEA3E0FFC345
:107F5400940AEE64809480502FEF25E0FFEE33FE08
:107F6400747E2FF58274153EF583740193FD9000A1
:107F740021124B0CFB7F8A12A1E290002212497756
:087F840090001F12497780BF35
:087F8C009000E1E0FF02A62FC6
:10A09E00E56EC3940450229000BFE0FEA3E0FF12D1
:10A0AE004A3BEEF0A3EFF09000C2E0FFAE6E056EFD
:0CA0BE00746A2EF8A6077F01227F0022A2
:10A43500E56E6015156E124A3B124A76746A256EF2
:0CA44500F8E69000C2F07F01227F0022A8
:1099E50090001D124278900020EDF0BDFF037FFF2F
:1099F50022900020E004F0E075F010A4FF90001D17
:109A0500124258E92FF9EA35F0FA900007123F2182
:109A1500B4FF0C900008123F21B4FF037FFF229092
:059A25000020E0FF221B
:09A68000EFB4FF037FFF221F224B
:029B3500AC077B
:109B37009000AFE07002A3E06004E4FE80027EFFC5
:109B4700EEF460289000AFE0FAA3E0FBF5828A8389
:109B570075F010EE1247F4540FB50403AF0622A9AF
:0E9B6700037BFFAD061299E5AE0780D4AF0672
:019B750022CD
:1065860090000A7401F012A09E9000AFE0FFA3E015
:10659600CF124871E0A3F09000CFE004F0E4900041
:1065A600AFF0A3F09000C174FFF07F01125F0F7B84
:1065B600737D327F257E00129F84E4900009F0905F
:1065C6000009E075F01AA424D2F582E43416F583A6
:1065D600E493603C90000AE0FF900009E0FB2FFF87
:1065E600E433FE124A83240EFDE43EFCEB75F01AFA
:1065F600A424D2F9741635F0FA7BFF900054741770
:10660600F0AF05AE04129F20900009E004F080AFC1
:1066160012A6EC9000097401F0900009E0FE75F0F6
:1066260011906A0C12424CE4936F6008900009E0E6
:1066360004F080E5EE124B121266BD241AFDE43E0C
:10664600FC900009E0124B12124A49AF05AE041243
:106656009F201266DA1266BD2431FFE43EFEC006B4
:10666600C0071266DA124A49D007D006129F207F69
:10667600041266E8243090000CF0A3742EF07F0517
:106686001266E8E0FDC4540F243090000EF0ED547D
:106696000F2430A3F0E4A3F090000AE0FF7E00127E
:1066A6004A832448FFE43EFE7B017A00790C900081
:0766B600547404F0029F2060
:1066BD0035F0FA7BFF12A46D90000BEFF090000AFD
:1066CD00E0FF7E007C007D17123F60EF2212948F59
:1066DD00EF75F011A42462F9746A227E0012A1BC38
:0666ED00900009EFF0220D
:0587E000900008EFF01D
:1087E50078097C007D017BFF7A1779757E007F18FB
:1087F500123EE2900008E0C394645030E0FF75F04B
:108805000584E5F090176E93FEEF75F00584FF245F
