:103585006873636F6D20312031206368303A3125CF
:10359500316278206368313A30253162782063687A
:1035A500323A3025316278206368333A302531620A
:1035B500780A0D006873636F6D20312031206368D0
:1035C500313A3125316278206368303A30253162ED
:1035D50078206368323A3025316278206368333A5F
:1035E50030253162780A0D006873636F6D203120D4
:1035F50031206368323A3125316278206368303A88
:103605003025316278206368313A3025316278207F
:103615006368333A30253162780A0D006873636F49
:103625006D20312031206368333A312531627820AD
:103635006368303A3025316278206368313A302545
:10364500316278206368323A30253162780A0D009C
:103655006873636F6D20322032206368303A3125FC
:10366500316278206368313A3025316278206368A9
:10367500323A3025316278206368333A3025316239
:10368500780A0D006873636F6D20322032206368FD
:10369500323A3025316278206368333A3125316218
:1036A50078206368303A3025316278206368313A92
:1036B50030253162780A0D006873636F6D20322002
:1036C50032206368303A3025316278206368333AB6
:1036D5003125316278206368313A302531627820AE
:1036E5006368323A30253162780A0D006873636F7A
:1036F5006D20322032206368333A312531627820DB
:103705006368313A3025316278206368303A302574
:10371500316278206368323A30253162780A0D00CB
:103725006873636F6D20332031206368333A312528
:10373500316278206368303A3025316278206368D9
:10374500313A3025316278206368323A302531626A
:10375500780A0D006873636F6D203320332063682A
:10376500303A3025316278206368313A302531624C
:1037750078206368333A3125316278206368323ABC
:1037850030253162780A0D006873636F6D20332030
:1037950034206368303A3025316278206368313AE5
:1037A5003025316278206368333A312531627820DB
:1037B5006368323A30253162780A0D006873636FA9
:1037C5006D20342031206368303A3025316278200D
:1037D5006368313A3025316278206368323A3025A2
:1037E500316278206368333A31253162780A0D00F9
:1037F5006873636F6D20322032206368303A31255B
:10380500316278206368323A302531627820636806
:10381500313A3025316278206368333A3025316298
:10382500780A0D006873636F6D203220322063685B
:10383500323A3125316278206368313A3025316278
:1038450078206368303A3025316278206368333AEE
:1038550030253162780A0D006873636F6D2033205F
:1038650033206368333A3125316278206368303A12
:103875003025316278206368313A3025316278200D
:103885006368323A30253162780A0D006873636FD8
:103895006D20322032206368333A31253162782039
:1038A5006368323A3025316278206368313A3025D1
:1038B500316278206368303A30253162780A0D002C
:1038C5006873636F6D20332031206368333A312587
:1038D500316278206368303A302531627820636838
:1038E500323A3025316278206368313A30253162C9
:1038F500780A0D006873636F6D203320312063688B
:10390500333A3125316278206368313A30253162A6
:1039150078206368323A3025316278206368303A1E
:1039250030253162780A0D006873636F6D2033208E
:1039350033206368333A3125316278206368303A41
:103945003025316278206368323A3025316278203B
:103955006368313A30253162780A0D006873636F08
:103965006D20332033206368333A31253162782066
:103975006368313A3025316278206368323A302500
:10398500316278206368303A30253162780A0D005B
:103995006873636F6D20332033206368303A3125B7
:1039A500316278206368313A302531627820636866
:1039B500323A3025316278206368333A30253162F6
:1039C500780A0D006873636F6D20332033206368B8
:1039D500303A3025316278206368323A30253162D9
:1039E50078206368333A3125316278206368313A4B
:1039F50030253162780A0D006873636F6D203220BF
:103A050032206368313A3125316278206368303A73
:103A15003025316278206368323A3025316278206A
:103A25006368333A30253162780A0D006873636F35
:103A35006D20322032206368313A31253162782099
:103A45006368323A3025316278206368333A30252D
:103A5500316278206368303A30253162780A0D008A
:103A65006873636F6D20322032206368313A3025E8
:103A7500316278206368333A312531627820636892
:103A8500323A3025316278206368303A3025316228
:103A9500780A0D006873636F6D20332033206368E7
:103AA500313A3125316278206368303A3025316208
:103AB50078206368323A3025316278206368333A7A
:103AC50030253162780A0D006873636F6D203320ED
:103AD50033206368313A3025316278206368303AA3
:103AE5003025316278206368333A31253162782098
:103AF5006368323A30253162780A0D006873636F66
:103B05006D20332033206368313A302531627820C7
:103B15006368323A3025316278206368333A31255B
:103B2500316278206368303A30253162780A0D00B9
:103B35006873636F6D20322032206368323A312515
:103B4500316278206368303A3025316278206368C5
:103B5500313A3025316278206368333A3025316255
:103B6500780A0D006873636F6D2032203220636818
:103B7500323A3125316278206368313A3025316235
:103B850078206368333A3025316278206368303AAB
:103B950030253162780A0D006873636F6D2032201D
:103BA50032206368323A3025316278206368333ACF
:103BB5003125316278206368313A302531627820C9
:103BC5006368303A30253162780A0D006873636F97
:103BD5006D20332033206368323A312531627820F5
:103BE5006368303A3025316278206368313A302590
:103BF500316278206368333A30253162780A0D00E6
:103C05006873636F6D20332033206368323A302543
:103C1500316278206368303A3025316278206368F4
:103C2500333A3125316278206368313A3025316283
:103C3500780A0D006873636F6D2033203320636845
:103C4500323A3025316278206368313A3025316265
:103C550078206368333A3125316278206368303AD9
:103C650030253162780A0D006873636F6D2032204C
:103C750031206368333A3125316278206368323AFE
:103C85003025316278206368313A302531627820F9
:103C95006368303A30253162780A0D000D0A50729A
:103CA50065762E46573A25303478000D0A437572ED
:103CB500722E46573A25303478000D0A5B4D53472E
:103CC5005D6D61696E5F696E697428293D3E20727C
:103CD500657620213D2046575645522026206361B2
:103CE5006C6C20436C65617242617369634545285C
:103CF500290D0A000D0A43616E6E6F7420616363BE
:103D050065737320454550524F4D21212121000DEA
:103D15000A4E6F20696E697469616C697A65005431
:103D250057383831360054573838313642005457F1
:103D350038383137004E6F7468696E67202D2D3025
:103D450078253032780D0A00436865636B2061671A
:103D550061696E202D2D3078253032780D0A004CA2
:103D650061737420436865636B202D2D3078253091
:103D750032780D0A00FF3585FF35B9FF35EDFF3681
:103D850021FF3655FF3689FF36BDFF36F1FF372552
:103D9500FF3759FF378DFF37C1FF37F5FF3829FF4B
:103DA500385DFF3891FF38C5FF38F9FF392DFF39E8
:103DB50061FF3995FF39C9FF39FDFF3A31FF3A6592
:103DC500FF3A99FF3ACDFF3B01FF3B35FF3B69FFCA
:103DD5003B9DFF3BD1FF3C05FF3C39FF3C6D2D2D45
:103DE5002D3E2050616E656C3A20575647412D385F
:103DF50030302A343830202D2D205449434F4E4C35
:0D3E05004553532048532037696E63680011
:1074A400014200014500C109C1080246000001442F
:1074B40000025500004100F101C10AC10B4100F472
:1074C400004100F2004100F5004400F70000000014
:1098F900ED90001CF090001AE090001D2290001AD3
:10990900E090001CF022EBA3F090001BE090001EF9
:109919002290001BE0A3F0A32290001CF090001BF2
:0F992900E090001D22900027F0A3EFF07BFF22BB
:106CCF007B107DE07F8A129F8E128F88900000EEDE
:106CDF001299317A3C79A1900027EEF0A3EFF012D0
:106CEF009F1B128F88EF64107003EE640260287B85
:106CFF00FF7A3C79B09000277402F0A37410F01261
:106D0F009F1B7F107E021297AD128F88EE12992E65
:106D1F007A3C79B0129F1B128F88EF64107003EECC
:106D2F0064027033900000E064027004A3E064100A
:106D3F00601B9000DBE0FF12A3B77F0112A3D212FA
:106D4F009AAD7BFF7A3C79BF129F1B802C12A42235
:106D5F009000DBEFF080227BFF7A3C79F9129F1BCA
:106D6F007BFF7A3D7914129F1B9000DB74FFF07F3D
:106D7F0001129B95E4FF028B2D7F087E00129F6806
:106D8F009000E3EFF06004E0FF80027F01129B951B
:106D9F0012879A9000D874FEF0129103129BCE7D49
:106DAF00FF126DD47D82126DD4E4FB7DFF7F8A12BA
:106DBF009F8E7BFF7DD07F8A129F8E7BFF7DD17F41
:046DCF008A129F8EF7
:096DD300227B017F8A129F8E22AF
:1096430075F68775F65975BF10E4F5F6758DF475E3
:109653009850758922758855758A40758C40758731
:109663008075B80275A892D299D2ACF5C8C2CAD295
:10967300AD75AA5075BAF443A61843AD10C20B7565
:0B968300DE4243D840F5B175B2202252
:03000B000264B5D7
:0B64B500C0E0C083C082C0D075D008DA
:1064C00005549000F3E0600214F09000F3E07033A4
:1064D000E5A05460C4135403FF9000FAE06F6023FA
:1064E0009000F8E09000F7F09000F9E09000F8F0EC
:1064F0009000FAE09000F9F0A3EFF0D20C9000F3D6
:106500007430F0E554D3946050030265FC0549E50E
:1065100049700205487554000544E544646460030D
:106520000265B49000E2E094FF5003E004F0E562FD
:106530002401FFE43561FEE43560FDE4355F8F62E0
:106540008E618D60F55F7544009000D4E0D39401B6
:106550004003E014F0900068E004F09000FEE0D307
:1065600094004003E014F0300D069000F2E004F0D7
:106570003003069000F5E004F0900068E0B43C08B9
:10658000E4F090007BE004F090007BE0B43C08E491
:10659000F0900087E004F0900087E0B41808E4F081
:1065A000900086E004F0E5459000F46005E004F01A
:1065B0008002E4F0E556F47003E555F460080556F2
:1065C000E55670020555E5A0F4549C6029E542B4F7
:1065D000030DE5A0F4549CF545C208D2098013E5EB
:1065E00042B4640EE5A0F4549CF545D208D2097576
:0C65F000425005428006754200754500CF
:0965FC00D0D0D082D083D0E0326F
:10A14D00E4F562F561F560F55F9000DBF07F641278
:0EA15D00A268C21712A3F6D2B47F0102A26854
:10870F00E4FD7F8A129B23EF24DE601024D96014CE
:10871F00242870197BFF7A3D7924800E7BFF7A3DE8
:10872F00792B80067BFF7A3D793302A23412877B47
:10873F007A3D793A129F1B12A3ACEF701B12877B05
:10874F007A3D794D129F1B12878DEF60EAE4FD7F12
:10875F008A129B23EFF460DF7F6312A26812878D6A
:10876F00E412992E7A3D7964129F1B22E4FD7F8AD1
:10877F00129B23900027E4F0A3EFF07BFF227F638F
:0B878F0012A268E4FD7F8A129B2322E7
:10A16B00EFB4010553E8FE8011EF700743E801538C
:0EA17B00E8FD22EFB4020643E80143E80222A9
:03001300020026C2
:03002600C2AA3239
:03002300029C3B01
:109C3B00C0E0C0D075D00830981EC298AF99744A56
:109C4B002552F8EFF674572552F8A60F0552E55238
:109C5B00C394084003755200309904C299C20AD0CC
:049C6B00D0D0E03243
:03006300029CD626
:109CD600C0E0C0D075D008E5AA30E01653AAFE74DD
:109CE600242543F8A69A0543E543C3941E4003750D
:109CF6004300E5AA30E10553AAFDC20BD0D0D0E05F
:019D0600322A
:0BA3AC00E552B553037F00227F012221
:08000300200AFD8F99D20A22A8
:08A41A00200BFD8F9AD20B22EA
:03002B0002A2FC32
:0FA2FC00C0E0C2CF0547E54770020546D0E0320B
:10A26800E5442FFFE433FE7C007D64123F72E54431
:07A27800B505FBE4B504F796
:01A27F0022BC
:109A7000900024E4F0A3E544F0E47B3CFAF9F8AF6D
:109A800062AE61AD60AC5F124120AC00AD01AE02D0
:109A9000AF03E47B64FAF9F8124095900024EE8F4E
:0C9AA000F0123FFD900024E0FEA3E0FF68
:019AAC002297
:10A10F00C3ED9FEC9E5010C374709FFF74179EFE9B
:0FA11F00EF2DFFEE3CFE22C3ED9FFFEC9EFE22D4
:0896D900900024EEF0A3EFF075
:1096E100900024E07002A3E06035E4900026F0A32E
:1096F100F0900026E0FEA3E0FFE4FCFD7BD8FAF940
:10970100F8D31241B2400C900026E475F001123FEB
:0F971100FD80DE90002474FFF5F0123FFD80C153
:019720002226
:06532C00900017EFF0FCF9
:10533200ED4410FDEB4410FB90001AE04410F0A382
:10534200E04410F0EC1242DD53B70053B90153C2EE
:105352000253C90353CF0453E00553E30653EC074A
:1053620053C908540C09540C0A53B70B53F50C5388
:10537200FD0D53C90E541B0F5429105434115429D6
:105382001254341353CF1454421553B916544C17B4
:1053920054551853B91954621A544C1B53C21C5415
:1053A200761D53E01E53C21F548D20547621541B88
:1053B200220000549E801690001CEBF0A3ED801496
:1053C200129906A3ED802F12991AED801890001CF5
:1053D200EDF0A3EBF090001AE090001E802502543D
:1053E20082ED129922F0A3EB802812991AEBF0A316
:1053F200ED801F1298F9F0A3EB8008129906A3EB37
:10540200F0A3EDF090001B02546F90001CEDF0121F
:10541200990FF090001A02546F90001BE0A31298AB
:10542200FDF0A3EB02547C12991AEDF090001A02DF
:10543200549612991AEBF090001AE090001E803AEE
:105442001298F9F090001B025496EB1298FA1299F6
:10545200118027EB129922F0A3EDF090001A800D33
:1054620090001CEBF0ED129910F090001AE0900001
:105472001FF0802812990612990FF0A3EDF0801CFC
:10548200129906129926F0A3ED800D129906A3ED4A
:10549200F090001BE090001EF0A3EBF0E4900020DF
:1054A200F0900020E0FFC39408501174572FF8E4E5
:1054B200F6744A2FF8E4F6E004F080E5E490002167
:1054C200F0900017E0FF3395E0FE903D7A75F0030F
:1054D200EF12424CEE75F003A42583F5831242814C
:1054E20090001CE0900027F090001DE0900028F052
:1054F20090001EE0900029F090001FE090002AF03A
:10550200129F1B129A70900022EEF0A3EFF0129AF3
:1055120070C3900023E09FFF900022E09EFE12A342
:10552200A0C3EF9428EE6480948040E2E4900020CF
:10553200F0900020E0FFC39408502B74572FF8E638
:105542006441701AE00454072457F8E6B4430FEF9D
:10555200240254072457F8E6B44B037F012290003B
:1055620020E004F080CB7FC87E001296D990002103
:0E557200E004F0E0C3940350030254C37F0032
:015580002208
:1081A5000D0A2B2B28436C6561724F5344496E664B
:1081B5006F293A20446973706C617965644F534443
:1081C5003A2532780020000D0A5B4D53475D44691E
:1081D50073706C6179496E7075742829203D3E2055
:1081E50053656C6563744D6F6465547970653D4185
:1081F500564D6F646520746F207365742074696DC6
:1082050065202620646973706C6179686F6C645FA2
:10821500666C61673D256278000D0A2B2B28446941
:1082250073706C6179566F6C290020202054573883
:10823500383036202020005465636877656C6C2CD7
:04824500496E63001B
:0474D400410103006F
:0FA31A0075F011A42442F9746635F0FA7BFF2226
:0CA37C00900103E0FEEFF4FFEE5FF02222
:07A46200900103E04FF0221E
:06A47000900103E0FF2251
:10946B0012A47090001BEFF012A470900027E4F090
:10947B00A3EFF07BFF7A8179A5129F1B90001BE075
:10948B00FF20E20330E703129F4290001BE030E025
:10949B000312A30B90001BE030E40312A280900098
:1094AB001BE030E1031299F490001BE030E603124D
:0294BB00A338D4
:0194BD00228C
:1078150090001A74C2F012946B7BFF7A747935125A
:1078250082EC7DFF7FA07E00129DF47BFF7D327F81
:10783500A07E00129D07E4900019F0900019E0FF6A
:10784500C394F050197E007BFF7A8179CA90005469
:107855007401F0129CA3900019E004F080DD900102
:1078650003E04410F012A47CEF64016077900019E6
:107875007401F0900019E0FE75F011906641124216
:107885004CE4936F6008900019E004F080E5EE1277
:10789500A31A12A219900018EFF0A3E012A31A90F0
:1078A5000018E0900054F07FA07E00129CA37FA3F7
:1078B5007E00129F68BF01199000D2E070139000FE
:1078C500D47405F07BFF7A8179CC900027F0129F64
:1078D5001B7D017F021297F17F01129D98129A700C
:0478E5008E6A8F6BAD
:0178E900227C
:10A28000E4FF129D98E4FD7F021297F1900103E034
:06A2900054EFF07F0122F3
:107B5D007BFF7A82791E129F1B7DFF127C1B7D821B
:107B6D00127C1BE4FB7DFF7F8A129F8E900103E048
:107B7D0020E27C12946B7F0A12A2687BFF7A7479E3
:107B8D00911282EC7D327FC87E00129DF47B197DAF
:107B9D00377FC87E00129D077B197D737FE17E00C4
:107BAD00129D0712A2CA75F003EF900AA812424C5B
:107BBD00124281AE02AF01900006EEF0A3EFF07B12
:107BCD00FF12A219900006E0FCA3E0AA04F97BFFC6
:107BDD00900054EFF07FC87E00129CA37D017F01C1
:107BED001297F1E4FD7F041297F17F01129D9830F9
:107BFD0014059001078003900106E0FF1285F390B4
:0D7C0D000103E04404F0129A708E6A8F6B40
:107C1A00227B017F8A129F8E7F057E001296D922CF
:0FA30B00E4FD7F021297F1900103E054FEF0226F
:1084CA00E4900006F012A470900005EFF054967044
:1084DA000302855FE030E11512A3FF900001EEF080
:1084EA00A3EFF0A37407F0A374D0F08011900001F9
:1084FA00E56AF0A3E56BF0A3E4F0A374C8F0129A5E
:10850A0070AD07AC06900001E0FEA3E0FF12A10FD8
:10851A00D3900004E09F900003E09E50389000053D
:10852A00E05484600B129F42900006EFF012781517
:10853A00900005E030E11B1299F4900006EFF07FFD
:10854A00A37E00129F68BF01069000D47403F01244
:07855A0078157F01227F006C
:0185610022F7
:109F4200900103E030E20A7F01129F5E54FBF08031
:109F5200087F02129F5E547FF07F0122E4FD129778
:069F6200F1900103E02272
:108F8800E4FFFE129F68EF6454600280287F017E30
:108F980000129F68EF64576002801A7F027E0012F9
:108FA8009F68EF64386002800C7F037E00129F6820
:108FB800EF64386004E4FEFF227F047E00129F689D
:108FC800EF900002F0A3E4F07F05FE129F68900086
:108FD80002E0FEA3E04FFF900002EEF0FEA3EFF0E8
:018FE8002266
:1097AD00900002EEF0A3EFF07D54E4FFFE1297213E
:1097BD007D577F017E001297217D387F027E00123A
:1097CD0097217D387F037E00129721900002E0FDE6
:1097DD007F047E00129721900002A3E0FD7F057E9D
:0497ED0000029721BE
:08A422007F067E00129F6822F4
:09A3B700AD077F067E000297212C
:08A42A007F097E00129F6822E9
:09A3C000AD077F097E0002972120
:07A432007F0A7E00129F6803
:01A439002200
:10879A00E4900003F0900002F0900002E075F011FE
:1087AA0090669612424CE4931242DD87D10087DD2F
:1087BA000187E60287EF0387F804880105880A061D
:1087CA008813070000881A900003E0FD7F0A7E00E4
:1087DA00029721900003E04401F08034900003E006
:1087EA004402F0802B900003E04404F080229000C1
:1087FA0003E04408F08019900003E04410F0801070
:10880A00900003E04420F08007900003E04440F029
:08881A00900002E004F08081EF
:07A43A007F0D7E00129F68F8
:01A4410022F8
:09A3C900AD077F0D7E0002972113
:02A0AD00AB07FF
:10A0AF009000D8E0FF7E007C007D06123F60EF2419
:0EA0BF000CFFE43EFEEF2BFFEC3EFE129F680E
:01A0CD002270
:10A2A8009000D8E075F006A4240C2FFF7E000297DA
:01A2B8002184
:09A3D200AD077F0F7E0002972108
:07A442007F0C7E00129F68F1
:01A4490022F0
:09A3DB00AD077F0C7E0002972102
:08A44A007F387E00129F68229A
:09A3E400AD077F387E00029721CD
:08A452007F377E00129F682293
:09A3ED00AD077F377E00029721C5
:109AAD00E4FD7FADFE129721E49000DDF0FD7F080F
:109ABD00FE129721E4FD7F0EFE1297217D0C7F1182
:109ACD007E021297217F117E02129F6890010BEF8B
:0C9ADD00F012599D128F227F01027CEDD7
:10A189009291D290120012C290221242588E827578
:0EA199008300123F21FF22EFF0A3EDF0A3227E
:0B972100900028EEF0A3EFF0A3EDF0A5
:10972C00900028E0FEA3E07807CEC313CE13D8F93F
:10973C0044A054FE90002BF012A29690002BE0FF58
:10974C00128DE8900028A3E0FF128DE890002AE02B
:0C975C00FF128DE81200167F0202A268C6
:049F6800AD07AC068F
:109F6C00ED7807CEC313CE13D8F944A054FEFF12DC
:109F7C009B23900033EFF07F0212A268900033E035
:019F8C00FFD5
:019F8D0022B1
:089B2300900034EFF0A3EDF017
:109B2B0012A296900034E0FF128DE8900035E0FF12
:109B3B00128DE812A296900034E04401FF128DE8DA
:109B4B00129D38900036EFF0120016900036E0FFB1
:019B5B0022E7
:109F8E0090005512A1A0EBF012A296900055E0FFA2
:109F9E00128DE8900056E0FF128DE8900057E0FF1A
:069FAE00128DE80200160E
:0899B60090003412A1A0EBF0B7
:1099BE0012A296900034E0FF128DE8900035E0FF81
:1099CE00128DE8E4900038F0900037E0FFA3E0C37A
:1099DE009F5010900036E0FF128DE8900038E004A2
:0699EE00F080E502001606
:0998770090005512A1A0124278E4
:1098800012A296900055E0FF128DE8900056E0FF7E
:10989000128DE8E490005BF090005AE0FFA3E0FE38
:1098A000C39F501190005712A193128DE890005B56
:0898B000E004F080E302001661
:099B5C00900020EFF0A312427802
:109B650012A296900020E0FF128DE8E4900025F007
:109B7500900024E0FFA3E0FEC39F50119000211246
:109B8500A193128DE8900025E004F080E302001611
:0100120022CB
:10A29600D291120012D290120012C291120012C272
:02A2A600902204
:0D001600C291120012D290120012D291225B
:108DE800C290EF30E703D38001C312A189EF30E6C8
:108DF80003D38001C312A189EF30E503D38001C3F7
:108E080012A189EF30E403D38001C312A189EF30A6
:108E1800E303D38001C312A189EF30E203D38001B9
:108E2800C312A189EF30E103D38001C312A189EFF6
:108E380030E003D38001C312A189C290C290D291BD
:098E4800D290D290D290C2902287
:109D3800E4FFD291120012C290FDFCD290EF25E010
:109D4800FF3091034401FFC2900DBD00010CED648A
:0F9D5800084C70E7120012D290D290D290C290B5
:019D670022D9
:106DDC000D0A504F574552206B65792070726573C0
:106DEC00736564000D0A4D454E55206B6579207016
:106DFC00726573736564000D0A494E505554534FB8
:106E0C0055524345206B65792070726573736564C8
:106E1C00000D0A5550206B6579207072657373658F
:106E2C0064000D0A444F574E206B657920707265D3
:106E3C0073736564000D0A53454C4543544B4559D7
:106E4C00206B65792070726573736564000D0A4E52
:106E5C004F542041535349474E4544206B6579208C
:106E6C0070726573736564000D0A504F574552205C
:106E7C006B657920000D0A4D454E554B4559206BDD
:106E8C00657920000D4F53445F4C4F434B000D0A66
:106E9C0052454D4F5F564F4C5550000D0A52454DC3
:106EAC004F5F564F4C444E000D0A4556454E544BC1
:106EBC004559206B65792070726573736564000D9C
:106ECC000A56657273696F6E4B4559206B65792054
:086EDC007072657373656400B8
:1074D8004100FC00410100004100FF004100FD00A7
:0874E8004100FB00410102001C
:08A45A007BFFE4900027F022D3
:0EA3470012A470EF30E10302002E129C6F2270
:0DA3550012A470EF30E1057F01125ED622E8
:0DA3620012A470EF30E1057F02125ED622DA
:10A0220012A470EF30E10A3016047F01800B025D4A
:10A03200239000FBE07F01600302672F126A9A12ED
:03A042007B5D2221
:10A0450012A470EF30E108301602800902002E904C
:10A0550000FBE060057F0202672F7FFF126A9A12FC
:03A065007B5D22FE
:10773B00900004EFF0A3EDF012A388900004E01288
:10774B0042DD77BF0077BF0177BF0277BF0377BFFB
:10775B000477BF0577BF0677BF0777BF0877BF09E9
:10776B0077900C77E51077EA1177D01577FD1677C0
:10777B00C62077CB2177A43877AD3A780B3E77EFDD
:10778B003F0000781274FF9000DFF0A3F09000052B
:10779B00E060037F01227F002212A12E12805B7F0B
:1077AB00012212A470EF30E40512A280800312783C
:1077BB00157F0122900005E07F012212A35580471F
:1077CB0012A3628042900005E060037F012212A4A5
:1077DB0070EF30E132125D23802D12A0228028122F
:1077EB00A0458023900005E060037F012212A34790
:1077FB00801512A470EF30E10E7FF4127F08800722
:0A780B007D017FC0122CCF7F012207
:104DB4009000017401F0FF1271DD900002EFF070B9
:104DC40003025059E024F8601C24F8602024F060A9
:104DD4002424E0602824C0602C247C70307BFF7A7B
:104DE4006D79DC802E7BFF7A6D79F080267BFF7AEB
:104DF4006E7903801E7BFF7A6E791D80167BFF7AA5
:104E04006E792E800E7BFF7A6E794180067BFF7A65
:104E14006E7959129F1B9000ECE06007E490000249
:104E2400024FF37FAC7E00129F68900003EFF0E521
:104E3400A0F454906490702EE0702B7FD07E071203
:104E440096D9E5A0F4549064906007900100E0B412
:104E540003147E0012505F12A338E49000FEF09019
:104E64000100F0127815900100E06403701A9000BC
:104E740003E07014FE12505F12A338127815E49008
:104E84000100F07F0112A16B9000FEE0701390000E
:104E940003E0700D900100E06007E4F07F0112A1CF
:104EA4006B12A388900002E01242DD5027024ECB21
:104EB400044EFF085007104F99204FBF404FFB800E
:104EC400503290000050597BFF7A6E7974129F1B08
:104ED400200E239000ECE06003025059FD7F0C1279
:104EE400773B900001EFF0E49000D1F0FD7FABFE42
:104EF400129721025059C20E024F857BFF7A6E79B8
:104F040081129F1B900102E06036E4F09000FBF0F8
:104F14007B167D0A7F8A129F8E7B807D617F8A1239
:104F24009F8EE4FB7D667F8A129F8E7FB07E001287
:104F34009F689000D2EFF012946B1299F4025059CA
:104F4400200E4D900003E07019FF127DAA7FF41229
:104F5400A26812A3381278157A6E799012A45A02B4
:104F6400502D12A470EF30E10B3016028019125D3F
:104F74002302505912A470EF30E20C12946B129970
:104F8400F41278150250597F3F125073F0025059B1
:104F94007F09025020200E1F12A470EF30E1077F1A
:104FA4000130162C80247A6E799A12A45A129F1B0F
:104FB4007F1012507380387F068061200E3512A452
:104FC40070EF30E1117F0230160612672F0250593C
:104FD400125ED60250597BFF7A6E79A7E4900027BF
:104FE400F0129F1BE4FD7F1112773B900001EFF05C
:104FF4007F01227F078025200E05128A3080567F8C
:10500400058019200E149000E9E0700404F0800576
:10501400E49000E9F01293C3803B7F04125791D2CD
:105024001980327BFF7A6E79B4129F1B80277BFF35
:105034007A6E79CB129F1B900106E0640F70167D87
:10504400FF12507D7D8212507DE4FB7DFF7F8A122A
:0A5054009F8E129417900001E0FFF8
:10505E00227D017FAC1297217F01127DAA7FD07E27
:10506E00071296D922E4FD12773B900001EF227BC6
:0E507E00017F8A129F8E7F057E001296D92236
:0571DD00900004EFF03A
:1071E200A2099217C209200C030272B9D2179000A9
:1071F200F7E0FF7012A3E0B4010DA3E0B40308A30B
:10720200E0B40203434520EFB403139000F8E0B466
:10721200020CA3E07008A3E0B401034345209000F0
:10722200F7E07012A3E0B4020DA3E0B40308A3E0F8
:10723200B401034345409000F7E0B40311A3E0B466
:10724200010CA3E07008A3E0B4020343454012A47A
:1072520070EF20E1609000F7E0FFB40111A3E0B409
:10726200030CA3E0B40207A3E07003434520EFB48C
:1072720002139000F8E0700DA3E0B40108A3E0B49B
:1072820003034345209000F7E0B40211A3E0B403E6
:107292000CA3E0B40107A3E070034345409000F75C
:1072A200E0B40111A3E0700DA3E0B40208A3E0B4BE
:1072B2000303434540C20C2017037F0022900004C1
:0E72C200E06003AF4522200803AF45227F00A5
:0172D000229B
:106605000D0A43485F5457323833352825303278E0
:10661500292C526561644465636F6465722830781E
:106625003636293D256278000D0A2043485F4156DC
:106635002825303278290020200A0D00FE000000B0
:1066450000000000000000000000000000014356AB
:10665500425300000000000000000000000002435B
:10666500414D204400000000000000000000000330
:10667500415620200000000000000000000000003E
:106685000000000000000000000000000000000005
:1066950000FE0000000000000000000000000000F7
:1066A5000000014E545343000000000000000000AC
:1066B5000000000250414C000000000000000000F6
:1066C5000000000003534543414D00000000000059
:1066D50000000000000550414C4D00000000000086
:1066E5000000000000000650414C4E000000000074
:1066F500000000000000000750414C36300000004B
:106705000000000000000000044E545343342E34B2
:106715003300000000000000000000000000000041
:0A672500000000000000000000006A
:1074F000C107C103C1024100D600016900C100C13A
:0375000004C101C2
:109ECB00EF75F011A42441F582E43466F583E49335
:109EDB0022900001023F21E4FB7DFF7F8A22E4F503
:089EEB0067F568F566F56522D4
:06950E0090001E124278DD
:10951400E4FE123F08900021F0129EDC80299000A6
:109524001E124258123F08FFB4FF06129EDCF4607C
:1095340022900022EFF0FD129EDC900023F0FB90BD
:109544000021E0FF129F8E90001FE475F002123F8D
:09955400FD80CB129EE2029F8E05
:10892D0090001DEFF07BFF7A50798C12950E129E00
:10893D00E2129F8E90001DE024FE6013146010243F
:10894D00FD600C240624F85011240A600D80117B63
:10895D00FF7A5179DC12950E800690001D7401F09E
:10896D009000D8E0B405139000E3E07002800B9006
:10897D00001DE014FF12A1C4800312A0EF7B157D32
:10898D00297F8A129F8E7B067D5C7F8A129F8E7F48
:10899D000B7E00129F681272D112A42A127CEDC2B6
:0289AD001A228C
:10A2B9007D017F8A129B23EF30E7037F01227F0014
:01A2C9002272
:10838E00E490001AF0A3F09000D8E0B40506900037
:10839E00E3E0707BE4900018F0129318900019EF50
:1083AE00F090001BE004F0E0C3940A5062900019B4
:1083BE00E0FF64FE60E39000D3E0FEEF6E60DA90C3
:1083CE000018E0FFA3E0FEB50706A3E004F0800A64
:1083DE00E490001AF0900018EEF090001AE0C394AA
:1083EE000240B6900019E0FF700A129B9590001C97
:1083FE007401F0229000D3E0900019700512841ED3
:0F840E00800812841E7F3212A268E490001CF0D6
:0F841D0022E0FF129B95900019E0FF12892D229B
:10A0680012A2B9EF60037F01227D1C7F8A129B2315
:10A07800EF54F0FF30E7037F0122EF5470C4540F10
:02A0880004FFD3
:01A08A0022B3
:1091B90012A068AB07EB24FE601914601624FD6049
:1091C90012240224FC50042407701775670075687F
:1091D9003C8006756700756832E475666B75653D98
:1091E9008003129EE9F564F563E4FFEF75F011A4BD
:1091F9002496F582E43466F583E493FEB5030122EF
:08920900EE60030F80E57F0019
:01921100223A
:06A476009000D3E0FF227C
:109B95009000D3EFF024FE601914601624FD6012C6
:109BA500240224FC50042407701775670075683C6F
:109BB5008006756700756832E475666B75653D806E
:099BC50003129EE9F564F5632228
:06A47C009000D8E0FF2271
:10A12E007F01129ECBFE9000D8E0FDEE6D60030F16
:0EA13E0080F00F129ECB70027F01129ECBFFAD
:01A14C0022F0
:09A3F600301703D2B722C2B722CE
:10805B00900017EFF09000D8E06F70030280F512DC
:10806B009AE9900017E09000D8F09000D3E0FF124F
:10807B00892D9000D8E024FD60202402703A129FD5
:10808B00DA1280F6C2957D667F8A129B23900029B7
:10809B00EFF07BFF7A667905800E129FFE1280F659
:1080AB00D2957BFF7A66792D9000D8E0FF90002760
:1080BB00E4F0A3EFF0129F1B1292129000D8E0FF96
:1080CB0012A3D27F1E12A26812838E127815E4FFC0
:1080DB00128B2D7F6412A2687BFF7DD07F8A129F4B
:1080EB008E7BFF7DD17F8A129F8E22C214E4FF12FA
:0580FB006A9AC2942204
:0DA36F00C21712A411129AE9E4FF02A16BBB
:0CA38800129A709000DFEEF0A3EFF022BC
:09A3FF009000DFE0FEA3E0FF2264
:1079BC00C374FF9FFFC39400400CEF94645007E422
:1079CC00900002F0804BEFC39464400DEF948C5008
:1079DC0008900002741EF08038EFC3948C400DEFB9
:1079EC0094B45008900002743CF08025EFC394B41A
:1079FC00400DEF94DC50089000027450F08012EFB0
:107A0C00C394DC400CEFD394FF5006900002746ECC
:107A1C00F09000FDE0701E900002E0FFE569D39F3E
:107A2C00400415698008E569C39F50020569E4901C
:107A3C0000D6F08006900002E0F5697DFF7F8A1287
:107A4C009B23900001EFF0129EE2129F8E7DBE7F71
:107A5C008A129B23EF54CF4410FB7DBE7F8A129F6A
:107A6C008E7DC47F8A129B23EF54804569FB7DC4B5
:107A7C007F8A129F8E900001E0FB7DFF7F8A029F20
:017A8C008E6B
:10A2EC00E49000F0F09000E2F09000EE7408F022A0
:106FE5007FAB7E00129F689000D1EFF07FB07E00EE
:106FF500129F689000D2EFF07FAA7E00129F6890E2
:1070050000E5EFF0E49000DDF07FA0FE129F6890B0
:1070150000FDEFF07FB87E00129F689000DAEFF078
:107025007FB77E00129F689000D7EFF07FB97E0092
:10703500129F689000D0EFF07FBF7E00129F68EF2F
:1070450024FF92067FC57E00129F689000DCEFF05A
:107055007FAF7E00129F689000E9EFF07FA5127068
:10706500DAEE9000E67006E04401F08004E0540E8C
:10707500F07FA61270DAEE9000E77006E04401F0AA
:107085008004E0540EF07FA77E00129F68AE07EEE5
:107095009000E87006E04401F08004E0540EF07FB3
:1070A500A87E00129F68AE07EF9000EA7006E044E4
:1070B50001F08004E0540EF012A44A900106EFF0AE
:1070C50012A452900107EFF07FB27E00129F6890E4
:0470D50000D5EFF003
:0970D900227E00129F68AE07221E
:106BBB007BFF7A66793C12A234128562900000EF5B
:106BCB00F01260669000ECE0701B9000F0E0601536
:106BDB009000E5E0FF9000E2E0C39F400812A0CEDA
:106BEB00E49000E2F09000FDE0700E7DC97F8A1208
:106BFB009B23900000EFF080027FFF1279BC124DB7
:106C0B00B4EF7003026CCE7FA37E00129F68EF601F
:106C1B00679000D4E06401705F12A470EF20E1581C
:106C2B0012A470EF20E2519000ECE070469000D27D
:106C3B00E0700512A280803B9000E6E0540DF090CE
:106C4B0000E7E0540DF09000E8E0540DF09000EAFE
:106C5B00E0540DF012936E9000E6E04402F09000C9
:106C6B00E7E04402F09000E8E04402F09000EAE034
:106C7B004402F0E49000D4F01284CA12A47CEF1406
:106C8B0024FD5002800A12A470EF20E10312838EC0
:106C9B007DB27F8A129B23EF6003026BC47BB07DB6
:106CAB00FD7F8A129F8EE4FF12A16B7FF47E01128F
:106CBB0096D97F0112A16B7B307DFD7F8A129F8E4F
:036CCB00026BC495
:016CCE0022A3
:10926A00C2B5C21712A4117F0A7E001296D9C2B4DF
:10927A001296437F0112A16B12A14D12A2EC128722
:10928A000F126CCF7F0A7E001296D9126FE57FA962
:10929A007E00129F681295AAE49000ECF07F117E7E
:1092AA0002129F689000D9EFF09000D1E06003129B
:0792BA006BBB128AB080F2C9
:108AB000E4900002F0128562900001EFF0601BE08C
:108AC000FF1260669000EEE0B40803D38001C3405B
:108AD00019E4FF128B2DD217800D900001E0FF12D8
:108AE000606612A36FC21712A411E4FF1271DD9029
:108AF0000000EFF060BFE0B404BB128562EF70B518
:108B00009000D104F0FD7FAB7E0012972112781502
:108B100012936E7FA37E00129F68BF01069000D45F
:0D8B20007403F0E4FF128B2DD21702A41194
:1073BE00A10AA20AA000A310A410A591A601A701DC
:1073CE00A822A910AA00AB62119E00000100CC0CED
:1073DE0002700000005000000F4000119E3031007E
:1073EE00AFC81202F1100800500030004000119E8C
:1073FE003100029000040170000000A0F5000F4063
:10740E0000119E3100029000030170000000F0F5A3
:10741E00000F4000119E3230000C0D0A01B1040421
:10742E000050C800044000119E313000160D0F01AF
:10743E003101000040A0000840119E3330100C981E
:10744E0028013101000000B400084000119E3230C6
:10745E0000222C0205B1000020F000040340119E12
:10746E00313000862C1707B1921740502508034083
:10747E00119E30B400222C0201F1000000F0000039
:10748E0003C100119E303C10647E1902B10204400B
:06749E0050C80005C1000A
:10882200900051FFE475F001124261EF023F4E9059
:10883200004FE0FEA3E0FF22EF14FB7D9E7F8A2221
:1088420090001B12425890001EE0F58275830002D0
:108852003F21E0A4FFA3E5F0F0A3EFF07DA07F8A23
:108862002290005BE0FCA3E0FD22EEF0A3EFF0A378
:1088720022123F72900059EEF0A3EFF04E22A3E0D5
:10888200FB7D967F8A22123F7290004FECF0A3ED9F
:10889200F022F07B047D947F8A22EDF0EFC39401F5
:0888A20022E4FB7D947F8A2291
:109DC700129DE9900028F0E4A3F0129DE9FF9000AE
:109DD70028E06F700C900029E004F0E0C3940A407B
:019DE700E992
:0C9DE800227D957F8A129B23EF544022BD
:10910300E490000BF0E490000AF090000AE0FFC343
:109113009408502FA3E075F008A4FEEF2E7D9C1257
:109123009153FFA3E075F0089017DD12424CE582DE
:109133002FF582E43583F583E4937D9D12915304E7
:0F914300F080C790000BE004F0E0C3940240B648
:0C91520022FB7F8A129F8E90000AE02210
:108FE900900003EFF0A312427812903744017D9468
:108FF900129040900003E07D991290407DE07F8AB5
:10900900129B23EF4410FB7DE07F8A129F8E900014
:109019000412425890005A741BF07D9A7F8A129864
:109029007712903754FEFB7D947F8A029F8E7D9440
:0E9039007F8A129B23EF22FB7F8A129F8E22DA
:109BCE007B607D9B7F8A129F8EE4900002F0900056
:109BDE0002E0FFC394E2501FEF94C6501AEF75F0E7
:109BEE001BA424EDF9741735F0FA7BFF128FE99060
:079BFE000002E004F080D733
:019C0500223C
:039938009000128A
:10993B0012889C4036EFD39408503012883A129F0D
:10994B008E90001275F008128854129B23EF54F07E
:10995B00FD900013E04DFB7DA07F8A129F8E90003F
:0B996B0013A3E0FB7DA17F8A129F8EFA
:0199760022CE
:039835009000128E
:1098380012889C4039EFD39408503312883A129F0B
:109848008E90001275F004128854129B23EF540F67
:10985800FD900013E0C454F04DFB7DA07F8A129F59
:0E9868008E900013A3E0FB7DA27F8A129F8EDC
:0198760022CF
:059D980090001DEFF03A
:109D9D00129DC77D9C7F8A129B2390001EEFF09031
:109DAD00001DE06006A3E054EF800690001EE04425
:099DBD0010FB7D9C7F8A129F8E31
:019DC600227A
:0397F10090001CC9
:1097F40012889C403BEFD39408503512883A129F4C
:109804008E7D9F7F8A129B2390001DEFF090001C99
:10981400E06007A3E04401F0800790001DE054FEDF
:10982400F0129DC790001DE0FB7D9F7F8A129F8EE2
:019834002211
:10968E00EFC394014006EFD394084004E4FEFF229A
:10969E0012883A129F8E7DA07F8A129B23EF540F61
:1096AE00900028F0A3E4F07DA17F8A129B23900006
:1096BE0028E0F0A3E04FF0900028E0FEA3E078034E
:0A96CE00CEC313CE13D8F9FF7E00BF
:0196D800226F
:1092C100EFC394014006EFD394084004E4FEFF226B
:1092D10012883A129F8E7DA07F8A129B23EF54F051
:1092E100C4F8540FC868FEE4C454F048900028F054
:1092F100A3CEF07DA27F8A129B23900028E0F0A3E9
:10930100E04FF0900028E0FEA3E07802CEC313CE38
:0693110013D8F9FF7E00F5
:019317002233
:109CA30090004F12886C124278128895129F8E9002
:109CB300004F128880129F8E9000511242589000DC
:109CC30054E090005AF07D977F8A1298771288A308
:039CD300029F8E5F
:109D070090003012886CEDF0A3EB128894129F8EAE
:109D1700900030128880129F8E900032E0FBA3E003
:109D2700900037F07D987F8A1299B61288A3029F18
:019D37008E9D
:109DF40090003012886CED128894129F8E9000307F
:109E0400128880129F8E900032E0900037F07B2001
:0D9E14007D977F8A1299B61288A3029F8E57
:0969790090004F12886C12427864
:10698200900056124278E4900055F0900054E06472
:106992000A707990005B7427F0A37410F012886378
:1069A200C3940AEC94004056128831128873601224
:1069B200900059A3E02430128822900055E004F0A0
:1069C2008015900055E0600F900051E475F00112BF
:1069D20042617430123F4E12883190005BE0FAA39C
:1069E200E0FBFDAC021288887D0A7C00AF03AE0298
:1069F200123F7290005BEEF0A3EFF002699F9000ED
:106A02004FA3E02430A3128825026A8D900054E03F
:106A120064106003026A9790005B7410F0A3E4F0C4
:106A2200128863C39410EC94004044128831128897
:106A3200736028900059E0FEA3E0FFC3940AEE942D
:106A4200004005EF24378007900059A3E02430125C
:106A5200882212883112886312888890005BE0C411
:106A6200F854F0C868F0A3E0C4540F48F080B112A3
:106A72008831C3940AEE94004005EF2437800790D2
:106A8200004FA3E02430FFA3128826900051124247
:076A920058E4123F4E7F01A2
:016A990022DA
:06A2190090004F12427894
:10A21F00E4FF90004FE475F001124261123F0860B5
:04A22F00030F80EEAB
:01A233002208
:0682EC0090001B12427815
:1082F2007DFF7F8A129B2390001FEFF054FEFB7DCF
:10830200FF7F8A129F8E7DE07F8A129B23EF54EFBC
:1083120012837BE490001EF0128842FF60429000BC
:108322001EE02401FDE433FC90001B124258E92DAB
:10833200F9EA3CFAEF12838490001EE02401FFE484
:1083420033FE90001B124258E92FF9EA3EFA7405F7
:1083520012838412884204FF90001EE02FF080B83E
:108362007DE07F8A129B23EF441012837B90001FD3
:09837200E0FB7DFF7F8A029F8E73
:10837B00FB7DE07F8A129F8E22900024F07F8A1271
:03838B009B5C22D6
:100066000A0D6D6F646520300A0D000D0A53455464
:10007600204974656D2056616C75653A2069642D5A
:100086002558000D0A2B2B284F5344486967684DA5
:10009600656E755F73756229204F53444D656E75A5
:1000A6004C6576656C3A2564000D0A5245534554F5
:1000B6005F4D6F6E69746F7256414C5545000D0A5F
:1000C6004F6E4368616E67696E6756616C75653D14
:1000D6003078256278000A0D79766D6978203400CB
:1000E6000A0D79766D69782030000A0D79766D698A
:1000F600782031000A0D79766D69782032000A0D74
:1001060079766D6978203300436865636B205647BE
:1001160041204361626C65004F7574204F66205222
:10012600616E676500FE62596B62714C2F713A34DD
:10013600FF001213566F6C756D6500202020417507
:10014600746F2041646A757374696E67202E2E2E53
:100156002E20202000436F6D706F73697465005602
:10016600657273696F6E004C4344205665727369FD
:100176006F6E004456522056657273696F6E005753
:100186004946492049500057494649204D414300B8
:1001960047415445574159004F534420506F7369A6
:1001A60074696F6E004F534420506F736963695FC3
:1001B6006E004F534420FE5465714667FF004C6144
:1001C6006E6775616765004C616E67756500537093
:1001D6007261636865004964696F6D6100FE575618
:1001E600714667FF004272696768746E65737300D3
:1001F6004C756D696E6F7369745F0048656C6C69E8
:10020600676B656974004272696C6C6F00FE40240E
:10021600715F60FF00436F6E747261737400436FA9
:100226006E747261737465004B6F6E747261737471
:1002360000436F6E74726173746500FE394F715FAF
:1002460060FF0053617475726174696F6E0053AA22
:1002560074746967756E670053617475726163695A
:100266005F6E00FE4A2C33715F60FF0048756500C3
:10027600546F6E616C69745C00466172626500540D
:100286006F6E616C6964616400FE4A5448715F6018
:10029600FF0053686172706E657373004163756920
:1002A600745C00536368AA7266650041677564658D
:1002B6007A6100FE463933715F60FF0052657365EF
:1002C6007400445C66617574004772756E64656996
:1002D6006E7374656C7567005072656465746572DB
:1002E6006D696E6163695F6E00FE66246DFF00577F
:1002F6006964652053637265656E005749444520FD
:10030600FE6D3B714667FF004D6972726F72004A5F
:10031600756D70005345512054696D6520537465A1
:1003260070004A756D702041560043616D204F750F
:10033600740052657475726E00526563616C6C0070
:100346004D6F6E69746F7220526563616C6C004408
:10035600565220526563616C6C00457869740020C2
:1003660000766572204856322E31200054696D653C
:100376004F75742053657475700047617567652005
:1003860053657475700047617567652052656361D2
:100396006C6C005072696F7269747900526576658B
:1003A6007273204D6F6465005265736F6C75746966
:1003B6006F6E00465053005175616C697479005236
:1003C60065636F7264204D6F6465005265636F727A
:1003D60064204C656E677468005072652D616C61AF
:1003E600726D00506F73742D7265636F7264004195
:1003F60070706C79005265636F72645374617274C5
:10040600005265636F726453746F7000536E61704F
:1004160073686F7400446174652054696D65005992
:10042600656172004D6F6E74680044617900486FB3
:100436007572004D696E00536563004461796C699D
:10044600676874536176696E6700426567696E65B1
:1004560000456E64005765656B0054696D65005410
:10046600696D65205A6F6E650052657475726E26E9
:100476004170706C7900466F726D61742053442030
:100486004361726400417564696F205265636F72DF
:1004960064004669726D7761726520557064617497
:1004A6006500596573004E6F004669727374204E7D
:1004B600756D626572005365636F6E64204E756D6F
:1004C600626572005468697264204E756D62657269
:1004D60000466F75727468204E756D6265720043D2
:1004E60068616E67652050617373776F7264004F41
:1004F60076657257726974650054726967676572CA
:1005060020536574005472696767657220564741C7
:1005160000547269676765722044656C61790049A9
:100526006E666F726D6174696F6E0055706461748A
:100536006520436F6E66696700534420636F766576
:1005460072204465742E00446973706C61790044AE
:10055600565220446973706C617900446973746102
:100566006E6365204761756765004F5344204C6F85
:10057600636B0050617373776F726400536F7572AB
:100586006365205469746C650043564253204100EC
:10059600435642532042004356425320430043569B
:1005A60042532052004175746F20446179264E698A
:1005B6006768740044697220496D61676500446923
:1005C6007220496D61676520410044697220496D5A
:1005D60061676520420044697220496D6167652044
:1005E6004300526561722053657475700043414D36
:1005F60020410043414D20520043414D20420043DB
:10060600414D20430043414D2044000200456E67A2
:100616006C697368004672616E7B6169730044653C
:10062600757473636800457370617E6F6C00FE6A53
:100636002356FF200004014D6F646531004D6F6441
:100646006532004D6F6465330055736572004D6FFA
:10065600646531004D6F646532004D6F646533002B
:10066600557361676572004D6F64757331004D6F28
:1006760064757332004D6F647573330042656E7531
:10068600747A6572004D6F646F31004D6F646F321E
:10069600004D6F646F33005573756172696F00FEAC
:1006A6003A34FF3100FE3A34FF3200FE3A34FF336B
:1006B60000FE47515B71FF200008004175746F0012
:1006C6004E5453430050414C00534543414D004E58
:1006D600545343342E34330050414C4D0050414C5A
:1006E6004E0050414C36300005004E6F726D616C05
:1006F60000576964650050616E6F72616D610046F6
:10070600756C6C000500FE1A1BFF2000FE1C1DFF09
:100716002000FE1E1DFF2000FE1F20FF2000FE1FE2
:1007260021FF200009004F66660043433100434322
:100736003200434333004343340054310054320003
:1007460054330054340002004F4E004F4646000218
:10075600004D4952524F52004E4F524D414C0003EC
:1007660000446179004155544F004E696768740032
:10077600020031363A3900343A33000200004F4E57
:10078600004F464600030053494E474C450044552A
:10079600414C00545249504C450007004100412B42
:1007A6004200412B4300412B5200412B4243004162
:1007B6002B425200412B43520007004200422B417C
:1007C60000422B4300422B5200422B414300422B56
:1007D600415200422B43520007004300432B410085
:1007E600432B4200432B5200432B414200432B41F3
:1007F6005200432B42520006005200522B41005237
:100806002B4200522F414200522B414200522F43AD
:10081600000F00515541440053455100412B420001
:10082600432B5200412B5200522B4200412B4300D6
:10083600432B4200522F414200522B414200522F7D
:100846004300410042004300520005005155414417
:100856000043414D410043414D420043414D430059
:1008660043414D52000200003732307834383000B0
:10087600333532783234300005000035003130002F
:100886003135003230003235003330000500004C7F
:100896006576656C2D31004C6576656C2D32004CA5
:1008A6006576656C2D33004C6576656C2D34004C91
:1008B6006576656C2D35000300004E6F6E65004E43
:1008C6006F726D616C00416C61726D0006000031E3
:1008D60020206D696E003220206D696E0033202065
:1008E6006D696E003420206D696E003520206D69BB
:1008F6006E003130206D696E0005000031352073C1
:10090600656300333020736563003630207365639A
:1009160000080000313520736563003330207365AD
:10092600630036302073656300020000446973611A
:10093600626C6500456E61626C6500040000466984
:10094600727374005365636F6E64005468697264F1
:1009560000466F757274680004004100420043004F
:1009660052001900002D3132002D3131002D313069
:10097600002D39002D38002D37002D36002D35007D
:100986002D34002D33002D32002D31003000310082
:1009960032003300340035003600370038003900A5
:1009A6003130003131003132000200502000442045
:1009B60000030032343030003438303000393630FD
:1009C60030000200FE1819FF2000FE1A1BFF20004F
:1009D6000400FE1C1D1E1F2021FF2000FE222328CE
:1009E600292A2BFF2000FE242528292A2BFF200058
:1009F600412B422C422B41000E00FE262728292A95
:100A06002BFF200053455100412B4200432B52003F
:100A1600412B5200522B4200412B4300432B4200F4
:100A2600522F414200522B414200410042004300F6
:100A3600520056474100FF0165FF0165FF0165FF52
:100A46000165FF0165FF016DFF016DFF016DFF018E
:100A56006DFF016DFF0179FF0179FF0179FF0179D2
:100A6600FF0179FF0185FF0185FF0185FF0185FFF4
:100A76000185FF018DFF018DFF018DFF018DFF01B6
:100A86008DFF0196FF0196FF0196FF0196FF0196E5
:100A9600FF010EFF011EFF011EFF011EFF011EFFCB
:100AA600012BFF0138FF019EFF019EFF019EFF0102
:100AB600ABFF01B8FF01C4FF01CDFF01D4FF01DC8C
:100AC600FF01E3FF01EBFF01F6FF0201FF020CFF4E
:100AD6000213FF021BFF0224FF022EFF0237FF0252
:100AE60041FF0249FF0249FF0254FF025EFF02690D
:100AF600FF0272FF0276FF027FFF0285FF028FFF71
:100B06000298FF02A2FF02A9FF02B1FF02B9FF028B
:100B1600C2FF02C8FF02CFFF02DEFF02EFFF030E95
:100B2600FF030EFF030EFF030EFF030EFF0315FF69
:100B36000315FF0315FF0315FF0315FF031AFF0334
:100B46001AFF031AFF031AFF031AFF0330FF0330CD
:100B5600FF0330FF0330FF0330FF0328FF0338FF96
:100B66000338FF0338FF0338FF0338FF033FFF0353
:100B76003FFF033FFF033FFF033FFF0346FF0346DD
:100B8600FF0346FF0346FF0346FF0355FF0355FFDA
:100B96000355FF0355FF0355FF0360FF0360FF0383
:100BA60060FF0360FF0360FF054DFF054DFF054D28
:100BB600FF054DFF054DFF0555FF0555FF0555FF83
:100BC6000555FF0555FF0561FF0561FF0561FF0539
:100BD60061FF0561FF0570FF0570FF0570FF057079
:100BE600FF0570FF0579FF0579FF0579FF0579FF98
:100BF6000579FF0582FF0582FF0582FF0582FF0555
:100C060082FF058FFF058FFF058FFF058FFF058F7D
:100C1600FF0596FF0596FF0596FF0596FF0596FFCD
:100C2600059DFF059DFF059DFF059DFF059DFF0594
:100C3600A4FF05A4FF05A4FF05A4FF05A4FF05ABBB
:100C4600FF05ABFF05ABFF05ABFF05ABFF05BAFF25
:100C560005BAFF05BAFF05BAFF05BAFF05C4FF05C9
:100C6600D0FF05DCFF05E8FF05E8FF05E8FF05E81E
:100C7600FF05E8FF05F3FF05F3FF05F3FF05F3FFA7
:100C860005F3FF05FFFF05FFFF05FFFF05FFFF0556
:100C9600FFFF0605FF0605FF0605FF0605FF06051D
:100CA600FF05F9FF05F9FF05F9FF05F9FF05F9FF4E
:100CB600060BFF060BFF060BFF060BFF060BFF03DB
:100CC60065FF0367FF0372FF0380FF038CFF039931
:100CD600FF03A2FF03AEFF03B9FF03BDFF03C5FF7A
:100CE60003D1FF03DFFF03E9FF03F5FF03FBFF0467
:100CF60007FF0412FF041BFF0425FF042AFF04302C
:100D0600FF0434FF0439FF043DFF0441FF0450FF94
:100D16000457FF045BFF0460FF0465FF046FFF04D4
:100D26007CFF048BFF0498FF04A8FF04ACFF04AF0C
:100D3600FF04BCFF04CAFF04D7FF04E5FF04F5FF68
:100D460004FFFF050BFF0517FF0525FF0531FF050E
:100D56003FFF02F5FF02F5FF02F5FF02F5FF030173
:100D6600FE6C6F00FE727500FE606300FE787B000D
:100D7600FE666900FE848700FE010200FE7E810099
:100D8600FE8A8D00FE909300FE969900FEC0C30079
:100D9600FE9C9F00FEA2A500FEA8AB00FEAEB10021
:100DA600FEB4B700FEBABD000000170316611702B5
:100DB60016610000FF0C43FFFFFF3700000700B875
:100DC600074C0000FF0BADFFFFFF3700000700B91F
:100DD600074C0000FF0BCBFFFFFF3700000700BAF0
:100DE600074C0000FF0CCDFFFFFF37000010007A14
:100DF6000DAF0000FF0BDAFFFFFF3700000700BB57
:100E0600074C0000FF0B62FFFFFF3700000300F1F5
:100E1600000000000000000000FFFF0000000000CE
:100E26000000170216610000FF0D30FFFFFF3700BC
:100E3600000300F100000000FF0D2DFFFFFF37004B
:100E4600000300ED000000000000000000FFFF00AE
:100E5600000000000000170216610000FF0D33FFBE
:100E6600FFFF37000005002D0DAF0000FF0D36FF18
:100E7600FFFF37000005002E0DAF0000FF0D39FF04
:100E8600FFFF37000005002F0DAF0000FF0D3CFFF0
:100E9600FFFF3700000500380DAF0000FF0D3FFFD4
:100EA600FFFF3700000300EE00000000FF0B62FFAB
:100EB600FFFF3700000300F1000000000000000003
:100EC60000FFFF000000000000001702166100008E
:100ED600FF0D33FFFFFF37000005002D0DAF0000AB
:100EE600FF0D36FFFFFF37000005002E0DAF000097
:100EF600FF0D39FFFFFF37000005002F0DAF000083
:100F0600FF0D3CFFFFFF3700000500380DAF000066
:100F1600FF0D24FFFFFF3700000300EB0000000079
:100F2600FF0D3FFFFFFF370E600100000E5C000063
:100F3600FF0B62FFFFFF3700000300F10000000017
:100F46000000000000FFFF00000000000000170581
:100F560016610000FF0D1EFFFFFF37000007002C83
:100F660009680000FF0CFDFFFFFF370000050020A9
:100F76000DAF0000FF0D00FFFFFF37000005002149
:100F86000DAF0000FF0D03FFFFFF37000005002235
:100F96000DAF0000FF0D06FFFFFF37000005002321
:100FA6000DAF0000FF0D09FFFFFF3700000500240D
:100FB6000DAF0000FF0D21FFFFFF3700000300F615
:100FC600000000000000000000FFFF00000000001D
:100FD60000000000FF0D2DFFFFFF37000003009B00
:100FE60000000000FF0D30FFFFFF3700000300F197
:100FF600000000000000000000FFFF0000000000ED
:1010060000000000FF0D2DFFFFFF370000030070FA
:1010160000000000FF0D30FFFFFF3700000300F166
:10102600000000000000000000FFFF0000000000BC
:1010360000000000FF0D2DFFFFFF37000003009E9C
:1010460000000000FF0D30FFFFFF3700000300F136
:10105600000000000000000000FFFF00000000008C
:1010660000000000FF0B80FFFFFF371008010000A3
:101076000DB00000FF0B8FFFFFFF37103801000097
:101086000DB00000FF0B62FFFFFF3700000300F109
:10109600000000000000000000FFFF00000000004C
:1010A6000000170416610000FF0A69FFFFFF360003
:1010B600000B00F100000000000000FFFFFF3700FA
:1010C600000C00390DAF0000FF0A78FFFFFF360065
:1010D600000B00F100000000000000FFFFFF3600DB
:1010E600000C003A0DAF0000FF0A87FFFFFF360035
:1010F600000B00F100000000000000FFFFFF3600BB
:10110600000C003B0DAF0000FF0B62FFFFFF370036
:10111600000300F1000000000000000000FFFF00D7
:10112600000000000000170416610000FF0B71FFAD
:10113600FFFF37000003009B00000000FF0CD0FFFC
:10114600FFFF37000003009D00000000FF0B9EFF1D
:10115600FFFF3700000300F400000000FF0CC4FF8F
:10116600FFFF3700000B00F400000000FF0CC4FF77
:10117600FFFF3700000B00F400000000FF0CC4FF67
:10118600FFFF3700000B00F400000000FF0CC7FF54
:10119600FFFF3600000B00F4000000000000000016
:1011A60000FFFF00000000000000170516610000A8
:1011B600FF0CE5FFFFFF3700000700E408D2000040
:1011C600FF0CEBFFFFFF3700000700E609170000E2
:1011D600FF0D27FFFFFF3700000700EC095E000048
:1011E600FF0D21FFFFFF3700000300F500000000A0
:1011F6000000000000FFFF000000000000001704D0
:1012060016610000FF0CE2FFFFFF3711B40100007A
:1012160011B00000FF0CDCFFFFFF3700000700E104
:10122600087E0000FF0CDFFFFFFF3700000700E22B
:1012360008920000FF0D24FFFFFF370ED4010000C7
:101246000ED00000FF0D2AFFFFFF370E2C01000015
:101256000E280000FF0D21FFFFFF3700000300F5F9
:10126600000000000000000000FFFF00000000007A
:1012760000001705166100000000000000FFFF00D7
:10128600000000000000170416610000FF0AC9FFF5
:10129600FFFF3700000500960DAF0000FF0AD8FFDC
:1012A600FFFF3700000500950DAF0000FF0AE7FFBE
:1012B600FFFF3700000500970DAF0000FF0AF6FF9D
:1012C600FFFF3700000500990DAF0000FF0B05FF7B
:1012D600FFFF37000005009A0DAF0000FF0B62FF0D
:1012E600FFFF3700000300F10000000000000000CF
:1012F60000FFFF0000000000000017051661000057
:10130600FF0C79FFFFFF3700000700C1074C000004
:10131600FF0C88FFFFFF3700000700C2074C0000E4
:10132600FF0C97FFFFFF3700000700C3074C0000C4
:10133600FF0CA6FFFFFF3700000700C4074C0000A4
:10134600FF0B62FFFFFF3700000300F10000000003
:101356000000000000FFFF0000000000000017056D
:1013660016610000FF0C61FFFFFF3700000700CD8C
:1013760007A00000FF0C64FFFFFF3700000700CE48
:1013860007BF0000FF0C67FFFFFF3700000700CF15
:1013960007DE0000FF0B62FFFFFF3700000300F1CE
:1013A600000000000000000000FFFF000000000039
:1013B6000000170716610000FF0B23FFFFFF37131E
:1013C600040100000DB00000FF0C52FFFFFF3700C4
:1013D600000700C5078B0000FF0C6AFFFFFF370000
:1013E600000700C607FD0000FF0B32FFFFFF3700B6
:1013F600000700C708170000FF0B50FFFFFF37006C
:10140600000700C808500000FF0B41FFFFFF370030
:10141600000500C90DAF0000FF0B62FFFFFF37009C
:10142600000300F1000000000000000000FFFF00C4
:101436000000000000000204FF370D66000000FFF8
:10144600FF37FF129001009F128C0D6A000000FF0B
:10145600FF37FF0DB80100000DB40D6E000000FF50
:10146600FF37FF13BC01009F13B80D72000000FF89
:10147600FF37FF1130010000112C000000000000B2
:1014860000FFFF000000000000000000000000FF59
:10149600FF37FF1440010000143C0000000000006C
:1014A60000FFFF00000000000000000000640032A2
:1014B60000020034001A0001002C0016000000375C
:1014C600001C000000C70064002D00D20080000050
:1014D600000700030000003F0020002D00D200801E
:1014E6000000001F00100010007400420023008757
:1014F6000055FFB60022FFE8000000FF0080FF80D5
:10150600007F00000000000700030000007F00408D
:1015160011111171113B161A010201342C342C02DF
:101526004B323232323232324B32323211101314E3
:101536001570717472737071747273786300808041
:1015460000608080808020808080803B68F890905A
:1015560000608080808020808080800358F8A0A072
:10156600006080808080208080808003323232322A
:101576003232323232323232000A006000610062A8
:10158600006300660067006800B900FC13DBA67BF9
:101596000060000017481BDB807B00000000174836
:1015A6001EF2807C800001B6314826D58069000095
:1015B60000006FDF13D4A69100600000174821D405
:1015C600809100000000174813F28092800001B657
:1015D600344813DC807F00000000605A14008B7CC6
:1015E60001500000294814DC807C000000002948D6
:1015F60014F2807C800001B6294814DC805F00006C
:1016060000007B5A0C008B94015000002D480CDC26
:101616008094000000002D480CF28094800001B6F2
:101626002D480CDC807F00000000605A3AF680FBF3
:101636000050000026483AC380FB00000000264800
:101646003ACC80FB800001B626483AC380BE000033
:101656000000705A3FF98029045000002E483FC30D
:101666008029040000002E483FD08029840001B65E
:101676002E483FC380E800000000805A28A4806AF4
:1016860004500000165A2884806A04000000165A86
:101696002889806A84350035165A2884801C0400FF
:1016A60000006B5A23F98014045000001F5A23C807
:1016B6008014040000001F5A23F08014843501872B
:1016C6001F5A23C880E700000000565A20202049F0
:1016D6006E70757420203A202020202020202020A3
:1016E60020202020200020202053797374656D204F
:1016F6003A202020202020202020202020202000EA
:10170600202020482046726571203A202020202083
:10171600206B487A202020202000202020562046BA
:10172600726571203A20202020202020487A20202F
:1017360020202000202020462F57205265763A2070
:1017460020202020202020202020202020000000F3
:101756000000000000000000000000000000000083
:101766000000000000000000010202050503040459
:101776000404040404040404040404040404040423
:10178600040404032020201C2020202020202020C8
:101796002020002020202020202020202020002E75
:1017A600003A0001010101020202020205050505D7
:1017B6000503040404040404040403202020002078
:1017C6002020202020202020202000202020202033
:0717D600202020202020004C
:107503004100C3FF4100C4004100CA00C116C115B8
:107513004100B1004100C7004100CC004100CB0055
:077523004100BE00011E0043
:10433D009000AFE0FEA3E0F5828E83227E00900018
:10434D0011E09000105403FFEEF0A3EFF022900067
:10435D00257A007926E0FF7E007B0190002E124227
:10436D00787BFF22EE900010F0A3EFF02275F01095
:10437D0012424C740E93FB740F939000B2CBF0A3CA
:10438D00EBF08F828E83ED75F01012424C74099311
:10439D00FF740A939000AFCFF0A3EFF022900029A5
:1043AD00E024F1FF900028E034FFFE90002D024242
:1043BD005875F01012424C740D9322D3900011E0F9
:1043CD009400900010E09400227A1479C29000318C
:1043DD001242787A1479B02290001F124258900040
:1043ED000E12403EAAF0F97BFF90002D12427890FC
:1043FD00001F024258E0FDE4900035F0A3EDF022DD
:10440D00900010A3E0FD229000AFE0FEA3E0FFF5C9
:10441D00828E8322900028E0FEA3E0FF227E009092
:10442D0000CDEEF0A3EFF0229000AFE0FEA3E0FF91
:10443D00EE9000BFF0A3EFF0A322E0FF900010E498
:10444D00F0A322E0FEA3E0FF9000B2E0FCA3E0F5B4
:10445D00828C8322E0FEA3E0FF7B01900054740860
:10446D00F02290000BE090000DA4FFE5F08FF0021C
:10447D003FFD75F01012424C740E93FC740F93AA0D
:10448D0004F97BFF9000071242788F828E8322E41D
:10449D00900010F0A3F022FFE975F003A42416F5A7
:1044AD0082E43400F5832290000DE0FEA3E0FF903E
:1044BD0000B2E0FAA3E0F5828A83740393FDE493DE
:1044CD002274342DF582E43400F583227D017BFFC7
:1044DD007E007F0C023EE290004CE475F00112422A
:1044ED0061023F089000021242AD9000CAE075F0E3
:1044FD0003A4F58285F0830242ADF0A3EFF0D390D3
:10450D0014B07401939FEE6480F8E4936480982254
:10451D00FF900028E03400229000AFE0FEA3E0AA57
:10452D0006F97BFF2275F01002424CE0FD75F00A92
:10453D0084E5F0243022A3E475F001023FFDE0FE96
:10454D00A3E02DFDEE3CFCEDA4FBAAF0FF900018BE
:10455D00E0229014B2E493FE740193FF2290000DBB
:10456D00E4F0A3740EF022EFF090000FE022F0E0E3
:10457D00FF25E0241CF582E43415F583E49322F045
:10458D00EF25E0241DF582E43415F583E493227EB6
:10459D0000EEF0A3EFF022EEF0A3EFF0A3024278CD
:1045AD009000CFE0640122740E93FB740F93900082
:1045BD00B2CBF0A3EBF022EF54F8FFA3E054074F7A
:1045CD00FB7D177F8A22900011E02403F0900010EC
:1045DD00E03400F022C3900011E0940222FFE49336
:1045ED00FC740193FDC3EF9DFEE49C2290000BEE45
:1045FD00F0A3EFF0FD900011E0FF22E51E25E02471
:10460D00B6F582E43400F5832235F0FA7BFF900095
:10461D000BE0900054F022F583EEF0EF75F00A8474
:10462D00900032F0222440F582E43400F58322908C
:10463D0000CDA3E0FF22E0FFA3E09000BFCFF0A3E9
:10464D00EFF0227D177C00123F60EF22FFE08FF02C
:10465D00A4FF2290000D023F21A3E054074438FB34
:10466D007D787F8A22F090003AE004F022E0FF7E10
:10467D00007B017A00792722F0ED75F00A84900015
:10468D0008F022FBC3EF9BFFEE9400FEC322F9E47A
:10469D003AFA0242782FFFE035F0FAA9077BFF22A4
:1046AD00E024052FF075F0058422FFE4F0A3EFF070
:1046BD0022900013A3E0FF22FF7E007B017A007998
:1046CD0026229FEE6480F8EC6480982212425802F4
:1046DD003F0875F011A42442F9746622F582E43482
:1046ED0000F583EEF0227B017A00793B22E4FB7D1D
:0446FD009E7F8A22F0
:03000E0012A43AFF
:0100110022CC
:05634C00900012EFF0CB
:1063510012000E900017EFF0900012E0B401047FDC
:106361000180027FFF9000171246ADE5F012457BD8
:10637100FEFD900013E4F0A3EDF09000C8E0FDC332
:10638100900014E09DF0900013E09400F09000C89C
:10639100EE12458CFFFD900015E4F0A3EDF09000A6
:1063A100C9E0FDC3900016E09DF0900015E0940057
:1063B100F09000C9EFF09000187401F0900018E01F
:1063C100FFD39404506D12968EAD07AC0690001366
:1063D10075F00812454BF975F003A42417F582E412
:1063E1003400F583EFF0EA1244A4EFF0AF0112920A
:1063F100C1AC06AD0790001575F00412454B75F060
:1064010003A42418F582E43400F583EFF0EAC4F81C
:1064110054F0C8EBC4540F485470FF900018E0F9D1
:106421001244A6E04F1244A4EFF0900018E004F0EB
:106431000263BD129DC77DE07F8A129B23EF54EF5B
:106441001264AC9000187401F0900018E0FFD3942E
:10645100045031EF14FB7D9E7F8A129F8E900018AD
:10646100E075F003A42416F9740035F0FA7B01906D
:10647100005A7403F07DA07F8A129877900018E08B
:1064810004F080C57DE07F8A129B23EF44101264E3
:10649100AC900017E0FF12A3C9129DC7E4FB7D90E9
:0A64A1007F8A129F8E900017E0FF23
:0A64AB0022FB7DE07F8A129F8E2203
:10599D0090151CE4939000C8F090151DE4939000B1
:1059AD00C9F0E4FF12A3C97FB0125B167FA0125B92
:1059BD00167FA07E00129F689000FDEFF07FA11270
:1059CD005B1E7FA2125B1E7FBA125B2D7FA4125B42
:1059DD002D7FAB125B257FA3125B3C7FBB125B3C23
:1059ED007FA5125B257FA6125B347FA7125B347FE8
:1059FD00A8125B437D327F387E00129721900106FD
:105A0D007432F0E4FF126A9A7D327F377E0012976E
:105A1D00217D037FB27E001297217FBC125B437FF5
:105A2D00BD125B527FBE125B529000DDE0700FFD28
:105A3D007FAEFE1297217D017FAC7E00800E7D0D25
:105A4D007FAE7E00129721E4FD7FACFE129721E41C
:105A5D009000F0F07D027FAAFE1297217FA9125BC4
:105A6D0061E4FF1295AA7BFF7A00796612A2347D5C
:105A7D00337FA07E00129DF47FB2125B617FB31263
:105A8D005B4A7FB4125B4A7FB5125B597FB6125BDE
:105A9D0059126FE5E4FF12A3DB7D017FBF7E00127B
:105AAD0097217FBF7E00129F68EF24FF9206E4FDD1
:105ABD007FB8FE1297217FB87E00129F689000DAA2
:105ACD00EFF07D017FB77E001297217FB77E001228
:105ADD009F689000D7EFF07D027FB97E001297216D
:105AED007FB97E00129F689000D0EFF0E4FD7FAF8C
:105AFD00FE129721E49000E9F09000DC04F0FD7FA8
:105B0D00C57E001297210288AA7D017E0012972181
:105B1D0022E4FDFE129721227D017E0012972122A3
:105B2D00E4FDFE129721227D017E0012972122E4D1
:105B3D00FDFE12972122E4FDFE129721227D017EAA
:105B4D000012972122E4FDFE129721227D017E0095
:0B5B5D0012972122E4FDFE1297212286
:10A2CA0012A4429000CAEFF075F00584AFF0EFF0E7
:01A2DA002261
:10A1A700EFB401047F0180027FFF9000CA1246AD21
:0CA1B700AFF0EFF012A3DB9000CAE0FF55
:01A1C3002279
:058EBA00900014EDF032
:108EBF00EF75F003A42481FEE435F0A3F0A3CEF008
:108ECF00E4A3F0900017E0FFC39403504590001601
:108EDF00E02FFF900015E03400FE129F68900018FD
:108EEF0012459C7B017A00791A1243681243D612FD
:108EFF008100900017E02471FD90001AA3E0FF900D
:108F0F000014E02FFB7F8A129F8E900017E004F071
:028F1F0080B11F
:018F2100222D
:108C2500EFB401047F0180027FFF9000CEE02404B1
:108C3500FD9000CDE03400FCEF3395E0FEED2FFF15
:108C4500EC3EF0A3EFF07E009000CD124352FD7F85
:108C5500801297217F107E00129F687E007B017A2B
:108C65000079121243687A1479C81243DA12810026
:108C750012463C900012A3E0FD128EBA7F807E0062
:108C8500129F68EF64037B8A60047D3080027D3724
:0A8C95007F3C7E00129D0712463C52
:018C9F0022B2
:057E5B00900012EFF0A1
:107E6000ED9000CEB4010DE02401FF9000CDE03490
:107E700000FE800BE024FFFF9000CDE034FFFE9079
:107E80000013EE124507501512455F900014E09F55
:107E9000EE6480F8900013E06480984003027F0451
:107EA000900013E0FEA3E0FF12442C7B017A0079DE
:107EB000151243681243D6128100900012E0248A02
:107EC000FFE433FEA3A3E0FD1297217F107E001292
:107ED0009F6890001312459C7B017A00791712432A
:107EE000687A1479C81243DA128100900012E024F3
:107EF00071FD900017A3E0FF900015A3E02FFB7F1A
:077F00008A129F8E12463C1D
:017F07002257
:109212007D707F8A129B23EF54BFFB7D707F8A1281
:109222009F8E7D741292607D757F8A129F8E7D76ED
:109232001292607D717F8A129F8E7B807D727F8AFF
:10924200129F8E7B807D737F8A129F8E7D707F8AB4
:10925200129B23EF4440FB7D707F8A029F8E7B80AE
:089262007F8A129F8E7B80229F
:0672D10090001EEFF0FD2D
:1072D7007F0B7E0012972190001EE06403606CE430
:1072E700A3F0A3F090001FE0FEA3E0FFC3940FEE0E
:1072F70064809480503B90001EE0C454F02442F513
:1073070082E43415F583E5822FF582E5833EF58324
:10731700E493FB90001FA3E02432F58274153EF539
:1073270083E493FD7F8A129F8E90001F124544804D
:10733700B390001EE0C454F02451F582E43415F5EF
:0B73470083E4939000211246B78052AF
:10735200E4FF12A4691299777F0112A4691295F7CA
:107362007F0212A469AD07E4FF128CA07F0312A46E
:1073720069AD077F01128CA07F0412A469128D10DF
:107382007F0512A4697E00900023EEF0A3EFF07B4C
:10739200017A0079211243687A15790A1243DA12C6
:0273A200810068
:1073A400900021124666129F8E7D177F8A129B23BE
:0973B4009000211245C4129F8EC5
:0173BD0022AD
:03A482007F002236
:07A4690012A0AD12442A22EB
:05842C00900012EFF0CA
:10843100EDB401067E007F0180047EFF7FFF900086
:10844100CDE0FCA3E0FD2FFFEC3EFE9000131245B2
:1084510007501612455F900013E0FAA3E0FB9FEE70
:108461006480F8EA6480984003AF0522900012E02E
:1084710014601814601D14601A14602724FE602B08
:108481002406702DAF0312997780261246BE1295ED
:10849100F7801E900012E024FEFFA3A3E0FD128CE2
:1084A100A0800E1246BE128D1080061246BE128E9C
:1084B10051900012E0FFA3A3E0FD12A2A8900013C7
:0884C100E0FEA3E0FF12442CD1
:0184C9002290
:05997700900025EFF057
:10997C0012A47C900025E0BF010C1246C51243686E
:10998C007A1479F2800A1246C51243687A1479EC7B
:10999C001243DA1281009000D8E090151593FD90D7
:0A99AC000026A3E0FB7F8A029F8ED5
:0595F700900025EFF0DB
:1095FC009000D8E06404701712435B7A1479CE1291
:10960C0043DA128100900026A3E0FB7D74802212C5
:10961C00435B7A1479F81243DA12810012A482EFB8
:10962C009000266007A3E0FB7D3A8005A3E0FB7D5C
:06963C00107F8A129F8ED0
:019642002205
:108E51007E007B017A0079151243687A1479E61253
:108E610043DA1281007DFF7F8A129B23900017EF66
:108E7100F0E47DFF128EB37DBE7F8A129B23EF54F7
:108E8100CF44107DBE128EB37DC47F8A129B23EF27
:108E91005480FD900015E0A2E713A3E0134DFB7D84
:108EA100C47F8A129F8E900017E0FB7DFF7F8A02AC
:028EB1009F8E92
:078EB300FB7F8A129F8E2253
:058D1000900025EFF0CA
:108D15009000D8E06404702A9000257A0079261224
:108D250043627A1479DA1243DA1281007D707F8A00
:108D3500129B23EF54C0FF900026A3E04FFB7D70EC
:108D4500802F900025E0FF7E007B017A00792612B6
:108D550043687A1579041243DA12810012A482EF6E
:108D65009000266007A3E0FB7D3E8005A3E0FB7D28
:068D7500157F8A129F8E9B
:018D7B0022D5
:088CA000900025EFF0A3EDF0B8
:108CA80012A482EF603012467A1243687A1579105E
:108CB8001243DA128100900025E0243CFD7F8A12DD
:108CC8009B23EF5480FF900027A3E02FFB90002503
:108CD800E0243CFD802C90002612467A1243687AE4
:108CE8001479FE1243DA1281009000D8E090002532
:108CF800B40405E024728003E02413FD900027A348
:078D0800E0FB7F8A129F8E41
:018D0F002241
:05824900900012EFF0AF
:10824E007D787F8A129B23EF5407540F90001512EE
:10825E0046B7900012E0B401047F0180027FFFEF69
:10826E003395E09000158FF0123FFD90150A1245E0
:10827E0062900015E0FCA3E0FDC31246CF400D90C6
:10828E00150C124562D3ED1246CF400412463C2225
:10829E00AF057E007B017A0079131243687A147958
:1082AE00B09000311242787A15790A12810090004E
:1082BE0015124666129F8E7D177F8A129B239000A1
:1082CE00151245C4129F8E900013A3E0FD7F051278
:0D82DE00A2A8900013E0FEA3E0FF12442CC4
:0182EB002270
:108F22009000D8E090000AF09000D87401F0900010
:108F3200D8E0FFC394075030EFB40413E490000963
:108F4200F0900009E0901578128F7740F48011E4D8
:108F5200900009F0900009E0901572128F7740F4AA
:108F62009000D8E004F080C690000AE09000D8F0AB
:058F72007F030272D133
:108F7700FF93FD12A2A8900009E004F0E0C3940655
:018F870022C7
:107CED0090001EEFF0D39403400B7F01127CED90BA
:0D7CFD00001E7401F090001EE09000E1F008
:107D0A0012A476EF6401601E12A476EF6404601672
:107D1A0012A476EF6405600E12A476EF640760067B
:107D2A0012A476EF700F90001EE075F00AA4249258
:107D3A00F97415800D90001EE075F00AA424BAF9B2
:107D4A00741535F0FA7BFF900021124278129DC714
:107D5A00E490001FF0A3F090001FE0FEA3E0FFC331
:107D6A00940AEE64809480502FEF25E0FFEE33FEF4
:107D7A00747E2FF58274153EF583740193FD90008D
:107D8A00211246D9FB7F8A129F8E90002212454407
:087D9A0090001F12454480BF58
:087DA2009000E1E0FF02A3C024
:109E2100E51EC3940450229000BFE0FEA3E0FF12A0
:109E31004608EEF0A3EFF09000C2E0FFAE1E051E53
:0C9E4100741A2EF8A6077F01227F002271
:10A1E100E51E6015151E124608124643741A251EF7
:0CA1F100F8E69000C2F07F01227F0022FF
:1097680090001D124278900020EDF0BDFF037FFFAE
:1097780022900020E004F0E075F010A4FF90001D96
:10978800124258E92FF9EA35F0FA900007123F2102
:10979800B4FF0C900008123F21B4FF037FFF229012
:0597A8000020E0FF229B
:09A40800EFB4FF037FFF221F22C5
:0298B800AC07FB
:1098BA009000AFE07002A3E06004E4FE80027EFF45
:1098CA00EEF460289000AFE0FAA3E0FBF5828A8309
:1098DA0075F010EE1243C1540FB50403AF0622A966
:0E98EA00037BFFAD06129768AE0780D4AF0671
:0198F800224D
:1061DF0090000A7401F0129E219000AFE0FFA3E03F
:1061EF00CF12443EE0A3F09000CFE004F0E4900023
:1061FF00AFF0A3F09000C174FFF07F01125B687BDA
:10620F00737D327F257E00129D07E4900009F09088
:10621F000009E075F01AA424D2F582E43416F58350
:10622F00E493603C90000AE0FF900009E0FB2FFF31
:10623F00E433FE124650240EFDE43EFCEB75F01ADB
:10624F00A424D2F9741635F0FA7BFF90005474171A
:10625F00F0AF05AE04129CA3900009E004F080AFEC
:10626F0012A47C9000097401F0900009E0FE75F013
:10627F001190664112424CE4936F6008900009E060
:10628F0004F080E5EE1246DF126316241AFDE43E99
:10629F00FC900009E01246DF124616AF05AE04125D
:1062AF009CA31263331263162431FFE43EFEC00633
:1062BF00C007126333124616D007D006129CA37F75
:1062CF0004126341243090000CF0A3742EF07F056C
:1062DF00126341E0FDC4540F243090000EF0ED54D2
:1062EF000F2430A3F0E4A3F090000AE0FF7E001229
:1062FF0046502448FFE43EFE7B017A00790C900063
:07630F00547404F0029CA38A
:1063160035F0FA7BFF12A21990000BEFF090000AFD
:10632600E0FF7E007C007D17123F60EF221291B9DC
:10633600EF75F011A42497F97466227E00129F6807
:06634600900009EFF022B7
:0585F300900008EFF00C
:1085F80078097C007D017BFF7A1779757E007F18EA
:10860800123EE2900008E0C394645030E0FF75F039
:108618000584E5F090176E93FEEF75F00584FF244E
:10862800091246E9EF04FFEFC39414500F90176E38
:10863800E493FE74092F1246E90F80EB900009E0DD
:10864800B401037402F0900008124538900020121B
:10865800468512453890001F1246852430FF900049
:108668001EF0BF30037420F07FE17E007B017A00AA
:0B86780079099000547418F0029CA3D4
:109D680090000874FFF0EF24D1700A12A47C9000D0
:109D780009EFF080037F0022900009E0FF1298B8F5
:0F9D8800900008EFF0BFFF02E4F0900008E0FF4A
:019D970022A9
:0647010090001D1245A40A
:104707009000C5E0B40309E4900028F0A3F0800608
:1047170090002812456D9000B2124340E493900038
:1047270023124659900022E0FD900029E02DFD124A
:10473700451ECD2FFEED35F0F0A3CEF01243FC90D1
:104747000007123F21FFF460211243FC900027EF7E
:10475700F0124013AAF0F97BFF124A84FD1244219C
:10476700124A6F900022E02402F07B8A7D377F2572
:104777007E00129D071243FC900008123F21F4604F
:10478700701243FC1244F1124A84E4FFA3F0900034
:1047970025E0FDEFC39D501F90002A1242588F82DB
:1047A700758300123F21FEF46004EEB4FE0690000C
:1047B70026E004F00F80D7124421124A6F9000269A
:1047C700E0FD900025E0C39DC3940F501AE0FCFF65
:1047D700900029E02F12451DFEED124690740F9CA4
:1047E700FCED2CFD129DF4900028E475F00F123FAC
:1047F700FD9000CFE0C39403500B900024E06401C8
:1048070070030249941243FC90000B123F2112429D
:10481700DD497801497802497803483A044849054F
:10482700495D0749780A49850B48640C497A1000A5
:10483700004994124660FF125581AD0712442102C8
:02484700766099
:104849001243E5124660FF125581900035EEF0A340
:0B485900EFF01244211243B802495A4C
:104864001243E512466024C6603014700302493ACC
:10487400240260030249941243AA90006C124995E1
:1048840024F51243B090006D1249C490006E124A90
:104894000390006F12440202495A1243AA90007016
:1048A400124402124A7C24F4124A4224F51243B000
:1048B400900071124402124A7C24F8124A4224F9EC
:1048C4001243B09000721244021278EA900029E078
:1048D40024FCFF900028E034FF124A5E900029E097
:1048E40024FD1243B09000731244021278EA124479
:1048F400217BFF7A1779A79000547401F0129CA3CE
:10490400900029E0240112451D1243B7900074124F
:1049140044021278EA900029E0240412451D124A48
:104924005E900029E0240512451D1243B7900075DE
:1049340012440202495A1243AA900076124995245D
