:10380B006873636F6D20312031206368303A312546
:10381B00316278206368313A3025316278206368F1
:10382B00323A3025316278206368333A3025316281
:10383B00780A0D006873636F6D2031203120636847
:10384B00313A3125316278206368303A3025316264
:10385B0078206368323A3025316278206368333AD6
:10386B0030253162780A0D006873636F6D2031204B
:10387B0031206368323A256278206368303A30250C
:10388B00316278206368313A302531627820636881
:10389B00333A30253162780A0D006873636F6D20FF
:1038AB00312031206368333A3125316278206368E7
:1038BB00303A3025316278206368313A30253162F5
:1038CB0078206368323A30253162780A0D006873CC
:1038DB00636F6D20322032206368303A31253162BC
:1038EB0078206368313A3025316278206368323A48
:1038FB003025316278206368333A30253162780A9B
:10390B000D006873636F6D20322032206368323A8A
:10391B00256278206368333A3125316278206368F9
:10392B00303A3025316278206368313A3025316284
:10393B00780A0D006873636F6D2032203220636844
:10394B00303A3025316278206368333A3125316261
:10395B0078206368313A3025316278206368323AD7
:10396B0030253162780A0D006873636F6D20322049
:10397B0032206368333A3125316278206368313AFB
:10398B003025316278206368303A302531627820F7
:10399B006368323A30253162780A0D006873636FC1
:1039AB006D20332031206368333A31253162782022
:1039BB006368303A3025316278206368313A3025BC
:1039CB00316278206368323A30253162780A0D0013
:1039DB006873636F6D20332033206368303A302572
:1039EB00316278206368313A302531627820636820
:1039FB00333A3125316278206368323A30253162AF
:103A0B00780A0D006873636F6D2033203420636870
:103A1B00303A3025316278206368313A3025316293
:103A2B0078206368333A3125316278206368323A03
:103A3B0030253162780A0D006873636F6D20342076
:103A4B0031206368303A3025316278206368313A2F
:103A5B003025316278206368323A30253162782024
:103A6B006368333A31253162780A0D006873636FEE
:103A7B006D20322032206368303A31253162782054
:103A8B006368323A3025316278206368313A3025E9
:103A9B00316278206368333A30253162780A0D0041
:103AAB006873636F6D20322032206368323A25626F
:103ABB0078206368313A3025316278206368303A78
:103ACB003025316278206368333A30253162780AC9
:103ADB000D006873636F6D20332033206368333AB6
:103AEB003125316278206368303A30253162782095
:103AFB006368313A3025316278206368323A302579
:103B0B003162780A0D006873636F6D2032203220AA
:103B1B006368333A3125316278206368323A302555
:103B2B00316278206368313A3025316278206368DE
:103B3B00303A30253162780A0D006873636F6D205F
:103B4B00332031206368333A312531627820636842
:103B5B00303A3025316278206368323A3025316251
:103B6B0078206368313A30253162780A0D0068732A
:103B7B00636F6D20332031206368333A3125316216
:103B8B0078206368313A3025316278206368323AA5
:103B9B003025316278206368303A30253162780AFB
:103BAB000D006873636F6D20332033206368333AE5
:103BBB003125316278206368303A302531627820C4
:103BCB006368323A3025316278206368313A3025A8
:103BDB003162780A0D006873636F6D2033203320D8
:103BEB006368333A3125316278206368313A302586
:103BFB00316278206368323A30253162782063680D
:103C0B00303A30253162780A0D006873636F6D208E
:103C1B00332033206368303A312531627820636872
:103C2B00313A3025316278206368323A302531627F
:103C3B0078206368333A30253162780A0D00687357
:103C4B00636F6D20332033206368303A3025316247
:103C5B0078206368323A3025316278206368333AD2
:103C6B003125316278206368313A30253162780A28
:103C7B000D006873636F6D20322032206368313A18
:103C8B003125316278206368303A302531627820F3
:103C9B006368323A3025316278206368333A3025D5
:103CAB003162780A0D006873636F6D203220322009
:103CBB006368313A3125316278206368323A3025B6
:103CCB00316278206368333A30253162782063683B
:103CDB00303A30253162780A0D006873636F6D20BE
:103CEB00322032206368313A3025316278206368A4
:103CFB00333A3125316278206368323A30253162AC
:103D0B0078206368303A30253162780A0D00687389
:103D1B00636F6D20332033206368313A3125316274
:103D2B0078206368303A3025316278206368323A04
:103D3B003025316278206368333A30253162780A56
:103D4B000D006873636F6D20332033206368313A45
:103D5B003025316278206368303A30253162782023
:103D6B006368333A3125316278206368323A302503
:103D7B003162780A0D006873636F6D203320332036
:103D8B006368313A3025316278206368323A3025E6
:103D9B00316278206368333A312531627820636869
:103DAB00303A30253162780A0D006873636F6D20ED
:103DBB00322032206368323A256278206368303AC9
:103DCB003025316278206368313A302531627820B2
:103DDB006368333A30253162780A0D006873636F7C
:103DEB006D20322032206368323A25627820636876
:103DFB00313A3025316278206368333A30253162AD
:103E0B0078206368303A30253162780A0D00687388
:103E1B00636F6D20322032206368323A256278203E
:103E2B006368333A3125316278206368313A302543
:103E3B00316278206368303A30253162780A0D00A0
:103E4B006873636F6D20332033206368323A2562C9
:103E5B0078206368303A3025316278206368313AD4
:103E6B003025316278206368333A30253162780A25
:103E7B000D006873636F6D20332033206368323A13
:103E8B00256278206368303A302531627820636888
:103E9B00333A3125316278206368313A302531620B
:103EAB00780A0D006873636F6D20332033206368CD
:103EBB00323A256278206368313A302531627820B6
:103ECB006368333A3125316278206368303A3025A4
:103EDB003162780A0D000D0A507265762E46573AFC
:103EEB0025303478000D0A437572722E46573A25E9
:103EFB00303478000D0A5B4D53475D6D61696E5F21
:103F0B00696E697428293D3E2072657620213D201B
:103F1B00465756455220262063616C6C20436C65D6
:103F2B0061724261736963454528290D0A000D0AC8
:103F3B0043616E6E6F7420616363657373204545D7
:103F4B0050524F4D21212121000D0A4E6F20696ED9
:103F5B00697469616C697A65005457383831360079
:103F6B005457383831364200545738383137004EB1
:103F7B006F7468696E67202D2D3078253032780D7F
:103F8B000A00436865636B20616761696E202D2DA4
:103F9B003078253032780D0A004C617374204368F9
:103FAB0065636B202D2D3078253032780D0A00FF9C
:103FBB00380BFF383FFF3873FF38A5FF38D9FF396F
:103FCB000DFF393FFF3973FF39A7FF39DBFF3A0F7D
:103FDB00FF3A43FF3A77FF3AABFF3ADDFF3B11FF66
:103FEB003B45FF3B79FF3BADFF3BE1FF3C15FF3C06
:103FFB0049FF3C7DFF3CB1FF3CE5FF3D19FF3D4DCB
:10400B00FF3D81FF3DB5FF3DE7FF3E19FF3E4BFFF7
:10401B003E7DFF3EAF2D2D2D3E2050616E656C3ADF
:10402B0020575647412D3830302A343830202D2D2B
:10403B00205449434F4E4C45535320485320376926
:04404B006E63680038
:107AC900012D00013000C10DC10C02310000012F50
:107AD90000024C000041013F01C10EC10F410142AA
:107AE90000410140004101430044014400000000FD
:10B23600ED90001DF090001BE090001E2290001B78
:10B24600E090001DF022EBA3F090001CE090001FA0
:10B2560022FFEA33FE7C007D14124713744E2DF84C
:10B26600E62290001CE0A3F0A32290001DF09000BF
:10B276001CE090001E22900028F0A3EFF07BFF2236
:108505007B107DE07F8A12BE6A12AD4C900000EEB2
:1085150012B27F7A3E79E1900028EEF0A3EFF012D7
:10852500BDD012AD4CEF64107003EE640260287B81
:10853500FF7A3E79F09000287402F0A37410F012CF
:10854500BDD07F107E0212B65812AD4CEE12B27C31
:108555007A3E79F012BDD012AD4CEF64107003EE87
:1085650064027033900000E064027004A3E06410BC
:10857500601B900100E0FF12C2B77F0112C2DB123F
:10858500BDA97BFF7A3E79FF12BDD0802C12C32B8B
:10859500900100EFF080227BFF7A3F793912BDD040
:1085A5007BFF7A3F795412BDD090010074FFF07FB4
:1085B5000112B9FDE4FF02A3607F087E0012BE44EC
:1085C50090010CEFF06004E0FF80027F0112B9FD1D
:1085D50012A3E99000FB74FEF012AEC512BA6F7FCC
:1085E50006128CDD7F0A12C15D12C22D7DFF128637
:1085F500177D82128617E4FB7DFF7F8A12BE6A7B98
:10860500FF7DD07F8A12BE6A7BFF7DD17F8A12BE35
:018615006AFA
:09861600227B017F8A12BE6A2258
:10B2D60075F68775F65975BF10E4F5F6758DF47534
:10B2E6009850758922758855758A40758C40758782
:10B2F6008075B80275A892D299D2ACF5C8C2CAD2E6
:10B30600AD75AA5075BAF443A61843AD10C20F75B1
:0FB31600DE4243D840F5B175B220F54AF5492221
:03000B00027C274D
:0B7C2700C0E0C083C082C0D075D00850
:107C3200054B900141E0600214F0900141E0703385
:107C4200E5A05460C4135403FF900147E06F602322
:107C5200900145E0900144F0900146E0900145F02A
:107C6200900147E0900146F0A3EFF0D2109001415D
:107C72007430F0E54BD394605003027D7A0534E50D
:107C82003470020533754B00052FE52F64646003E1
:107C9200027D3290010BE094FF5003E004F0E565B1
:107CA2002401FFE43564FEE43563FDE435628F654B
:107CB2008E648D63F562752F009000F2E0D394011B
:107CC2004003E014F0900171E0D394014003E0140A
:107CD200F0900069E004F090014BE0D3940040037F
:107CE200E014F0301106900140E004F030040690F8
:107CF2000143E004F0900069E0B43C08E4F0900035
:107D02007CE004F090007CE0B43C08E4F090008851
:107D1200E004F0900088E0B41808E4F0900087E0F6
:107D220004F0E5309001426005E004F08002E4F0E6
:107D3200E54DF47003E54CF46008054DE54D700225
:107D4200054CE5A0F4549C6029E52DB4030DE5A093
:107D5200F4549CF530C20CD20D8013E52DB4640EA0
:107D6200E5A0F4549CF530D20CD20D752D50052DA2
:087D72008006752D007530003C
:097D7A00D0D0D082D083D0E032D9
:10C02500E4F565F564F563F562900100F07F64124F
:0EC03500C15DC22112C2FFD2B47F0102C15D03
:10A2D500E4FD7F8A12B98BEF24DE601024D9601467
:10A2E500242870197BFF7A3F7964800E7BFF7A3FC3
:10A2F500796B80067BFF7A3F797302C14212A341D5
:10A305007A3F797A12BDD012C2A1EF701B12A34118
:10A315007A3F798D12BDD012A353EF60EAE4FD7F39
:10A325008A12B98BEFF460DF7F6312C15D12A3530C
:10A33500E412B27C7A3F79A412BDD022E4FD7F8A73
:10A3450012B98B900028E4F0A3EFF07BFF227F6326
:0BA3550012C15DE4FD7F8A12B98B226B
:10C04300EFB4010553E8FE8011EF700743E8015395
:0EC05300E8FD22EFB4020643E80143E80222B2
:03001300020026C2
:03002600C2AA3239
:0300230002BB130A
:10BB1300C0E0C0D075D00830981EC298AF99743574
:10BB23002549F8EFF6744E2549F8A60F0549E5496E
:10BB3300C394144003754900309904C299C20ED0CE
:04BB4300D0D0E0324C
:0300630002BBAE2F
:10BBAE00C0E0C0D075D008E5AA30E01653AAFE74E6
:10BBBE0025252EF8A69A052EE52EC394084003756A
:10BBCE002E00E5AA30E10553AAFDC20FD0D0D0E079
:01BBDE003234
:0BC2A100E549B54A037F00227F01221F
:08000300200EFD8F99D20E22A0
:08C32300200FFD8F9AD20F22BA
:03002B0002C1F11E
:0FC1F100C0E0C2CF0532E53270020531D0E03236
:10C15D00E52F2FFFE433FE7C007D64124713E52F9E
:07C16D00B505FBE4B504F782
:01C1740022A8
:10B86000900025E4F0A3E52FF0E47B3CFAF9F8AF73
:10B8700065AE64AD63AC621248CEAC00AD01AE0201
:10B88000AF03E47B64FAF9F8124843900025EE8F89
:0CB89000F012479E900025E0FEA3E0FFB0
:01B89C002289
:10BF8A00C3ED9FEC9E5010C374709FFF74179EFE02
:0FBF9A00EF2DFFEE3CFE22C3ED9FFFEC9EFE223B
:08B53E00900025EEF0A3EFF0F0
:10B54600900025E07002A3E06035E4900027F0A3A8
:10B55600F0900027E0FEA3E0FFE4FCFD7BD8FAF9BB
:10B56600F8D3124960400C900027E475F0011247A9
:0FB576009E80DE90002574FFF5F012479E80C185
:01B5850022A3
:05631900900018EFF0F8
:10631E00ED4410FDEB4410FBEF64056012E0FF64EA
:10632E0020600CEF6421600790001BE04410F09099
:10633E00001CE04410F0900018E0124A8B63B50088
:10634E0063B70163C00263C70363CD0463DE0563F5
:10635E00E10663EA0763C708640A09640A0A63B5BB
:10636E000B63F30C63FB0D63C70E64190F642710E8
:10637E0064321164271264321363CD1464401563C2
:10638E00B716644A1764531863B71964601A644ADF
:10639E001B63C01C64741D63DE1E63C01F648B20F0
:1063AE006474210000649C801690001DEBF0A3ED38
:1063BE00801412B243A3ED802F12B268ED801890B4
:1063CE00001DEDF0A3EBF090001BE090001F802568
:1063DE00026480ED12B270F0A3EB802812B268EB6B
:1063EE00F0A3ED801F12B236F0A3EB800812B24379
:1063FE00A3EBF0A3EDF090001C02646D90001DED78
:10640E00F012B24CF090001B02646D90001CE0A3E1
:10641E0012B23AF0A3EB02647A12B268EDF0900079
:10642E001B02649412B268EBF090001BE090001F08
:10643E00803A12B236F090001C026494EB12B2371E
:10644E0012B24E8027EB12B270F0A3EDF090001B4B
:10645E00800D90001DEBF0ED12B24DF090001BE0A0
:10646E00900020F0802812B24312B24CF0A3EDF04F
:10647E00801C12B24312B274F0A3ED800D12B2431F
:10648E00A3EDF090001CE090001FF0A3EBF0E49061
:10649E000021F0900021E0FFC394145011744E2F90
:1064AE00F8E4F674352FF8E4F6E004F080E5900099
:1064BE00FBE06403700C900139E0700612654F0228
:1064CE00654CE4900022F012654F12B860900023E4
:1064DE00EEF0A3EFF012B860C3900024E09FFF909F
:1064EE000023E09EFE12C295C3EF9428EE648094C2
:1064FE008040E2E4900021F0900021E0FFC394146C
:10650E005029744E2FF8E664417018E0FB7A00248F
:10651E000112B257B4430CEB240212B257B44B0320
:10652E007F0122900021E004F080CD7FC87E001212
:10653E00B53E900022E004F0E0C3940340897F0052
:10654E0022900018E0FF3395E0FE903FBA75F003FD
:10655E00EF1249FAEE75F003A42583F583124A2F44
:10656E0090001DE0900028F090001EE0900029F0B1
:10657E0090001FE090002AF0900020E090002BF099
:04658E0012BDD02248
:109F7B000D0A2B2B28436C6561724F5344496E6657
:109F8B006F293A20446973706C617965644F53444F
:109F9B003A2532780020000D0A5B4D53475D44692A
:109FAB0073706C6179496E7075742829203D3E2061
:109FBB0053656C6563744D6F6465547970653D4191
:109FCB00564D6F646520746F207365742074696DD2
:109FDB0065202620646973706C6179686F6C645FAF
:109FEB00666C61673D256278002020205457383815
:109FFB003036202020005465636877656C6C2C49E3
:03A00B006E630081
:047AF90041016F00D8
:0FC20F0075F011A4248FF9748035F0FA7BFF22AB
:0CC2710090016FE0FEEFF4FFEE5FF022A2
:07C3630090016FE04FF02292
:06C3710090016FE0FF22C5
:10B18C0012C37190001CEFF012C371900028E4F010
:10B19C00A3EFF07BFF7A9F797B12BDD090001CE06F
:10B1AC00FF20E20330E70512BE1EC20790001CE030
:10B1BC0030E00312C20090001CE030E40312C175B1
:10B1CC0090001CE030E10312B91690001CE030E650
:04B1DC000312C22D6B
:01B1E000224C
:1093C90090001B74C2F012B18C7BFF7A86799612D9
:1093D9009C627DFF7FA07E0012BCFC7BFF7D327FFB
:1093E900A07E0012BBDFE490001AF090001AE0FFA3
:1093F900C394F050197E007BFF7A9F79A0900054A6
:109409007401F012BB7B90001AE004F080DD90013A
:109419006FE04410F012C37DEF6401607790001A89
:109429007401F090001AE0FE75F01190808E1249D7
:10943900FAE4936F600890001AE004F080E5EE12F8
:10944900C20F12C127900019EFF0A3E012C20F90CA
:109459000019E0900054F07FA07E0012BB7B7FA32F
:109469007E0012BE44BF01199000EEE07013900017
:10947900F27405F07BFF7A9F79A2900028F012BD63
:10948900D07D017F0212B69C7F0112BCA012B86088
:049499008E7A8F7BBD
:01949D0022AC
:10C17500E4FF12BCA0E4FD7F0212B69C90016FE0C3
:06C1850054EFF07F0122DF
:109632007DFF1296E77D821296E7E4FB7DFF7F8A2B
:1096420012BE6A90016FE020E27C12B18C7F0A1296
:10965200C15D7BFF7A877918129C627D327FC87E5A
:109662000012BCFC7B197D377FC87E0012BBDF7BFA
:10967200197D737FDD7E0012BBDF12C1BF75F0035F
:10968200EF900AE61249FA124A2FAE02AF01900099
:1096920006EEF0A3EFF07BFF12C127900006E0FC7C
:1096A200A3E0AA04F97BFF900054EFF07FC87E008C
:1096B20012BB7B7D017F0112B69CE4FD7F0412B6D2
:1096C2009C7F0112BCA0301B0590017480039001A5
:1096D20073E0FF129EE090016FE04404F012B86064
:0496E2008E7A8F7B72
:1096E600227B017F8A12BE6A7F057E0012B53E226A
:0FC20000E4FD7F0212B69C90016FE054FEF02225
:109E4400E4900006F012C371900005EFF054967090
:109E540003029EDDE030E11512C308900001EEF02C
:109E6400A3EFF0A37407F0A374D0F0801190000165
:109E7400E57AF0A3E57BF0A3E4F0A374C8F012B88C
:109E840060AD07AC06900001E0FEA3E0FF12BF8ABC
:109E9400D3900004E09F900003E09E503C900005A6
:109EA400E05484600D12BE1E900006EFF01293C9B8
:109EB400C207900005E030E11D12B916900006EFCC
:109EC400F07FA37E0012BE44BF01069000F274032B
:0B9ED400F01293C9C2077F01227F003B
:019EDF002260
:10BE1E0090016FE030E20A7F0112BE3A54FBF080CF
:10BE2E00087F0212BE3A547FF07F0122E4FD12B663
:06BE3E009C90016FE02260
:10AD4C00E4FFFE12BE44EF6454600280287F017E53
:10AD5C000012BE44EF64576002801A7F027E00121C
:10AD6C00BE44EF64386002800C7F037E0012BE4448
:10AD7C00EF64386004E4FEFF227F047E0012BE44C0
:10AD8C00EF900002F0A3E4F07F05FE12BE449000A9
:10AD9C0002E0FEA3E04FFF900002EEF0FEA3EFF006
:01ADAC002284
:10B65800900002EEF0A3EFF07D54E4FFFE12B586F1
:10B668007D577F017E0012B5867D387F027E0012ED
:10B67800B5867D387F037E0012B586900002E0FD16
:10B688007F047E0012B586900002A3E0FD7F057E50
:04B698000002B58671
:08C32B007F067E0012BE4422D1
:09C2B700AD077F067E0002B5868A
:08C333007F097E0012BE4422C6
:09C2C000AD077F097E0002B5867E
:07C33B007F0A7E0012BE44E0
:01C3420022D8
:10A3E900E4900003F0900002F0900002E075F01193
:10A3F9009080E31249FAE493124A8BA42000A42C1A
:10A4090001A43502A43E03A44704A45005A4590697
:10A41900A462070000A469900003E0FD7F0A7E00A2
:10A4290002B586900003E04401F08034900003E017
:10A439004402F0802B900003E04404F08022900055
:10A4490003E04408F08019900003E04410F0801004
:10A45900900003E04420F08007900003E04440F0BE
:08A46900900002E004F0808184
:07C343007F0D7E0012BE44D5
:01C34A0022D0
:09C2C900AD077F0D7E0002B58671
:0AC2AC00EF2412FFE433FE12BE443B
:01C2B6002265
:09C2D200EF2412FF7E0002B58684
:09C2DB00AD077F0F7E0002B5865D
:07C34B007F0C7E0012BE44CE
:01C3520022C8
:09C2E400AD077F0C7E0002B58657
:08C353007F387E0012BE442277
:09C2ED00AD077F387E0002B58622
:08C35B007F377E0012BE442270
:09C2F600AD077F377E0002B5861A
:10BDA900E4FD7FADFE12B586E4900102F0FD7F0847
:10BDB900FE12B586E4FD7F0EFE12B586126C1612D0
:07BDC900AC837F01028DBF76
:10C061009291D290120012C29022124A068E8275CB
:0EC0710083001246C2FF22EFF0A3EDF0A322DF
:0BB58600900028EEF0A3EFF0A3EDF022
:10B59100900028E0FEA3E07807CEC313CE13D8F9BC
:10B5A10044A054FE90002BF012C18B90002BE0FFC1
:10B5B10012AB4B900028A3E0FF12AB4B90002AE0A6
:0CB5C100FF12AB4B1200167F0202C15DAE
:04BE4400AD07AC0694
:10BE4800ED7807CEC313CE13D8F944A054FEFF12E1
:10BE5800B98B900033EFF07F0212C15D900033E0A0
:01BE6800FFDA
:01BE690022B6
:08B98B00900034EFF0A3EDF091
:10B9930012C18B900034E0FF12AB4B900035E0FFF7
:10B9A30012AB4B12C18B900034E04401FF12AB4B3E
:10B9B30012BC10900036EFF0120016900036E0FF34
:01B9C3002261
:10BE6A0090005512C078EBF012C18B900055E0FF9C
:10BE7A0012AB4B900056E0FF12AB4B900057E0FF1D
:06BE8A0012AB4B02001692
:08B8220090003412C078EBF035
:10B82A0012C18B900034E0FF12AB4B900035E0FF61
:10B83A0012AB4BE4900038F0900037E0FFA3E0C36E
:10B84A009F5010900036E0FF12AB4B900038E00496
:06B85A00F080E50200167B
:09B7220090005512C078124A266D
:10B72B0012C18B900055E0FF12AB4B900056E0FF1F
:10B73B0012AB4BE490005BF090005AE0FFA3E0FEED
:10B74B00C39F501190005712C06B12AB4B90005B14
:08B75B00E004F080E302001697
:09B9C400900021EFF0A3124A26C5
:10B9CD0012C18B900021E0FF12AB4BE4900026F0EA
:10B9DD00900025E0FFA3E0FEC39F501190002212BE
:10B9ED00C06B12AB4B900026E004F080E302001612
:0100120022CB
:10C18B00D291120012D290120012C291120012C25E
:02C19B009022F0
:0D001600C291120012D290120012D291225B
:10AB4B00C290EF30E703D38001C312C061EF30E650
:10AB5B0003D38001C312C061EF30E503D38001C37F
:10AB6B0012C061EF30E403D38001C312C061EF3038
:10AB7B00E303D38001C312C061EF30E203D3800142
:10AB8B00C312C061EF30E103D38001C312C061EF88
:10AB9B0030E003D38001C312C061C290C290D29146
:09ABAB00D290D290D290C2902207
:10BC1000E4FFD291120012C290FDFCD290EF25E019
:10BC2000FF3091034401FFC2900DBD00010CED6493
:0FBC3000084C70E7120012D290D290D290C290BE
:01BC3F0022E2
:106E03000D0A504F52000D0A4D454E55000D0A49CB
:106E13004E000D0A5550000D0A444E000D0A53450D
:106E23004C000D0A4552524F52000D0A504F574520
:106E330052206B657920000A0D627573772030202C
:106E4300312037452038300D0A000A0D62757377FB
:106E5300203020312037452038310D0A000A0D62D9
:106E6300757377203020312037452038320D0A00E2
:106E73000A0D62757377203020312037452038336F
:106E83000D0A000A0D6275737720302031203745D3
:106E93002038340D0A000A0D6275737720302031D3
:106EA3002037452038350D0A000A0D6275737720A7
:106EB3003020312037452038360D0A000A0D62751F
:106EC3007377203020312037452038370D0A000AE8
:106ED3000D62757377203020312037452038380D07
:106EE3000A000A0D62757377203020312037452060
:106EF30038390D0A000A0D6275737720302031206E
:106F030037452038410D0A000A0D6275737720302A
:106F130020312037452038420D0A000A0D6275736F
:106F230077203020312037452038430D0A000A0DE1
:106F330062757377203020312037452038440D0A9D
:106F4300000A0D62757377203020312037452038D1
:106F5300450D0A000A0D6275737720302031203702
:106F6300452038460D0A0054726967676572466C9E
:106F730061673D2530327820205072696F726974E1
:106F8300793D25303278000D0A4D454E554B455914
:106F9300206B657920000D4F53445F4C4F434B00EA
:106FA3000D0A4556454E544B4559206B6579207063
:106FB300726573736564000D0A5B4D53475D4368E7
:106FC30065636B4B6579496E28293D3E20497352B1
:106FD300756E32383335436C6B54756E653D25627F
:046FE30078002020F2
:107AFD004101490041014E0041014C0041014A0044
:107B0D0041014D0041014F0041014800C116017076
:037B1D0000C1188C
:10C19D00E5A0F454906490227C007D0AAE02024723
:01C1AD00137E
:0EC23C0012C371EF30E10302002E12BB472245
:0DC24A0012C371EF30E1057F011271A222D5
:0DC2570012C371EF30E1057F021271A222C7
:10C0F10012C371EF30E10B3020057F010282BD02D6
:0BC1010076867F0112883012963222F1
:10C10C0012C371EF30E10B3020057F020282BD02B9
:0BC11C00002E7FFF12883012963222A6
:10921600900004EFF0A3EDF012C27D900004E0127E
:109226004A8B929A00929A01929A02929A03929A81
:1092360004929A05929A06929A07929A08929A0925
:10924600926B0C92C01092C51192AB1592D81692E1
:10925600A12092A621927F3892883A92E63E92CA3F
:109266003F000092ED74FF900108F0A3F090000516
:10927600E060037F01227F002212BFA91296F67FCB
:10928600012212C371EF30E40512C17580031293F7
:10929600C97F0122900005E07F012212C24A804761
:1092A60012C2578042900005E060037F012212C37C
:1092B60071EF30E132127686802D12C0F1802812CD
:1092C600C10C8023900005E060037F012212C23C9E
:1092D600801512C371EF30E10E7FF41292F0800711
:0A92E6007D017FC0122DE07F012200
:104AEB009000017401F0301826201623C3E565955C
:104AFB0074FFE5649573FEE5639572FDE562957150
:104B0B00FCE47B0AFAF9F8D31249605002C2187F11
:104B1B000112B02F900002EFF07003024F60E024FF
:104B2B00F8601C24F8602024F0602424E060282422
:104B3B00C0602C247C70307BFF7A6E7903802E7BD7
:104B4B00FF7A6E790980267BFF7A6E7910801E7B47
:104B5B00FF7A6E791580167BFF7A6E791A800E7B41
:104B6B00FF7A6E791F80067BFF7A6E792512BDD096
:104B7B007FAC7E0012BE44900003EFF012C19D701B
:104B8B0053E070507FD07E0712B53E12C19D600876
:104B9B0090014EE06403703C7D017FAC7E0012B54A
:104BAB00869000037401F0FF128CDDE4900002F09C
:104BBB007FD07E0712B53E900139E030E5051289B2
:104BCB002D800F12C22DE490014BF090014EF0128C
:104BDB0093C9C207900139E0600C900002E06410A9
:104BEB006004E4024E1990014BE07013900003E057
:104BFB00700D90014EE06007E4F07F0112C043900E
:104C0B000002E0601BA3E0701712C19D60129001BF
:104C1B0039E0700C12B18CE4124F89C2077F01226C
:104C2B0012C27D900002E0124A8B4EE8024C5404F3
:104C3B004D77084F330C4E40104DD6204DF3404E60
:104C4B0022804EF09000004F607BFF7A6E792D1220
:104C5B00BDD0201603024D2AE570C3940F4005E426
:104C6B00F57080020570E570124A8B4CAF014CB7A2
:104C7B00024CBF034CC7044CCF054CD7064CDF0787
:104C8B004CE7084CEF094CF70A4CFF0B4D070C4D4A
:104C9B000F0D4D170E4D1F0F00004CA77BFF7A6EAB
:104CAB00793A80767BFF7A6E794D806E7BFF7A6ED8
:104CBB00796080667BFF7A6E7973805E7BFF7A6E9C
:104CCB00798680567BFF7A6E7999804E7BFF7A6E60
:104CDB0079AC80467BFF7A6E79BF803E7BFF7A6E24
:104CEB0079D280367BFF7A6E79E5802E7BFF7A6EE8
:104CFB0079F880267BFF7A6F790B801E7BFF7A6FAA
:104D0B00791E80167BFF7A6F7931800E7BFF7A6F6D
:104D1B00794480067BFF7A6F795712C14280597BA9
:104D2B00FF7A6F796A900139E0FF900028E4F0A3D5
:104D3B00EFF0900102E0FF90002AE4F0A3EFF012F5
:104D4B00BDD0201223900139E06003024F60FD7F3C
:104D5B000C129216900001EFF0E49000EDF0FD7F45
:104D6B00ABFE12B586024F60C212804B7BFF7A6F8F
:104D7B00798A12BDD030160AAF707E0012A78D0251
:104D8B004F60201241900003E0700D124F897BFFA2
:104D9B007A6F7999E4024F2A12C371EF30E10B302D
:104DAB0020028019127686024F6012C371EF30E237
:104DBB000C12B18C12B9161293C9024F607F3F12BD
:104DCB004F7FF0024F607F09024EE020121512C395
:104DDB0071EF30E1077F01302023801B7F10124FD2
:104DEB007F802B7F06024EE020122712C371EF301B
:104DFB00E1117F023020061282BD024F601271A2B8
:104E0B00024F60E4FD7F11129216900001EFF07FCC
:104E1B0001227F07024EE02012169000EEE0700A8E
:104E2B0012C371EF30E10312B91612A09E024F604C
:104E3B007F05024EE0900139E0FF6009900102E02E
:104E4B007003024F60EF604690014DE0704090019F
:104E5B0002E0640170387FACFE12BE44EF64016067
:104E6B0003024F60900139E030E50312C22D90012F
:104E7B004D7401F0900148E07008900137E090010B
:104E8B004FF09001487401F0900137F0803F2012F1
:104E9B004290014DE06017E4900139F090013B74B2
:104EAB0007F0E490014DF0900137F0024F60900055
:104EBB00EEE0700A12C371EF30E10312B9169001E4
:104ECB0037E0700404F08005E4900137F012AF7BFB
:104EDB00024F607F04126A0AD217024F607BFF7A7F
:104EEB006F79A3803E900173E0641470683018658D
:104EFB00301614C2167F0112C0437D027FA07E00C4
:104F0B0012BCFCC218800ED2167F0212C043AF70C7
:104F1B007E0012A78D7BFF7A6F79BAA216E43390CD
:104F2B000028F012BDD0802D900173E0641770251E
:104F3B007F0212C0437F647E0012B53E124F661291
:104F4B004F667F0112C043D21885657485647385E3
:0A4F5B006372856271900001E0FFAF
:104F6500227F0112C0437F647E0012B53E7F02128C
:104F7500C0437F647E0012B53E22E4FD1292169076
:104F85000001EF22FF128CDD7FF412C15D12C22DEC
:044F95001293C92288
:10B02F00A20D9221C20D30103AE5307036D2219028
:10B03F000144E0FEB40313A3E0B4020EA3E0700AD0
:10B04F00A3E0B401057530408017EEB403139001EF
:10B05F0045E0B4010CA3E07008A3E0B4020375301F
:10B06F0020C2102021037F0022EF6003AF30222087
:07B07F000C03AF30227F003B
:01B0860022A7
:08A78D00900004EEF0A3EFF0D0
:10A7950078067C007D017BFF7A6F79E57E007F027C
:10A7A500124683900004E0FAA3E0FBFF12C1A5ED79
:10A7B5002430900007F0AF0312C1A5900004EEF01D
:10A7C500A3EFF02430A3F07BFF7A8679CE129C624A
:10A7D5007F1012C3637D027FA07E0012BCFC7B024A
:10A7E5007D377FA07E0012BBDF7B017A0079069062
:10A7F50000547402F07FA07E0012BB7B7D017F02B6
:08A8050012B69C7F0102BCA009
:10802E000D0A43485F54573238333528253032789D
:10803E00292C526561644465636F646572283078DB
:10804E003636293D256278000D0A2043485F415699
:10805E002825303278290020200A0D000A0D62757D
:10806E00737720302031203745203839000A0D62D1
:10807E00757377203020312037452038390D0A00AE
:10808E00FE000000000000000000000000000000E4
:10809E0000014356425300000000000000000000A3
:1080AE0000000243414D204400000000000000008B
:1080BE0000000003415620200000000000000000D8
:1080CE0000000000000000000000000000000000A2
:1080DE000000000000FE0000000000000000000094
:1080EE00000000000000014E545343000000000049
:1080FE00000000000000000250414C000000000093
:10810E00000000000000000003534543414D0000F5
:10811E000000000000000000000550414C4D000022
:10812E00000000000000000000000650414C4E0010
:10813E0000000000000000000000000750414C3617
:10814E00300000000000000000000000044E5453F8
:10815E0043342E3433000000000000000000000005
:0E816E00000000000000000000000000000003
:107B2000C10BC104C1024100F500011D004400F673
:107B300000000000440103000000004100EF00418C
:107B400000EA00C185011F000113000111000112AC
:107B500000011E00011500011400011A004100FE81
:107B6000004100EB004100F1004100FC004100F445
:107B700000C1004100FD00C106C101C183C107C1B0
:017B80000AFA
:10B5CD0074F62FF582E43400F58322EF75F011A4A3
:10B5DD00248EF582E43480F583E49322F074032FF6
:10B5ED00F582E43401F583229000010246C2E4FBAA
:10B5FD007DFF7F8A22E4F51BF51CF519F5182290C5
:06B60D00001BE004F02226
:06B3250090001F124A26F1
:10B32B00E4FE1246A9900022F012B5F58029900098
:10B33B001F124A061246A9FFB4FF0612B5F5F460B8
:10B34B0022900023EFF0FD12B5F5900024F0FB9056
:10B35B000022E0FF12BE6A900020E475F002124753
:09B36B009E80CB12B5FB02BE6A04
:10A68A0090001EEFF07BFF7A5D79E412B32512B5D4
:10A69A00FB12BE6A90001EE024FE601314601024B0
:10A6AA00FD600C240624F85011240A600D80117BE9
:10A6BA00FF7A5F793412B325800690001E7401F088
:10A6CA009000FBE0B4051390010CE07002800B903F
:10A6DA00001EE014FF12C09C800312BF6A7B157D26
:10A6EA00297F8A12BE6A7B067D5C7F8A12BE6A7FD8
:10A6FA000B7E0012BE44128B1212C333128DBFC2DC
:02A70A00232208
:10C1AE007D017F8A12B98BEF30E7037F01227F007A
:01C1BE00225E
:10956D00E490001BF0A3F09000FBE0B4050990011E
:10957D000CE06003029620E4900019F012B13690D1
:10958D00001AEFF090001CE004F0E0C3940A4003D1
:10959D0002962090001AE0FF64FE60E09000F0E07B
:1095AD00FEEF6E60D7900019E0FFA3E0FEB5070651
:1095BD00A3E004F0800AE490001BF0900019EEF097
:1095CD0090001BE0C3940240B390001AE0FF700BB3
:1095DD0012B9FD90001D7401F080309000F0E07024
:1095ED00119000EEE0700630070312C22D12962185
:1095FD0080149000EEE0700630070312C22D129613
:10960D00217F3212C15DE490001DF090001DE02419
:03961D00FF920AAF
:109620002290001AE0FF12B9FD90001AE0FF12A686
:029630008A228C
:10BF470012C1AEEF60037F01227D1C7F8A12B98B7D
:10BF5700EF54F0FF30E7037F0122EF5470C4540F12
:02BF670004FFD5
:01BF690022B5
:10AFD60012BF47AB07EB24FE601914601624FD6010
:10AFE60012240224FC500424077017751B00751CDC
:10AFF6003C8006751B00751C32E475196B75183D8F
:10B00600800312B602F517F516E4FFEF75F011A4EA
:10B0160024E3F582E43480F583E493FEB50301224C
:08B02600EE60030F80E57F00DE
:01B02E0022FF
:06C377009000F0E0FF223F
:10B9FD009000F0EFF024FE601914601624FD601223
:10BA0D00240224FC500424077017751B00751C3C80
:10BA1D008006751B00751C32E475196B75183D8019
:09BA2D000312B602F517F516220A
:06C37D009000FBE0FF222E
:10BFA9007F0112B5D8FE9000FBE0FDEE6D60030F36
:0EBFB90080F00F12B5D870027F0112B5D8FFCC
:01BFC7002257
:09C2FF00302103D2B722C2B7229C
:1096F600900018EFF09000FBE06F70030297A890BF
:10970600013EE0B4010543E804800312B95190001C
:1097160018E09000FBF09000F0E0FF12A68A90009F
:10972600FBE024FD60202402703A12BEDB1297A9EA
:10973600C2957D667F8A12B98B90002AEFF07BFF77
:109746007A80792E800E12BEFF1297A9D2957BFFE2
:109756007A8079569000FBE0FF900028E4F0A3EFB2
:10976600F012BDD012B0879000FBE0FF12C2DB7F83
:109776001E12C15D12956D1293C990013EE0B401AF
:109786000553E8FB8005E4FF12A3607F6412C15D08
:109796007BFF7DD07F8A12BE6A7BFF7DD17F8A12D6
:0D97A600BE6A22C21BE4FF128830C294226A
:0DC26400C22112C31A43E804E4FF02C043E4
:0CC27D0012B860900108EEF0A3EFF02270
:09C30800900108E0FEA3E0FF2211
:108EA000C374FF9FFFC39400400CEF94645007E429
:108EB000900002F0804BEFC39464400DEF948C500F
:108EC000089000027414F08038EFC3948C400DEFCA
:108ED00094B450089000027428F08025EFC394B435
:108EE000400DEF94DC5008900002743CF08012EFCB
:108EF000C394DC400CEFD394FF5006900002744BF7
:108F0000F090014AE0702C9000F5E0C3940F5005FA
:108F1000E004F08024900002E0FFE51DD39F4004B0
:108F2000151D8008E51DC39F5002051DE49000F546
:108F3000F08006900002E0F51D7DFF7F8A12B98B5C
:108F4000900001EFF012B5FB12BE6A7DBE7F8A125F
:108F5000B98BEF54CF4410FB7DBE7F8A12BE6A7D71
:108F6000C47F8A12B98BEF5480451DFB7DC47F8A74
:0F8F700012BE6A900001E0FB7DFF7F8A02BE6A9D
:10C1E100E490013DF090010BF090013B7408F022C6
:10872B007FAB7E0012BE449000EDEFF07FB07E0079
:10873B0012BE449000EEEFF07FAA7E0012BE449072
:10874B000133EFF07FAD7E0012BE44900102EFF0DB
:10875B007FA07E0012BE4490014AEFF07FB87E00EE
:10876B0012BE449000FFEFF07FB77E0012BE449024
:10877B0000FAEFF07FB97E0012BE449000ECEFF0F0
:10878B007FBF7E0012BE44EF24FF92097FC57E009F
:10879B0012BE44900101EFF07FAF7E0012BE4490F9
:1087AB000137EFF07FA5128828EE9001347006E0B8
:1087BB004401F08004E0540EF07FA6128828EE905E
:1087CB0001357006E04401F08004E0540EF07FA701
:1087DB007E0012BE44AE07EE9001367006E04401F7
:1087EB00F08004E0540EF07FA87E0012BE44AE076A
:1087FB00EF9001387006E04401F08004E0540EF075
:10880B0012C353900173EFF012C35B900174EFF03E
:0C881B007FB27E0012BE449000F3EFF02C
:09882700227E0012BE44AE0722BD
:107503007BFF7A80796512C1429000EEE0704912E8
:10751300C371EF20E142300A2920073CD207E490EF
:1075230000F2F07FA3FE12BE44EF700990016FE0FA
:1075330054EFF080069000F27403F07F06128CDDA6
:10754300801630071312C371EF20E60CC2077FA326
:107553007E0012BE441293C9126084900000EFF0C3
:10756300126592900139E0701B90013DE060159027
:107573000133E0FF90010BE0C39F400812BEB6E465
:1075830090010BF090014AE0700E7DC97F8A12B919
:107593008B900000EFF080027FFF128EA0124AEB67
:1075A300EF70030276859000F2E06401707312C3FA
:1075B30071EF20E16C12C371EF20E2657FA37E00BF
:1075C30012BE44EF605B900139E070509000EEE032
:1075D300700FFD7F0212B69C90016FE054EFF080B4
:1075E3003B900134E0540DF0900135E0540DF090E0
:1075F3000136E0540DF0900138E0540DF012ACE97F
:10760300900134E04402F0900135E04402F090012F
:1076130036E04402F0900138E04402F0E49000F2D6
:10762300F0129E4412C37DEF1424FD5002800A120F
:10763300C371EF20E10312956D900171E0B4010570
:1076430053E8FBE4F0900171E0B4020343E8087DE2
:10765300B27F8A12B98BEF600302750C7BB07DFD9C
:107663007F8A12BE6AE4FF12C0437FF47E0112B523
:107673003E7F0112C0437B307DFD7F8A12BE6A02CA
:02768300750C84
:0176850022E2
:10AE6900C2B5C22112C31A7F0A7E0012B53EC2B40E
:10AE790012B2D67F0112C04312C02512C1E112A23B
:10AE8900D51285057F0A7E0012B53E12872B9001E7
:10AE990037E090014FF07FA97E0012BE4412B40F33
:10AEA900E4900139F07BFF7A80796A12C1429000FF
:0CAEB900EDE0600312750312A47180F23A
:10A47100E4900002F0126084900001EFF0601BE0B4
:10A48100FF12659290013BE0B40803D38001C34001
:10A49100197F0112A360D221800D900001E0FF120B
:10A4A100659212C264C22112C31AE4FF12B02F9046
:10A4B1000000EFF060BFE0B404BB126084EF70B540
:10A4C1009000ED04F0FD7FAB7E0012B5861293C9BA
:10A4D10012ACE97FA37E0012BE44BF01069000F2D8
:10A4E1007403F0C2077F0112A360D22112C31A7B49
:08A4F100FF7A80797B02C14271
:10817C00900102E0600A640170359000EAE0702F13
:10818C003005030282BCD205E490001BF090001B6A
:10819C00E0FFC39404500E12B5CDE412B5E9E4F03F
:1081AC0012B60C80E8E49000EFF09000EAF022C2E6
:1081BC00059000EAE0FF9000EFE0FED39F406AEEEE
:1081CC009F90001CF0E490001BF090001CE0FF90CE
:1081DC00001BE0C39F504AE4FF12B5EAE0FE12B563
:1081EC00CDE06E600B90001DEE12B5E9E4F0800559
:1081FC000FEFB404E4E4FF12B5CDE0FE90001DE0F7
:10820C00FDEED39D401012B5CDE014F012B5CDE0CB
:10821C00FE12B5EAEEF00FEFB404DC12B60C0281DC
:10822C00D69000EAE09000EFF09000EFE090001C98
:10823C00F0A37405F0E490001BF090001BE0FFC36A
:10824C009404502812B5CDE0FF90001CE0FEEFB571
:10825C00061590001BE0FF90001DF0EEB4010DEF31
:10826C00049000FDF0800512B60C80CE7F0112C187
:10827C005D90001DE014600D14600F146014240355
:10828C007025E48025E4F5148022E4F514F515C27C
:10829C001922E4F514F515F51A9000EBE06406606C
:1082AC000FE49000F4F022E4F514F515F51AC21958
:0182BC00229F
:10861F00A10AA20AA000A310A410A591A601A70168
:10862F00A822A910AA00AB62119E00000100CC0C79
:10863F0002700000005000000F4000119E3031000A
:10864F00AFC81202F1100800500030004000119E18
:10865F003100029000040170000000A0F5000F40EF
:10866F0000119E3100029000030170000000F0F530
:10867F00000F4000119E3230000C0D0A01B10404AE
:10868F000050C800044000119E313000160D0F023B
:10869F003101000050A0000840119E3330100C989B
:1086AF0028013101000000B400084000119E313054
:1086BF00000C020F023101000050A0000840001111
:1086CF009E3130000A0502013101000050A0000860
:1086DF004000119E32300040090204B1000890E0C2
:1086EF0000043340119E3130008A091808B08A0502
:1086FF00B05026083340119E30B40040270201F1DC
:10870F00000000E0000033C100119E303C1090606B
:0C871F001502F102044050C80036C100F1
:10A4F900900051FFE475F001124A0FEF0246EF9008
:10A50900004FE0FEA3E0FF22EF14FB7D9E7F8A222D
:10A5190090001C124A0690001FE0F5827583000224
:10A5290046C2E0A4FFA3E5F0F0A3EFF07DA07F8A87
:10A539002290005BE0FCA3E0FD22EEF0A3EFF0A384
:10A5490022124713900059EEF0A3EFF04E22A3E038
:10A55900FB7D967F8A2212471390004FECF0A3ED02
:10A56900F022F07B047D947F8A22EDF0EFC3940101
:08A5790022E4FB7D947F8A229D
:10BCCF0012BCF1900028F0E4A3F012BCF1FF900039
:10BCDF0028E06F700C900029E004F0E0C3940A4054
:01BCEF00E96B
:0CBCF000227D957F8A12B98BEF54402210
:10AEC500E490000EF0E490000DF090000DE0FFC35B
:10AED5009408502FA3E075F008A4FEEF2E7D9C1278
:10AEE500AF15FFA3E075F0089018EE1249FAE58258
:10AEF5002FF582E43583F583E4937D9D12AF150428
:0FAF0500F080C790000EE004F0E0C3940240B665
:0CAF140022FB7F8A12BE6A90000DE02232
:10ADAD00900003EFF0A3124A2612ADFB44017D94EF
:10ADBD0012AE04900003E07D9912AE047DE07F8A0F
:10ADCD0012B98BEF4410FB7DE07F8A12BE6A9000B2
:10ADDD0004124A0690005A741BF07D9A7F8A12B7AE
:10ADED002212ADFB54FEFB7D947F8A02BE6A7D94D8
:0EADFD007F8A12B98BEF22FB7F8A12BE6A2278
:10BA6F007B607D9B7F8A12BE6AE4900002F090009B
:10BA7F0002E0FFC394E2501FEF94C6501AEF75F027
:10BA8F001BA424FEF9741835F0FA7BFF12ADAD90AC
:07BA9F000002E004F080D773
:01BAA600227D
:03B7A400900015FD
:10B7A70012A5734036EFD39408503012A51112BE7C
:10B7B7006A90001575F00812A52B12B98BEF54F09B
:10B7C700FD900016E04DFB7DA07F8A12BE6A9000B7
:0BB7D70016A3E0FB7DA17F8A12BE6A72
:01B7E2002244
:03B6E000900015C2
:10B6E30012A5734039EFD39408503312A51112BE3B
:10B6F3006A90001575F00412A52B12B98BEF540F45
:10B70300FD900016E0C454F04DFB7DA07F8A12BE6D
:0EB713006A900016A3E0FB7DA27F8A12BE6A38
:01B721002205
:05BCA00090001EEFF012
:10BCA50012BCCF7D9C7F8A12B98B90001FEFF0905C
:10BCB500001EE06006A3E054EF800690001FE044FC
:09BCC50010FB7D9C7F8A12BE6A0F
:01BCCE002253
:03B69C0090001EFD
:10B69F0012A573403BEFD39408503512A51112BE7B
:10B6AF006A7D9F7F8A12B98B90001FEFF090001E6A
:10B6BF00E06007A3E04401F0800790001FE054FE14
:10B6CF00F012BCCF90001FE0FB7D9F7F8A12BE6AF5
:01B6DF002248
:10B4A800EFC394014006EFD394084004E4FEFF2262
:10B4B80012A51112BE6A7DA07F8A12B98BEF540FB4
:10B4C800900028F0A3E4F07DA17F8A12B98B900048
:10B4D80028E0F0A3E04FF0900028E0FEA3E0780316
:0AB4E800CEC313CE13D8F9FF7E0087
:01B4F2002237
:10B0DF00EFC394014006EFD394084004E4FEFF222F
:10B0EF0012A51112BE6A7DA07F8A12B98BEF54F0A0
:10B0FF00C4F8540FC868FEE4C454F048900028F018
:10B10F00A3CEF07DA27F8A12B98B900028E0F0A326
:10B11F00E04FF0900028E0FEA3E07802CEC313CEFC
:06B12F0013D8F9FF7E00B9
:01B1350022F7
:10BB7B0090004F12A543124A2612A56C12BE6A9072
:10BB8B00004F12A55712BE6A900051124A06900040
:10BB9B0054E090005AF07D977F8A12B72212A57A53
:03BBAB0002BE6A6D
:10BBDF0090003012A543EDF0A3EB12A56B12BE6AD5
:10BBEF0090003012A55712BE6A900032E0FBA3E01E
:10BBFF00900037F07D987F8A12B82212A57A02BE84
:01BC0F006ACA
:10BCFC0090003012A543ED12A56B12BE6A90003075
:10BD0C0012A55712BE6A900032E0900037F07B20EB
:0DBD1C007D977F8A12B82212A57A02BE6AB6
:0983E40090004F12A543124A2635
:1083ED00900056124A26E4900055F0900054E06437
:1083FD000A707990005B7427F0A37410F012A53AFF
:10840D00C3940AEC9400405612A50812A54A6012B6
:10841D00900059A3E0243012A4F9900055E004F027
:10842D008015900055E0600F900051E475F0011239
:10843D004A0F74301246EF12A50890005BE0FAA3C4
:10844D00E0FBFDAC0212A55F7D0A7C00AF03AE021E
:10845D0012471390005BEEF0A3EFF002840A900038
:10846D004FA3E02430A312A4FC0284F8900054E042
:10847D006410600302850290005B7410F0A3E4F0B9
:10848D0012A53AC39410EC9400404412A50812A50D
:10849D004A6028900059E0FEA3E0FFC3940AEE94D1
:1084AD00004005EF24378007900059A3E0243012D7
:1084BD00A4F912A50812A53A12A55F90005BE0C4BD
:1084CD00F854F0C868F0A3E0C4540F48F080B1121E
:1084DD00A508C3940AEE94004005EF243780079059
:1084ED00004FA3E02430FFA312A4FD900051124AC7
:0784FD0006E41246EF7F01C7
:018504002254
:06C1270090004F124A26B1
:10C12D00E4FF90004FE475F001124A0F1246A9602A
:04C13D00030F80EE7E
:01C1410022DB
:069C620090001C124A26CE
:109C68007DFF7F8A12B98B900020EFF054FEFB7DB8
:109C7800FF7F8A12BE6A7DE07F8A12B98BEF54EFAC
:109C8800129CF1E490001FF012A519FF60429000A9
:109C98001FE02401FDE433FC90001C124A06E92D64
:109CA800F9EA3CFAEF129CFA90001FE02401FFE465
:109CB80033FE90001C124A06E92FF9EA3EFA7405B1
:109CC800129CFA12A51904FF90001FE02FF080B82B
:109CD8007DE07F8A12B98BEF4410129CF19000202E
:099CE800E0FB7DFF7F8A02BE6AE9
:109CF100FB7DE07F8A12BE6A22900025F07F8A12E6
:039D0100B9C422C0
:100066000A0D6D6F646520300A0D000D0A5B4D5355
:10007600475D536574345769646553637265656E8D
:100086002829203D3E2053637265656E20746F20DB
:10009600343A33202121000A0D6D6F646520320A3F
:1000A6000D000D0A2B2B284F5344486967684D6590
:1000B6006E755F73756229204F53444D656E754C9E
:1000C6006576656C3A2564000D0A52455345545FC2
:1000D6004D6F6E69746F7256414C5545000A0D7925
:1000E600766D697820340A0D000A0D79766D697887
:1000F60020300A0D000A0D79766D697820310A0DD7
:10010600000A0D79766D697820320A0D000A0D799C
:10011600766D697820330A0D00436865636B205657
:100126004741204361626C65004F7574204F66201D
:1001360052616E676500FE62596B62714C2F713AAF
:1001460034FF001213566F6C756D65002020204138
:1001560075746F2041646A757374696E67202E2EFC
:100166002E2E20202000436F6D706F73697465001A
:1001760056657273696F6E004C4344205665727300
:10018600696F6E004456522056657273696F6E0031
:10019600574946492049500057494649204D414351
:1001A6000047415445574159004F534420506F73FF
:1001B6006974696F6E004F534420506F73696369A9
:1001C6005F6E004F534420FE5465714667FF004C36
:1001D600616E6775616765004C616E677565005392
:1001E600707261636865004964696F6D6100FE57EE
:1001F60056714667FF004272696768746E6573736D
:10020600004C756D696E6F7369745F0048656C6C40
:1002160069676B656974004272696C6C6F00FE40B9
:1002260024715F60FF00436F6E74726173740043E4
:100236006F6E747261737465004B6F6E7472617366
:100246007400436F6E74726173746500FE394F718A
:100256005F60FF0053617475726174696F6E00535D
:10026600AA74746967756E67005361747572616309
:10027600695F6E00FE4A2C33715F60FF004875654A
:1002860000546F6E616C69745C0046617262650051
:10029600546F6E616C6964616400FE4A5448715F14
:1002A60060FF0053686172706E6573730041637519
:1002B60069745C00536368AA726665004167756479
:1002C600657A6100FE463933715F60FF00526573DF
:1002D600657400445C66617574004772756E64658A
:1002E600696E7374656C75670050726564657465D4
:1002F600726D696E6163695F6E00FE66246DFF0054
:10030600576964652053637265656E0057494445B5
:1003160020FE6D3B714667FF004D6972726F720079
:100326004A756D70005345512054696D65205374AC
:100336006570004A756D702041560043616D204F0F
:1003460075740052657475726E00526563616C6CEB
:10035600004D6F6E69746F7220526563616C6C003C
:1003660044565220526563616C6C0045786974008E
:1003760020007665722041302E31300054696D655B
:100386004F757420536574757000476175676520F5
:1003960053657475700047617567652052656361C2
:1003A6006C6C005052494F5249545900526576655B
:1003B6007273204D6F6465005265736F6C75746956
:1003C6006F6E00465053005175616C697479005226
:1003D60065636F7264204D6F6465005265636F726A
:1003E60064204C656E677468005072652D616C619F
:1003F600726D00506F73742D7265636F7264004185
:1004060070706C79005265636F72645374617274B4
:10041600005265636F726453746F7000536E61703F
:1004260073686F7400446174652054696D65005982
:10043600656172004D6F6E74680044617900486FA3
:100446007572004D696E00536563004461796C698D
:10045600676874536176696E6700426567696E65A1
:1004660000456E64005765656B0054696D65005400
:10047600696D65205A6F6E650052657475726E26D9
:100486004170706C7900466F726D61742053442020
:100496004361726400417564696F205265636F72CF
:1004A60064004669726D7761726520557064617487
:1004B6006500596573004E6F004669727374204E6D
:1004C600756D626572005365636F6E64204E756D5F
:1004D600626572005468697264204E756D62657259
:1004E60000466F75727468204E756D6265720043C2
:1004F60068616E67652050617373776F7264004F31
:1005060076657257726974650044697220496D6137
:1005160067650054726967676572205647410054E3
:100526007269676765722044656C617900496E6619
:100536006F726D6174696F6E0055706461746520C9
:10054600436F6E66696700534420636F7665722059
:100556004465742E0043414D20410043414D2042E5
:100566000043414D20430043414D205200446973EE
:10057600706C61790044565220446973706C6179DD
:100586000044697374616E63652047617567650031
:100596004F5344204C6F636B0050617373776F72D7
:1005A6006400536F75726365205469746C6500430B
:1005B600564253204100435642532042004356427E
:1005C60053204300435642532052004175746F2016
:1005D600446179264E696768740044697220496DE2
:1005E6006167650044697220496D61676520410055
:1005F60044697220496D6167652042004469722032
:10060600496D6167652043005265617220536574C8
:1006160075700043414D20410043414D2052004337
:10062600414D20420043414D20430043414D20446B
:10063600000200456E676C697368004672616E7BE6
:10064600616973004465757473636800457370610E
:100656007E6F6C00FE6A2356FF200004014D6F6416
:100666006531004D6F646532004D6F64653300552A
:10067600736572004D6F646531004D6F64653200BD
:100686004D6F64653300557361676572004D6F6425
:10069600757331004D6F64757332004D6F647573F9
:1006A600330042656E75747A6572004D6F646F3102
:1006B600004D6F646F32004D6F646F330055737574
:1006C6006172696F00FE3A34FF3100FE3A34FF3240
:1006D60000FE3A34FF3300FE47515B71FF200008ED
:1006E600004175746F004E5453430050414C005303
:1006F6004543414D004E545343342E34330050414C
:100706004C4D0050414C4E0050414C3630000500D7
:100716004E6F726D616C00576964650050616E6F53
:1007260072616D610046756C6C000500FE1A1BFF58
:100736002000FE1C1DFF2000FE1E1DFF2000FE1FC8
:1007460020FF2000FE1F21FF200009004F666600E3
:1007560043433100434332004343330043433400B1
:1007660054310054320054330054340002004F4ECA
:10077600004F46460002004D4952524F52004E4F1E
:10078600524D414C000300446179004155544F00DD
:100796004E6967687400020031363A3900343A33DC
:1007A600000200004F4E004F464600040053494EDB
:1007B600474C45004455414C00545249504C450065
:1007C600412B422C422B410007004100412B4200A5
:1007D600412B4300412B5200412B424300412B4207
:1007E6005200412B43520007004200422B41004277
:1007F6002B4300422B5200422B414300422B4152D5
:1008060000422B43520007004300432B4100432B79
:100816004200432B5200432B414200432B415200DE
:10082600432B4252000A005200522B4100522B42E7
:1008360000522B4300522F414200522F4143005297
:100846002F424300522B414200522B414300522B70
:100856004243000E00515541440053455100412B7F
:100866004200432B5200412B5200522B4200412B97
:100876004300432B4200522F414200522B4142007B
:1008860041004200430052000500515541440043D7
:10089600414D410043414D420043414D43004341D8
:1008A6004D5200020000373230783438300033358C
:1008B60032783234300005000035003130003135F1
:1008C600003230003235003330000500004C6576CA
:1008D600656C2D31004C6576656C2D32004C657665
:1008E600656C2D33004C6576656C2D34004C657651
:1008F600656C2D35000300004E6F6E65004E6F72FD
:100906006D616C00416C61726D0006000031202043
:100916006D696E003220206D696E003320206D698E
:100926006E003420206D696E003520206D696E00E2
:100936003130206D696E0005000031352073656326
:10094600003330207365630036302073656300081A
:100956000000313520736563003330207365630012
:100966003630207365630002000044697361626C6F
:100976006500456E61626C6500040000466972732D
:1009860074005365636F6E64005468697264004650
:100996006F75727468000400410042004300520003
:1009A6001900002D3132002D3131002D3130002D4E
:1009B60039002D38002D37002D36002D35002D3409
:1009C600002D33002D32002D310030003100320071
:1009D6003300340035003600370038003900313036
:1009E6000031310031320002005020004420000363
:1009F6000032343030003438303000393630300090
:100A06000200FE1819FF2000FE1A1BFF200004003A
:100A1600FE1C1D1E1F2021FF2000FE222328292A3E
:100A26002BFF2000FE242528292A2BFF2000412BFE
:100A3600422C422B41000E00FE262728292A2BFF96
:100A4600200053455100412B4200432B5200412BBD
:100A56005200522B4200412B4300432B4200522F9F
:100A6600414200522B4142004100420043005200E5
:100A760056474100FF0176FF0176FF0176FF0176BA
:100A8600FF0176FF017EFF017EFF017EFF017EFFF3
:100A9600017EFF018AFF018AFF018AFF018AFF01A9
:100AA6008AFF0196FF0196FF0196FF0196FF0196C8
:100AB600FF019EFF019EFF019EFF019EFF019EFF1B
:100AC60001A7FF01A7FF01A7FF01A7FF01A7FF01DC
:100AD6001FFF012FFF012FFF012FFF012FFF013CF9
:100AE600FF0149FF01AFFF01AFFF01AFFF01BCFFEF
:100AF60001C9FF01D5FF01DEFF01E5FF01EDFF01A1
:100B0600F4FF01FCFF0207FF0212FF021DFF022491
:100B1600FF022CFF0235FF023FFF0248FF0252FF91
:100B2600025AFF025AFF0265FF026FFF027AFF02B6
:100B360083FF0287FF0290FF0296FF02A0FF02A931
:100B4600FF02B3FF02BAFF02C2FF02CAFF02D3FFCF
:100B560002D9FF02E0FF02EFFF0300FF031FFF03BE
:100B66001FFF031FFF031FFF031FFF0326FF0326AD
:100B7600FF0326FF0326FF0326FF032BFF032BFF9E
:100B8600032BFF032BFF032BFF0341FF0341FF034F
:100B960041FF0341FF0341FF0339FF0349FF0349B7
:100BA600FF0349FF0349FF0349FF0350FF0350FFBB
:100BB6000350FF0350FF0350FF0357FF0357FF0384
:100BC60057FF0357FF0357FF0366FF0366FF0366DE
:100BD600FF0366FF0366FF0371FF0371FF0371FFE7
:100BE6000371FF0371FF0573FF0573FF0573FF05AF
:100BF60073FF0573FF057BFF057BFF057BFF057B09
:100C0600FF057BFF0587FF0587FF0587FF0587FF34
:100C16000587FF0596FF0596FF0596FF0596FF05D6
:100C260096FF059FFF059FFF059FFF059FFF059FF9
:100C3600FF05A8FF05A8FF05A8FF05A8FF05A8FF53
:100C460005B5FF05B5FF05B5FF05B5FF05B5FF05FC
:100C5600BCFF05BCFF05BCFF05BCFF05BCFF05C30B
:100C6600FF05C3FF05C3FF05C3FF05C3FF05CAFF95
:100C760005CAFF05CAFF05CAFF05CAFF05D1FF055C
:100C8600D1FF05D1FF05D1FF05D1FF05E0FF05E046
:100C9600FF05E0FF05E0FF05E0FF05EAFF05F6FFBB
:100CA6000602FF060EFF060EFF060EFF060EFF06E5
:100CB6000EFF0619FF0619FF0619FF0619FF06198A
:100CC600FF0625FF0625FF0625FF0625FF0625FF4D
:100CD600062BFF062BFF062BFF062BFF062BFF0618
:100CE6001FFF061FFF061FFF061FFF061FFF063119
:100CF600FF0631FF0631FF0631FF0631FF0376FF9F
:100D06000378FF0382FF0390FF039CFF03A9FF0301
:100D1600B2FF0525FF0525FF0525FF0525FF05254E
:100D2600FF055BFF055BFF055BFF055BFF055BFFE3
:100D36000561FF0561FF0561FF0561FF0561FF05AF
:100D460067FF0567FF0567FF0567FF0567FF056D19
:100D5600FF056DFF056DFF056DFF056DFF03BEFF0A
:100D660003C9FF03CDFF03D5FF03E1FF03EFFF0335
:100D7600F9FF0405FF040BFF0417FF0422FF042BF1
:100D8600FF0435FF043AFF0440FF0444FF0449FF13
:100D9600044DFF0451FF0460FF0467FF046BFF046A
:100DA60070FF0475FF047FFF048CFF049BFF04A8FB
:100DB600FF04B8FF04BCFF04BFFF04CCFF04DAFF46
:100DC60004E7FF04F5FF0505FF050FFF0519FF05FD
:100DD60033FF053FFF054DFF0306FF0306FF03062E
:100DE600FF0306FF0312FE6C6F00FE727500FE60C5
:100DF6006300FE787B00FE666900FE848700FE01C4
:100E06000200FE7E8100FE8A8D00FE909300FE9613
:100E16009900FEC0C300FE9C9F00FEA2A500FEA88E
:100E2600AB00FEAEB100FEB4B700FEBABD000000D6
:100E360018031661180216610000FF0C81FFFFFF00
:100E46003200000700B807720000FF0BEBFFFFFF40
:100E56003200000700B907720000FF0C09FFFFFF10
:100E66003200000700BA07720000FF0C18FFFFFFF0
:100E76003200000700BB07720000FF0D11FFFFFFE5
:100E86003200000700CA07720000FF0D14FFFFFFC3
:100E96003200000700D6079C0000FF0BA0FFFFFFF3
:100EA6003200000300F1000000000000000000FF17
:100EB600FF00000000000000180216610000FF0D90
:100EC600B9FFFFFF3200000300F100000000FF0D34
:100ED600B6FFFFFF3200000300ED00000000000037
:100EE600000000FFFF00000000000000180216616D
:100EF6000000FF0DBCFFFFFF32000005002D0E3580
:100F06000000FF0DBFFFFFFF32000005002E0E356B
:100F16000000FF0DC2FFFFFF32000005002F0E3557
:100F26000000FF0DC5FFFFFF3200000500380E353B
:100F36000000FF0DC8FFFFFF3200000300EE0000B7
:100F46000000FF0BA0FFFFFF3200000300F10000CE
:100F560000000000000000FFFF000000000000008D
:100F6600180216610000FF0DBCFFFFFF32000005EE
:100F7600002D0E350000FF0DBFFFFFFF32000005FC
:100F8600002E0E350000FF0DC2FFFFFF32000005E8
:100F9600002F0E350000FF0DC5FFFFFF32000005D4
:100FA60000380E350000FF0DADFFFFFF32000003D5
:100FB60000EB00000000FF0DC8FFFFFF320EF60138
:100FC60000000EF20000FF0BA0FFFFFF320000033F
:100FD60000F1000000000000000000FFFF0000001C
:100FE60000000000180516610000FF0DA7FFFFFFB7
:100FF60032000007002C09A60000FF0D86FFFFFF48
:101006003200000500200E350000FF0D89FFFFFFAE
:101016003200000500210E350000FF0D8CFFFFFF9A
:101026003200000500220E350000FF0D8FFFFFFF86
:101036003200000500230E350000FF0D92FFFFFF72
:101046003200000500240E350000FF0DAAFFFFFF49
:101056003200000300F6000000000000000000FF60
:10106600FF000000000000000000FF0DB6FFFFFFBC
:1010760032000003009B00000000FF0DB9FFFFFFD8
:101086003200000300F1000000000000000000FF35
:10109600FF000000000000000000FF0DB6FFFFFF8C
:1010A60032000003007000000000FF0DB9FFFFFFD3
:1010B6003200000300F1000000000000000000FF05
:1010C600FF000000000000000000FF0DB6FFFFFF5C
:1010D60032000003009E00000000FF0DB9FFFFFF75
:1010E6003200000300F1000000000000000000FFD5
:1010F600FF000000000000000000FF0BBEFFFFFF26
:1011060032109E0100000E360000FF0BCDFFFFFFE0
:101116003210CE0100000E360000FF0BA0FFFFFFCD
:101126003200000300F1000000000000000000FF94
:10113600FF00000000000000180416610000FF0A0E
:10114600A7FFFFFF3600000B00F1000000000000C3
:1011560000FFFFFF3200000C00390E350000FF0AC9
:10116600B6FFFFFF3600000B00F100000000000094
:1011760000FFFFFF3600000C003A0E350000FF0AA4
:10118600C5FFFFFF3600000B00F100000000000065
:1011960000FFFFFF3600000C003B0E350000FF0B82
:1011A600A0FFFFFF3200000300F100000000000076
:1011B600000000FFFF000000000000001804166198
:1011C6000000FF0BAFFFFFFF32000003009B000093
:1011D6000000FF0BDCFFFFFF3200000300F40000FD
:1011E6000000FF0D02FFFFFF3200000B00F40000BD
:1011F6000000FF0D02FFFFFF3200000B00F40000AD
:101206000000FF0D02FFFFFF3200000B00F400009C
:101216000000FF0D02FFFFFF3200000B00F400008C
:101226000000FF0D05FFFFFF3600000B00F4000075
:1012360000000000000000FFFF00000000000000AA
:10124600180516610000FF0D6EFFFFFF3200000754
:1012560000E409100000FF0D74FFFFFF32000007D5
:1012660000E609550000FF0DB0FFFFFF3200000742
:1012760000EC099C0000FF0DAAFFFFFF32000003EF
:1012860000F5000000000000000000FFFF00000065
:1012960000000000180416610000FF0D6BFFFFFF41
:1012A60032124A01000012460000FF0D65FFFFFFE3
:1012B6003200000700E108BC0000FF0D68FFFFFFD9
:1012C6003200000700E208D00000FF0DADFFFFFF6F
:1012D600320F6A0100000F660000FF0DB3FFFFFF2B
:1012E600320EC20100000EBE0000FF0DAAFFFFFF76
:1012F6003200000300F5000000000000000000FFBF
:10130600FF00000000000000180516610000000044
:10131600000000FFFF000000000000001804166136
:101326000000FF0B07FFFFFF3200000400960E359A
:101336000000FF0B16FFFFFF3200000400950E357C
:101346000000FF0B25FFFFFF3200000400970E355B
:101356000000FF0B34FFFFFF3200000400990E353A
:101366000000FF0B43FFFFFF32000004009A0E351A
:101376000000FF0BA0FFFFFF3200000300F100009A
:1013860000000000000000FFFF0000000000000059
:10139600180516610000FF0CB7FFFFFF32000007BB
:1013A60000C107720000FF0CC6FFFFFF32000007F6
:1013B60000C207720000FF0CD5FFFFFF32000007D6
:1013C60000C307720000FF0CE4FFFFFF32000007B6
:1013D60000C407720000FF0BA0FFFFFF32000003EE
:1013E60000F1000000000000000000FFFF00000008
:1013F600000000000000FF0D26FFFFFF3200000482
:1014060000B20E350000FF0D35FFFFFF320000046D
:1014160000B30E350000FF0D44FFFFFF320000044D
:1014260000B40E350000FF0D53FFFFFF320000042D
:1014360000B50E350000FF0BA0FFFFFF32000003D2
:1014460000F1000000000000000000FFFF000000A7
:1014560000000000180516610000FF0C9FFFFFFF4B
:101466003200000700CD07CE0000FF0CA2FFFFFFF1
:101476003200000700CE07ED0000FF0CA5FFFFFFBE
:101486003200000700CF080C0000FF0BA0FFFFFF93
:101496003200000300F1000000000000000000FF21
:1014A600FF00000000000000180816610000FF0B96
:1014B60061FFFFFF32139A0100000E360000FF0D98
:1014C600CEFFFFFF32145E0100000E360000FF0C57
:1014D600A8FFFFFF3200000700C6082B0000FF0B25
:1014E60070FFFFFF3200000700C708590000FF0B1E
:1014F6008EFFFFFF3200000700C8088E0000FF0BBA
:101506007FFFFFFF3200000400C90E350000FF0D0B
:1015160017FFFFFF3213FA0100000E360000FF0B23
:10152600A0FFFFFF3200000300F1000000000000F2
:10153600000000FFFF000000000000000204FF3270
:101546000DEC000000FFFF32FF132601009F13225F
:101556000DF0000000FFFF32FF0E3E0100000E3AC4
:101566000DF4000000FFFF32FF14B201009F14AE1D
:101576000DF8000000FFFF32FF11C601000011C286
:1015860000000000000000FFFF0000000000000057
:101596000000000000FFFF32FF1546010000154263
:1015A60000000000000000FFFF0000000000000037
:1015B60000000064003200020034001A0001002C12
:1015C600001600000037001C000000C70064002D54
:1015D60000D200800000000700030000003F00204A
:1015E600002D00D200800000001F00100019007DB1
:1015F600005A001E00820069FF830018001E0000CA
:1016060000FF0080FF80007F00000000000700034D
:101616000000007F004011111171113B161A0102E2
:1016260001342C342C024B323232323232324B32CB
:1016360032321110131415707174727370717472E2
:101646007378630080800060808080802080808046
:10165600803B68F890900060808080802080808049
:10166600800358F8A0A00060808080802080808061
:101676008003322528282D64323232323232000A73
:10168600006000610062006300660067006800B9E0
:1016960000FC13DBA67B0060000017481BDB807B89
:1016A6000000000017481EF2807C800001B6314819
:1016B60026D58069000000006FDF13D4A691006074
:1016C6000000174821D4809100000000174813F24B
:1016D6008092800001B6344813DC807F0000000051
:1016E600605A14008B7C01500000294814DC807C71
:1016F60000000000294814F2807C800001B62948C9
:1017060014DC805F000000007B5A0C008B940150B3
:1017160000002D480CDC8094000000002D480CF2DF
:101726008094800001B62D480CDC807F000000000C
:10173600605A3AF680FB0050000026483AC380FB08
:101746000000000026483ACC80FB800001B62648FF
:101756003AC380BE00000000705A3FF98029045049
:1017660000002E483FC38029040000002E483FD0C9
:101776008029840001B62E483FC380E8000000009F
:10178600805A28A4806A04500000165A2884806A69
:1017960004000000165A2889806A84350035165AD6
:1017A6002884801C040000006B5A23F9801404501E
:1017B60000001F5A23C88014040000001F5A23F09B
:1017C6008014843501871F5A23C880E70000000073
:1017D600565A202020496E70757420203A20202009
:1017E60020202020202020202020200020202053E0
:1017F600797374656D203A20202020202020202037
:1018060020202020200020202048204672657120BC
:101816003A2020202020206B487A202020202000FB
:10182600202020562046726571203A202020202054
:101836002020487A202020202000202020462F57D4
:10184600205265763A2020202020202020202020AB
:101856002020200000000000000000000000000022
:10186600000000000000000000000000000001026F
:101876000205050403040404040404040404040423
:1018860004040404040404032020201C2020202037
:101896002020202020200020202020202020202062
:1018A6002020002E003A000101010101010102027F
:1018B60002020202020505050505050404040404E6
:1018C6000403202020000404040404032020200034
:1018D6002020202020202020202020002020202022
:0818E60020202020202020001A
:107B8100410121FF4101220041012700C120C11F04
:107B910041010F0041012400410129004101280058
:077BA10041011C0001790005
:104F9900D3900011E09400900010E09400227E006C
:104FA900900011E09000105403FFEEF0A3EFF022FF
:104FB90090010DE0FEA3E0F5828E83229000267A0F
:104FC900007927E0FF7E007B0190002F124A267BA3
:104FD900FF22EE900010F0A3EFF02275F0101249B5
:104FE900FA740E93FB740F93900110CBF0A3EBF0BE
:104FF9008F828E83ED75F0101249FA740993FF744C
:105009000A9390010DCFF0A3EFF022900029E0243C
:10501900F1FF900028E034FFFE90002D024A06754A
:10502900F0101249FA740D93227A1579C89000325A
:10503900124A267A1579B62290001F124A06900064
:105049000E1247DFAAF0F97BFF90002D124A269035
:10505900001F024A06900010A3E0FD22E0FDE49043
:105069000035F0A3EDF022E0FF900010E4F0A32258
:1050790090010DE0FEA3E0FFF5828E8322E490000B
:1050890010F0A3F022900028E0FEA3E0FF22E0FE4A
:10509900A3E0FF7B019000547409F02290010DE018
:1050A900FEA3E0FFEE90011DF0A3EFF0A322FD7532
:1050B900F00A84E5F02430F0ED75F00A84227E00D0
:1050C90090012AEEF0A3EFF022E0FEA3E0FF9001A9
:1050D90010E0FCA3E0F5828C832290000EE09000A2
:1050E90010A4FFE5F08FF002479E75F0101249FAFF
:1050F900740E93FC740F93AA04F97BFF90000712B6
:105109004A268F828E83227D017BFF7E00024683A1
:10511900FFE975F003A42416F582E43400F583222F
:10512900900010E0FEA3E0FF900110E0FAA3E0F583
:10513900828A83740393FDE49322EFF090000FE0D9
:105149002290004CE475F001124A0F0246A9900022
:1051590002124A5B900127E075F003A4F58285F0FD
:1051690083024A5BF0A3EFF0D39015B67401939FC5
:10517900EE6480F8E49364809822FF900028E0347C
:10518900002290010DE0FEA3E0AA06F97BFF22753B
:10519900F0100249FAA3E475F00102479EE0FEA36C
:1051A900E02DFDEE3CFCEDA4FBAAF0FF900018E019
:1051B900229015B8E493FE740193FF22900010E445
:1051C900F0A3740EF022F0E0FF25E02422F582E43A
:1051D9003416F583E49322F0EF25E02423F582E4E5
:1051E9003416F583E493227E00EEF0A3EFF07B0101
:1051F90022EEF0A3EFF0A32290000D0246C2C39065
:105209000011E09403227D017BFF7E007F0C0246A2
:105219008390012CE0640122740E93FB740F939028
:105229000110CBF0A3EBF022EF54F8FFA3E05407F1
:105239004FFB7D177F8A22900011E02403F0900034
:1052490010E03400F02290000CE0FEA3E0FF900093
:105259000AA3E0FD22FFE493FC740193FDC3EF9DD3
:10526900FEE49C2290000EEEF0A3EFF0FD900014F6
:10527900E0FF22E57925E02414F582E43401F58381
:105289002235F0FA7BFF90000BE0900054F02224C5
:1052990040F582E43400F5832290012AA3E0FF223D
:1052A900E0FFA3E090011DCFF0A3EFF0227D187C71
:1052B90000124701EF22FFE08FF0A4FF22A3E05480
:1052C900074438FB7D787F8A22C3900011E0940659
:1052D90022F090003AE004F022E0FEA3E0FF7B0117
:1052E90022E0FF7E007B017A00792822FBC3EF9B35
:1052F900FFEE9400FEC322C3900011E0940222E065
:10530900FD75F00A84E5F0243022F9E43AFA024AFC
:10531900262FFFE035F0FAA9077BFF22E024052FAD
:10532900F075F0058422FFE4F0A3EFF0229000135A
:10533900A3E0FF22FF7E007B017A007927229FEEFE
:105349006480F8EC64809822124A060246A97D32EC
:105359007F267E002275F011A4248FF9748022F52E
:1053690082E43400F583EEF022F582E43400F5831B
:03537900EEF02231
:03000E0012C343D7
:0100110022CC
:05796000900012EFF0A1
:1079650012000E900017EFF0900012E0B401047FB2
:107975000180027FFF900017125325E5F01251CFC9
:10798500FEFD900013E4F0A3EDF0900125E0FDC3AA
:10799500900014E09DF0900013E09400F090012514
:1079A500EE1251E0FFFD900015E4F0A3EDF090011B
:1079B50026E0FDC3900016E09DF0900015E09400D0
:1079C500F0900126EFF09000187401F0900018E097
:1079D500FFD39404506D12B4A8AD07AC0690001304
:1079E50075F0081251A6F975F003A42417F582E481
:1079F5003400F583EFF0EA125119EFF0AF0112B040
:107A0500DFAC06AD0790001575F0041251A675F0B0
:107A150003A42418F582E43400F583EFF0EAC4F8F2
:107A250054F0C8EBC4540F485470FF900018E0F9A7
:107A350012511BE04F125119EFF0900018E004F0BD
:107A45000279D112BCCF7DE07F8A12B98BEF54EF5A
:107A5500127AC09000187401F0900018E0FFD394DA
:107A6500045031EF14FB7D9E7F8A12BE6A90001888
:107A7500E075F003A42416F9740035F0FA7B019043
:107A8500005A7403F07DA07F8A12B722900018E097
:107A950004F080C57DE07F8A12B98BEF4410127A1D
:107AA500C0900017E0FF12C2C912BCCFE4FB7D9065
:0A7AB5007F8A12BE6A900017E0FFFE
:0A7ABF0022FB7DE07F8A12BE6A22DE
:106C1600901622E493900125F0901623E4939001B8
:106C260026F0E4FF12C2C97FB0126DA77FA0126DD5
:106C3600A77FA07E0012BE4490014AEFF07FA1120A
:106C46006DAF7FA2126DAF7FBA126DBE7FA4126DBB
:106C5600BE7FAB126DB67FA3126DCD7FBB126DCD1D
:106C66007FA5126DB67FA6126DC57FA7126DC57F73
:106C7600A8126DD47D327F387E0012B586900173DE
:106C86007432F0E4FF1288307D327F377E0012B511
:106C9600867D037FB27E0012B5867FBC126DD47FDF
:106CA600BD126DE37FBE126DE3900102E0700FFD31
:106CB6007FAEFE12B5867D017FAC7E00800E7D0D17
:106CC6007FAE7E0012B586E4FD7FACFE12B586E48B
:106CD60090013DF07D027FAAFE12B5867FA9126D56
:106CE600FCE4FF12B40F7BFF7A00796612C1427D85
:106CF600337FA07E0012BCFC7FB2126DFC7FB31204
:106D06006DDB7FB4126DDB7FB5126DF47FB6126D4D
:106D1600F412872BE4FF12C2E47D017FBF7E0012CE
:106D2600B5867FBF7E0012BE44EF24FF9209E4FDC4
:106D36007FB8FE12B5867FB87E0012BE449000FF73
:106D4600EFF07D017FB77E0012B5867FB77E001219
:106D5600BE449000FAEFF07D027FB97E0012B58640
:106D66007FB97E0012BE449000ECEFF0E4FD7FAFE9
:106D7600FE12B586E4900137F090010104F0FD7F24
:106D8600C57E0012B5867F1B126DEA7F1C7E02123D
:106D9600B5867F1D126DEA7F1E7E0212B58602A69B
:106DA600077D017E0012B58622E4FDFE12B586221D
:106DB6007D017E0012B58622E4FDFE12B586227D97
:106DC600017E0012B58622E4FDFE12B58622E4FDA0
:106DD600FE12B586227D017E0012B58622E4FDFEF6
:106DE60012B58622E4FD7E0212B586E4FD227D01FF
:0D6DF6007E0012B58622E4FDFE12B5862255
:10C1BF0012C34B900127EFF075F00584AFF0EFF04D
:01C1CF00224D
:10C07F00EFB401047F0180027FFF90012712532547
:0CC08F00AFF0EFF012C2E4900127E0FFD8
:01C09B002282
:05AC1D00900014EDF0B1
:10AC2200EF75F003A42481FEE435F0A3F0A3CEF087
:10AC3200E4A3F0900017E0FFC39403504390001682
:10AC4200E02FFF900015E03400FE12BE4490001881
:10AC52001251F07A00791A124FD2125032129A77A8
:10AC6200900017E02471FD90001AA3E0FF900014F9
:10AC7200E02FFB7F8A12BE6A900017E004F080B3D7
:01AC820022AF
:10A98200EFB401047F0180027FFF90012BE02404D9
:10A99200FD90012AE03400FCEF3395E0FEED2FFF3D
:10A9A200EC3EF0A3EFF07E0090012A124FB0FD7F43
:10A9B2008012B5867F107E0012BE447E007B017A33
:10A9C200007912124FD27A1579CE125036129A7736
:10A9D2001252A2900012A3E0FD12AC1D7F807E00F5
:10A9E20012BE44EF64037BA860047D3080027D3296
:0AA9F2007F3E7E0012BBDF1252A26E
:01A9FC002238
:05992300900012EFF0BE
:10992800ED90012BB4010DE02401FF90012AE034F1
:1099380000FE800BE024FFFF90012AE034FFFE9038
:109948000013EE12516D50151251BA900014E09F99
:10995800EE6480F8900013E064809840030299CA8E
:10996800900013E0FEA3E0FF1250C97B017A007952
:1099780015124FD2125032129A77900012E0248AB0
:10998800FFE433FEA3A3E0FD12B5867F107E00122C
:10999800BE449000131251F07A007917124FD27A10
:1099A8001579CE125036129A77900012E02471FD84
:1099B800900017A3E0FF900015A3E02FFB7F8A1209
:0599C800BE6A1252A26C
:0199CD002277
:10B087007D707F8A12B98BEF54BFFB7D707F8A1268
:10B09700BE6A7D7412B0D57D757F8A12BE6A7D76D1
:10B0A70012B0D57D717F8A12BE6A7B807D727F8ADE
:10B0B70012BE6A7B807D737F8A12BE6A7D707F8A2B
:10B0C70012B98BEF4440FB7D707F8A02BE6A7B809A
:08B0D7007F8A12BE6A7B802211
:068B120090001FEFF0FDD2
:108B18007F0B7E0012B58690001FE06403606CE452
:108B2800A3F0A3F0900020E0FEA3E0FFC3940FEEB3
:108B380064809480503B90001FE0C454F02448F5B2
:108B480082E43416F583E5822FF582E5833EF583CA
:108B5800E493FB900020A3E02438F58274163EF5D8
:108B680083E493FD7F8A12BE6A90002012519F8091
:108B7800B390001FE0C454F02457F582E43416F58E
:0B8B880083E49390002212532F804ED4
:108B9300E4FF12C36A12B7E37F0112C36A12B45C23
:108BA3007F0212C36AAD07E4FF12AA6F7F0312C3E9
:108BB3006AAD077F0112AA6F7F0412C36A12AADF8C
:108BC3007F0512C36A7E009000241251F27A007965
:0E8BD30022124FD27A167910125036129A776B
:108BE1009000221252C612BE6A7D177F8A12B98B7B
:098BF10090002212523112BE6AFA
:018BFA002258
:03C383007F002216
:07C36A0012C2AC1250C72201
:059DA600900012EFF037
:109DAB00EDB401067E007F0180047EFF7FFF9001F2
:109DBB002AE0FCA3E0FD2FFFEC3EFE9000131251B6
:109DCB006D50161251BA900013E0FAA3E0FB9FEE10
:109DDB006480F8EA6480984003AF0522900012E09B
:109DEB0014601814601D14601A14602724FE602B75
:109DFB002406702DAF0312B7E3802612533612B42C
:109E0B005C801E900012E024FEFFA3A3E0FD12AACB
:109E1B006F800E12533612AADF800612533612AB26
:109E2B00B4900012E0FFA3A3E0FD12C2D290001386
:089E3B00E0FEA3E0FF1250C994
:019E430022FC
:05B7E300900026EFF0CC
:10B7E80012C37D900026E0BF010C12533D124FD2C8
:10B7F8007A1579F8800A12533D124FD27A1579F2E8
:10B80800125036129A779000FBE090161B93FD9029
:0AB818000027A3E0FB7F8A02BE6A4E
:05B45C00900026EFF056
:10B461009000FBE064047017124FC57A1579D4126D
:10B471005036129A77900027A3E0FB7D7480221248
:10B481004FC57A1579FE125036129A7712C383EF9F
:10B491009000276007A3E0FB7D3A8005A3E0FB7DD8
:06B4A100107F8A12BE6A52
:01B4A7002282
:10ABB4007E007B017A007915124FD27A1579EC1256
:10ABC4005036129A777DFF7F8A12B98B900017EF67
:10ABD400F0E47DFF12AC167DBE7F8A12B98BEF5470
:10ABE400CF44107DBE12AC167DC47F8A12B98BEFA0
:10ABF4005480FD900015E0A2E713A3E0134DFB7D04
:10AC0400C47F8A12BE6A900017E0FB7DFF7F8A0230
:02AC1400BE6A16
:07AC1600FB7F8A12BE6A22D7
:05AADF00900026EFF0DD
:10AAE4009000FBE06404702A9000267A0079271213
:10AAF4004FCC7A1579E0125036129A777D707F8A9E
:10AB040012B98BEF54C0FF900027A3E04FFB7D7078
:10AB1400802F900026E0FF7E007B017A00792712C7
:10AB24004FD27A16790A125036129A7712C383EFEB
:10AB34009000276007A3E0FB7D3E8005A3E0FB7D3A
:06AB4400157F8A12BE6AB3
:01AB4A0022E8
:08AA6F00900026EFF0A3EDF0CA
:10AA770012C383EF60301252EA124FD27A16791658
:10AA8700125036129A77900026E0243CFD7F8A12F6
:10AA9700B98BEF5480FF900028A3E02FFB9000268E
:10AAA700E0243CFD802C9000271252EA124FD27A04
:10AAB700167904125036129A779000FBE090002620
:10AAC700B40405E024728003E02413FD900028A35A
:07AAD700E0FB7F8A12BE6A5A
:01AADE002255
:059B1C00900012EFF0C3
:109B21007D787F8A12B98BEF5407540F900015127C
:109B3100532F900012E0B401047F0180027FFFEFF8
:109B41003395E09000158FF012479E901610125138
:109B5100BD900015E0FCA3E0FDC3125347400D90FA
:109B610016121251BDD3ED12534740041252A222D4
:109B7100AF057E007B017A007913124FD27A1579F5
:109B8100B6900032124A267A167910129A7790000E
:109B9100151252C612BE6A7D177F8A12B98B9000C8
:109BA1001512523112BE6A900013A3E0FD7F051217
:0D9BB100C2D2900013E0FEA3E0FF1250C9E5
:019BBE002284
:10AC83009000FBE090000AF09000FB7401F090004C
:10AC9300FBE0FFC394075030EFB40413E4900009C2
