:10380B006873636F6D20312031206368303A312546
:10381B00316278206368313A3025316278206368F1
:10382B00323A3025316278206368333A3025316281
:10383B00780A0D006873636F6D2031203120636847
:10384B00313A3125316278206368303A3025316264
:10385B0078206368323A3025316278206368333AD6
:10386B0030253162780A0D006873636F6D2031204B
:10387B0031206368323A256278206368303A30250C
:10388B00316278206368313A302531627820636881
:10389B00333A30253162780A0D006873636F6D20FF
:1038AB00312031206368333A3125316278206368E7
:1038BB00303A3025316278206368313A30253162F5
:1038CB0078206368323A30253162780A0D006873CC
:1038DB00636F6D20322032206368303A31253162BC
:1038EB0078206368313A3025316278206368323A48
:1038FB003025316278206368333A30253162780A9B
:10390B000D006873636F6D20322032206368323A8A
:10391B00256278206368333A3125316278206368F9
:10392B00303A3025316278206368313A3025316284
:10393B00780A0D006873636F6D2032203220636844
:10394B00303A3025316278206368333A3125316261
:10395B0078206368313A3025316278206368323AD7
:10396B0030253162780A0D006873636F6D20322049
:10397B0032206368333A3125316278206368313AFB
:10398B003025316278206368303A302531627820F7
:10399B006368323A30253162780A0D006873636FC1
:1039AB006D20332031206368333A31253162782022
:1039BB006368303A3025316278206368313A3025BC
:1039CB00316278206368323A30253162780A0D0013
:1039DB006873636F6D20332033206368303A302572
:1039EB00316278206368313A302531627820636820
:1039FB00333A3125316278206368323A30253162AF
:103A0B00780A0D006873636F6D2033203420636870
:103A1B00303A3025316278206368313A3025316293
:103A2B0078206368333A3125316278206368323A03
:103A3B0030253162780A0D006873636F6D20342076
:103A4B0031206368303A3025316278206368313A2F
:103A5B003025316278206368323A30253162782024
:103A6B006368333A31253162780A0D006873636FEE
:103A7B006D20322032206368303A31253162782054
:103A8B006368323A3025316278206368313A3025E9
:103A9B00316278206368333A30253162780A0D0041
:103AAB006873636F6D20322032206368323A25626F
:103ABB0078206368313A3025316278206368303A78
:103ACB003025316278206368333A30253162780AC9
:103ADB000D006873636F6D20332033206368333AB6
:103AEB003125316278206368303A30253162782095
:103AFB006368313A3025316278206368323A302579
:103B0B003162780A0D006873636F6D2032203220AA
:103B1B006368333A3125316278206368323A302555
:103B2B00316278206368313A3025316278206368DE
:103B3B00303A30253162780A0D006873636F6D205F
:103B4B00332031206368333A312531627820636842
:103B5B00303A3025316278206368323A3025316251
:103B6B0078206368313A30253162780A0D0068732A
:103B7B00636F6D20332031206368333A3125316216
:103B8B0078206368313A3025316278206368323AA5
:103B9B003025316278206368303A30253162780AFB
:103BAB000D006873636F6D20332033206368333AE5
:103BBB003125316278206368303A302531627820C4
:103BCB006368323A3025316278206368313A3025A8
:103BDB003162780A0D006873636F6D2033203320D8
:103BEB006368333A3125316278206368313A302586
:103BFB00316278206368323A30253162782063680D
:103C0B00303A30253162780A0D006873636F6D208E
:103C1B00332033206368303A312531627820636872
:103C2B00313A3025316278206368323A302531627F
:103C3B0078206368333A30253162780A0D00687357
:103C4B00636F6D20332033206368303A3025316247
:103C5B0078206368323A3025316278206368333AD2
:103C6B003125316278206368313A30253162780A28
:103C7B000D006873636F6D20322032206368313A18
:103C8B003125316278206368303A302531627820F3
:103C9B006368323A3025316278206368333A3025D5
:103CAB003162780A0D006873636F6D203220322009
:103CBB006368313A3125316278206368323A3025B6
:103CCB00316278206368333A30253162782063683B
:103CDB00303A30253162780A0D006873636F6D20BE
:103CEB00322032206368313A3025316278206368A4
:103CFB00333A3125316278206368323A30253162AC
:103D0B0078206368303A30253162780A0D00687389
:103D1B00636F6D20332033206368313A3125316274
:103D2B0078206368303A3025316278206368323A04
:103D3B003025316278206368333A30253162780A56
:103D4B000D006873636F6D20332033206368313A45
:103D5B003025316278206368303A30253162782023
:103D6B006368333A3125316278206368323A302503
:103D7B003162780A0D006873636F6D203320332036
:103D8B006368313A3025316278206368323A3025E6
:103D9B00316278206368333A312531627820636869
:103DAB00303A30253162780A0D006873636F6D20ED
:103DBB00322032206368323A256278206368303AC9
:103DCB003025316278206368313A302531627820B2
:103DDB006368333A30253162780A0D006873636F7C
:103DEB006D20322032206368323A25627820636876
:103DFB00313A3025316278206368333A30253162AD
:103E0B0078206368303A30253162780A0D00687388
:103E1B00636F6D20322032206368323A256278203E
:103E2B006368333A3125316278206368313A302543
:103E3B00316278206368303A30253162780A0D00A0
:103E4B006873636F6D20332033206368323A2562C9
:103E5B0078206368303A3025316278206368313AD4
:103E6B003025316278206368333A30253162780A25
:103E7B000D006873636F6D20332033206368323A13
:103E8B00256278206368303A302531627820636888
:103E9B00333A3125316278206368313A302531620B
:103EAB00780A0D006873636F6D20332033206368CD
:103EBB00323A256278206368313A302531627820B6
:103ECB006368333A3125316278206368303A3025A4
:103EDB003162780A0D000D0A507265762E46573AFC
:103EEB0025303478000D0A437572722E46573A25E9
:103EFB00303478000D0A5B4D53475D6D61696E5F21
:103F0B00696E697428293D3E2072657620213D201B
:103F1B00465756455220262063616C6C20436C65D6
:103F2B0061724261736963454528290D0A000D0AC8
:103F3B0043616E6E6F7420616363657373204545D7
:103F4B0050524F4D21212121000D0A4E6F20696ED9
:103F5B00697469616C697A65005457383831360079
:103F6B005457383831364200545738383137004EB1
:103F7B006F7468696E67202D2D3078253032780D7F
:103F8B000A00436865636B20616761696E202D2DA4
:103F9B003078253032780D0A004C617374204368F9
:103FAB0065636B202D2D3078253032780D0A00FF9C
:103FBB00380BFF383FFF3873FF38A5FF38D9FF396F
:103FCB000DFF393FFF3973FF39A7FF39DBFF3A0F7D
:103FDB00FF3A43FF3A77FF3AABFF3ADDFF3B11FF66
:103FEB003B45FF3B79FF3BADFF3BE1FF3C15FF3C06
:103FFB0049FF3C7DFF3CB1FF3CE5FF3D19FF3D4DCB
:10400B00FF3D81FF3DB5FF3DE7FF3E19FF3E4BFFF7
:10401B003E7DFF3EAF2D2D2D3E2050616E656C3ADF
:10402B0020575647412D3830302A343830202D2D2B
:10403B00205449434F4E4C45535320485320376926
:04404B006E63680038
:107B0B00012D00013000C10DC10C02310000012F0D
:107B1B0000024C000041013B01C10EC10F41013E6F
:107B2B000041013C0041013F0044014000000000C6
:10B01A00ED90001DF090001BE090001E2290001B96
:10B02A00E090001DF022EBA3F090001CE090001FBE
:10B03A0022FFEA33FE7C007D14124713744E2DF86A
:10B04A00E62290001CE0A3F0A32290001DF09000DD
:10B05A001CE090001E22900029F0A3EFF07BFF2253
:108285007B107DE07F8A12BC4B12AA7E900000EE27
:1082950012B0637A3E79E1900029EEF0A3EFF01277
:1082A500BBB112AA7EEF64107003EE640260287BF6
:1082B500FF7A3E79F09000297402F0A37410F01251
:1082C500BBB17F107E0212B43C12AA7EEE12B060E2
:1082D5007A3E79F012BBB112AA7EEF64107003EEFC
:1082E50064027033900000E064027004A3E064103F
:1082F500601B900101E0FF12C0957F0112C0B91209
:10830500BB8A7BFF7A3E79FF12BBB1802C12C10973
:10831500900101EFF080227BFF7A3F793912BBB1E2
:108325007BFF7A3F795412BBB190010174FFF07F56
:108335000112B7E1E4FF02A0F57F087E0012BC251B
:1083450090010DEFF06004E0FF80027F0112B7E1BC
:1083550012A17E9000FC74FEF012AC5612B8537F49
:1083650006128A5D7F0A12BF3B12C00B7DFF128386
:10837500977D82128397E4FB7DFF7F8A12BC4B7B3E
:10838500FF7DD07F8A12BC4B7BFF7DD17F8A12BCDB
:018395004B9C
:09839600227B017F8A12BC4B22FC
:10B0BA0075F68775F65975BF10E4F5F6758DF47552
:10B0CA009850758922758855758A40758C407587A0
:10B0DA008075B80275A892D299D2ACF5C8C2CAD204
:10B0EA00AD75AA5075BAF443A61843AD10C20F75D0
:0FB0FA00DE4243D840F5B175B220F54AF5492240
:03000B000279AFC8
:0B79AF00C0E0C083C082C0D075D008CB
:1079BA00054B90013DE0600214F090013DE0703308
:1079CA00E5A05460C4135403FF900143E06F6023A1
:1079DA00900141E0900140F0900142E0900141F0B5
:1079EA00900143E0900142F0A3EFF0D21090013DE4
:1079FA007430F0E54BD394605003027B020534E502
:107A0A003470020533754B00052FE52F646460035B
:107A1A00027ABA90010CE094FF5003E004F0E565A5
:107A2A002401FFE43564FEE43563FDE435628F65C5
:107A3A008E648D63F562752F009000F3E0D3940194
:107A4A004003E014F090016DE0D394014003E01488
:107A5A00F090006AE004F0900147E0D394004003FC
:107A6A00E014F030110690013CE004F03004069076
:107A7A00013FE004F090006AE0B43C08E4F09000B2
:107A8A007DE004F090007DE0B43C08E4F0900089C9
:107A9A00E004F0900089E0B41808E4F0900088E06F
:107AAA0004F0E53090013E6005E004F08002E4F065
:107ABA00E54DF47003E54CF46008054DE54D7002A0
:107ACA00054CE5A0F4549C6029E52DB4030DE5A00E
:107ADA00F4549CF530C20CD20D8013E52DB4640E1B
:107AEA00E5A0F4549CF530D20CD20D752D50052D1D
:087AFA008006752D00753000B7
:097B0200D0D0D082D083D0E03253
:10BDE700E4F565F564F563F562900101F07F64128F
:0EBDF700BF3BC22112C0DDD2B47F0102BF3BB0
:10A06A00E4FD7F8A12B76FEF24DE601024D96014F2
:10A07A00242870197BFF7A3F7964800E7BFF7A3F30
:10A08A00796B80067BFF7A3F797302BF2012A0D6D4
:10A09A007A3F797A12BBB112C07FEF701B12A0D639
:10A0AA007A3F798D12BBB112A0E8EF60EAE4FD7F36
:10A0BA008A12B76FEFF460DF7F6312BF3B12A0E82A
:10A0CA00E412B0607A3F79A412BBB122E4FD7F8A20
:10A0DA0012B76F900029E4F0A3EFF07BFF227F63B1
:0BA0EA0012BF3BE4FD7F8A12B76F221B
:10BE0500EFB4010553E8FE8011EF700743E80153D5
:0EBE1500E8FD22EFB4020643E80143E80222F2
:03001300020026C2
:03002600C2AA3239
:0300230002B8C060
:10B8C000C0E0C0D075D00830981EC298AF997435CA
:10B8D0002549F8EFF6744E2549F8A60F0549E549C4
:10B8E000C394144003754900309904C299C20ED024
:04B8F000D0D0E032A2
:0300630002B98F50
:10B98F00C0E0C0D075D008E5AA30E01653AAFE7407
:10B99F0025252EF8A69A052EE52EC394084003758B
:10B9AF002E00E5AA30E10553AAFDC20FD0D0D0E09A
:01B9BF003255
:0BC07F00E549B54A037F00227F012243
:08000300200EFD8F99D20E22A0
:08C10100200FFD8F9AD20F22DE
:03002B0002BFCF42
:0FBFCF00C0E0C2CF0532E53270020531D0E0325A
:10BF3B00E52F2FFFE433FE7C007D64124713E52FC2
:07BF4B00B505FBE4B504F7A6
:01BF520022CC
:10B64400900026E4F0A3E52FF0E47B3CFAF9F8AF90
:10B6540065AE64AD63AC621248CEAC00AD01AE021F
:10B66400AF03E47B64FAF9F8124843900026EE8FA6
:0CB67400F012479E900026E0FEA3E0FFCD
:01B6800022A7
:10BD6B00C3ED9FEC9E5010C374709FFF74179EFE23
:0FBD7B00EF2DFFEE3CFE22C3ED9FFFEC9EFE225C
:08B32200900026EEF0A3EFF00D
:10B32A00900026E07002A3E06035E4900028F0A3C4
:10B33A00F0900028E0FEA3E0FFE4FCFD7BD8FAF9D8
:10B34A00F8D3124960400C900028E475F0011247C6
:0FB35A009E80DE90002674FFF5F012479E80C1A2
:01B3690022C1
:05607700900018EFF09D
:10607C00E4900025F0ED4410FDEB4410FBEF6405BB
:10608C006015900018E0FF6420600CEF642160073D
:10609C0090001BE04410F090001CE04410F09000C5
:1060AC0018E0124A8B611B00611D01612602612DF3
:1060BC0003613304614405614706615007612D0893
:1060CC0061700961700A611B0B61590C61610D6192
:1060DC002D0E617F0F618D10619811618D12619889
:1060EC001361331461A615611D1661B01761B918DF
:1060FC00611D1961C61A61B01B61261C61DA1D6134
:10610C00441E61261F61F12061DA210000620280C9
:10611C001690001DEBF0A3ED801412B027A3ED80B8
:10612C002F12B04CED801890001DEDF0A3EBF09009
:10613C00001BE090001F80250261E6ED12B054F0C8
:10614C00A3EB802812B04CEBF0A3ED801F12B01A19
:10615C00F0A3EB800812B027A3EBF0A3EDF09000B6
:10616C001C0261D390001DEDF012B030F090001BBA
:10617C000261D390001CE0A312B01EF0A3EB0261ED
:10618C00E012B04CEDF090001B0261FA12B04CEB37
:10619C00F090001BE090001F803A12B01AF09000B3
:1061AC001C0261FAEB12B01B12B0328027EB12B05A
:1061BC0054F0A3EDF090001B800D90001DEBF0ED62
:1061CC0012B031F090001BE0900020F0802812B04B
:1061DC002712B030F0A3EDF0801C12B02712B0588B
:1061EC00F0A3ED800D12B027A3EDF090001CE09011
:1061FC00001FF0A3EBF0E4900021F0900021E0FFF1
:10620C00C394145011744E2FF8E4F674352FF8E43F
:10621C00F6E004F080E59000FCE06403700C900163
:10622C0035E070061262BF0262BC9000257428F043
:10623C00E4900022F01262BF12B644900023EEF0FC
:10624C00A3EFF012B644C3900024E09FFF9000230C
:10625C00E09EFE12C073900025E0FDC3EF9D74809C
:10626C00F86E9840DEE4900021F0900021E0FFC32E
:10627C0094145029744E2FF8E664417018E0FB7AA0
:10628C0000240112B03BB4430CEB240212B03BB41B
:10629C004B037F0122900021E004F080CD7FC87E6B
:1062AC000012B322900022E004F0E0C39403408576
:0262BC007F0061
:1062BE0022900018E0FF3395E0FE903FBA75F00390
:1062CE00EF1249FAEE75F003A42583F583124A2FD7
:1062DE0090001DE0900029F090001EE090002AF042
:1062EE0090001FE090002BF0900020E090002CF02A
:0462FE0012BBB122FC
:109D9E000D0A2B2B28436C6561724F5344496E6636
:109DAE006F293A20446973706C617965644F53442E
:109DBE003A2532780020000D0A5B4D53475D446909
:109DCE0073706C6179496E7075742829203D3E2040
:109DDE0053656C6563744D6F6465547970653D4170
:109DEE00564D6F646520746F207365742074696DB1
:109DFE0065202620646973706C6179686F6C645F8E
:109E0E00666C61673D2562780020202054573838F3
:109E1E003036202020005465636877656C6C2C49C1
:039E2E006E630060
:047B3B0041016B0099
:0FBFED0075F011A4240FF9747E35F0FA7BFF2252
:0CC04F0090016BE0FEEFF4FFEE5FF022CA
:07C1410090016BE04FF022BA
:06C14F0090016BE0FF22ED
:10AF1D0012C14F90001CEFF012C14F900029E4F0C8
:10AF2D00A3EFF07BFF7A9D799E12BBB190001CE0E0
:10AF3D00FF20E20330E70512BBFFC20790001CE0C3
:10AF4D0030E00312BFDE90001CE030E40312BF536B
:10AF5D0090001CE030E10312B6FA90001CE030E6E0
:04AF6D000312C00B00
:01AF710022BD
:1091490090001B74C2F012AF1D7BFF7A847916124E
:109159009A857DFF7FA07E0012BADD7BFF7D327F7D
:10916900A07E0012B9C0E490001AF090001AE0FF46
:10917900C394F050197E007BFF7A9D79C390005407
:109189007401F012B95C90001AE004F080DD9001DE
:109199006BE04410F012C15BEF6401607790001A34
:1091A9007401F090001AE0FE75F011907E0E1249DC
:1091B900FAE4936F600890001AE004F080E5EE127B
:1091C900BFED12BF05900019EFF0A3E012BFED90BB
:1091D9000019E0900054F07FA07E0012B95C7FA3D3
:1091E9007E0012BC25BF01199000EFE070139000BA
:1091F900F37405F07BFF7A9D79C5900029F012BBC5
:10920900B17D017F0212B4807F0112BA8112B64486
:049219008E7A8F7B3F
:01921D00222E
:10BF5300E4FF12BA81E4FD7F0212B48090016BE02A
:06BF630054EFF07F012203
:1093B2007DFF1294677D82129467E4FB7DFF7F8AB2
:1093C20012BC4B90016BE020E27C12AF1D7F0A12AF
:1093D200BF3B7BFF7A847998129A857D327FC87E63
:1093E2000012BADD7B197D377FC87E0012B9C07BBF
:1093F200197D737FDD7E0012B9C012BF9D75F00327
:10940200EF900AE61249FA124A2FAE02AF0190001B
:1094120006EEF0A3EFF07BFF12BF05900006E0FC22
:10942200A3E0AA04F97BFF900054EFF07FC87E000E
:1094320012B95C7D017F0112B480E4FD7F0412B495
:10944200807F0112BA81301B059001708003900168
:109452006FE0FF129D0390016BE04404F012B644EA
:049462008E7A8F7BF4
:10946600227B017F8A12BC4B7F057E0012B322222B
:0FBFDE00E4FD7F0212B48090016BE054FEF0226C
:109C6700E4900006F012C14F900005EFF054967093
:109C770003029D00E030E11512C0E6900001EEF00E
:109C8700A3EFF0A37407F0A374D0F0801190000144
:109C9700E57AF0A3E57BF0A3E4F0A374C8F012B66D
:109CA70044AD07AC06900001E0FEA3E0FF12BD6BD8
:109CB700D3900004E09F900003E09E503C90000585
:109CC700E05484600D12BBFF900006EFF01291493B
:109CD700C207900005E030E11D12B6FA900006EFCA
:109CE700F07FA37E0012BC25BF01069000F374032A
:0B9CF700F0129149C2077F01227F009C
:019D0200223E
:10BBFF0090016BE030E20A7F0112BC1B54FBF08016
:10BC0F00087F0212BC1B547FF07F0122E4FD12B4A7
:06BC1F008090016BE022A1
:10AA7E00E4FFFE12BC25EF6454600280287F017E45
:10AA8E000012BC25EF64576002801A7F027E00120E
:10AA9E00BC25EF64386002800C7F037E0012BC255B
:10AAAE00EF64386004E4FEFF227F047E0012BC25B2
:10AABE00EF900002F0A3E4F07F05FE12BC2590009B
:10AACE0002E0FEA3E04FFF900002EEF0FEA3EFF0D7
:01AADE002255
:10B43C00900002EEF0A3EFF07D54E4FFFE12B36A2D
:10B44C007D577F017E0012B36A7D387F027E001229
:10B45C00B36A7D387F037E0012B36A900002E0FD70
:10B46C007F047E0012B36A900002A3E0FD7F057E8C
:04B47C000002B36AAD
:08C109007F067E0012BC252216
:09C09500AD077F067E0002B36ACC
:08C111007F097E0012BC25220B
:09C09E00AD077F097E0002B36AC0
:07C119007F0A7E0012BC2525
:01C1200022FC
:10A17E00E4900003F0900002F0900002E075F01100
:10A18E00907E631249FAE493124A8BA1B500A1C1E5
:10A19E0001A1CA02A1D303A1DC04A1E505A1EE062B
:10A1AE00A1F7070000A1FE900003E0FD7F0A7E00EC
:10A1BE0002B36A900003E04401F08034900003E0A3
:10A1CE004402F0802B900003E04404F080229000C3
:10A1DE0003E04408F08019900003E04410F0801072
:10A1EE00900003E04420F08007900003E04440F02C
:08A1FE00900002E004F08081F2
:07C121007F0D7E0012BC251A
:01C1280022F4
:09C0A700AD077F0D7E0002B36AB3
:0AC08A00EF2412FFE433FE12BC2580
:01C094002289
:09C0B000EF2412FF7E0002B36AC6
:09C0B900AD077F0F7E0002B36A9F
:07C129007F0C7E0012BC2513
:01C1300022EC
:09C0C200AD077F0C7E0002B36A99
:08C131007F387E0012BC2522BC
:09C0CB00AD077F387E0002B36A64
:08C139007F377E0012BC2522B5
:09C0D400AD077F377E0002B36A5C
:10BB8A00E4FD7FADFE12B36AE4900103F0FD7F0885
:10BB9A00FE12B36AE4FD7F0EFE12B36A12699D12A9
:07BBAA00AA187F01028B3F86
:10BE23009291D290120012C29022124A068E82750B
:0EBE330083001246C2FF22EFF0A3EDF0A3221F
:0BB36A00900028EEF0A3EFF0A3EDF040
:10B37500900028E0FEA3E07807CEC313CE13D8F9DA
:10B3850044A054FE90002BF012BF6990002BE0FF03
:10B3950012A8E0900028A3E0FF12A8E090002AE0A0
:0CB3A500FF12A8E01200167F0202BF3B5E
:04BC2500AD07AC06B5
:10BC2900ED7807CEC313CE13D8F944A054FEFF1202
:10BC3900B76F900033EFF07F0212BF3B900033E003
:01BC4900FFFB
:01BC4A0022D7
:08B76F00900034EFF0A3EDF0AF
:10B7770012BF69900034E0FF12A8E0900035E0FFA7
:10B7870012A8E012BF69900034E04401FF12A8E05C
:10B7970012B9F1900036EFF0120016900036E0FF74
:01B7A700227F
:10BC4B0090005512BE3AEBF012BF69900055E0FF21
:10BC5B0012A8E0900056E0FF12A8E0900057E0FF1A
:06BC6B0012A8E002001621
:08B6060090003412BE3AEBF093
:10B60E0012BF69900034E0FF12A8E0900035E0FF11
:10B61E0012A8E0E4900038F0900037E0FFA3E0C3FA
:10B62E009F5010900036E0FF12A8E0900038E00422
:06B63E00F080E502001699
:09B5060090005512BE3A124A26CB
:10B50F0012BF69900055E0FF12A8E0900056E0FFCF
:10B51F0012A8E0E490005BF090005AE0FFA3E0FE79
:10B52F00C39F501190005712BE2D12A8E090005BE0
:08B53F00E004F080E3020016B5
:09B7A800900021EFF0A3124A26E3
:10B7B10012BF69900021E0FF12A8E0E4900026F09A
:10B7C100900025E0FFA3E0FEC39F501190002212DC
:10B7D100BE2D12A8E0900026E004F080E3020016DE
:0100120022CB
:10BF6900D291120012D290120012C291120012C282
:02BF7900902214
:0D001600C291120012D290120012D291225B
:10A8E000C290EF30E703D38001C312BE23EF30E6FE
:10A8F00003D38001C312BE23EF30E503D38001C32D
:10A9000012BE23EF30E403D38001C312BE23EF3025
:10A91000E303D38001C312BE23EF30E203D38001EF
:10A92000C312BE23EF30E103D38001C312BE23EF75
:10A9300030E003D38001C312BE23C290C290D291F3
:09A94000D290D290D290C2902274
:10B9F100E4FFD291120012C290FDFCD290EF25E03B
:10BA0100FF3091034401FFC2900DBD00010CED64B4
:0FBA1100084C70E7120012D290D290D290C290DF
:01BA20002203
:106B8A000D0A504F52000D0A4D454E55000D0A4947
:106B9A004E000D0A5550000D0A444E000D0A534589
:106BAA004C000D0A4552524F52000D0A504F57459C
:106BBA0052206B657920000A0D62757377203020A8
:106BCA00312037452038300D0A000A0D6275737777
:106BDA00203020312037452038310D0A000A0D6255
:106BEA00757377203020312037452038320D0A005E
:106BFA000A0D6275737720302031203745203833EB
:106C0A000D0A000A0D62757377203020312037454E
:106C1A002038340D0A000A0D62757377203020314E
:106C2A002037452038350D0A000A0D627573772022
:106C3A003020312037452038360D0A000A0D62759A
:106C4A007377203020312037452038370D0A000A63
:106C5A000D62757377203020312037452038380D82
:106C6A000A000A0D627573772030203120374520DB
:106C7A0038390D0A000A0D627573772030203120E9
:106C8A0037452038410D0A000A0D627573772030A6
:106C9A0020312037452038420D0A000A0D627573EB
:106CAA0077203020312037452038430D0A000A0D5D
:106CBA0062757377203020312037452038440D0A19
:106CCA00000A0D627573772030203120374520384D
:106CDA00450D0A000A0D627573772030203120377E
:106CEA00452038460D0A0054726967676572466C1A
:106CFA0061673D25303278000D0A4D454E554B45AA
:106D0A0059206B657920000D4F53445F4C4F434B1C
:106D1A00000D0A4556454E544B4559206B6579205E
:106D2A0070726573736564000D0A5B4D53475D436A
:106D3A006865636B4B6579496E28293D3E20497326
:106D4A0052756E32383335436C6B54756E653D251A
:056D5A0062780020201A
:107B3F004101450041014A00410148004101460011
:107B4F004101490041014B0041014400C116017040
:037B5F0000C1184A
:10BF7B00E5A0F454906490227C007D0AAE02024747
:01BF8B0013A2
:0EC01A0012C14FEF30E10302002E12B8F422E3
:0DC0280012C14FEF30E1057F01126F1A22A7
:0DC0350012C14FEF30E1057F02126F1A2299
:10BECF0012C14FEF30E10B3020057F0102803D02A0
:0BBEDF0073FE7F011285B01293B222A7
:10BEEA0012C14FEF30E10B3020057F0202803D0284
:0BBEFA00002E7FFF1285B01293B222D1
:108F9600900004EFF0A3EDF012C05B900004E01225
:108FA6004A8B901A00901A01901A02901A03901A8E
:108FB60004901A05901A06901A07901A08901A0932
:108FC6008FEB0C904010904511902B1590581690F1
:108FD60021209026218FFF3890083A90663E904ACD
:108FE6003F0000906D74FF900109F0A3F09000051A
:108FF600E060037F01227F002212BD8A1294767FF1
:10900600012212C14FEF30E40512BF5380031291C3
:10901600497F0122900005E07F012212C028804787
:1090260012C0358042900005E060037F012212C124
:109036004FEF30E1321273FE802D12BECF80281220
:10904600BEEA8023900005E060037F012212C01A69
:10905600801512C14FEF30E10E7FF4129070800739
:0A9066007D017FC0122DE07F012282
:104AEB009000017401F0301826201623C3E565955C
:104AFB0074FFE5649573FEE5639572FDE562957150
:104B0B00FCE47B0AFAF9F8D31249605002C2187F11
:104B1B000112ADC0900002EFF07003024F53E0247E
:104B2B00F8601C24F8602024F0602424E060282422
:104B3B00C0602C247C70307BFF7A6B798A802E7B53
:104B4B00FF7A6B799080267BFF7A6B7997801E7B3F
:104B5B00FF7A6B799C80167BFF7A6B79A1800E7B39
:104B6B00FF7A6B79A680067BFF7A6B79AC12BBB1AF
:104B7B007FAC7E0012BC25900003EFF012BF7B7060
:104B8B0053E070507FD07E0712B32212BF7B6008B8
:104B9B0090014AE06403703C7D017FAC7E0012B350
:104BAB006A9000037401F0FF128A5DE4900002F03A
:104BBB007FD07E0712B322900135E030E5051286D7
:104BCB00AD800F12C00BE4900147F090014AF01238
:104BDB009149C207900135E0600C900002E064102F
:104BEB006004E4024E0C900147E07013900003E068
:104BFB00700D90014AE06007E4F07F0112BE059052
:104C0B000002E0601BA3E0701712BF7B60129001E3
:104C1B0035E0700C12AF1DE4124F7CC2077F0122EE
:104C2B0012C05B900002E0124A8B4EDB024C540424
:104C3B004D6A084F260C4E33104DC9204DE6404EA1
:104C4B0015804EE39000004F537BFF7A6B79B412C3
:104C5B00BBB1201603024D2AE570C3940F4005E447
:104C6B00F57080020570E570124A8B4CAF014CB7A2
:104C7B00024CBF034CC7044CCF054CD7064CDF0787
:104C8B004CE7084CEF094CF70A4CFF0B4D070C4D4A
:104C9B000F0D4D170E4D1F0F00004CA77BFF7A6BAE
:104CAB0079C180767BFF7A6B79D4806E7BFF7A6BD0
:104CBB0079E780667BFF7A6B79FA805E7BFF7A6C93
:104CCB00790D80567BFF7A6C7920804E7BFF7A6C56
:104CDB00793380467BFF7A6C7946803E7BFF7A6C1A
:104CEB00795980367BFF7A6C796C802E7BFF7A6CDE
:104CFB00797F80267BFF7A6C7992801E7BFF7A6CA2
:104D0B0079A580167BFF7A6C79B8800E7BFF7A6C65
:104D1B0079CB80067BFF7A6C79DE12BF20804C7BCF
:104D2B00FF7A6C79F1900135E0FF900029E4F0A354
:104D3B00EFF012BBB1201223900135E06003024F5C
:104D4B0053FD7F0C128F96900001EFF0E49000EE74
:104D5B00F0FD7FABFE12B36A024F53C212804B7B46
:104D6B00FF7A6D790212BBB130160AAF707E00125A
:104D7B00A522024F53201241900003E0700D124FF9
:104D8B007C7BFF7A6D7911E4024F1D12C14FEF301E
:104D9B00E10B30200280191273FE024F5312C14FE8
:104DAB00EF30E20C12AF1D12B6FA129149024F53BB
:104DBB007F3F124F72F0024F537F09024ED32012E6
:104DCB001512C14FEF30E1077F01302023801B7F8D
:104DDB0010124F72802B7F06024ED320122712C166
:104DEB004FEF30E1117F0230200612803D024F530E
:104DFB00126F1A024F53E4FD7F11128F9690000130
:104E0B00EFF07F01227F07024ED32012169000EFA6
:104E1B00E0700A12C14FEF30E10312B6FA129EC1D5
:104E2B00024F537F05024ED3900135E0FF6009908E
:104E3B000103E07003024F53EF6046900149E070AD
:104E4B0040900103E0640170387FACFE12BC25EF8B
:104E5B0064016003024F53900135E030E50312C04B
:104E6B000B9001497401F0900144E07008900133FC
:104E7B00E090014BF09001447401F0900133F0800D
:104E8B003F201242900149E06017E4900135F09009
:104E9B0001377407F0E4900149F0900133F0024FB1
:104EAB00539000EFE0700A12C14FEF30E10312B6DE
:104EBB00FA900133E0700404F08005E4900133F0C4
:104ECB0012AD0C024F537F04126791D217024F534E
:104EDB007BFF7A6D791B803E90016FE064147068E4
:104EEB00301865301614C2167F0112BE057D027F85
:104EFB00A07E0012BADDC218800ED2167F0212BE3F
:104F0B0005AF707E0012A5227BFF7A6D7932A21657
:104F1B00E433900029F012BBB1802D90016FE06457
:104F2B001770257F0212BE057F647E0012B322121A
:104F3B004F59124F597F0112BE05D21885657485E2
:0D4F4B006473856372856271900001E0FF60
:104F5800227F0112BE057F647E0012B3227F0212F7
:104F6800BE057F647E0012B32222E4FD128F969064
:104F78000001EF22FF128A5D7FF412BF3B12C00BC3
:044F88001291492217
:10ADC000A20D9221C20D30103AE5307036D221909A
:10ADD0000140E0FEB40313A3E0B4020EA3E0700A46
:10ADE000A3E0B401057530408017EEB40313900161
:10ADF00041E0B4010CA3E07008A3E0B40203753095
:10AE000020C2102021037F0022EF6003AF302220F8
:07AE10000C03AF30227F00AC
:01AE17002218
:08A52200900004EEF0A3EFF03D
:10A52A0078067C007D017BFF7A6D795D7E007F0273
:10A53A00124683900004E0FAA3E0FBFF12BF83ED0A
:10A54A002430900007F0AF0312BF83900004EEF0AE
:10A55A00A3EFF02430A3F07BFF7A84794E129A8518
:10A56A007F1012C1417D027FA07E0012BADD7B02FC
:10A57A007D377FA07E0012B9C07B017A00790690F0
:10A58A0000547402F07FA07E0012B95C7D017F0244
:08A59A0012B4807F0102BA81B6
:107DAE000D0A43485F545732383335282530327820
:107DBE00292C526561644465636F6465722830785E
:107DCE003636293D256278000D0A2043485F41561C
:107DDE002825303278290020200A0D000A0D627500
:107DEE00737720302031203745203839000A0D6254
:107DFE00757377203020312037452038390D0A0031
:107E0E00FE00000000000000000000000000000066
:107E1E000001435642530000000000000000000025
:107E2E0000000243414D204400000000000000000D
:107E3E00000000034156202000000000000000005A
:107E4E000000000000000000000000000000000024
:107E5E000000000000FE0000000000000000000016
:107E6E00000000000000014E5453430000000000CB
:107E7E00000000000000000250414C000000000015
:107E8E00000000000000000003534543414D000078
:107E9E000000000000000000000550414C4D0000A5
:107EAE00000000000000000000000650414C4E0093
:107EBE0000000000000000000000000750414C369A
:107ECE00300000000000000000000000044E54537B
:107EDE0043342E3433000000000000000000000088
:0E7EEE00000000000000000000000000000086
:107B6200C10BC104C1024100F600011D004400F72F
:107B720000000000440104000000004100F0004148
:107B820000EB00C185011F00011300011100011269
:107B920000011E00011500011400011A004100FF3E
:107BA200004100EC004100F2004100FD004100F5FF
:107BB20000C1004100FE00C106C101C183C107C16D
:017BC2000AB8
:10B3B10074F72FF582E43400F58322EF75F011A4C0
:10B3C100240EF582E4347EF583E49322F074042F95
:10B3D100F582E43401F583229000010246C2E4FBC8
:10B3E1007DFF7F8A22E4F51BF51CF519F5182290E3
:06B3F100001DE004F02243
:06B1090090001F124A260F
:10B10F00E4FE1246A9900022F012B3D980299000D4
:10B11F001F124A061246A9FFB4FF0612B3D9F460F4
:10B12F0022900023EFF0FD12B3D9900024F0FB9092
:10B13F000022E0FF12BC4B900020E475F002124792
:09B14F009E80CB12B3DF02BC4B61
:10A41F0090001EEFF07BFF7A5D79D712B10912B36E
:10A42F00DF12BC4B90001EE024FE6013146010245A
:10A43F00FD600C240624F85011240A600D80117B56
:10A44F00FF7A5F792712B109800690001E7401F020
:10A45F009000FCE0B4051390010DE07002800B90AA
:10A46F00001EE014FF12BE5E800312BD4B7B157DF4
:10A47F00297F8A12BC4B7B067D5C7F8A12BC4B7F87
:10A48F000B7E0012BC2512889212C111128B3FC293
:02A49F00232276
:10BF8C007D017F8A12B76FEF30E7037F01227F00BC
:01BF9C002282
:1092ED00E490001BF0A3F09000FCE0B405099001A0
:1092FD000DE060030293A0E4900019F012AEC79048
:10930D00001AEFF090001CE004F0E0C3940A400353
:10931D000293A090001AE0FF64FE60E09000F1E07F
:10932D00FEEF6E60D7900019E0FFA3E0FEB50706D3
:10933D00A3E004F0800AE490001BF0900019EEF019
:10934D0090001BE0C3940240B390001AE0FF700B35
:10935D0012B7E190001D7401F080309000F1E070C3
:10936D00119000EFE0700630070312C00B1293A1AD
:10937D0080149000EFE0700630070312C00B1293BB
:10938D00A17F3212BF3BE490001DF090001DE02440
:03939D00FF920A32
:1093A0002290001AE0FF12B7E190001AE0FF12A429
:0293B0001F227A
:10BD280012BF8CEF60037F01227D1C7F8A12B76FE0
:10BD3800EF54F0FF30E7037F0122EF5470C4540F33
:02BD480004FFF6
:01BD4A0022D6
:10AD670012BD28AB07EB24FE601914601624FD60A2
:10AD770012240224FC500424077017751B00751C4D
:10AD87003C8006751B00751C32E475196B75183D00
:10AD9700800312B3E6F517F516E4FFEF75F011A47B
:10ADA7002463F582E4347EF583E493FEB503012240
:08ADB700EE60030F80E57F0050
:01ADBF002271
:06C155009000F1E0FF2262
:10B7E1009000F1EFF024FE601914601624FD601240
:10B7F100240224FC500424077017751B00751C3C9F
:10B801008006751B00751C32E475196B75183D8037
:09B811000312B3E6F517F5162247
:06C15B009000FCE0FF2251
:10BD8A007F0112B3BCFE9000FCE0FDEE6D60030F74
:0EBD9A0080F00F12B3BC70027F0112B3BCFF29
:01BDA8002278
:09C0DD00302103D2B722C2B722C0
:10947600900018EFF09000FCE06F700302952890C2
:10948600013AE0B4010543E804800312B7359000C1
:1094960018E09000FCF09000F1E0FF12A41F90008D
:1094A600FCE024FD60202402703A12BCBC1295290F
:1094B600C2957D667F8A12B76F90002BEFF07BFF17
:1094C6007A7D79AE800E12BCE0129529D2957BFF8B
:1094D6007A7D79D69000FCE0FF900029E4F0A3EFB6
:1094E600F012BBB112AE189000FCE0FF12C0B97FBB
:1094F6001E12BF3B1292ED12914990013AE0B4015F
:109506000553E8FB8005E4FF12A0F57F6412BF3B1C
:109516007BFF7DD07F8A12BC4B7BFF7DD17F8A1279
:0D952600BC4B22C21BE4FF1285B0C2942290
:0DC04200C22112C0F843E804E4FF02BE056D
:0CC05B0012B644900109EEF0A3EFF022B1
:09C0E600900109E0FEA3E0FF2235
:108C2000C374FF9FFFC39400400CEF94645007E4AB
:108C3000900002F0804BEFC39464400DEF948C5091
:108C4000089000027414F08038EFC3948C400DEF4C
:108C500094B450089000027428F08025EFC394B4B7
:108C6000400DEF94DC5008900002743CF08012EF4D
:108C7000C394DC400CEFD394FF5006900002744B79
:108C8000F0900146E0702C9000F6E0C3940F500580
:108C9000E004F08024900002E0FFE51DD39F400433
:108CA000151D8008E51DC39F5002051DE49000F6C8
:108CB000F08006900002E0F51D7DFF7F8A12B76FFD
:108CC000900001EFF012B3DF12BC4B7DBE7F8A1221
:108CD000B76FEF54CF4410FB7DBE7F8A12BC4B7D33
:108CE000C47F8A12B76FEF5480451DFB7DC47F8A15
:0F8CF00012BC4B900001E0FB7DFF7F8A02BC4B62
:10BFBF00E4900139F090010CF09001377408F022F1
:1084AB007FAB7E0012BC259000EEEFF07FB07E001C
:1084BB0012BC259000EFEFF07FAA7E0012BC259036
:1084CB00012FEFF07FAD7E0012BC25900103EFF082
:1084DB007FA07E0012BC25900146EFF07FB87E0096
:1084EB0012BC25900100EFF07FB77E0012BC2590E7
:1084FB0000FBEFF07FB97E0012BC259000EDEFF092
:10850B007FBF7E0012BC25EF24FF92097FC57E0042
:10851B0012BC25900102EFF07FAF7E0012BC2590BC
:10852B000133EFF07FA51285A8EE9001307006E0C5
:10853B004401F08004E0540EF07FA61285A8EE9063
:10854B0001317006E04401F08004E0540EF07FA787
:10855B007E0012BC25AE07EE9001327006E044019E
:10856B00F08004E0540EF07FA87E0012BC25AE070D
:10857B00EF9001347006E04401F08004E0540EF0FB
:10858B0012C13190016FEFF012C139900170EFF011
:0C859B007FB27E0012BC259000F4EFF0CF
:0985A700227E0012BC25AE072261
:10727B007BFF7A7D79E512BF209000EFE070491219
:10728B00C14FEF20E142300A2920073CD207E4909E
:10729B0000F3F07FA3FE12BC25EF700990016BE0A9
:1072AB0054EFF080069000F37403F07F06128A5DB2
:1072BB00801630071312C14FEF20E60CC2077FA3D5
:1072CB007E0012BC251291491299E2900000EFF05A
:1072DB00126302900135E0701B900139E06015904C
:1072EB00012FE0FF90010CE0C39F400812BC97E414
:1072FB0090010CF0900146E0700E7DC97F8A12B7A9
:10730B006F900000EFF080027FFF128C20124AEB8F
:10731B00EF70030273FD9000F3E06401707312C110
:10732B004FEF20E16C12C14FEF20E2657FA37E008F
:10733B0012BC25EF605B900135E070509000EFE0E0
:10734B00700FFD7F0212B48090016BE054EFF08060
:10735B003B900130E0540DF0900131E0540DF09072
:10736B000132E0540DF0900134E0540DF012AADF1D
:10737B00900130E04402F0900131E04402F09001C2
:10738B0032E04402F0900134E04402F0E49000F368
:10739B00F0129C6712C15BEF1424FD5002800A129D
:1073AB00C14FEF20E1031292ED90016DE0B40105A6
:1073BB0053E8FBE4F090016DE0B4020343E8087D71
:1073CB00B27F8A12B76FEF60030272847BB07DFDD0
:1073DB007F8A12BC4BE4FF12BE057FF47E0112B311
:1073EB00227F0112BE057B307DFD7F8A12BC4B02D2
:0273FB0072849A
:0173FD00226D
:10ABFA00C2B5C22112C0F87F0A7E0012B322C2B4C3
:10AC0A0012B0BA7F0112BE0512BDE712BFBF12A071
:10AC1A006A1282857F0A7E0012B3221284AB9001E7
:10AC2A0033E090014BF07FA97E0012BC2512B1F3EC
:10AC3A00E4900135F07BFF7A7D79EA12BF2090001B
:0CAC4A00EEE0600312727B12A20680F2A2
:10A20600E4900002F01299E2900001EFF0601BE08A
:10A21600FF126302900137E0B40803D38001C34004
:10A22600197F0112A0F5D221800D900001E0FF12E6
:10A23600630212C042C22112C0F8E4FF12ADC09000
:10A246000000EFF060BFE0B404BB1299E2EF70B516
:10A256009000EE04F0FD7FAB7E0012B36A129149C6
:10A2660012AADF7FA37E0012BC25BF01069000F371
:10A276007403F0C2077F0112A0F5D22112C0F87B49
:08A28600FF7A7D79FB02BF2085
:107EFC00900103E0600A640170359000EBE0702F94
:107F0C0030050302803CD205E490001DF090001D6A
:107F1C00E0FFC39404500E12B3B1E412B3CDE4F0FD
:107F2C0012B3F080E8E49000F0F09000EBF022C285
:107F3C00059000EBE0FF9000F0E0FED39F406AEE6E
:107F4C009F90001EF0E490001DF090001EE0FF904A
:107F5C00001DE0C39F504AE4FF12B3CEE0FE12B303
:107F6C00B1E06E600B90001FEE12B3CDE4F0800513
:107F7C000FEFB404E4E4FF12B3B1E0FE90001FE095
:107F8C00FDEED39D401012B3B1E014F012B3B1E08A
:107F9C00FE12B3CEEEF00FEFB404DC12B3F0027F9E
:107FAC00569000EBE09000F0F09000F0E090001E96
:107FBC00F0A37405F0E490001DF090001DE0FFC3E9
:107FCC009404502812B3B1E0FF90001EE0FEEFB510
:107FDC00061590001DE0FF90001FF0EEB4010DEFB0
:107FEC00049000FEF0800512B3F080CE7F0112BF2A
:107FFC003B90001FE014600D14600F1460142403F8
:10800C007025E48025E4F5148022E4F514F515C2FE
:10801C001922E4F514F515F51A9000ECE0640660ED
:10802C000FE49000F5F022E4F514F515F51AC219D9
:01803C002221
:10839F00A10AA20AA000A310A410A591A601A701EB
:1083AF00A822A910AA00AB62119E00000100CC0CFC
:1083BF0002700000005000000F4000119E3031008D
:1083CF00AFC81202F1100800500030004000119E9B
:1083DF003100029000040170000000A0F5000F4072
:1083EF0000119E3100029000030170000000F0F5B3
:1083FF00000F4000119E3230000C0D0A01B1040431
:10840F000050C800044000119E313000160D0F02BD
:10841F003101000050A0000840119E3330100C981D
:10842F0028013101000000B400084000119E3130D6
:10843F00000C020F023101000050A0000840001193
:10844F009E3130000A0502013101000050A00008E2
:10845F004000119E32300040090204B1000890E044
:10846F0000043340119E3130008A091808B08A0584
:10847F00B05026083340119E30B40040270201F15E
:10848F00000000E0000033C100119E303C109060EE
:0C849F001502F102044050C80036C10074
:10A28E00900051FFE475F001124A0FEF0246EF9075
:10A29E00004FE0FEA3E0FF22EF14FB7D9E7F8A229B
:10A2AE0090001C124A0690001FE0F5827583000292
:10A2BE0046C2E0A4FFA3E5F0F0A3EFF07DA07F8AF5
:10A2CE002290005BE0FCA3E0FD22EEF0A3EFF0A3F2
:10A2DE0022124713900059EEF0A3EFF04E22A3E0A6
:10A2EE00FB7D967F8A2212471390004FECF0A3ED70
:10A2FE00F022F07B047D947F8A22EDF0EFC394016F
:08A30E0022E4FB7D947F8A220A
:10BAB00012BAD2900028F0E4A3F012BAD2FF90009C
:10BAC00028E06F700C900029E004F0E0C3940A4075
:01BAD000E98C
:0CBAD100227D957F8A12B76FEF5440224F
:10AC5600E490000EF0E490000DF090000DE0FFC3CC
:10AC66009408502FA3E075F008A4FEEF2E7D9C12E9
:10AC7600ACA6FFA3E075F0089018EE1249FAE5823B
:10AC86002FF582E43583F583E4937D9D12ACA6040B
:0FAC9600F080C790000EE004F0E0C3940240B6D7
:0CACA50022FB7F8A12BC4B90000DE022C5
:10AB3E00900003EFF0A3124A2612AB8C44017D94D1
:10AB4E0012AB95900003E07D9912AB957DE07F8A64
:10AB5E0012B76FEF4410FB7DE07F8A12BC4B900062
:10AB6E0004124A0690005A741BF07D9A7F8A12B521
:10AB7E000612AB8C54FEFB7D947F8A02BC4B7D94F7
:0EAB8E007F8A12B76FEF22FB7F8A12BC4B2228
:10B853007B607D9B7F8A12BC4BE4900002F09000DA
:10B8630002E0FFC394E2501FEF94C6501AEF75F045
:10B873001BA424FEF9741835F0FA7BFF12AB3E903B
:07B883000002E004F080D791
:01B88A00229B
:03B588009000151B
:10B58B0012A3084036EFD39408503012A2A612BC77
:10B59B004B90001575F00812A2C012B76FEF54F064
:10B5AB00FD900016E04DFB7DA07F8A12BC4B9000F6
:0BB5BB0016A3E0FB7DA17F8A12BC4BB1
:01B5C6002262
:03B4C400900015E0
:10B4C70012A3084039EFD39408503312A2A612BC36
:10B4D7004B90001575F00412A2C012B76FEF540F0E
:10B4E700FD900016E0C454F04DFB7DA07F8A12BC8E
:0EB4F7004B900016A3E0FB7DA27F8A12BC4B97
:01B505002223
:05BA810090001EEFF033
:10BA860012BAB07D9C7F8A12B76F90001FEFF090BC
:10BA9600001EE06006A3E054EF800690001FE0441D
:09BAA60010FB7D9C7F8A12BC4B51
:01BAAF002274
:03B4800090001E1B
:10B4830012A308403BEFD39408503512A2A612BC76
:10B493004B7D9F7F8A12B76F90001FEFF090001EC5
:10B4A300E06007A3E04401F0800790001FE054FE32
:10B4B300F012BAB090001FE0FB7D9F7F8A12BC4B55
:01B4C3002266
:10B28C00EFC394014006EFD394084004E4FEFF2280
:10B29C0012A2A612BC4B7DA07F8A12B76FEF540F7F
:10B2AC00900028F0A3E4F07DA17F8A12B76F900084
:10B2BC0028E0F0A3E04FF0900028E0FEA3E0780334
:0AB2CC00CEC313CE13D8F9FF7E00A5
:01B2D6002255
:10AE7000EFC394014006EFD394084004E4FEFF22A0
:10AE800012A2A612BC4B7DA07F8A12B76FEF54F0BE
:10AE9000C4F8540FC868FEE4C454F048900028F089
:10AEA000A3CEF07DA27F8A12B76F900028E0F0A3B6
:10AEB000E04FF0900028E0FEA3E07802CEC313CE6E
:06AEC00013D8F9FF7E002B
:01AEC6002269
:10B95C0090004F12A2D8124A2612A30112BC4B908F
:10B96C00004F12A2EC12BC4B900051124A069000F0
:10B97C0054E090005AF07D977F8A12B50612A30FFF
:03B98C0002BC4BAF
:10B9C00090003012A2D8EDF0A3EB12A30012BC4BF2
:10B9D00090003012A2EC12BC4B900032E0FBA3E0CE
:10B9E000900037F07D987F8A12B60612A30F02BC32
:01B9F0004B0B
:10BADD0090003012A2D8ED12A30012BC4B90003092
:10BAED0012A2EC12BC4B900032E0900037F07B209C
:0DBAFD007D977F8A12B60612A30F02BC4B84
:0981640090004F12A2D8124A2625
:10816D00900056124A26E4900055F0900054E064B9
:10817D000A707990005B7427F0A37410F012A2CFEF
:10818D00C3940AEC9400405612A29D12A2DF601215
:10819D00900059A3E0243012A28E900055E004F017
:1081AD008015900055E0600F900051E475F00112BC
:1081BD004A0F74301246EF12A29D90005BE0FAA3B5
:1081CD00E0FBFDAC0212A2F47D0A7C00AF03AE020F
:1081DD0012471390005BEEF0A3EFF002818A90003E
:1081ED004FA3E02430A312A291028278900054E0B4
:1081FD006410600302828290005B7410F0A3E4F0BF
:10820D0012A2CFC39410EC9400404412A29D12A26E
:10821D00DF6028900059E0FEA3E0FFC3940AEE94BE
:10822D00004005EF24378007900059A3E024301259
:10823D00A28E12A29D12A2CF12A2F490005BE0C4F6
:10824D00F854F0C868F0A3E0C4540F48F080B112A0
:10825D00A29DC3940AEE94004005EF243780079049
:10826D00004FA3E02430FFA312A292900051124AB6
:07827D0006E41246EF7F0149
:0182840022D7
:06BF050090004F124A26D5
:10BF0B00E4FF90004FE475F001124A0F1246A9604E
:04BF1B00030F80EEA2
:01BF1F0022FF
:069A850090001C124A26AD
:109A8B007DFF7F8A12B76F900020EFF054FEFB7DB5
:109A9B00FF7F8A12BC4B7DE07F8A12B76FEF54EFCA
:109AAB00129B14E490001FF012A2AEFF60429000D4
:109ABB001FE02401FDE433FC90001C124A06E92D43
:109ACB00F9EA3CFAEF129B1D90001FE02401FFE422
:109ADB0033FE90001C124A06E92FF9EA3EFA740590
:109AEB00129B1D12A2AE04FF90001FE02FF080B856
:109AFB007DE07F8A12B76FEF4410129B1490002009
:099B0B00E0FB7DFF7F8A02BC4BE8
:109B1400FB7DE07F8A12BC4B22900025F07F8A12E5
:039B2400B7A822BD
:100066000A0D6D6F646520300A0D000D0A5B4D5355
:10007600475D536574345769646553637265656E8D
:100086002829203D3E2053637265656E20746F20DB
:10009600343A33202121000A0D6D6F646520320A3F
:1000A6000D000D0A2B2B284F5344486967684D6590
:1000B6006E755F73756229204F53444D656E754C9E
:1000C6006576656C3A2564000D0A52455345545FC2
:1000D6004D6F6E69746F7256414C5545000A0D7925
:1000E600766D697820340A0D000A0D79766D697887
:1000F60020300A0D000A0D79766D697820310A0DD7
:10010600000A0D79766D697820320A0D000A0D799C
:10011600766D697820330A0D00436865636B205657
:100126004741204361626C65004F7574204F66201D
:1001360052616E676500FE62596B62714C2F713AAF
:1001460034FF001213566F6C756D65002020204138
:1001560075746F2041646A757374696E67202E2EFC
:100166002E2E20202000436F6D706F73697465001A
:1001760056657273696F6E004C4344205665727300
:10018600696F6E004456522056657273696F6E0031
:10019600574946492049500057494649204D414351
:1001A6000047415445574159004F534420506F73FF
:1001B6006974696F6E004F534420506F73696369A9
:1001C6005F6E004F534420FE5465714667FF004C36
:1001D600616E6775616765004C616E677565005392
:1001E600707261636865004964696F6D6100FE57EE
:1001F60056714667FF004272696768746E6573736D
:10020600004C756D696E6F7369745F0048656C6C40
:1002160069676B656974004272696C6C6F00FE40B9
:1002260024715F60FF00436F6E74726173740043E4
:100236006F6E747261737465004B6F6E7472617366
:100246007400436F6E74726173746500FE394F718A
:100256005F60FF0053617475726174696F6E00535D
:10026600AA74746967756E67005361747572616309
:10027600695F6E00FE4A2C33715F60FF004875654A
:1002860000546F6E616C69745C0046617262650051
:10029600546F6E616C6964616400FE4A5448715F14
:1002A60060FF0053686172706E6573730041637519
:1002B60069745C00536368AA726665004167756479
:1002C600657A6100FE463933715F60FF00526573DF
:1002D600657400445C66617574004772756E64658A
:1002E600696E7374656C75670050726564657465D4
:1002F600726D696E6163695F6E00FE66246DFF0054
:10030600576964652053637265656E0057494445B5
:1003160020FE6D3B714667FF004D6972726F720079
:100326004A756D70005345512054696D65205374AC
:100336006570004A756D702041560043616D204F0F
:1003460075740052657475726E00526563616C6CEB
:10035600004D6F6E69746F7220526563616C6C003C
:1003660044565220526563616C6C0045786974008E
:1003760020007665722041302E30370054696D6555
:100386004F757420536574757000476175676520F5
:1003960053657475700047617567652052656361C2
:1003A6006C6C005052494F5249545900526576655B
:1003B6007273204D6F6465005265736F6C75746956
:1003C6006F6E00465053005175616C697479005226
:1003D60065636F7264204D6F6465005265636F726A
:1003E60064204C656E677468005072652D616C619F
:1003F600726D00506F73742D7265636F7264004185
:1004060070706C79005265636F72645374617274B4
:10041600005265636F726453746F7000536E61703F
:1004260073686F7400446174652054696D65005982
:10043600656172004D6F6E74680044617900486FA3
:100446007572004D696E00536563004461796C698D
:10045600676874536176696E6700426567696E65A1
:1004660000456E64005765656B0054696D65005400
:10047600696D65205A6F6E650052657475726E26D9
:100486004170706C7900466F726D61742053442020
:100496004361726400417564696F205265636F72CF
:1004A60064004669726D7761726520557064617487
:1004B6006500596573004E6F004669727374204E6D
:1004C600756D626572005365636F6E64204E756D5F
:1004D600626572005468697264204E756D62657259
:1004E60000466F75727468204E756D6265720043C2
:1004F60068616E67652050617373776F7264004F31
:1005060076657257726974650044697220496D6137
:1005160067650054726967676572205647410054E3
:100526007269676765722044656C617900496E6619
:100536006F726D6174696F6E0055706461746520C9
:10054600436F6E66696700534420636F7665722059
:100556004465742E0043414D20410043414D2042E5
:100566000043414D20430043414D205200446973EE
:10057600706C61790044565220446973706C6179DD
:100586000044697374616E63652047617567650031
:100596004F5344204C6F636B0050617373776F72D7
:1005A6006400536F75726365205469746C6500430B
:1005B600564253204100435642532042004356427E
:1005C60053204300435642532052004175746F2016
:1005D600446179264E696768740044697220496DE2
:1005E6006167650044697220496D61676520410055
:1005F60044697220496D6167652042004469722032
:10060600496D6167652043005265617220536574C8
:1006160075700043414D20410043414D2052004337
:10062600414D20420043414D20430043414D20446B
:10063600000200456E676C697368004672616E7BE6
:10064600616973004465757473636800457370610E
:100656007E6F6C00FE6A2356FF200004014D6F6416
:100666006531004D6F646532004D6F64653300552A
:10067600736572004D6F646531004D6F64653200BD
:100686004D6F64653300557361676572004D6F6425
:10069600757331004D6F64757332004D6F647573F9
:1006A600330042656E75747A6572004D6F646F3102
:1006B600004D6F646F32004D6F646F330055737574
:1006C6006172696F00FE3A34FF3100FE3A34FF3240
:1006D60000FE3A34FF3300FE47515B71FF200008ED
:1006E600004175746F004E5453430050414C005303
:1006F6004543414D004E545343342E34330050414C
:100706004C4D0050414C4E0050414C3630000500D7
:100716004E6F726D616C00576964650050616E6F53
:1007260072616D610046756C6C000500FE1A1BFF58
:100736002000FE1C1DFF2000FE1E1DFF2000FE1FC8
:1007460020FF2000FE1F21FF200009004F666600E3
:1007560043433100434332004343330043433400B1
:1007660054310054320054330054340002004F4ECA
:10077600004F46460002004D4952524F52004E4F1E
:10078600524D414C000300446179004155544F00DD
:100796004E6967687400020031363A3900343A33DC
:1007A600000200004F4E004F464600040053494EDB
:1007B600474C45004455414C00545249504C450065
:1007C600412B422C422B410007004100412B4200A5
:1007D600412B4300412B5200412B424300412B4207
:1007E6005200412B43520007004200422B41004277
:1007F6002B4300422B5200422B414300422B4152D5
:1008060000422B43520007004300432B4100432B79
:100816004200432B5200432B414200432B415200DE
:10082600432B4252000A005200522B4100522B42E7
:1008360000522B4300522F414200522F4143005297
:100846002F424300522B414200522B414300522B70
:100856004243000E00515541440053455100412B7F
:100866004200432B5200412B5200522B4200412B97
:100876004300432B4200522F414200522B4142007B
:1008860041004200430052000500515541440043D7
:10089600414D410043414D420043414D43004341D8
:1008A6004D5200020000373230783438300033358C
:1008B60032783234300005000035003130003135F1
:1008C600003230003235003330000500004C6576CA
:1008D600656C2D31004C6576656C2D32004C657665
:1008E600656C2D33004C6576656C2D34004C657651
:1008F600656C2D35000300004E6F6E65004E6F72FD
:100906006D616C00416C61726D0006000031202043
:100916006D696E003220206D696E003320206D698E
:100926006E003420206D696E003520206D696E00E2
:100936003130206D696E0005000031352073656326
:10094600003330207365630036302073656300081A
:100956000000313520736563003330207365630012
:100966003630207365630002000044697361626C6F
:100976006500456E61626C6500040000466972732D
:1009860074005365636F6E64005468697264004650
:100996006F75727468000400410042004300520003
:1009A6001900002D3132002D3131002D3130002D4E
:1009B60039002D38002D37002D36002D35002D3409
:1009C600002D33002D32002D310030003100320071
:1009D6003300340035003600370038003900313036
:1009E6000031310031320002005020004420000363
:1009F6000032343030003438303000393630300090
:100A06000200FE1819FF2000FE1A1BFF200004003A
:100A1600FE1C1D1E1F2021FF2000FE222328292A3E
:100A26002BFF2000FE242528292A2BFF2000412BFE
:100A3600422C422B41000E00FE262728292A2BFF96
:100A4600200053455100412B4200432B5200412BBD
:100A56005200522B4200412B4300432B4200522F9F
:100A6600414200522B4142004100420043005200E5
:100A760056474100FF0176FF0176FF0176FF0176BA
:100A8600FF0176FF017EFF017EFF017EFF017EFFF3
:100A9600017EFF018AFF018AFF018AFF018AFF01A9
:100AA6008AFF0196FF0196FF0196FF0196FF0196C8
:100AB600FF019EFF019EFF019EFF019EFF019EFF1B
:100AC60001A7FF01A7FF01A7FF01A7FF01A7FF01DC
:100AD6001FFF012FFF012FFF012FFF012FFF013CF9
:100AE600FF0149FF01AFFF01AFFF01AFFF01BCFFEF
:100AF60001C9FF01D5FF01DEFF01E5FF01EDFF01A1
:100B0600F4FF01FCFF0207FF0212FF021DFF022491
:100B1600FF022CFF0235FF023FFF0248FF0252FF91
:100B2600025AFF025AFF0265FF026FFF027AFF02B6
:100B360083FF0287FF0290FF0296FF02A0FF02A931
:100B4600FF02B3FF02BAFF02C2FF02CAFF02D3FFCF
:100B560002D9FF02E0FF02EFFF0300FF031FFF03BE
:100B66001FFF031FFF031FFF031FFF0326FF0326AD
:100B7600FF0326FF0326FF0326FF032BFF032BFF9E
:100B8600032BFF032BFF032BFF0341FF0341FF034F
:100B960041FF0341FF0341FF0339FF0349FF0349B7
:100BA600FF0349FF0349FF0349FF0350FF0350FFBB
:100BB6000350FF0350FF0350FF0357FF0357FF0384
:100BC60057FF0357FF0357FF0366FF0366FF0366DE
:100BD600FF0366FF0366FF0371FF0371FF0371FFE7
:100BE6000371FF0371FF0573FF0573FF0573FF05AF
:100BF60073FF0573FF057BFF057BFF057BFF057B09
:100C0600FF057BFF0587FF0587FF0587FF0587FF34
:100C16000587FF0596FF0596FF0596FF0596FF05D6
:100C260096FF059FFF059FFF059FFF059FFF059FF9
:100C3600FF05A8FF05A8FF05A8FF05A8FF05A8FF53
:100C460005B5FF05B5FF05B5FF05B5FF05B5FF05FC
:100C5600BCFF05BCFF05BCFF05BCFF05BCFF05C30B
:100C6600FF05C3FF05C3FF05C3FF05C3FF05CAFF95
:100C760005CAFF05CAFF05CAFF05CAFF05D1FF055C
:100C8600D1FF05D1FF05D1FF05D1FF05E0FF05E046
:100C9600FF05E0FF05E0FF05E0FF05EAFF05F6FFBB
:100CA6000602FF060EFF060EFF060EFF060EFF06E5
:100CB6000EFF0619FF0619FF0619FF0619FF06198A
:100CC600FF0625FF0625FF0625FF0625FF0625FF4D
:100CD600062BFF062BFF062BFF062BFF062BFF0618
:100CE6001FFF061FFF061FFF061FFF061FFF063119
:100CF600FF0631FF0631FF0631FF0631FF0376FF9F
:100D06000378FF0382FF0390FF039CFF03A9FF0301
:100D1600B2FF0525FF0525FF0525FF0525FF05254E
:100D2600FF055BFF055BFF055BFF055BFF055BFFE3
:100D36000561FF0561FF0561FF0561FF0561FF05AF
:100D460067FF0567FF0567FF0567FF0567FF056D19
:100D5600FF056DFF056DFF056DFF056DFF03BEFF0A
:100D660003C9FF03CDFF03D5FF03E1FF03EFFF0335
:100D7600F9FF0405FF040BFF0417FF0422FF042BF1
:100D8600FF0435FF043AFF0440FF0444FF0449FF13
:100D9600044DFF0451FF0460FF0467FF046BFF046A
:100DA60070FF0475FF047FFF048CFF049BFF04A8FB
:100DB600FF04B8FF04BCFF04BFFF04CCFF04DAFF46
:100DC60004E7FF04F5FF0505FF050FFF0519FF05FD
:100DD60033FF053FFF054DFF0306FF0306FF03062E
:100DE600FF0306FF0312FE6C6F00FE727500FE60C5
:100DF6006300FE787B00FE666900FE848700FE01C4
:100E06000200FE7E8100FE8A8D00FE909300FE9613
:100E16009900FEC0C300FE9C9F00FEA2A500FEA88E
:100E2600AB00FEAEB100FEB4B700FEBABD000000D6
:100E360018031661180216610000FF0C81FFFFFF00
:100E46003200000700B807720000FF0BEBFFFFFF40
:100E56003200000700B907720000FF0C09FFFFFF10
:100E66003200000700BA07720000FF0C18FFFFFFF0
:100E76003200000700BB07720000FF0D11FFFFFFE5
:100E86003200000700CA07720000FF0D14FFFFFFC3
:100E96003200000700D6079C0000FF0BA0FFFFFFF3
:100EA6003200000300F1000000000000000000FF17
:100EB600FF00000000000000180216610000FF0D90
:100EC600B9FFFFFF3200000300F100000000FF0D34
:100ED600B6FFFFFF3200000300ED00000000000037
:100EE600000000FFFF00000000000000180216616D
:100EF6000000FF0DBCFFFFFF32000005002D0E3580
:100F06000000FF0DBFFFFFFF32000005002E0E356B
:100F16000000FF0DC2FFFFFF32000005002F0E3557
:100F26000000FF0DC5FFFFFF3200000500380E353B
:100F36000000FF0DC8FFFFFF3200000300EE0000B7
:100F46000000FF0BA0FFFFFF3200000300F10000CE
:100F560000000000000000FFFF000000000000008D
:100F6600180216610000FF0DBCFFFFFF32000005EE
:100F7600002D0E350000FF0DBFFFFFFF32000005FC
:100F8600002E0E350000FF0DC2FFFFFF32000005E8
:100F9600002F0E350000FF0DC5FFFFFF32000005D4
:100FA60000380E350000FF0DADFFFFFF32000003D5
:100FB60000EB00000000FF0DC8FFFFFF320EF60138
:100FC60000000EF20000FF0BA0FFFFFF320000033F
:100FD60000F1000000000000000000FFFF0000001C
:100FE60000000000180516610000FF0DA7FFFFFFB7
:100FF60032000007002C09A60000FF0D86FFFFFF48
:101006003200000500200E350000FF0D89FFFFFFAE
:101016003200000500210E350000FF0D8CFFFFFF9A
:101026003200000500220E350000FF0D8FFFFFFF86
:101036003200000500230E350000FF0D92FFFFFF72
:101046003200000500240E350000FF0DAAFFFFFF49
:101056003200000300F6000000000000000000FF60
:10106600FF000000000000000000FF0DB6FFFFFFBC
:1010760032000003009B00000000FF0DB9FFFFFFD8
:101086003200000300F1000000000000000000FF35
:10109600FF000000000000000000FF0DB6FFFFFF8C
:1010A60032000003007000000000FF0DB9FFFFFFD3
:1010B6003200000300F1000000000000000000FF05
:1010C600FF000000000000000000FF0DB6FFFFFF5C
:1010D60032000003009E00000000FF0DB9FFFFFF75
:1010E6003200000300F1000000000000000000FFD5
:1010F600FF000000000000000000FF0BBEFFFFFF26
:1011060032109E0100000E360000FF0BCDFFFFFFE0
:101116003210CE0100000E360000FF0BA0FFFFFFCD
:101126003200000300F1000000000000000000FF94
:10113600FF00000000000000180416610000FF0A0E
:10114600A7FFFFFF3600000B00F1000000000000C3
:1011560000FFFFFF3200000C00390E350000FF0AC9
:10116600B6FFFFFF3600000B00F100000000000094
:1011760000FFFFFF3600000C003A0E350000FF0AA4
:10118600C5FFFFFF3600000B00F100000000000065
:1011960000FFFFFF3600000C003B0E350000FF0B82
:1011A600A0FFFFFF3200000300F100000000000076
:1011B600000000FFFF000000000000001804166198
:1011C6000000FF0BAFFFFFFF32000003009B000093
:1011D6000000FF0BDCFFFFFF3200000300F40000FD
:1011E6000000FF0D02FFFFFF3200000B00F40000BD
:1011F6000000FF0D02FFFFFF3200000B00F40000AD
:101206000000FF0D02FFFFFF3200000B00F400009C
:101216000000FF0D02FFFFFF3200000B00F400008C
:101226000000FF0D05FFFFFF3600000B00F4000075
:1012360000000000000000FFFF00000000000000AA
:10124600180516610000FF0D6EFFFFFF3200000754
:1012560000E409100000FF0D74FFFFFF32000007D5
:1012660000E609550000FF0DB0FFFFFF3200000742
:1012760000EC099C0000FF0DAAFFFFFF32000003EF
:1012860000F5000000000000000000FFFF00000065
:1012960000000000180416610000FF0D6BFFFFFF41
:1012A60032124A01000012460000FF0D65FFFFFFE3
:1012B6003200000700E108BC0000FF0D68FFFFFFD9
:1012C6003200000700E208D00000FF0DADFFFFFF6F
:1012D600320F6A0100000F660000FF0DB3FFFFFF2B
:1012E600320EC20100000EBE0000FF0DAAFFFFFF76
:1012F6003200000300F5000000000000000000FFBF
:10130600FF00000000000000180516610000000044
:10131600000000FFFF000000000000001804166136
:101326000000FF0B07FFFFFF3200000400960E359A
:101336000000FF0B16FFFFFF3200000400950E357C
:101346000000FF0B25FFFFFF3200000400970E355B
:101356000000FF0B34FFFFFF3200000400990E353A
:101366000000FF0B43FFFFFF32000004009A0E351A
:101376000000FF0BA0FFFFFF3200000300F100009A
:1013860000000000000000FFFF0000000000000059
:10139600180516610000FF0CB7FFFFFF32000007BB
:1013A60000C107720000FF0CC6FFFFFF32000007F6
:1013B60000C207720000FF0CD5FFFFFF32000007D6
:1013C60000C307720000FF0CE4FFFFFF32000007B6
:1013D60000C407720000FF0BA0FFFFFF32000003EE
:1013E60000F1000000000000000000FFFF00000008
:1013F600000000000000FF0D26FFFFFF3200000482
:1014060000B20E350000FF0D35FFFFFF320000046D
:1014160000B30E350000FF0D44FFFFFF320000044D
:1014260000B40E350000FF0D53FFFFFF320000042D
:1014360000B50E350000FF0BA0FFFFFF32000003D2
:1014460000F1000000000000000000FFFF000000A7
:1014560000000000180516610000FF0C9FFFFFFF4B
:101466003200000700CD07CE0000FF0CA2FFFFFFF1
:101476003200000700CE07ED0000FF0CA5FFFFFFBE
:101486003200000700CF080C0000FF0BA0FFFFFF93
:101496003200000300F1000000000000000000FF21
:1014A600FF00000000000000180816610000FF0B96
:1014B60061FFFFFF32139A0100000E360000FF0D98
:1014C600CEFFFFFF32145E0100000E360000FF0C57
:1014D600A8FFFFFF3200000700C6082B0000FF0B25
:1014E60070FFFFFF3200000700C708590000FF0B1E
:1014F6008EFFFFFF3200000700C8088E0000FF0BBA
:101506007FFFFFFF3200000400C90E350000FF0D0B
:1015160017FFFFFF3213FA0100000E360000FF0B23
:10152600A0FFFFFF3200000300F1000000000000F2
:10153600000000FFFF000000000000000204FF3270
:101546000DEC000000FFFF32FF132601009F13225F
:101556000DF0000000FFFF32FF0E3E0100000E3AC4
:101566000DF4000000FFFF32FF14B201009F14AE1D
:101576000DF8000000FFFF32FF11C601000011C286
:1015860000000000000000FFFF0000000000000057
:101596000000000000FFFF32FF1546010000154263
:1015A60000000000000000FFFF0000000000000037
:1015B60000000064003200020034001A0001002C12
:1015C600001600000037001C000000C70064002D54
:1015D60000D200800000000700030000003F00204A
:1015E600002D00D200800000001F00100019007DB1
:1015F600005A001E00820069FF830018001E0000CA
:1016060000FF0080FF80007F00000000000700034D
:101616000000007F004011111171113B161A0102E2
:1016260001342C342C024B323232323232324B32CB
:1016360032321110131415707174727370717472E2
:101646007378630080800060808080802080808046
:10165600803B68F890900060808080802080808049
:10166600800358F8A0A00060808080802080808061
:101676008003322528282D64323232323232000A73
:10168600006000610062006300660067006800B9E0
:1016960000FC13DBA67B0060000017481BDB807B89
:1016A6000000000017481EF2807C800001B6314819
:1016B60026D58069000000006FDF13D4A691006074
:1016C6000000174821D4809100000000174813F24B
:1016D6008092800001B6344813DC807F0000000051
:1016E600605A14008B7C01500000294814DC807C71
:1016F60000000000294814F2807C800001B62948C9
:1017060014DC805F000000007B5A0C008B940150B3
:1017160000002D480CDC8094000000002D480CF2DF
:101726008094800001B62D480CDC807F000000000C
:10173600605A3AF680FB0050000026483AC380FB08
:101746000000000026483ACC80FB800001B62648FF
:101756003AC380BE00000000705A3FF98029045049
:1017660000002E483FC38029040000002E483FD0C9
:101776008029840001B62E483FC380E8000000009F
:10178600805A28A4806A04500000165A2884806A69
:1017960004000000165A2889806A84350035165AD6
:1017A6002884801C040000006B5A23F9801404501E
:1017B60000001F5A23C88014040000001F5A23F09B
:1017C6008014843501871F5A23C880E70000000073
:1017D600565A202020496E70757420203A20202009
:1017E60020202020202020202020200020202053E0
:1017F600797374656D203A20202020202020202037
:1018060020202020200020202048204672657120BC
:101816003A2020202020206B487A202020202000FB
:10182600202020562046726571203A202020202054
:101836002020487A202020202000202020462F57D4
:10184600205265763A2020202020202020202020AB
:101856002020200000000000000000000000000022
:10186600000000000000000000000000000001026F
:101876000205050403040404040404040404040423
:1018860004040404040404032020201C2020202037
:101896002020202020200020202020202020202062
:1018A6002020002E003A000101010101010102027F
:1018B60002020202020505050505050404040404E6
:1018C6000403202020000404040404032020200034
:1018D6002020202020202020202020002020202022
:0818E60020202020202020001A
:107BC300410122FF4101230041012800C120C11FBF
:107BD300410110004101250041012A004101290012
:077BE30041011D00017900C2
:104F8C00D3900011E09400900010E09400227E0079
:104F9C00900011E09000105403FFEEF0A3EFF0220C
:104FAC0090010EE0FEA3E0F5828E83229000267A1B
:104FBC00007927E0FF7E007B0190002F124A267BB0
:104FCC00FF22EE900010F0A3EFF02275F0101249C2
:104FDC00FA740E93FB740F93900111CBF0A3EBF0CA
:104FEC008F828E83ED75F0101249FA740993FF7459
:104FFC000A9390010ECFF0A3EFF022900029E02449
:10500C00F1FF900028E034FFFE90002D024A067557
:10501C00F0101249FA740D93227A1579C890003267
:10502C00124A267A1579B62290001F124A06900071
:10503C000E1247DFAAF0F97BFF90002D124A269042
:10504C00001F024A06900010A3E0FD22E0FDE49050
:10505C000035F0A3EDF022E0FF900010E4F0A32265
:10506C0090010EE0FEA3E0FFF5828E8322E4900017
:10507C0010F0A3F022900028E0FEA3E0FF22E0FE57
:10508C00A3E0FF7B019000547409F02290010EE024
:10509C00FEA3E0FFEE90011EF0A3EFF0A322FD753E
:1050AC00F00A84E5F02430F0ED75F00A84227E00DD
:1050BC0090012BEEF0A3EFF022E0FEA3E0FF9001B5
:1050CC0011E0FCA3E0F5828C832290000EE09000AE
:1050DC0010A4FFE5F08FF002479E75F0101249FA0C
:1050EC00740E93FC740F93AA04F97BFF90000712C3
:1050FC004A268F828E83227D017BFF7E00024683AF
:10510C00FFE975F003A42416F582E43400F583223C
:10511C00900010E0FEA3E0FF900111E0FAA3E0F58F
:10512C00828A83740393FDE49322EFF090000FE0E6
:10513C002290004CE475F001124A0F0246A990002F
:10514C0002124A5B900128E075F003A4F58285F009
:10515C0083024A5BF0A3EFF0D39015B67401939FD2
:10516C00EE6480F8E49364809822FF900028E03489
:10517C00002290010EE0FEA3E0AA06F97BFF227547
:10518C00F0100249FAA3E475F00102479EE0FEA379
:10519C00E02DFDEE3CFCEDA4FBAAF0FF900018E026
:1051AC00229015B8E493FE740193FF22900010E452
:1051BC00F0A3740EF022F0E0FF25E02422F582E447
:1051CC003416F583E49322F0EF25E02423F582E4F2
:1051DC003416F583E493227E00EEF0A3EFF07B010E
:1051EC0022EEF0A3EFF0A32290000D0246C2C39072
:1051FC000011E09403227D017BFF7E007F0C0246B0
:10520C008390012DE0640122740E93FB740F939034
:10521C000111CBF0A3EBF022EF54F8FFA3E05407FD
:10522C004FFB7D177F8A22900011E02403F0900041
:10523C0010E03400F02290000CE0FEA3E0FF9000A0
:10524C000AA3E0FD22FFE493FC740193FDC3EF9DE0
:10525C00FEE49C2290000EEEF0A3EFF0FD90001403
:10526C00E0FF22E57925E02415F582E43401F5838D
:10527C002235F0FA7BFF90000BE0900054F02224D2
:10528C0040F582E43400F5832290012BA3E0FF2249
:10529C00E0FFA3E090011ECFF0A3EFF0227D187C7D
:1052AC0000124701EF22FFE08FF0A4FF22A3E0548D
:1052BC00074438FB7D787F8A22C3900011E0940666
:1052CC0022F090003AE004F022E0FEA3E0FF7B0124
:1052DC0022E0FF7E007B017A00792822FBC3EF9B42
:1052EC00FFEE9400FEC322C3900011E0940222E072
:1052FC00FD75F00A84E5F0243022F9E43AFA024A0A
:10530C00262FFFE035F0FAA9077BFF22E024052FBA
:10531C00F075F0058422FFE4F0A3EFF02290001367
:10532C00A3E0FF22FF7E007B017A007927229FEE0B
:10533C006480F8EC64809822124A060246A97D32F9
:10534C007F267E002275F011A4240FF9747E22F5BD
:10535C0082E43400F583EEF022F582E43400F58328
:03536C00EEF0223E
:03000E0012C121FB
:0100110022CC
:05784600900012EFF0BC
:10784B0012000E900017EFF0900012E0B401047FCD
:10785B000180027FFF900017125318E5F01251C2FE
:10786B00FEFD900013E4F0A3EDF0900126E0FDC3C4
:10787B00900014E09DF0900013E09400F09001262E
:10788B00EE1251D3FFFD900015E4F0A3EDF0900143
:10789B0027E0FDC3900016E09DF0900015E09400EA
:1078AB00F0900127EFF09000187401F0900018E0B1
:1078BB00FFD39404506D12B28CAD07AC069000133D
:1078CB0075F008125199F975F003A42417F582E4A9
:1078DB003400F583EFF0EA12510CEFF0AF0112AE6A
:1078EB0070AC06AD0790001575F00412519975F048
:1078FB0003A42418F582E43400F583EFF0EAC4F80E
:10790B0054F0C8EBC4540F485470FF900018E0F9C2
:10791B0012510EE04F12510CEFF0900018E004F0F2
:10792B000278B712BAB07DE07F8A12B76FEF54EFCF
:10793B001279A69000187401F0900018E0FFD39410
:10794B00045031EF14FB7D9E7F8A12BC4B900018C4
:10795B00E075F003A42416F9740035F0FA7B01905E
:10796B00005A7403F07DA07F8A12B506900018E0D0
:10797B0004F080C57DE07F8A12B76FEF4410127957
:10798B00A6900017E0FF12C0A712BAB0E4FB7D90DF
:0A799B007F8A12BC4B900017E0FF3A
:0A79A50022FB7DE07F8A12BC4B221A
:10699D00901622E493900126F0901623E493900133
:1069AD0027F0E4FF12C0A77FB0126B2E7FA0126BF1
:1069BD002E7FA07E0012BC25900146EFF07FA11224
:1069CD006B367FA2126B367FBA126B457FA4126BAA
:1069DD00457FAB126B3D7FA3126B547FBB126B5483
:1069ED007FA5126B3D7FA6126B4C7FA7126B4C7F60
:1069FD00A8126B5B7D327F387E0012B36A90016FF7
:106A0D007432F0E4FF1285B07D327F377E0012B311
:106A1D006A7D037FB27E0012B36A7FBC126B5B7F0F
:106A2D00BD126B6A7FBE126B6A900103E0700FFDA1
:106A3D007FAEFE12B36A7D017FAC7E00800E7D0DB0
:106A4D007FAE7E0012B36AE4FD7FACFE12B36AE442
:106A5D00900139F07D027FAAFE12B36A7FA9126BF5
:106A6D0083E4FF12B1F37BFF7A00796612BF207DBC
:106A7D00337FA07E0012BADD7FB2126B837FB3121B
:106A8D006B627FB4126B627FB5126B7B7FB6126B3C
:106A9D007B1284ABE4FF12C0C27D017FBF7E00126A
:106AAD00B36A7FBF7E0012BC25EF24FF9209E4FD7F
:106ABD007FB8FE12B36A7FB87E0012BC259001002C
:106ACD00EFF07D017FB77E0012B36A7FB77E0012B3
:106ADD00BC259000FBEFF07D027FB97E0012B36AFA
:106AED007FB97E0012BC259000EDEFF0E4FD7FAF85
:106AFD00FE12B36AE4900133F090010204F0FD7FC1
:106B0D00C57E0012B36A7F1B126B717F1C7E021251
:106B1D00B36A7F1D126B717F1E7E0212B36A02A3D0
:106B2D009C7D017E0012B36A22E4FDFE12B36A223F
:106B3D007D017E0012B36A22E4FDFE12B36A227D4E
:106B4D00017E0012B36A22E4FDFE12B36A22E4FD57
:106B5D00FE12B36A227D017E0012B36A22E4FDFEAD
:106B6D0012B36A22E4FD7E0212B36AE4FD227D01B6
:0D6B7D007E0012B36A22E4FDFE12B36A220C
:10BF9D0012C129900128EFF075F00584AFF0EFF094
:01BFAD002271
:10BE4100EFB401047F0180027FFF90012812531893
:0CBE5100AFF0EFF012C0C2900128E0FF3B
:01BE5D0022C2
:05A9B200900014EDF01F
:10A9B700EF75F003A42481FEE435F0A3F0A3CEF0F5
:10A9C700E4A3F0900017E0FFC394035043900016F0
:10A9D700E02FFF900015E03400FE12BC2590001810
:10A9E7001251E37A00791A124FC51250251297F7C0
:10A9F700900017E02471FD90001AA3E0FF90001467
:10AA0700E02FFB7F8A12BC4B900017E004F080B365
:01AA1700221C
:10A71700EFB401047F0180027FFF90012CE0240445
:10A72700FD90012BE03400FCEF3395E0FEED2FFFA9
:10A73700EC3EF0A3EFF07E0090012B124FA3FD7FBC
:10A747008012B36A7F107E0012BC257E007B017ADF
:10A75700007912124FC57A1579CE1250291297F740
:10A76700125295900012A3E0FD12A9B27F807E00DD
:10A7770012BC25EF64037BA860047D3080027D3224
:0AA787007F3E7E0012B9C012529509
:01A7910022A5
:0596A300900012EFF041
:1096A800ED90012CB4010DE02401FF90012BE03472
:1096B80000FE800BE024FFFF90012BE034FFFE90BA
:1096C8000013EE12516050151251AD900014E09F36
:1096D800EE6480F8900013E0648098400302974A93
:1096E800900013E0FEA3E0FF1250BC7B017A0079E2
:1096F80015124FC51250251297F7900012E0248AD0
:10970800FFE433FEA3A3E0FD12B36A7F107E0012CC
:10971800BC259000131251E37A007917124FC57ACD
:109728001579CE1250291297F7900012E02471FD96
:10973800900017A3E0FF900015A3E02FFB7F8A128B
:05974800BC4B1252951C
:01974D0022F9
:10AE18007D707F8A12B76FEF54BFFB7D707F8A12F7
:10AE2800BC4B7D7412AE667D757F8A12BC4B7D76F5
:10AE380012AE667D717F8A12BC4B7B807D727F8AE1
:10AE480012BC4B7B807D737F8A12BC4B7D707F8ADE
:10AE580012B76FEF4440FB7D707F8A02BC4B7B804A
:08AE68007F8A12BC4B7B8022A3
:0688920090001FEFF0FD55
:108898007F0B7E0012B36A90001FE06403606CE4F3
:1088A800A3F0A3F0900020E0FEA3E0FFC3940FEE36
:1088B80064809480503B90001FE0C454F02448F535
:1088C80082E43416F583E5822FF582E5833EF5834D
:1088D800E493FB900020A3E02438F58274163EF55B
:1088E80083E493FD7F8A12BC4B9000201251928042
:1088F800B390001FE0C454F02457F582E43416F511
:0B89080083E493900022125322804E63
:10891300E4FF12C14812B5C77F0112C14812B24029
:108923007F0212C148AD07E4FF12A8047F0312C1FE
:1089330048AD077F0112A8047F0412C14812A8742E
:108943007F0512C1487E009000241251E57A007918
:0E89530022124FC57A1679101250291297F78A
:108961009000221252B912BC4B7D177F8A12B76F49
:0989710090002212522412BC4BAA
:01897A0022DA
:03C161007F00223A
:07C1480012C08A1250BA2256
:059BC900900012EFF016
:109BCE00EDB401067E007F0180047EFF7FFF9001D1
:109BDE002BE0FCA3E0FD2FFFEC3EFE900013125194
:109BEE006050161251AD900013E0FAA3E0FB9FEE09
:109BFE006480F8EA6480984003AF0522900012E07A
:109C0E0014601814601D14601A14602724FE602B53
:109C1E002406702DAF0312B5C7802612532912B237
:109C2E0040801E900012E024FEFFA3A3E0FD12A8C8
:109C3E0004800E12532912A874800612532912A9F9
:109C4E0049900012E0FFA3A3E0FD12C0B0900013F4
:089C5E00E0FEA3E0FF1250BC80
:019C660022DB
:05B5C700900026EFF0EA
:10B5CC0012C15B900026E0BF010C125330124FC524
:10B5DC007A1579F8800A125330124FC57A1579F220
:10B5EC001250291297F79000FCE090161B93FD90D7
:0AB5FC000027A3E0FB7F8A02BC4B8E
:05B24000900026EFF074
:10B245009000FCE064047017124FB87A1579D41297
:10B2550050291297F7900027A3E0FB7D74802212F6
:10B265004FB87A1579FE1250291297F712C161EF7E
:10B275009000276007A3E0FB7D3A8005A3E0FB7DF6
:06B28500107F8A12BC4B91
:01B28B0022A0
:10A949007E007B017A007915124FC57A1579EC12D0
:10A9590050291297F77DFF7F8A12B76F900017EF82
:10A96900F0E47DFF12A9AB7DBE7F8A12B76FEF5469
:10A97900CF44107DBE12A9AB7DC47F8A12B76FEF99
:10A989005480FD900015E0A2E713A3E0134DFB7D71
:10A99900C47F8A12BC4B900017E0FB7DFF7F8A02BF
:02A9A900BC4BA5
:07A9AB00FB7F8A12BC4B2266
:05A87400900026EFF04A
:10A879009000FCE06404702A9000267A007927127F
:10A889004FBF7A1579E01250291297F77D707F8AA8
:10A8990012B76FEF54C0FF900027A3E04FFB7D7004
:10A8A900802F900026E0FF7E007B017A0079271235
:10A8B9004FC57A16790A1250291297F712C161EF1A
:10A8C9009000276007A3E0FB7D3E8005A3E0FB7DA8
:06A8D900157F8A12BC4B42
:01A8DF002256
:08A80400900026EFF0A3EDF037
:10A80C0012C161EF60301252DD124FC57A16791603
:10A81C001250291297F7900026E0243CFD7F8A12F3
:10A82C00B76FEF5480FF900028A3E02FFB90002619
:10A83C00E0243CFD802C9000271252DD124FC57A8B
:10A84C001679041250291297F79000FCE09000261C
:10A85C00B40405E024728003E02413FD900028A3C7
:07A86C00E0FB7F8A12BC4BE8
:01A8730022C2
:05989C00900012EFF046
:1098A1007D787F8A12B76FEF5407540F900015121D
:1098B1005322900012E0B401047F0180027FFFEF88
:1098C1003395E09000158FF012479E9016101251BB
:1098D100B0900015E0FCA3E0FDC312533A400D9097
:1098E10016121251B0D3ED12533A4004125295227E
:1098F100AF057E007B017A007913124FC57A157985
:10990100B6900032124A267A1679101297F7900013
:10991100151252B912BC4B7D177F8A12B76F900096
:109921001512522412BC4B900013A3E0FD7F0512C7
:0D993100C0B0900013E0FEA3E0FF1250BC98
:01993E002206
:10AA18009000FCE090000AF09000FC7401F09000B7
:10AA2800FCE0FFC394075030EFB40413E49000092E
:10AA3800F0900009E090167E12AA6D40F48011E4AF
