:1037FD006873636F6D20312031206368303A312555
:10380D00316278206368313A3025316278206368FF
:10381D00323A3025316278206368333A302531628F
:10382D00780A0D006873636F6D2031203120636855
:10383D00313A3125316278206368303A3025316272
:10384D0078206368323A3025316278206368333AE4
:10385D0030253162780A0D006873636F6D20312059
:10386D0031206368323A256278206368303A30251A
:10387D00316278206368313A30253162782063688F
:10388D00333A30253162780A0D006873636F6D200D
:10389D00312031206368333A3125316278206368F5
:1038AD00303A3025316278206368313A3025316203
:1038BD0078206368323A30253162780A0D006873DA
:1038CD00636F6D20322032206368303A31253162CA
:1038DD0078206368313A3025316278206368323A56
:1038ED003025316278206368333A30253162780AA9
:1038FD000D006873636F6D20322032206368323A99
:10390D00256278206368333A312531627820636807
:10391D00303A3025316278206368313A3025316292
:10392D00780A0D006873636F6D2032203220636852
:10393D00303A3025316278206368333A312531626F
:10394D0078206368313A3025316278206368323AE5
:10395D0030253162780A0D006873636F6D20322057
:10396D0032206368333A3125316278206368313A09
:10397D003025316278206368303A30253162782005
:10398D006368323A30253162780A0D006873636FCF
:10399D006D20332031206368333A31253162782030
:1039AD006368303A3025316278206368313A3025CA
:1039BD00316278206368323A30253162780A0D0021
:1039CD006873636F6D20332033206368303A302580
:1039DD00316278206368313A30253162782063682E
:1039ED00333A3125316278206368323A30253162BD
:1039FD00780A0D006873636F6D203320342063687F
:103A0D00303A3025316278206368313A30253162A1
:103A1D0078206368333A3125316278206368323A11
:103A2D0030253162780A0D006873636F6D20342084
:103A3D0031206368303A3025316278206368313A3D
:103A4D003025316278206368323A30253162782032
:103A5D006368333A31253162780A0D006873636FFC
:103A6D006D20322032206368303A31253162782062
:103A7D006368323A3025316278206368313A3025F7
:103A8D00316278206368333A30253162780A0D004F
:103A9D006873636F6D20322032206368323A25627D
:103AAD0078206368313A3025316278206368303A86
:103ABD003025316278206368333A30253162780AD7
:103ACD000D006873636F6D20332033206368333AC4
:103ADD003125316278206368303A302531627820A3
:103AED006368313A3025316278206368323A302587
:103AFD003162780A0D006873636F6D2032203220B9
:103B0D006368333A3125316278206368323A302563
:103B1D00316278206368313A3025316278206368EC
:103B2D00303A30253162780A0D006873636F6D206D
:103B3D00332031206368333A312531627820636850
:103B4D00303A3025316278206368323A302531625F
:103B5D0078206368313A30253162780A0D00687338
:103B6D00636F6D20332031206368333A3125316224
:103B7D0078206368313A3025316278206368323AB3
:103B8D003025316278206368303A30253162780A09
:103B9D000D006873636F6D20332033206368333AF3
:103BAD003125316278206368303A302531627820D2
:103BBD006368323A3025316278206368313A3025B6
:103BCD003162780A0D006873636F6D2033203320E6
:103BDD006368333A3125316278206368313A302594
:103BED00316278206368323A30253162782063681B
:103BFD00303A30253162780A0D006873636F6D209D
:103C0D00332033206368303A312531627820636880
:103C1D00313A3025316278206368323A302531628D
:103C2D0078206368333A30253162780A0D00687365
:103C3D00636F6D20332033206368303A3025316255
:103C4D0078206368323A3025316278206368333AE0
:103C5D003125316278206368313A30253162780A36
:103C6D000D006873636F6D20322032206368313A26
:103C7D003125316278206368303A30253162782001
:103C8D006368323A3025316278206368333A3025E3
:103C9D003162780A0D006873636F6D203220322017
:103CAD006368313A3125316278206368323A3025C4
:103CBD00316278206368333A302531627820636849
:103CCD00303A30253162780A0D006873636F6D20CC
:103CDD00322032206368313A3025316278206368B2
:103CED00333A3125316278206368323A30253162BA
:103CFD0078206368303A30253162780A0D00687398
:103D0D00636F6D20332033206368313A3125316282
:103D1D0078206368303A3025316278206368323A12
:103D2D003025316278206368333A30253162780A64
:103D3D000D006873636F6D20332033206368313A53
:103D4D003025316278206368303A30253162782031
:103D5D006368333A3125316278206368323A302511
:103D6D003162780A0D006873636F6D203320332044
:103D7D006368313A3025316278206368323A3025F4
:103D8D00316278206368333A312531627820636877
:103D9D00303A30253162780A0D006873636F6D20FB
:103DAD00322032206368323A256278206368303AD7
:103DBD003025316278206368313A302531627820C0
:103DCD006368333A30253162780A0D006873636F8A
:103DDD006D20322032206368323A25627820636884
:103DED00313A3025316278206368333A30253162BB
:103DFD0078206368303A30253162780A0D00687397
:103E0D00636F6D20322032206368323A256278204C
:103E1D006368333A3125316278206368313A302551
:103E2D00316278206368303A30253162780A0D00AE
:103E3D006873636F6D20332033206368323A2562D7
:103E4D0078206368303A3025316278206368313AE2
:103E5D003025316278206368333A30253162780A33
:103E6D000D006873636F6D20332033206368323A21
:103E7D00256278206368303A302531627820636896
:103E8D00333A3125316278206368313A3025316219
:103E9D00780A0D006873636F6D20332033206368DB
:103EAD00323A256278206368313A302531627820C4
:103EBD006368333A3125316278206368303A3025B2
:103ECD003162780A0D000D0A507265762E46573A0A
:103EDD0025303478000D0A437572722E46573A25F7
:103EED00303478000D0A5B4D53475D6D61696E5F2F
:103EFD00696E697428293D3E2072657620213D202A
:103F0D00465756455220262063616C6C20436C65E4
:103F1D0061724261736963454528290D0A000D0AD6
:103F2D0043616E6E6F7420616363657373204545E5
:103F3D0050524F4D21212121000D0A4E6F20696EE7
:103F4D00697469616C697A65005457383831360087
:103F5D005457383831364200545738383137004EBF
:103F6D006F7468696E67202D2D3078253032780D8D
:103F7D000A00436865636B20616761696E202D2DB2
:103F8D003078253032780D0A004C61737420436807
:103F9D0065636B202D2D3078253032780D0A00FFAA
:103FAD0037FDFF3831FF3865FF3897FF38CBFF38C5
:103FBD00FFFF3931FF3965FF3999FF39CDFF3A01DF
:103FCD00FF3A35FF3A69FF3A9DFF3ACFFF3B03FFBA
:103FDD003B37FF3B6BFF3B9FFF3BD3FF3C07FF3C5A
:103FED003BFF3C6FFF3CA3FF3CD7FF3D0BFF3D3F2D
:103FFD00FF3D73FF3DA7FF3DD9FF3E0BFF3E3DFF4C
:10400D003E6FFF3EA12D2D2D3E2050616E656C3A09
:10401D0020575647412D3830302A343830202D2D39
:10402D00205449434F4E4C45535320485320376934
:04403D006E63680046
:107AFD00012D00013000C10DC10C02310000012F1C
:107B0D0000024C000041013B01C10EC10F41013E7D
:107B1D000041013C0041013F0044014000000000D4
:10B00C00ED90001DF090001BE090001E2290001BA4
:10B01C00E090001DF022EBA3F090001CE090001FCC
:10B02C0022FFEA33FE7C007D14124705744E2DF886
:10B03C00E62290001CE0A3F0A32290001DF09000EB
:10B04C001CE090001E22900029F0A3EFF07BFF2261
:108277007B107DE07F8A12BC3D12AA70900000EE51
:1082870012B0557A3E79D3900029EEF0A3EFF012A1
:10829700BBA312AA70EF64107003EE640260287B20
:1082A700FF7A3E79E29000297402F0A37410F0126D
:1082B700BBA37F107E0212B42E12AA70EE12B05228
:1082C7007A3E79E212BBA312AA70EF64107003EE34
:1082D70064027033900000E064027004A3E064104D
:1082E700601B900101E0FF12C0877F0112C0AB1233
:1082F700BB7C7BFF7A3E79F112BBA3802C12C0FBBB
:10830700900101EFF080227BFF7A3F792B12BBA30C
:108317007BFF7A3F794612BBA390010174FFF07F80
:108327000112B7D3E4FF02A0E77F087E0012BC1753
:1083370090010DEFF06004E0FF80027F0112B7D3D8
:1083470012A1709000FC74FEF012AC4812B8457F81
:1083570006128A4F7F0A12BF2D12BFFD7DFF1283BF
:10836700897D82128389E4FB7DFF7F8A12BC3D7B76
:10837700FF7DD07F8A12BC3D7BFF7DD17F8A12BCF7
:018387003DB8
:09838800227B017F8A12BC3D2218
:10B0AC0075F68775F65975BF10E4F5F6758DF47560
:10B0BC009850758922758855758A40758C407587AE
:10B0CC008075B80275A892D299D2ACF5C8C2CAD212
:10B0DC00AD75AA5075BAF443A61843AD10C20F75DE
:0FB0EC00DE4243D840F5B175B220F54AF549224E
:03000B000279A1D6
:0B79A100C0E0C083C082C0D075D008D9
:1079AC00054B90013DE0600214F090013DE0703316
:1079BC00E5A05460C4135403FF900143E06F6023AF
:1079CC00900141E0900140F0900142E0900141F0C3
:1079DC00900143E0900142F0A3EFF0D21090013DF2
:1079EC007430F0E54BD394605003027AF40534E51F
:1079FC003470020533754B00052FE52F646460036A
:107A0C00027AAC90010CE094FF5003E004F0E565C1
:107A1C002401FFE43564FEE43563FDE435628F65D3
:107A2C008E648D63F562752F009000F3E0D39401A2
:107A3C004003E014F090016DE0D394014003E01496
:107A4C00F090006AE004F0900147E0D3940040030A
:107A5C00E014F030110690013CE004F03004069084
:107A6C00013FE004F090006AE0B43C08E4F09000C0
:107A7C007DE004F090007DE0B43C08E4F0900089D7
:107A8C00E004F0900089E0B41808E4F0900088E07D
:107A9C0004F0E53090013E6005E004F08002E4F073
:107AAC00E54DF47003E54CF46008054DE54D7002AE
:107ABC00054CE5A0F4549C6029E52DB4030DE5A01C
:107ACC00F4549CF530C20CD20D8013E52DB4640E29
:107ADC00E5A0F4549CF530D20CD20D752D50052D2B
:087AEC008006752D00753000C5
:097AF400D0D0D082D083D0E03262
:10BDD900E4F565F564F563F562900101F07F64129D
:0EBDE900BF2DC22112C0CFD2B47F0102BF2DE8
:10A05C00E4FD7F8A12B761EF24DE601024D960140E
:10A06C00242870197BFF7A3F7956800E7BFF7A3F4C
:10A07C00795D80067BFF7A3F796502BF1212A0C81A
:10A08C007A3F796C12BBA312C071EF701B12A0C87F
:10A09C007A3F797F12BBA312A0DAEF60EAE4FD7F6E
:10A0AC008A12B761EFF460DF7F6312BF2D12A0DA62
:10A0BC00E412B0527A3F799612BBA322E4FD7F8A58
:10A0CC0012B761900029E4F0A3EFF07BFF227F63CD
:0BA0DC0012BF2DE4FD7F8A12B7612245
:10BDF700EFB4010553E8FE8011EF700743E80153E4
:0EBE0700E8FD22EFB4020643E80143E8022200
:03001300020026C2
:03002600C2AA3239
:0300230002B8B26E
:10B8B200C0E0C0D075D00830981EC298AF997435D8
:10B8C2002549F8EFF6744E2549F8A60F0549E549D2
:10B8D200C394144003754900309904C299C20ED032
:04B8E200D0D0E032B0
:0300630002B9815E
:10B98100C0E0C0D075D008E5AA30E01653AAFE7415
:10B9910025252EF8A69A052EE52EC3940840037599
:10B9A1002E00E5AA30E10553AAFDC20FD0D0D0E0A8
:01B9B1003263
:0BC07100E549B54A037F00227F012251
:08000300200EFD8F99D20E22A0
:08C0F300200FFD8F9AD20F22ED
:03002B0002BFC150
:0FBFC100C0E0C2CF0532E53270020531D0E03268
:10BF2D00E52F2FFFE433FE7C007D64124705E52FDE
:07BF3D00B505FBE4B504F7B4
:01BF440022DA
:10B63600900026E4F0A3E52FF0E47B3CFAF9F8AF9E
:10B6460065AE64AD63AC621248C0AC00AD01AE023B
:10B65600AF03E47B64FAF9F8124835900026EE8FC2
:0CB66600F0124790900026E0FEA3E0FFE9
:01B6720022B5
:10BD5D00C3ED9FEC9E5010C374709FFF74179EFE31
:0FBD6D00EF2DFFEE3CFE22C3ED9FFFEC9EFE226A
:08B31400900026EEF0A3EFF01B
:10B31C00900026E07002A3E06035E4900028F0A3D2
:10B32C00F0900028E0FEA3E0FFE4FCFD7BD8FAF9E6
:10B33C00F8D3124952400C900028E475F0011247E2
:0FB34C009080DE90002674FFF5F012479080C1CC
:01B35B0022CF
:05606900900018EFF0AB
:10606E00E4900025F0ED4410FDEB4410FBEF6405C9
:10607E006015900018E0FF6420600CEF642160074B
:10608E0090001BE04410F090001CE04410F09000D3
:10609E0018E0124A7D610D00610F01611802611F47
:1060AE0003612504613605613906614207611F08E7
:1060BE0061620961620A610D0B614B0C61530D61E6
:1060CE001F0E61710F617F10618A11617F12618AEB
:1060DE0013612514619815610F1661A21761AB1833
:1060EE00610F1961B81A61A21B61181C61CC1D6188
:1060FE00361E61181F61E32061CC21000061F4801F
:10610E001690001DEBF0A3ED801412B019A3ED80D4
:10611E002F12B03EED801890001DEDF0A3EBF09025
:10612E00001BE090001F80250261D8ED12B046F0F2
:10613E00A3EB802812B03EEBF0A3ED801F12B00C43
:10614E00F0A3EB800812B019A3EBF0A3EDF09000D2
:10615E001C0261C590001DEDF012B022F090001BE4
:10616E000261C590001CE0A312B010F0A3EB026117
:10617E00D212B03EEDF090001B0261EC12B03EEB7D
:10618E00F090001BE090001F803A12B00CF09000CF
:10619E001C0261ECEB12B00D12B0248027EB12B092
:1061AE0046F0A3EDF090001B800D90001DEBF0ED7E
:1061BE0012B023F090001BE0900020F0802812B067
:1061CE001912B022F0A3EDF0801C12B01912B04AD1
:1061DE00F0A3ED800D12B019A3EDF090001CE0902D
:1061EE00001FF0A3EBF0E4900021F0900021E0FFFF
:1061FE00C394145011744E2FF8E4F674352FF8E44E
:10620E00F6E004F080E59000FCE06403700C900171
:10621E0035E070061262B10262AE9000257428F06D
:10622E00E4900022F01262B112B636900023EEF026
:10623E00A3EFF012B636C3900024E09FFF90002328
:10624E00E09EFE12C065900025E0FDC3EF9D7480B8
:10625E00F86E9840DEE4900021F0900021E0FFC33C
:10626E0094145029744E2FF8E664417018E0FB7AAE
:10627E0000240112B02DB4430CEB240212B02DB445
:10628E004B037F0122900021E004F080CD7FC87E79
:10629E000012B314900022E004F0E0C39403408592
:0262AE007F006F
:1062B00022900018E0FF3395E0FE903FAC75F003AC
:1062C000EF1249ECEE75F003A42583F583124A2101
:1062D00090001DE0900029F090001EE090002AF050
:1062E00090001FE090002BF0900020E090002CF038
:0462F00012BBA32218
:109D90000D0A2B2B28436C6561724F5344496E6644
:109DA0006F293A20446973706C617965644F53443C
:109DB0003A2532780020000D0A5B4D53475D446917
:109DC00073706C6179496E7075742829203D3E204E
:109DD00053656C6563744D6F6465547970653D417E
:109DE000564D6F646520746F207365742074696DBF
:109DF00065202620646973706C6179686F6C645F9C
:109E0000666C61673D256278002020205457383801
:109E10003036202020005465636877656C6C2C49CF
:039E20006E63006E
:047B2D0041016B00A7
:0FBFDF0075F011A42401F9747E35F0FA7BFF226E
:0CC0410090016BE0FEEFF4FFEE5FF022D8
:07C1330090016BE04FF022C8
:06C1410090016BE0FF22FB
:10AF0F0012C14190001CEFF012C141900029E4F0F2
:10AF1F00A3EFF07BFF7A9D799012BBA390001CE00A
:10AF2F00FF20E20330E70512BBF1C20790001CE0DF
:10AF3F0030E00312BFD090001CE030E40312BF4595
:10AF4F0090001CE030E10312B6EC90001CE030E6FC
:04AF5F000312BFFD1D
:01AF630022CB
:10913B0090001B74C2F012AF0F7BFF7A8479081278
:10914B009A777DFF7FA07E0012BACF7BFF7D327FA7
:10915B00A07E0012B9B2E490001AF090001AE0FF62
:10916B00C394F050197E007BFF7A9D79B590005423
:10917B007401F012B94E90001AE004F080DD9001FA
:10918B006BE04410F012C14DEF6401607790001A50
:10919B007401F090001AE0FE75F011907E001249F8
:1091AB00ECE4936F600890001AE004F080E5EE1297
:1091BB00BFDF12BEF7900019EFF0A3E012BFDF90F4
:1091CB000019E0900054F07FA07E0012B94E7FA3EF
:1091DB007E0012BC17BF01199000EFE070139000D6
:1091EB00F37405F07BFF7A9D79B7900029F012BBE1
:1091FB00A37D017F0212B4727F0112BA7312B636CD
:04920B008E7A8F7B4D
:01920F00223C
:10BF4500E4FF12BA73E4FD7F0212B47290016BE054
:06BF550054EFF07F012211
:1093A4007DFF1294597D82129459E4FB7DFF7F8ADC
:1093B40012BC3D90016BE020E27C12AF0F7F0A12D9
:1093C400BF2D7BFF7A84798A129A777D327FC87E9B
:1093D4000012BACF7B197D377FC87E0012B9B27BE9
:1093E400197D737FDD7E0012B9B212BF8F75F00351
:1093F400EF900AE61249EC124A21AE02AF01900046
:1094040006EEF0A3EFF07BFF12BEF7900006E0FC3F
:10941400A3E0AA04F97BFF900054EFF07FC87E001C
:1094240012B94E7D017F0112B472E4FD7F0412B4BF
:10943400727F0112BA73301B059001708003900192
:109444006FE0FF129CF590016BE04404F012B63615
:049454008E7A8F7B02
:10945800227B017F8A12BC3D7F057E0012B3142255
:0FBFD000E4FD7F0212B47290016BE054FEF02288
:109C5900E4900006F012C141900005EFF0549670AF
:109C690003029CF2E030E11512C0D8900001EEF039
:109C7900A3EFF0A37407F0A374D0F0801190000152
:109C8900E57AF0A3E57BF0A3E4F0A374C8F012B67B
:109C990036AD07AC06900001E0FEA3E0FF12BD5D02
:109CA900D3900004E09F900003E09E503C90000593
:109CB900E05484600D12BBF1900006EFF012913B65
:109CC900C207900005E030E11D12B6EC900006EFE6
:109CD900F07FA37E0012BC17BF01069000F3740346
:0B9CE900F012913BC2077F01227F00B8
:019CF400224D
:10BBF10090016BE030E20A7F0112BC0D54FBF08032
:10BC0100087F0212BC0D547FF07F0122E4FD12B4C3
:06BC11007290016BE022BD
:10AA7000E4FFFE12BC17EF6454600280287F017E61
:10AA80000012BC17EF64576002801A7F027E00122A
:10AA9000BC17EF64386002800C7F037E0012BC1785
:10AAA000EF64386004E4FEFF227F047E0012BC17CE
:10AAB000EF900002F0A3E4F07F05FE12BC179000B7
:10AAC00002E0FEA3E04FFF900002EEF0FEA3EFF0E5
:01AAD0002263
:10B42E00900002EEF0A3EFF07D54E4FFFE12B35C49
:10B43E007D577F017E0012B35C7D387F027E001245
:10B44E00B35C7D387F037E0012B35C900002E0FD9A
:10B45E007F047E0012B35C900002A3E0FD7F057EA8
:04B46E000002B35CC9
:08C0FB007F067E0012BC172233
:09C08700AD077F067E0002B35CE8
:08C103007F097E0012BC172227
:09C09000AD077F097E0002B35CDC
:07C10B007F0A7E0012BC1741
:01C11200220A
:10A17000E4900003F0900002F0900002E075F0110E
:10A18000907E551249ECE493124A7DA1A700A1B339
:10A1900001A1BC02A1C503A1CE04A1D705A1E0067F
:10A1A000A1E9070000A1F0900003E0FD7F0A7E0016
:10A1B00002B35C900003E04401F08034900003E0BF
:10A1C0004402F0802B900003E04404F080229000D1
:10A1D00003E04408F08019900003E04410F0801080
:10A1E000900003E04420F08007900003E04440F03A
:08A1F000900002E004F0808100
:07C113007F0D7E0012BC1736
:01C11A002202
:09C09900AD077F0D7E0002B35CCF
:0AC07C00EF2412FFE433FE12BC179C
:01C086002297
:09C0A200EF2412FF7E0002B35CE2
:09C0AB00AD077F0F7E0002B35CBB
:07C11B007F0C7E0012BC172F
:01C1220022FA
:09C0B400AD077F0C7E0002B35CB5
:08C123007F387E0012BC1722D8
:09C0BD00AD077F387E0002B35C80
:08C12B007F377E0012BC1722D1
:09C0C600AD077F377E0002B35C78
:10BB7C00E4FD7FADFE12B35CE4900103F0FD7F08A1
:10BB8C00FE12B35CE4FD7F0EFE12B35C12698F12E1
:07BB9C00AA0A7F01028B31B0
:10BE15009291D290120012C290221249F88E827528
:0EBE250083001246B4FF22EFF0A3EDF0A3223B
:0BB35C00900028EEF0A3EFF0A3EDF04E
:10B36700900028E0FEA3E07807CEC313CE13D8F9E8
:10B3770044A054FE90002BF012BF5B90002BE0FF1F
:10B3870012A8D2900028A3E0FF12A8D290002AE0CA
:0CB39700FF12A8D21200167F0202BF2D88
:04BC1700AD07AC06C3
:10BC1B00ED7807CEC313CE13D8F944A054FEFF1210
:10BC2B00B761900033EFF07F0212BF2D900033E02D
:01BC3B00FF09
:01BC3C0022E5
:08B76100900034EFF0A3EDF0BD
:10B7690012BF5B900034E0FF12A8D2900035E0FFD1
:10B7790012A8D212BF5B900034E04401FF12A8D294
:10B7890012B9E3900036EFF0120016900036E0FF90
:01B79900228D
:10BC3D0090005512BE2CEBF012BF5B900055E0FF4B
:10BC4D0012A8D2900056E0FF12A8D2900057E0FF44
:06BC5D0012A8D20200163D
:08B5F80090003412BE2CEBF0B0
:10B6000012BF5B900034E0FF12A8D2900035E0FF3B
:10B6100012A8D2E4900038F0900037E0FFA3E0C316
:10B620009F5010900036E0FF12A8D2900038E0043E
:06B63000F080E5020016A7
:09B4F80090005512BE2C124A18F6
:10B5010012BF5B900055E0FF12A8D2900056E0FFF9
:10B5110012A8D2E490005BF090005AE0FFA3E0FE95
:10B52100C39F501190005712BE1F12A8D290005B0A
:08B53100E004F080E3020016C3
:09B79A00900021EFF0A3124A18FF
:10B7A30012BF5B900021E0FF12A8D2E4900026F0C4
:10B7B300900025E0FFA3E0FEC39F501190002212EA
:10B7C300BE1F12A8D2900026E004F080E302001608
:0100120022CB
:10BF5B00D291120012D290120012C291120012C290
:02BF6B00902222
:0D001600C291120012D290120012D291225B
:10A8D200C290EF30E703D38001C312BE15EF30E61A
:10A8E20003D38001C312BE15EF30E503D38001C349
:10A8F20012BE15EF30E403D38001C312BE15EF3050
:10A90200E303D38001C312BE15EF30E203D380010B
:10A91200C312BE15EF30E103D38001C312BE15EF9F
:10A9220030E003D38001C312BE15C290C290D2910F
:09A93200D290D290D290C2902282
:10B9E300E4FFD291120012C290FDFCD290EF25E049
:10B9F300FF3091034401FFC2900DBD00010CED64C3
:0FBA0300084C70E7120012D290D290D290C290ED
:01BA12002211
:106B7C000D0A504F52000D0A4D454E55000D0A4955
:106B8C004E000D0A5550000D0A444E000D0A534597
:106B9C004C000D0A4552524F52000D0A504F5745AA
:106BAC0052206B657920000A0D62757377203020B6
:106BBC00312037452038300D0A000A0D6275737785
:106BCC00203020312037452038310D0A000A0D6263
:106BDC00757377203020312037452038320D0A006C
:106BEC000A0D6275737720302031203745203833F9
:106BFC000D0A000A0D62757377203020312037455D
:106C0C002038340D0A000A0D62757377203020315C
:106C1C002037452038350D0A000A0D627573772030
:106C2C003020312037452038360D0A000A0D6275A8
:106C3C007377203020312037452038370D0A000A71
:106C4C000D62757377203020312037452038380D90
:106C5C000A000A0D627573772030203120374520E9
:106C6C0038390D0A000A0D627573772030203120F7
:106C7C0037452038410D0A000A0D627573772030B4
:106C8C0020312037452038420D0A000A0D627573F9
:106C9C0077203020312037452038430D0A000A0D6B
:106CAC0062757377203020312037452038440D0A27
:106CBC00000A0D627573772030203120374520385B
:106CCC00450D0A000A0D627573772030203120378C
:106CDC00452038460D0A0054726967676572466C28
:106CEC0061673D25303278000D0A4D454E554B45B8
:106CFC0059206B657920000D4F53445F4C4F434B2B
:106D0C00000D0A4556454E544B4559206B6579206C
:106D1C0070726573736564000D0A5B4D53475D4378
:106D2C006865636B4B6579496E28293D3E20497334
:106D3C0052756E32383335436C6B54756E653D2528
:056D4C00627800202028
:107B31004101450041014A0041014800410146001F
:107B41004101490041014B0041014400C11601704E
:037B510000C11858
:10BF6D00E5A0F454906490227C007D0AAE02024755
:01BF7D0005BE
:0EC00C0012C141EF30E10302002E12B8E6220D
:0DC01A0012C141EF30E1057F01126F0C22D1
:0DC0270012C141EF30E1057F02126F0C22C3
:10BEC10012C141EF30E10B3020057F0102802F02CA
:0BBED10073F07F011285A21293A422DF
:10BEDC0012C141EF30E10B3020057F0202802F02AE
:0BBEEC00002E7FFF1285A21293A422FB
:108F8800900004EFF0A3EDF012C04D900004E01241
:108F98004A7D900C00900C01900C02900C03900CF0
:108FA80004900C05900C06900C07900C08900C0986
:108FB8008FDD0C903210903711901D15904A169045
:108FC80013209018218FF1388FFA3A90583E903C30
:108FD8003F0000905F74FF900109F0A3F090000536
:108FE800E060037F01227F002212BD7C1294687F1B
:108FF800012212C141EF30E40512BF4580031291EE
:109008003B7F0122900005E07F012212C01A8047B1
:1090180012C0278042900005E060037F012212C140
:1090280041EF30E1321273F0802D12BEC180281258
:10903800BEDC8023900005E060037F012212C00C93
:10904800801512C141EF30E10E7FF4129062800763
:0A9058007D017FC0122DE27F01228E
:104ADD009000017401F0301826201623C3E565956A
:104AED0074FFE5649573FEE5639572FDE56295715E
:104AFD00FCE47B0AFAF9F8D31249525002C2187F2E
:104B0D000112ADB2900002EFF07003024F45E024A8
:104B1D00F8601C24F8602024F0602424E060282430
:104B2D00C0602C247C70307BFF7A6B797C802E7B6F
:104B3D00FF7A6B798280267BFF7A6B7989801E7B69
:104B4D00FF7A6B798E80167BFF7A6B7993800E7B63
:104B5D00FF7A6B799880067BFF7A6B799E12BBA3E7
:104B6D007FAC7E0012BC17900003EFF012BF6D708A
:104B7D0053E070507FD07E0712B31412BF6D6008E2
:104B8D0090014AE06403703C7D017FAC7E0012B35E
:104B9D005C9000037401F0FF128A4FE4900002F064
:104BAD007FD07E0712B314900135E030E5051286F3
:104BBD009F800F12BFFDE4900147F090014AF01263
:104BCD00913BC207900135E0600C900002E064104B
:104BDD006004E4024DFE900147E07013900003E085
:104BED00700D90014AE06007E4F07F0112BDF7906F
:104BFD000002E0601BA3E0701712BF6D6012900100
:104C0D0035E0700C12AF0FE4124F6EC2077F012218
:104C1D0012C04D900002E0124A7D4ECD024C46046A
:104C2D004D5C084F180C4E25104DBB204DD8404EF5
:104C3D0007804ED59000004F457BFF7A6B79A61209
:104C4D00BBA3201603024D1CE570C3940F4005E471
:104C5D00F57080020570E570124A7D4CA1014CA9DA
:104C6D00024CB1034CB9044CC1054CC9064CD107DB
:104C7D004CD9084CE1094CE90A4CF10B4CF90C4D9F
:104C8D00010D4D090E4D110F00004C997BFF7A6BF4
:104C9D0079B380767BFF7A6B79C6806E7BFF7A6BFA
:104CAD0079D980667BFF7A6B79EC805E7BFF7A6BBE
:104CBD0079FF80567BFF7A6C7912804E7BFF7A6C80
:104CCD00792580467BFF7A6C7938803E7BFF7A6C44
:104CDD00794B80367BFF7A6C795E802E7BFF7A6C08
:104CED00797180267BFF7A6C7984801E7BFF7A6CCC
:104CFD00799780167BFF7A6C79AA800E7BFF7A6C90
:104D0D0079BD80067BFF7A6C79D012BF12804C7B07
:104D1D00FF7A6C79E3900135E0FF900029E4F0A370
:104D2D00EFF012BBA3201223900135E06003024F78
:104D3D0045FD7F0C128F88900001EFF0E49000EE9E
:104D4D00F0FD7FABFE12B35C024F45C212804B7B70
:104D5D00FF7A6C79F412BBA330160AAF707E001285
:104D6D00A514024F45201241900003E0700D124F23
:104D7D006E7BFF7A6D7903E4024F0F12C141EF3064
:104D8D00E10B30200280191273F0024F4512C14120
:104D9D00EF30E20C12AF0F12B6EC12913B024F4501
:104DAD007F3F124F64F0024F457F09024EC520121E
:104DBD001512C141EF30E1077F01302023801B7FA9
:104DCD0010124F64802B7F06024EC520122712C190
:104DDD0041EF30E1117F0230200612802F024F4546
:104DED00126F0C024F45E4FD7F11128F8890000168
:104DFD00EFF07F01227F07024EC52012169000EFC3
:104E0D00E0700A12C141EF30E10312B6EC129EB30D
:104E1D00024F457F05024EC5900135E0FF600990B8
:104E2D000103E07003024F45EF6046900149E070C9
:104E3D0040900103E0640170387FACFE12BC17EFA7
:104E4D0064016003024F45900135E030E50312BF68
:104E5D00FD9001497401F0900144E0700890013318
:104E6D00E090014BF09001447401F0900133F0801B
:104E7D003F201242900149E06017E4900135F09017
:104E8D0001377407F0E4900149F0900133F0024FBF
:104E9D00459000EFE0700A12C141EF30E10312B608
:104EAD00EC900133E0700404F08005E4900133F0E0
:104EBD0012ACFE024F457F04126783D217024F4595
:104ECD007BFF7A6D790D803E90016FE06414706800
:104EDD00301865301614C2167F0112BDF77D027FA2
:104EED00A07E0012BACFC218800ED2167F0212BD5C
:104EFD00F7AF707E0012A5147BFF7A6D7924A21690
:104F0D00E433900029F012BBA3802D90016FE06473
:104F1D001770257F0212BDF77F647E0012B3141245
:104F2D004F4B124F4B7F0112BDF7D218856574851B
:0D4F3D006473856372856271900001E0FF6E
:104F4A00227F0112BDF77F647E0012B3147F021222
:104F5A00BDF77F647E0012B31422E4FD128F88909D
:104F6A000001EF22FF128A4F7FF412BF2D12BFFDFC
:044F7A0012913B2233
:10ADB200A20D9221C20D30103AE5307036D22190A8
:10ADC2000140E0FEB40313A3E0B4020EA3E0700A54
:10ADD200A3E0B401057530408017EEB4031390016F
:10ADE20041E0B4010CA3E07008A3E0B402037530A3
:10ADF20020C2102021037F0022EF6003AF30222007
:07AE02000C03AF30227F00BA
:01AE09002226
:08A51400900004EEF0A3EFF04B
:10A51C0078067C007D017BFF7A6D794F7E007F028F
:10A52C00124675900004E0FAA3E0FBFF12BF75ED34
:10A53C002430900007F0AF0312BF75900004EEF0CA
:10A54C00A3EFF02430A3F07BFF7A847940129A7742
:10A55C007F1012C1337D027FA07E0012BACF7B0226
:10A56C007D377FA07E0012B9B27B017A007906900C
:10A57C0000547402F07FA07E0012B94E7D017F0260
:08A58C0012B4727F0102BA73E0
:107DA0000D0A43485F54573238333528253032782E
:107DB000292C526561644465636F6465722830786C
:107DC0003636293D256278000D0A2043485F41562A
:107DD0002825303278290020200A0D000A0D62750E
:107DE000737720302031203745203839000A0D6262
:107DF000757377203020312037452038390D0A003F
:107E0000FE00000000000000000000000000000074
:107E10000001435642530000000000000000000033
:107E200000000243414D204400000000000000001B
:107E30000000000341562020000000000000000068
:107E40000000000000000000000000000000000032
:107E50000000000000FE0000000000000000000024
:107E6000000000000000014E5453430000000000D9
:107E7000000000000000000250414C000000000023
:107E8000000000000000000003534543414D000086
:107E90000000000000000000000550414C4D0000B3
:107EA000000000000000000000000650414C4E00A1
:107EB00000000000000000000000000750414C36A8
:107EC000300000000000000000000000044E545389
:107ED00043342E3433000000000000000000000096
:0E7EE000000000000000000000000000000094
:107B5400C10BC104C1024100F600011D004400F73D
:107B640000000000440104000000004100F0004156
:107B740000EB00C185011F00011300011100011277
:107B840000011E00011500011400011A004100FF4C
:107B9400004100EC004100F2004100FD004100F50D
:107BA40000C1004100FE00C106C101C183C107C17B
:017BB4000AC6
:10B3A30074F72FF582E43400F58322EF75F011A4CE
:10B3B3002400F582E4347EF583E49322F074042FB1
:10B3C300F582E43401F583229000010246B4E4FBE4
:10B3D3007DFF7F8A22E4F51BF51CF519F5182290F1
:06B3E300001DE004F02251
:06B0FB0090001F124A182C
:10B10100E4FE12469B900022F012B3CB80299000FE
:10B111001F1249F812469BFFB4FF0612B3CBF4602D
:10B1210022900023EFF0FD12B3CB900024F0FB90AE
:10B131000022E0FF12BC3D900020E475F0021247AE
:09B141009080CB12B3D102BC3D99
:10A4110090001EEFF07BFF7A5D79C912B0FB12B399
:10A42100D112BC3D90001EE024FE60131460102484
:10A43100FD600C240624F85011240A600D80117B64
:10A44100FF7A5F791912B0FB800690001E7401F04B
:10A451009000FCE0B4051390010DE07002800B90B8
:10A46100001EE014FF12BE50800312BD3D7B157D1E
:10A47100297F8A12BC3D7B067D5C7F8A12BC3D7FB1
:10A481000B7E0012BC1712888412C103128B31C2D9
:02A49100232284
:10BF7E007D017F8A12B761EF30E7037F01227F00D8
:01BF8E002290
:1092DF00E490001BF0A3F09000FCE0B405099001AE
:1092EF000DE06003029392E4900019F012AEB99072
:1092FF00001AEFF090001CE004F0E0C3940A400362
:10930F0002939290001AE0FF64FE60E09000F1E09B
:10931F00FEEF6E60D7900019E0FFA3E0FEB50706E1
:10932F00A3E004F0800AE490001BF0900019EEF027
:10933F0090001BE0C3940240B390001AE0FF700B43
:10934F0012B7D390001D7401F080309000F1E070DF
:10935F00119000EFE0700630070312BFFD129393D8
:10936F0080149000EFE0700630070312BFFD1293D8
:10937F00937F3212BF2DE490001DF090001DE0246A
:03938F00FF920A40
:109392002290001AE0FF12B7D390001AE0FF12A445
:0293A200112296
:10BD1A0012BF7EEF60037F01227D1C7F8A12B7610A
:10BD2A00EF54F0FF30E7037F0122EF5470C4540F41
:02BD3A0004FF04
:01BD3C0022E4
:10AD590012BD1AAB07EB24FE601914601624FD60BE
:10AD690012240224FC500424077017751B00751C5B
:10AD79003C8006751B00751C32E475196B75183D0E
:10AD8900800312B3D8F517F516E4FFEF75F011A497
:10AD99002455F582E4347EF583E493FEB50301225C
:08ADA900EE60030F80E57F005E
:01ADB100227F
:06C147009000F1E0FF2270
:10B7D3009000F1EFF024FE601914601624FD60124E
:10B7E300240224FC500424077017751B00751C3CAD
:10B7F3008006751B00751C32E475196B75183D8046
:09B803000312B3D8F517F5162263
:06C14D009000FCE0FF225F
:10BD7C007F0112B3AEFE9000FCE0FDEE6D60030F90
:0EBD8C0080F00F12B3AE70027F0112B3AEFF53
:01BD9A002286
:09C0CF00302103D2B722C2B722CE
:10946800900018EFF09000FCE06F700302951A90DE
:10947800013AE0B4010543E804800312B7279000DD
:1094880018E09000FCF09000F1E0FF12A4119000A9
:10949800FCE024FD60202402703A12BCAE12951B39
:1094A800C2957D667F8A12B76190002BEFF07BFF33
:1094B8007A7D79A0800E12BCD212951BD2957BFFC3
:1094C8007A7D79C89000FCE0FF900029E4F0A3EFD2
:1094D800F012BBA312AE0A9000FCE0FF12C0AB7FF3
:1094E8001E12BF2D1292DF12913B90013AE0B40197
:1094F8000553E8FB8005E4FF12A0E77F6412BF2D47
:109508007BFF7DD07F8A12BC3D7BFF7DD17F8A1295
:0D951800BC3D22C21BE4FF1285A2C29422BA
:0DC03400C22112C0EA43E804E4FF02BDF798
:0CC04D0012B636900109EEF0A3EFF022CD
:09C0D800900109E0FEA3E0FF2243
:108C1200C374FF9FFFC39400400CEF94645007E4B9
:108C2200900002F0804BEFC39464400DEF948C509F
:108C3200089000027414F08038EFC3948C400DEF5A
:108C420094B450089000027428F08025EFC394B4C5
:108C5200400DEF94DC5008900002743CF08012EF5B
:108C6200C394DC400CEFD394FF5006900002744B87
:108C7200F0900146E0702C9000F6E0C3940F50058E
:108C8200E004F08024900002E0FFE51DD39F400441
:108C9200151D8008E51DC39F5002051DE49000F6D6
:108CA200F08006900002E0F51D7DFF7F8A12B76119
:108CB200900001EFF012B3D112BC3D7DBE7F8A124B
:108CC200B761EF54CF4410FB7DBE7F8A12BC3D7D5D
:108CD200C47F8A12B761EF5480451DFB7DC47F8A31
:0F8CE20012BC3D900001E0FB7DFF7F8A02BC3D8C
:10BFB100E4900139F090010CF09001377408F022FF
:10849D007FAB7E0012BC179000EEEFF07FB07E0038
:1084AD0012BC179000EFEFF07FAA7E0012BC179060
:1084BD00012FEFF07FAD7E0012BC17900103EFF09E
:1084CD007FA07E0012BC17900146EFF07FB87E00B2
:1084DD0012BC17900100EFF07FB77E0012BC179011
:1084ED0000FBEFF07FB97E0012BC179000EDEFF0AE
:1084FD007FBF7E0012BC17EF24FF92097FC57E005F
:10850D0012BC17900102EFF07FAF7E0012BC1790E6
:10851D000133EFF07FA512859AEE9001307006E0E1
:10852D004401F08004E0540EF07FA612859AEE907F
:10853D0001317006E04401F08004E0540EF07FA795
:10854D007E0012BC17AE07EE9001327006E04401BA
:10855D00F08004E0540EF07FA87E0012BC17AE0729
:10856D00EF9001347006E04401F08004E0540EF009
:10857D0012C12390016FEFF012C12B900170EFF03B
:0C858D007FB27E0012BC179000F4EFF0EB
:09859900227E0012BC17AE07227D
:10726D007BFF7A7D79D712BF129000EFE070491243
:10727D00C141EF20E142300A2920073CD207E490BA
:10728D0000F3F07FA3FE12BC17EF700990016BE0C5
:10729D0054EFF080069000F37403F07F06128A4FCE
:1072AD00801630071312C141EF20E60CC2077FA3F1
:1072BD007E0012BC1712913B1299D4900000EFF092
:1072CD001262F4900135E0701B900139E060159069
:1072DD00012FE0FF90010CE0C39F400812BC89E430
:1072ED0090010CF0900146E0700E7DC97F8A12B7B7
:1072FD0061900000EFF080027FFF128C12124ADDC8
:10730D00EF70030273EF9000F3E06401707312C12C
:10731D0041EF20E16C12C141EF20E2657FA37E00B9
:10732D0012BC17EF605B900135E070509000EFE0FC
:10733D00700FFD7F0212B47290016BE054EFF0807C
:10734D003B900130E0540DF0900131E0540DF09080
:10735D000132E0540DF0900134E0540DF012AAD139
:10736D00900130E04402F0900131E04402F09001D0
:10737D0032E04402F0900134E04402F0E49000F376
:10738D00F0129C5912C14DEF1424FD5002800A12C7
:10739D00C141EF20E1031292DF90016DE0B40105D0
:1073AD0053E8FBE4F090016DE0B4020343E8087D7F
:1073BD00B27F8A12B761EF60030272767BB07DFDFA
:1073CD007F8A12BC3DE4FF12BDF77FF47E0112B33C
:1073DD00147F0112BDF77B307DFD7F8A12BC3D020B
:0273ED007276B6
:0173EF00227B
:10ABEC00C2B5C22112C0EA7F0A7E0012B314C2B4ED
:10ABFC0012B0AC7F0112BDF712BDD912BFB112A0B9
:10AC0C005C1282777F0A7E0012B31412849D90012D
:10AC1C0033E090014BF07FA97E0012BC1712B1E516
:10AC2C00E4900135F07BFF7A7D79DC12BF12900045
:0CAC3C00EEE0600312726D12A1F880F2CD
:10A1F800E4900002F01299D4900001EFF0601BE0A7
:10A20800FF1262F4900137E0B40803D38001C34021
:10A21800197F0112A0E7D221800D900001E0FF1202
:10A2280062F412C034C22112C0EAE4FF12ADB29047
:10A238000000EFF060BFE0B404BB1299D4EF70B532
:10A248009000EE04F0FD7FAB7E0012B35C12913BF0
:10A2580012AAD17FA37E0012BC17BF01069000F39B
:10A268007403F0C2077F0112A0E7D22112C0EA7B73
:08A27800FF7A7D79ED02BF12AF
:107EEE00900103E0600A640170359000EBE0702FA2
:107EFE0030050302802ED205E490001DF090001D87
:107F0E00E0FFC39404500E12B3A3E412B3BFE4F027
:107F1E0012B3E280E8E49000F0F09000EBF022C2A1
:107F2E00059000EBE0FF9000F0E0FED39F406AEE7C
:107F3E009F90001EF0E490001DF090001EE0FF9058
:107F4E00001DE0C39F504AE4FF12B3C0E0FE12B31F
:107F5E00A3E06E600B90001FEE12B3BFE4F080053D
:107F6E000FEFB404E4E4FF12B3A3E0FE90001FE0B1
:107F7E00FDEED39D401012B3A3E014F012B3A3E0B4
:107F8E00FE12B3C0EEF00FEFB404DC12B3E2027FC8
:107F9E00489000EBE09000F0F09000F0E090001EB2
:107FAE00F0A37405F0E490001DF090001DE0FFC3F7
:107FBE009404502812B3A3E0FF90001EE0FEEFB52C
:107FCE00061590001DE0FF90001FF0EEB4010DEFBE
:107FDE00049000FEF0800512B3E280CE7F0112BF46
:107FEE002D90001FE014600D14600F146014240314
:107FFE007025E48025E4F5148022E4F514F515C20D
:10800E001922E4F514F515F51A9000ECE0640660FB
:10801E000FE49000F5F022E4F514F515F51AC219E7
:01802E00222F
:10839100A10AA20AA000A310A410A591A601A701F9
:1083A100A822A910AA00AB62119E00000100CC0C0A
:1083B10002700000005000000F4000119E3031009B
:1083C100AFC81202F1100800500030004000119EA9
:1083D1003100029000040170000000A0F5000F4080
:1083E10000119E3100029000030170000000F0F5C1
:1083F100000F4000119E3230000C0D0A01B104043F
:108401000050C800044000119E313000160D0F02CB
:108411003101000050A0000840119E3330100C982B
:1084210028013101000000B400084000119E3130E4
:10843100000C020F023101000050A00008400011A1
:108441009E3130000A0502013101000050A00008F0
:108451004000119E32300040090204B1000890E052
:1084610000043340119E3130008A091808B08A0592
:10847100B05026083340119E30B40040270201F16C
:10848100000000E0000033C100119E303C109060FC
:0C8491001502F102044050C80036C10082
:10A28000900051FFE475F001124A01EF0246E1909F
:10A29000004FE0FEA3E0FF22EF14FB7D9E7F8A22A9
:10A2A00090001C1249F890001FE0F58275830002AF
:10A2B00046B4E0A4FFA3E5F0F0A3EFF07DA07F8A11
:10A2C0002290005BE0FCA3E0FD22EEF0A3EFF0A300
:10A2D00022124705900059EEF0A3EFF04E22A3E0C2
:10A2E000FB7D967F8A2212470590004FECF0A3ED8C
:10A2F000F022F07B047D947F8A22EDF0EFC394017D
:08A3000022E4FB7D947F8A2218
:10BAA20012BAC4900028F0E4A3F012BAC4FF9000C6
:10BAB20028E06F700C900029E004F0E0C3940A4083
:01BAC200E99A
:0CBAC300227D957F8A12B761EF5440226B
:10AC4800E490000EF0E490000DF090000DE0FFC3DA
:10AC58009408502FA3E075F008A4FEEF2E7D9C12F7
:10AC6800AC98FFA3E075F0089018F01249ECE58263
:10AC78002FF582E43583F583E4937D9D12AC980427
:0FAC8800F080C790000EE004F0E0C3940240B6E5
:0CAC970022FB7F8A12BC3D90000DE022E1
:10AB3000900003EFF0A3124A1812AB7E44017D94FB
:10AB400012AB87900003E07D9912AB877DE07F8A8E
:10AB500012B761EF4410FB7DE07F8A12BC3D90008C
:10AB6000041249F890005A741BF07D9A7F8A12B43F
:10AB7000F812AB7E54FEFB7D947F8A02BC3D7D942F
:0EAB80007F8A12B761EF22FB7F8A12BC3D2252
:10B845007B607D9B7F8A12BC3DE4900002F09000F6
:10B8550002E0FFC394E2501FEF94C6501AEF75F053
:10B865001BA42400F9741935F0FA7BFF12AB309054
:07B875000002E004F080D79F
:01B87C0022A9
:03B57A0090001529
:10B57D0012A2FA4036EFD39408503012A29812BCA2
:10B58D003D90001575F00812A2B212B761EF54F09C
:10B59D00FD900016E04DFB7DA07F8A12BC3D900012
:0BB5AD0016A3E0FB7DA17F8A12BC3DCD
:01B5B8002270
:03B4B600900015EE
:10B4B90012A2FA4039EFD39408503312A29812BC61
:10B4C9003D90001575F00412A2B212B761EF540F46
:10B4D900FD900016E0C454F04DFB7DA07F8A12BC9C
:0EB4E9003D900016A3E0FB7DA27F8A12BC3DC1
:01B4F7002232
:05BA730090001EEFF041
:10BA780012BAA27D9C7F8A12B76190001FEFF090E6
:10BA8800001EE06006A3E054EF800690001FE0442B
:09BA980010FB7D9C7F8A12BC3D6D
:01BAA1002282
:03B4720090001E29
:10B4750012A2FA403BEFD39408503512A29812BCA1
:10B485003D7D9F7F8A12B76190001FEFF090001EEF
:10B49500E06007A3E04401F0800790001FE054FE40
:10B4A500F012BAA290001FE0FB7D9F7F8A12BC3D7F
:01B4B5002274
:10B27E00EFC394014006EFD394084004E4FEFF228E
:10B28E0012A29812BC3D7DA07F8A12B761EF540FB7
:10B29E00900028F0A3E4F07DA17F8A12B7619000A0
:10B2AE0028E0F0A3E04FF0900028E0FEA3E0780342
:0AB2BE00CEC313CE13D8F9FF7E00B3
:01B2C8002263
:10AE6200EFC394014006EFD394084004E4FEFF22AE
:10AE720012A29812BC3D7DA07F8A12B761EF54F0F6
:10AE8200C4F8540FC868FEE4C454F048900028F097
:10AE9200A3CEF07DA27F8A12B761900028E0F0A3D2
:10AEA200E04FF0900028E0FEA3E07802CEC313CE7C
:06AEB20013D8F9FF7E0039
:01AEB8002277
:10B94E0090004F12A2CA124A1812A2F312BC3D90D6
:10B95E00004F12A2DE12BC3D9000511249F8900029
:10B96E0054E090005AF07D977F8A12B4F812A3012A
:03B97E0002BC3DCB
:10B9B20090003012A2CAEDF0A3EB12A2F212BC3D2B
:10B9C20090003012A2DE12BC3D900032E0FBA3E0F8
:10B9D200900037F07D987F8A12B5F812A30102BC5D
:01B9E2003D27
:10BACF0090003012A2CAED12A2F212BC3D900030CB
:10BADF0012A2DE12BC3D900032E0900037F07B20C6
:0DBAEF007D977F8A12B5F812A30102BC3DBD
:0981560090004F12A2CA124A184F
:10815F00900056124A18E4900055F0900054E064D5
:10816F000A707990005B7427F0A37410F012A2C10B
:10817F00C3940AEC9400405612A28F12A2D160123F
:10818F00900059A3E0243012A280900055E004F033
:10819F008015900055E0600F900051E475F00112CA
:1081AF004A0174301246E112A28F90005BE0FAA3ED
:1081BF00E0FBFDAC0212A2E67D0A7C00AF03AE022B
:1081CF0012470590005BEEF0A3EFF002817C900068
:1081DF004FA3E02430A312A28302826A900054E0DE
:1081EF006410600302827490005B7410F0A3E4F0DB
:1081FF0012A2C1C39410EC9400404412A28F12A299
:10820F00D16028900059E0FEA3E0FFC3940AEE94DA
:10821F00004005EF24378007900059A3E024301267
:10822F00A28012A28F12A2C112A2E690005BE0C43C
:10823F00F854F0C868F0A3E0C4540F48F080B112AE
:10824F00A28FC3940AEE94004005EF243780079065
:10825F00004FA3E02430FFA312A2849000511249D3
:07826F00F8E41246E17F0173
:0182760022E5
:06BEF70090004F124A18F2
:10BEFD00E4FF90004FE475F001124A0112469B6079
:04BF0D00030F80EEB0
:01BF1100220D
:069A770090001C124A18C9
:109A7D007DFF7F8A12B761900020EFF054FEFB7DD1
:109A8D00FF7F8A12BC3D7DE07F8A12B761EF54EFF4
:109A9D00129B06E490001FF012A2A0FF60429000FE
:109AAD001FE02401FDE433FC90001C1249F8E92D60
:109ABD00F9EA3CFAEF129B0F90001FE02401FFE43E
:109ACD0033FE90001C1249F8E92FF9EA3EFA7405AD
:109ADD00129B0F12A2A004FF90001FE02FF080B880
:109AED007DE07F8A12B761EF4410129B0690002033
:099AFD00E0FB7DFF7F8A02BC3D05
:109B0600FB7DE07F8A12BC3D22900025F07F8A1201
:039B1600B79A22D9
:100066000A0D6D6F646520300A0D000D0A5B4D5355
:10007600475D536574345769646553637265656E8D
:100086002829203D3E2053637265656E20746F20DB
:10009600343A33202121000A0D6D6F646520320A3F
:1000A6000D000D0A2B2B284F5344486967684D6590
:1000B6006E755F73756229204F53444D656E754C9E
:1000C6006576656C3A2564000D0A52455345545FC2
:1000D6004D6F6E69746F7256414C5545000A0D7925
:1000E600766D697820340A0D000A0D79766D697887
:1000F60020300A0D000A0D79766D697820310A0DD7
:10010600000A0D79766D697820320A0D000A0D799C
:10011600766D697820330A0D00436865636B205657
:100126004741204361626C65004F7574204F66201D
:1001360052616E676500FE62596B62714C2F713AAF
:1001460034FF001213566F6C756D65002020204138
:1001560075746F2041646A757374696E67202E2EFC
:100166002E2E20202000436F6D706F73697465001A
:1001760056657273696F6E004C4344205665727300
:10018600696F6E004456522056657273696F6E0031
:10019600574946492049500057494649204D414351
:1001A6000047415445574159004F534420506F73FF
:1001B6006974696F6E004F534420506F73696369A9
:1001C6005F6E004F534420FE5465714667FF004C36
:1001D600616E6775616765004C616E677565005392
:1001E600707261636865004964696F6D6100FE57EE
:1001F60056714667FF004272696768746E6573736D
:10020600004C756D696E6F7369745F0048656C6C40
:1002160069676B656974004272696C6C6F00FE40B9
:1002260024715F60FF00436F6E74726173740043E4
:100236006F6E747261737465004B6F6E7472617366
:100246007400436F6E74726173746500FE394F718A
:100256005F60FF0053617475726174696F6E00535D
:10026600AA74746967756E67005361747572616309
:10027600695F6E00FE4A2C33715F60FF004875654A
:1002860000546F6E616C69745C0046617262650051
:10029600546F6E616C6964616400FE4A5448715F14
:1002A60060FF0053686172706E6573730041637519
:1002B60069745C00536368AA726665004167756479
:1002C600657A6100FE463933715F60FF00526573DF
:1002D600657400445C66617574004772756E64658A
:1002E600696E7374656C75670050726564657465D4
:1002F600726D696E6163695F6E00FE66246DFF0054
:10030600576964652053637265656E0057494445B5
:1003160020FE6D3B714667FF004D6972726F720079
:100326004A756D70005345512054696D65205374AC
:100336006570004A756D702041560043616D204F0F
:1003460075740052657475726E00526563616C6CEB
:10035600004D6F6E69746F7220526563616C6C003C
:1003660044565220526563616C6C0045786974008E
:1003760020007665722041302E30350054696D6557
:100386004F757420536574757000476175676520F5
:1003960053657475700047617567652052656361C2
:1003A6006C6C005072696F7269747900526576657B
:1003B6007273204D6F6465005265736F6C75746956
:1003C6006F6E00465053005175616C697479005226
:1003D60065636F7264204D6F6465005265636F726A
:1003E60064204C656E677468005072652D616C619F
:1003F600726D00506F73742D7265636F7264004185
:1004060070706C79005265636F72645374617274B4
:10041600005265636F726453746F7000536E61703F
:1004260073686F7400446174652054696D65005982
:10043600656172004D6F6E74680044617900486FA3
:100446007572004D696E00536563004461796C698D
:10045600676874536176696E6700426567696E65A1
:1004660000456E64005765656B0054696D65005400
:10047600696D65205A6F6E650052657475726E26D9
:100486004170706C7900466F726D61742053442020
:100496004361726400417564696F205265636F72CF
:1004A60064004669726D7761726520557064617487
:1004B6006500596573004E6F004669727374204E6D
:1004C600756D626572005365636F6E64204E756D5F
:1004D600626572005468697264204E756D62657259
:1004E60000466F75727468204E756D6265720043C2
:1004F60068616E67652050617373776F7264004F31
:1005060076657257726974650044697220496D6137
:1005160067650054726967676572205647410054E3
:100526007269676765722044656C617900496E6619
:100536006F726D6174696F6E0055706461746520C9
:10054600436F6E66696700534420636F7665722059
:100556004465742E0043414D20410043414D2042E5
:100566000043414D20430043414D205200446973EE
:10057600706C61790044565220446973706C6179DD
:100586000044697374616E63652047617567650031
:100596004F5344204C6F636B0050617373776F72D7
:1005A6006400536F75726365205469746C6500430B
:1005B600564253204100435642532042004356427E
:1005C60053204300435642532052004175746F2016
:1005D600446179264E696768740044697220496DE2
:1005E6006167650044697220496D61676520410055
:1005F60044697220496D6167652042004469722032
:10060600496D6167652043005265617220536574C8
:1006160075700043414D20410043414D2052004337
:10062600414D20420043414D20430043414D20446B
:10063600000200456E676C697368004672616E7BE6
:10064600616973004465757473636800457370610E
:100656007E6F6C00FE6A2356FF200004014D6F6416
:100666006531004D6F646532004D6F64653300552A
:10067600736572004D6F646531004D6F64653200BD
:100686004D6F64653300557361676572004D6F6425
:10069600757331004D6F64757332004D6F647573F9
:1006A600330042656E75747A6572004D6F646F3102
:1006B600004D6F646F32004D6F646F330055737574
:1006C6006172696F00FE3A34FF3100FE3A34FF3240
:1006D60000FE3A34FF3300FE47515B71FF200008ED
:1006E600004175746F004E5453430050414C005303
:1006F6004543414D004E545343342E34330050414C
:100706004C4D0050414C4E0050414C3630000500D7
:100716004E6F726D616C00576964650050616E6F53
:1007260072616D610046756C6C000500FE1A1BFF58
:100736002000FE1C1DFF2000FE1E1DFF2000FE1FC8
:1007460020FF2000FE1F21FF200009004F666600E3
:1007560043433100434332004343330043433400B1
:1007660054310054320054330054340002004F4ECA
:10077600004F46460002004D4952524F52004E4F1E
:10078600524D414C000300446179004155544F00DD
:100796004E6967687400020031363A3900343A33DC
:1007A600000200004F4E004F464600040053494EDB
:1007B600474C45004455414C00545249504C450065
:1007C600412B422C422B410007004100412B4200A5
:1007D600412B4300412B5200412B424300412B4207
:1007E6005200412B43520007004200422B41004277
:1007F6002B4300422B5200422B414300422B4152D5
:1008060000422B43520007004300432B4100432B79
:100816004200432B5200432B414200432B415200DE
:10082600432B4252000A005200522B4100522B42E7
:1008360000522B4300522F414200522F4143005297
:100846002F424300522B414200522B414300522B70
:100856004243000E00515541440053455100412B7F
:100866004200432B5200412B5200522B4200412B97
:100876004300432B4200522F414200522B4142007B
:1008860041004200430052000500515541440043D7
:10089600414D410043414D420043414D43004341D8
:1008A6004D5200020000373230783438300033358C
:1008B60032783234300005000035003130003135F1
:1008C600003230003235003330000500004C6576CA
:1008D600656C2D31004C6576656C2D32004C657665
:1008E600656C2D33004C6576656C2D34004C657651
:1008F600656C2D35000300004E6F6E65004E6F72FD
:100906006D616C00416C61726D0006000031202043
:100916006D696E003220206D696E003320206D698E
:100926006E003420206D696E003520206D696E00E2
:100936003130206D696E0005000031352073656326
:10094600003330207365630036302073656300081A
:100956000000313520736563003330207365630012
:100966003630207365630002000044697361626C6F
:100976006500456E61626C6500040000466972732D
:1009860074005365636F6E64005468697264004650
:100996006F75727468000400410042004300520003
:1009A6001900002D3132002D3131002D3130002D4E
:1009B60039002D38002D37002D36002D35002D3409
:1009C600002D33002D32002D310030003100320071
:1009D6003300340035003600370038003900313036
:1009E6000031310031320002005020004420000363
:1009F6000032343030003438303000393630300090
:100A06000200FE1819FF2000FE1A1BFF200004003A
:100A1600FE1C1D1E1F2021FF2000FE222328292A3E
:100A26002BFF2000FE242528292A2BFF2000412BFE
:100A3600422C422B41000E00FE262728292A2BFF96
:100A4600200053455100412B4200432B5200412BBD
:100A56005200522B4200412B4300432B4200522F9F
:100A6600414200522B4142004100420043005200E5
:100A760056474100FF0176FF0176FF0176FF0176BA
:100A8600FF0176FF017EFF017EFF017EFF017EFFF3
:100A9600017EFF018AFF018AFF018AFF018AFF01A9
:100AA6008AFF0196FF0196FF0196FF0196FF0196C8
:100AB600FF019EFF019EFF019EFF019EFF019EFF1B
:100AC60001A7FF01A7FF01A7FF01A7FF01A7FF01DC
:100AD6001FFF012FFF012FFF012FFF012FFF013CF9
:100AE600FF0149FF01AFFF01AFFF01AFFF01BCFFEF
:100AF60001C9FF01D5FF01DEFF01E5FF01EDFF01A1
:100B0600F4FF01FCFF0207FF0212FF021DFF022491
:100B1600FF022CFF0235FF023FFF0248FF0252FF91
:100B2600025AFF025AFF0265FF026FFF027AFF02B6
:100B360083FF0287FF0290FF0296FF02A0FF02A931
:100B4600FF02B3FF02BAFF02C2FF02CAFF02D3FFCF
:100B560002D9FF02E0FF02EFFF0300FF031FFF03BE
:100B66001FFF031FFF031FFF031FFF0326FF0326AD
:100B7600FF0326FF0326FF0326FF032BFF032BFF9E
:100B8600032BFF032BFF032BFF0341FF0341FF034F
:100B960041FF0341FF0341FF0339FF0349FF0349B7
:100BA600FF0349FF0349FF0349FF0350FF0350FFBB
:100BB6000350FF0350FF0350FF0357FF0357FF0384
:100BC60057FF0357FF0357FF0366FF0366FF0366DE
:100BD600FF0366FF0366FF0371FF0371FF0371FFE7
:100BE6000371FF0371FF0573FF0573FF0573FF05AF
:100BF60073FF0573FF057BFF057BFF057BFF057B09
:100C0600FF057BFF0587FF0587FF0587FF0587FF34
:100C16000587FF0596FF0596FF0596FF0596FF05D6
:100C260096FF059FFF059FFF059FFF059FFF059FF9
:100C3600FF05A8FF05A8FF05A8FF05A8FF05A8FF53
:100C460005B5FF05B5FF05B5FF05B5FF05B5FF05FC
:100C5600BCFF05BCFF05BCFF05BCFF05BCFF05C30B
:100C6600FF05C3FF05C3FF05C3FF05C3FF05CAFF95
:100C760005CAFF05CAFF05CAFF05CAFF05D1FF055C
:100C8600D1FF05D1FF05D1FF05D1FF05E0FF05E046
:100C9600FF05E0FF05E0FF05E0FF05EAFF05F6FFBB
:100CA6000602FF060EFF060EFF060EFF060EFF06E5
:100CB6000EFF0619FF0619FF0619FF0619FF06198A
:100CC600FF0625FF0625FF0625FF0625FF0625FF4D
:100CD600062BFF062BFF062BFF062BFF062BFF0618
:100CE6001FFF061FFF061FFF061FFF061FFF063119
:100CF600FF0631FF0631FF0631FF0631FF0376FF9F
:100D06000378FF0382FF0390FF039CFF03A9FF0301
:100D1600B2FF0525FF0525FF0525FF0525FF05254E
:100D2600FF055BFF055BFF055BFF055BFF055BFFE3
:100D36000561FF0561FF0561FF0561FF0561FF05AF
:100D460067FF0567FF0567FF0567FF0567FF056D19
:100D5600FF056DFF056DFF056DFF056DFF03BEFF0A
:100D660003C9FF03CDFF03D5FF03E1FF03EFFF0335
:100D7600F9FF0405FF040BFF0417FF0422FF042BF1
:100D8600FF0435FF043AFF0440FF0444FF0449FF13
:100D9600044DFF0451FF0460FF0467FF046BFF046A
:100DA60070FF0475FF047FFF048CFF049BFF04A8FB
:100DB600FF04B8FF04BCFF04BFFF04CCFF04DAFF46
:100DC60004E7FF04F5FF0505FF050FFF0519FF05FD
:100DD60033FF053FFF054DFF0306FF0306FF03062E
:100DE600FF0306FF0312FE6C6F00FE727500FE60C5
:100DF6006300FE787B00FE666900FE848700FE01C4
:100E06000200FE7E8100FE8A8D00FE909300FE9613
:100E16009900FEC0C300FE9C9F00FEA2A500FEA88E
:100E2600AB00FEAEB100FEB4B700FEBABD000000D6
:100E360018031661180216610000FF0C81FFFFFF00
:100E46003200000700B807720000FF0BEBFFFFFF40
:100E56003200000700B907720000FF0C09FFFFFF10
:100E66003200000700BA07720000FF0C18FFFFFFF0
:100E76003200000700BB07720000FF0D11FFFFFFE5
:100E86003200000700CA07720000FF0D14FFFFFFC3
:100E96003200000700D6079C0000FF0BA0FFFFFFF3
:100EA6003200000300F1000000000000000000FF17
:100EB600FF00000000000000180216610000FF0D90
:100EC600B9FFFFFF3200000300F100000000FF0D34
:100ED600B6FFFFFF3200000300ED00000000000037
:100EE600000000FFFF00000000000000180216616D
:100EF6000000FF0DBCFFFFFF32000005002D0E3580
:100F06000000FF0DBFFFFFFF32000005002E0E356B
:100F16000000FF0DC2FFFFFF32000005002F0E3557
:100F26000000FF0DC5FFFFFF3200000500380E353B
:100F36000000FF0DC8FFFFFF3200000300EE0000B7
:100F46000000FF0BA0FFFFFF3200000300F10000CE
:100F560000000000000000FFFF000000000000008D
:100F6600180216610000FF0DBCFFFFFF32000005EE
:100F7600002D0E350000FF0DBFFFFFFF32000005FC
:100F8600002E0E350000FF0DC2FFFFFF32000005E8
:100F9600002F0E350000FF0DC5FFFFFF32000005D4
:100FA60000380E350000FF0DADFFFFFF32000003D5
:100FB60000EB00000000FF0DC8FFFFFF320EF60138
:100FC60000000EF20000FF0BA0FFFFFF320000033F
:100FD60000F1000000000000000000FFFF0000001C
:100FE60000000000180516610000FF0DA7FFFFFFB7
:100FF60032000007002C09A60000FF0D86FFFFFF48
:101006003200000500200E350000FF0D89FFFFFFAE
:101016003200000500210E350000FF0D8CFFFFFF9A
:101026003200000500220E350000FF0D8FFFFFFF86
:101036003200000500230E350000FF0D92FFFFFF72
:101046003200000500240E350000FF0DAAFFFFFF49
:101056003200000300F6000000000000000000FF60
:10106600FF000000000000000000FF0DB6FFFFFFBC
:1010760032000003009B00000000FF0DB9FFFFFFD8
:101086003200000300F1000000000000000000FF35
:10109600FF000000000000000000FF0DB6FFFFFF8C
:1010A60032000003007000000000FF0DB9FFFFFFD3
:1010B6003200000300F1000000000000000000FF05
:1010C600FF000000000000000000FF0DB6FFFFFF5C
:1010D60032000003009E00000000FF0DB9FFFFFF75
:1010E6003200000300F1000000000000000000FFD5
:1010F600FF000000000000000000FF0BBEFFFFFF26
:1011060032109E0100000E360000FF0BCDFFFFFFE0
:101116003210CE0100000E360000FF0BA0FFFFFFCD
:101126003200000300F1000000000000000000FF94
:10113600FF00000000000000180416610000FF0A0E
:10114600A7FFFFFF3600000B00F1000000000000C3
:1011560000FFFFFF3200000C00390E350000FF0AC9
:10116600B6FFFFFF3600000B00F100000000000094
:1011760000FFFFFF3600000C003A0E350000FF0AA4
:10118600C5FFFFFF3600000B00F100000000000065
:1011960000FFFFFF3600000C003B0E350000FF0B82
:1011A600A0FFFFFF3200000300F100000000000076
:1011B600000000FFFF000000000000001804166198
:1011C6000000FF0BAFFFFFFF32000003009B000093
:1011D6000000FF0BDCFFFFFF3200000300F40000FD
:1011E6000000FF0D02FFFFFF3200000B00F40000BD
:1011F6000000FF0D02FFFFFF3200000B00F40000AD
:101206000000FF0D02FFFFFF3200000B00F400009C
:101216000000FF0D02FFFFFF3200000B00F400008C
:101226000000FF0D05FFFFFF3600000B00F4000075
:1012360000000000000000FFFF00000000000000AA
:10124600180516610000FF0D6EFFFFFF3200000754
:1012560000E409100000FF0D74FFFFFF32000007D5
:1012660000E609550000FF0DB0FFFFFF3200000742
:1012760000EC099C0000FF0DAAFFFFFF32000003EF
:1012860000F5000000000000000000FFFF00000065
:1012960000000000180416610000FF0D6BFFFFFF41
:1012A60032124A01000012460000FF0D65FFFFFFE3
:1012B6003200000700E108BC0000FF0D68FFFFFFD9
:1012C6003200000700E208D00000FF0DADFFFFFF6F
:1012D600320F6A0100000F660000FF0DB3FFFFFF2B
:1012E600320EC20100000EBE0000FF0DAAFFFFFF76
:1012F6003200000300F5000000000000000000FFBF
:10130600FF00000000000000180516610000000044
:10131600000000FFFF000000000000001804166136
:101326000000FF0B07FFFFFF3200000400960E359A
:101336000000FF0B16FFFFFF3200000400950E357C
:101346000000FF0B25FFFFFF3200000400970E355B
:101356000000FF0B34FFFFFF3200000400990E353A
:101366000000FF0B43FFFFFF32000004009A0E351A
:101376000000FF0BA0FFFFFF3200000300F100009A
:1013860000000000000000FFFF0000000000000059
:10139600180516610000FF0CB7FFFFFF32000007BB
:1013A60000C107720000FF0CC6FFFFFF32000007F6
:1013B60000C207720000FF0CD5FFFFFF32000007D6
:1013C60000C307720000FF0CE4FFFFFF32000007B6
:1013D60000C407720000FF0BA0FFFFFF32000003EE
:1013E60000F1000000000000000000FFFF00000008
:1013F600000000000000FF0D26FFFFFF3200000482
:1014060000B20E350000FF0D35FFFFFF320000046D
:1014160000B30E350000FF0D44FFFFFF320000044D
:1014260000B40E350000FF0D53FFFFFF320000042D
:1014360000B50E350000FF0BA0FFFFFF32000003D2
:1014460000F1000000000000000000FFFF000000A7
:1014560000000000180516610000FF0C9FFFFFFF4B
:101466003200000700CD07CE0000FF0CA2FFFFFFF1
:101476003200000700CE07ED0000FF0CA5FFFFFFBE
:101486003200000700CF080C0000FF0BA0FFFFFF93
:101496003200000300F1000000000000000000FF21
:1014A600FF00000000000000180816610000FF0B96
:1014B60061FFFFFF32139A0100000E360000FF0D98
:1014C600CEFFFFFF32145E0100000E360000FF0C57
:1014D600A8FFFFFF3200000700C6082B0000FF0B25
:1014E60070FFFFFF3200000700C708590000FF0B1E
:1014F6008EFFFFFF3200000700C8088E0000FF0BBA
:101506007FFFFFFF3200000400C90E350000FF0D0B
:1015160017FFFFFF3213FA0100000E360000FF0B23
:10152600A0FFFFFF3200000300F1000000000000F2
:10153600000000FFFF000000000000000204FF3270
:101546000DEC000000FFFF32FF132601009F13225F
:101556000DF0000000FFFF32FF0E3E0100000E3AC4
:101566000DF4000000FFFF32FF14B201009F14AE1D
:101576000DF8000000FFFF32FF11C601000011C286
:1015860000000000000000FFFF0000000000000057
:101596000000000000FFFF32FF1546010000154263
:1015A60000000000000000FFFF0000000000000037
:1015B60000000064003200020034001A0001002C12
:1015C600001600000037001C000000C70064002D54
:1015D60000D200800000000700030000003F00204A
:1015E600002D00D200800000001F00100019007DB1
:1015F600005A001E00820069FF830018001E0000CA
:1016060000FF0080FF80007F00000000000700034D
:101616000000007F004011111171113B161A0102E2
:1016260001342C342C024B323232323232324B32CB
:1016360032321110131415707174727370717472E2
:101646007378630080800060808080802080808046
:10165600803B68F890900060808080802080808049
:10166600800358F8A0A00060808080802080808061
:101676008003322528282D64323232323232000A73
:10168600006000610062006300660067006800B9E0
:1016960000FC13DBA67B0060000017481BDB807B89
:1016A6000000000017481EF2807C800001B6314819
:1016B60026D58069000000006FDF13D4A691006074
:1016C6000000174821D4809100000000174813F24B
:1016D6008092800001B6344813DC807F0000000051
:1016E600605A14008B7C01500000294814DC807C71
:1016F60000000000294814F2807C800001B62948C9
:1017060014DC805F000000007B5A0C008B940150B3
:1017160000002D480CDC8094000000002D480CF2DF
:101726008094800001B62D480CDC807F000000000C
:10173600605A3AF680FB0050000026483AC380FB08
:101746000000000026483ACC80FB800001B62648FF
:101756003AC380BE00000000705A3FF98029045049
:1017660000002E483FC38029040000002E483FD0C9
:101776008029840001B62E483FC380E8000000009F
:10178600805A28A4806A04500000165A2884806A69
:1017960004000000165A2889806A84350035165AD6
:1017A6002884801C040000006B5A23F9801404501E
:1017B60000001F5A23C88014040000001F5A23F09B
:1017C6008014843501871F5A23C880E70000000073
:1017D600565A202020496E70757420203A20202009
:1017E60020202020202020202020200020202053E0
:1017F600797374656D203A20202020202020202037
:1018060020202020200020202048204672657120BC
:101816003A2020202020206B487A202020202000FB
:10182600202020562046726571203A202020202054
:101836002020487A202020202000202020462F57D4
:10184600205265763A2020202020202020202020AB
:101856002020200000000000000000000000000022
:10186600000000000000000000000000000001026F
:101876000202050505030404040404040404040424
:101886000404040404040404032020201C20202053
:101896002020202020202000202020202020202062
:1018A600202020002E003A0001010101010202025F
:1018B60002020205050505050505050505040404DE
:1018C600040404032020200004040404040320204C
:1018D6002000202020202020202020202000202042
:0A18E60020202020202020202000D8
:107BB500410122FF4101230041012800C120C11FCD
:107BC500410110004101250041012A004101290020
:077BD50041011D00017900D0
:104F7E00D3900011E09400900010E09400227E0087
:104F8E00900011E09000105403FFEEF0A3EFF0221A
:104F9E0090010EE0FEA3E0F5828E83229000267A29
:104FAE00007927E0FF7E007B0190002F124A187BCC
:104FBE00FF22EE900010F0A3EFF02275F0101249D0
:104FCE00EC740E93FB740F93900111CBF0A3EBF0E6
:104FDE008F828E83ED75F0101249EC740993FF7475
:104FEE000A9390010ECFF0A3EFF022900029E02457
:104FFE00F1FF900028E034FFFE90002D0249F87575
:10500E00F0101249EC740D93227A1579C890003283
:10501E00124A187A1579B62290001F1249F890009C
:10502E000E1247D1AAF0F97BFF90002D124A18906C
:10503E00001F0249F8900010A3E0FD22E0FDE4906D
:10504E000035F0A3EDF02290010EE0FEA3E0FFF597
:10505E00828E8322E0FF900010E4F0A322E4900001
:10506E0010F0A3F022900028E0FEA3E0FF22E0FE65
:10507E00A3E0FF7B019000547409F02290010EE032
:10508E00FEA3E0FFEE90011EF0A3EFF0A322FD754C
:10509E00F00A84E5F02430F0ED75F00A84227E00EB
:1050AE0090012BEEF0A3EFF022E0FEA3E0FF9001C3
:1050BE0011E0FCA3E0F5828C832290000EE09000BC
:1050CE0010A4FFE5F08FF002479075F0101249EC36
:1050DE00740E93FC740F93AA04F97BFF90000712D1
:1050EE004A188F828E83227D017BFF7E00024675D9
:1050FE00FFE975F003A42416F582E43400F583224B
:10510E00900010E0FEA3E0FF900111E0FAA3E0F59D
:10511E00828A83740393FDE49322EFF090000FE0F4
:10512E002290004CE475F001124A0102469B900059
:10513E0002124A4D900128E075F003A4F58285F025
:10514E0083024A4DF0A3EFF0D39015B67401939FEE
:10515E00EE6480F8E49364809822FF900028E03497
:10516E00002290010EE0FEA3E0AA06F97BFF227555
:10517E00F0100249ECA3E475F001024790E0FEA3A3
:10518E00E02DFDEE3CFCEDA4FBAAF0FF900018E034
:10519E00229015B8E493FE740193FF22900010E460
:1051AE00F0A3740EF022F0E0FF25E02422F582E455
:1051BE003416F583E49322F0EF25E02423F582E400
:1051CE003416F583E493227E00EEF0A3EFF07B011C
:1051DE0022EEF0A3EFF0A32290000D0246B4C3908E
:1051EE000011E09403227D017BFF7E007F0C0246BE
:1051FE007590012DE0640122740E93FB740F939051
:10520E000111CBF0A3EBF022EF54F8FFA3E054070B
:10521E004FFB7D177F8A22900011E02403F090004F
:10522E0010E03400F02290000CE0FEA3E0FF9000AE
:10523E000AA3E0FD22FFE493FC740193FDC3EF9DEE
:10524E00FEE49C2290000EEEF0A3EFF0FD90001411
:10525E00E0FF22E57925E02415F582E43401F5839B
:10526E002235F0FA7BFF90000BE0900054F02224E0
:10527E0040F582E43400F5832290012BA3E0FF2257
:10528E00E0FFA3E090011ECFF0A3EFF0227D187C8B
:10529E00001246F3EF22FFE08FF0A4FF22A3E054AA
:1052AE00074438FB7D787F8A22C3900011E0940674
:1052BE0022F090003AE004F022E0FEA3E0FF7B0132
:1052CE0022E0FF7E007B017A00792822FBC3EF9B50
:1052DE00FFEE9400FEC322C3900011E0940222E080
:1052EE00FD75F00A84E5F0243022F9E43AFA024A18
:1052FE00182FFFE035F0FAA9077BFF22E024052FD7
:10530E00F075F0058422FFE4F0A3EFF02290001375
:10531E00A3E0FF22FF7E007B017A007927229FEE19
:10532E006480F8EC648098221249F802469B7D3224
:10533E007F267E002275F011A42401F9747E22F5D9
:10534E0082E43400F583EEF022F582E43400F58336
:03535E00EEF0224C
:03000E0012C11309
:0100110022CC
:05783800900012EFF0CA
:10783D0012000E900017EFF0900012E0B401047FDB
:10784D000180027FFF90001712530AE5F01251B428
:10785D00FEFD900013E4F0A3EDF0900126E0FDC3D2
:10786D00900014E09DF0900013E09400F09001263C
:10787D00EE1251C5FFFD900015E4F0A3EDF090015F
:10788D0027E0FDC3900016E09DF0900015E09400F8
:10789D00F0900127EFF09000187401F0900018E0BF
:1078AD00FFD39404506D12B27EAD07AC0690001359
:1078BD0075F00812518BF975F003A42417F582E4C5
:1078CD003400F583EFF0EA1250FEEFF0AF0112AE87
:1078DD0062AC06AD0790001575F00412518B75F072
:1078ED0003A42418F582E43400F583EFF0EAC4F81C
:1078FD0054F0C8EBC4540F485470FF900018E0F9D1
:10790D00125100E04F1250FEEFF0900018E004F01D
:10791D000278A912BAA27DE07F8A12B761EF54EF07
:10792D001279989000187401F0900018E0FFD3942C
:10793D00045031EF14FB7D9E7F8A12BC3D900018E0
:10794D00E075F003A42416F9740035F0FA7B01906C
:10795D00005A7403F07DA07F8A12B4F8900018E0ED
:10796D0004F080C57DE07F8A12B761EF4410127973
:10797D0098900017E0FF12C09912BAA2E4FB7D9017
:0A798D007F8A12BC3D900017E0FF56
:0A79970022FB7DE07F8A12BC3D2236
:10698F00901622E493900126F0901623E493900141
:10699F0027F0E4FF12C0997FB0126B207FA0126B1B
:1069AF00207FA07E0012BC17900146EFF07FA1124E
:1069BF006B287FA2126B287FBA126B377FA4126BE2
:1069CF00377FAB126B2F7FA3126B467FBB126B46C9
:1069DF007FA5126B2F7FA6126B3E7FA7126B3E7F98
:1069EF00A8126B4D7D327F387E0012B35C90016F21
:1069FF007432F0E4FF1285A27D327F377E0012B32E
:106A0F005C7D037FB27E0012B35C7FBC126B4D7F47
:106A1F00BD126B5C7FBE126B5C900103E0700FFDCB
:106A2F007FAEFE12B35C7D017FAC7E00800E7D0DCC
:106A3F007FAE7E0012B35CE4FD7FACFE12B35CE46C
:106A4F00900139F07D027FAAFE12B35C7FA9126B11
:106A5F0075E4FF12B1E57BFF7A00796612BF127DF4
:106A6F00337FA07E0012BACF7FB2126B757FB31245
:106A7F006B547FB4126B547FB5126B6D7FB6126B74
:106A8F006D12849DE4FF12C0B47D017FBF7E0012A2
:106A9F00B35C7FBF7E0012BC17EF24FF9209E4FDA9
:106AAF007FB8FE12B35C7FB87E0012BC1790010056
:106ABF00EFF07D017FB77E0012B35C7FB77E0012CF
:106ACF00BC179000FBEFF07D027FB97E0012B35C24
:106ADF007FB97E0012BC179000EDEFF0E4FD7FAFA1
:106AEF00FE12B35CE4900133F090010204F0FD7FDD
:106AFF00C57E0012B35C7F1B126B637F1C7E02127C
:106B0F00B35C7F1D126B637F1E7E0212B35C02A308
:106B1F008E7D017E0012B35C22E4FDFE12B35C2277
:106B2F007D017E0012B35C22E4FDFE12B35C227D78
:106B3F00017E0012B35C22E4FDFE12B35C22E4FD81
:106B4F00FE12B35C227D017E0012B35C22E4FDFED7
:106B5F0012B35C22E4FD7E0212B35CE4FD227D01E0
:0D6B6F007E0012B35C22E4FDFE12B35C2236
:10BF8F0012C11B900128EFF075F00584AFF0EFF0B0
:01BF9F00227F
:10BE3300EFB401047F0180027FFF90012812530AAF
:0CBE4300AFF0EFF012C0B4900128E0FF57
:01BE4F0022D0
:05A9A400900014EDF02D
:10A9A900EF75F003A42481FEE435F0A3F0A3CEF003
:10A9B900E4A3F0900017E0FFC394035043900016FE
:10A9C900E02FFF900015E03400FE12BC179000182C
:10A9D9001251D57A00791A124FB71250171297E906
:10A9E900900017E02471FD90001AA3E0FF90001475
:10A9F900E02FFB7F8A12BC3D900017E004F080B382
:01AA0900222A
:10A70900EFB401047F0180027FFF90012CE0240453
:10A71900FD90012BE03400FCEF3395E0FEED2FFFB7
:10A72900EC3EF0A3EFF07E0090012B124F95FD7FD8
:10A739008012B35C7F107E0012BC177E007B017A09
:10A74900007912124FB77A1579CE12501B1297E978
:10A75900125287900012A3E0FD12A9A47F807E0007
:10A7690012BC17EF64037BA860047D3080027D3240
:0AA779007F3E7E0012B9B212528733
:01A7830022B3
:05969500900012EFF04F
:10969A00ED90012CB4010DE02401FF90012BE03480
:1096AA0000FE800BE024FFFF90012BE034FFFE90C8
:1096BA000013EE125152501512519F900014E09F60
:1096CA00EE6480F8900013E0648098400302973CAF
:1096DA00900013E0FEA3E0FF1250AE7B017A0079FE
:1096EA0015124FB71250171297E9900012E0248A08
:1096FA00FFE433FEA3A3E0FD12B35C7F107E0012E9
:10970A00BC179000131251D57A007917124FB77A05
:10971A001579CE12501B1297E9900012E02471FDC0
:10972A00900017A3E0FF900015A3E02FFB7F8A1299
:05973A00BC3D12528746
:01973F002207
:10AE0A007D707F8A12B761EF54BFFB7D707F8A1213
:10AE1A00BC3D7D7412AE587D757F8A12BC3D7D762D
:10AE2A0012AE587D717F8A12BC3D7B807D727F8A0B
:10AE3A0012BC3D7B807D737F8A12BC3D7D707F8A08
:10AE4A0012B761EF4440FB7D707F8A02BC3D7B8074
:08AE5A007F8A12BC3D7B8022BF
:0688840090001FEFF0FD63
:10888A007F0B7E0012B35C90001FE06403606CE40F
:10889A00A3F0A3F0900020E0FEA3E0FFC3940FEE44
:1088AA0064809480503B90001FE0C454F02448F543
:1088BA0082E43416F583E5822FF582E5833EF5835B
:1088CA00E493FB900020A3E02438F58274163EF569
:1088DA0083E493FD7F8A12BC3D900020125184806C
:1088EA00B390001FE0C454F02457F582E43416F51F
:0B88FA0083E493900022125314804E80
:10890500E4FF12C13A12B5B97F0112C13A12B2326F
:108915007F0212C13AAD07E4FF12A7F67F0312C129
:108925003AAD077F0112A7F67F0412C13A12A86675
:108935007F0512C13A7E009000241251D77A007942
:0E89450022124FB77A16791012501B1297E9C2
:108953009000221252AB12BC3D7D177F8A12B76181
:0989630090002212521612BC3DD4
:01896C0022E8
:03C153007F002248
:07C13A0012C07C1250AC2280
:059BBB00900012EFF024
:109BC000EDB401067E007F0180047EFF7FFF9001DF
:109BD0002BE0FCA3E0FD2FFFEC3EFE9000131251A2
:109BE00052501612519F900013E0FAA3E0FB9FEE33
:109BF0006480F8EA6480984003AF0522900012E088
:109C000014601814601D14601A14602724FE602B61
:109C10002406702DAF0312B5B9802612531B12B261
:109C200032801E900012E024FEFFA3A3E0FD12A7E5
:109C3000F6800E12531B12A866800612531B12A93F
:109C40003B900012E0FFA3A3E0FD12C0A29000131E
:089C5000E0FEA3E0FF1250AE9C
:019C580022E9
:05B5B900900026EFF0F8
:10B5BE0012C14D900026E0BF010C125322124FB75C
:10B5CE007A1579F8800A125322124FB77A1579F24A
:10B5DE0012501B1297E99000FCE090161B93FD9001
:0AB5EE000027A3E0FB7F8A02BC3DAA
:05B23200900026EFF082
:10B237009000FCE064047017124FAA7A1579D412B3
:10B24700501B1297E9900027A3E0FB7D7480221220
:10B257004FAA7A1579FE12501B1297E912C153EFC4
:10B267009000276007A3E0FB7D3A8005A3E0FB7D04
:06B27700107F8A12BC3DAD
:01B27D0022AE
:10A93B007E007B017A007915124FB77A1579EC12EC
:10A94B00501B1297E97DFF7F8A12B761900017EFBA
:10A95B00F0E47DFF12A99D7DBE7F8A12B761EF5493
:10A96B00CF44107DBE12A99D7DC47F8A12B761EFC3
:10A97B005480FD900015E0A2E713A3E0134DFB7D7F
:10A98B00C47F8A12BC3D900017E0FB7DFF7F8A02DB
:02A99B00BC3DC1
:07A99D00FB7F8A12BC3D2282
:05A86600900026EFF058
:10A86B009000FCE06404702A9000267A007927128D
:10A87B004FB17A1579E012501B1297E97D707F8AE0
:10A88B0012B761EF54C0FF900027A3E04FFB7D7020
:10A89B00802F900026E0FF7E007B017A0079271243
:10A8AB004FB77A16790A12501B1297E912C153EF60
:10A8BB009000276007A3E0FB7D3E8005A3E0FB7DB6
:06A8CB00157F8A12BC3D5E
:01A8D1002264
:08A7F600900026EFF0A3EDF046
:10A7FE0012C153EF60301252CF124FB77A1679163C
:10A80E0012501B1297E9900026E0243CFD7F8A121D
:10A81E00B761EF5480FF900028A3E02FFB90002635
:10A82E00E0243CFD802C9000271252CF124FB77AB5
:10A83E0016790412501B1297E99000FCE090002646
:10A84E00B40405E024728003E02413FD900028A3D5
:07A85E00E0FB7F8A12BC3D04
:01A8650022D0
:05988E00900012EFF054
:109893007D787F8A12B761EF5407540F9000151239
:1098A3005314900012E0B401047F0180027FFFEFA4
:1098B3003395E09000158FF01247909016101251D7
:1098C300A2900015E0FCA3E0FDC312532C400D90C1
:1098D30016121251A2D3ED12532C400412528722B6
:1098E300AF057E007B017A007913124FB77A1579A1
:1098F300B6900032124A187A1679101297E990003E
:10990300151252AB12BC3D7D177F8A12B7619000CE
:109913001512521612BC3D900013A3E0FD7F0512F1
:0D992300C0A2900013E0FEA3E0FF1250AEC2
:019930002214
:10AA0A009000FCE090000AF09000FC7401F09000C5
:10AA1A00FCE0FFC394075030EFB40413E49000093C
:10AA2A00F0900009E090167E12AA5F40F48011E4CB
