:10380A006873636F6D20312031206368303A312547
:10381A00316278206368313A3025316278206368F2
:10382A00323A3025316278206368333A3025316282
:10383A00780A0D006873636F6D2031203120636848
:10384A00313A3125316278206368303A3025316265
:10385A0078206368323A3025316278206368333AD7
:10386A0030253162780A0D006873636F6D2031204C
:10387A0031206368323A256278206368303A30250D
:10388A00316278206368313A302531627820636882
:10389A00333A30253162780A0D006873636F6D2000
:1038AA00312031206368333A3125316278206368E8
:1038BA00303A3025316278206368313A30253162F6
:1038CA0078206368323A30253162780A0D006873CD
:1038DA00636F6D20322032206368303A31253162BD
:1038EA0078206368313A3025316278206368323A49
:1038FA003025316278206368333A30253162780A9C
:10390A000D006873636F6D20322032206368323A8B
:10391A00256278206368333A3125316278206368FA
:10392A00303A3025316278206368313A3025316285
:10393A00780A0D006873636F6D2032203220636845
:10394A00303A3025316278206368333A3125316262
:10395A0078206368313A3025316278206368323AD8
:10396A0030253162780A0D006873636F6D2032204A
:10397A0032206368333A3125316278206368313AFC
:10398A003025316278206368303A302531627820F8
:10399A006368323A30253162780A0D006873636FC2
:1039AA006D20332031206368333A31253162782023
:1039BA006368303A3025316278206368313A3025BD
:1039CA00316278206368323A30253162780A0D0014
:1039DA006873636F6D20332033206368303A302573
:1039EA00316278206368313A302531627820636821
:1039FA00333A3125316278206368323A30253162B0
:103A0A00780A0D006873636F6D2033203420636871
:103A1A00303A3025316278206368313A3025316294
:103A2A0078206368333A3125316278206368323A04
:103A3A0030253162780A0D006873636F6D20342077
:103A4A0031206368303A3025316278206368313A30
:103A5A003025316278206368323A30253162782025
:103A6A006368333A31253162780A0D006873636FEF
:103A7A006D20322032206368303A31253162782055
:103A8A006368323A3025316278206368313A3025EA
:103A9A00316278206368333A30253162780A0D0042
:103AAA006873636F6D20322032206368323A256270
:103ABA0078206368313A3025316278206368303A79
:103ACA003025316278206368333A30253162780ACA
:103ADA000D006873636F6D20332033206368333AB7
:103AEA003125316278206368303A30253162782096
:103AFA006368313A3025316278206368323A30257A
:103B0A003162780A0D006873636F6D2032203220AB
:103B1A006368333A3125316278206368323A302556
:103B2A00316278206368313A3025316278206368DF
:103B3A00303A30253162780A0D006873636F6D2060
:103B4A00332031206368333A312531627820636843
:103B5A00303A3025316278206368323A3025316252
:103B6A0078206368313A30253162780A0D0068732B
:103B7A00636F6D20332031206368333A3125316217
:103B8A0078206368313A3025316278206368323AA6
:103B9A003025316278206368303A30253162780AFC
:103BAA000D006873636F6D20332033206368333AE6
:103BBA003125316278206368303A302531627820C5
:103BCA006368323A3025316278206368313A3025A9
:103BDA003162780A0D006873636F6D2033203320D9
:103BEA006368333A3125316278206368313A302587
:103BFA00316278206368323A30253162782063680E
:103C0A00303A30253162780A0D006873636F6D208F
:103C1A00332033206368303A312531627820636873
:103C2A00313A3025316278206368323A3025316280
:103C3A0078206368333A30253162780A0D00687358
:103C4A00636F6D20332033206368303A3025316248
:103C5A0078206368323A3025316278206368333AD3
:103C6A003125316278206368313A30253162780A29
:103C7A000D006873636F6D20322032206368313A19
:103C8A003125316278206368303A302531627820F4
:103C9A006368323A3025316278206368333A3025D6
:103CAA003162780A0D006873636F6D20322032200A
:103CBA006368313A3125316278206368323A3025B7
:103CCA00316278206368333A30253162782063683C
:103CDA00303A30253162780A0D006873636F6D20BF
:103CEA00322032206368313A3025316278206368A5
:103CFA00333A3125316278206368323A30253162AD
:103D0A0078206368303A30253162780A0D0068738A
:103D1A00636F6D20332033206368313A3125316275
:103D2A0078206368303A3025316278206368323A05
:103D3A003025316278206368333A30253162780A57
:103D4A000D006873636F6D20332033206368313A46
:103D5A003025316278206368303A30253162782024
:103D6A006368333A3125316278206368323A302504
:103D7A003162780A0D006873636F6D203320332037
:103D8A006368313A3025316278206368323A3025E7
:103D9A00316278206368333A31253162782063686A
:103DAA00303A30253162780A0D006873636F6D20EE
:103DBA00322032206368323A256278206368303ACA
:103DCA003025316278206368313A302531627820B3
:103DDA006368333A30253162780A0D006873636F7D
:103DEA006D20322032206368323A25627820636877
:103DFA00313A3025316278206368333A30253162AE
:103E0A0078206368303A30253162780A0D00687389
:103E1A00636F6D20322032206368323A256278203F
:103E2A006368333A3125316278206368313A302544
:103E3A00316278206368303A30253162780A0D00A1
:103E4A006873636F6D20332033206368323A2562CA
:103E5A0078206368303A3025316278206368313AD5
:103E6A003025316278206368333A30253162780A26
:103E7A000D006873636F6D20332033206368323A14
:103E8A00256278206368303A302531627820636889
:103E9A00333A3125316278206368313A302531620C
:103EAA00780A0D006873636F6D20332033206368CE
:103EBA00323A256278206368313A302531627820B7
:103ECA006368333A3125316278206368303A3025A5
:103EDA003162780A0D000D0A507265762E46573AFD
:103EEA0025303478000D0A437572722E46573A25EA
:103EFA00303478000D0A5B4D53475D6D61696E5F22
:103F0A00696E697428293D3E2072657620213D201C
:103F1A00465756455220262063616C6C20436C65D7
:103F2A0061724261736963454528290D0A000D0AC9
:103F3A0043616E6E6F7420616363657373204545D8
:103F4A0050524F4D21212121000D0A4E6F20696EDA
:103F5A00697469616C697A6500545738383136007A
:103F6A005457383831364200545738383137004EB2
:103F7A006F7468696E67202D2D3078253032780D80
:103F8A000A00436865636B20616761696E202D2DA5
:103F9A003078253032780D0A004C617374204368FA
:103FAA0065636B202D2D3078253032780D0A00FF9D
:103FBA00380AFF383EFF3872FF38A4FF38D8FF3975
:103FCA000CFF393EFF3972FF39A6FF39DAFF3A0E84
:103FDA00FF3A42FF3A76FF3AAAFF3ADCFF3B10FF6C
:103FEA003B44FF3B78FF3BACFF3BE0FF3C14FF3C0C
:103FFA0048FF3C7CFF3CB0FF3CE4FF3D18FF3D4CD2
:10400A00FF3D80FF3DB4FF3DE6FF3E18FF3E4AFFFD
:10401A003E7CFF3EAE2D2D2D3E2050616E656C3AE2
:10402A0020575647412D3830302A343830202D2D2C
:10403A00205449434F4E4C45535320485320376927
:04404A006E63680039
:107A2100012D00013000C10DC10C02310000012FF8
:107A310000024C000041013B01C10EC10F41013E5A
:107A41000041013C0041013F0044014000000000B1
:10B0EA00ED90001DF090001BE090001E2290001BC6
:10B0FA00E090001DF022EBA3F090001CE090001FEE
:10B10A0022FFEA33FE7C007D14124712744E2DF89A
:10B11A00E62290001CE0A3F0A32290001DF090000C
:10B12A001CE090001E22900029F0A3EFF07BFF2282
:10840C007B107DE07F8A12BD1E12AB4E900000EEF9
:10841C0012B1337A3E79E0900029EEF0A3EFF0121E
:10842C00BC8412AB4EEF64107003EE640260287BC8
:10843C00FF7A3E79EF9000297402F0A37410F012C9
:10844C00BC847F107E0212B50C12AB4EEE12B13012
:10845C007A3E79EF12BC8412AB4EEF64107003EECF
:10846C0064027033900000E064027004A3E06410B6
:10847C00601B900101E0FF12C1A87F0112C1C31261
:10848C00BC5D7BFF7A3E79FE12BC84802C12C21339
:10849C00900101EFF080227BFF7A3F793812BC8487
:1084AC007BFF7A3F795312BC8490010174FFF07FFB
:1084BC000112B8B4E4FF02A6737F087E0012BCF868
:1084CC0090010DEFF06004E0FF80027F0112B8B460
:1084DC0012A1D29000FC74FEF012ACC712B9267F28
:1084EC000612891C7F0A12C04812C1297DFF128511
:1084FC001E7D8212851EE4FB7DFF7F8A12BD1E7BD2
:10850C00FF7DD07F8A12BD1E7BFF7DD17F8A12BD7D
:01851C001E40
:09851D00227B017F8A12BD1E229F
:10B18A0075F68775F65975BF10E4F5F6758DF47581
:10B19A009850758922758855758A40758C407587CF
:10B1AA008075B80275A892D299D2ACF5C8C2CAD233
:10B1BA00AD75AA5075BAF443A61843AD10C20F75FF
:0FB1CA00DE4243D840F5B175B220F54AF549226F
:03000B00027B7401
:0B7B7400C0E0C083C082C0D075D00804
:107B7F00054B90013DE0600214F090013DE0703341
:107B8F00E5A05460C4135403FF900143E06F6023DA
:107B9F00900141E0900140F0900142E0900141F0EE
:107BAF00900143E0900142F0A3EFF0D21090013D1D
:107BBF007430F0E54BD394605003027CBB0534E581
:107BCF003470020533754B00052FE52F6464600395
:107BDF00027C7390010CE094FF5003E004F0E56524
:107BEF002401FFE43564FEE43563FDE435628F65FF
:107BFF008E648D63F562752F009000F3E0D39401CE
:107C0F004003E014F090006AE004F0900147E0D3E5
:107C1F0094004003E014F030110690013CE004F0B2
:107C2F0030040690013FE004F090006AE0B43C0895
:107C3F00E4F090007DE004F090007DE0B43C08E4B7
:107C4F00F0900089E004F0900089E0B41808E4F0A7
:107C5F00900088E004F0E53090013E6005E004F00C
:107C6F008002E4F0E54DF47003E54CF46008054D37
:107C7F00E54D7002054CE5A0F4549C6029E52DB448
:107C8F00030DE5A0F4549CF530C20CD20D8013E522
:107C9F002DB4640EE5A0F4549CF530D20CD20D75C2
:0C7CAF002D50052D8006752D007530004D
:097CBB00D0D0D082D083D0E03299
:10BEDB00E4F565F564F563F562900101F07F64129A
:0EBEEB00C048C22112C1E7D2B47F0102C04894
:10A14700E4FD7F8A12B842EF24DE601024D9601440
:10A15700242870197BFF7A3F7963800E7BFF7A3F53
:10A16700796A80067BFF7A3F797202C01412A1B325
:10A177007A3F797912BC8412C19DEF701B12A1B38B
:10A187007A3F798C12BC8412A1C5EF60EAE4FD7FA7
:10A197008A12B842EFF460DF7F6312C04812A1C58C
:10A1A700E412B1307A3F79A312BC8422E4FD7F8A9E
:10A1B70012B842900029E4F0A3EFF07BFF227F63FF
:0BA1C70012C048E4FD7F8A12B842225B
:10BEF900EFB4010553E8FE8011EF700743E80153E1
:0EBF0900E8FD22EFB4020643E80143E80222FD
:03001300020026C2
:03002600C2AA3239
:0300230002B9938C
:10B99300C0E0C0D075D00830981EC298AF997435F6
:10B9A3002549F8EFF6744E2549F8A60F0549E549F0
:10B9B300C394144003754900309904C299C20ED050
:04B9C300D0D0E032CE
:0300630002BA627C
:10BA6200C0E0C0D075D008E5AA30E01653AAFE7433
:10BA720025252EF8A69A052EE52EC39408400375B7
:10BA82002E00E5AA30E10553AAFDC20FD0D0D0E0C6
:01BA92003281
:0BC19D00E549B54A037F00227F012224
:08000300200EFD8F99D20E22A0
:08C20B00200FFD8F9AD20F22D3
:03002B0002C0ED23
:0FC0ED00C0E0C2CF0532E53270020531D0E0323B
:10C04800E52F2FFFE433FE7C007D64124712E52FB5
:07C05800B505FBE4B504F798
:01C05F0022BE
:10B75200900026E4F0A3E52FF0E47B3CFAF9F8AF81
:10B7620065AE64AD63AC621248CDAC00AD01AE0211
:10B77200AF03E47B64FAF9F8124842900026EE8F98
:0CB78200F012479D900026E0FEA3E0FFBF
:01B78E002298
:10BE5F00C3ED9FEC9E5010C374709FFF74179EFE2E
:0FBE6F00EF2DFFEE3CFE22C3ED9FFFEC9EFE2267
:08B3F200900026EEF0A3EFF03D
:10B3FA00900026E07002A3E06035E4900028F0A3F4
:10B40A00F0900028E0FEA3E0FFE4FCFD7BD8FAF907
:10B41A00F8D312495F400C900028E475F0011247F6
:0FB42A009D80DE90002674FFF5F012479D80C1D3
:01B4390022F0
:05606200900018EFF0B2
:10606700E4900025F0ED4410FDEB4410FBEF6405D0
:106077006015900018E0FF6420600CEF6421600752
:1060870090001BE04410F090001CE04410F09000DA
:1060970018E0124A8A61060061080161110261185D
:1060A70003611E04612F05613206613B0761180811
:1060B700615B09615B0A61060B61440C614C0D6110
:1060C700180E616A0F61781061831161781261831C
:1060D70013611E14619115610816619B1761A4185D
:1060E70061081961B11A619B1B61111C61C51D61B2
:1060F7002F1E61111F61DC2061C521000061ED8049
:106107001690001DEBF0A3ED801412B0F7A3ED80FD
:106117002F12B11CED801890001DEDF0A3EBF0904D
:10612700001BE090001F80250261D1ED12B124F021
:10613700A3EB802812B11CEBF0A3ED801F12B0EA8D
:10614700F0A3EB800812B0F7A3EBF0A3EDF09000FB
:106157001C0261BE90001DEDF012B100F090001B13
:106167000261BE90001CE0A312B0EEF0A3EB026147
:10617700CB12B11CEDF090001B0261E512B11CEBD4
:10618700F090001BE090001F803A12B0EAF09000F8
:106197001C0261E5EB12B0EB12B1028027EB12B1E2
:1061A70024F0A3EDF090001B800D90001DEBF0EDA7
:1061B70012B101F090001BE0900020F0802812B08F
:1061C700F712B100F0A3EDF0801C12B0F712B1285E
:1061D700F0A3ED800D12B0F7A3EDF090001CE09056
:1061E700001FF0A3EBF0E4900021F0900021E0FF06
:1061F700C394145011744E2FF8E4F674352FF8E455
:10620700F6E004F080E59000FCE06403700C900178
:1062170035E070061262A80262A5E4900022F0122F
:1062270062A812B752900023EEF0A3EFF0A37428F0
:10623700F012B752C3900024E09FFF900023E09E26
:10624700FE12C191900025E0FDC3EF9D7480F86EAA
:106257009840DEE4900021F0900021E0FFC3941401
:106267005029744E2FF8E664417018E0FB7A002439
:106277000112B10BB4430CEB240212B10BB44B0364
:106287007F0122900021E004F080CD7FC87E0012BC
:10629700B3F2900022E004F0E0C3940340817F0052
:1062A70022900018E0FF3395E0FE903FB975F003A8
:1062B700EF1249F9EE75F003A42583F583124A2EF0
:1062C70090001DE0900029F090001EE090002AF059
:1062D70090001FE090002BF0900020E090002CF041
:0462E70012BC84223F
:10995D000D0A2B2B28436C6561724F5344496E667B
:10996D006F293A20446973706C617965644F534473
:10997D003A2532780020000D0A5B4D53475D44694E
:10998D0073706C6179496E7075742829203D3E2085
:10999D0053656C6563744D6F6465547970653D41B5
:1099AD00564D6F646520746F207365742074696DF6
:1099BD0065202620646973706C6179686F6C645FD3
:1099CD00666C61673D256278000D0A2B2B28446972
:1099DD0073706C6179566F6C2900202020545738B4
:1099ED00383036202020005465636877656C6C2C08
:0499FD00496E63004C
:047A510041016B0084
:0FC10B0075F011A42475F9747E35F0FA7BFF22CC
:0CC16D0090016BE0FEEFF4FFEE5FF022AB
:07C24B0090016BE04FF022AF
:06C2590090016BE0FF22E2
:10B0400012C259900010EFF012C259900029E4F09A
:10B05000A3EFF07BFF7A99795D12BC84900010E039
:10B06000FF20E20330E70512BCD2C207900010E0D7
:10B0700030E00312C0FC900010E030E40312C06026
:10B08000900010E030E10312B714900010E030E6B9
:04B090000312C129BD
:01B094002299
:1092BE0090000F74C2F012B0407BFF7A85799D1238
:1092CE009B477DFF7FA07E0012BBB07BFF7D327F70
:1092DE00A07E0012BA93E490000EF090000EE0FF14
:1092EE00C394F050197E007BFF7A997982900054D6
:1092FE007401F012BA2F90000EE004F080DD9001A0
:10930E006BE04410F012C265EF6401607790000EBE
:10931E007401F090000EE0FE75F011907E7412490B
:10932E00F9E4936F600890000EE004F080E5EE1211
:10933E00C10B12BFF990000DEFF0A3E012C10B901C
:10934E00000DE0900054F07FA07E0012BA2F7FA394
:10935E007E0012BCF8BF01199000EFE07013900070
:10936E00F37405F07BFF7A997984900029F012BC92
:10937E00847D017F0212B5507F0112BB5412B75289
:04938E008E7A8F7BC9
:0193920022B8
:10C06000E4FF12BB54E4FD7F0212B55090016BE077
:06C0700054EFF07F0122F5
:109462007BFF7A9979D612BC847DFF1295207D828A
:10947200129520E4FB7DFF7F8A12BD1E90016BE0F6
:1094820020E27C12B0407F0A12C0487BFF7A8679C4
:109492001F129B477D327FC87E0012BBB07B197DB5
:1094A200377FC87E0012BA937B197D737FDD7E0001
:1094B20012BA9312C0BB75F003EF900AF41249F985
:1094C200124A2EAE02AF01900006EEF0A3EFF07B3F
:1094D200FF12BFF9900006E0FCA3E0AA04F97BFFAB
:1094E200900054EFF07FC87E0012BA2F7D017F01F9
:1094F20012B550E4FD7F0412B5507F0112BB543007
:109502001B0590016E800390016DE0FF129F029097
:0D951200016BE04404F012B7528E7A8F7B9B
:10951F00227B017F8A12BD1E7F057E0012B3F222CD
:0FC0FC00E4FD7F0212B55090016BE054FEF0227C
:109DCA00E4900006F012C259900005EFF054967024
:109DDA0003029E63E030E11512C1F0900001EEF03B
:109DEA00A3EFF0A37407F0A374D0F08011900001E0
:109DFA00E57AF0A3E57BF0A3E4F0A374C8F012B708
:109E0A0052AD07AC06900001E0FEA3E0FF12BE5F70
:109E1A00D3900004E09F900003E09E503C90000520
:109E2A00E05484600D12BCD2900006EFF01292BE8C
:109E3A00C207900005E030E11D12B714900006EF4A
:109E4A00F07FA37E0012BCF8BF01069000F37403F2
:0B9E5A00F01292BEC2077F01227F00C1
:019E650022DA
:10BCD20090016BE030E20A7F0112BCEE54FBF0806F
:10BCE200087F0212BCEE547FF07F0122E4FD12B500
:06BCF2005090016BE022FE
:10AB4E00E4FFFE12BCF8EF6454600280287F017EA1
:10AB5E000012BCF8EF64576002801A7F027E00126A
:10AB6E00BCF8EF64386002800C7F037E0012BCF8E4
:10AB7E00EF64386004E4FEFF227F047E0012BCF80E
:10AB8E00EF900002F0A3E4F07F05FE12BCF89000F7
:10AB9E0002E0FEA3E04FFF900002EEF0FEA3EFF006
:01ABAE002284
:10B50C00900002EEF0A3EFF07D54E4FFFE12B43A8B
:10B51C007D577F017E0012B43A7D387F027E001287
:10B52C00B43A7D387F037E0012B43A900002E0FDFD
:10B53C007F047E0012B43A900002A3E0FD7F057EEA
:04B54C000002B43A0B
:08C213007F067E0012BCF82238
:09C1A800AD077F067E0002B43AE7
:08C21B007F097E0012BCF8222D
:09C1B100AD077F097E0002B43ADB
:07C223007F0A7E0012BCF847
:01C22A0022F1
:10A1D200E4900003F0900002F0900002E075F011AC
:10A1E200907EC91249F9E493124A8AA20900A21583
:10A1F20001A21E02A22703A23004A23905A242062E
:10A20200A24B070000A252900003E0FD7F0A7E00ED
:10A2120002B43A900003E04401F08034900003E07D
:10A222004402F0802B900003E04404F0802290006E
:10A2320003E04408F08019900003E04410F080101D
:10A24200900003E04420F08007900003E04440F0D7
:08A25200900002E004F080819D
:07C22B007F0D7E0012BCF83C
:01C2320022E9
:09C1BA00AD077F0D7E0002B43ACE
:02BE1E00AB0770
:10BE20009000FCE0FF7E007C007D06124700EF24BE
:0EBE30000CFFE43EFEEF2BFFEC3EFE12BCF8D2
:01BE3E0022E1
:10C088009000FCE075F006A4240C2FFF7E0002B49B
:01C098003A6D
:09C1C300AD077F0F7E0002B43AC3
:07C233007F0C7E0012BCF835
:01C23A0022E1
:09C1CC00AD077F0C7E0002B43ABD
:08C23B007F387E0012BCF822DE
:09C1D500AD077F387E0002B43A88
:08C243007F377E0012BCF822D7
:09C1DE00AD077F377E0002B43A80
:10BC5D00E4FD7FADFE12B43AE4900103F0FD7F08E0
:10BC6D00FE12B43AE4FD7F0EFE12B43A126BE612E8
:07BC7D00AAE87F01028CB46C
:10BF17009291D290120012C29022124A058E827517
:0EBF270083001246C1FF22EFF0A3EDF0A3222B
:0BB43A00900028EEF0A3EFF0A3EDF06F
:10B44500900028E0FEA3E07807CEC313CE13D8F909
:10B4550044A054FE90002BF012C07690002BE0FF24
:10B4650012A9B0900028A3E0FF12A9B090002AE02D
:0CB47500FF12A9B01200167F0202C048AE
:04BCF800AD07AC06E2
:10BCFC00ED7807CEC313CE13D8F944A054FEFF122F
:10BD0C00B842900033EFF07F0212C048900033E04D
:01BD1C00FF27
:01BD1D002203
:08B84200900034EFF0A3EDF0DB
:10B84A0012C076900034E0FF12A9B0900035E0FFF4
:10B85A0012A9B012C076900034E04401FF12A9B0D8
:10B86A0012BAC4900036EFF0120016900036E0FFCC
:01B87A0022AB
:10BD1E0090005512BF2EEBF012C076900055E0FF4A
:10BD2E0012A9B0900056E0FF12A9B0900057E0FFA4
:06BD3E0012A9B00200167C
:08B6D60090003412BF2EEBF0CE
:10B6DE0012C076900034E0FF12A9B0900035E0FF62
:10B6EE0012A9B0E4900038F0900037E0FFA3E0C359
:10B6FE009F5010900036E0FF12A9B0900038E00481
:06B70E00F080E5020016C8
:09B5D60090005512BF2E124A2507
:10B5DF0012C076900055E0FF12A9B0900056E0FF20
:10B5EF0012A9B0E490005BF090005AE0FFA3E0FED8
:10B5FF00C39F501190005712BF2112A9B090005B4A
:08B60F00E004F080E3020016E4
:09B87B00900015EFF0A3124A251C
:10B8840012C076900015E0FF12A9B0E490001AF0FF
:10B89400900019E0FFA3E0FEC39F50119000161220
:10B8A400BF2112A9B090001AE004F080E302001650
:0100120022CB
:10C07600D291120012D290120012C291120012C274
:02C08600902206
:0D001600C291120012D290120012D291225B
:10A9B000C290EF30E703D38001C312BF17EF30E638
:10A9C00003D38001C312BF17EF30E503D38001C367
:10A9D00012BF17EF30E403D38001C312BF17EF306B
:10A9E000E303D38001C312BF17EF30E203D380012A
:10A9F000C312BF17EF30E103D38001C312BF17EFBB
:10AA000030E003D38001C312BF17C290C290D2912D
:09AA1000D290D290D290C29022A3
:10BAC400E4FFD291120012C290FDFCD290EF25E067
:10BAD400FF3091034401FFC2900DBD00010CED64E1
:0FBAE400084C70E7120012D290D290D290C2900C
:01BAF3002230
:1062EB000D0A504F574552206B65792070726573BC
:1062FB00736564000D0A4D454E55206B6579207012
:10630B00726573736564000D0A494E505554534FB3
:10631B0055524345206B65792070726573736564C4
:10632B00000D0A5550206B6579207072657373658B
:10633B0064000D0A444F574E206B657920707265CF
:10634B0073736564000D0A53454C4543544B4559D3
:10635B00206B65792070726573736564000D0A4E4E
:10636B004F542041535349474E4544206B65792088
:10637B0070726573736564000D0A504F5745522058
:10638B006B657920000A0D62757377203020312000
:10639B0037452038300D0A000A0D627573772030AF
:1063AB0020312037452038310D0A000A0D627573F4
:1063BB0077203020312037452038320D0A000A0D66
:1063CB0062757377203020312037452038330D0A22
:1063DB00000A0D6275737720302031203745203845
:1063EB00340D0A000A0D6275737720302031203787
:1063FB00452038350D0A000A0D6275737720302061
:10640B00312037452038360D0A000A0D6275737737
:10641B00203020312037452038370D0A000A0D6215
:10642B00757377203020312037452038380D0A001E
:10643B000A0D6275737720302031203745203839AB
:10644B000D0A000A0D627573772030203120374515
:10645B002038410D0A000A0D627573772030203108
:10646B002037452038420D0A000A0D6275737720DC
:10647B003020312037452038430D0A000A0D627554
:10648B007377203020312037452038440D0A000A1D
:10649B000D62757377203020312037452038450D3C
:1064AB000A000A0D627573772030203120374520A2
:1064BB0038460D0A0054726967676572466C6167EE
:1064CB003D25303278000D0A4D454E554B45592030
:1064DB006B657920000D4F53445F4C4F434B000DC0
:1064EB000A52454D4F5F564F4C5550000D0A5245C1
:1064FB004D4F5F564F4C444E000D0A4556454E547A
:10650B004B4559206B657920707265737365640018
:10651B000D0A5B4D53475D436865636B4B6579496A
:10652B006E28293D3E20497352756E323833354300
:0D653B006C6B54756E653D25627800202064
:107A55004101450041014A004101480041014600FC
:107A65004101490041014B0041014400C11601702B
:037A750000C11835
:10C09900E5A0F454906490227C007D0AAE02024728
:01C0A9001284
:0EC1380012C259EF30E10302002E12B9C722E5
:0DC1460012C259EF30E1057F01126F8E2209
:0DC1530012C259EF30E1057F02126F8E22FB
:10BFC30012C259EF30E10B3020057F010280A3023A
:0BBFD30074717F011282EB1294622255
:10BFDE0012C259EF30E10B3020057F020280A3021E
:0BBFEE00002E7FFF1282EB12946222F3
:10910B00900004EFF0A3EDF012C179900004E0128F
:10911B004A8A918F00918F01918F02918F03918FCA
:10912B0004918F05918F06918F07918F08918F096D
:10913B0091600C91B51091BA1191A01591CD16912A
:10914B009620919B21917438917D3A91DB3E91BF92
:10915B003F000091E274FF900109F0A3F09000052D
:10916B00E060037F01227F002212BE7E128BD37F31
:10917B00012212C259EF30E40512C0608003129233
:10918B00BE7F0122900005E07F012212C14680477D
:10919B0012C1538042900005E060037F012212C28E
:1091AB0059EF30E132127471802D12BFC380281237
:1091BB00BFDE8023900005E060037F012212C138DF
:1091CB00801512C259EF30E10E7FF41291E5800742
:0A91DB007D017FC0122DF07F0122FC
:104AEA009000017401F0301826201623C3E565955D
:104AFA0074FFE5649573FEE5639572FDE562957151
:104B0A00FCE47B0AFAF9F8D312495F5002C2187F13
:104B1A000112AE8B900002EFF07003024F36E024D0
:104B2A00F8601C24F8602024F0602424E060282423
:104B3A00C0602C247C70307BFF7A6279EB802E7BFC
:104B4A00FF7A6279FF80267BFF7A637912801E7B67
:104B5A00FF7A63792C80167BFF7A63793D800E7B1E
:104B6A00FF7A63795080067BFF7A63796812BC8486
:104B7A00900135E0600C900002E064106004E402E9
:104B8A004DFD7FAC7E0012BCF8900003EFF012C01E
:104B9A0099703FE0703C7FD07E0712B3F212C09941
:104BAA00600790014AE0B403297D017FAC7E0012C0
:104BBA00B43A9000037401F0FF12891C7FD07E077B
:104BCA0012B3F212C129E4900147F090014AF0129F
:104BDA0092BE900147E07013900003E0700D9001BF
:104BEA004AE06007E4F07F0112BEF9900002E0603B
:104BFA0010A3E0700C12C0996007E4124F5F7F01A6
:104C0A002212C179900002E0124A8A4EBE024C3446
:104C1A00044D4A084F090C4E24104DAC204DD0408B
:104C2A004E06804EC69000004F367BFF7A6379832A
:104C3A0012BC84201603024D0AE570C3940F400586
:104C4A00E4F57080020570E570124A8A4C8F014CB7
:104C5A0097024C9F034CA7044CAF054CB7064CBFB8
:104C6A00074CC7084CCF094CD70A4CDF0B4CE70C52
:104C7A004CEF0D4CF70E4CFF0F00004C877BFF7A70
:104C8A0063799080767BFF7A6379A3806E7BFF7A63
:104C9A006379B680667BFF7A6379C9805E7BFF7A27
:104CAA006379DC80567BFF7A6379EF804E7BFF7AEB
:104CBA0064790280467BFF7A647915803E7BFF7AAD
:104CCA0064792880367BFF7A64793B802E7BFF7A71
:104CDA0064794E80267BFF7A647961801E7BFF7A35
:104CEA0064797480167BFF7A647987800E7BFF7AF9
:104CFA0064799A80067BFF7A6479AD12C014804C7D
:104D0A007BFF7A6479C0900135E0FF900029E4F0D6
:104D1A00A3EFF012BC84201223900135E060030255
:104D2A004F36FD7F0C12910B900001EFF0E49000DA
:104D3A00EEF0FD7FABFE12B43A024F36C212804E3D
:104D4A007BFF7A6479D112BC8430160AAF707E0078
:104D5A0012A576024F36201244900003E07010121A
:104D6A004F5F1292BE7BFF7A6479E0E4024F001231
:104D7A00C259EF30E10B3020028019127471024FD0
:104D8A003612C259EF30E20C12B04012B714129226
:104D9A00BE024F367F3F124F55F0024F367F09024F
:104DAA004EB620121C12C259EF30E1077F013020A3
:104DBA002A80227A6479EA124F6C7F10124F55804A
:104DCA00327F06024EB620122E12C259EF30E1117E
:104DDA007F023020061280A3024F36126F8E024FD6
:104DEA00367A6479F7124F6CE4FD7F1112910B90B9
:104DFA000001EFF07F01227F07024EB620121690C3
:104E0A0000EFE0700A12C259EF30E10312B7141230
:104E1A009E66024F367F05024EB6900135E0FF606E
:104E2A0009900103E07003024F36EF6038900149A0
:104E3A00E07032900103E06401702A900135E0309D
:104E4A00E50312C1299001497401F0900144E07010
:104E5A0008900133E090014BF09001447401F09006
:104E6A000133F0803F201242900149E06017E4903C
:104E7A000135F09001377407F0E4900149F0900190
:104E8A0033F0024F369000EFE0700A12C259EF3049
:104E9A00E10312B714900133E0700404F08005E4D2
:104EAA00900133F012AD7D024F367F041269DAD2D7
:104EBA0017024F367BFF7A657904803E90016DE0D8
:104ECA0064147068301865301614C2167F0112BE59
:104EDA00F97D027FA07E0012BBB0C218800ED216E6
:104EEA007F0212BEF9AF707E0012A5767BFF7A654B
:104EFA00791BA216E433900029F012BC84802D900D
:104F0A00016DE0641770257F0212BEF97F647E008E
:104F1A0012B3F2124F3C124F3C7F0112BEF9D21863
:104F2A00856574856473856372856271900001E09A
:014F3A00FF77
:104F3B00227F0112BEF97F647E0012B3F27F021250
:104F4B00BEF97F647E0012B3F222E4FD12910B9046
:104F5B000001EF22FF12891C7FF412C04812C129F5
:0C4F6B00227BFFE4900029F012BC84229D
:10AE8B00A20D9221C20D30103AE5307036D22190CE
:10AE9B000140E0FEB40313A3E0B4020EA3E0700A7A
:10AEAB00A3E0B401057530408017EEB40313900195
:10AEBB0041E0B4010CA3E07008A3E0B402037530C9
:10AECB0020C2102021037F0022EF6003AF3022202D
:07AEDB000C03AF30227F00E1
:01AEE200224D
:08A57600900004EEF0A3EFF0E9
:10A57E0078067C007D017BFF7A6579467E007F023E
:10A58E00124682900004E0FAA3E0FBFF12C0A1ED98
:10A59E002430900007F0AF0312C0A1900004EEF03B
:10A5AE00A3EFF02430A3F07BFF7A8579D5129B4779
:10A5BE007F1012C24B7D027FA07E0012BBB07B02C9
:10A5CE007D377FA07E0012BA937B017A00790690C8
:10A5DE0000547402F07FA07E0012BA2F7D017F021C
:08A5EE0012B5507F0102BB54BD
:107E14000D0A43485F5457323833352825303278B9
:107E2400292C526561644465636F646572283078F7
:107E34003636293D256278000D0A2043485F4156B5
:107E44002825303278290020200A0D000A0D627599
:107E5400737720302031203745203839000A0D62ED
:107E6400757377203020312037452038390D0A00CA
:107E7400FE00000000000000000000000000000000
:107E840000014356425300000000000000000000BF
:107E940000000243414D20440000000000000000A7
:107EA40000000003415620200000000000000000F4
:107EB40000000000000000000000000000000000BE
:107EC4000000000000FE00000000000000000000B0
:107ED400000000000000014E545343000000000065
:107EE400000000000000000250414C0000000000AF
:107EF400000000000000000003534543414D000012
:107F04000000000000000000000550414C4D00003E
:107F1400000000000000000000000650414C4E002C
:107F240000000000000000000000000750414C3633
:107F3400300000000000000000000000044E545314
:107F440043342E3433000000000000000000000021
:0E7F540000000000000000000000000000001F
:107A7800C10BC104C1024100F600011D004400F71A
:107A880000000000440104000000004100F0004133
:107A980000EB00C185011F00011300011100011254
:107AA80000011E00011500011400011A004100FF29
:107AB800004100EC004100F2004100FD004100F5EA
:107AC80000C1004100FE00C106C101C183C107C158
:017AD8000AA3
:10B4810074F72FF582E43400F58322EF75F011A4EF
:10B491002474F582E4347EF583E49322F074042F5E
:10B4A100F582E43401F583229000010246C1E4FBF8
:10B4B1007DFF7F8A22E4F51BF51CF519F518229012
:06B4C100001CE004F02273
:06B1D90090001F124A2540
:10B1DF00E4FE1246A8900022F012B4A98029900034
:10B1EF001F124A051246A8FFB4FF0612B4A9F46055
:10B1FF0022900023EFF0FD12B4A9900024F0FB90F1
:10B20F000022E0FF12BD1E900020E475F0021247ED
:09B21F009D80CB12B4AF02BD1EEC
:10A4730090001EEFF07BFF7A5D79C212B1D912B45E
:10A48300AF12BD1E90001EE024FE60131460102462
:10A49300FD600C240624F85011240A600D80117B02
:10A4A300FF7A5F791212B1D9800690001E7401F011
:10A4B3009000FCE0B4051390010DE07002800B9056
:10A4C300001EE014FF12BF52800312BE3F7B157DB6
:10A4D300297F8A12BD1E7B067D5C7F8A12BD1E7F8B
:10A4E3000B7E0012BCF8128A0812C21B128CB4C273
:02A4F300232222
:10C0AA007D017F8A12B842EF30E7037F01227F00C9
:01C0BA002263
:10952F00E490001BF0A3F09000FCE0B4050990015B
:10953F000DE060030295E2E4900019F012AFEA909B
:10954F00001AEFF090001CE004F0E0C3940A40030F
:10955F000295E290001AE0FF64FE60E09000F1E0F7
:10956F00FEEF6E60D7900019E0FFA3E0FEB507068F
:10957F00A3E004F0800AE490001BF0900019EEF0D5
:10958F0090001BE0C3940240B390001AE0FF700BF1
:10959F0012B8B490001D7401F080309000F1E070AB
:1095AF00119000EFE0700630070312C1291295E306
:1095BF0080149000EFE0700630070312C129129556
:1095CF00E37F3212C048E490001DF090001DE024AC
:0395DF00FF920AEE
:1095E2002290001AE0FF12B8B490001AE0FF12A411
:0295F2007322E2
:10BDFB0012C0AAEF60037F01227D1C7F8A12B8421A
:10BE0B00EF54F0FF30E7037F0122EF5470C4540F5F
:02BE1B0004FF22
:01BE1D002202
:10AE320012BDFBAB07EB24FE601914601624FD6003
:10AE420012240224FC500424077017751B00751C81
:10AE52003C8006751B00751C32E475196B75183D34
:10AE6200800312B4B6F517F516E4FFEF75F011A4DE
:10AE720024C9F582E4347EF583E493FEB50301220E
:08AE8200EE60030F80E57F0084
:01AE8A0022A5
:06C25F009000F1E0FF2257
:10B8B4009000F1EFF024FE601914601624FD60126C
:10B8C400240224FC500424077017751B00751C3CCB
:10B8D4008006751B00751C32E475196B75183D8064
:09B8E4000312B4B6F517F51622A3
:06C265009000FCE0FF2246
:10BE7E007F0112B48CFE9000FCE0FDEE6D60030FAE
:0EBE8E0080F00F12B48C70027F0112B48CFF92
:01BE9C002283
:09C1E700302103D2B722C2B722B5
:108BD300900018EFF09000FCE06F7003028CA190FE
:108BE300013AE0B4010543E804800312B808900099
:108BF30018E09000FCF09000F1E0FF12A4739000E5
:108C0300FCE024FD60202402705612BD8F128CAA52
:108C1300C2957D667F8A12B84290002BEFF07BFFEE
:108C23007A7E7914802A12BDB3128CAAD2957D71F3
:108C3300128CA27D72128CA27B907D737F8A12BDEF
:108C43001E7B807D747F8A12BD1E7BFF7A7E793CFA
:108C53009000FCE0FF900029E4F0A3EFF012BC8445
:108C630012AEE39000FCE0FF12C1C37F1E12C048A6
:108C730012952F1292BE90013AE0B4010553E8FB1E
:108C83008005E4FF12A6737F6412C0487BFF7DD08A
:108C93007F8A12BD1E7BFF7DD17F8A12BD1E227B80
:108CA300907F8A12BD1E22C21BE4FF1282EBC29484
:018CB300229E
:0DC16000C22112C20212B808E4FF02BEF9AB
:0CC1790012B752900109EEF0A3EFF02283
:09C1F000900109E0FEA3E0FF222A
:108D9500C374FF9FFFC39400400CEF94645007E435
:108DA500900002F0804BEFC39464400DEF948C501B
:108DB50008900002741EF08038EFC3948C400DEFCC
:108DC50094B45008900002743CF08025EFC394B42D
:108DD500400DEF94DC50089000027450F08012EFC3
:108DE500C394DC400CEFD394FF5006900002746EE0
:108DF500F0900146E0702C9000F6E0C3940A50050F
:108E0500E004F08024900002E0FFE51DD39F4004BC
:108E1500151D8008E51DC39F5002051DE49000F651
:108E2500F08006900002E0F51D7DFF7F8A12B842B2
:108E3500900001EFF012B4AF12BD1E7DBE7F8A1205
:108E4500B842EF54CF4410FB7DBE7F8A12BD1E7D14
:108E5500C47F8A12B842EF5480451DFB7DC47F8ACA
:0F8E650012BD1E900001E0FB7DFF7F8A02BD1E43
:10C0DD00E4900139F090010CF09001377408F022D2
:108632007FAB7E0012BCF89000EEEFF07FB07E00C0
:1086420012BCF89000EFEFF07FAA7E0012BCF89007
:10865200012FEFF07FAD7E0012BCF8900103EFF026
:108662007FA07E0012BCF8900146EFF07FB87E003A
:1086720012BCF8900100EFF07FB77E0012BCF890B8
:1086820000FBEFF07FB97E0012BCF89000EDEFF036
:108692007FBF7E0012BCF8EF24FF92097FC57E00E7
:1086A20012BCF8900102EFF07FAF7E0012BCF8908E
:1086B2000133EFF07FA512872FEE9001307006E0B4
:1086C2004401F08004E0540EF07FA612872FEE9052
:1086D20001317006E04401F08004E0540EF07FA7FF
:1086E2007E0012BCF8AE07EE9001327006E0440143
:1086F200F08004E0540EF07FA87E0012BCF8AE07B2
:10870200EF9001347006E04401F08004E0540EF072
:1087120012C23B90016DEFF012C24390016EEFF076
:0C8722007FB27E0012BCF89000F4EFF073
:09872E00227E0012BCF8AE072205
:1075E1007BFF7A7E794B12C0149000EFE070491254
:1075F100C259EF20E142300A2920073CD207E4902A
:1076010000F3F07FA3FE12BCF8EF700990016BE06C
:1076110054EFF080069000F37403F07F0612891C8A
:10762100801630071312C259EF20E60CC2077FA360
:107631007E0012BCF81292BE129C8B900000EFF0FB
:10764100126548900135E0701B900139E06015909A
:10765100012FE0FF90010CE0C39F400812BD6AE4D6
:1076610090010CF0900146E0700E7DC97F8A12B83E
:1076710042900000EFF080027FFF128D95124AEADE
:10768100EF700302774D9000F3E06401707312C252
:1076910059EF20E16C7FA37E0012BCF8EF6062120B
:1076A100C259EF20E25B900135E070509000EFE0AD
:1076B100700FFD7F0212B55090016BE054EFF08026
:1076C1003B900130E0540DF0900131E0540DF09009
:1076D1000132E0540DF0900134E0540DF012ADD8B8
:1076E100900130E04402F0900131E04402F0900159
:1076F10032E04402F0900134E04402F0E49000F3FF
:10770100F0129DCA12C265EF1424FD5002800A12C4
:10771100C259EF20E10312952F7DB27F8A12B84240
:10772100EF60030275EA7BB07DFD7F8A12BD1EE426
:10773100FF12BEF97FF47E0112B3F27F0112BEF98E
:0C7741007B307DFD7F8A12BD1E0275EAC0
:01774D002219
:10AC6B00C2B5C22112C2027F0A7E0012B3F2C2B475
:10AC7B0012B18A7F0112BEF912BEDB12C0DD12A126
:10AC8B004712840C7F0A7E0012B3F21286329001B7
:10AC9B0033E090014BF07FA97E0012BCF812B2C3D7
:10ACAB00E4900135F07BFF7A7E795012C01490004E
:0CACBB00EEE060031275E112A25A80F274
:10A25A00E4900002F0129C8B900001EFF0601BE08A
:10A26A00FF126548900137E0B40803D38001C34068
:10A27A0019E4FF12A673D221800D900001E0FF12AB
:10A28A00654812C160C22112C202E4FF12AE8B906D
:10A29A000000EFF060BFE0B404BB129C8BEF70B516
:10A2AA009000EE04F0FD7FAB7E0012B43A1292BE2B
:10A2BA0012ADD87FA37E0012BCF8BF01069000F34E
:10A2CA007403F0C207E4FF12A673D22112C2027B02
:08A2DA00FF7A7E796102C014D5
:107F6200900103E0600A640170359000EBE0702F2D
:107F72003005030280A2D205E490001CF090001CA0
:107F8200E0FFC39404500E12B481E412B49DE4F0F5
:107F920012B4C080E8E49000F0F09000EBF022C24E
:107FA200059000EBE0FF9000F0E0FED39F406AEE08
:107FB2009F90001DF0E490001CF090001DE0FF90E7
:107FC200001CE0C39F504AE4FF12B49EE0FE12B4CC
:107FD20081E06E600B90001EEE12B49DE4F080050D
:107FE2000FEFB404E4E4FF12B481E0FE90001EE05F
:107FF200FDEED39D401012B481E014F012B481E082
:10800200FE12B49EEEF00FEFB404DC12B4C0027F95
:10801200BC9000EBE09000F0F09000F0E090001DCA
:10802200F0A37405F0E490001CF090001CE0FFC384
:108032009404502812B481E0FF90001DE0FEEFB5D9
:10804200061590001CE0FF90001EF0EEB4010DEF4B
:10805200049000FEF0800512B4C080CE7F0112C0F1
:108062004890001EE014600D14600F146014240385
:108072007025E48025E4F5148022E4F514F515C298
:108082001922E4F514F515F51A9000ECE064066087
:108092000FE49000F5F022E4F514F515F51AC21973
:0180A20022BB
:10852600A10AA20AA000A310A410A591A601A70162
:10853600A822A910AA00AB62119E00000100CC0C73
:1085460002700000005000000F4000119E30310004
:10855600AFC81202F1100800500030004000119E12
:108566003100029000040170000000A0F5000F40E9
:1085760000119E3100029000030170000000F0F52A
:10858600000F4000119E3230000C0D0A01B10404A8
:108596000050C800044000119E313000160D0F0235
:1085A6003101000050A0000840119E3330100C9895
:1085B60028013101000000B400084000119E31304E
:1085C600000C020F023101000050A000084000110B
:1085D6009E3130000A0502013101000050A000085A
:1085E6004000119E32300040090204B1000890E0BC
:1085F60000043340119E3130008A091808B08A05FC
:10860600B05026083340119E30B40040270201F1D5
:10861600000000E0000033C100119E303C10906065
:0C8626001502F102044050C80036C100EB
:10A2E200900051FFE475F001124A0EEF0246EE9023
:10A2F200004FE0FEA3E0FF22EF14FB7D9E7F8A2247
:10A30200900010124A05900013E0F5827583000256
:10A3120046C1E0A4FFA3E5F0F0A3EFF07DA07F8AA1
:10A322002290005BE0FCA3E0FD22EEF0A3EFF0A39D
:10A3320022124712900059EEF0A3EFF04E22A3E052
:10A34200FB7D967F8A2212471290004FECF0A3ED1C
:10A35200F022F07B047D947F8A22EDF0EFC394011A
:08A3620022E4FB7D947F8A22B6
:10BB830012BBA5900028F0E4A3F012BBA5FF900020
:10BB930028E06F700C900029E004F0E0C3940A40A1
:01BBA300E9B8
:0CBBA400227D957F8A12B842EF544022A7
:10ACC700E490000EF0E490000DF090000DE0FFC35B
:10ACD7009408502FA3E075F008A4FEEF2E7D9C1278
:10ACE700AD17FFA3E075F0089018FE1249F9E58249
:10ACF7002FF582E43583F583E4937D9D12AD170428
:0FAD0700F080C790000EE004F0E0C3940240B665
:0CAD160022FB7F8A12BD1E90000DE0227F
:10ABAF00900003EFF0A3124A2512ABFD44017D94F0
:10ABBF0012AC06900003E07D9912AC067DE07F8A0F
:10ABCF0012B842EF4410FB7DE07F8A12BD1E900049
:10ABDF0004124A0590005A741BF07D9A7F8A12B5B1
:10ABEF00D612ABFD54FEFB7D947F8A02BD1E7D9471
:0EABFF007F8A12B842EF22FB7F8A12BD1E220F
:10B926007B607D9B7F8A12BD1EE4900002F0900032
:10B9360002E0FFC394E2501FEF94C6501AEF75F071
:10B946001BA4240EF9741935F0FA7BFF12ABAF90E5
:07B956000002E004F080D7BD
:01B95D0022C7
:03B658009000154A
:10B65B0012A35C4036EFD39408503012A2FA12BDFD
:10B66B001E90001575F00812A31412B842EF54F097
:10B67B00FD900016E04DFB7DA07F8A12BD1E900051
:0BB68B0016A3E0FB7DA17F8A12BD1E0C
:01B696002291
:03B594009000150F
:10B5970012A35C4039EFD39408503312A2FA12BDBC
:10B5A7001E90001575F00412A31412B842EF540F41
:10B5B700FD900016E0C454F04DFB7DA07F8A12BDBC
:0EB5C7001E900016A3E0FB7DA27F8A12BD1E1F
:01B5D5002253
:05BB5400900012EFF06B
:10BB590012BB837D9C7F8A12B842900013EFF0904C
:10BB69000012E06006A3E054EF8006900013E04461
:09BB790010FB7D9C7F8A12BD1EA9
:01BB820022A0
:03B5500090001E4A
:10B5530012A35C403BEFD39408503512A2FA12BDFC
:10B563001E7D9F7F8A12B84290001FEFF090001E4D
:10B57300E06007A3E04401F0800790001FE054FE61
:10B58300F012BB8390001FE0FB7D9F7F8A12BD1EDC
:01B593002295
:10B35C00EFC394014006EFD394084004E4FEFF22AF
:10B36C0012A2FA12BD1E7DA07F8A12B842EF540FB2
:10B37C00900028F0A3E4F07DA17F8A12B8429000DF
:10B38C0028E0F0A3E04FF0900028E0FEA3E0780363
:0AB39C00CEC313CE13D8F9FF7E00D4
:01B3A6002284
:10AF9300EFC394014006EFD394084004E4FEFF227C
:10AFA30012A2FA12BD1E7DA07F8A12B842EF54F09E
:10AFB300C4F8540FC868FEE4C454F048900028F065
:10AFC300A3CEF07DA27F8A12B842900028E0F0A3BE
:10AFD300E04FF0900028E0FEA3E07802CEC313CE4A
:06AFE30013D8F9FF7E0007
:01AFE9002245
:10BA2F0090004F12A32C124A2512A35512BD1E903F
:10BA3F00004F12A34012BD1E900051124A059000F4
:10BA4F0054E090005AF07D977F8A12B5D612A36307
:03BA5F0002BD1E07
:10BA930090003012A32CEDF0A3EB12A35412BD1EA1
:10BAA30090003012A34012BD1E900032E0FBA3E0D1
:10BAB300900037F07D987F8A12B6D612A36302BD39
:01BAC3001E64
:10BBB00090003012A32CED12A35412BD1E90003041
:10BBC00012A34012BD1E900032E0900037F07B209F
:0DBBD0007D977F8A12B6D612A36302BD1EB8
:0981CA0090004F12A32C124A256B
:1081D300900056124A25E4900055F0900054E06454
:1081E3000A707990005B7427F0A37410F012A32334
:1081F300C3940AEC9400405612A2F112A333601206
:10820300900059A3E0243012A2E2900055E004F05C
:108213008015900055E0600F900051E475F0011255
:108223004A0E74301246EE12A2F190005BE0FAA3FC
:10823300E0FBFDAC0212A3487D0A7C00AF03AE0253
:1082430012471290005BEEF0A3EFF00281F0900072
:108253004FA3E02430A312A2E50282DE900054E093
:10826300641060030282E890005B7410F0A3E4F0F2
:1082730012A323C39410EC9400404412A2F112A35E
:10828300336028900059E0FEA3E0FFC3940AEE9404
:10829300004005EF24378007900059A3E0243012F3
:1082A300A2E212A2F112A32312A34890005BE0C43E
:1082B300F854F0C868F0A3E0C4540F48F080B1123A
:1082C300A2F1C3940AEE94004005EF24378007908F
:1082D300004FA3E02430FFA312A2E6900051124AFC
:0782E30005E41246EE7F01E5
:0182EA002271
:06BFF90090004F124A25E2
:10BFFF00E4FF90004FE475F001124A0E1246A8605C
:04C00F00030F80EEAD
:01C01300220A
:069B4700900010124A25F7
:109B4D007DFF7F8A12B842900014EFF054FEFB7D2A
:109B5D00FF7F8A12BD1E7DE07F8A12B842EF54EF5F
:109B6D00129BD6E4900013F012A302FF6042900006
:109B7D0013E02401FDE433FC900010124A05E92D99
:109B8D00F9EA3CFAEF129BDF900013E02401FFE4A9
:109B9D0033FE900010124A05E92FF9EA3EFA7405DA
:109BAD00129BDF12A30204FF900013E02FF080B888
:109BBD007DE07F8A12B842EF4410129BD6900014BC
:099BCD00E0FB7DFF7F8A02BD1E52
:109BD600FB7DE07F8A12BD1E22900019F07F8A125B
:039BE600B87B2227
:100066000A0D6D6F646520300A0D000D0A5B4D5355
:10007600475D536574345769646553637265656E8D
:100086002829203D3E2053637265656E20746F20DB
:10009600343A33202121000D0A5345542049746512
:1000A6006D2056616C75653A2069642D2558000AE5
:1000B6000D6D6F646520320A0D000D0A2B2B284F3B
:1000C6005344486967684D656E755F73756229208C
:1000D6004F53444D656E754C6576656C3A256400E4
:1000E6000D0A52455345545F4D6F6E69746F7256D3
:1000F600414C5545000A0D79766D69782034000A21
:100106000D79766D69782030000A0D79766D6978FB
:100116002031000A0D79766D69782032000A0D7952
:10012600766D6978203300436865636B20564741D6
:10013600204361626C65004F7574204F66205261E2
:100146006E676500FE62596B62714C2F713A34FF1F
:10015600001213566F6C756D650020202041757472
:100166006F2041646A757374696E67202E2E2E2E79
:1001760020202000436F6D706F73697465005665AB
:100186007273696F6E004C43442056657273696FD3
:100196006E004456522056657273696F6E00574959
:1001A60046492049500057494649204D414300479A
:1001B600415445574159004F534420506F73697459
:1001C600696F6E004F534420506F736963695F6EA9
:1001D600004F534420FE5465714667FF004C616E24
:1001E6006775616765004C616E677565005370726F
:1001F60061636865004964696F6D6100FE575671F9
:100206004667FF004272696768746E657373004CD7
:10021600756D696E6F7369745F0048656C6C6967AC
:100226006B656974004272696C6C6F00FE402471E4
:100236005F60FF00436F6E747261737400436F6E8C
:10024600747261737465004B6F6E747261737400BF
:10025600436F6E74726173746500FE394F715F602F
:10026600FF0053617475726174696F6E0053AA74EE
:10027600746967756E670053617475726163695F4F
:100286006E00FE4A2C33715F60FF004875650054AE
:100296006F6E616C69745C00466172626500546FD2
:1002A6006E616C6964616400FE4A5448715F60FF68
:1002B6000053686172706E6573730041637569748B
:1002C6005C00536368AA7266650041677564657A67
:1002D6006100FE463933715F60FF005265736574D5
:1002E60000445C66617574004772756E6465696E7C
:1002F6007374656C75670050726564657465726DBC
:10030600696E6163695F6E00FE66246DFF00576962
:1003160064652053637265656E005749444520FE47
:100326006D3B714667FF004D6972726F72004A75C8
:100336006D70005345512054696D65205374657086
:10034600004A756D702041560043616D204F7574EB
:100356000052657475726E00526563616C6C004D77
:100366006F6E69746F7220526563616C6C004456DF
:100376005220526563616C6C0045786974002000F8
:100386007665722041302E30320054696D654F75A6
:1003960074205365747570004761756765205365F1
:1003A60074757000476175676520526563616C6C92
:1003B600005072696F72697479005265766572735E
:1003C600204D6F6465005265736F6C7574696F6E4E
:1003D60000465053005175616C697479005265632B
:1003E6006F7264204D6F6465005265636F7264209E
:1003F6004C656E677468005072652D616C61726D34
:1004060000506F73742D7265636F72640041707073
:100416006C79005265636F72645374617274005232
:1004260065636F726453746F7000536E61707368A6
:100436006F7400446174652054696D650059656187
:1004460072004D6F6E74680044617900486F757272
:10045600004D696E00536563004461796C69676895
:1004660074536176696E6700426567696E6500451B
:100476006E64005765656B0054696D650054696D5F
:1004860065205A6F6E650052657475726E264170EE
:10049600706C7900466F726D61742053442043611D
:1004A600726400417564696F205265636F726400FF
:1004B6004669726D77617265205570646174650076
:1004C600596573004E6F004669727374204E756DE0
:1004D600626572005365636F6E64204E756D62656A
:1004E60072005468697264204E756D6265720046CA
:1004F6006F75727468204E756D626572004368612F
:100506006E67652050617373776F7264004F76650E
:100516007257726974650044697220496D61676536
:1005260000547269676765722056474100547269C4
:10053600676765722044656C617900496E666F7203
:100546006D6174696F6E0055706461746520436FE8
:100556006E66696700534420636F76657220446552
:10056600742E0043414D20410043414D204200433B
:10057600414D20430043414D205200446973706C45
:1005860061790044565220446973706C6179004465
:10059600697374616E6365204761756765004F53C3
:1005A60044204C6F636B0050617373776F72640005
:1005B600536F75726365205469746C6500435642C7
:1005C6005320410043564253204200435642532093
:1005D6004300435642532052004175746F204461D4
:1005E60079264E696768740044697220496D6167AF
:1005F600650044697220496D616765204100446960
:100606007220496D61676520420044697220496D18
:100616006167652043005265617220536574757089
:100626000043414D20410043414D20520043414D7E
:1006360020420043414D20430043414D20440002E7
:1006460000456E676C697368004672616E7B61690E
:1006560073004465757473636800457370617E6FDB
:100666006C00FE6A2356FF200004014D6F6465315D
:10067600004D6F646532004D6F64653300557365D8
:1006860072004D6F646531004D6F646532004D6FC9
:1006960064653300557361676572004D6F647573E9
:1006A60031004D6F64757332004D6F64757333009E
:1006B60042656E75747A6572004D6F646F31004DD8
:1006C6006F646F32004D6F646F33005573756172DE
:1006D600696F00FE3A34FF3100FE3A34FF3200FE05
:1006E6003A34FF3300FE47515B71FF20000800419A
:1006F60075746F004E5453430050414C00534543AC
:10070600414D004E545343342E34330050414C4D2A
:100716000050414C4E0050414C36300005004E6FA3
:10072600726D616C00576964650050616E6F72612D
:100736006D610046756C6C000500FE1A1BFF2000FB
:10074600FE1C1DFF2000FE1E1DFF2000FE1F20FFB9
:100756002000FE1F21FF200009004F66660043436C
:1007660031004343320043433300434334005431A2
:100776000054320054330054340002004F4E004FF0
:1007860046460002004D4952524F52004E4F524DBE
:10079600414C000300446179004155544F004E69B5
:1007A60067687400020031363A3900343A33000281
:1007B60000004F4E004F464600040053494E474C3A
:1007C60045004455414C00545249504C4500412B7C
:1007D600422C422B410007004100412B4200412B95
:1007E6004300412B5200412B424300412B42520011
:1007F600412B43520007004200422B4100422B434B
:1008060000422B5200422B414300422B41520042F0
:100816002B43520007004300432B4100432B420069
:10082600432B5200432B414200432B415200432BA2
:100836004252000A005200522B4100522B420052F3
:100846002B4300522F414200522F414300522F4268
:100856004300522B414200522B414300522B42434C
:10086600000E00515541440053455100412B4200B2
:10087600432B5200412B5200522B4200412B430086
:10088600432B4200522F414200522B41420041006D
:100896004200430052000500515541440043414D7A
:1008A600410043414D420043414D430043414D52B7
:1008B6000002000037323078343830003335327871
:1008C6003234300005000035003130003135003259
:1008D60030003235003330000500004C6576656C1B
:1008E6002D31004C6576656C2D32004C6576656C55
:1008F6002D33004C6576656C2D34004C6576656C41
:100906002D35000300004E6F6E65004E6F726D61EF
:100916006C00416C61726D000600003120206D692B
:100926006E003220206D696E003320206D696E00E6
:100936003420206D696E003520206D696E003130DF
:10094600206D696E00050000313520736563003344
:10095600302073656300363020736563000800003D
:10096600313520736563003330207365630036309C
:10097600207365630002000044697361626C650060
:10098600456E61626C65000400004669727374000E
:100996005365636F6E6400546869726400466F75D0
:1009A60072746800040041004200430052001900BE
:1009B600002D3132002D3131002D3130002D39001E
:1009C6002D38002D37002D36002D35002D34002D05
:1009D60033002D32002D310030003100320033005B
:1009E6003400350036003700380039003130003128
:1009F6003100313200020050200044200003003252
:100A060034303000343830300039363030000200AF
:100A1600FE1819FF2000FE1A1BFF20000400FE1C12
:100A26001D1E1F2021FF2000FE222328292A2BFF1E
:100A36002000FE242528292A2BFF2000412B422CAA
:100A4600422B41000E00FE262728292A2BFF2000D4
:100A560053455100412B4200432B5200412B52007B
:100A6600522B4200412B4300432B4200522F41425E
:100A760000522B41420041004200430052005647BB
:100A86004100FF0184FF0184FF0184FF0184FF010F
:100A960084FF018CFF018CFF018CFF018CFF018C10
:100AA600FF0198FF0198FF0198FF0198FF0198FF49
:100AB60001A4FF01A4FF01A4FF01A4FF01A4FF01FB
:100AC600ACFF01ACFF01ACFF01ACFF01ACFF01B50F
:100AD600FF01B5FF01B5FF01B5FF01B5FF012DFF10
:100AE600013DFF013DFF013DFF013DFF014AFF01C1
:100AF60057FF01BDFF01BDFF01BDFF01CAFF01D7C1
:100B0600FF01E3FF01ECFF01F3FF01FBFF0202FF20
:100B1600020AFF0215FF0220FF022BFF0232FF022C
:100B26003AFF0243FF024DFF0256FF0260FF0268D2
:100B3600FF0268FF0273FF027DFF0288FF0291FF3A
:100B46000295FF029EFF02A4FF02AEFF02B7FF025C
:100B5600C1FF02C8FF02D0FF02D8FF02E1FF02E791
:100B6600FF02EEFF02FDFF030EFF032DFF032DFF25
:100B7600032DFF032DFF032DFF0334FF0334FF0373
:100B860034FF0334FF0334FF0339FF0339FF03390E
:100B9600FF0339FF0339FF034FFF034FFF034FFFE7
:100BA600034FFF034FFF0347FF0357FF0357FF039F
:100BB60057FF0357FF0357FF035EFF035EFF035E06
:100BC600FF035EFF035EFF0365FF0365FF0365FF2B
:100BD6000365FF0365FF0374FF0374FF0374FF03DC
:100BE60074FF0374FF037FFF037FFF037FFF037F11
:100BF600FF037FFF0581FF0581FF0581FF0581FF5B
:100C06000581FF0589FF0589FF0589FF0589FF0520
:100C160089FF0595FF0595FF0595FF0595FF059548
:100C2600FF05A4FF05A4FF05A4FF05A4FF05A4FF77
:100C360005ADFF05ADFF05ADFF05ADFF05ADFF0534
:100C4600B6FF05B6FF05B6FF05B6FF05B6FF05C339
:100C5600FF05C3FF05C3FF05C3FF05C3FF05CAFFA5
:100C660005CAFF05CAFF05CAFF05CAFF05D1FF056C
:100C7600D1FF05D1FF05D1FF05D1FF05D8FF05D866
:100C8600FF05D8FF05D8FF05D8FF05DFFF05DFFF05
:100C960005DFFF05DFFF05DFFF05EEFF05EEFF05BC
:100CA600EEFF05EEFF05EEFF05F8FF0604FF061052
:100CB600FF061CFF061CFF061CFF061CFF061CFF8A
:100CC6000627FF0627FF0627FF0627FF0627FF063C
:100CD60033FF0633FF0633FF0633FF0633FF0639BD
:100CE600FF0639FF0639FF0639FF0639FF062DFFD5
:100CF600062DFF062DFF062DFF062DFF063FFF06DC
:100D06003FFF063FFF063FFF063FFF0384FF0386C4
:100D1600FF0390FF039EFF03AAFF03B7FF03C0FF75
:100D26000533FF0533FF0533FF0533FF0533FF05A5
:100D360069FF0569FF0569FF0569FF0569FF056F1D
:100D4600FF056FFF056FFF056FFF056FFF0575FF59
:100D56000575FF0575FF0575FF0575FF057BFF0525
:100D66007BFF057BFF057BFF057BFF03CCFF03D7DE
:100D7600FF03DBFF03E3FF03EFFF03FDFF0407FFB2
:100D86000413FF0419FF0425FF0430FF0439FF0490
:100D960043FF0448FF044EFF0452FF0457FF045B61
:100DA600FF045FFF046EFF0475FF0479FF047EFFF6
:100DB6000483FF048DFF049AFF04A9FF04B6FF0411
:100DC600C6FF04CAFF04CDFF04DAFF04E8FF04F5FA
:100DD600FF0503FF0513FF051DFF0527FF0541FF5F
:100DE600054DFF055BFF0314FF0314FF0314FF0308
:100DF60014FF0320FE6C6F00FE727500FE60630038
:100E0600FE787B00FE666900FE848700FE01020014
:100E1600FE7E8100FE8A8D00FE909300FE9699006C
:100E2600FEC0C300FE9C9F00FEA2A500FEA8AB006C
:100E3600FEAEB100FEB4B700FEBABD000000180356
:100E46001661180216610000FF0C8FFFFFFF3200CB
:100E5600000700B807800000FF0BF9FFFFFF320014
:100E6600000700B907800000FF0C17FFFFFF3200E4
:100E7600000700BA07800000FF0C26FFFFFF3200C4
:100E8600000700BB07800000FF0D1FFFFFFF3200B9
:100E9600000700CA07800000FF0D22FFFFFF320097
:100EA600000700D607AA0000FF0BAEFFFFFF3200C7
:100EB600000300F1000000000000000000FFFF003A
:100EC600000000000000180216610000FF0DC7FFB9
:100ED600FFFF3200000300F100000000FF0DC4FF19
:100EE600FFFF3200000300ED0000000000000000DC
:100EF60000FFFF000000000000001802166100005D
:100F0600FF0DCAFFFFFF32000005002D0E43000053
:100F1600FF0DCDFFFFFF32000005002E0E4300003F
:100F2600FF0DD0FFFFFF32000005002F0E4300002B
:100F3600FF0DD3FFFFFF3200000500380E4300000F
:100F4600FF0DD6FFFFFF3200000300EE0000000099
:100F5600FF0BAEFFFFFF3200000300F100000000B0
:100F66000000000000FFFF00000000000000180263
:100F760016610000FF0DCAFFFFFF32000005002DBD
:100F86000E430000FF0DCDFFFFFF32000005002ECF
:100F96000E430000FF0DD0FFFFFF32000005002FBB
:100FA6000E430000FF0DD3FFFFFF3200000500389F
:100FB6000E430000FF0DBBFFFFFF3200000300EBF6
:100FC60000000000FF0DD6FFFFFF320F04010000F6
:100FD6000F000000FF0BAEFFFFFF3200000300F121
:100FE600000000000000000000FFFF0000000000FD
:100FF6000000180516610000FF0DB5FFFFFF320067
:101006000007002C09B40000FF0D94FFFFFF32001B
:10101600000500200E430000FF0D97FFFFFF320082
:10102600000500210E430000FF0D9AFFFFFF32006E
:10103600000500220E430000FF0D9DFFFFFF32005A
:10104600000500230E430000FF0DA0FFFFFF320046
:10105600000500240E430000FF0DB8FFFFFF32001D
:10106600000300F6000000000000000000FFFF0083
:101076000000000000000000FF0DC4FFFFFF32006B
:101086000003009B00000000FF0DC7FFFFFF3200BA
:10109600000300F1000000000000000000FFFF0058
:1010A6000000000000000000FF0DC4FFFFFF32003B
:1010B6000003007000000000FF0DC7FFFFFF3200B5
:1010C600000300F1000000000000000000FFFF0028
:1010D6000000000000000000FF0DC4FFFFFF32000B
:1010E6000003009E00000000FF0DC7FFFFFF320057
:1010F600000300F1000000000000000000FFFF00F8
:101106000000000000000000FF0BCCFFFFFF3210C4
:10111600AC0100000E440000FF0BDBFFFFFF3210A6
:10112600DC0100000E440000FF0BAEFFFFFF3200A3
:10113600000300F1000000000000000000FFFF00B7
:10114600000000000000180416610000FF0AB5FF49
:10115600FFFF3600000B00F100000000000000FF5A
:10116600FFFF3200000C00390E430000FF0AC4FFE7
:10117600FFFF3600000B00F100000000000000FF3A
:10118600FFFF3600000C003A0E430000FF0AD3FFB3
:10119600FFFF3600000B00F100000000000000FF1A
:1011A600FFFF3600000C003B0E430000FF0BAEFFB6
:1011B600FFFF3200000300F1000000000000000005
:1011C60000FFFF0000000000000018041661000088
:1011D600FF0BBDFFFFFF32000003009B0000000075
:1011E600FF0BEAFFFFFF3200000300F400000000DF
:1011F600FF0D10FFFFFF3200000B00F4000000009F
:10120600FF0D10FFFFFF3200000B00F4000000008E
:10121600FF0D10FFFFFF3200000B00F4000000007E
:10122600FF0D10FFFFFF3200000B00F4000000006E
:10123600FF0D13FFFFFF3600000B00F40000000057
:101246000000000000FFFF0000000000000018057D
:1012560016610000FF0D7CFFFFFF3200000700E46F
:10126600091E0000FF0D82FFFFFF3200000700E6A7
:1012760009630000FF0DBEFFFFFF3200000700EC10
:1012860009AA0000FF0DB8FFFFFF3200000300F5BA
:10129600000000000000000000FFFF00000000004A
:1012A6000000180416610000FF0D79FFFFFF3212DF
:1012B6005801000012540000FF0D73FFFFFF3200BB
:1012C600000700E108CA0000FF0D76FFFFFF3200AD
:1012D600000700E208DE0000FF0DBBFFFFFF320F34
:1012E600780100000F740000FF0DC1FFFFFF320EF2
:1012F600D00100000ECC0000FF0DB8FFFFFF32004A
:10130600000300F5000000000000000000FFFF00E1
:101316000000000000001805166100000000000033
:1013260000FFFF0000000000000018041661000026
:10133600FF0B15FFFFFF3200000400960E4300006E
:10134600FF0B24FFFFFF3200000400950E43000050
:10135600FF0B33FFFFFF3200000400970E4300002F
:10136600FF0B42FFFFFF3200000400990E4300000E
:10137600FF0B51FFFFFF32000004009A0E430000EE
:10138600FF0BAEFFFFFF3200000300F1000000007C
:101396000000000000FFFF0000000000000018052C
:1013A60016610000FF0CC5FFFFFF3200000700C1F9
:1013B60007800000FF0CD4FFFFFF3200000700C2C9
:1013C60007800000FF0CE3FFFFFF3200000700C3A9
:1013D60007800000FF0CF2FFFFFF3200000700C489
:1013E60007800000FF0BAEFFFFFF3200000300F195
:1013F600000000000000000000FFFF0000000000E9
:1014060000000000FF0D34FFFFFF3200000400B2B1
:101416000E430000FF0D43FFFFFF3200000400B340
:101426000E430000FF0D52FFFFFF3200000400B420
:101436000E430000FF0D61FFFFFF3200000400B500
:101446000E430000FF0BAEFFFFFF3200000300F16A
:10145600000000000000000000FFFF000000000088
:101466000000180516610000FF0CADFFFFFF3200FB
:10147600000700CD07DC0000FF0CB0FFFFFF3200C5
:10148600000700CE07FB0000FF0CB3FFFFFF320092
:10149600000700CF081A0000FF0BAEFFFFFF320067
:1014A600000300F1000000000000000000FFFF0044
:1014B600000000000000180816610000FF0B6FFF17
:1014C600FFFF3213A80100000E440000FF0DDCFFF1
:1014D600FFFF32146C0100000E440000FF0CB6FF43
:1014E600FFFF3200000700C608390000FF0B7EFF31
:1014F600FFFF3200000700C708670000FF0B9CFFD4
:10150600FFFF3200000700C8089C0000FF0B8DFF9C
:10151600FFFF3200000400C90E430000FF0D25FF47
:10152600FFFF3214080100000E440000FF0BAEFF5F
:10153600FFFF3200000300F1000000000000000081
:1015460000FFFF000000000000000204FF320DFA59
:10155600000000FFFF32FF133401009F13300DFE21
:10156600000000FFFF32FF0E4C0100000E480E0285
:10157600000000FFFF32FF14C001009F14BC0E06DE
:10158600000000FFFF32FF11D401000011D000005F
:101596000000000000FFFF00000000000000000047
:1015A600000000FFFF32FF15540100001550000037
:1015B6000000000000FFFF00000000000000000027
:1015C6000064003200020034001A0001002C0016EC
:1015D60000000037001C000000C70064002D00D288
:1015E60000800000000700030000003F0020002DDF
:1015F60000D200800000001F001000230087005565
:10160600002300870055FFB60022FFE8000000FF18
:101616000080FF80007F000000000007000300003C
:10162600007F004011111171113B161A010201349D
:101636002C342C024B323232323232324B3232328C
:10164600111013141570717472737071747273784B
:101656006300808000608080808020808080803B66
:1016660068F8909000608080808020808080800371
:1016760058F8A0A000608080808020808080800351
:10168600322528282D64323232323232000A006086
:1016960000610062006300660067006800B900FC34
:1016A60013DBA67B0060000017481BDB807B000075
:1016B600000017481EF2807C800001B6314826D50E
:1016C6008069000000006FDF13D4A691006000005F
:1016D600174821D4809100000000174813F2809229
:1016E600800001B6344813DC807F00000000605A99
:1016F60014008B7C01500000294814DC807C00001B
:101706000000294814F2807C800001B6294814DCC8
:10171600805F000000007B5A0C008B940150000093
:101726002D480CDC8094000000002D480CF28094BB
:10173600800001B62D480CDC807F00000000605A56
:101746003AF680FB0050000026483AC380FB0000B2
:10175600000026483ACC80FB800001B626483AC3F2
:1017660080BE00000000705A3FF980290450000036
:101776002E483FC38029040000002E483FD0802910
:10178600840001B62E483FC380E800000000805A5E
:1017960028A4806A04500000165A2884806A04002F
:1017A6000000165A2889806A84350035165A28841E
:1017B600801C040000006B5A23F9801404500000BA
:1017C6001F5A23C88014040000001F5A23F08014F7
:1017D600843501871F5A23C880E700000000565A47
:1017E600202020496E70757420203A202020202069
:1017F6002020202020202020200020202053797324
:1018060074656D203A2020202020202020202020D2
:1018160020202000202020482046726571203A2092
:1018260020202020206B487A202020202000202005
:1018360020562046726571203A2020202020202044
:10184600487A202020202000202020462F57205292
:1018560065763A20202020202020202020202020CD
:101866002000000000000000000000000000000052
:10187600000000000000000000000000010202025B
:101886000505050304040404040404040404040410
:10189600040404040404032020201C20202020200B
:1018A6002020202020002020202020202020202052
:1018B60020002E003A00010101010102020202028B
:1018C60002050505050505050505050404040404CA
:1018D6000403202020000404040404032020200024
:1018E6002020202020202020202020002020202012
:0818F60020202020202020000A
:107AD900410122FF4101230041012800C120C11FAA
:107AE900410110004101250041012A0041012900FD
:077AF90041011D00017900AD
:104F7700D3900011E09400900010E09400227E008E
:104F8700900011E09000105403FFEEF0A3EFF02221
:104F970090010EE0FEA3E0F5828E83229000267A30
:104FA700007927E0FF7E007B0190002F124A257BC6
:104FB700FF22EE900010F0A3EFF02275F0101249D7
:104FC700F9740E93FB740F93900111CBF0A3EBF0E0
:104FD7008F828E83ED75F0101249F9740993FF746F
:104FE7000A9390010ECFF0A3EFF022900029E0245E
:104FF700F1FF900028E034FFFE90002D024A05756E
:10500700F0101249F9740D93227A1579D69000326F
:10501700124A257A1579C42290001F124A0590007A
:105027000E1247DEAAF0F97BFF90002D124A259059
:10503700001F024A05900010A3E0FD22E0FDE49066
:105047000035F0A3EDF02290010EE0FEA3E0FFF59E
:10505700828E8322E0FF900010E4F0A322E4900008
:1050670010F0A3F022900028E0FEA3E0FF22E0FE6C
:10507700A3E0FF7B019000547409F02290010EE039
:10508700FEA3E0FFEE90011EF0A3EFF0A322FD7553
:10509700F00A84E5F02430F0ED75F00A84227E00F2
:1050A70090012BEEF0A3EFF022E0FEA3E0FF9001CA
:1050B70011E0FCA3E0F5828C832290000EE09000C3
:1050C70010A4FFE5F08FF002479D75F0101249F923
:1050D700740E93FC740F93AA04F97BFF90000712D8
:1050E7004A258F828E83227D017BFF7E00024682C6
:1050F700FFE975F003A42416F582E43400F5832252
:10510700900010E0FEA3E0FF900111E0FAA3E0F5A4
:10511700828A83740393FDE49322EFF090000FE0FB
:105127002290004CE475F001124A0E0246A8900046
:1051370002124A5A900128E075F003A4F58285F01F
:1051470083024A5AF0A3EFF0D39015C47401939FDA
:10515700EE6480F8E49364809822FF900028E0349E
:10516700002290010EE0FEA3E0AA06F97BFF22755C
:10517700F0100249F9A3E475F00102479DE0FEA390
:10518700E02DFDEE3CFCEDA4FBAAF0FF900018E03B
:10519700229015C6E493FE740193FF22900010E459
:1051A700F0A3740EF022F0E0FF25E02430F582E44E
:1051B7003416F583E49322F0EF25E02431F582E4F9
:1051C7003416F583E493227E00EEF0A3EFF07B0123
:1051D70022EEF0A3EFF0A32290000D0246C1C39088
:1051E7000011E09403227D017BFF7E007F0C0246C5
:1051F7008290012DE0640122740E93FB740F93904B
:105207000111CBF0A3EBF022EF54F8FFA3E0540712
:105217004FFB7D177F8A22900011E02403F0900056
:1052270010E03400F02290000CE0FEA3E0FF9000B5
:105237000AA3E0FD22FFE493FC740193FDC3EF9DF5
:10524700FEE49C2290000EEEF0A3EFF0FD90001418
:10525700E0FF22E57925E02415F582E43401F583A2
:105267002235F0FA7BFF90000BE0900054F02224E7
:1052770040F582E43400F5832290012BA3E0FF225E
:10528700E0FFA3E090011ECFF0A3EFF0227D187C92
:1052970000124700EF22FFE08FF0A4FF22A3E054A3
:1052A700074438FB7D787F8A22C3900011E094067B
:1052B70022F090003AE004F022E0FEA3E0FF7B0139
:1052C70022E0FF7E007B017A00792822FBC3EF9B57
:1052D700FFEE9400FEC322C3900011E0940222E087
:1052E700FD75F00A84E5F0243022F9E43AFA024A1F
:1052F700252FFFE035F0FAA9077BFF22E024052FD1
:10530700F075F0058422FFE4F0A3EFF0229000137C
:10531700A3E0FF22FF7E007B017A007927229FEE20
:105327006480F8EC64809822124A050246A87D3210
:105337007F267E002275F011A42475F9747E22F56C
:1053470082E43400F583EEF022F582E43400F5833D
:03535700EEF02253
:03000E0012C22BF0
:0100110022CC
:0578B800900012EFF04A
:1078BD0012000E900017EFF0900012E0B401047F5B
:1078CD000180027FFF900017125303E5F01251ADB6
:1078DD00FEFD900013E4F0A3EDF0900126E0FDC352
:1078ED00900014E09DF0900013E09400F0900126BC
:1078FD00EE1251BEFFFD900015E4F0A3EDF09001E6
:10790D0027E0FDC3900016E09DF0900015E0940077
:10791D00F0900127EFF09000187401F0900018E03E
:10792D00FFD39404506D12B35CAD07AC06900013F9
:10793D0075F008125184F975F003A42417F582E44B
:10794D003400F583EFF0EA1250F7EFF0AF0112AF0C
:10795D0093AC06AD0790001575F00412518475F0C7
:10796D0003A42418F582E43400F583EFF0EAC4F89B
:10797D0054F0C8EBC4540F485470FF900018E0F950
:10798D001250F9E04F1250F7EFF0900018E004F0AC
:10799D0002792912BB837DE07F8A12B842EF54EF42
:1079AD00127A189000187401F0900018E0FFD3942B
:1079BD00045031EF14FB7D9E7F8A12BD1E9000187E
:1079CD00E075F003A42416F9740035F0FA7B0190EC
:1079DD00005A7403F07DA07F8A12B5D6900018E08E
:1079ED0004F080C57DE07F8A12B842EF4410127A10
:1079FD0018900017E0FF12C1BA12BB83E4FB7D9013
:0A7A0D007F8A12BD1E900017E0FFF3
:0A7A170022FB7DE07F8A12BD1E22D3
:106BE600901630E493900126F0901631E4939001CC
:106BF60027F0E4FF12C1BA7FB0126D777FA0126D45
:106C0600777FA07E0012BCF8900146EFF07FA112BC
:106C16006D7F7FA2126D7F7FBA126D8E7FA4126D7B
:106C26008E7FAB126D867FA3126D9D7FBB126D9D0D
:106C36007FA5126D867FA6126D957FA7126D957F33
:106C4600A8126DA47D327F387E0012B43A90016D91
:106C56007432F0E4FF1282EB7D327F377E0012B48D
:106C66003A7D037FB27E0012B43A7FBC126DA47FD8
:106C7600BD126DB37FBE126DB3900103E0700FFDC0
:106C86007FAEFE12B43A7D017FAC7E00800E7D0D94
:106C96007FAE7E0012B43AE4FD7FACFE12B43AE455
:106CA600900139F07D027FAAFE12B43A7FA9126DD7
:106CB600CCE4FF12B2C37BFF7A00796612C0147D62
:106CC600337FA07E0012BBB07FB2126DCC7FB312B1
:106CD6006DAB7FB4126DAB7FB5126DC47FB6126D0E
:106CE600C4128632E4FF12C1CC7D017FBF7E001242
:106CF600B43A7FBF7E0012BCF8EF24FF9209E4FD90
:106D06007FB8FE12B43A7FB87E0012BCF89001003C
:106D1600EFF07D017FB77E0012B43A7FB77E001296
:106D2600BCF89000FBEFF07D027FB97E0012B43A0A
:106D36007FB97E0012BCF89000EDEFF0E4FD7FAF66
:106D4600FE12B43AE4900133F090010204F0FD7FA4
:106D5600C57E0012B43A7F1B126DBA7F1C7E0212EA
:106D6600B43A7F1D126DBA7F1E7E0212B43A02A398
:106D7600F07D017E0012B43A22E4FDFE12B43A22FE
:106D86007D017E0012B43A22E4FDFE12B43A227D61
:106D9600017E0012B43A22E4FDFE12B43A22E4FD6A
:106DA600FE12B43A227D017E0012B43A22E4FDFEC0
:106DB60012B43A22E4FD7E0212B43AE4FD227D01C9
:0D6DC6007E0012B43A22E4FDFE12B43A221F
:10C0BB0012C233900128EFF075F00584AFF0EFF06A
:01C0CB002252
:10BF3500EFB401047F0180027FFF900128125303B3
:0CBF4500AFF0EFF012C1CC900128E0FF3B
:01BF510022CD
:05AA8200900014EDF04E
:10AA8700EF75F003A42481FEE435F0A3F0A3CEF024
:10AA9700E4A3F0900017E0FFC3940350439000161F
:10AAA700E02FFF900015E03400FE12BCF89000186C
:10AAB7001251CE7A00791A124FB01250101298B86C
:10AAC700900017E02471FD90001AA3E0FF90001496
:10AAD700E02FFB7F8A12BD1E900017E004F080B3C1
:01AAE700224C
:10A7E700EFB401047F0180027FFF90012CE0240475
:10A7F700FD90012BE03400FCEF3395E0FEED2FFFD9
:10A80700EC3EF0A3EFF07E0090012B124F8EFD7F00
:10A817008012B43A7F107E0012BCF87E007B017A6A
:10A82700007912124FB07A1579DC1250141298B8C9
:10A83700125280900012A3E0FD12AA827F807E0050
:10A8470012BCF8EF64037BA860047D3080027D3280
:0AA857007F3E7E0012BA9312528079
:01A8610022D4
:05976400900012EFF07F
:10976900ED90012CB4010DE02401FF90012BE034B0
:1097790000FE800BE024FFFF90012BE034FFFE90F8
:109789000013EE12514B5015125198900014E09F9E
:10979900EE6480F8900013E0648098400302980B0F
:1097A900900013E0FEA3E0FF1250A77B017A007935
:1097B90015124FB01250101298B8900012E0248A76
:1097C900FFE433FEA3A3E0FD12B43A7F107E00123A
:1097D900BCF89000131251CE7A007917124FB07A63
:1097E9001579DC1250141298B8900012E02471FD1A
:1097F900900017A3E0FF900015A3E02FFB7F8A12CA
:05980900BD1E1252809B
:01980E002237
:10AEE3007D707F8A12B842EF54BFFB7D707F8A1258
:10AEF300BD1E7D7412AF317D757F8A12BD1E7D76B6
:10AF030012AF317D717F8A12BD1E7B807D727F8A75
:10AF130012BD1E7B807D737F8A12BD1E7D707F8A6A
:10AF230012B842EF4440FB7D707F8A02BD1E7B80D6
:08AF33007F8A12BD1E7B802203
:068A080090001FEFF0FDDD
:108A0E007F0B7E0012B43A90001FE06403606CE4AA
:108A1E00A3F0A3F0900020E0FEA3E0FFC3940FEEBE
:108A2E0064809480503B90001FE0C454F02456F5AF
:108A3E0082E43416F583E5822FF582E5833EF583D5
:108A4E00E493FB900020A3E02446F58274163EF5D5
:108A5E0083E493FD7F8A12BD1E90002012517D800B
:108A6E00B390001FE0C454F02465F582E43416F58B
:0B8A7E0083E49390002212530D804E01
:108A8900E4FF12C25212B6977F0112C25212B310FA
:108A99007F0212C252AD07E4FF12A8D47F0312C2AB
:108AA90052AD077F0112A8D47F0412C25212A94401
:108AB9007F0512C2527E009000241251D07A0079AB
:0E8AC90022124FB07A16791E1250141298B86D
:108AD7009000221252A412BD1E7D177F8A12B8423F
:098AE70090002212520F12BD1E74
:018AF0002263
:03C26B007F00222F
:07C2520012BE1E1250A522CE
:059D2C00900012EFF0B1
:109D3100EDB401067E007F0180047EFF7FFF90016C
:109D41002BE0FCA3E0FD2FFFEC3EFE90001312512F
:109D51004B5016125198900013E0FAA3E0FB9FEECE
:109D61006480F8EA6480984003AF0522900012E015
:109D710014601814601D14601A14602724FE602BEF
:109D81002406702DAF0312B697802612531412B316
:109D910010801E900012E024FEFFA3A3E0FD12A894
:109DA100D4800E12531412A944800612531412AA1D
:109DB10019900012E0FFA3A3E0FD12C088900013E8
:089DC100E0FEA3E0FF1250A731
:019DC9002277
:05B69700900026EFF019
:10B69C0012C265900026E0BF010C12531B124FB072
:10B6AC007A167906800A12531B124FB07A1679005B
:10B6BC001250141298B89000FCE090162993FD904B
:0AB6CC000027A3E0FB7F8A02BD1EE9
:05B31000900026EFF0A3
:10B315009000FCE064047017124FA37A1579E212CD
:10B3250050141298B8900027A3E0FB7D7480221278
:10B335004FA37A16790C1250141298B812C26BEFFB
:10B345009000276007A3E0FB7D3A8005A3E0FB7D25
:06B35500107F8A12BD1EEC
:01B35B0022CF
:10AA19007E007B017A007915124FB07A1579FA1206
:10AA290050141298B87DFF7F8A12B842900017EF30
:10AA3900F0E47DFF12AA7B7DBE7F8A12B842EF54F3
:10AA4900CF44107DBE12AA7B7DC47F8A12B842EF23
:10AA59005480FD900015E0A2E713A3E0134DFB7DA0
:10AA6900C47F8A12BD1E900017E0FB7DFF7F8A021A
:02AA7900BD1E00
:07AA7B00FB7F8A12BD1E22C1
:05A94400900026EFF079
:10A949009000FCE06404702A9000267A00792712AE
:10A959004FAA7A1579EE1250141298B87D707F8A31
:10A9690012B842EF54C0FF900027A3E04FFB7D705F
:10A97900802F900026E0FF7E007B017A0079271264
:10A989004FB07A1679181250141298B812C26BEF98
:10A999009000276007A3E0FB7D3E8005A3E0FB7DD7
:06A9A900157F8A12BD1E9D
:01A9AF002285
:08A8D400900026EFF0A3EDF067
:10A8DC0012C26BEF60301252C8124FB07A16792444
:10A8EC001250141298B8900026E0243CFD7F8A1276
:10A8FC00B842EF5480FF900028A3E02FFB90002675
:10A90C00E0243CFD802C9000271252C8124FB07AE4
:10A91C001679121250141298B89000FCE090002690
:10A92C00B40405E024728003E02413FD900028A3F6
:07A93C00E0FB7F8A12BD1E43
:01A9430022F1
:059A0100900012EFF0DF
:109A06007D787F8A12B842EF5407540F90001512E2
