:1037F3006873636F6D20312031206368303A31255F
:10380300316278206368313A302531627820636809
:10381300323A3025316278206368333A3025316299
:10382300780A0D006873636F6D203120312063685F
:10383300313A3125316278206368303A302531627C
:1038430078206368323A3025316278206368333AEE
:1038530030253162780A0D006873636F6D20312063
:1038630031206368323A256278206368303A302524
:10387300316278206368313A302531627820636899
:10388300333A30253162780A0D006873636F6D2017
:10389300312031206368333A3125316278206368FF
:1038A300303A3025316278206368313A302531620D
:1038B30078206368323A30253162780A0D006873E4
:1038C300636F6D20322032206368303A31253162D4
:1038D30078206368313A3025316278206368323A60
:1038E3003025316278206368333A30253162780AB3
:1038F3000D006873636F6D20322032206368323AA3
:10390300256278206368333A312531627820636811
:10391300303A3025316278206368313A302531629C
:10392300780A0D006873636F6D203220322063685C
:10393300303A3025316278206368333A3125316279
:1039430078206368313A3025316278206368323AEF
:1039530030253162780A0D006873636F6D20322061
:1039630032206368333A3125316278206368313A13
:103973003025316278206368303A3025316278200F
:103983006368323A30253162780A0D006873636FD9
:103993006D20332031206368333A3125316278203A
:1039A3006368303A3025316278206368313A3025D4
:1039B300316278206368323A30253162780A0D002B
:1039C3006873636F6D20332033206368303A30258A
:1039D300316278206368313A302531627820636838
:1039E300333A3125316278206368323A30253162C7
:1039F300780A0D006873636F6D2033203420636889
:103A0300303A3025316278206368313A30253162AB
:103A130078206368333A3125316278206368323A1B
:103A230030253162780A0D006873636F6D2034208E
:103A330031206368303A3025316278206368313A47
:103A43003025316278206368323A3025316278203C
:103A53006368333A31253162780A0D006873636F06
:103A63006D20322032206368303A3125316278206C
:103A73006368323A3025316278206368313A302501
:103A8300316278206368333A30253162780A0D0059
:103A93006873636F6D20322032206368323A256287
:103AA30078206368313A3025316278206368303A90
:103AB3003025316278206368333A30253162780AE1
:103AC3000D006873636F6D20332033206368333ACE
:103AD3003125316278206368303A302531627820AD
:103AE3006368313A3025316278206368323A302591
:103AF3003162780A0D006873636F6D2032203220C3
:103B03006368333A3125316278206368323A30256D
:103B1300316278206368313A3025316278206368F6
:103B2300303A30253162780A0D006873636F6D2077
:103B3300332031206368333A31253162782063685A
:103B4300303A3025316278206368323A3025316269
:103B530078206368313A30253162780A0D00687342
:103B6300636F6D20332031206368333A312531622E
:103B730078206368313A3025316278206368323ABD
:103B83003025316278206368303A30253162780A13
:103B93000D006873636F6D20332033206368333AFD
:103BA3003125316278206368303A302531627820DC
:103BB3006368323A3025316278206368313A3025C0
:103BC3003162780A0D006873636F6D2033203320F0
:103BD3006368333A3125316278206368313A30259E
:103BE300316278206368323A302531627820636825
:103BF300303A30253162780A0D006873636F6D20A7
:103C0300332033206368303A31253162782063688A
:103C1300313A3025316278206368323A3025316297
:103C230078206368333A30253162780A0D0068736F
:103C3300636F6D20332033206368303A302531625F
:103C430078206368323A3025316278206368333AEA
:103C53003125316278206368313A30253162780A40
:103C63000D006873636F6D20322032206368313A30
:103C73003125316278206368303A3025316278200B
:103C83006368323A3025316278206368333A3025ED
:103C93003162780A0D006873636F6D203220322021
:103CA3006368313A3125316278206368323A3025CE
:103CB300316278206368333A302531627820636853
:103CC300303A30253162780A0D006873636F6D20D6
:103CD300322032206368313A3025316278206368BC
:103CE300333A3125316278206368323A30253162C4
:103CF30078206368303A30253162780A0D006873A2
:103D0300636F6D20332033206368313A312531628C
:103D130078206368303A3025316278206368323A1C
:103D23003025316278206368333A30253162780A6E
:103D33000D006873636F6D20332033206368313A5D
:103D43003025316278206368303A3025316278203B
:103D53006368333A3125316278206368323A30251B
:103D63003162780A0D006873636F6D20332033204E
:103D73006368313A3025316278206368323A3025FE
:103D8300316278206368333A312531627820636881
:103D9300303A30253162780A0D006873636F6D2005
:103DA300322032206368323A256278206368303AE1
:103DB3003025316278206368313A302531627820CA
:103DC3006368333A30253162780A0D006873636F94
:103DD3006D20322032206368323A2562782063688E
:103DE300313A3025316278206368333A30253162C5
:103DF30078206368303A30253162780A0D006873A1
:103E0300636F6D20322032206368323A2562782056
:103E13006368333A3125316278206368313A30255B
:103E2300316278206368303A30253162780A0D00B8
:103E33006873636F6D20332033206368323A2562E1
:103E430078206368303A3025316278206368313AEC
:103E53003025316278206368333A30253162780A3D
:103E63000D006873636F6D20332033206368323A2B
:103E7300256278206368303A3025316278206368A0
:103E8300333A3125316278206368313A3025316223
:103E9300780A0D006873636F6D20332033206368E5
:103EA300323A256278206368313A302531627820CE
:103EB3006368333A3125316278206368303A3025BC
:103EC3003162780A0D000D0A507265762E46573A14
:103ED30025303478000D0A437572722E46573A2501
:103EE300303478000D0A5B4D53475D6D61696E5F39
:103EF300696E697428293D3E2072657620213D2034
:103F0300465756455220262063616C6C20436C65EE
:103F130061724261736963454528290D0A000D0AE0
:103F230043616E6E6F7420616363657373204545EF
:103F330050524F4D21212121000D0A4E6F20696EF1
:103F4300697469616C697A65005457383831360091
:103F53005457383831364200545738383137004EC9
:103F63006F7468696E67202D2D3078253032780D97
:103F73000A00436865636B20616761696E202D2DBC
:103F83003078253032780D0A004C61737420436811
:103F930065636B202D2D3078253032780D0A00FFB4
:103FA30037F3FF3827FF385BFF388DFF38C1FF3801
:103FB300F5FF3927FF395BFF398FFF39C3FF39F726
:103FC300FF3A2BFF3A5FFF3A93FF3AC5FF3AF9FFF7
:103FD3003B2DFF3B61FF3B95FF3BC9FF3BFDFF3C97
:103FE30031FF3C65FF3C99FF3CCDFF3D01FF3D3573
:103FF300FF3D69FF3D9DFF3DCFFF3E01FF3E33FF88
:104003003E65FF3E972D2D2D3E2050616E656C3A27
:1040130020575647412D3830302A343830202D2D43
:10402300205449434F4E4C4553532048532037693E
:044033006E63680050
:1078D900012D00013000C10DC10C02310000012F42
:1078E90000024C000041013B01C10EC10F41013EA4
:1078F9000041013C0041013F0044014000000000FB
:10B09B00ED90001DF090001BE090001E2290001B15
:10B0AB00E090001DF022EBA3F090001CE090001F3D
:10B0BB0022FFEA33FE7C007D131246FB744E2DF803
:10B0CB00E62290001CE0A3F0A32290001DF090005C
:10B0DB001CE090001E22900029F0A3EFF07BFF22D2
:1082C4007B107DE07F8A12BCCF12AB5B900000EE86
:1082D40012B0E47A3E79C9900029EEF0A3EFF012CF
:1082E400BC3512AB5BEF64107003EE640260287B54
:1082F400FF7A3E79D89000297402F0A37410F0122A
:10830400BC357F107E0212B4BD12AB5BEE12B0E13D
:108314007A3E79D812BC3512AB5BEF64107003EE71
:1083240064027033900000E064027004A3E06410FF
:10833400601B900101E0FF12C1597F0112C1741248
:10834400BC0E7BFF7A3E79E712BC35802C12C1C487
:10835400900101EFF080227BFF7A3F792112BC3536
:108364007BFF7A3F793C12BC3590010174FFF07FAA
:108374000112B865E4FF02A6807F087E0012BCA942
:1083840090010DEFF06004E0FF80027F0112B865F8
:1083940012A1DF9000FC74FEF012AC7812B8D77F03
:1083A400061288BD7F0A12BFF912C0DA7DFF12835C
:1083B400D67D821283D6E4FB7DFF7F8A12BCCF7BFD
:1083C400FF7DD07F8A12BCCF7BFF7DD17F8A12BC18
:0183D400CFD9
:0983D500227B017F8A12BCCF2239
:10B13B0075F68775F65975BF10E4F5F6758DF475D0
:10B14B009850758922758855758A40758C4075871E
:10B15B008075B80275A892D299D2ACF5C8C2CAD282
:10B16B00AD75AA5075BAF443A61843AD10C20F754E
:0FB17B00DE4243D840F5B175B220F54AF54922BE
:03000B00027A2C4A
:0B7A2C00C0E0C083C082C0D075D0084D
:107A3700054B90013DE0600214F090013DE070338A
:107A4700E5A05460C4135403FF900143E06F602323
:107A5700900141E0900140F0900142E0900141F037
:107A6700900143E0900142F0A3EFF0D21090013D66
:107A77007430F0E54BD394605003027B730534E513
:107A87003470020533754B00052FE52F64646003DE
:107A9700027B2B90010CE094FF5003E004F0E565B6
:107AA7002401FFE43564FEE43563FDE435628F6548
:107AB7008E648D63F562752F009000F3E0D3940117
:107AC7004003E014F090006AE004F0900147E0D32F
:107AD70094004003E014F030110690013CE004F0FC
:107AE70030040690013FE004F090006AE0B43C08DF
:107AF700E4F090007DE004F090007DE0B43C08E401
:107B0700F0900089E004F0900089E0B41808E4F0F0
:107B1700900088E004F0E53090013E6005E004F055
:107B27008002E4F0E54DF47003E54CF46008054D80
:107B3700E54D7002054CE5A0F4549C6029E52DB491
:107B4700030DE5A0F4549CF530C20CD20D8013E56B
:107B57002DB4640EE5A0F4549CF530D20CD20D750B
:0C7B67002D50052D8006752D0075300096
:097B7300D0D0D082D083D0E032E2
:10BE8C00E4F565F564F563F562900101F07F6412E9
:0EBE9C00BFF9C22112C198D2B47F0102BFF9D2
:10A15400E4FD7F8A12B7F3EF24DE601024D9601483
:10A16400242870197BFF7A3F794C800E7BFF7A3F5D
:10A17400795380067BFF7A3F795B02BFC512A1C089
:10A184007A3F796212BC3512C14EEF701B12A1C026
:10A194007A3F797512BC3512A1D2EF60EAE4FD7FF3
:10A1A4008A12B7F3EFF460DF7F6312BFF912A1D212
:10A1B400E412B0E17A3F798C12BC3522E4FD7F8A47
:10A1C40012B7F3900029E4F0A3EFF07BFF227F6342
:0BA1D40012BFF9E4FD7F8A12B7F322EE
:10BEAA00EFB4010553E8FE8011EF700743E8015330
:0EBEBA00E8FD22EFB4020643E80143E802224D
:03001300020026C2
:03002600C2AA3239
:0300230002B944DB
:10B94400C0E0C0D075D00830981EC298AF99743545
:10B954002549F8EFF6744E2549F8A60F0549E5493F
:10B96400C394144003754900309904C299C20ED09F
:04B97400D0D0E0321D
:0300630002BA13CB
:10BA1300C0E0C0D075D008E5AA30E01653AAFE7482
:10BA230025252EF8A69A052EE52EC3940840037506
:10BA33002E00E5AA30E10553AAFDC20FD0D0D0E015
:01BA430032D0
:0BC14E00E549B54A037F00227F012273
:08000300200EFD8F99D20E22A0
:08C1BC00200FFD8F9AD20F2223
:03002B0002C09E72
:0FC09E00C0E0C2CF0532E53270020531D0E0328A
:10BFF900E52F2FFFE433FE7C007D641246FBE52F1D
:07C00900B505FBE4B504F7E7
:01C01000220D
:10B70300900026E4F0A3E52FF0E47B3CFAF9F8AFD0
:10B7130065AE64AD63AC621248B6AC00AD01AE0277
:10B72300AF03E47B64FAF9F812482B900026EE8FFE
:0CB73300F0124786900026E0FEA3E0FF25
:01B73F0022E7
:10BE1000C3ED9FEC9E5010C374709FFF74179EFE7D
:0FBE2000EF2DFFEE3CFE22C3ED9FFFEC9EFE22B6
:08B3A300900026EEF0A3EFF08C
:10B3AB00900026E07002A3E06035E4900028F0A343
:10B3BB00F0900028E0FEA3E0FFE4FCFD7BD8FAF957
:10B3CB00F8D3124948400C900028E475F00112475D
:0FB3DB008680DE90002674FFF5F012478680C151
:01B3EA002240
:05607F00900018EFF095
:10608400E4900025F0ED4410FDEB4410FBEF6405B3
:106094006015900018E0FF6420600CEF6421600735
:1060A40090001BE04410F090001CE04410F09000BD
:1060B40018E0124A73612300612501612E026135E3
:1060C40003613B04614C05614F0661580761350863
:1060D40061780961780A61230B61610C61690D6162
:1060E400350E61870F61951061A01161951261A051
:1060F40013613B1461AE1561251661B81761C118AF
:1061040061251961CE1A61B81B612E1C61E21D6103
:106114004C1E612E1F61F92061E2210000620A8099
:106124001690001DEBF0A3ED801412B0A8A3ED802F
:106134002F12B0CDED801890001DEDF0A3EBF09080
:10614400001BE090001F80250261EEED12B0D5F037
:10615400A3EB802812B0CDEBF0A3ED801F12B09B0F
:10616400F0A3EB800812B0A8A3EBF0A3EDF090002D
:106174001C0261DB90001DEDF012B0B1F090001B29
:106184000261DB90001CE0A312B09FF0A3EB02615C
:10619400E812B0CDEDF090001B02620212B0CDEB1C
:1061A400F090001BE090001F803A12B09BF090002A
:1061B4001C026202EB12B09C12B0B38027EB12B047
:1061C400D5F0A3EDF090001B800D90001DEBF0EDD9
:1061D40012B0B2F090001BE0900020F0802812B0C2
:1061E400A812B0B1F0A3EDF0801C12B0A812B0D97F
:1061F400F0A3ED800D12B0A8A3EDF090001CE09088
:10620400001FF0A3EBF0E4900021F0900021E0FFE8
:10621400C394145011744E2FF8E4F674352FF8E437
:10622400F6E004F080E59000FCE06403700612627E
:10623400CF0262CCE4900022F01262CF12B7039036
:106244000023EEF0A3EFF0900135E0900025600507
:106254007428F080037450F012B703C3900024E054
:106264009FFF900023E09EFE12C142900025E0FDB6
:10627400C3EF9D7480F86E9840DEE4900021F090A6
:106284000021E0FFC394145029744E2FF8E66441B2
:106294007018E0FB7A00240112B0BCB4430CEB2468
:1062A4000212B0BCB44B037F0122900021E004F041
:1062B40080CD7FC87E0012B3A3900022E004F0E0FA
:0A62C400C39402500302623D7F0004
:1062CE0022900018E0FF3395E0FE903FA275F00398
:1062DE00EF1249E2EE75F003A42583F583124A17F7
:1062EE0090001DE0900029F090001EE090002AF032
:1062FE0090001FE090002BF0900020E090002CF01A
:04630E0012BC352266
:10996A000D0A2B2B28436C6561724F5344496E666E
:10997A006F293A20446973706C617965644F534466
:10998A003A2532780020000D0A5B4D53475D446941
:10999A0073706C6179496E7075742829203D3E2078
:1099AA0053656C6563744D6F6465547970653D41A8
:1099BA00564D6F646520746F207365742074696DE9
:1099CA0065202620646973706C6179686F6C645FC6
:1099DA00666C61673D256278000D0A2B2B28446965
:1099EA0073706C6179566F6C2900202020545738A7
:1099FA00383036202020005465636877656C6C2CFB
:049A0A00496E63003E
:0479090041016B00CD
:0FC0BC0075F011A4242DF9747D35F0FA7BFF2265
:0CC11E0090016BE0FEEFF4FFEE5FF022FA
:07C1FC0090016BE04FF022FF
:06C20A0090016BE0FF2231
:10AFF10012C20A900010EFF012C20A900029E4F088
:10B00100A3EFF07BFF7A99796A12BC35900010E0CA
:10B01100FF20E20330E70512BC83C207900010E075
:10B0210030E00312C0AD900010E030E40312C01113
:10B03100900010E030E10312B6C5900010E030E658
:04B041000312C0DA5C
:01B0450022E8
:1091780090000F74C2F012AFF17BFF7A8479551218
:109188009B547DFF7FA07E0012BB617BFF7D327FF9
:10919800A07E0012BA44E490000EF090000EE0FFAA
:1091A800C394F050197E007BFF7A99798F90005410
:1091B8007401F012B9E090000EE004F080DD900137
:1091C8006BE04410F012C216EF6401607790000E55
:1091D8007401F090000EE0FE75F011907D2C12499C
:1091E800E2E4936F600890000EE004F080E5EE1270
:1091F800C0BC12BFAA90000DEFF0A3E012C0BC9053
:10920800000DE0900054F07FA07E0012B9E07FA32B
:109218007E0012BCA9BF01199000EFE07013900006
:10922800F37405F07BFF7A997991900029F012BCCC
:10923800357D017F0212B5017F0112BB0512B7030C
:049248008E7A8F7B10
:01924C0022FF
:10C01100E4FF12BB05E4FD7F0212B50190016BE064
:06C0210054EFF07F012244
:10931C007BFF7A9979E312BC357DFF1293DA7D825B
:10932C001293DAE4FB7DFF7F8A12BCCF90016BE0D5
:10933C0020E27C12AFF17F0A12BFF97BFF7A8479AD
:10934C00D7129B547D327FC87E0012BB617B197D86
:10935C00377FC87E0012BA447B197D737FDD7E0097
:10936C0012BA4412C06C75F003EF900AE91249E28C
:10937C00124A17AE02AF01900006EEF0A3EFF07B9D
:10938C00FF12BFAA900006E0FCA3E0AA04F97BFF41
:10939C00900054EFF07FC87E0012B9E07D017F0190
:1093AC0012B501E4FD7F0412B5017F0112BB05303B
:1093BC001B0590016E800390016DE0FF129F0F90D2
:0D93CC00016BE04404F012B7038E7A8F7B32
:1093D900227B017F8A12BCCF7F057E0012B3A322B4
:0FC0AD00E4FD7F0212B50190016BE054FEF0221A
:109DD700E4900006F012C20A900005EFF054967066
:109DE70003029E70E030E11512C1A1900001EEF070
:109DF700A3EFF0A37407F0A374D0F08011900001D3
:109E0700E57AF0A3E57BF0A3E4F0A374C8F012B7FA
:109E170003AD07AC06900001E0FEA3E0FF12BE1001
:109E2700D3900004E09F900003E09E503C90000513
:109E3700E05484600D12BC83900006EFF012917815
:109E4700C207900005E030E11D12B6C5900006EF8D
:109E5700F07FA37E0012BCA9BF01069000F3740334
:0B9E6700F0129178C2077F01227F00FB
:019E720022CD
:10BC830090016BE030E20A7F0112BC9F54FBF0800D
:10BC9300087F0212BC9F547FF07F0122E4FD12B59E
:06BCA3000190016BE0229C
:10AB5B00E4FFFE12BCA9EF6454600280287F017EE3
:10AB6B000012BCA9EF64576002801A7F027E0012AC
:10AB7B00BCA9EF64386002800C7F037E0012BCA975
:10AB8B00EF64386004E4FEFF227F047E0012BCA950
:10AB9B00EF900002F0A3E4F07F05FE12BCA9900039
:10ABAB0002E0FEA3E04FFF900002EEF0FEA3EFF0F9
:01ABBB002277
:10B4BD00900002EEF0A3EFF07D54E4FFFE12B3EB2B
:10B4CD007D577F017E0012B3EB7D387F027E001227
:10B4DD00B3EB7D387F037E0012B3EB900002E0FDED
:10B4ED007F047E0012B3EB900002A3E0FD7F057E8A
:04B4FD000002B3EBAB
:08C1C4007F067E0012BCA922D7
:09C15900AD077F067E0002B3EB86
:08C1CC007F097E0012BCA922CC
:09C16200AD077F097E0002B3EB7A
:07C1D4007F0A7E0012BCA9E6
:01C1DB002241
:10A1DF00E4900003F0900002F0900002E075F0119F
:10A1EF00907D811249E2E493124A73A21600A222D3
:10A1FF0001A22B02A23403A23D04A24605A24F06E0
:10A20F00A258070000A25F900003E0FD7F0A7E00C6
:10A21F0002B3EB900003E04401F08034900003E0C0
:10A22F004402F0802B900003E04404F08022900061
:10A23F0003E04408F08019900003E04410F0801010
:10A24F00900003E04420F08007900003E04440F0CA
:08A25F00900002E004F0808190
:07C1DC007F0D7E0012BCA9DB
:01C1E3002239
:09C16B00AD077F0D7E0002B3EB6D
:02BDCF00AB07C0
:10BDD1009000FCE0FF7E007C007D061246E9EF2426
:0EBDE1000CFFE43EFEEF2BFFEC3EFE12BCA971
:01BDEF002231
:10C039009000FCE075F006A4240C2FFF7E0002B3EB
:01C04900EB0B
:09C17400AD077F0F7E0002B3EB62
:07C1E4007F0C7E0012BCA9D4
:01C1EB002231
:09C17D00AD077F0C7E0002B3EB5C
:08C1EC007F387E0012BCA9227D
:09C18600AD077F387E0002B3EB27
:08C1F4007F377E0012BCA92276
:09C18F00AD077F377E0002B3EB1F
:10BC0E00E4FD7FADFE12B3EBE4900103F0FD7F087F
:10BC1E00FE12B3EBE4FD7F0EFE12B3EB126C0B12B1
:07BC2E00AAF57F01028B67FC
:10BEC8009291D290120012C290221249EE8E82757F
:0EBED80083001246AAFF22EFF0A3EDF0A32292
:0BB3EB00900028EEF0A3EFF0A3EDF0BF
:10B3F600900028E0FEA3E07807CEC313CE13D8F959
:10B4060044A054FE90002BF012C02790002BE0FFC2
:10B4160012A9BD900028A3E0FF12A9BD90002AE062
:0CB42600FF12A9BD1200167F0202BFF940
:04BCA900AD07AC0631
:10BCAD00ED7807CEC313CE13D8F944A054FEFF127E
:10BCBD00B7F3900033EFF07F0212BFF9900033E03D
:01BCCD00FF77
:01BCCE002253
:08B7F300900034EFF0A3EDF02B
:10B7FB0012C027900034E0FF12A9BD900035E0FF86
:10B80B0012A9BD12C027900034E04401FF12A9BD5C
:10B81B0012BA75900036EFF0120016900036E0FF6A
:01B82B0022FA
:10BCCF0090005512BEDFEBF012C027900055E0FF39
:10BCDF0012A9BD900056E0FF12A9BD900057E0FFDA
:06BCEF0012A9BD020016BF
:08B6870090003412BEDFEBF06D
:10B68F0012C027900034E0FF12A9BD900035E0FFF3
:10B69F0012A9BDE4900038F0900037E0FFA3E0C39B
:10B6AF009F5010900036E0FF12A9BD900038E004C3
:06B6BF00F080E502001618
:09B5870090005512BEDF124A0EBD
:10B5900012C027900055E0FF12A9BD900056E0FFB1
:10B5A00012A9BDE490005BF090005AE0FFA3E0FE1A
:10B5B000C39F501190005712BED212A9BD90005BDC
:08B5C000E004F080E302001634
:09B82C00900015EFF0A3124A0E82
:10B8350012C027900015E0FF12A9BDE490001AF090
:10B84500900019E0FFA3E0FEC39F5011900016126F
:10B85500BED212A9BD90001AE004F080E3020016E2
:0100120022CB
:10C02700D291120012D290120012C291120012C2C3
:02C03700902255
:0D001600C291120012D290120012D291225B
:10A9BD00C290EF30E703D38001C312BEC8EF30E67B
:10A9CD0003D38001C312BEC8EF30E503D38001C3AA
:10A9DD0012BEC8EF30E403D38001C312BEC8EF30FE
:10A9ED00E303D38001C312BEC8EF30E203D380016D
:10A9FD00C312BEC8EF30E103D38001C312BEC8EF4E
:10AA0D0030E003D38001C312BEC8C290C290D29170
:09AA1D00D290D290D290C2902296
:10BA7500E4FFD291120012C290FDFCD290EF25E0B6
:10BA8500FF3091034401FFC2900DBD00010CED6430
:0FBA9500084C70E7120012D290D290D290C2905B
:01BAA400227F
:106312000D0A504F574552206B6579207072657394
:10632200736564000D0A4D454E55206B65792070EA
:10633200726573736564000D0A494E505554534F8C
:1063420055524345206B657920707265737365649D
:10635200000D0A5550206B65792070726573736564
:1063620064000D0A444F574E206B657920707265A8
:1063720073736564000D0A53454C4543544B4559AC
:10638200206B65792070726573736564000D0A4E27
:106392004F542041535349474E4544206B65792061
:1063A20070726573736564000D0A504F5745522031
:1063B2006B657920000A0D627573772030203120D9
:1063C20037452038300D0A000A0D62757377203088
:1063D20020312037452038310D0A000A0D627573CD
:1063E20077203020312037452038320D0A000A0D3F
:1063F20062757377203020312037452038330D0AFB
:10640200000A0D627573772030203120374520381D
:10641200340D0A000A0D627573772030203120375F
:10642200452038350D0A000A0D6275737720302039
:10643200312037452038360D0A000A0D6275737710
:10644200203020312037452038370D0A000A0D62EE
:10645200757377203020312037452038380D0A00F7
:106462000A0D627573772030203120374520383984
:106472000D0A000A0D6275737720302031203745EE
:106482002038410D0A000A0D6275737720302031E1
:106492002037452038420D0A000A0D6275737720B5
:1064A2003020312037452038430D0A000A0D62752D
:1064B2007377203020312037452038440D0A000AF6
:1064C2000D62757377203020312037452038450D15
:1064D2000A000A0D6275737720302031203745207B
:1064E20038460D0A0054726967676572466C6167C7
:1064F2003D25303278000D0A4D454E554B45592009
:106502006B657920000D4F53445F4C4F434B000D98
:106512000A52454D4F5F564F4C5550000D0A524599
:106522004D4F5F564F4C444E000D0A4556454E5452
:106532004B4559206B6579207072657373656400F1
:106542000D0A5B4D53475D436865636B4B65794943
:106552006E28293D3E20497352756E3238333543D9
:0D6562006C6B54756E653D2562780020203D
:10790D004101450041014A00410148004101460045
:10791D004101490041014B0041014400C116017074
:03792D0000C1187E
:10C04A00E5A0F454906490227C007D0AAE02024678
:01C05A00FBEA
:0EC0E90012C20AEF30E10302002E12B97822D3
:0DC0F70012C20AEF30E1057F01126FB32283
:0DC1040012C20AEF30E1057F02126FB32274
:10BF740012C20AEF30E10B3020057F01027F5B0221
:0BBF840074967F011281A312931C220F
:10BF8F0012C20AEF30E10B3020057F02027F5B0205
:0BBF9F00002E7FFF1281A312931C22D2
:10909E00900004EFF0A3EDF012C12A900004E0124C
:1090AE004A73912200912201912202912203912270
:1090BE0004912205912206912207912208912209FC
:1090CE0090F30C914810914D1191331591601691BA
:1090DE002920912E2191073891103A916E3E91528E
:1090EE003F0000917574FF900109F0A3F090000508
:1090FE00E060037F01227F002212BE2F1289A27F21
:10910E00012212C20AEF30E40512C011800312913F
:10911E00787F0122900005E07F012212C0F7804780
:10912E0012C1048042900005E060037F012212C24A
:10913E000AEF30E132127496802D12BF748028121D
:10914E00BF8F8023900005E060037F012212C0E9EB
:10915E00801512C20AEF30E10E7FF412961E8007C0
:0A916E007D017FC0122DD57F012284
:104AD3009000017401F0301826201623C3E5659574
:104AE30074FFE5649573FEE5639572FDE562957168
:104AF300FCE47B0AFAF9F8D31249485002C2187F42
:104B03000112AE3C900002EFF07003024F1FE0244D
:104B1300F8601C24F8602024F0602424E06028243A
:104B2300C0602C247C70307BFF7A637912802E7BEB
:104B3300FF7A63792680267BFF7A637939801E7B2F
:104B4300FF7A63795380167BFF7A637964800E7BE7
:104B5300FF7A63797780067BFF7A63798F12BC359E
:104B6300900135E0600C900002E064106004E40200
:104B73004DE67FAC7E0012BCA9900003EFF012C09B
:104B83004A703FE0703C7FD07E0712B3A312C04A45
:104B9300600790014AE0B403297D017FAC7E0012D7
:104BA300B3EB9000037401F0FF1288BD7FD07E0742
:104BB30012B3A312C0DAE4900147F090014AF01255
:104BC3009178900147E07013900003E0700D90011D
:104BD3004AE06007E4F07F0112BEAA900002E060A1
:104BE30010A3E0700C12C04A6007E4124F487F0123
:104BF3002212C12A900002E0124A734EA7024C1DF2
:104C0300044D33084EF20C4E0D104D95204DB94016
:104C13004DEF804EAF9000004F1F7BFF7A6379AA60
:104C230012BC35201603024CF3E570C3940F400504
:104C3300E4F57080020570E570124A734C78014CFC
:104C430080024C88034C90044C98054CA0064CA859
:104C5300074CB0084CB8094CC00A4CC80B4CD00CDC
:104C63004CD80D4CE00E4CE80F00004C707BFF7AE3
:104C73006379B780767BFF7A6379CA806E7BFF7A2C
:104C83006379DD80667BFF7A6379F0805E7BFF7AF0
:104C930064790380567BFF7A647916804E7BFF7AB2
:104CA30064792980467BFF7A64793C803E7BFF7A76
:104CB30064794F80367BFF7A647962802E7BFF7A3A
:104CC30064797580267BFF7A647988801E7BFF7AFE
:104CD30064799B80167BFF7A6479AE800E7BFF7AC2
:104CE3006479C180067BFF7A6479D412BFC5804C96
:104CF3007BFF7A6479E7900135E0FF900029E4F0C7
:104D0300A3EFF012BC35201223900135E0600302BB
:104D13004F1FFD7F0C12909E900001EFF0E4900076
:104D2300EEF0FD7FABFE12B3EB024F1FC212804EBB
:104D33007BFF7A6479F812BC3530160AAF707E00B7
:104D430012A583024F1F201244900003E07010123B
:104D53004F481291787BFF7A657907E4024EE91296
:104D6300C20AEF30E10B3020028019127496024F11
:104D73001F12C20AEF30E20C12AFF112B6C5129144
:104D830078024F1F7F3F124F3EF0024F1F7F0902F1
:104D93004E9F20121C12C20AEF30E1077F01302020
:104DA3002A80227A657911124F557F10124F3E8067
:104DB300327F06024E9F20122E12C20AEF30E111FB
:104DC3007F02302006127F5B024F1F126FB3024F28
:104DD3001F7A65791E124F55E4FD7F1112909E9044
:104DE3000001EFF07F01227F07024E9F20121690F1
:104DF30000EFE0700A12C20AEF30E10312B6C512E7
:104E03009E73024F1F7F05024E9F900135E0FF60A6
:104E130009900103E07003024F1FEF6038900149CE
:104E2300E07032900103E06401702A900135E030B4
:104E3300E50312C0DA9001497401F0900144E07077
:104E430008900133E090014BF09001447401F0901D
:104E53000133F0803F201242900149E06017E49053
:104E63000135F09001377407F0E4900149F09001A7
:104E730033F0024F1F9000EFE0700A12C20AEF30C6
:104E8300E10312B6C5900133E0700404F08005E439
:104E9300900133F012AD2E024F1F7F041269FFD22F
:104EA30017024F1F7BFF7A65792B803E90016DE0DF
:104EB30064147068301865301614C2167F0112BE70
:104EC300AA7D027FA07E0012BB61C218800ED2169B
:104ED3007F0212BEAAAF707E0012A5837BFF7A65A4
:104EE3007942A216E433900029F012BC35802D904C
:104EF300016DE0641770257F0212BEAA7F647E00F5
:104F030012B3A3124F25124F257F0112BEAAD21846
:104F1300856574856473856372856271900001E0B1
:014F2300FF8E
:104F2400227F0112BEAA7F647E0012B3A37F021205
:104F3400BEAA7F647E0012B3A322E4FD12909E9069
:104F44000001EF22FF1288BD7FF412BFF912C0DA0C
:0C4F5400227BFFE4900029F012BC352203
:10AE3C00A20D9221C20D30103AE5307036D221901D
:10AE4C000140E0FEB40313A3E0B4020EA3E0700AC9
:10AE5C00A3E0B401057530408017EEB403139001E4
:10AE6C0041E0B4010CA3E07008A3E0B40203753018
:10AE7C0020C2102021037F0022EF6003AF3022207C
:07AE8C000C03AF30227F0030
:01AE9300229C
:08A58300900004EEF0A3EFF0DC
:10A58B0078067C007D017BFF7A65796D7E007F020A
:10A59B0012466B900004E0FAA3E0FBFF12C052EDF1
:10A5AB002430900007F0AF0312C052900004EEF07D
:10A5BB00A3EFF02430A3F07BFF7A84798D129B54A8
:10A5CB007F1012C1FC7D027FA07E0012BB617B025B
:10A5DB007D377FA07E0012BA447B017A007906900A
:10A5EB0000547402F07FA07E0012B9E07D017F025F
:08A5FB0012B5017F0102BB054E
:107CCC000D0A43485F545732383335282530327803
:107CDC00292C526561644465636F64657228307841
:107CEC003636293D256278000D0A2043485F4156FF
:107CFC002825303278290020200A0D000A0D6275E3
:107D0C00737720302031203745203839000A0D6236
:107D1C00757377203020312037452038390D0A0013
:107D2C00FE00000000000000000000000000000049
:107D3C000001435642530000000000000000000008
:107D4C0000000243414D20440000000000000000F0
:107D5C00000000034156202000000000000000003D
:107D6C000000000000000000000000000000000007
:107D7C000000000000FE00000000000000000000F9
:107D8C00000000000000014E5453430000000000AE
:107D9C00000000000000000250414C0000000000F8
:107DAC00000000000000000003534543414D00005B
:107DBC000000000000000000000550414C4D000088
:107DCC00000000000000000000000650414C4E0076
:107DDC0000000000000000000000000750414C367D
:107DEC00300000000000000000000000044E54535E
:107DFC0043342E343300000000000000000000006B
:0E7E0C00000000000000000000000000000068
:10793000C10BC104C1024100F600011D004400F763
:1079400000000000440104000000004100F000417C
:1079500000EB00C185011F0001130001110001129D
:1079600000011E00011500011400011A004100FF72
:10797000004100EC004100F2004100FD004100F533
:1079800000C1004100FE00C106C101C183C107C1A1
:017990000AEC
:10B4320074F72FF582E43400F58322EF75F011A43E
:10B44200242CF582E4347DF583E49322F074042FF6
:10B45200F582E43401F583229000010246AAE4FB5E
:10B462007DFF7F8A22E4F51BF51CF519F518229061
:06B47200001CE004F022C2
:06B18A0090001F124A0EA6
:10B19000E4FE124691900022F012B45A80299000E9
:10B1A0001F1249EE124691FFB4FF0612B45AF46022
:10B1B00022900023EFF0FD12B45A900024F0FB908F
:10B1C0000022E0FF12BCCF900020E475F00212478D
:09B1D0008680CB12B46002BCCFF2
:10A4800090001EEFF07BFF7A5D79DF12B18A12B483
:10A490006012BCCF90001EE024FE601314601024F4
:10A4A000FD600C240624F85011240A600D80117BF5
:10A4B000FF7A5F792F12B18A800690001E7401F036
:10A4C0009000FCE0B4051390010DE07002800B9049
:10A4D000001EE014FF12BF03800312BDF07B157D48
:10A4E000297F8A12BCCF7B067D5C7F8A12BCCF7F1E
:10A4F0000B7E0012BCA91287D412C1CC128B67C28A
:02A50000232214
:10C05B007D017F8A12B7F3EF30E7037F01227F0068
:01C06B0022B2
:1093E900E490001BF0A3F09000FCE0B405099001A3
:1093F9000DE0600302949CE4900019F012AF9B9079
:10940900001AEFF090001CE004F0E0C3940A400356
:1094190002949C90001AE0FF64FE60E09000F1E085
:10942900FEEF6E60D7900019E0FFA3E0FEB50706D6
:10943900A3E004F0800AE490001BF0900019EEF01C
:1094490090001BE0C3940240B390001AE0FF700B38
:1094590012B86590001D7401F080309000F1E07041
:10946900119000EFE0700630070312C0DA12949DE4
:1094790080149000EFE0700630070312C0DA1294EE
:109489009D7F3212BFF9E490001DF090001DE02489
:03949900FF920A35
:10949C002290001AE0FF12B86590001AE0FF12A4A7
:0294AC0080221C
:10BDAC0012C05BEF60037F01227D1C7F8A12B7F308
:10BDBC00EF54F0FF30E7037F0122EF5470C4540FAF
:02BDCC0004FF72
:01BDCE002252
:10ADE30012BDACAB07EB24FE601914601624FD60A2
:10ADF30012240224FC500424077017751B00751CD1
:10AE03003C8006751B00751C32E475196B75183D83
:10AE1300800312B467F517F516E4FFEF75F011A47C
:10AE23002481F582E4347DF583E493FEB5030122A6
:08AE3300EE60030F80E57F00D3
:01AE3B0022F4
:06C210009000F1E0FF22A6
:10B865009000F1EFF024FE601914601624FD6012BB
:10B87500240224FC500424077017751B00751C3C1A
:10B885008006751B00751C32E475196B75183D80B3
:09B895000312B467F517F5162241
:06C216009000FCE0FF2295
:10BE2F007F0112B43DFE9000FCE0FDEE6D60030F4C
:0EBE3F0080F00F12B43D70027F0112B43DFF7F
:01BE4D0022D2
:09C19800302103D2B722C2B72204
:1089A200900018EFF09000FCE06F7003028A7C9058
:1089B200013AE0B4010543E804800312B7B990001C
:1089C20018E09000FCF09000F1E0FF12A48090000B
:1089D200FCE024FD60262402706212BD40C21BE44A
:1089E200FF1281A3C294C2957D667F8A12B7F3906B
:1089F200002BEFF07BFF7A7C79CC803012BD64C211
:108A02001BE4FF1281A3D294C2957D71128A7D7DEF
:108A120072128A7D7B907D737F8A12BCCF7B807DB0
:108A2200747F8A12BCCF7BFF7A7C79F49000FCE0E1
:108A3200FF900029E4F0A3EFF012BC3512AE94903F
:108A420000FCE0FF12C1747F1E12BFF91293E912FB
:108A5200917890013AE0B4010553E8FB8005E4FF08
:108A620012A6807F6412BFF97BFF7DD07F8A12BC81
:108A7200CF7BFF7DD17F8A12BCCF227B907F8A126F
:038A8200BCCF2244
:0DC11100C22112C1B312B7B9E4FF02BEAAE9
:0CC12A0012B703900109EEF0A3EFF02221
:09C1A100900109E0FEA3E0FF2279
:108D2800C374FF9FFFC39400400CEF94645007E4A2
:108D3800900002F0804BEFC39464400DEF948C5088
:108D480008900002741EF08038EFC3948C400DEF39
:108D580094B45008900002743CF08025EFC394B49A
:108D6800400DEF94DC50089000027450F08012EF30
:108D7800C394DC400CEFD394FF5006900002746E4D
:108D8800F0900146E0702C9000F6E0C3940A50057C
:108D9800E004F08024900002E0FFE51DD39F40042A
:108DA800151D8008E51DC39F5002051DE49000F6BF
:108DB800F08006900002E0F51D7DFF7F8A12B7F370
:108DC800900001EFF012B46012BCCF7DBE7F8A1212
:108DD800B7F3EF54CF4410FB7DBE7F8A12BCCF7D22
:108DE800C47F8A12B7F3EF5480451DFB7DC47F8A88
:0F8DF80012BCCF900001E0FB7DFF7F8A02BCCF51
:10C08E00E4900139F090010CF09001377408F02221
:1084EA007FAB7E0012BCA99000EEEFF07FB07E0059
:1084FA0012BCA99000EFEFF07FAA7E0012BCA990EF
:10850A00012FEFF07FAD7E0012BCA9900103EFF0BE
:10851A007FA07E0012BCA9900146EFF07FB87E00D2
:10852A0012BCA9900100EFF07FB77E0012BCA9909F
:10853A0000FBEFF07FB97E0012BCA99000EDEFF0CE
:10854A007FBF7E0012BCA9EF24FF92097FC57E007F
:10855A0012BCA9900102EFF07FAF7E0012BCA99075
:10856A000133EFF07FA51285E7EE9001307006E047
:10857A004401F08004E0540EF07FA61285E7EE90E5
:10858A0001317006E04401F08004E0540EF07FA748
:10859A007E0012BCA9AE07EE9001327006E04401DB
:1085AA00F08004E0540EF07FA87E0012BCA9AE074A
:1085BA00EF9001347006E04401F08004E0540EF0BC
:1085CA0012C1EC90016DEFF012C1F490016EEFF060
:0C85DA007FB27E0012BCA99000F4EFF00C
:0985E600227E0012BCA9AE07229E
:108C48007BFF7A7D790312BFC59000EFE0703A127E
:108C5800C20AEF20E133300A2120072DD207E49021
:108C680000F3F07FA3FE12BCA9EF700790016BE040
:108C780054EFF07F061288BD800F30070CC2077FC3
:108C8800A37E0012BCA9129178129C98900000EF64
:108C9800F012656F900135E0701B900139E06015A6
:108CA80090012FE0FF90010CE0C39F400812BD1B0C
:108CB800E490010CF0900146E0700E7DC97F8A12A5
:108CC800B7F3900000EFF080027FFF128D28124A60
:108CD800D3EF604B129DD712C216EF1424FD500239
:108CE800800A12C20AEF20E1031293E97DB27F8A5B
:108CF80012B7F3EF6003028C517BB07DFD7F8A12BF
:108D0800BCCFE4FF12BEAA7FF47E0112B3A37F0199
:0F8D180012BEAA7B307DFD7F8A12BCCF028C5128
:018D27002229
:10981F00C2B5C22112C1B37F0A7E0012B3A3C2B474
:10982F0012B13B7F0112BEAA12BE8C12C08E12A1C2
:10983F00541282C47F0A7E0012B3A31284EA9001ED
:10984F0033E090014BF07FA97E0012BCA912B274D5
:10985F00E4900135F07BFF7A7D790812BFC5900047
:10986F00EFE060447FA37E0012BCA9EF900130703F
:10987F001BE04402F0900131E04402F0900132E02D
:10988F004402F0900134E04402F08019E0540DF0EE
:10989F00900131E0540DF0900132E0540DF0900141
:1098AF0034E0540DF012AD899000EEE06003128C9D
:0698BF004812A26780F2CE
:10A26700E4900002F0129C98900001EFF0601BE070
:10A27700FF12656F900137E0B40803D38001C34034
:10A2870019E4FF12A680D221800D900001E0FF1291
:10A29700656F12C111C22112C1B3E4FF12AE3C9027
:10A2A7000000EFF060BFE0B404BB129C98EF70B5FC
:10A2B7009000EE04F0FD7FAB7E0012B3EB129178B5
:10A2C70012AD897FA37E0012BCA9BF01069000F3DF
:10A2D7007403F0C207E4FF12A680D22112C1B37B38
:08A2E700FF7A7D791902BFC561
:107E1A00900103E0600A640170359000EBE0702F76
:107E2A00300503027F5AD205E490001CF090001C32
:107E3A00E0FFC39404500E12B432E412B44EE4F0DC
:107E4A0012B47180E8E49000F0F09000EBF022C2E6
:107E5A00059000EBE0FF9000F0E0FED39F406AEE51
:107E6A009F90001DF0E490001CF090001DE0FF9030
:107E7A00001CE0C39F504AE4FF12B44FE0FE12B464
:107E8A0032E06E600B90001EEE12B44EE4F08005F4
:107E9A000FEFB404E4E4FF12B432E0FE90001EE0F7
:107EAA00FDEED39D401012B432E014F012B432E069
:107EBA00FE12B44FEEF00FEFB404DC12B471027E7E
:107ECA00749000EBE09000F0F09000F0E090001D5C
:107EDA00F0A37405F0E490001CF090001CE0FFC3CE
:107EEA009404502812B432E0FF90001DE0FEEFB572
:107EFA00061590001CE0FF90001EF0EEB4010DEF95
:107F0A00049000FEF0800512B47180CE7F0112BF8A
:107F1A00F990001EE014600D14600F14601424031D
:107F2A007025E48025E4F5148022E4F514F515C2E1
:107F3A001922E4F514F515F51A9000ECE0640660D0
:107F4A000FE49000F5F022E4F514F515F51AC219BC
:017F5A002204
:1083DE00A10AA20AA000A310A410A591A601A701AC
:1083EE00A822A910AA00AB62119E00000100CC0CBD
:1083FE0002700000005000000F4000119E3031004E
:10840E00AFC81202F1100800500030004000119E5B
:10841E003100029000040170000000A0F5000F4032
:10842E0000119E3100029000030170000000F0F573
:10843E00000F4000119E3230000C0D0A01B10404F1
:10844E000050C800044000119E313000160D0F027E
:10845E003101000050A0000840119E3330100C98DE
:10846E0028013101000000B400084000119E313097
:10847E00000C020F023101000050A0000840001154
:10848E009E3130000A0502013101000050A00008A3
:10849E004000119E32300040090204B1000890E005
:1084AE0000043640119E3130008A091808B08A0542
:1084BE00B05026083640119E30B400402A0201F119
:1084CE00000000E0000036C100119E303C109060AC
:0C84DE001502F102044050C80036C10035
:10A2EF00900051FFE475F0011249F7EF0246D79045
:10A2FF00004FE0FEA3E0FF22EF14FB7D9E7F8A223A
:10A30F009000101249EE900013E0F5827583000261
:10A31F0046AAE0A4FFA3E5F0F0A3EFF07DA07F8AAB
:10A32F002290005BE0FCA3E0FD22EEF0A3EFF0A390
:10A33F00221246FB900059EEF0A3EFF04E22A3E05D
:10A34F00FB7D967F8A221246FB90004FECF0A3ED27
:10A35F00F022F07B047D947F8A22EDF0EFC394010D
:08A36F0022E4FB7D947F8A22A9
:10BB340012BB56900028F0E4A3F012BB56FF90000D
:10BB440028E06F700C900029E004F0E0C3940A40F0
:01BB5400E907
:0CBB5500227D957F8A12B7F3EF54402246
:10AC7800E490000EF0E490000DF090000DE0FFC3AA
:10AC88009408502FA3E075F008A4FEEF2E7D9C12C7
:10AC9800ACC8FFA3E075F0089018E31249E2E5821A
:10ACA8002FF582E43583F583E4937D9D12ACC804C7
:0FACB800F080C790000EE004F0E0C3940240B6B5
:0CACC70022FB7F8A12BCCF90000DE0221F
:10ABBC00900003EFF0A3124A0E12AC0A44017D94EC
:10ABCC0012AC13900003E07D9912AC137DE07F8AE8
:10ABDC0012B7F3EF4410FB7DE07F8A12BCCF9000DC
:10ABEC00041249EE90005A741BF07D9A7F8A12B5BC
:10ABFC008712AC0A54FEFB7D947F8A02BCCF7D94F5
:0EAC0C007F8A12B7F3EF22FB7F8A12BCCF22A1
:10B8D7007B607D9B7F8A12BCCFE4900002F09000D2
:10B8E70002E0FFC394E2501FEF94C6501AEF75F0C1
:10B8F7001BA424F3F9741835F0FA7BFF12ABBC9044
:07B907000002E004F080D70C
:01B90E002216
:03B6090090001599
:10B60C0012A3694036EFD39408503012A30712BC32
:10B61C00CF90001575F00812A32112B7F3EF54F078
:10B62C00FD900016E04DFB7DA07F8A12BCCF9000F0
:0BB63C0016A3E0FB7DA17F8A12BCCFAB
:01B6470022E0
:03B545009000155E
:10B5480012A3694039EFD39408503312A30712BCF1
:10B55800CF90001575F00412A32112B7F3EF540F22
:10B56800FD900016E0C454F04DFB7DA07F8A12BC0C
:0EB57800CF900016A3E0FB7DA27F8A12BCCF0D
:01B5860022A2
:05BB0500900012EFF0BA
:10BB0A0012BB347D9C7F8A12B7F3900013EFF0903A
:10BB1A000012E06006A3E054EF8006900013E044B0
:09BB2A0010FB7D9C7F8A12BCCF48
:01BB330022EF
:03B5010090001E99
:10B5040012A369403BEFD39408503512A30712BC31
:10B51400CF7D9F7F8A12B7F390001FEFF090001E3B
:10B52400E06007A3E04401F0800790001FE054FEB0
:10B53400F012BB3490001FE0FB7D9F7F8A12BCCFCA
:01B5440022E4
:10B30D00EFC394014006EFD394084004E4FEFF22FE
:10B31D0012A30712BCCF7DA07F8A12B7F3EF540F93
:10B32D00900028F0A3E4F07DA17F8A12B7F390007E
:10B33D0028E0F0A3E04FF0900028E0FEA3E07803B2
:0AB34D00CEC313CE13D8F9FF7E0023
:01B3570022D3
:10AF4400EFC394014006EFD394084004E4FEFF22CB
:10AF540012A30712BCCF7DA07F8A12B7F3EF54F07F
:10AF6400C4F8540FC868FEE4C454F048900028F0B4
:10AF7400A3CEF07DA27F8A12B7F3900028E0F0A35D
:10AF8400E04FF0900028E0FEA3E07802CEC313CE99
:06AF940013D8F9FF7E0056
:01AF9A002294
:10B9E00090004F12A339124A0E12A36212BCCF90DC
:10B9F000004F12A34D12BCCF9000511249EE90009F
:10BA000054E090005AF07D977F8A12B58712A37098
:03BA100002BCCFA6
:10BA440090003012A339EDF0A3EB12A36112BCCF26
:10BA540090003012A34D12BCCF900032E0FBA3E063
:10BA6400900037F07D987F8A12B68712A37002BCCB
:01BA7400CF02
:10BB610090003012A339ED12A36112BCCF900030C6
:10BB710012A34D12BCCF900032E0900037F07B2031
:0DBB81007D977F8A12B68712A37002BCCF99
:0980820090004F12A339124A0EBE
:10808B00900056124A0EE4900055F0900054E064B4
:10809B000A707990005B7427F0A37410F012A33070
:1080AB00C3940AEC9400405612A2FE12A340601235
:1080BB00900059A3E0243012A2EF900055E004F099
:1080CB008015900055E0600F900051E475F001129F
:1080DB0049F774301246D712A2FE90005BE0FAA368
:1080EB00E0FBFDAC0212A3557D0A7C00AF03AE0290
:1080FB001246FB90005BEEF0A3EFF00280A890001D
:10810B004FA3E02430A312A2F2028196900054E018
:10811B00641060030281A090005B7410F0A3E4F084
:10812B0012A330C39410EC9400404412A2FE12A38D
:10813B00406028900059E0FEA3E0FFC3940AEE9440
:10814B00004005EF24378007900059A3E02430123C
:10815B00A2EF12A2FE12A33012A35590005BE0C453
:10816B00F854F0C868F0A3E0C4540F48F080B11283
:10817B00A2FEC3940AEE94004005EF2437800790CB
:10818B00004FA3E02430FFA312A2F3900051124939
:07819B00EEE41246D77F015C
:0181A20022BA
:06BFAA0090004F124A0E48
:10BFB000E4FF90004FE475F0011249F712469160DA
:04BFC000030F80EEFD
:01BFC400225A
:069B5400900010124A0E01
:109B5A007DFF7F8A12B7F3900014EFF054FEFB7D6D
:109B6A00FF7F8A12BCCF7DE07F8A12B7F3EF54EFF2
:109B7A00129BE3E4900013F012A30FFF60429000DF
:109B8A0013E02401FDE433FC9000101249EEE92DA4
:109B9A00F9EA3CFAEF129BEC900013E02401FFE48F
:109BAA0033FE9000101249EEE92FF9EA3EFA7405E5
:109BBA00129BEC12A30F04FF900013E02FF080B861
:109BCA007DE07F8A12B7F3EF4410129BE3900014F2
:099BDA00E0FB7DFF7F8A02BCCF95
:109BE300FB7DE07F8A12BCCF22900019F07F8A129E
:039BF300B82C2269
:100066000A0D6D6F646520300A0D000D0A5B4D5355
:10007600475D536574345769646553637265656E8D
:100086002829203D3E2053637265656E20746F20DB
:10009600343A33202121000D0A5345542049746512
:1000A6006D2056616C75653A2069642D2558000DE2
:1000B6000A2B2B284F5344486967684D656E755F58
:1000C60073756229204F53444D656E754C65766590
:1000D6006C3A2564000D0A52455345545F4D6F6EC8
:1000E60069746F7256414C5545000A0D79766D69F3
:1000F600782034000A0D79766D69782030000A0D73
:1001060079766D69782031000A0D79766D697820E7
:1001160032000A0D79766D6978203300436865638D
:100126006B20564741204361626C65004F75742011
:100136004F662052616E676500FE62596B62714CB4
:100146002F713A34FF001213566F6C756D650020DF
:1001560020204175746F2041646A757374696E67F7
:10016600202E2E2E2E20202000436F6D706F736977
:1001760074650056657273696F6E004C4344205671
:10018600657273696F6E00445652205665727369C4
:100196006F6E005749464920495000574946492045
:1001A6004D41430047415445574159004F53442060
:1001B600506F736974696F6E004F534420506F73AC
:1001C6006963695F6E004F534420FE54657146674C
:1001D600FF004C616E6775616765004C616E6775FF
:1001E600650053707261636865004964696F6D618B
:1001F60000FE5756714667FF004272696768746E63
:10020600657373004C756D696E6F7369745F004832
:10021600656C6C69676B656974004272696C6C6FBA
:1002260000FE4024715F60FF00436F6E747261735D
:100236007400436F6E747261737465004B6F6E74F5
:100246007261737400436F6E74726173746500FE3D
:10025600394F715F60FF0053617475726174696F25
:100266006E0053AA74746967756E6700536174757E
:10027600726163695F6E00FE4A2C33715F60FF0036
:1002860048756500546F6E616C69745C00466172F6
:10029600626500546F6E616C6964616400FE4A5465
:1002A60048715F60FF0053686172706E657373001A
:1002B60041637569745C00536368AA7266650041A0
:1002C600677564657A6100FE463933715F60FF00C9
:1002D600526573657400445C666175740047727597
:1002E6006E6465696E7374656C75670050726564DB
:1002F600657465726D696E6163695F6E00FE662482
:100306006DFF00576964652053637265656E00571B
:1003160049444520FE6D3B714667FF004D69727288
:100326006F72004A756D70005345512054696D65B2
:100336002053746570004A756D7020415600436104
:100346006D204F75740052657475726E0052656348
:10035600616C6C004D6F6E69746F722052656361DB
:100366006C6C0044565220526563616C6C00457893
:1003760069740020007665722041302E30310054B9
:10038600696D654F757420536574757000476175A6
:1003960067652053657475700047617567652052FF
:1003A6006563616C6C005072696F72697479005292
:1003B6006576657273204D6F6465005265736F6C68
:1003C6007574696F6E00465053005175616C69749F
:1003D60079005265636F7264204D6F6465005265E3
:1003E600636F7264204C656E677468005072652D89
:1003F600616C61726D00506F73742D7265636F72FC
:1004060064004170706C79005265636F7264537456
:10041600617274005265636F726453746F70005337
:100426006E617073686F7400446174652054696D01
:10043600650059656172004D6F6E7468004461799C
:1004460000486F7572004D696E0053656300446124
:10045600796C69676874536176696E67004265678F
:10046600696E6500456E64005765656B0054696D7D
:10047600650054696D65205A6F6E65005265747526
:10048600726E264170706C7900466F726D617420D1
:100496005344204361726400417564696F2052655C
:1004A600636F7264004669726D776172652055707C
:1004B6006461746500596573004E6F004669727316
:1004C60074204E756D626572005365636F6E6420AD
:1004D6004E756D626572005468697264204E756D62
:1004E60062657200466F75727468204E756D62653E
:1004F60072004368616E67652050617373776F722F
:1005060064004F766572577269746500446972209B
:10051600496D616765005472696767657220564761
:100526004100547269676765722044656C617900A1
:10053600496E666F726D6174696F6E0055706461A5
:10054600746520436F6E66696700534420636F7657
:100556006572204465742E0043414D20410043419D
:100566004D20420043414D20430043414D2052005F
:10057600446973706C617900445652204469737003
:100586006C61790044697374616E636520476175B7
:100596006765004F5344204C6F636B005061737363
:1005A600776F726400536F75726365205469746C5B
:1005B60065004356425320410043564253204200B1
:1005C600435642532043004356425320520041753E
:1005D600746F20446179264E6967687400446972B5
:1005E60020496D6167650044697220496D616765E0
:1005F60020410044697220496D61676520420044CC
:10060600697220496D6167652043005265617220F9
:1006160053657475700043414D20410043414D20A0
:10062600520043414D20420043414D204300434187
:100636004D2044000200456E676C6973680046727F
:10064600616E7B6169730044657574736368004508
:100656007370617E6F6C00FE6A2356FF20000401F2
:100666004D6F646531004D6F646532004D6F646592
:10067600330055736572004D6F646531004D6F64CC
:100686006532004D6F6465330055736167657200AE
:100696004D6F64757331004D6F64757332004D6F25
:1006A600647573330042656E75747A6572004D6FBA
:1006B600646F31004D6F646F32004D6F646F3300AD
:1006C6005573756172696F00FE3A34FF3100FE3A68
:1006D60034FF3200FE3A34FF3300FE47515B71FFB0
:1006E600200008004175746F004E5453430050417A
:1006F6004C00534543414D004E545343342E34333E
:100706000050414C4D0050414C4E0050414C36304B
:100716000005004E6F726D616C005769646500508C
:10072600616E6F72616D610046756C6C000500FE4E
:100736001A1BFF2000FE1C1DFF2000FE1E1DFF20B1
:1007460000FE1F20FF2000FE1F21FF200009004F92
:10075600666600434331004343320043433300435C
:1007660043340054310054320054330054340002F0
:10077600004F4E004F46460002004D4952524F521E
:10078600004E4F524D414C000300446179004155E3
:10079600544F004E6967687400020031363A3900DA
:1007A600343A33000200004F4E004F464600040024
:1007B60053494E474C45004455414C00545249500C
:1007C6004C4500412B422C422B4100070041004181
:1007D6002B4200412B4300412B5200412B42430048
:1007E600412B425200412B43520007004200422B4C
:1007F6004100422B4300422B5200422B4143004210
:100806002B415200422B43520007004300432B4129
:1008160000432B4200432B5200432B414200432B03
:10082600415200432B4252000A005200522B410013
:10083600522B4200522B4300522F414200522F416D
:100846004300522F424300522B414200522B414358
:1008560000522B4243000E0051554144005345516E
:1008660000412B4200432B5200412B5200522B4297
:1008760000412B4300432B4200522F414200522B92
:1008860041420041004200430052000500515541DB
:10089600440043414D410043414D420043414D43D5
:1008A6000043414D52000200003732307834383070
:1008B60000333532783234300005000035003130EF
:1008C600003135003230003235003330000500008B
:1008D6004C6576656C2D31004C6576656C2D320065
:1008E6004C6576656C2D33004C6576656C2D340051
:1008F6004C6576656C2D35000300004E6F6E650005
:100906004E6F726D616C00416C61726D0006000085
:100916003120206D696E003220206D696E00332013
:10092600206D696E003420206D696E003520206DC3
:10093600696E003130206D696E000500003135208A
:10094600736563003330207365630036302073654A
:10095600630008000031352073656300333020736F
:1009660065630036302073656300020000446973D6
:1009760061626C6500456E61626C6500040000464C
:1009860069727374005365636F6E640054686972AC
:100996006400466F757274680004004100420043AB
:1009A6000052001900002D3132002D3131002D3159
:1009B60030002D39002D38002D37002D36002D350D
:1009C600002D34002D33002D32002D310030003142
:1009D6000032003300340035003600370038003965
:1009E6000031300031310031320002005020004425
:1009F60020000300323430300034383030003936CD
:100A06003030000200FE1819FF2000FE1A1BFF20DE
:100A1600000400FE1C1D1E1F2021FF2000FE2223B5
:100A260028292A2BFF2000FE242528292A2BFF20EF
:100A360000412B422C422B41000E00FE262728297E
:100A46002A2BFF200053455100412B4200432B52D5
:100A560000412B5200522B4200412B4300432B42B4
:100A660000522F414200522B4142004100420043B6
:100A760000520056474100FF0179FF0179FF0179D5
:100A8600FF0179FF0179FF0181FF0181FF0181FFEC
:100A96000181FF0181FF018DFF018DFF018DFF01A6
:100AA6008DFF018DFF0199FF0199FF0199FF0199C2
:100AB600FF0199FF01A1FF01A1FF01A1FF01A1FF14
:100AC60001A1FF01AAFF01AAFF01AAFF01AAFF01D6
:100AD600AAFF0122FF0132FF0132FF0132FF01327C
:100AE600FF013FFF014CFF01B2FF01B2FF01B2FF60
:100AF60001BFFF01CCFF01D8FF01E1FF01E8FF01C3
:100B0600F0FF01F7FF01FFFF020AFF0215FF0220B7
:100B1600FF0227FF022FFF0238FF0242FF024BFFB0
:100B26000255FF025DFF025DFF0268FF0272FF02CF
:100B36007DFF0286FF028AFF0293FF0299FF02A34E
:100B4600FF02ACFF02B6FF02BDFF02C5FF02CDFFEA
:100B560002D6FF02DCFF02E3FF02F2FF0303FF03FC
:100B660022FF0322FF0322FF0322FF0322FF0329A2
:100B7600FF0329FF0329FF0329FF0329FF032EFF94
:100B8600032EFF032EFF032EFF032EFF0344FF0356
:100B960044FF0344FF0344FF0344FF033CFF034CAD
:100BA600FF034CFF034CFF034CFF034CFF0353FFB3
:100BB6000353FF0353FF0353FF0353FF035AFF037C
:100BC6005AFF035AFF035AFF035AFF0369FF0369DB
:100BD600FF0369FF0369FF0369FF0374FF0374FFE3
:100BE6000374FF0374FF0374FF0576FF0576FF05A4
:100BF60076FF0576FF0576FF057EFF057EFF057EFF
:100C0600FF057EFF057EFF058AFF058AFF058AFF31
:100C1600058AFF058AFF0599FF0599FF0599FF05D6
:100C260099FF0599FF05A2FF05A2FF05A2FF05A2F0
:100C3600FF05A2FF05ABFF05ABFF05ABFF05ABFF4D
:100C460005ABFF05B8FF05B8FF05B8FF05B8FF05FA
:100C5600B8FF05BFFF05BFFF05BFFF05BFFF05BF07
:100C6600FF05C6FF05C6FF05C6FF05C6FF05C6FF8D
:100C760005CDFF05CDFF05CDFF05CDFF05CDFF0554
:100C8600D4FF05D4FF05D4FF05D4FF05D4FF05E343
:100C9600FF05E3FF05E3FF05E3FF05E3FF05EDFFC2
:100CA60005F9FF0605FF0611FF0611FF0611FF06EF
:100CB60011FF0611FF061CFF061CFF061CFF061C83
:100CC600FF061CFF0628FF0628FF0628FF0628FF4A
:100CD6000628FF062EFF062EFF062EFF062EFF060F
:100CE6002EFF0622FF0622FF0622FF0622FF06220D
:100CF600FF0634FF0634FF0634FF0634FF0634FFD2
:100D06000379FF037BFF0385FF0393FF039FFF0325
:100D1600ACFF03B5FF0528FF0528FF0528FF0528BA
:100D2600FF0528FF055EFF055EFF055EFF055EFF0A
:100D3600055EFF0564FF0564FF0564FF0564FF05A6
:100D460064FF056AFF056AFF056AFF056AFF056A13
:100D5600FF0570FF0570FF0570FF0570FF0570FF4A
:100D660003C1FF03CCFF03D0FF03D8FF03E4FF0357
:100D7600F2FF03FCFF0408FF040EFF041AFF04251C
:100D8600FF042EFF0438FF043DFF0443FF0447FF22
:100D9600044CFF0450FF0454FF0463FF046AFF047D
:100DA6006EFF0473FF0478FF0482FF048FFF049E26
:100DB600FF04ABFF04BBFF04BFFF04C2FF04CFFF69
:100DC60004DDFF04EAFF04F8FF0508FF0512FF052E
:100DD6001CFF0536FF0542FF0550FF0309FF030907
:100DE600FF0309FF0309FF0315FE6C6F00FE727512
:100DF60000FE606300FE787B00FE666900FE848765
:100E060000FE010200FE7E8100FE8A8D00FE9093A8
:100E160000FE969900FEC0C300FE9C9F00FEA2A5A0
:100E260000FEA8AB00FEAEB100FEB4B700FEBABD30
:100E360000000018031661180216610000FF0C84FA
:100E4600FFFFFF3200000700B807750000FF0BEE3A
:100E5600FFFFFF3200000700B907750000FF0C0C0A
:100E6600FFFFFF3200000700BA07750000FF0C1BEA
:100E7600FFFFFF3200000700BB07750000FF0D14DF
:100E8600FFFFFF3200000700CA07750000FF0D17BD
:100E9600FFFFFF3200000700D6079F0000FF0BA3ED
:100EA600FFFFFF3200000300F10000000000000019
:100EB6000000FFFF0000000000000018021661009D
:100EC60000FF0DBCFFFFFF3200000300F100000031
:100ED60000FF0DB9FFFFFF3200000300ED00000028
:100EE600000000000000FFFF0000000000000018E6
:100EF6000216610000FF0DBFFFFFFF320000050074
:100F06002D0E380000FF0DC2FFFFFF320000050066
:100F16002E0E380000FF0DC5FFFFFF320000050052
:100F26002F0E380000FF0DC8FFFFFF32000005003E
:100F3600380E380000FF0DCBFFFFFF320000030024
:100F4600EE00000000FF0BA3FFFFFF3200000300CE
:100F5600F1000000000000000000FFFF000000009C
:100F6600000000180216610000FF0DBFFFFFFF32F0
:100F7600000005002D0E380000FF0DC2FFFFFF32F6
:100F8600000005002E0E380000FF0DC5FFFFFF32E2
:100F9600000005002F0E380000FF0DC8FFFFFF32CE
:100FA60000000500380E380000FF0DB0FFFFFF32CD
:100FB60000000300EB00000000FF0DCBFFFFFF3237
:100FC6000EF90100000EF50000FF0BA3FFFFFF3234
:100FD60000000300F1000000000000000000FFFF19
:100FE60000000000000000180516610000FF0DAAB1
:100FF600FFFFFF32000007002C09A90000FF0D8942
:10100600FFFFFF3200000500200E380000FF0D8CA8
:10101600FFFFFF3200000500210E380000FF0D8F94
:10102600FFFFFF3200000500220E380000FF0D9280
:10103600FFFFFF3200000500230E380000FF0D956C
:10104600FFFFFF3200000500240E380000FF0DAD43
:10105600FFFFFF3200000300F60000000000000062
:101066000000FFFF000000000000000000FF0DB9B7
:10107600FFFFFF32000003009B00000000FF0DBCD5
:10108600FFFFFF3200000300F10000000000000037
:101096000000FFFF000000000000000000FF0DB987
:1010A600FFFFFF32000003007000000000FF0DBCD0
:1010B600FFFFFF3200000300F10000000000000007
:1010C6000000FFFF000000000000000000FF0DB957
:1010D600FFFFFF32000003009E00000000FF0DBC72
:1010E600FFFFFF3200000300F100000000000000D7
:1010F6000000FFFF000000000000000000FF0BC121
:10110600FFFFFF3210A10100000E390000FF0BD0D7
:10111600FFFFFF3210D10100000E390000FF0BA3C4
:10112600FFFFFF3200000300F10000000000000096
:101136000000FFFF00000000000000180416610018
:1011460000FF0AAAFFFFFF3600000B00F1000000B7
:1011560000000000FFFFFF3200000C00390E3800CF
:1011660000FF0AB9FFFFFF3600000B00F100000088
:1011760000000000FFFFFF3600000C003A0E3800AA
:1011860000FF0AC8FFFFFF3600000B00F100000059
:1011960000000000FFFFFF3600000C003B0E380089
:1011A60000FF0BA3FFFFFF3200000300F100000069
:1011B600000000000000FFFF000000000000001813
:1011C6000416610000FF0BB2FFFFFF3200000300B0
:1011D6009B00000000FF0BDFFFFFFF320000030053
:1011E600F400000000FF0D05FFFFFF3200000B00BA
:1011F600F400000000FF0D05FFFFFF3200000B00AA
:10120600F400000000FF0D05FFFFFF3200000B0099
:10121600F400000000FF0D08FFFFFF3600000B0082
:10122600F4000000000000000000FFFF00000000C6
:10123600000000180516610000FF0D71FFFFFF3268
:1012460000000700E409130000FF0D77FFFFFF32DF
:1012560000000700E609580000FF0DB3FFFFFF324C
:1012660000000700EC099F0000FF0DADFFFFFF32F5
:1012760000000300F5000000000000000000FFFF72
:1012860000000000000000180416610000FF0D6E4B
:10129600FFFFFF32123D01000012390000FF0D680A
:1012A600FFFFFF3200000700E108BF0000FF0D6BE3
:1012B600FFFFFF3200000700E208D30000FF0DB079
:1012C600FFFFFF320F6D0100000F690000FF0DB632
:1012D600FFFFFF320EC50100000EC10000FF0DAD7D
:1012E600FFFFFF3200000300F500000000000000D1
:1012F6000000FFFF00000000000000180516610056
:10130600000000000000FFFF0000000000000018C1
:101316000416610000FF0B0AFFFFFF320000040005
:10132600960E380000FF0B19FFFFFF320000040085
:10133600950E380000FF0B28FFFFFF320000040067
:10134600970E380000FF0B37FFFFFF320000040046
:10135600990E380000FF0B46FFFFFF320000040025
:101366009A0E380000FF0BA3FFFFFF3200000300B8
:10137600F1000000000000000000FFFF0000000078
:10138600000000180516610000FF0CBAFFFFFF32CF
:1013960000000700C107750000FF0CC9FFFFFF3200
:1013A60000000700C207750000FF0CD8FFFFFF32E0
:1013B60000000700C307750000FF0CE7FFFFFF32C0
:1013C60000000700C407750000FF0BA3FFFFFF32F4
:1013D60000000300F1000000000000000000FFFF15
:1013E600000000000000000000FF0D29FFFFFF3293
:1013F60000000400B20E380000FF0D38FFFFFF3278
:1014060000000400B30E380000FF0D47FFFFFF3257
:1014160000000400B40E380000FF0D56FFFFFF3237
:1014260000000400B50E380000FF0BA3FFFFFF32DB
:1014360000000300F1000000000000000000FFFFB4
:1014460000000000000000180516610000FF0CA255
:10145600FFFFFF3200000700CD07D10000FF0CA5FB
:10146600FFFFFF3200000700CE07F00000FF0CA8C8
:10147600FFFFFF3200000700CF080F0000FF0BA39D
:10148600FFFFFF3200000300F10000000000000033
:101496000000FFFF000000000000001808166100B1
:1014A60000FF0B64FFFFFF32138D0100000E3900B1
:1014B60000FF0DD1FFFFFF3214510100000E39006D
:1014C60000FF0CABFFFFFF3200000700C6082E002E
:1014D60000FF0B73FFFFFF3200000700C7085C0028
:1014E60000FF0B91FFFFFF3200000700C8089100C4
:1014F60000FF0B82FFFFFF3200000400C90E380018
:1015060000FF0D1AFFFFFF3213ED0100000E390038
:1015160000FF0BA3FFFFFF3200000300F1000000F5
:10152600000000000000FFFF0000000000000002B5
:1015360004FF320DEF000000FFFF32FF1319010018
:101546009F13150DF3000000FFFF32FF0E4101004F
:10155600000E3D0DF7000000FFFF32FF14A501004D
:101566009F14A10DFB000000FFFF32FF11C901000F
:101576000011C500000000000000FFFF0000000091
:101586000000000000000000FFFF32FF15390100D7
:1015960000153500000000000000FFFF00000000FD
:1015A60000000000000064003200020034001A004F
:1015B60001002C001600000037001C000000C700C8
:1015C60064002D00D2008000000007000300000028
:1015D6003F0020002D00D200800000001F001000F8
:1015E6002300870055002300870055FFB60022FF21
:1015F600E8000000FF0080FF80007F000000000080
:101606000700030000007F004011111171113B1605
:101616001A010201342C342C024B3232323232326D
:10162600324B32323211101314157071747273709A
:10163600717472737863008080006080808080207F
:10164600808080803B68F890900060808080802059
:10165600808080800358F8A0A00060808080802071
:101666008080808003322528282D6432323232323F
:1016760032000A00600061006200630066006700D5
:101686006800B900FC13DBA67B0060000017481B4E
:10169600DB807B0000000017481EF2807C80000182
:1016A600B6314826D58069000000006FDF13D4A646
:1016B6009100600000174821D480910000000017B7
:1016C6004813F28092800001B6344813DC807F0014
:1016D600000000605A14008B7C0150000029481459
:1016E600DC807C00000000294814F2807C80000128
:1016F600B6294814DC805F000000007B5A0C008B82
:1017060094015000002D480CDC8094000000002D50
:10171600480CF28094800001B62D480CDC807F00D6
:10172600000000605A3AF680FB0050000026483A56
:10173600C380FB0000000026483ACC80FB800001F5
:10174600B626483AC380BE00000000705A3FF980B2
:1017560029045000002E483FC38029040000002EB3
:10176600483FD08029840001B62E483FC380E80058
:10177600000000805A28A4806A04500000165A28E7
:1017860084806A04000000165A2889806A8435001D
:1017960035165A2884801C040000006B5A23F980F1
:1017A60014045000001F5A23C88014040000001FB0
:1017B6005A23F08014843501871F5A23C880E70016
:1017C600000000565A202020496E70757420203A79
:1017D6002020202020202020202020202020002023
:1017E600202053797374656D203A20202020202014
:1017F6002020202020202020002020204820467263
:101806006571203A2020202020206B487A20202055
:10181600202000202020562046726571203A202084
:101826002020202020487A20202020200020202050
:10183600462F57205265763A20202020202020204F
:1018460020202020202000000000000000000000D2
:101856000000000000000000000000000000000082
:10186600000102020205050503040404040404043D
:101876000404040404040404040404032020201CB7
:101886002020202020202020202000202020202072
:10189600202020202020002E003A00010101010115
:1018A60002020202020205050505050505050505F4
:1018B6000404040404040320202000040404040493
:1018C600032020200020202020202020202020204F
:0D18D60000202020202020202020202000A5
:10799100410122FF4101230041012800C120C11FF3
:1079A100410110004101250041012A004101290046
:0779B10041011D00017900F6
:104F6000D3900011E09400900010E09400227E00A5
:104F7000900011E09000105403FFEEF0A3EFF02238
:104F800090010EE0FEA3E0F5828E83229000267A47
:104F9000007927E0FF7E007B0190002F124A0E7BF4
:104FA000FF22EE900010F0A3EFF02275F0101249EE
:104FB000E2740E93FB740F93900111CBF0A3EBF00E
:104FC0008F828E83ED75F0101249E2740993FF749D
:104FD0000A9390010ECFF0A3EFF022900029E02475
:104FE000F1FF900028E034FFFE90002D0249EE759D
:104FF000F0101249E2740D93227A1579BB900032B9
:10500000124A0E7A1579A92290001F1249EE9000DB
:105010000E1247C7AAF0F97BFF90002D124A0E909E
:10502000001F0249EE900010A3E0FD22E0FDE49095
:105030000035F0A3EDF02290010EE0FEA3E0FFF5B5
:10504000828E8322E0FF900010E4F0A322E490001F
:1050500010F0A3F022900028E0FEA3E0FF22E0FE83
:10506000A3E0FF7B019000547409F02290010EE050
:10507000FEA3E0FFEE90011EF0A3EFF0A322FD756A
:10508000F00A84E5F02430F0ED75F00A84227E0009
:1050900090012BEEF0A3EFF022E0FEA3E0FF9001E1
:1050A00011E0FCA3E0F5828C832290000EE09000DA
:1050B00010A4FFE5F08FF002478675F0101249E268
:1050C000740E93FC740F93AA04F97BFF90000712EF
:1050D0004A0E8F828E83227D017BFF7E0002466B0B
:1050E000FFE975F003A42416F582E43400F5832269
:1050F000900010E0FEA3E0FF900111E0FAA3E0F5BC
:10510000828A83740393FDE49322E04402F09001C9
:1051100031E04402F0900132E04402F0900134E0CA
:105120004402F022E0540DF0900131E0540DF09073
:105130000132E0540DF0900134E0540DF022EFF014
:1051400090000FE02290004CE475F0011249F70244
:105150004691900002124A43900128E075F003A4A2
:10516000F58285F083024A43F0A3EFF0D39015A9AE
:105170007401939FEE6480F8E49364809822FF901A
:105180000028E034002290010EE0FEA3E0AA06F918
:105190007BFF2275F0100249E2A3E475F00102479B
:1051A00086E0FEA3E02DFDEE3CFCEDA4FBAAF0FFA3
:1051B000900018E0229015ABE493FE740193FF2257
:1051C000900010E4F0A3740EF022F0E0FF25E0243C
:1051D00015F582E43416F583E49322F0EF25E024FC
:1051E00016F582E43416F583E493227E00EEF0A3F4
:1051F000EFF07B0122EEF0A3EFF0A32290000D026E
:1052000046AAC3900011E09403227D017BFF7E003B
:105210007F0C02466B90012DE0640122740E93FB1B
:10522000740F93900111CBF0A3EBF022EF54F8FF31
:10523000A3E054074FFB7D177F8A22900011E024E2
:1052400003F0900010E03400F02290000CE0FEA388
:10525000E0FF90000AA3E0FD22FFE493FC740193B9
:10526000FDC3EF9DFEE49C2290000EEEF0A3EFF054
:10527000FD900014E0FF22E57925E02415F582E495
:105280003401F5832235F0FA7BFF90000BE09000AB
:1052900054F0222440F582E43400F5832290012B5F
:1052A000A3E0FF22E0FFA3E090011ECFF0A3EFF008
:1052B000227D187C001246E9EF22FFE08FF0A4FF68
:1052C00022A3E054074438FB7D787F8A22C39000F4
:1052D00011E0940622F090003AE004F022E0FEA3F0
:1052E000E0FF7B0122E0FF7E007B017A007928222B
:1052F000FBC3EF9BFFEE9400FEC322C3900011E0BE
:10530000940222E0FD75F00A84E5F0243022F9E4ED
:105310003AFA024A0E2FFFE035F0FAA9077BFF2286
:10532000E024052FF075F0058422FFE4F0A3EFF0F0
:1053300022900013A3E0FF22FF7E007B017A007918
:1053400027229FEE6480F8EC648098221249EE02D6
:1053500046917D327F267E002275F011A4242DF91E
:10536000747D22F582E43400F583EEF022F582E4C8
:075370003400F583EEF0228A
:03000E0012C1DC40
:0100110022CC
:05777000900012EFF093
:1077750012000E900017EFF0900012E0B401047FA4
:107785000180027FFF900017125320E5F01251CAC5
:10779500FEFD900013E4F0A3EDF0900126E0FDC39B
:1077A500900014E09DF0900013E09400F090012605
:1077B500EE1251DBFFFD900015E4F0A3EDF0900112
:1077C50027E0FDC3900016E09DF0900015E09400C1
:1077D500F0900127EFF09000187401F0900018E088
:1077E500FFD39404506D12B30DAD07AC0690001392
:1077F50075F0081251A1F975F003A42417F582E478
:107805003400F583EFF0EA1250E0EFF0AF0112AF6C
:1078150044AC06AD0790001575F0041251A175F042
:1078250003A42418F582E43400F583EFF0EAC4F8E4
:1078350054F0C8EBC4540F485470FF900018E0F999
:107845001250E2E04F1250E0EFF0900018E004F023
:107855000277E112BB347DE07F8A12B7F3EF54EF74
:107865001278D09000187401F0900018E0FFD394BE
:10787500045031EF14FB7D9E7F8A12BCCF90001817
:10788500E075F003A42416F9740035F0FA7B019035
:10789500005A7403F07DA07F8A12B587900018E026
:1078A50004F080C57DE07F8A12B7F3EF44101278AB
:1078B500D0900017E0FF12C16B12BB34E4FB7D9042
:0A78C5007F8A12BCCF900017E0FF8D
:0A78CF0022FB7DE07F8A12BCCF226D
:106C0B00901615E493900126F0901616E4939001DC
:106C1B0027F0E4FF12C16B7FB0126D9C7FA0126D49
:106C2B009C7FA07E0012BCA9900146EFF07FA112C1
:106C3B006DA47FA2126DA47FBA126DB37FA4126DE7
:106C4B00B37FAB126DAB7FA3126DC27FBB126DC254
:106C5B007FA5126DAB7FA6126DBA7FA7126DBA7F9F
:106C6B00A8126DC97D327F387E0012B3EB90016D97
:106C7B007432F0E4FF1281A37D327F377E0012B3B2
:106C8B00EB7D037FB27E0012B3EB7FBC126DC97F2D
:106C9B00BD126DD87FBE126DD8900103E0700FFD51
:106CAB007FAEFE12B3EB7D017FAC7E00800E7D0DBF
:106CBB007FAE7E0012B3EBE4FD7FACFE12B3EBE4D0
:106CCB00900139F07D027FAAFE12B3EB7FA9126D02
:106CDB00F1E4FF12B2747BFF7A00796612BFC57DB7
:106CEB00337FA07E0012BB617FB2126DF17FB312B6
:106CFB006DD07FB4126DD07FB5126DE97FB6126D7A
:106D0B00E91284EAE4FF12C17D7D017FBF7E001290
:106D1B00B3EB7FBF7E0012BCA9EF24FF9209E4FD09
:106D2B007FB8FE12B3EB7FB87E0012BCA9900100B6
:106D3B00EFF07D017FB77E0012B3EB7FB77E0012C1
:106D4B00BCA99000FBEFF07D027FB97E0012B3EB84
:106D5B007FB97E0012BCA99000EDEFF0E4FD7FAF90
:106D6B00FE12B3EBE4900133F090010204F0FD7FCF
:106D7B00C57E0012B3EB7F1B126DDF7F1C7E0212F0
:106D8B00B3EB7F1D126DDF7F1E7E0212B3EB02A3EE
:106D9B00FD7D017E0012B3EB22E4FDFE12B3EB226C
:106DAB007D017E0012B3EB22E4FDFE12B3EB227DDC
:106DBB00017E0012B3EB22E4FDFE12B3EB22E4FDE5
:106DCB00FE12B3EB227D017E0012B3EB22E4FDFE3B
:106DDB0012B3EB22E4FD7E0212B3EBE4FD227D0144
:0D6DEB007E0012B3EB22E4FDFE12B3EB229A
:10C06C0012C1E4900128EFF075F00584AFF0EFF009
:01C07C0022A1
:10BEE600EFB401047F0180027FFF900128125320E6
:0CBEF600AFF0EFF012C17D900128E0FFDA
:01BF0200221C
:05AA8F00900014EDF041
:10AA9400EF75F003A42481FEE435F0A3F0A3CEF017
:10AAA400E4A3F0900017E0FFC39403504390001612
:10AAB400E02FFF900015E03400FE12BCA9900018AE
:10AAC4001251EB7A00791A124F99124FF91298C564
:10AAD400900017E02471FD90001AA3E0FF90001489
:10AAE400E02FFB7F8A12BCCF900017E004F080B304
:01AAF400223F
:10A7F400EFB401047F0180027FFF90012CE0240468
:10A80400FD90012BE03400FCEF3395E0FEED2FFFCB
:10A81400EC3EF0A3EFF07E0090012B124F77FD7F0A
:10A824008012B3EB7F107E0012BCA97E007B017AFC
:10A83400007912124F997A1579C1124FFD1298C5F9
:10A8440012529D900012A3E0FD12AA8F7F807E0019
:10A8540012BCA9EF64037BA860047D3080027D32C2
:0AA864007F3E7E0012BA4412529D9E
:01A86E0022C7
:0596CB00900012EFF019
:1096D000ED90012CB4010DE02401FF90012BE0344A
:1096E00000FE800BE024FFFF90012BE034FFFE9092
:1096F0000013EE12516850151251B5900014E09FFE
:10970000EE6480F8900013E0648098400302977242
:10971000900013E0FEA3E0FF1250907B017A0079E5
:1097200015124F99124FF91298C5900012E0248A31
:10973000FFE433FEA3A3E0FD12B3EB7F107E001223
:10974000BCA99000131251EB7A007917124F997A45
:109750001579C1124FFD1298C5900012E02471FDD9
:10976000900017A3E0FF900015A3E02FFB7F8A1263
:05977000BCCF12529D68
:0197750022D1
:10AE94007D707F8A12B7F3EF54BFFB7D707F8A12F7
:10AEA400BCCF7D7412AEE27D757F8A12BCCF7D76F5
:10AEB40012AEE27D717F8A12BCCF7B807D727F8A65
:10AEC40012BCCF7B807D737F8A12BCCF7D707F8A5A
:10AED40012B7F3EF4440FB7D707F8A02BCCF7B80C6
:08AEE4007F8A12BCCF7B8022A3
:0687D40090001FEFF0FD14
:1087DA007F0B7E0012B3EB90001FE06403606CE431
:1087EA00A3F0A3F0900020E0FEA3E0FFC3940FEEF5
:1087FA0064809480503B90001FE0C454F0243BF501
:10880A0082E43416F583E5822FF582E5833EF5830B
:10881A00E493FB900020A3E0242BF58274163EF526
:10882A0083E493FD7F8A12BCCF90002012519A8074
:10883A00B390001FE0C454F0244AF582E43416F5DC
:0B884A0083E49390002212532A804E1A
:10885500E4FF12C20312B6487F0112C20312B2C16D
:108865007F0212C203AD07E4FF12A8E17F0312C223
:1088750003AD077F0112A8E17F0412C20312A951BB
:108885007F0512C2037E009000241251ED7A007913
:0E88950022124F997A167903124FFD1298C5E0
:1088A3009000221252C112BCCF7D177F8A12B7F3F8
:0988B30090002212522C12BCCFDD
:0188BC002299
:03C21C007F00227E
:07C2030012BDCF12508E2284
:059D3900900012EFF0A4
:109D3E00EDB401067E007F0180047EFF7FFF90015F
:109D4E002BE0FCA3E0FD2FFFEC3EFE900013125122
:109D5E006850161251B5900013E0FAA3E0FB9FEE87
:109D6E006480F8EA6480984003AF0522900012E008
:109D7E0014601814601D14601A14602724FE602BE2
:109D8E002406702DAF0312B648802612533112B23C
:109D9E00C1801E900012E024FEFFA3A3E0FD12A8D6
:109DAE00E1800E12533112A951800612533112AABC
:109DBE0026900012E0FFA3A3E0FD12C0399000131D
:089DCE00E0FEA3E0FF1250903B
:019DD600226A
:05B64800900026EFF068
:10B64D0012C216900026E0BF010C125338124F990A
:10B65D007A1579EB800A125338124F997A1579E5DC
:10B66D00124FFD1298C59000FCE090160E93FD90C0
:0AB67D000027A3E0FB7F8A02BCCF88
:05B2C100900026EFF0F3
:10B2C6009000FCE064047017124F8C7A1579C7124F
:10B2D6004FFD1298C5900027A3E0FB7D74802212D3
:10B2E6004F8C7A1579F1124FFD1298C512C21CEFD8
:10B2F6009000276007A3E0FB7D3A8005A3E0FB7D75
:06B30600107F8A12BCCF8B
:01B30C00221E
:10AA26007E007B017A007915124F997A1579DF122B
:10AA36004FFD1298C57DFF7F8A12B7F3900017EF7E
:10AA4600F0E47DFF12AA887DBE7F8A12B7F3EF5429
:10AA5600CF44107DBE12AA887DC47F8A12B7F3EF59
:10AA66005480FD900015E0A2E713A3E0134DFB7D93
:10AA7600C47F8A12BCCF900017E0FB7DFF7F8A025D
:02AA8600BCCF43
:07AA8800FB7F8A12BCCF2204
:05A95100900026EFF06C
:10A956009000FCE06404702A9000267A00792712A1
:10A966004F937A1579D3124FFD1298C57D707F8A61
:10A9760012B7F3EF54C0FF900027A3E04FFB7D70A2
:10A98600802F900026E0FF7E007B017A0079271257
:10A996004F997A1579FD124FFD1298C512C21CEF18
:10A9A6009000276007A3E0FB7D3E8005A3E0FB7DCA
:06A9B600157F8A12BCCFE0
:01A9BC002278
:08A8E100900026EFF0A3EDF05A
:10A8E90012C21CEF60301252E5124F997A1679099B
:10A8F900124FFD1298C5900026E0243CFD7F8A1274
:10A90900B7F3EF5480FF900028A3E02FFB900026B7
:10A91900E0243CFD802C9000271252E5124F997AD1
:10A929001579F7124FFD1298C59000FCE0900026AA
:10A93900B40405E024728003E02413FD900028A3E9
:07A94900E0FB7F8A12BCCF86
:01A9500022E4
:059A0E00900012EFF0D2
:109A13007D787F8A12B7F3EF5407540F9000151225
:109A2300532A900012E0B401047F0180027FFFEF0C
:109A33003395E09000158FF012478690160312516C
