:10380B006873636F6D20312031206368303A312546
:10381B00316278206368313A3025316278206368F1
:10382B00323A3025316278206368333A3025316281
:10383B00780A0D006873636F6D2031203120636847
:10384B00313A3125316278206368303A3025316264
:10385B0078206368323A3025316278206368333AD6
:10386B0030253162780A0D006873636F6D2031204B
:10387B0031206368323A256278206368303A30250C
:10388B00316278206368313A302531627820636881
:10389B00333A30253162780A0D006873636F6D20FF
:1038AB00312031206368333A3125316278206368E7
:1038BB00303A3025316278206368313A30253162F5
:1038CB0078206368323A30253162780A0D006873CC
:1038DB00636F6D20322032206368303A31253162BC
:1038EB0078206368313A3025316278206368323A48
:1038FB003025316278206368333A30253162780A9B
:10390B000D006873636F6D20322032206368323A8A
:10391B00256278206368333A3125316278206368F9
:10392B00303A3025316278206368313A3025316284
:10393B00780A0D006873636F6D2032203220636844
:10394B00303A3025316278206368333A3125316261
:10395B0078206368313A3025316278206368323AD7
:10396B0030253162780A0D006873636F6D20322049
:10397B0032206368333A3125316278206368313AFB
:10398B003025316278206368303A302531627820F7
:10399B006368323A30253162780A0D006873636FC1
:1039AB006D20332031206368333A31253162782022
:1039BB006368303A3025316278206368313A3025BC
:1039CB00316278206368323A30253162780A0D0013
:1039DB006873636F6D20332033206368303A302572
:1039EB00316278206368313A302531627820636820
:1039FB00333A3125316278206368323A30253162AF
:103A0B00780A0D006873636F6D2033203420636870
:103A1B00303A3025316278206368313A3025316293
:103A2B0078206368333A3125316278206368323A03
:103A3B0030253162780A0D006873636F6D20342076
:103A4B0031206368303A3025316278206368313A2F
:103A5B003025316278206368323A30253162782024
:103A6B006368333A31253162780A0D006873636FEE
:103A7B006D20322032206368303A31253162782054
:103A8B006368323A3025316278206368313A3025E9
:103A9B00316278206368333A30253162780A0D0041
:103AAB006873636F6D20322032206368323A25626F
:103ABB0078206368313A3025316278206368303A78
:103ACB003025316278206368333A30253162780AC9
:103ADB000D006873636F6D20332033206368333AB6
:103AEB003125316278206368303A30253162782095
:103AFB006368313A3025316278206368323A302579
:103B0B003162780A0D006873636F6D2032203220AA
:103B1B006368333A3125316278206368323A302555
:103B2B00316278206368313A3025316278206368DE
:103B3B00303A30253162780A0D006873636F6D205F
:103B4B00332031206368333A312531627820636842
:103B5B00303A3025316278206368323A3025316251
:103B6B0078206368313A30253162780A0D0068732A
:103B7B00636F6D20332031206368333A3125316216
:103B8B0078206368313A3025316278206368323AA5
:103B9B003025316278206368303A30253162780AFB
:103BAB000D006873636F6D20332033206368333AE5
:103BBB003125316278206368303A302531627820C4
:103BCB006368323A3025316278206368313A3025A8
:103BDB003162780A0D006873636F6D2033203320D8
:103BEB006368333A3125316278206368313A302586
:103BFB00316278206368323A30253162782063680D
:103C0B00303A30253162780A0D006873636F6D208E
:103C1B00332033206368303A312531627820636872
:103C2B00313A3025316278206368323A302531627F
:103C3B0078206368333A30253162780A0D00687357
:103C4B00636F6D20332033206368303A3025316247
:103C5B0078206368323A3025316278206368333AD2
:103C6B003125316278206368313A30253162780A28
:103C7B000D006873636F6D20322032206368313A18
:103C8B003125316278206368303A302531627820F3
:103C9B006368323A3025316278206368333A3025D5
:103CAB003162780A0D006873636F6D203220322009
:103CBB006368313A3125316278206368323A3025B6
:103CCB00316278206368333A30253162782063683B
:103CDB00303A30253162780A0D006873636F6D20BE
:103CEB00322032206368313A3025316278206368A4
:103CFB00333A3125316278206368323A30253162AC
:103D0B0078206368303A30253162780A0D00687389
:103D1B00636F6D20332033206368313A3125316274
:103D2B0078206368303A3025316278206368323A04
:103D3B003025316278206368333A30253162780A56
:103D4B000D006873636F6D20332033206368313A45
:103D5B003025316278206368303A30253162782023
:103D6B006368333A3125316278206368323A302503
:103D7B003162780A0D006873636F6D203320332036
:103D8B006368313A3025316278206368323A3025E6
:103D9B00316278206368333A312531627820636869
:103DAB00303A30253162780A0D006873636F6D20ED
:103DBB00322032206368323A256278206368303AC9
:103DCB003025316278206368313A302531627820B2
:103DDB006368333A30253162780A0D006873636F7C
:103DEB006D20322032206368323A25627820636876
:103DFB00313A3025316278206368333A30253162AD
:103E0B0078206368303A30253162780A0D00687388
:103E1B00636F6D20322032206368323A256278203E
:103E2B006368333A3125316278206368313A302543
:103E3B00316278206368303A30253162780A0D00A0
:103E4B006873636F6D20332033206368323A2562C9
:103E5B0078206368303A3025316278206368313AD4
:103E6B003025316278206368333A30253162780A25
:103E7B000D006873636F6D20332033206368323A13
:103E8B00256278206368303A302531627820636888
:103E9B00333A3125316278206368313A302531620B
:103EAB00780A0D006873636F6D20332033206368CD
:103EBB00323A256278206368313A302531627820B6
:103ECB006368333A3125316278206368303A3025A4
:103EDB003162780A0D000D0A507265762E46573AFC
:103EEB0025303478000D0A437572722E46573A25E9
:103EFB00303478000D0A5B4D53475D6D61696E5F21
:103F0B00696E697428293D3E2072657620213D201B
:103F1B00465756455220262063616C6C20436C65D6
:103F2B0061724261736963454528290D0A000D0AC8
:103F3B0043616E6E6F7420616363657373204545D7
:103F4B0050524F4D21212121000D0A4E6F20696ED9
:103F5B00697469616C697A65005457383831360079
:103F6B005457383831364200545738383137004EB1
:103F7B006F7468696E67202D2D3078253032780D7F
:103F8B000A00436865636B20616761696E202D2DA4
:103F9B003078253032780D0A004C617374204368F9
:103FAB0065636B202D2D3078253032780D0A00FF9C
:103FBB00380BFF383FFF3873FF38A5FF38D9FF396F
:103FCB000DFF393FFF3973FF39A7FF39DBFF3A0F7D
:103FDB00FF3A43FF3A77FF3AABFF3ADDFF3B11FF66
:103FEB003B45FF3B79FF3BADFF3BE1FF3C15FF3C06
:103FFB0049FF3C7DFF3CB1FF3CE5FF3D19FF3D4DCB
:10400B00FF3D81FF3DB5FF3DE7FF3E19FF3E4BFFF7
:10401B003E7DFF3EAF2D2D2D3E2050616E656C3ADF
:10402B0020575647412D3830302A343830202D2D2B
:10403B00205449434F4E4C45535320485320376926
:04404B006E63680038
:107AAD00012D00013000C10DC10C02310000012F6C
:107ABD0000024C000041014001C10EC10F410143C4
:107ACD000041014100410144004401450000000016
:10B20E00ED90001DF090001BE090001E2290001BA0
:10B21E00E090001DF022EBA3F090001CE090001FC8
:10B22E0022FFEA33FE7C007D14124713744E2DF874
:10B23E00E62290001CE0A3F0A32290001DF09000E7
:10B24E001CE090001E22900028F0A3EFF07BFF225E
:1084ED007B107DE07F8A12BE4212AD24900000EE1B
:1084FD0012B2577A3E79E1900028EEF0A3EFF01218
:10850D00BDA812AD24EF64107003EE640260287BE9
:10851D00FF7A3E79F09000287402F0A37410F012E7
:10852D00BDA87F107E0212B63012AD24EE12B254E9
:10853D007A3E79F012BDA812AD24EF64107003EEEF
:10854D0064027033900000E064027004A3E06410D4
:10855D00601B900100E0FF12C28F7F0112C2B312A7
:10856D00BD817BFF7A3E79FF12BDA8802C12C3031B
:10857D00900100EFF080227BFF7A3F793912BDA880
:10858D007BFF7A3F795412BDA890010074FFF07FF4
:10859D000112B9D5E4FF02A2BA7F087E0012BE1CFB
:1085AD0090010CEFF06004E0FF80027F0112B9D55D
:1085BD0012A3439000FB74FEF012AE9D12BA477FDA
:1085CD0006128CC57F0A12C13512C2057DFF1285B8
:1085DD00FF7D821285FFE4FB7DFF7F8A12BE427B09
:1085ED00FF7DD07F8A12BE427BFF7DD17F8A12BE76
:0185FD00423B
:0985FE00227B017F8A12BE422299
:10B2AE0075F68775F65975BF10E4F5F6758DF4755C
:10B2BE009850758922758855758A40758C407587AA
:10B2CE008075B80275A892D299D2ACF5C8C2CAD20E
:10B2DE00AD75AA5075BAF443A61843AD10C20F75DA
:0FB2EE00DE4243D840F5B175B220F54AF549224A
:03000B00027C0F65
:0B7C0F00C0E0C083C082C0D075D00868
:107C1A00054B900142E0600214F0900142E070339B
:107C2A00E5A05460C4135403FF900148E06F602339
:107C3A00900146E0900145F0900147E0900146F03E
:107C4A00900148E0900147F0A3EFF0D21090014272
:107C5A007430F0E54BD394605003027D620534E53D
:107C6A003470020533754B00052FE52F64646003F9
:107C7A00027D1A90010BE094FF5003E004F0E565E1
:107C8A002401FFE43564FEE43563FDE435628F6563
:107C9A008E648D63F562752F009000F2E0D3940133
:107CAA004003E014F0900172E0D394014003E01421
:107CBA00F0900069E004F090014CE0D39400400396
:107CCA00E014F0301106900141E004F0300406900F
:107CDA000144E004F0900069E0B43C08E4F090004C
:107CEA007CE004F090007CE0B43C08E4F09000886A
:107CFA00E004F0900088E0B41808E4F0900087E00F
:107D0A0004F0E5309001436005E004F08002E4F0FD
:107D1A00E54DF47003E54CF46008054DE54D70023D
:107D2A00054CE5A0F4549C6029E52DB4030DE5A0AB
:107D3A00F4549CF530C20CD20D8013E52DB4640EB8
:107D4A00E5A0F4549CF530D20CD20D752D50052DBA
:087D5A008006752D0075300054
:097D6200D0D0D082D083D0E032F1
:10BFFD00E4F565F564F563F562900100F07F641278
:0EC00D00C135C22112C2D7D2B47F0102C135A3
:10A22F00E4FD7F8A12B963EF24DE601024D9601435
:10A23F00242870197BFF7A3F7964800E7BFF7A3F69
:10A24F00796B80067BFF7A3F797302C11A12A29B4A
:10A25F007A3F797A12BDA812C279EF701B12A29BB6
:10A26F007A3F798D12BDA812A2ADEF60EAE4FD7FAF
:10A27F008A12B963EFF460DF7F6312C13512A2ADAA
:10A28F00E412B2547A3F79A412BDA822E4FD7F8A6A
:10A29F0012B963900028E4F0A3EFF07BFF227F63F5
:0BA2AF0012C135E4FD7F8A12B9632262
:10C01B00EFB4010553E8FE8011EF700743E80153BD
:0EC02B00E8FD22EFB4020643E80143E80222DA
:03001300020026C2
:03002600C2AA3239
:0300230002BAEB33
:10BAEB00C0E0C0D075D00830981EC298AF9974359D
:10BAFB002549F8EFF6744E2549F8A60F0549E54997
:10BB0B00C394144003754900309904C299C20ED0F6
:04BB1B00D0D0E03274
:0300630002BB8657
:10BB8600C0E0C0D075D008E5AA30E01653AAFE740E
:10BB960025252EF8A69A052EE52EC3940840037592
:10BBA6002E00E5AA30E10553AAFDC20FD0D0D0E0A1
:01BBB600325C
:0BC27900E549B54A037F00227F012247
:08000300200EFD8F99D20E22A0
:08C2FB00200FFD8F9AD20F22E3
:03002B0002C1C946
:0FC1C900C0E0C2CF0532E53270020531D0E0325E
:10C13500E52F2FFFE433FE7C007D64124713E52FC6
:07C14500B505FBE4B504F7AA
:01C14C0022D0
:10B83800900025E4F0A3E52FF0E47B3CFAF9F8AF9B
:10B8480065AE64AD63AC621248CEAC00AD01AE0229
:10B85800AF03E47B64FAF9F8124843900025EE8FB1
:0CB86800F012479E900025E0FEA3E0FFD8
:01B8740022B1
:10BF6200C3ED9FEC9E5010C374709FFF74179EFE2A
:0FBF7200EF2DFFEE3CFE22C3ED9FFFEC9EFE2263
:08B51600900025EEF0A3EFF018
:10B51E00900025E07002A3E06035E4900027F0A3D0
:10B52E00F0900027E0FEA3E0FFE4FCFD7BD8FAF9E3
:10B53E00F8D3124960400C900027E475F0011247D1
:0FB54E009E80DE90002574FFF5F012479E80C1AD
:01B55D0022CB
:05608400900018EFF090
:10608900ED4410FDEB4410FBEF64056012E0FF6482
:1060990020600CEF6421600790001BE04410F09031
:1060A900001CE04410F0900018E0124A8B612000B7
:1060B900612201612B026132036138046149056182
:1060C9004C0661550761320861750961750A6120DD
:1060D9000B615E0C61660D61320E61840F61921075
:1060E900619D11619212619D1361381461AB156153
:1060F900221661B51761BE1861221961CB1A61B503
:106109001B612B1C61DF1D61491E612B1F61F6207C
:1061190061DF2100006207801690001DEBF0A3EDFE
:10612900801412B21BA3ED802F12B240ED8018909B
:10613900001DEDF0A3EBF090001BE090001F8025FF
:106149000261EBED12B248F0A3EB802812B240EBEA
:10615900F0A3ED801F12B20EF0A3EB800812B21B60
:10616900A3EBF0A3EDF090001C0261D890001DEDA7
:10617900F012B224F090001B0261D890001CE0A339
:1061890012B212F0A3EB0261E512B240EDF09000F9
:106199001B0261FF12B240EBF090001BE090001F60
:1061A900803A12B20EF090001C0261FFEB12B20F9E
:1061B90012B2268027EB12B248F0A3EDF090001B33
:1061C900800D90001DEBF0ED12B225F090001BE060
:1061D900900020F0802812B21B12B224F0A3EDF037
:1061E900801C12B21B12B24CF0A3ED800D12B21B2F
:1061F900A3EDF090001CE090001FF0A3EBF0E490F9
:106209000021F0900021E0FFC394145011744E2F27
:10621900F8E4F674352FF8E4F6E004F080E5900030
:10622900FBE06403700C90013AE070061262BA0256
:1062390062B7E4900022F01262BA12B838900023D3
:10624900EEF0A3EFF012B838C3900024E09FFF905E
:106259000023E09EFE12C26DC3EF9428EE64809481
:106269008040E2E4900021F0900021E0FFC3941403
:106279005029744E2FF8E664417018E0FB7A002427
:106289000112B22FB4430CEB240212B22FB44B0308
:106299007F0122900021E004F080CD7FC87E0012AA
:1062A900B516900022E004F0E0C3940340897F0012
:1062B90022900018E0FF3395E0FE903FBA75F00395
:1062C900EF1249FAEE75F003A42583F583124A2FDC
:1062D90090001DE0900028F090001EE0900029F049
:1062E90090001FE090002AF0900020E090002BF031
:0462F90012BDA82208
:109F63000D0A2B2B28436C6561724F5344496E666F
:109F73006F293A20446973706C617965644F534467
:109F83003A2532780020000D0A5B4D53475D446942
:109F930073706C6179496E7075742829203D3E2079
:109FA30053656C6563744D6F6465547970653D41A9
:109FB300564D6F646520746F207365742074696DEA
:109FC30065202620646973706C6179686F6C645FC7
:109FD300666C61673D25627800202020545738382D
:109FE3003036202020005465636877656C6C2C49FB
:039FF3006E63009A
:047ADD0041017000F3
:0FC1E70075F011A42477F9748035F0FA7BFF22EC
:0CC24900900170E0FEEFF4FFEE5FF022C9
:07C33B00900170E04FF022B9
:06C34900900170E0FF22EC
:10B1640012C34990001CEFF012C349900028E4F088
:10B17400A3EFF07BFF7A9F796312BDA890001CE0D7
:10B18400FF20E20330E70512BDF6C20790001CE081
:10B1940030E00312C1D890001CE030E40312C14D2A
:10B1A40090001CE030E10312B8EE90001CE030E6A1
:04B1B4000312C205BB
:01B1B8002274
:1093B10090001B74C2F012B1647BFF7A86797E1231
:1093C1009C4A7DFF7FA07E0012BCD47BFF7D327F53
:1093D100A07E0012BBB7E490001AF090001AE0FFE3
:1093E100C394F050197E007BFF7A9F7988900054D6
:1093F1007401F012BB5390001AE004F080DD90017B
:1094010070E04410F012C355EF6401607790001AC8
:109411007401F090001AE0FE75F011908076124907
:10942100FAE4936F600890001AE004F080E5EE1210
:10943100C1E712C0FF900019EFF0A3E012C1E7905D
:109441000019E0900054F07FA07E0012BB537FA36F
:109451007E0012BE1CBF01199000EEE07013900057
:10946100F27405F07BFF7A9F798A900028F012BD93
:10947100A87D017F0212B6747F0112BC7812B83840
:049481008E7A8F7BD5
:0194850022C4
:10C14D00E4FF12BC78E4FD7F0212B674900170E03A
:06C15D0054EFF07F012207
:10961A007DFF1296CF7D821296CFE4FB7DFF7F8A73
:10962A0012BE42900170E020E27C12B1647F0A12FD
:10963A00C1357BFF7A877900129C4A7D327FC87ECA
:10964A000012BCD47B197D377FC87E0012BBB77B62
:10965A00197D737FDD7E0012BBB712C19775F003C7
:10966A00EF900AE61249FA124A2FAE02AF019000B1
:10967A0006EEF0A3EFF07BFF12C0FF900006E0FCBD
:10968A00A3E0AA04F97BFF900054EFF07FC87E00A4
:10969A0012BB537D017F0112B674E4FD7F0412B63A
:1096AA00747F0112BC78301B05900175800390010C
:1096BA0074E0FF129EC8900170E04404F012B838BA
:0496CA008E7A8F7B8A
:1096CE00227B017F8A12BE427F057E0012B51622D2
:0FC1D800E4FD7F0212B674900170E054FEF02275
:109E2C00E4900006F012C349900005EFF0549670D0
:109E3C0003029EC5E030E11512C2E0900001EEF085
:109E4C00A3EFF0A37407F0A374D0F080119000017D
:109E5C00E57AF0A3E57BF0A3E4F0A374C8F012B8A4
:109E6C0038AD07AC06900001E0FEA3E0FF12BF6224
:109E7C00D3900004E09F900003E09E503C900005BE
:109E8C00E05484600D12BDF6900006EFF01293B111
:109E9C00C207900005E030E11D12B8EE900006EF0D
:109EAC00F07FA37E0012BE1CBF01069000F274036B
:0B9EBC00F01293B1C2077F01227F006B
:019EC7002278
:10BDF600900170E030E20A7F0112BE1254FBF0801F
:10BE0600087F0212BE12547FF07F0122E4FD12B6B3
:06BE160074900170E022AF
:10AD2400E4FFFE12BE1CEF6454600280287F017EA3
:10AD34000012BE1CEF64576002801A7F027E00126C
:10AD4400BE1CEF64386002800C7F037E0012BE1CC0
:10AD5400EF64386004E4FEFF227F047E0012BE1C10
:10AD6400EF900002F0A3E4F07F05FE12BE1C9000F9
:10AD740002E0FEA3E04FFF900002EEF0FEA3EFF02E
:01AD840022AC
:10B63000900002EEF0A3EFF07D54E4FFFE12B55E41
:10B640007D577F017E0012B55E7D387F027E00123D
:10B65000B55E7D387F037E0012B55E900002E0FD8E
:10B660007F047E0012B55E900002A3E0FD7F057EA0
:04B670000002B55EC1
:08C303007F067E0012BE1C2221
:09C28F00AD077F067E0002B55EDA
:08C30B007F097E0012BE1C2216
:09C29800AD077F097E0002B55ECE
:07C313007F0A7E0012BE1C30
:01C31A002200
:10A34300E4900003F0900002F0900002E075F01139
:10A353009080CB1249FAE493124A8BA37A00A38626
:10A3630001A38F02A39803A3A104A3AA05A3B30681
:10A37300A3BC070000A3C3900003E0FD7F0A7E0097
:10A3830002B55E900003E04401F08034900003E0E6
:10A393004402F0802B900003E04404F080229000FC
:10A3A30003E04408F08019900003E04410F08010AB
:10A3B300900003E04420F08007900003E04440F065
:08A3C300900002E004F080812B
:07C31B007F0D7E0012BE1C25
:01C3220022F8
:09C2A100AD077F0D7E0002B55EC1
:0AC28400EF2412FFE433FE12BE1C8B
:01C28E00228D
:09C2AA00EF2412FF7E0002B55ED4
:09C2B300AD077F0F7E0002B55EAD
:07C323007F0C7E0012BE1C1E
:01C32A0022F0
:09C2BC00AD077F0C7E0002B55EA7
:08C32B007F387E0012BE1C22C7
:09C2C500AD077F387E0002B55E72
:08C333007F377E0012BE1C22C0
:09C2CE00AD077F377E0002B55E6A
:10BD8100E4FD7FADFE12B55EE4900102F0FD7F0897
:10BD9100FE12B55EE4FD7F0EFE12B55E126BFA1265
:07BDA100AC5B7F01028DA7DE
:10C039009291D290120012C29022124A068E8275F3
:0EC0490083001246C2FF22EFF0A3EDF0A32207
:0BB55E00900028EEF0A3EFF0A3EDF04A
:10B56900900028E0FEA3E07807CEC313CE13D8F9E4
:10B5790044A054FE90002BF012C16390002BE0FF11
:10B5890012AB23900028A3E0FF12AB2390002AE01E
:0CB59900FF12AB231200167F0202C13526
:04BE1C00AD07AC06BC
:10BE2000ED7807CEC313CE13D8F944A054FEFF1209
:10BE3000B963900033EFF07F0212C135900033E018
:01BE4000FF02
:01BE410022DE
:08B96300900034EFF0A3EDF0B9
:10B96B0012C163900034E0FF12AB23900035E0FF6F
:10B97B0012AB2312C163900034E04401FF12AB23DE
:10B98B0012BBE8900036EFF0120016900036E0FF85
:01B99B002289
:10BE420090005512C050EBF012C163900055E0FF14
:10BE520012AB23900056E0FF12AB23900057E0FF95
:06BE620012AB23020016E2
:08B7FA0090003412C050EBF086
:10B8020012C163900034E0FF12AB23900035E0FFD9
:10B8120012AB23E4900038F0900037E0FFA3E0C3BE
:10B822009F5010900036E0FF12AB23900038E004E6
:06B83200F080E5020016A3
:09B6FA0090005512C050124A26BE
:10B7030012C163900055E0FF12AB23900056E0FF97
:10B7130012AB23E490005BF090005AE0FFA3E0FE3D
:10B72300C39F501190005712C04312AB2390005B8C
:08B73300E004F080E3020016BF
:09B99C00900021EFF0A3124A26ED
:10B9A50012C163900021E0FF12AB23E4900026F062
:10B9B500900025E0FFA3E0FEC39F501190002212E6
:10B9C500C04312AB23900026E004F080E30200168A
:0100120022CB
:10C16300D291120012D290120012C291120012C286
:02C17300902218
:0D001600C291120012D290120012D291225B
:10AB2300C290EF30E703D38001C312C039EF30E6A0
:10AB330003D38001C312C039EF30E503D38001C3CF
:10AB430012C039EF30E403D38001C312C039EF30B0
:10AB5300E303D38001C312C039EF30E203D3800192
:10AB6300C312C039EF30E103D38001C312C039EF00
:10AB730030E003D38001C312C039C290C290D29196
:09AB8300D290D290D290C290222F
:10BBE800E4FFD291120012C290FDFCD290EF25E042
:10BBF800FF3091034401FFC2900DBD00010CED64BC
:0FBC0800084C70E7120012D290D290D290C290E6
:01BC1700220A
:106DE7000D0A504F52000D0A4D454E55000D0A49E8
:106DF7004E000D0A5550000D0A444E000D0A53452A
:106E07004C000D0A4552524F52000D0A504F57453C
:106E170052206B657920000A0D6275737720302048
:106E2700312037452038300D0A000A0D6275737717
:106E3700203020312037452038310D0A000A0D62F5
:106E4700757377203020312037452038320D0A00FE
:106E57000A0D62757377203020312037452038338B
:106E67000D0A000A0D6275737720302031203745EF
:106E77002038340D0A000A0D6275737720302031EF
:106E87002037452038350D0A000A0D6275737720C3
:106E97003020312037452038360D0A000A0D62753B
:106EA7007377203020312037452038370D0A000A04
:106EB7000D62757377203020312037452038380D23
:106EC7000A000A0D6275737720302031203745207C
:106ED70038390D0A000A0D6275737720302031208A
:106EE70037452038410D0A000A0D62757377203047
:106EF70020312037452038420D0A000A0D6275738C
:106F070077203020312037452038430D0A000A0DFD
:106F170062757377203020312037452038440D0AB9
:106F2700000A0D62757377203020312037452038ED
:106F3700450D0A000A0D627573772030203120371E
:106F4700452038460D0A0054726967676572466CBA
:106F570061673D2530327820205072696F726974FD
:106F6700793D25303278000D0A4D454E554B455930
:106F7700206B657920000D4F53445F4C4F434B0006
:106F87000D0A4556454E544B4559206B657920707F
:106F9700726573736564000D0A5B4D53475D436803
:106FA70065636B4B6579496E28293D3E20497352CD
:106FB700756E32383335436C6B54756E653D25629B
:046FC700780020200E
:107AE10041014A0041014F0041014D0041014B005C
:107AF10041014E004101500041014900C116017090
:037B010000C118A8
:10C17500E5A0F454906490227C007D0AAE0202474B
:01C1850013A6
:0EC2140012C349EF30E10302002E12BB1F22BD
:0DC2220012C349EF30E1057F011271862241
:0DC22F0012C349EF30E1057F021271862233
:10C0C90012C349EF30E10B3020057F010282A5023E
:0BC0D900766A7F0112881812961A2266
:10C0E40012C349EF30E10B3020057F020282A50222
:0BC0F400002E7FFF12881812961A22FF
:1091FE00900004EFF0A3EDF012C255900004E012BF
:10920E004A8B928200928201928202928203928211
:10921E0004928205928206928207928208928209B5
:10922E0092530C92A81092AD1192931592C0169271
:10923E008920928E2192673892703A92CE3E92B2E7
:10924E003F000092D574FF900108F0A3F090000546
:10925E00E060037F01227F002212BF811296DE7F23
:10926E00012212C349EF30E40512C14D800312935F
:10927E00B17F0122900005E07F012212C2228047B9
:10928E0012C22F8042900005E060037F012212C3BC
:10929E0049EF30E13212766A802D12C0C980281251
:1092AE00C0E48023900005E060037F012212C21407
:1092BE00801512C349EF30E10E7FF41292D8800769
:0A92CE007D017FC0122DE07F012218
:104AEB009000017401F0301826201623C3E565955C
:104AFB0074FFE5649573FEE5639572FDE562957150
:104B0B00FCE47B0AFAF9F8D31249605002C2187F11
:104B1B000112B007900002EFF07003024F60E02427
:104B2B00F8601C24F8602024F0602424E060282422
:104B3B00C0602C247C70307BFF7A6D79E7802E7BF4
:104B4B00FF7A6D79ED80267BFF7A6D79F4801E7B81
:104B5B00FF7A6D79F980167BFF7A6D79FE800E7B7B
:104B6B00FF7A6E790380067BFF7A6E790912BDA8F6
:104B7B007FAC7E0012BE1C900003EFF012C175706B
:104B8B0053E070507FD07E0712B51612C1756008C6
:104B9B0090014FE06403703C7D017FAC7E0012B549
:104BAB005E9000037401F0FF128CC5E4900002F0DC
:104BBB007FD07E0712B51690013AE030E5051289D9
:104BCB0015800F12C205E490014CF090014FF012CA
:104BDB0093B1C20790013AE0600C900002E06410C0
:104BEB006004E4024E1990014CE07013900003E056
:104BFB00700D90014FE06007E4F07F0112C01B9035
:104C0B000002E0601BA3E0701712C17560129001E7
:104C1B003AE0700C12B164E4124F89C2077F012293
:104C2B0012C255900002E0124A8B4EE8024C54041B
:104C3B004D77084F330C4E40104DD6204DF3404E60
:104C4B0022804EF09000004F607BFF7A6E7911123C
:104C5B00BDA8201603024D2AE570C3940F4005E44E
:104C6B00F57080020570E570124A8B4CAF014CB7A2
:104C7B00024CBF034CC7044CCF054CD7064CDF0787
:104C8B004CE7084CEF094CF70A4CFF0B4D070C4D4A
:104C9B000F0D4D170E4D1F0F00004CA77BFF7A6EAB
:104CAB00791E80767BFF7A6E7931806E7BFF7A6E10
:104CBB00794480667BFF7A6E7957805E7BFF7A6ED4
:104CCB00796A80567BFF7A6E797D804E7BFF7A6E98
:104CDB00799080467BFF7A6E79A3803E7BFF7A6E5C
:104CEB0079B680367BFF7A6E79C9802E7BFF7A6E20
:104CFB0079DC80267BFF7A6E79EF801E7BFF7A6FE3
:104D0B00790280167BFF7A6F7915800E7BFF7A6FA5
:104D1B00792880067BFF7A6F793B12C11A80597B09
:104D2B00FF7A6F794E90013AE0FF900028E4F0A3F0
:104D3B00EFF0900102E0FF90002AE4F0A3EFF012F5
:104D4B00BDA820122390013AE06003024F60FD7F63
:104D5B000C1291FE900001EFF0E49000EDF0FD7F5E
:104D6B00ABFE12B55E024F60C212804B7BFF7A6FB7
:104D7B00796E12BDA830160AAF707E0012A6E7023C
:104D8B004F60201241900003E0700D124F897BFFA2
:104D9B007A6F797DE4024F2A12C349EF30E10B3071
:104DAB002002801912766A024F6012C349EF30E27B
:104DBB000C12B16412B8EE1293B1024F607F3F1226
:104DCB004F7FF0024F607F09024EE020121512C395
:104DDB0049EF30E1077F01302023801B7F10124FFA
:104DEB007F802B7F06024EE020122712C349EF3043
:104DFB00E1117F023020061282A5024F60127186EC
:104E0B00024F60E4FD7F111291FE900001EFF07FE5
:104E1B0001227F07024EE02012169000EEE0700A8E
:104E2B0012C349EF30E10312B8EE12A086024F60B5
:104E3B007F05024EE090013AE0FF6009900102E02D
:104E4B007003024F60EF604690014EE0704090019E
:104E5B0002E0640170387FACFE12BE1CEF6401608F
:104E6B0003024F6090013AE030E50312C205900156
:104E7B004E7401F0900149E07008900138E0900108
:104E8B0050F09001497401F0900138F0803F2012EE
:104E9B004290014EE06017E490013AF090013C74AF
:104EAB0007F0E490014EF0900138F0024F60900053
:104EBB00EEE0700A12C349EF30E10312B8EE900135
:104ECB0038E0700404F08005E4900138F012AF5321
:104EDB00024F607F041269EED217024F607BFF7A9C
:104EEB006F7987803E900174E064147068301865A8
:104EFB00301614C2167F0112C01B7D027FA07E00EC
:104F0B0012BCD4C218800ED2167F0212C01BAF7017
:104F1B007E0012A6E77BFF7A6F799EA216E4339090
:104F2B000028F012BDA8802D900174E06417702545
:104F3B007F0212C01B7F647E0012B516124F6612E1
:104F4B004F667F0112C01BD218856574856473850B
:0A4F5B006372856271900001E0FFAF
:104F6500227F0112C01B7F647E0012B5167F0212DC
:104F7500C01B7F647E0012B51622E4FD1291FE90DF
:104F85000001EF22FF128CC57FF412C13512C20554
:044F95001293B122A0
:10B00700A20D9221C20D30103AE5307036D2219050
:10B017000145E0FEB40313A3E0B4020EA3E0700AF7
:10B02700A3E0B401057530408017EEB40313900117
:10B0370046E0B4010CA3E07008A3E0B40203753046
:10B0470020C2102021037F0022EF6003AF302220AF
:07B057000C03AF30227F0063
:01B05E0022CF
:08A6E700900004EEF0A3EFF077
:10A6EF0078067C007D017BFF7A6F79C97E007F023F
:10A6FF00124683900004E0FAA3E0FBFF12C17DED48
:10A70F002430900007F0AF0312C17D900004EEF0EB
:10A71F00A3EFF02430A3F07BFF7A8679B6129C4A20
:10A72F007F1012C33B7D027FA07E0012BCD47B0240
:10A73F007D377FA07E0012BBB77B017A0079069030
:10A74F0000547402F07FA07E0012BB537D017F0284
:08A75F0012B6747F0102BC7800
:108016000D0A43485F5457323833352825303278B5
:10802600292C526561644465636F646572283078F3
:108036003636293D256278000D0A2043485F4156B1
:108046002825303278290020200A0D000A0D627595
:10805600737720302031203745203839000A0D62E9
:10806600757377203020312037452038390D0A00C6
:10807600FE000000000000000000000000000000FC
:1080860000014356425300000000000000000000BB
:1080960000000243414D20440000000000000000A3
:1080A60000000003415620200000000000000000F0
:1080B60000000000000000000000000000000000BA
:1080C6000000000000FE00000000000000000000AC
:1080D600000000000000014E545343000000000061
:1080E600000000000000000250414C0000000000AB
:1080F600000000000000000003534543414D00000E
:108106000000000000000000000550414C4D00003A
:10811600000000000000000000000650414C4E0028
:1081260000000000000000000000000750414C362F
:10813600300000000000000000000000044E545310
:1081460043342E343300000000000000000000001D
:0E81560000000000000000000000000000001B
:107B0400C10BC104C1024100F500011D004400F68F
:107B140000000000440103000000004100EF0041A8
:107B240000EA00C185011F000113000111000112C8
:107B340000011E00011500011400011A004100FE9D
:107B4400004100EB004100F1004100FC004100F461
:107B540000C1004100FD00C106C101C183C107C1CC
:017B64000A16
:10B5A50074F62FF582E43400F58322EF75F011A4CB
:10B5B5002476F582E43480F583E49322F074032F36
:10B5C500F582E43401F583229000010246C2E4FBD2
:10B5D5007DFF7F8A22E4F51BF51CF519F5182290ED
:06B5E500001CE004F0224E
:06B2FD0090001F124A261A
:10B30300E4FE1246A9900022F012B5CD80299000E8
:10B313001F124A061246A9FFB4FF0612B5CDF46008
:10B3230022900023EFF0FD12B5CD900024F0FB90A6
:10B333000022E0FF12BE42900020E475F0021247A3
:09B343009E80CB12B5D302BE427C
:10A5E40090001EEFF07BFF7A5D79E412B2FD12B5A4
:10A5F400D312BE4290001EE024FE601314601024A7
:10A60400FD600C240624F85011240A600D80117B8F
:10A61400FF7A5F793412B2FD800690001E7401F057
:10A624009000FBE0B4051390010CE07002800B90E5
:10A63400001EE014FF12C074800312BF427B157D1C
:10A64400297F8A12BE427B067D5C7F8A12BE427FCE
:10A654000B7E0012BE1C128AFA12C30B128DA7C203
:02A664002322AF
:10C186007D017F8A12B963EF30E7037F01227F00CA
:01C196002286
:10955500E490001BF0A3F09000FBE0B40509900136
:109565000CE06003029608E4900019F012B10E9029
:10957500001AEFF090001CE004F0E0C3940A4003E9
:1095850002960890001AE0FF64FE60E09000F0E0AB
:10959500FEEF6E60D7900019E0FFA3E0FEB5070669
:1095A500A3E004F0800AE490001BF0900019EEF0AF
:1095B50090001BE0C3940240B390001AE0FF700BCB
:1095C50012B9D590001D7401F080309000F0E07064
:1095D500119000EEE0700630070312C205129609DD
:1095E50080149000EEE0700630070312C205129653
:1095F500097F3212C135E490001DF090001DE02472
:03960500FF920AC7
:109608002290001AE0FF12B9D590001AE0FF12A5C7
:02961800E4224A
:10BF1F0012C186EF60037F01227D1C7F8A12B963F5
:10BF2F00EF54F0FF30E7037F0122EF5470C4540F3A
:02BF3F0004FFFD
:01BF410022DD
:10AFAE0012BF1FAB07EB24FE601914601624FD6060
:10AFBE0012240224FC500424077017751B00751C04
:10AFCE003C8006751B00751C32E475196B75183DB7
:10AFDE00800312B5DAF517F516E4FFEF75F011A43C
:10AFEE0024CBF582E43480F583E493FEB50301228D
:08AFFE00EE60030F80E57F0007
:01B006002227
:06C34F009000F0E0FF2267
:10B9D5009000F0EFF024FE601914601624FD60124B
:10B9E500240224FC500424077017751B00751C3CA9
:10B9F5008006751B00751C32E475196B75183D8042
:09BA05000312B5DAF517F516225B
:06C355009000FBE0FF2256
:10BF81007F0112B5B0FE9000FBE0FDEE6D60030F86
:0EBF910080F00F12B5B070027F0112B5B0FF44
:01BF9F00227F
:09C2D700302103D2B722C2B722C4
:1096DE00900018EFF09000FBE06F700302979090EF
:1096EE00013FE0B4010543E804800312B92990005C
:1096FE0018E09000FBF09000F0E0FF12A5E490005F
:10970E00FBE024FD60202402703A12BEB312979142
:10971E00C2957D667F8A12B96390002AEFF07BFFB7
:10972E007A807916800E12BED7129791D2957BFF52
:10973E007A80793E9000FBE0FF900028E4F0A3EFE2
:10974E00F012BDA812B05F9000FBE0FF12C2B37F13
:10975E001E12C1351295551293B190013FE0B4011E
:10976E000553E8FB8005E4FF12A2BA7F6412C135EF
:10977E007BFF7DD07F8A12BE427BFF7DD17F8A1216
:0D978E00BE4222C21BE4FF128818C29422C2
:0DC23C00C22112C2F243E804E4FF02C01B5D
:0CC2550012B838900108EEF0A3EFF022C0
:09C2E000900108E0FEA3E0FF223A
:108E8800C374FF9FFFC39400400CEF94645007E441
:108E9800900002F0804BEFC39464400DEF948C5027
:108EA800089000027414F08038EFC3948C400DEFE2
:108EB80094B450089000027428F08025EFC394B44D
:108EC800400DEF94DC5008900002743CF08012EFE3
:108ED800C394DC400CEFD394FF5006900002744B0F
:108EE800F090014BE0702C9000F5E0C3940F500512
:108EF800E004F08024900002E0FFE51DD39F4004C9
:108F0800151D8008E51DC39F5002051DE49000F55E
:108F1800F08006900002E0F51D7DFF7F8A12B9639C
:108F2800900001EFF012B5D312BE427DBE7F8A12C7
:108F3800B963EF54CF4410FB7DBE7F8A12BE427DD9
:108F4800C47F8A12B963EF5480451DFB7DC47F8AB4
:0F8F580012BE42900001E0FB7DFF7F8A02BE4205
:10C1B900E490013EF090010BF090013C7408F022EC
:108713007FAB7E0012BE1C9000EDEFF07FB07E00B9
:1087230012BE1C9000EEEFF07FAA7E0012BE1C90DA
:108733000134EFF07FAD7E0012BE1C900102EFF01A
:108743007FA07E0012BE1C90014BEFF07FB87E002D
:1087530012BE1C9000FFEFF07FB77E0012BE1C908C
:1087630000FAEFF07FB97E0012BE1C9000ECEFF030
:108773007FBF7E0012BE1CEF24FF92097FC57E00DF
:1087830012BE1C900101EFF07FAF7E0012BE1C9061
:108793000138EFF07FA5128810EE9001357006E0E6
:1087A3004401F08004E0540EF07FA6128810EE908E
:1087B30001367006E04401F08004E0540EF07FA718
:1087C3007E0012BE1CAE07EE9001377006E0440136
:1087D300F08004E0540EF07FA87E0012BE1CAE07AA
:1087E300EF9001397006E04401F08004E0540EF08C
:1087F30012C32B900174EFF012C333900175EFF0A5
:0C8803007FB27E0012BE1C9000F3EFF06C
:09880F00227E0012BE1CAE0722FD
:1074E7007BFF7A80794D12C11A9000EEE070491245
:1074F700C349EF20E142300A2920073CD207E49034
:1075070000F2F07FA3FE12BE1CEF7009900170E03D
:1075170054EFF080069000F27403F07F06128CC5DA
:10752700801630071312C349EF20E60CC2077FA36A
:107537007E0012BE1C1293B11262FD900000EFF0A4
:1075470012657690013AE0701B90013EE06015905D
:107557000134E0FF90010BE0C39F400812BE8EE4A8
:1075670090010BF090014BE0700E7DC97F8A12B934
:1075770063900000EFF080027FFF128E88124AEBC3
:10758700EF70030276699000F2E06401707312C332
:1075970049EF20E16C12C349EF20E2657FA37E002B
:1075A70012BE1CEF605B90013AE070509000EEE075
:1075B700700FFD7F0212B674900170E054EFF080F7
:1075C7003B900135E0540DF0900136E0540DF090FA
:1075D7000137E0540DF0900139E0540DF012ACC1C1
:1075E700900135E04402F0900136E04402F090014A
:1075F70037E04402F0900139E04402F0E49000F2F1
:10760700F0129E2C12C355EF1424FD5002800A126B
:10761700C349EF20E103129555900172E0B40105CB
:1076270053E8FBE4F0900172E0B4020343E8087DFD
:10763700B27F8A12B963EF60030274F07BB07DFDFD
:107647007F8A12BE42E4FF12C01B7FF47E0112B58F
:10765700167F0112C01B7B307DFD7F8A12BE42025E
:0276670074F0BD
:0176690022FE
:10AE4100C2B5C22112C2F27F0A7E0012B516C2B487
:10AE510012B2AE7F0112C01B12BFFD12C1B912A204
:10AE61002F1284ED7F0A7E0012B51612871390010E
:10AE710038E0900150F07FA97E0012BE1C12B3E7AA
:10AE8100E490013AF07BFF7A80795212C11A900066
:0CAE9100EDE060031274E712A3CB80F226
:10A3CB00E4900002F01262FD900001EFF0601BE0E0
:10A3DB00FF12657690013CE0B40803D38001C340C3
:10A3EB00197F0112A2BAD221800D900001E0FF1259
:10A3FB00657612C23CC22112C2F2E4FF12B0079082
:10A40B000000EFF060BFE0B404BB1262FDEF70B56B
:10A41B009000ED04F0FD7FAB7E0012B55E1293B1A0
:10A42B0012ACC17FA37E0012BE1CBF01069000F2CE
:10A43B007403F0C2077F0112A2BAD22112C2F27BBF
:08A44B00FF7A80796302C11A57
:10816400900102E0600A640170359000EAE0702F2B
:108174003005030282A4D205E490001CF090001C98
:10818400E0FFC39404500E12B5A5E412B5C1E4F0A7
:1081940012B5E480E8E49000EFF09000EAF022C227
:1081A400059000EAE0FF9000EFE0FED39F406AEE06
:1081B4009F90001DF0E490001CF090001DE0FF90E3
:1081C400001CE0C39F504AE4FF12B5C2E0FE12B5A2
:1081D400A5E06E600B90001EEE12B5C1E4F08005C0
:1081E4000FEFB404E4E4FF12B5A5E0FE90001EE036
:1081F400FDEED39D401012B5A5E014F012B5A5E034
:10820400FE12B5C2EEF00FEFB404DC12B5E4028145
:10821400BE9000EAE09000EFF09000EFE090001DC7
:10822400F0A37405F0E490001CF090001CE0FFC380
:108234009404502812B5A5E0FF90001DE0FEEFB5B0
:10824400061590001CE0FF90001EF0EEB4010DEF47
:10825400049000FDF0800512B5E480CE7F0112C1C8
:108264003590001EE014600D14600F146014240394
:108274007025E48025E4F5148022E4F514F515C294
:108284001922E4F514F515F51A9000EBE064066084
:108294000FE49000F4F022E4F514F515F51AC21970
:0182A40022B7
:10860700A10AA20AA000A310A410A591A601A70180
:10861700A822A910AA00AB62119E00000100CC0C91
:1086270002700000005000000F4000119E30310022
:10863700AFC81202F1100800500030004000119E30
:108647003100029000040170000000A0F5000F4007
:1086570000119E3100029000030170000000F0F548
:10866700000F4000119E3230000C0D0A01B10404C6
:108677000050C800044000119E313000160D0F0253
:108687003101000050A0000840119E3330100C98B3
:1086970028013101000000B400084000119E31306C
:1086A700000C020F023101000050A0000840001129
:1086B7009E3130000A0502013101000050A0000878
:1086C7004000119E32300040090204B1000890E0DA
:1086D70000043340119E3130008A091808B08A051A
:1086E700B05026083340119E30B40040270201F1F4
:1086F700000000E0000033C100119E303C10906084
:0C8707001502F102044050C80036C10009
:10A45300900051FFE475F001124A0FEF0246EF90AE
:10A46300004FE0FEA3E0FF22EF14FB7D9E7F8A22D4
:10A4730090001C124A0690001FE0F58275830002CB
:10A4830046C2E0A4FFA3E5F0F0A3EFF07DA07F8A2E
:10A493002290005BE0FCA3E0FD22EEF0A3EFF0A32B
:10A4A30022124713900059EEF0A3EFF04E22A3E0DF
:10A4B300FB7D967F8A2212471390004FECF0A3EDA9
:10A4C300F022F07B047D947F8A22EDF0EFC39401A8
:08A4D30022E4FB7D947F8A2244
:10BCA70012BCC9900028F0E4A3F012BCC9FF9000B1
:10BCB70028E06F700C900029E004F0E0C3940A407C
:01BCC700E993
:0CBCC800227D957F8A12B963EF54402260
:10AE9D00E490000EF0E490000DF090000DE0FFC383
:10AEAD009408502FA3E075F008A4FEEF2E7D9C12A0
:10AEBD00AEEDFFA3E075F0089018EE1249FAE582A9
:10AECD002FF582E43583F583E4937D9D12AEED0479
:0FAEDD00F080C790000EE004F0E0C3940240B68E
:0CAEEC0022FB7F8A12BE4290000DE02283
:10AD8500900003EFF0A3124A2612ADD344017D943F
:10AD950012ADDC900003E07D9912ADDC7DE07F8A89
:10ADA50012B963EF4410FB7DE07F8A12BE4290002A
:10ADB50004124A0690005A741BF07D9A7F8A12B6D7
:10ADC500FA12ADD354FEFB7D947F8A02BE427D9478
:0EADD5007F8A12B963EF22FB7F8A12BE4222F0
:10BA47007B607D9B7F8A12BE42E4900002F09000EB
:10BA570002E0FFC394E2501FEF94C6501AEF75F04F
:10BA67001BA424FEF9741835F0FA7BFF12AD8590FC
:07BA77000002E004F080D79B
:01BA7E0022A5
:03B77C0090001525
:10B77F0012A4CD4036EFD39408503012A46B12BEF2
:10B78F004290001575F00812A48512B963EF54F0BA
:10B79F00FD900016E04DFB7DA07F8A12BE42900007
:0BB7AF0016A3E0FB7DA17F8A12BE42C2
:01B7BA00226C
:03B6B800900015EA
:10B6BB0012A4CD4039EFD39408503312A46B12BEB1
:10B6CB004290001575F00412A48512B963EF540F64
:10B6DB00FD900016E0C454F04DFB7DA07F8A12BE96
:0EB6EB0042900016A3E0FB7DA27F8A12BE42B1
:01B6F900222E
:05BC780090001EEFF03A
:10BC7D0012BCA77D9C7F8A12B96390001FEFF090D4
:10BC8D00001EE06006A3E054EF800690001FE04424
:09BC9D0010FB7D9C7F8A12BE425F
:01BCA600227B
:03B6740090001E25
:10B6770012A4CD403BEFD39408503512A46B12BEF1
:10B68700427D9F7F8A12B96390001FEFF090001EE2
:10B69700E06007A3E04401F0800790001FE054FE3C
:10B6A700F012BCA790001FE0FB7D9F7F8A12BE426D
:01B6B7002270
:10B48000EFC394014006EFD394084004E4FEFF228A
:10B4900012A46B12BE427DA07F8A12B963EF540FD3
:10B4A000900028F0A3E4F07DA17F8A12B963900098
:10B4B00028E0F0A3E04FF0900028E0FEA3E078033E
:0AB4C000CEC313CE13D8F9FF7E00AF
:01B4CA00225F
:10B0B700EFC394014006EFD394084004E4FEFF2257
:10B0C70012A46B12BE427DA07F8A12B963EF54F0BF
:10B0D700C4F8540FC868FEE4C454F048900028F040
:10B0E700A3CEF07DA27F8A12B963900028E0F0A377
:10B0F700E04FF0900028E0FEA3E07802CEC313CE25
:06B1070013D8F9FF7E00E1
:01B10D00221F
:10BB530090004F12A49D124A2612A4C612BE429010
:10BB6300004F12A4B112BE42900051124A06900037
:10BB730054E090005AF07D977F8A12B6FA12A4D44B
:03BB830002BE42BD
:10BBB70090003012A49DEDF0A3EB12A4C512BE4273
:10BBC70090003012A4B112BE42900032E0FBA3E015
:10BBD700900037F07D987F8A12B7FA12A4D402BE7C
:01BBE700421B
:10BCD40090003012A49DED12A4C512BE4290003013
:10BCE40012A4B112BE42900032E0900037F07B20E3
:0DBCF4007D977F8A12B7FA12A4D402BE42D7
:0983CC0090004F12A49D124A26F4
:1083D500900056124A26E4900055F0900054E0644F
:1083E5000A707990005B7427F0A37410F012A494BE
:1083F500C3940AEC9400405612A46212A4A460121D
:10840500900059A3E0243012A453900055E004F0E5
:108415008015900055E0600F900051E475F0011251
:108425004A0F74301246EF12A46290005BE0FAA383
:10843500E0FBFDAC0212A4B97D0A7C00AF03AE02DD
:1084450012471390005BEEF0A3EFF00283F2900069
:108455004FA3E02430A312A4560284E0900054E018
:10846500641060030284EA90005B7410F0A3E4F0EA
:1084750012A494C39410EC9400404412A46212A474
:10848500A46028900059E0FEA3E0FFC3940AEE948F
:10849500004005EF24378007900059A3E0243012EF
:1084A500A45312A46212A49412A4B990005BE0C470
:1084B500F854F0C868F0A3E0C4540F48F080B11236
:1084C500A462C3940AEE94004005EF243780079018
:1084D500004FA3E02430FFA312A457900051124A85
:0784E50006E41246EF7F01DF
:0184EC00226D
:06C0FF0090004F124A26DA
:10C10500E4FF90004FE475F001124A0F1246A96052
:04C11500030F80EEA6
:01C119002203
:069C4A0090001C124A26E6
:109C50007DFF7F8A12B963900020EFF054FEFB7DF8
:109C6000FF7F8A12BE427DE07F8A12B963EF54EF14
:109C7000129CD9E490001FF012A473FF6042900080
:109C80001FE02401FDE433FC90001C124A06E92D7C
:109C9000F9EA3CFAEF129CE290001FE02401FFE495
:109CA00033FE90001C124A06E92FF9EA3EFA7405C9
:109CB000129CE212A47304FF90001FE02FF080B802
:109CC0007DE07F8A12B963EF4410129CD990002086
:099CD000E0FB7DFF7F8A02BE4229
:109CD900FB7DE07F8A12BE4222900025F07F8A1226
:039CE900B99C2201
:100066000A0D6D6F646520300A0D000D0A5B4D5355
:10007600475D536574345769646553637265656E8D
:100086002829203D3E2053637265656E20746F20DB
:10009600343A33202121000A0D6D6F646520320A3F
:1000A6000D000D0A2B2B284F5344486967684D6590
:1000B6006E755F73756229204F53444D656E754C9E
:1000C6006576656C3A2564000D0A52455345545FC2
:1000D6004D6F6E69746F7256414C5545000A0D7925
:1000E600766D697820340A0D000A0D79766D697887
:1000F60020300A0D000A0D79766D697820310A0DD7
:10010600000A0D79766D697820320A0D000A0D799C
:10011600766D697820330A0D00436865636B205657
:100126004741204361626C65004F7574204F66201D
:1001360052616E676500FE62596B62714C2F713AAF
:1001460034FF001213566F6C756D65002020204138
:1001560075746F2041646A757374696E67202E2EFC
:100166002E2E20202000436F6D706F73697465001A
:1001760056657273696F6E004C4344205665727300
:10018600696F6E004456522056657273696F6E0031
:10019600574946492049500057494649204D414351
:1001A6000047415445574159004F534420506F73FF
:1001B6006974696F6E004F534420506F73696369A9
:1001C6005F6E004F534420FE5465714667FF004C36
:1001D600616E6775616765004C616E677565005392
:1001E600707261636865004964696F6D6100FE57EE
:1001F60056714667FF004272696768746E6573736D
:10020600004C756D696E6F7369745F0048656C6C40
:1002160069676B656974004272696C6C6F00FE40B9
:1002260024715F60FF00436F6E74726173740043E4
:100236006F6E747261737465004B6F6E7472617366
:100246007400436F6E74726173746500FE394F718A
:100256005F60FF0053617475726174696F6E00535D
:10026600AA74746967756E67005361747572616309
:10027600695F6E00FE4A2C33715F60FF004875654A
:1002860000546F6E616C69745C0046617262650051
:10029600546F6E616C6964616400FE4A5448715F14
:1002A60060FF0053686172706E6573730041637519
:1002B60069745C00536368AA726665004167756479
:1002C600657A6100FE463933715F60FF00526573DF
:1002D600657400445C66617574004772756E64658A
:1002E600696E7374656C75670050726564657465D4
:1002F600726D696E6163695F6E00FE66246DFF0054
:10030600576964652053637265656E0057494445B5
:1003160020FE6D3B714667FF004D6972726F720079
:100326004A756D70005345512054696D65205374AC
:100336006570004A756D702041560043616D204F0F
:1003460075740052657475726E00526563616C6CEB
:10035600004D6F6E69746F7220526563616C6C003C
:1003660044565220526563616C6C0045786974008E
:1003760020007665722041302E30390054696D6553
:100386004F757420536574757000476175676520F5
:1003960053657475700047617567652052656361C2
:1003A6006C6C005052494F5249545900526576655B
:1003B6007273204D6F6465005265736F6C75746956
:1003C6006F6E00465053005175616C697479005226
:1003D60065636F7264204D6F6465005265636F726A
:1003E60064204C656E677468005072652D616C619F
:1003F600726D00506F73742D7265636F7264004185
:1004060070706C79005265636F72645374617274B4
:10041600005265636F726453746F7000536E61703F
:1004260073686F7400446174652054696D65005982
:10043600656172004D6F6E74680044617900486FA3
:100446007572004D696E00536563004461796C698D
:10045600676874536176696E6700426567696E65A1
:1004660000456E64005765656B0054696D65005400
:10047600696D65205A6F6E650052657475726E26D9
:100486004170706C7900466F726D61742053442020
:100496004361726400417564696F205265636F72CF
:1004A60064004669726D7761726520557064617487
:1004B6006500596573004E6F004669727374204E6D
:1004C600756D626572005365636F6E64204E756D5F
:1004D600626572005468697264204E756D62657259
:1004E60000466F75727468204E756D6265720043C2
:1004F60068616E67652050617373776F7264004F31
:1005060076657257726974650044697220496D6137
:1005160067650054726967676572205647410054E3
:100526007269676765722044656C617900496E6619
:100536006F726D6174696F6E0055706461746520C9
:10054600436F6E66696700534420636F7665722059
:100556004465742E0043414D20410043414D2042E5
:100566000043414D20430043414D205200446973EE
:10057600706C61790044565220446973706C6179DD
:100586000044697374616E63652047617567650031
:100596004F5344204C6F636B0050617373776F72D7
:1005A6006400536F75726365205469746C6500430B
:1005B600564253204100435642532042004356427E
:1005C60053204300435642532052004175746F2016
:1005D600446179264E696768740044697220496DE2
:1005E6006167650044697220496D61676520410055
:1005F60044697220496D6167652042004469722032
:10060600496D6167652043005265617220536574C8
:1006160075700043414D20410043414D2052004337
:10062600414D20420043414D20430043414D20446B
:10063600000200456E676C697368004672616E7BE6
:10064600616973004465757473636800457370610E
:100656007E6F6C00FE6A2356FF200004014D6F6416
:100666006531004D6F646532004D6F64653300552A
:10067600736572004D6F646531004D6F64653200BD
:100686004D6F64653300557361676572004D6F6425
:10069600757331004D6F64757332004D6F647573F9
:1006A600330042656E75747A6572004D6F646F3102
:1006B600004D6F646F32004D6F646F330055737574
:1006C6006172696F00FE3A34FF3100FE3A34FF3240
:1006D60000FE3A34FF3300FE47515B71FF200008ED
:1006E600004175746F004E5453430050414C005303
:1006F6004543414D004E545343342E34330050414C
:100706004C4D0050414C4E0050414C3630000500D7
:100716004E6F726D616C00576964650050616E6F53
:1007260072616D610046756C6C000500FE1A1BFF58
:100736002000FE1C1DFF2000FE1E1DFF2000FE1FC8
:1007460020FF2000FE1F21FF200009004F666600E3
:1007560043433100434332004343330043433400B1
:1007660054310054320054330054340002004F4ECA
:10077600004F46460002004D4952524F52004E4F1E
:10078600524D414C000300446179004155544F00DD
:100796004E6967687400020031363A3900343A33DC
:1007A600000200004F4E004F464600040053494EDB
:1007B600474C45004455414C00545249504C450065
:1007C600412B422C422B410007004100412B4200A5
:1007D600412B4300412B5200412B424300412B4207
:1007E6005200412B43520007004200422B41004277
:1007F6002B4300422B5200422B414300422B4152D5
:1008060000422B43520007004300432B4100432B79
:100816004200432B5200432B414200432B415200DE
:10082600432B4252000A005200522B4100522B42E7
:1008360000522B4300522F414200522F4143005297
:100846002F424300522B414200522B414300522B70
:100856004243000E00515541440053455100412B7F
:100866004200432B5200412B5200522B4200412B97
:100876004300432B4200522F414200522B4142007B
:1008860041004200430052000500515541440043D7
:10089600414D410043414D420043414D43004341D8
:1008A6004D5200020000373230783438300033358C
:1008B60032783234300005000035003130003135F1
:1008C600003230003235003330000500004C6576CA
:1008D600656C2D31004C6576656C2D32004C657665
:1008E600656C2D33004C6576656C2D34004C657651
:1008F600656C2D35000300004E6F6E65004E6F72FD
:100906006D616C00416C61726D0006000031202043
:100916006D696E003220206D696E003320206D698E
:100926006E003420206D696E003520206D696E00E2
:100936003130206D696E0005000031352073656326
:10094600003330207365630036302073656300081A
:100956000000313520736563003330207365630012
:100966003630207365630002000044697361626C6F
:100976006500456E61626C6500040000466972732D
:1009860074005365636F6E64005468697264004650
:100996006F75727468000400410042004300520003
:1009A6001900002D3132002D3131002D3130002D4E
:1009B60039002D38002D37002D36002D35002D3409
:1009C600002D33002D32002D310030003100320071
:1009D6003300340035003600370038003900313036
:1009E6000031310031320002005020004420000363
:1009F6000032343030003438303000393630300090
:100A06000200FE1819FF2000FE1A1BFF200004003A
:100A1600FE1C1D1E1F2021FF2000FE222328292A3E
:100A26002BFF2000FE242528292A2BFF2000412BFE
:100A3600422C422B41000E00FE262728292A2BFF96
:100A4600200053455100412B4200432B5200412BBD
:100A56005200522B4200412B4300432B4200522F9F
:100A6600414200522B4142004100420043005200E5
:100A760056474100FF0176FF0176FF0176FF0176BA
:100A8600FF0176FF017EFF017EFF017EFF017EFFF3
:100A9600017EFF018AFF018AFF018AFF018AFF01A9
:100AA6008AFF0196FF0196FF0196FF0196FF0196C8
:100AB600FF019EFF019EFF019EFF019EFF019EFF1B
:100AC60001A7FF01A7FF01A7FF01A7FF01A7FF01DC
:100AD6001FFF012FFF012FFF012FFF012FFF013CF9
:100AE600FF0149FF01AFFF01AFFF01AFFF01BCFFEF
:100AF60001C9FF01D5FF01DEFF01E5FF01EDFF01A1
:100B0600F4FF01FCFF0207FF0212FF021DFF022491
:100B1600FF022CFF0235FF023FFF0248FF0252FF91
:100B2600025AFF025AFF0265FF026FFF027AFF02B6
:100B360083FF0287FF0290FF0296FF02A0FF02A931
:100B4600FF02B3FF02BAFF02C2FF02CAFF02D3FFCF
:100B560002D9FF02E0FF02EFFF0300FF031FFF03BE
:100B66001FFF031FFF031FFF031FFF0326FF0326AD
:100B7600FF0326FF0326FF0326FF032BFF032BFF9E
:100B8600032BFF032BFF032BFF0341FF0341FF034F
:100B960041FF0341FF0341FF0339FF0349FF0349B7
:100BA600FF0349FF0349FF0349FF0350FF0350FFBB
:100BB6000350FF0350FF0350FF0357FF0357FF0384
:100BC60057FF0357FF0357FF0366FF0366FF0366DE
:100BD600FF0366FF0366FF0371FF0371FF0371FFE7
:100BE6000371FF0371FF0573FF0573FF0573FF05AF
:100BF60073FF0573FF057BFF057BFF057BFF057B09
:100C0600FF057BFF0587FF0587FF0587FF0587FF34
:100C16000587FF0596FF0596FF0596FF0596FF05D6
:100C260096FF059FFF059FFF059FFF059FFF059FF9
:100C3600FF05A8FF05A8FF05A8FF05A8FF05A8FF53
:100C460005B5FF05B5FF05B5FF05B5FF05B5FF05FC
:100C5600BCFF05BCFF05BCFF05BCFF05BCFF05C30B
:100C6600FF05C3FF05C3FF05C3FF05C3FF05CAFF95
:100C760005CAFF05CAFF05CAFF05CAFF05D1FF055C
:100C8600D1FF05D1FF05D1FF05D1FF05E0FF05E046
:100C9600FF05E0FF05E0FF05E0FF05EAFF05F6FFBB
:100CA6000602FF060EFF060EFF060EFF060EFF06E5
:100CB6000EFF0619FF0619FF0619FF0619FF06198A
:100CC600FF0625FF0625FF0625FF0625FF0625FF4D
:100CD600062BFF062BFF062BFF062BFF062BFF0618
:100CE6001FFF061FFF061FFF061FFF061FFF063119
:100CF600FF0631FF0631FF0631FF0631FF0376FF9F
:100D06000378FF0382FF0390FF039CFF03A9FF0301
:100D1600B2FF0525FF0525FF0525FF0525FF05254E
:100D2600FF055BFF055BFF055BFF055BFF055BFFE3
:100D36000561FF0561FF0561FF0561FF0561FF05AF
:100D460067FF0567FF0567FF0567FF0567FF056D19
:100D5600FF056DFF056DFF056DFF056DFF03BEFF0A
:100D660003C9FF03CDFF03D5FF03E1FF03EFFF0335
:100D7600F9FF0405FF040BFF0417FF0422FF042BF1
:100D8600FF0435FF043AFF0440FF0444FF0449FF13
:100D9600044DFF0451FF0460FF0467FF046BFF046A
:100DA60070FF0475FF047FFF048CFF049BFF04A8FB
:100DB600FF04B8FF04BCFF04BFFF04CCFF04DAFF46
:100DC60004E7FF04F5FF0505FF050FFF0519FF05FD
:100DD60033FF053FFF054DFF0306FF0306FF03062E
:100DE600FF0306FF0312FE6C6F00FE727500FE60C5
:100DF6006300FE787B00FE666900FE848700FE01C4
:100E06000200FE7E8100FE8A8D00FE909300FE9613
:100E16009900FEC0C300FE9C9F00FEA2A500FEA88E
:100E2600AB00FEAEB100FEB4B700FEBABD000000D6
:100E360018031661180216610000FF0C81FFFFFF00
:100E46003200000700B807720000FF0BEBFFFFFF40
:100E56003200000700B907720000FF0C09FFFFFF10
:100E66003200000700BA07720000FF0C18FFFFFFF0
:100E76003200000700BB07720000FF0D11FFFFFFE5
:100E86003200000700CA07720000FF0D14FFFFFFC3
:100E96003200000700D6079C0000FF0BA0FFFFFFF3
:100EA6003200000300F1000000000000000000FF17
:100EB600FF00000000000000180216610000FF0D90
:100EC600B9FFFFFF3200000300F100000000FF0D34
:100ED600B6FFFFFF3200000300ED00000000000037
:100EE600000000FFFF00000000000000180216616D
:100EF6000000FF0DBCFFFFFF32000005002D0E3580
:100F06000000FF0DBFFFFFFF32000005002E0E356B
:100F16000000FF0DC2FFFFFF32000005002F0E3557
:100F26000000FF0DC5FFFFFF3200000500380E353B
:100F36000000FF0DC8FFFFFF3200000300EE0000B7
:100F46000000FF0BA0FFFFFF3200000300F10000CE
:100F560000000000000000FFFF000000000000008D
:100F6600180216610000FF0DBCFFFFFF32000005EE
:100F7600002D0E350000FF0DBFFFFFFF32000005FC
:100F8600002E0E350000FF0DC2FFFFFF32000005E8
:100F9600002F0E350000FF0DC5FFFFFF32000005D4
:100FA60000380E350000FF0DADFFFFFF32000003D5
:100FB60000EB00000000FF0DC8FFFFFF320EF60138
:100FC60000000EF20000FF0BA0FFFFFF320000033F
:100FD60000F1000000000000000000FFFF0000001C
:100FE60000000000180516610000FF0DA7FFFFFFB7
:100FF60032000007002C09A60000FF0D86FFFFFF48
:101006003200000500200E350000FF0D89FFFFFFAE
:101016003200000500210E350000FF0D8CFFFFFF9A
:101026003200000500220E350000FF0D8FFFFFFF86
:101036003200000500230E350000FF0D92FFFFFF72
:101046003200000500240E350000FF0DAAFFFFFF49
:101056003200000300F6000000000000000000FF60
:10106600FF000000000000000000FF0DB6FFFFFFBC
:1010760032000003009B00000000FF0DB9FFFFFFD8
:101086003200000300F1000000000000000000FF35
:10109600FF000000000000000000FF0DB6FFFFFF8C
:1010A60032000003007000000000FF0DB9FFFFFFD3
:1010B6003200000300F1000000000000000000FF05
:1010C600FF000000000000000000FF0DB6FFFFFF5C
:1010D60032000003009E00000000FF0DB9FFFFFF75
:1010E6003200000300F1000000000000000000FFD5
:1010F600FF000000000000000000FF0BBEFFFFFF26
:1011060032109E0100000E360000FF0BCDFFFFFFE0
:101116003210CE0100000E360000FF0BA0FFFFFFCD
:101126003200000300F1000000000000000000FF94
:10113600FF00000000000000180416610000FF0A0E
:10114600A7FFFFFF3600000B00F1000000000000C3
:1011560000FFFFFF3200000C00390E350000FF0AC9
:10116600B6FFFFFF3600000B00F100000000000094
:1011760000FFFFFF3600000C003A0E350000FF0AA4
:10118600C5FFFFFF3600000B00F100000000000065
:1011960000FFFFFF3600000C003B0E350000FF0B82
:1011A600A0FFFFFF3200000300F100000000000076
:1011B600000000FFFF000000000000001804166198
:1011C6000000FF0BAFFFFFFF32000003009B000093
:1011D6000000FF0BDCFFFFFF3200000300F40000FD
:1011E6000000FF0D02FFFFFF3200000B00F40000BD
:1011F6000000FF0D02FFFFFF3200000B00F40000AD
:101206000000FF0D02FFFFFF3200000B00F400009C
:101216000000FF0D02FFFFFF3200000B00F400008C
:101226000000FF0D05FFFFFF3600000B00F4000075
:1012360000000000000000FFFF00000000000000AA
:10124600180516610000FF0D6EFFFFFF3200000754
:1012560000E409100000FF0D74FFFFFF32000007D5
:1012660000E609550000FF0DB0FFFFFF3200000742
:1012760000EC099C0000FF0DAAFFFFFF32000003EF
:1012860000F5000000000000000000FFFF00000065
:1012960000000000180416610000FF0D6BFFFFFF41
:1012A60032124A01000012460000FF0D65FFFFFFE3
:1012B6003200000700E108BC0000FF0D68FFFFFFD9
:1012C6003200000700E208D00000FF0DADFFFFFF6F
:1012D600320F6A0100000F660000FF0DB3FFFFFF2B
:1012E600320EC20100000EBE0000FF0DAAFFFFFF76
:1012F6003200000300F5000000000000000000FFBF
:10130600FF00000000000000180516610000000044
:10131600000000FFFF000000000000001804166136
:101326000000FF0B07FFFFFF3200000400960E359A
:101336000000FF0B16FFFFFF3200000400950E357C
:101346000000FF0B25FFFFFF3200000400970E355B
:101356000000FF0B34FFFFFF3200000400990E353A
:101366000000FF0B43FFFFFF32000004009A0E351A
:101376000000FF0BA0FFFFFF3200000300F100009A
:1013860000000000000000FFFF0000000000000059
:10139600180516610000FF0CB7FFFFFF32000007BB
:1013A60000C107720000FF0CC6FFFFFF32000007F6
:1013B60000C207720000FF0CD5FFFFFF32000007D6
:1013C60000C307720000FF0CE4FFFFFF32000007B6
:1013D60000C407720000FF0BA0FFFFFF32000003EE
:1013E60000F1000000000000000000FFFF00000008
:1013F600000000000000FF0D26FFFFFF3200000482
:1014060000B20E350000FF0D35FFFFFF320000046D
:1014160000B30E350000FF0D44FFFFFF320000044D
:1014260000B40E350000FF0D53FFFFFF320000042D
:1014360000B50E350000FF0BA0FFFFFF32000003D2
:1014460000F1000000000000000000FFFF000000A7
:1014560000000000180516610000FF0C9FFFFFFF4B
:101466003200000700CD07CE0000FF0CA2FFFFFFF1
:101476003200000700CE07ED0000FF0CA5FFFFFFBE
:101486003200000700CF080C0000FF0BA0FFFFFF93
:101496003200000300F1000000000000000000FF21
:1014A600FF00000000000000180816610000FF0B96
:1014B60061FFFFFF32139A0100000E360000FF0D98
:1014C600CEFFFFFF32145E0100000E360000FF0C57
:1014D600A8FFFFFF3200000700C6082B0000FF0B25
:1014E60070FFFFFF3200000700C708590000FF0B1E
:1014F6008EFFFFFF3200000700C8088E0000FF0BBA
:101506007FFFFFFF3200000400C90E350000FF0D0B
:1015160017FFFFFF3213FA0100000E360000FF0B23
:10152600A0FFFFFF3200000300F1000000000000F2
:10153600000000FFFF000000000000000204FF3270
:101546000DEC000000FFFF32FF132601009F13225F
:101556000DF0000000FFFF32FF0E3E0100000E3AC4
:101566000DF4000000FFFF32FF14B201009F14AE1D
:101576000DF8000000FFFF32FF11C601000011C286
:1015860000000000000000FFFF0000000000000057
:101596000000000000FFFF32FF1546010000154263
:1015A60000000000000000FFFF0000000000000037
:1015B60000000064003200020034001A0001002C12
:1015C600001600000037001C000000C70064002D54
:1015D60000D200800000000700030000003F00204A
:1015E600002D00D200800000001F00100019007DB1
:1015F600005A001E00820069FF830018001E0000CA
:1016060000FF0080FF80007F00000000000700034D
:101616000000007F004011111171113B161A0102E2
:1016260001342C342C024B323232323232324B32CB
:1016360032321110131415707174727370717472E2
:101646007378630080800060808080802080808046
:10165600803B68F890900060808080802080808049
:10166600800358F8A0A00060808080802080808061
:101676008003322528282D64323232323232000A73
:10168600006000610062006300660067006800B9E0
:1016960000FC13DBA67B0060000017481BDB807B89
:1016A6000000000017481EF2807C800001B6314819
:1016B60026D58069000000006FDF13D4A691006074
:1016C6000000174821D4809100000000174813F24B
:1016D6008092800001B6344813DC807F0000000051
:1016E600605A14008B7C01500000294814DC807C71
:1016F60000000000294814F2807C800001B62948C9
:1017060014DC805F000000007B5A0C008B940150B3
:1017160000002D480CDC8094000000002D480CF2DF
:101726008094800001B62D480CDC807F000000000C
:10173600605A3AF680FB0050000026483AC380FB08
:101746000000000026483ACC80FB800001B62648FF
:101756003AC380BE00000000705A3FF98029045049
:1017660000002E483FC38029040000002E483FD0C9
:101776008029840001B62E483FC380E8000000009F
:10178600805A28A4806A04500000165A2884806A69
:1017960004000000165A2889806A84350035165AD6
:1017A6002884801C040000006B5A23F9801404501E
:1017B60000001F5A23C88014040000001F5A23F09B
:1017C6008014843501871F5A23C880E70000000073
:1017D600565A202020496E70757420203A20202009
:1017E60020202020202020202020200020202053E0
:1017F600797374656D203A20202020202020202037
:1018060020202020200020202048204672657120BC
:101816003A2020202020206B487A202020202000FB
:10182600202020562046726571203A202020202054
:101836002020487A202020202000202020462F57D4
:10184600205265763A2020202020202020202020AB
:101856002020200000000000000000000000000022
:10186600000000000000000000000000000001026F
:101876000205050403040404040404040404040423
:1018860004040404040404032020201C2020202037
:101896002020202020200020202020202020202062
:1018A6002020002E003A000101010101010102027F
:1018B60002020202020505050505050404040404E6
:1018C6000403202020000404040404032020200034
:1018D6002020202020202020202020002020202022
:0818E60020202020202020001A
:107B6500410121FF4101220041012700C120C11F20
:107B750041010F0041012400410129004101280074
:077B850041011C0001790021
:104F9900D3900011E09400900010E09400227E006C
:104FA900900011E09000105403FFEEF0A3EFF022FF
:104FB90090010DE0FEA3E0F5828E83229000267A0F
:104FC900007927E0FF7E007B0190002F124A267BA3
:104FD900FF22EE900010F0A3EFF02275F0101249B5
:104FE900FA740E93FB740F93900110CBF0A3EBF0BE
:104FF9008F828E83ED75F0101249FA740993FF744C
:105009000A9390010DCFF0A3EFF022900029E0243C
:10501900F1FF900028E034FFFE90002D024A06754A
:10502900F0101249FA740D93227A1579C89000325A
:10503900124A267A1579B62290001F124A06900064
:105049000E1247DFAAF0F97BFF90002D124A269035
:10505900001F024A06900010A3E0FD22E0FDE49043
:105069000035F0A3EDF022E0FF900010E4F0A32258
:1050790090010DE0FEA3E0FFF5828E8322E490000B
:1050890010F0A3F022900028E0FEA3E0FF22E0FE4A
:10509900A3E0FF7B019000547409F02290010DE018
:1050A900FEA3E0FFEE90011DF0A3EFF0A322FD7532
:1050B900F00A84E5F02430F0ED75F00A84227E00D0
:1050C90090012AEEF0A3EFF022E0FEA3E0FF9001A9
:1050D90010E0FCA3E0F5828C832290000EE09000A2
:1050E90010A4FFE5F08FF002479E75F0101249FAFF
:1050F900740E93FC740F93AA04F97BFF90000712B6
:105109004A268F828E83227D017BFF7E00024683A1
:10511900FFE975F003A42416F582E43400F583222F
:10512900900010E0FEA3E0FF900110E0FAA3E0F583
:10513900828A83740393FDE49322EFF090000FE0D9
:105149002290004CE475F001124A0F0246A9900022
:1051590002124A5B900127E075F003A4F58285F0FD
:1051690083024A5BF0A3EFF0D39015B67401939FC5
:10517900EE6480F8E49364809822FF900028E0347C
:10518900002290010DE0FEA3E0AA06F97BFF22753B
:10519900F0100249FAA3E475F00102479EE0FEA36C
:1051A900E02DFDEE3CFCEDA4FBAAF0FF900018E019
:1051B900229015B8E493FE740193FF22900010E445
:1051C900F0A3740EF022F0E0FF25E02422F582E43A
:1051D9003416F583E49322F0EF25E02423F582E4E5
:1051E9003416F583E493227E00EEF0A3EFF07B0101
:1051F90022EEF0A3EFF0A32290000D0246C2C39065
:105209000011E09403227D017BFF7E007F0C0246A2
:105219008390012CE0640122740E93FB740F939028
:105229000110CBF0A3EBF022EF54F8FFA3E05407F1
:105239004FFB7D177F8A22900011E02403F0900034
:1052490010E03400F02290000CE0FEA3E0FF900093
:105259000AA3E0FD22FFE493FC740193FDC3EF9DD3
:10526900FEE49C2290000EEEF0A3EFF0FD900014F6
:10527900E0FF22E57925E02414F582E43401F58381
:105289002235F0FA7BFF90000BE0900054F02224C5
:1052990040F582E43400F5832290012AA3E0FF223D
:1052A900E0FFA3E090011DCFF0A3EFF0227D187C71
:1052B90000124701EF22FFE08FF0A4FF22A3E05480
:1052C900074438FB7D787F8A22C3900011E0940659
:1052D90022F090003AE004F022E0FEA3E0FF7B0117
:1052E90022E0FF7E007B017A00792822FBC3EF9B35
:1052F900FFEE9400FEC322C3900011E0940222E065
:10530900FD75F00A84E5F0243022F9E43AFA024AFC
:10531900262FFFE035F0FAA9077BFF22E024052FAD
:10532900F075F0058422FFE4F0A3EFF0229000135A
:10533900A3E0FF22FF7E007B017A007927229FEEFE
:105349006480F8EC64809822124A060246A97D32EC
:105359007F267E002275F011A42477F9748022F546
:1053690082E43400F583EEF022F582E43400F5831B
:03537900EEF02231
:03000E0012C31BFF
:0100110022CC
:05794400900012EFF0BD
:1079490012000E900017EFF0900012E0B401047FCE
:107959000180027FFF900017125325E5F01251CFE5
:10796900FEFD900013E4F0A3EDF0900125E0FDC3C6
:10797900900014E09DF0900013E09400F090012530
:10798900EE1251E0FFFD900015E4F0A3EDF0900137
:1079990026E0FDC3900016E09DF0900015E09400EC
:1079A900F0900126EFF09000187401F0900018E0B3
:1079B900FFD39404506D12B480AD07AC0690001348
:1079C90075F0081251A6F975F003A42417F582E49D
:1079D9003400F583EFF0EA125119EFF0AF0112B05C
:1079E900B7AC06AD0790001575F0041251A675F0F5
:1079F90003A42418F582E43400F583EFF0EAC4F80F
:107A090054F0C8EBC4540F485470FF900018E0F9C3
:107A190012511BE04F125119EFF0900018E004F0D9
:107A29000279B512BCA77DE07F8A12B963EF54EFE2
:107A3900127AA49000187401F0900018E0FFD39412
:107A4900045031EF14FB7D9E7F8A12BE42900018CC
:107A5900E075F003A42416F9740035F0FA7B01905F
:107A6900005A7403F07DA07F8A12B6FA900018E0DC
:107A790004F080C57DE07F8A12B963EF4410127A61
:107A8900A4900017E0FF12C2A112BCA7E4FB7D90ED
:0A7A99007F8A12BE42900017E0FF42
:0A7AA30022FB7DE07F8A12BE422222
:106BFA00901622E493900125F0901623E4939001D5
:106C0A0026F0E4FF12C2A17FB0126D8B7FA0126D35
:106C1A008B7FA07E0012BE1C90014BEFF07FA11269
:106C2A006D937FA2126D937FBA126DA27FA4126D2B
:106C3A00A27FAB126D9A7FA3126DB17FBB126DB1A9
:106C4A007FA5126D9A7FA6126DA97FA7126DA97FE3
:106C5A00A8126DB87D327F387E0012B55E9001743D
:106C6A007432F0E4FF1288187D327F377E0012B545
:106C7A005E7D037FB27E0012B55E7FBC126DB87F67
:106C8A00BD126DC77FBE126DC7900102E0700FFD85
:106C9A007FAEFE12B55E7D017FAC7E00800E7D0D5B
:106CAA007FAE7E0012B55EE4FD7FACFE12B55EE4F7
:106CBA0090013EF07D027FAAFE12B55E7FA9126D99
:106CCA00E0E4FF12B3E77BFF7A00796612C11A7D0E
:106CDA00337FA07E0012BCD47FB2126DE07FB31264
:106CEA006DBF7FB4126DBF7FB5126DD87FB6126DBE
:106CFA00D8128713E4FF12C2BC7D017FBF7E001247
:106D0A00B55E7FBF7E0012BE1CEF24FF9209E4FD30
:106D1A007FB8FE12B55E7FB87E0012BE1C9000FFDF
:106D2A00EFF07D017FB77E0012B55E7FB77E00125D
:106D3A00BE1C9000FAEFF07D027FB97E0012B55EAC
:106D4A007FB97E0012BE1C9000ECEFF0E4FD7FAF2D
:106D5A00FE12B55EE4900138F090010104F0FD7F67
:106D6A00C57E0012B55E7F1B126DCE7F1C7E02129D
:106D7A00B55E7F1D126DCE7F1E7E0212B55E02A524
:106D8A00617D017E0012B55E22E4FDFE12B55E222F
:106D9A007D017E0012B55E22E4FDFE12B55E227D03
:106DAA00017E0012B55E22E4FDFE12B55E22E4FD0C
:106DBA00FE12B55E227D017E0012B55E22E4FDFE62
:106DCA0012B55E22E4FD7E0212B55EE4FD227D016B
:0D6DDA007E0012B55E22E4FDFE12B55E22C1
:10C1970012C323900127EFF075F00584AFF0EFF09D
:01C1A7002275
:10C05700EFB401047F0180027FFF9001271253256F
:0CC06700AFF0EFF012C2BC900127E0FF28
:01C0730022AA
:05ABF500900014EDF0DA
:10ABFA00EF75F003A42481FEE435F0A3F0A3CEF0B0
:10AC0A00E4A3F0900017E0FFC394035043900016AA
:10AC1A00E02FFF900015E03400FE12BE1C900018D1
:10AC2A001251F07A00791A124FD2125032129A5FE8
:10AC3A00900017E02471FD90001AA3E0FF90001421
:10AC4A00E02FFB7F8A12BE42900017E004F080B327
:01AC5A0022D7
:10A95A00EFB401047F0180027FFF90012BE0240401
:10A96A00FD90012AE03400FCEF3395E0FEED2FFF65
:10A97A00EC3EF0A3EFF07E0090012A124FB0FD7F6B
:10A98A008012B55E7F107E0012BE1C7E007B017AAB
:10A99A00007912124FD27A1579CE125036129A5F76
:10A9AA001252A2900012A3E0FD12ABF57F807E0046
:10A9BA0012BE1CEF64037BA860047D3080027D32E6
:0AA9CA007F3E7E0012BBB71252A2BE
:01A9D4002260
:05990B00900012EFF0D6
:10991000ED90012BB4010DE02401FF90012AE03409
:1099200000FE800BE024FFFF90012AE034FFFE9050
:109930000013EE12516D50151251BA900014E09FB1
:10994000EE6480F8900013E064809840030299B2BE
:10995000900013E0FEA3E0FF1250C97B017A00796A
:1099600015124FD2125032129A5F900012E0248AE0
:10997000FFE433FEA3A3E0FD12B55E7F107E00126C
:10998000BE1C9000131251F07A007917124FD27A50
:109990001579CE125036129A5F900012E02471FDB4
:1099A000900017A3E0FF900015A3E02FFB7F8A1221
:0599B000BE421252A2AC
:0199B500228F
:10B05F007D707F8A12B963EF54BFFB7D707F8A12B8
:10B06F00BE427D7412B0AD7D757F8A12BE427D7671
:10B07F0012B0AD7D717F8A12BE427B807D727F8A56
:10B08F0012BE427B807D737F8A12BE427D707F8AA3
:10B09F0012B963EF4440FB7D707F8A02BE427B8012
:08B0AF007F8A12BE427B802261
:068AFA0090001FEFF0FDEB
:108B00007F0B7E0012B55E90001FE06403606CE492
:108B1000A3F0A3F0900020E0FEA3E0FFC3940FEECB
:108B200064809480503B90001FE0C454F02448F5CA
:108B300082E43416F583E5822FF582E5833EF583E2
:108B4000E493FB900020A3E02438F58274163EF5F0
:108B500083E493FD7F8A12BE4290002012519F80D1
:108B6000B390001FE0C454F02457F582E43416F5A6
:0B8B700083E49390002212532F804EEC
:108B7B00E4FF12C34212B7BB7F0112C34212B434DB
:108B8B007F0212C342AD07E4FF12AA477F0312C351
:108B9B0042AD077F0112AA477F0412C34212AAB744
:108BAB007F0512C3427E009000241251F27A0079A5
:0E8BBB0022124FD27A167910125036129A5F9B
:108BC9009000221252C612BE427D177F8A12B963E3
:098BD90090002212523112BE423A
:018BE2002270
:03C35B007F00223E
:07C3420012C2841250C72251
:059D8E00900012EFF04F
:109D9300EDB401067E007F0180047EFF7FFF90010A
:109DA3002AE0FCA3E0FD2FFFEC3EFE9000131251CE
:109DB3006D50161251BA900013E0FAA3E0FB9FEE28
:109DC3006480F8EA6480984003AF0522900012E0B3
:109DD30014601814601D14601A14602724FE602B8D
:109DE3002406702DAF0312B7BB802612533612B46C
:109DF30034801E900012E024FEFFA3A3E0FD12AA0C
:109E030047800E12533612AAB7800612533612AB8E
:109E13008C900012E0FFA3A3E0FD12C2AA900013EE
:089E2300E0FEA3E0FF1250C9AC
:019E2B002214
:05B7BB00900026EFF0F4
:10B7C00012C355900026E0BF010C12533D124FD218
:10B7D0007A1579F8800A12533D124FD27A1579F210
:10B7E000125036129A5F9000FBE090161B93FD906A
:0AB7F0000027A3E0FB7F8A02BE429F
:05B43400900026EFF07E
:10B439009000FBE064047017124FC57A1579D41295
:10B449005036129A5F900027A3E0FB7D7480221288
:10B459004FC57A1579FE125036129A5F12C35BEF07
:10B469009000276007A3E0FB7D3A8005A3E0FB7D00
:06B47900107F8A12BE42A2
:01B47F0022AA
:10AB8C007E007B017A007915124FD27A1579EC127E
:10AB9C005036129A5F7DFF7F8A12B963900017EFCF
:10ABAC00F0E47DFF12ABEE7DBE7F8A12B963EF54E9
:10ABBC00CF44107DBE12ABEE7DC47F8A12B963EF19
:10ABCC005480FD900015E0A2E713A3E0134DFB7D2C
:10ABDC00C47F8A12BE42900017E0FB7DFF7F8A0281
:02ABEC00BE4267
:07ABEE00FB7F8A12BE422228
:05AAB700900026EFF005
:10AABC009000FBE06404702A9000267A007927123B
:10AACC004FCC7A1579E0125036129A5F7D707F8ADE
:10AADC0012B963EF54C0FF900027A3E04FFB7D70C9
:10AAEC00802F900026E0FF7E007B017A00792712F0
:10AAFC004FD27A16790A125036129A5F12C35BEF54
:10AB0C009000276007A3E0FB7D3E8005A3E0FB7D62
:06AB1C00157F8A12BE4203
:01AB22002210
:08AA4700900026EFF0A3EDF0F2
:10AA4F0012C35BEF60301252EA124FD27A167916A8
:10AA5F00125036129A5F900026E0243CFD7F8A1236
:10AA6F00B963EF5480FF900028A3E02FFB900026DE
:10AA7F00E0243CFD802C9000271252EA124FD27A2C
:10AA8F00167904125036129A5F9000FBE090002660
:10AA9F00B40405E024728003E02413FD900028A382
:07AAAF00E0FB7F8A12BE42AA
:01AAB600227D
:059B0400900012EFF0DB
:109B09007D787F8A12B963EF5407540F90001512BC
:109B1900532F900012E0B401047F0180027FFFEF10
:109B29003395E09000158FF012479E901610125150
:109B3900BD900015E0FCA3E0FDC3125347400D9012
:109B490016121251BDD3ED12534740041252A222EC
:109B5900AF057E007B017A007913124FD27A15790D
:109B6900B6900032124A267A167910129A5F90003E
:109B7900151252C612BE427D177F8A12B963900030
:109B89001512523112BE42900013A3E0FD7F051257
:0D9B9900C2AA900013E0FEA3E0FF1250C925
:019BA600229C
:10AC5B009000FBE090000AF09000FB7401F0900074
:10AC6B00FBE0FFC394075030EFB40413E4900009EA
