:10380B006873636F6D20312031206368303A312546
:10381B00316278206368313A3025316278206368F1
:10382B00323A3025316278206368333A3025316281
:10383B00780A0D006873636F6D2031203120636847
:10384B00313A3125316278206368303A3025316264
:10385B0078206368323A3025316278206368333AD6
:10386B0030253162780A0D006873636F6D2031204B
:10387B0031206368323A256278206368303A30250C
:10388B00316278206368313A302531627820636881
:10389B00333A30253162780A0D006873636F6D20FF
:1038AB00312031206368333A3125316278206368E7
:1038BB00303A3025316278206368313A30253162F5
:1038CB0078206368323A30253162780A0D006873CC
:1038DB00636F6D20322032206368303A31253162BC
:1038EB0078206368313A3025316278206368323A48
:1038FB003025316278206368333A30253162780A9B
:10390B000D006873636F6D20322032206368323A8A
:10391B00256278206368333A3125316278206368F9
:10392B00303A3025316278206368313A3025316284
:10393B00780A0D006873636F6D2032203220636844
:10394B00303A3025316278206368333A3125316261
:10395B0078206368313A3025316278206368323AD7
:10396B0030253162780A0D006873636F6D20322049
:10397B0032206368333A3125316278206368313AFB
:10398B003025316278206368303A302531627820F7
:10399B006368323A30253162780A0D006873636FC1
:1039AB006D20332031206368333A31253162782022
:1039BB006368303A3025316278206368313A3025BC
:1039CB00316278206368323A30253162780A0D0013
:1039DB006873636F6D20332033206368303A302572
:1039EB00316278206368313A302531627820636820
:1039FB00333A3125316278206368323A30253162AF
:103A0B00780A0D006873636F6D2033203420636870
:103A1B00303A3025316278206368313A3025316293
:103A2B0078206368333A3125316278206368323A03
:103A3B0030253162780A0D006873636F6D20342076
:103A4B0031206368303A3025316278206368313A2F
:103A5B003025316278206368323A30253162782024
:103A6B006368333A31253162780A0D006873636FEE
:103A7B006D20322032206368303A31253162782054
:103A8B006368323A3025316278206368313A3025E9
:103A9B00316278206368333A30253162780A0D0041
:103AAB006873636F6D20322032206368323A25626F
:103ABB0078206368313A3025316278206368303A78
:103ACB003025316278206368333A30253162780AC9
:103ADB000D006873636F6D20332033206368333AB6
:103AEB003125316278206368303A30253162782095
:103AFB006368313A3025316278206368323A302579
:103B0B003162780A0D006873636F6D2032203220AA
:103B1B006368333A3125316278206368323A302555
:103B2B00316278206368313A3025316278206368DE
:103B3B00303A30253162780A0D006873636F6D205F
:103B4B00332031206368333A312531627820636842
:103B5B00303A3025316278206368323A3025316251
:103B6B0078206368313A30253162780A0D0068732A
:103B7B00636F6D20332031206368333A3125316216
:103B8B0078206368313A3025316278206368323AA5
:103B9B003025316278206368303A30253162780AFB
:103BAB000D006873636F6D20332033206368333AE5
:103BBB003125316278206368303A302531627820C4
:103BCB006368323A3025316278206368313A3025A8
:103BDB003162780A0D006873636F6D2033203320D8
:103BEB006368333A3125316278206368313A302586
:103BFB00316278206368323A30253162782063680D
:103C0B00303A30253162780A0D006873636F6D208E
:103C1B00332033206368303A312531627820636872
:103C2B00313A3025316278206368323A302531627F
:103C3B0078206368333A30253162780A0D00687357
:103C4B00636F6D20332033206368303A3025316247
:103C5B0078206368323A3025316278206368333AD2
:103C6B003125316278206368313A30253162780A28
:103C7B000D006873636F6D20322032206368313A18
:103C8B003125316278206368303A302531627820F3
:103C9B006368323A3025316278206368333A3025D5
:103CAB003162780A0D006873636F6D203220322009
:103CBB006368313A3125316278206368323A3025B6
:103CCB00316278206368333A30253162782063683B
:103CDB00303A30253162780A0D006873636F6D20BE
:103CEB00322032206368313A3025316278206368A4
:103CFB00333A3125316278206368323A30253162AC
:103D0B0078206368303A30253162780A0D00687389
:103D1B00636F6D20332033206368313A3125316274
:103D2B0078206368303A3025316278206368323A04
:103D3B003025316278206368333A30253162780A56
:103D4B000D006873636F6D20332033206368313A45
:103D5B003025316278206368303A30253162782023
:103D6B006368333A3125316278206368323A302503
:103D7B003162780A0D006873636F6D203320332036
:103D8B006368313A3025316278206368323A3025E6
:103D9B00316278206368333A312531627820636869
:103DAB00303A30253162780A0D006873636F6D20ED
:103DBB00322032206368323A256278206368303AC9
:103DCB003025316278206368313A302531627820B2
:103DDB006368333A30253162780A0D006873636F7C
:103DEB006D20322032206368323A25627820636876
:103DFB00313A3025316278206368333A30253162AD
:103E0B0078206368303A30253162780A0D00687388
:103E1B00636F6D20322032206368323A256278203E
:103E2B006368333A3125316278206368313A302543
:103E3B00316278206368303A30253162780A0D00A0
:103E4B006873636F6D20332033206368323A2562C9
:103E5B0078206368303A3025316278206368313AD4
:103E6B003025316278206368333A30253162780A25
:103E7B000D006873636F6D20332033206368323A13
:103E8B00256278206368303A302531627820636888
:103E9B00333A3125316278206368313A302531620B
:103EAB00780A0D006873636F6D20332033206368CD
:103EBB00323A256278206368313A302531627820B6
:103ECB006368333A3125316278206368303A3025A4
:103EDB003162780A0D000D0A507265762E46573AFC
:103EEB0025303478000D0A437572722E46573A25E9
:103EFB00303478000D0A5B4D53475D6D61696E5F21
:103F0B00696E697428293D3E2072657620213D201B
:103F1B00465756455220262063616C6C20436C65D6
:103F2B0061724261736963454528290D0A000D0AC8
:103F3B0043616E6E6F7420616363657373204545D7
:103F4B0050524F4D21212121000D0A4E6F20696ED9
:103F5B00697469616C697A65005457383831360079
:103F6B005457383831364200545738383137004EB1
:103F7B006F7468696E67202D2D3078253032780D7F
:103F8B000A00436865636B20616761696E202D2DA4
:103F9B003078253032780D0A004C617374204368F9
:103FAB0065636B202D2D3078253032780D0A00FF9C
:103FBB00380BFF383FFF3873FF38A5FF38D9FF396F
:103FCB000DFF393FFF3973FF39A7FF39DBFF3A0F7D
:103FDB00FF3A43FF3A77FF3AABFF3ADDFF3B11FF66
:103FEB003B45FF3B79FF3BADFF3BE1FF3C15FF3C06
:103FFB0049FF3C7DFF3CB1FF3CE5FF3D19FF3D4DCB
:10400B00FF3D81FF3DB5FF3DE7FF3E19FF3E4BFFF7
:10401B003E7DFF3EAF2D2D2D3E2050616E656C3ADF
:10402B0020575647412D3830302A343830202D2D2B
:10403B00205449434F4E4C45535320485320376926
:04404B006E63680038
:1079FA00012D00013000C10DC10C02310000012F20
:107A0A0000024C000041014201C10EC10F41014573
:107A1A0000410143004101460044014700000000C3
:10B36E00ED90001DF090001BE090001E2290001B3F
:10B37E00E090001DF022EBA3F090001CE090001F67
:10B38E0022FFEA33FE7C007D14124713744E2DF813
:10B39E00E62290001CE0A3F0A32290001DF0900086
:10B3AE001CE090001E22900028F0A3EFF07BFF22FD
:1085CB007B107DE07F8A12BFE312AE7F900000EE3E
:1085DB0012B3B77A3E79E1900028EEF0A3EFF012D8
:1085EB00BF4912AE7FEF64107003EE640260287B0C
:1085FB00FF7A3E79F09000287402F0A37410F01209
:10860B00BF497F107E0212B79012AE7FEE12B3B449
:10861B007A3E79F012BF4912AE7FEF64107003EE11
:10862B0064027033900000E064027004A3E06410F5
:10863B00601B900100E0FF12C40C7F0112C43012CA
:10864B00BF227BFF7A3E79FF12BF49802C12C48078
:10865B00900100EFF080227BFF7A3F793912BF49FE
:10866B007BFF7A3F795412BF4990010074FFF07F72
:10867B000112BB3EE4FF02A1B57F087E0012BFBD15
:10868B0090010CEFF06004E0FF80027F0112BB3E13
:10869B0012A5A49000FB74FEF012AFFD12BBB07FCD
:1086AB0006128E8D7F0A12C2B012C38F7DFF128607
:1086BB00DD7D821286DDE4FB7DFF7F8A12BFE37BCB
:1086CB00FF7DD07F8A12BFE37BFF7DD17F8A12BFF4
:0186DB00E3BB
:0986DC00227B017F8A12BFE32218
:10B40E0075F68775F65975BF10E4F5F6758DF475FA
:10B41E009850758922758855758A40758C40758748
:10B42E008075B80275A892D299D2ACF5C8C2CAD2AC
:10B43E00AD75AA5075BAF443A61843AD10C20F7578
:0FB44E00DE4243D840F5B175B220F54AF54922E8
:03000B00027E3B37
:0B7E3B00C0E0C083C082C0D075D0083A
:107E4600054B900144E0600214F0900144E0703369
:107E5600E5A05460C4135403FF90014AE06F602309
:107E6600900148E0900147F0900149E0900148F008
:107E760090014AE0900149F0A3EFF0D2109001443E
:107E86007430F0E54BD394605003027F8E0534E5E1
:107E96003470020533754B00052FE52F64646003CB
:107EA600027F4690010BE094FF5003E004F0E56585
:107EB6002401FFE43564FEE43563FDE435628F6535
:107EC6008E648D63F562752F009000F2E0D3940105
:107ED6004003E014F0900177E0D394014003E014EE
:107EE600F0900069E004F090014EE0D39400400366
:107EF600E014F0301106900143E004F030040690DF
:107F06000146E004F0900069E0B43C08E4F090001B
:107F16007CE004F090007CE0B43C08E4F09000883B
:107F2600E004F0900088E0B41808E4F0900087E0E0
:107F360004F0E5309001456005E004F08002E4F0CD
:107F4600E54DF47003E54CF46008054DE54D70020F
:107F5600054CE5A0F4549C6029E52DB4030DE5A07D
:107F6600F4549CF530C20CD20D8013E52DB4640E8A
:107F7600E5A0F4549CF530D20CD20D752D50052D8C
:087F86008006752D0075300026
:097F8E00D0D0D082D083D0E032C3
:10C17800E4F565F564F563F562900100F07F6412FB
:0EC18800C2B0C22112C454D2B47F0102C2B0B0
:10A51900E4FD7F8A12BACCEF24DE601024D96014DE
:10A52900242870197BFF7A3F7964800E7BFF7A3F7C
:10A53900796B80067BFF7A3F797302C29512A585F4
:10A549007A3F797A12BF4912C3F6EF701B12A585BB
:10A559007A3F798D12BF4912A597EF60EAE4FD7F32
:10A569008A12BACCEFF460DF7F6312C2B012A597EA
:10A57900E412B3B47A3F79A412BF4922E4FD7F8A79
:10A5890012BACC900028E4F0A3EFF07BFF227F639E
:0BA5990012C2B0E4FD7F8A12BACC228F
:10C19600EFB4010553E8FE8011EF700743E8015341
:0EC1A600E8FD22EFB4020643E80143E802225E
:03001300020026C2
:03002600C2AA3239
:0300230002BC8C90
:10BC8C00C0E0C0D075D00830981EC298AF997435FA
:10BC9C002549F8EFF6744E2549F8A60F0549E549F4
:10BCAC00C394144003754900309904C299C20ED054
:04BCBC00D0D0E032D2
:0300630002BD27B4
:10BD2700C0E0C0D075D008E5AA30E01653AAFE746B
:10BD370025252EF8A69A052EE52EC39408400375EF
:10BD47002E00E5AA30E10553AAFDC20FD0D0D0E0FE
:01BD570032B9
:0BC3F600E549B54A037F00227F0122C9
:08000300200EFD8F99D20E22A0
:08C47800200FFD8F9AD20F2264
:03002B0002C344C9
:0FC34400C0E0C2CF0532E53270020531D0E032E1
:10C2B000E52F2FFFE433FE7C007D64124713E52F4A
:07C2C000B505FBE4B504F72E
:01C2C7002254
:10B9DB00900025E4F0A3E52FF0E47B3CFAF9F8AFF7
:10B9EB0065AE64AD63AC621248CEAC00AD01AE0285
:10B9FB00AF03E47B64FAF9F8124843900025EE8F0D
:0CBA0B00F012479E900025E0FEA3E0FF33
:01BA1700220C
:10C0DD00C3ED9FEC9E5010C374709FFF74179EFEAE
:0FC0ED00EF2DFFEE3CFE22C3ED9FFFEC9EFE22E7
:08B67600900025EEF0A3EFF0B7
:10B67E00900025E07002A3E06035E4900027F0A36F
:10B68E00F0900027E0FEA3E0FFE4FCFD7BD8FAF982
:10B69E00F8D3124960400C900027E475F001124770
:0FB6AE009E80DE90002574FFF5F012479E80C14C
:01B6BD00226A
:0563C900900018EFF048
:1063CE00ED4410FDEB4410FBEF64056012E0FF643A
:1063DE0020600CEF6421600790001BE04410F090E9
:1063EE00001CE04410F0900018E0124A8B64650027
:1063FE00646701647002647703647D04648E0564CF
:10640E009106649A0764770864BA0964BA0A6465E7
:10641E000B64A30C64AB0D64770E64C90F64D710C4
:10642E0064E21164D71264E213647D1464F015649F
:10643E00671664FA1765031864671965101A64FA0B
:10644E001B64701C65241D648E1E64701F653B20CA
:10645E006524210000654C801690001DEBF0A3ED25
:10646E00801412B37BA3ED802F12B3A0ED80189091
:10647E00001DEDF0A3EBF090001BE090001F8025B7
:10648E00026530ED12B3A8F0A3EB802812B3A0EB97
:10649E00F0A3ED801F12B36EF0A3EB800812B37B56
:1064AE00A3EBF0A3EDF090001C02651D90001DED16
:1064BE00F012B384F090001B02651D90001CE0A347
:1064CE0012B372F0A3EB02652A12B3A0EDF09000A6
:1064DE001B02654412B3A0EBF090001BE090001F6E
:1064EE00803A12B36EF090001C026544EB12B36F4B
:1064FE0012B3868027EB12B3A8F0A3EDF090001B29
:10650E00800D90001DEBF0ED12B385F090001BE0B6
:10651E00900020F0802812B37B12B384F0A3EDF02C
:10652E00801C12B37B12B3ACF0A3ED800D12B37BC3
:10653E00A3EDF090001CE090001FF0A3EBF0E490B0
:10654E000021F0900021E0FFC394145011744E2FDF
:10655E00F8E4F674352FF8E4F6E004F080E59000E8
:10656E00FBE06403700C90013CE070061265FF02C4
:10657E0065FCE4900022F01265FF12B9DB90002357
:10658E00EEF0A3EFF012B9DBC3900024E09FFF9072
:10659E000023E09EFE12C3EAC3EF9428EE648094BB
:1065AE008040E2E4900021F0900021E0FFC39414BB
:1065BE005029744E2FF8E664417018E0FB7A0024DF
:1065CE000112B38FB4430CEB240212B38FB44B03FE
:1065DE007F0122900021E004F080CD7FC87E001262
:1065EE00B676900022E004F0E0C3940340897F0069
:1065FE0022900018E0FF3395E0FE903FBA75F0034D
:10660E00EF1249FAEE75F003A42583F583124A2F93
:10661E0090001DE0900028F090001EE0900029F000
:10662E0090001FE090002AF0900020E090002BF0E8
:04663E0012BF49221C
:10A24D000D0A2B2B28436C6561724F5344496E6682
:10A25D006F293A20446973706C617965644F53447A
:10A26D003A2532780020000D0A5B4D53475D446955
:10A27D0073706C6179496E7075742829203D3E208C
:10A28D0053656C6563744D6F6465547970653D41BC
:10A29D00564D6F646520746F207365742074696DFD
:10A2AD0065202620646973706C6179686F6C645FDA
:10A2BD00666C61673D256278002020205457383840
:10A2CD003036202020005465636877656C6C2C490E
:03A2DD006E6300AD
:047A2A0041017500A1
:0FC3620075F011A4249DF9747735F0FA7BFF2252
:0CC3C600900175E0FEEFF4FFEE5FF02246
:07C4B800900175E04FF02236
:06C4C600900175E0FF2269
:10B2C40012C4C690001BEFF012C4C6900028E4F02C
:10B2D400A3EFF07BFF7AA2794D12BF4990001BE0E7
:10B2E400FF20E20330E70512BF97C20790001BE07E
:10B2F40030E00312C35390001BE030E40312C2C8D1
:10B3040090001BE030E10312BA9190001BE030E69C
:04B314000312C38FCE
:01B318002212
:1095790090001A74C2F012B2C47BFF7A87795C1228
:109589009DFE7DFF7FA07E0012BE757BFF7D327F31
:10959900A07E0012BD58E4900019F0900019E0FF78
:1095A900C394F050197E007BFF7AA279729000541F
:1095B9007401F012BCF4900019E004F080DD900110
:1095C90075E04410F012C4D2EF640160779000197D
:1095D9007401F0900019E0FE75F01190779C124922
:1095E900FAE4936F6008900019E004F080E5EE1248
:1095F900C36212C27A900018EFF0A3E012C362901E
:109609000018E0900054F07FA07E0012BCF47FA304
:109619007E0012BFBDBF01199000EEE070139000EB
:10962900F27405F07BFF7AA27974900028F012BFDA
:10963900497D017F0212B7D47F0112BE1912B9DB2D
:049649008E7A8F7B0B
:01964D0022FA
:10C2C800E4FF12BE19E4FD7F0212B7D4900175E0B5
:06C2D80054EFF07F01228B
:1097E2007DFF1298977D82129897E4FB7DFF7F8A16
:1097F20012BFE3900175E020E27C12B2C47F0A122C
:10980200C2B07BFF7A8779DE129DFE7D327FC87EF1
:109812000012BE757B197D377FC87E0012BD587B52
:10982200197D737FDD7E0012BD5812C31275F003DD
:10983200EF900AE61249FA124A2FAE02AF019000E7
:1098420006EEF0A3EFF07BFF12C27A900006E0FC76
:10985200A3E0AA04F97BFF900054EFF07FC87E00DA
:1098620012BCF47D017F0112B7D4E4FD7F0412B76C
:10987200D47F0112BE19301B0590017A800390013A
:1098820079E0FF12A11A900175E04404F012B9DBED
:049892008E7A8F7BC0
:10989600227B017F8A12BFE37F057E0012B6762205
:0FC35300E4FD7F0212B7D4900175E054FEF02292
:10A07E00E4900006F012C4C6900005EFF0549670FE
:10A08E000302A117E030E11512C45D900001EEF05D
:10A09E00A3EFF0A37407F0A374D0F0801190000129
:10A0AE00E57AF0A3E57BF0A3E4F0A374C8F012B94F
:10A0BE00DBAD07AC06900001E0FEA3E0FF12C0DDB1
:10A0CE00D3900004E09F900003E09E503C9000056A
:10A0DE00E05484600D12BF97900006EFF012957950
:10A0EE00C207900005E030E11D12BA91900006EF14
:10A0FE00F07FA37E0012BFBDBF01069000F2740375
:0BA10E00F0129579C2077F01227F004C
:01A119002223
:10BF9700900175E030E20A7F0112BFB354FBF080D5
:10BFA700087F0212BFB3547FF07F0122E4FD12B76E
:06BFB700D4900175E022A8
:10AE7F00E4FFFE12BFBDEF6454600280287F017EA5
:10AE8F000012BFBDEF64576002801A7F027E00126E
:10AE9F00BFBDEF64386002800C7F037E0012BFBD20
:10AEAF00EF64386004E4FEFF227F047E0012BFBD12
:10AEBF00EF900002F0A3E4F07F05FE12BFBD9000FB
:10AECF0002E0FEA3E04FFF900002EEF0FEA3EFF0D2
:01AEDF002250
:10B79000900002EEF0A3EFF07D54E4FFFE12B6BE7F
:10B7A0007D577F017E0012B6BE7D387F027E00127B
:10B7B000B6BE7D387F037E0012B6BE900002E0FD6B
:10B7C0007F047E0012B6BE900002A3E0FD7F057EDE
:04B7D0000002B6BEFF
:08C480007F067E0012BFBD2201
:09C40C00AD077F067E0002B6BEFA
:08C488007F097E0012BFBD22F6
:09C41500AD077F097E0002B6BEEE
:07C490007F0A7E0012BFBD10
:01C497002282
:10A5A400E4900003F0900002F0900002E075F011D6
:10A5B4009077F11249FAE493124A8BA5DB00A5E7E0
:10A5C40001A5F002A5F903A60204A60B05A614062C
:10A5D400A61D070000A624900003E0FD7F0A7E006C
:10A5E40002B6BE900003E04401F08034900003E022
:10A5F4004402F0802B900003E04404F08022900099
:10A6040003E04408F08019900003E04410F0801047
:10A61400900003E04420F08007900003E04440F001
:08A62400900002E004F08081C7
:07C498007F0D7E0012BFBD05
:01C49F00227A
:09C41E00AD077F0D7E0002B6BEE1
:0AC40100EF2412FFE433FE12BFBD6A
:01C40B00220E
:09C42700EF2412FF7E0002B6BEF4
:09C43000AD077F0F7E0002B6BECD
:07C4A0007F0C7E0012BFBDFE
:01C4A7002272
:09C43900AD077F0C7E0002B6BEC7
:08C4A8007F387E0012BFBD22A7
:09C44200AD077F387E0002B6BE92
:08C4B0007F377E0012BFBD22A0
:09C44B00AD077F377E0002B6BE8A
:10BF2200E4FD7FADFE12B6BEE4900102F0FD7F0893
:10BF3200FE12B6BEE4FD7F0EFE12B6BE126CC61233
:07BF4200ADB67F01028F6F15
:10C1B4009291D290120012C29022124A068E827577
:0EC1C40083001246C2FF22EFF0A3EDF0A3228B
:0BB6BE00900028EEF0A3EFF0A3EDF0E9
:10B6C900900028E0FEA3E07807CEC313CE13D8F983
:10B6D90044A054FE90002BF012C2DE90002BE0FF34
:10B6E90012AC7E900028A3E0FF12AC7E90002AE005
:0CB6F900FF12AC7E1200167F0202C2B0ED
:04BFBD00AD07AC061A
:10BFC100ED7807CEC313CE13D8F944A054FEFF1267
:10BFD100BACC900033EFF07F0212C2B0900033E090
:01BFE100FF60
:01BFE200223C
:08BACC00900034EFF0A3EDF04F
:10BAD40012C2DE900034E0FF12AC7E900035E0FF2D
:10BAE40012AC7E12C2DE900034E04401FF12AC7E40
:10BAF40012BD89900036EFF0120016900036E0FF78
:01BB0400221E
:10BFE30090005512C1CBEBF012C2DE900055E0FF7A
:10BFF30012AC7E900056E0FF12AC7E900057E0FF3B
:06C0030012AC7E020016E3
:08B99D0090003412C1CBEBF065
:10B9A50012C2DE900034E0FF12AC7E900035E0FF5D
:10B9B50012AC7EE4900038F0900037E0FFA3E0C3BE
:10B9C5009F5010900036E0FF12AC7E900038E004E6
:06B9D500F080E5020016FF
:09B89D0090005512C1CB124A269D
:10B8A60012C2DE900055E0FF12AC7E900056E0FF1B
:10B8B60012AC7EE490005BF090005AE0FFA3E0FE3D
:10B8C600C39F501190005712C1BE12AC7E90005B10
:08B8D600E004F080E30200161B
:09BB0500900020EFF0A3124A2683
:10BB0E0012C2DE900020E0FF12AC7EE4900025F021
:10BB1E00900024E0FFA3E0FEC39F5011900021127D
:10BB2E00C1BE12AC7E900025E004F080E302001648
:0100120022CB
:10C2DE00D291120012D290120012C291120012C20A
:02C2EE0090229C
:0D001600C291120012D290120012D291225B
:10AC7E00C290EF30E703D38001C312C1B4EF30E6C8
:10AC8E0003D38001C312C1B4EF30E503D38001C3F7
:10AC9E0012C1B4EF30E403D38001C312C1B4EF305C
:10ACAE00E303D38001C312C1B4EF30E203D38001BA
:10ACBE00C312C1B4EF30E103D38001C312C1B4EFAC
:10ACCE0030E003D38001C312C1B4C290C290D291BE
:09ACDE00D290D290D290C29022D3
:10BD8900E4FFD291120012C290FDFCD290EF25E09F
:10BD9900FF3091034401FFC2900DBD00010CED6419
:0FBDA900084C70E7120012D290D290D290C29044
:01BDB8002268
:106EB3000D0A504F52000D0A4D454E55000D0A491B
:106EC3004E000D0A5550000D0A444E000D0A53455D
:106ED3004C000D0A4552524F52000D0A504F574570
:106EE30052206B657920000A0D627573772030207C
:106EF300312037452038300D0A000A0D627573774B
:106F0300203020312037452038310D0A000A0D6228
:106F1300757377203020312037452038320D0A0031
:106F23000A0D6275737720302031203745203833BE
:106F33000D0A000A0D627573772030203120374522
:106F43002038340D0A000A0D627573772030203122
:106F53002037452038350D0A000A0D6275737720F6
:106F63003020312037452038360D0A000A0D62756E
:106F73007377203020312037452038370D0A000A37
:106F83000D62757377203020312037452038380D56
:106F93000A000A0D627573772030203120374520AF
:106FA30038390D0A000A0D627573772030203120BD
:106FB30037452038410D0A000A0D6275737720307A
:106FC30020312037452038420D0A000A0D627573BF
:106FD30077203020312037452038430D0A000A0D31
:106FE30062757377203020312037452038440D0AED
:106FF300000A0D6275737720302031203745203821
:10700300450D0A000A0D6275737720302031203751
:10701300452038460D0A000D0A4D454E554B45593E
:10702300206B657920000D4F53445F4C4F434B0059
:107033000D0A4556454E544B4559206B65792070D2
:10704300726573736564000D0A5B4D53475D436856
:1070530065636B4B6579496E28293D3E2049735220
:10706300756E32383335436C6B54756E653D2562EE
:047073007800202061
:107A2E0041014C004101510041014F0041014D0007
:107A3E00410150004101520041014B00C11601703D
:037A4E0000C1185C
:10C2F000E5A0F454906490227C007D0AAE020247CF
:01C300001329
:0EC39E0012C4C6EF30E10302002E12BCC02212
:0DC3AC0012C4C6EF30E1057F01127232228B
:0DC3B90012C4C6EF30E1057F02127232227D
:10C2440012C4C6EF30E10B3020057F010283830264
:0BC25400788A7F011288F61297E22220
:10C25F0012C4C6EF30E10B3020057F020283830248
:0BC26F00002E7FFF1288F61297E222DB
:1093C600900004EFF0A3EDF012C3D2900004E01277
:1093D6004A8B944A00944A01944A02944A03944A56
:1093E60004944A05944A06944A07944A08944A09FA
:1093F600941B0C947010947511945B1594881694B4
:109406005120945621942F3894383A94963E947A63
:109416003F0000949D74FF900108F0A3F0900005B2
:10942600E060037F01227F002212C0FC129AC17FF6
:10943600012212C4C6EF30E40512C2C88003129599
:10944600797F0122900005E07F012212C3AC80479C
:1094560012C3B98042900005E060037F012212C466
:10946600C6EF30E13212788A802D12C2448028126B
:10947600C25F8023900005E060037F012212C39E35
:10948600801512C4C6EF30E10E7FF41294A0800757
:0A9496007D017FC0122DE07F01224E
:104AEB009000017401F0301826201623C3E565955C
:104AFB0074FFE5649573FEE5639572FDE562957150
:104B0B00FCE47B0AFAF9F8D31249605002C2187F11
:104B1B000112B167900002EFF07003024F38E024EE
:104B2B00F8601C24F8602024F0602424E060282422
:104B3B00C0602C247C70307BFF7A6E79B3802E7B27
:104B4B00FF7A6E79B980267BFF7A6E79C0801E7BE7
:104B5B00FF7A6E79C580167BFF7A6E79CA800E7BE1
:104B6B00FF7A6E79CF80067BFF7A6E79D512BF49BB
:104B7B007FAC7E0012BFBD900003EFF012C2F0704D
:104B8B0053E070507FD07E0712B67612C2F06008E9
:104B9B00900151E06403703C7D017FAC7E0012B646
:104BAB00BE9000037401F0FF128E8DE4900002F0B2
:104BBB007FD07E0712B67690013CE030E505128976
:104BCB00F3800F12C38FE490014EF0900151F0125D
:104BDB009579C20790013CE0600C900002E06410F4
:104BEB006004E4024DF190014EE07013900003E07D
:104BFB00700D900151E06007E4F07F0112C19690B7
:104C0B000002E0601BA3E0701712C2F0601290016B
:104C1B003CE0700C12B2C4E4124F61C2077F012258
:104C2B0012C3D2900002E0124A8B4EC0024C5404C5
:104C3B004D58084F0B0C4E18104DAE204DCB404D20
:104C4B00FA804EC89000004F387BFF7A6E79DD12E8
:104C5B00BF49201603024D2AE570C3940F4005E4AB
:104C6B00F57080020570E570124A8B4CAF014CB7A2
:104C7B00024CBF034CC7044CCF054CD7064CDF0787
:104C8B004CE7084CEF094CF70A4CFF0B4D070C4D4A
:104C9B000F0D4D170E4D1F0F00004CA77BFF7A6EAB
:104CAB0079EA80767BFF7A6E79FD806E7BFF7A6F77
:104CBB00791080667BFF7A6F7923805E7BFF7A6F3A
:104CCB00793680567BFF7A6F7949804E7BFF7A6FFE
:104CDB00795C80467BFF7A6F796F803E7BFF7A6FC2
:104CEB00798280367BFF7A6F7995802E7BFF7A6F86
:104CFB0079A880267BFF7A6F79BB801E7BFF7A6F4A
:104D0B0079CE80167BFF7A6F79E1800E7BFF7A6F0D
:104D1B0079F480067BFF7A70790712C295803A206E
:104D2B00122390013CE06003024F38FD7F0C12937D
:104D3B00C6900001EFF0E49000EDF0FD7FABFE12AA
:104D4B00B6BE024F38C212129579024F387BFF7AEA
:104D5B0070791A12BF4930160AAF707E0012A8C0C4
:104D6B00024F38201238900003E0700D124F617B18
:104D7B00FF7A707929E4024F0212C4C6EF30E10BBF
:104D8B00302002801012788A024F3812C4C6EF30DE
:104D9B00E203024F387F3F124F57F0024F387F0923
:104DAB00024EB820121512C4C6EF30E1077F013056
:104DBB002023801B7F10124F57802B7F06024EB88B
:104DCB0020122712C4C6EF30E1117F0230200612E9
:104DDB008383024F38127232024F38E4FD7F111277
:104DEB0093C6900001EFF07F01227F07024EB8209F
:104DFB0012169000EEE0700A12C4C6EF30E10312F7
:104E0B00BA9112A370024F387F05024EB890013C45
:104E1B00E0FF6009900102E07003024F38EF60463B
:104E2B00900150E07040900102E0640170387FAC5B
:104E3B00FE12BFBDEF64016003024F3890013CE0EE
:104E4B0030E50312C38F9001507401F090014BE0D9
:104E5B00700890013AE0900152F090014B7401F010
:104E6B0090013AF0803F201242900150E06017E42D
:104E7B0090013CF090013E7407F0E4900150F090EB
:104E8B00013AF0024F389000EEE0700A12C4C6EF00
:104E9B0030E10312BA9190013AE0700404F08005FE
:104EAB00E490013AF012B0B3024F387F04126ABAA1
:104EBB00D217024F387BFF7A707933803E9001799D
:104ECB00E064147068301865301614C2167F011236
:104EDB00C1967D027FA07E0012BE75C218800ED2D5
:104EEB00167F0212C196AF707E0012A8C07BFF7AAC
:104EFB0070794AA216E433900028F012BF49802D36
:104F0B00900179E0641770257F0212C1967F647E51
:104F1B000012B676124F3E124F3E7F0112C196D24F
:104F2B001885657485647385637285627190000161
:024F3B00E0FF95
:104F3D00227F0112C1967F647E0012B6767F021227
:104F4D00C1967F647E0012B67622E4FD1293C69060
:104F5D000001EF22FF128E8D7FF412C2B012C38FAB
:044F6D0012957922FE
:10B16700A20D9221C20D30103AE5307036D22190EF
:10B177000147E0FEB40313A3E0B4020EA3E0700A94
:10B18700A3E0B401057530408017EEB403139001B6
:10B1970048E0B4010CA3E07008A3E0B402037530E3
:10B1A70020C2102021037F0022EF6003AF3022204E
:07B1B7000C03AF30227F0002
:01B1BE00226E
:08A8C000900004EEF0A3EFF09C
:10A8C80078067C007D017BFF7A7079757E007F02B7
:10A8D800124683900004E0FAA3E0FBFF12C2F8EDF1
:10A8E8002430900007F0AF0312C2F8900004EEF095
:10A8F800A3EFF02430A3F07BFF7A877994129DFEB2
:10A908007F1012C4B87D027FA07E0012BE757B0244
:10A918007D377FA07E0012BD587B017A00790690B2
:10A9280000547402F07FA07E0012BCF47D017F0207
:08A9380012B7D47F0102BE1921
:107716000D0A43485F5457323833352825303278BE
:10772600292C526561644465636F646572283078FC
:107736003636293D256278000D0A2043485F4156BA
:107746002825303278290020200A0D000A0D62759E
:10775600737720302031203745203839000A0D62F2
:10776600757377203020312041312031310A0D00E8
:107776000A0D62757377203020312041322044375C
:107786000A0D000A0D6275737720302031203745C7
:107796002038390D0A00FE0000000000000000003D
:1077A60000000000000000014356425300000000A4
:1077B60000000000000000000243414D204400008C
:1077C60000000000000000000003415620200000D9
:1077D60000000000000000000000000000000000A3
:1077E6000000000000000000000000FE0000000095
:1077F600000000000000000000000000014E54538D
:10780600430000000000000000000000000250419C
:107816004C000000000000000000000000000353C0
:107826004543414D00000000000000000000000537
:1078360050414C4D00000000000000000000000018
:107846000650414C4E000000000000000000000001
:10785600000750414C3630000000000000000000D8
:107866000000044E545343342E343300000000000D
:107876000000000000000000000000000000000002
:0478860000000000FE
:107A5100C10BC104C1024100F500011D004400F643
:107A610000000000440103000000004100EF00415C
:107A710000EA00C185011F0001130001110001127C
:107A810000011E00011500011400011A004100FE51
:107A9100004100EB004100F1004100FC004100F415
:107AA10000C1004100FD00C106C101C183C107C180
:017AB1000ACA
:10B7050074F62FF582E43400F58322EF75F011A469
:10B71500249CF582E43477F583E49322F074032FB7
:10B72500F582E43401F583229000010246C2E4FB70
:10B735007DFF7F8A22E4F51BF51CF519F51822908B
:06B74500016CE004F0229B
:06B45D0090001E124A26B9
:10B46300E4FE1246A9900021F012B72D8029900026
:10B473001E124A061246A9FFB4FF0612B72DF46046
:10B4830022900022EFF0FD12B72D900023F0FB90E5
:10B493000021E0FF12BFE390001FE475F0021247A2
:09B4A3009E80CB12B73302BFE317
:10A7BD0090001DEFF07BFF7A61792912B45D12B71D
:10A7CD003312BFE390001DE024FE601314601024CB
:10A7DD00FD600C240624F85011240A600D80117BB5
:10A7ED00FF7A62797912B45D800690001D7401F0D4
:10A7FD009000FBE0B4051390010CE07002800B900B
:10A80D00001DE014FF12C1EF800312C0BD7B157D4A
:10A81D00297F8A12BFE37B067D5C7F8A12BFE37FAF
:10A82D000B7E0012BFBD128CC212C488128F6FC274
:02A83D002322D4
:10C301007D017F8A12BACCEF30E7037F01227F00E3
:01C311002209
:10971D00E490001AF0A3F09000FBE0B4050990016D
:10972D000CE060030297D0E4900018F012B26E9036
:10973D000019EFF090001BE004F0E0C3940A400321
:10974D000297D0900019E0FF64FE60E09000F0E019
:10975D00FEEF6E60D7900018E0FFA3E0FEB50706A0
:10976D00A3E004F0800AE490001AF0900018EEF0E7
:10977D0090001AE0C3940240B3900019E0FF700B03
:10978D0012BB3E90001C7401F080309000F0E07030
:10979D00119000EEE0700630070312C38F1297D1BF
:1097AD0080149000EEE0700630070312C38F1297FD
:1097BD00D17F3212C2B0E490001CF090001CE02466
:0397CD00FF920AFE
:1097D00022900019E0FF12BB3E900019E0FF12A793
:0297E000BD22A8
:10C09A0012C301EF60037F01227D1C7F8A12BACC92
:10C0AA00EF54F0FF30E7037F0122EF5470C4540FBE
:02C0BA0004FF81
:01C0BC002261
:10B10E0012C09AAB07EB24FE601914601624FD6082
:10B11E0012240224FC500424077017751B00751CA2
:10B12E003C8006751B00751C32E475196B75183D55
:10B13E00800312B73AF517F516E4FFEF75F011A478
:10B14E0024F1F582E43477F583E493FEB50301220E
:08B15E00EE60030F80E57F00A5
:01B1660022C6
:06C4CC009000F0E0FF22E9
:10BB3E009000F0EFF024FE601914601624FD6012E0
:10BB4E00240224FC500424077017751B00751C3C3E
:10BB5E008006751B00751C32E475196B75183D80D7
:09BB6E000312B73AF517F516228F
:06C4D2009000FBE0FF22D8
:10C0FC007F0112B710FE9000FBE0FDEE6D60030FA8
:0EC10C0080F00F12B71070027F0112B710FF03
:01C11A002202
:09C45400302103D2B722C2B72245
:109AC1009000FBE06F7003029B5F43E8049000FB92
:109AD100EFF09000F0E0FF12A7BD9000FBE024FD45
:109AE10060202402703A12C02E129B60C2957D66DE
:109AF1007F8A12BACC90002AEFF07BFF7A77791631
:109B0100800E12C052129B60D2957BFF7A77793E0C
:109B11009000FBE0FF900028E4F0A3EFF012BF49B2
:109B210012B1BF9000FBE0FF12C4307F1E12C2B021
:109B310012971D129579900141E0B4010553E8FB9C
:109B41008005E4FF12A1B57F6412C2B07BFF7DD016
:109B51007F8A12BFE37BFF7DD17F8A12BFE322C2DE
:099B61001BE4FF1288F6C29422F5
:0FC37100C22112C46F43E804C2B5E4FF02C196B3
:0CC3D20012B9DB900108EEF0A3EFF0229E
:09C45D00900108E0FEA3E0FF22BB
:10905000C374FF9FFFC39400400CEF94645007E477
:10906000900002F0804BEFC39464400DEF948C505D
:10907000089000027414F08038EFC3948C400DEF18
:1090800094B450089000027428F08025EFC394B483
:10909000400DEF94DC5008900002743CF08012EF19
:1090A000C394DC400CEFD394FF5006900002744B45
:1090B000F090014DE0702C9000F5E0C3940F500546
:1090C000E004F08024900002E0FFE51DD39F4004FF
:1090D000151D8008E51DC39F5002051DE49000F595
:1090E000F08006900002E0F51D7DFF7F8A12BACC69
:1090F000900001EFF012B73312BFE37DBE7F8A12FA
:10910000BACCEF54CF4410FB7DBE7F8A12BFE37D03
:10911000C47F8A12BACCEF5480451DFB7DC47F8A80
:0F91200012BFE3900001E0FB7DFF7F8A02BFE3F7
:10C33400E4900140F090010BF090013E7408F0226B
:1087F1007FAB7E0012BFBD9000EDEFF07FB07E0039
:1088010012BFBD9000EEEFF07FAA7E0012BFBD90B7
:108811000136EFF07FAD7E0012BFBD900102EFF097
:108821007FA07E0012BFBD90014DEFF07FB87E00AA
:1088310012BFBD9000FFEFF07FB77E0012BFBD9069
:1088410000FAEFF07FB97E0012BFBD9000ECEFF0AF
:108851007FBF7E0012BFBDEF24FF92097FC57E005E
:1088610012BFBD900101EFF07FAF7E0012BFBD903E
:10887100013AEFF07FA51288EEEE9001377006E025
:108881004401F08004E0540EF07FA61288EEEE90D1
:1088910001387006E04401F08004E0540EF07FA737
:1088A1007E0012BFBDAE07EE9001397006E04401B3
:1088B100F08004E0540EF07FA87E0012BFBDAE0729
:1088C100EF90013B7006E04401F08004E0540EF0AB
:1088D10012C4A8900179EFF012C4B090017AEFF0C0
:0C88E1007FB27E0012BFBD9000F3EFF0EC
:0988ED00227E0012BFBDAE07227D
:107593007BFF7A77794D12C2959000EEE070491225
:1075A300C4C6EF20E142300A2920073CD207E49009
:1075B30000F2F07FA3FE12BFBDEF7009900175E0EA
:1075C30054EFF080069000F27403F07F06128E8D64
:1075D300801630071312C4C6EF20E60CC2077FA340
:1075E3007E0012BFBD129579125A9B900000EFF0F6
:1075F30012664290013CE0701B900140E0601590E0
:107603000136E0FF90010BE0C39F400812C009E47C
:1076130090010BF090014DE0700E7DC97F8A12BA84
:10762300CC900000EFF080027FFF129050124AEBE3
:10763300EF70030277159000F2E06401707312C4D7
:10764300C6EF20E16C12C4C6EF20E2657FA37E0083
:1076530012BFBDEF605B90013CE070509000EEE024
:10766300700FFD7F0212B7D4900175E054EFF080E4
:107673003B900137E0540DF0900138E0540DF09049
:107683000139E0540DF090013BE0540DF012AE1CB3
:10769300900137E04402F0900138E04402F0900199
:1076A30039E04402F090013BE04402F0E49000F240
:1076B300F012A07E12C4D2EF1424FD5002800A12ED
:1076C300C4C6EF20E10312971D900177E0B40105D2
:1076D30053E8FBE4F0900177E0B4020343E8087D4C
:1076E300B27F8A12BACCEF600302759C7BB07DFD3A
:1076F3007F8A12BFE3E4FF12C1967FF47E0112B6C4
:10770300767F0112C1967B307DFD7F8A12BFE30233
:02771300759C63
:017715002251
:10AEE000C2B5C22112C46F7F0A7E0012B676C2B408
:10AEF00012B40E7F0112C19612C17812C33412A58A
:10AF0000191285CB7F0A7E0012B6761287F1900166
:10AF10003AE0900152F07FA97E0012BFBD12B54702
:10AF2000E490013CF07BFF7A77795212C2957F035F
:10AF300012A1B59000EDE06003127593128BD880DA
:01AF4000F21E
:108BD800E4900001F0125A9B900000EFF0601BE057
:108BE800FF12664290013EE0B40803D38001C340FF
:108BF800197F0112A1B5D221800D900000E0FF126B
:108C0800664212C371C22112C46FE4FF12B167EF4A
:108C18006018B40415125A9BEF700F9000ED04F021
:108C2800FD7FAB7E0012B6BE805D900177E06402E6
:108C380070A312002A43E8087F107E0012B676D28D
:108C4800B57B09128CBA7F0412C2B07B0B128CBAA6
:108C58007F0A12C2B01200297B0F7DD57F8A12BF0E
:108C6800E37F0512C2B07BFF7A77796312C2957FE2
:108C7800647E0012B6767BFF7A77797612C295E425
:108C8800900177F0028BDD12957912AE1C7FA37EDE
:108C98000012BFBDBF01069000F27403F0C2077F47
:108CA8000112A1B5D22112C46F7BFF7A77798902AC
:028CB800C29563
:088CBA007DD57F8A12BFE32281
:10824200900102E0600A640170359000EAE0702F4C
:10825200300503028382D205E490016CF090016C38
:10826200E0FFC39404500E12B705E412B721E4F004
:1082720012B74480E8E49000EFF09000EAF022C2E6
:10828200059000EAE0FF9000EFE0FED39F406AEE27
:108292009F90016DF0E490016CF090016DE0FF9011
:1082A200016CE0C39F504AE4FF12B722E0FE12B70E
:1082B20005E06E600B90016EEE12B721E4F08005CE
:1082C2000FEFB404E4E4FF12B705E0FE90016EE0A4
:1082D200FDEED39D401012B705E014F012B705E091
:1082E200FE12B722EEF00FEFB404DC12B7440282A2
:1082F2009C9000EAE09000EFF09000EFE090016DBA
:10830200F0A37405F0E490016CF090016CE0FFC3FF
:108312009404502812B705E0FF90016DE0FEEFB51E
:10832200061590016CE0FF90016EF0EEB4010DEFC6
:10833200049000FDF0800512B74480CE7F0112C286
:10834200B090016EE014600D14600F1460142403E9
:108352007025E48025E4F5148022E4F514F515C2B5
:108362001922E4F514F515F51A9000EBE0640660A5
:108372000FE49000F4F022E4F514F515F51AC21991
:0183820022D8
:1086E500A10AA20AA000A310A410A591A601A701A2
:1086F500A822A910AA00AB62119E00000100CC0CB3
:1087050002700000005000000F4000119E30310043
:10871500AFC81202F1100800500030004000119E51
:108725003100029000040170000000A0F5000F4028
:1087350000119E3100029000030170000000F0F569
:10874500000F4000119E3230000C0D0A01B10404E7
:108755000050C800044000119E313000160D0F0274
:108765003101000050A0000840119E3330100C98D4
:1087750028013101000000B400084000119E31308D
:10878500000C020F023101000050A000084000114A
:108795009E3130000A0502013101000050A0000899
:1087A5004000119E32300040090204B1000890E0FB
:1087B50000043340119E3130008A091808B08A053B
:1087C500B05026083340119E30B40040270201F115
:1087D500000000E0000033C100119E303C109060A5
:0C87E5001502F102044050C80033C1002E
:10A62C00900051FFE475F001124A0FEF0246EF90D3
:10A63C00004FE0FEA3E0FF22EF14FB7D9E7F8A22F9
:10A64C0090001B124A0690001EE0F58275830002F2
:10A65C0046C2E0A4FFA3E5F0F0A3EFF07DA07F8A53
:10A66C002290005BE0FCA3E0FD22EEF0A3EFF0A350
:10A67C0022124713900059EEF0A3EFF04E22A3E004
:10A68C00FB7D967F8A2212471390004FECF0A3EDCE
:10A69C00F022F07B047D947F8A22EDF0EFC39401CD
:08A6AC0022E4FB7D947F8A2269
:10BE480012BE6A900028F0E4A3F012BE6AFF9000C8
:10BE580028E06F700C900029E004F0E0C3940A40D9
:01BE6800E9F0
:0CBE6900227D957F8A12BACCEF54402253
:10AFFD00E490000DF0E490000CF090000CE0FFC325
:10B00D009408502FA3E075F008A4FEEF2E7D9C123E
:10B01D00B04DFFA3E075F0089018EE1249FAE582E5
:10B02D002FF582E43583F583E4937D9D12B04D04B5
:0FB03D00F080C790000DE004F0E0C3940240B62D
:0CB04C0022FB7F8A12BFE390000CE02280
:10AF4100900003EFF0A3124A2612AF8F44017D94C3
:10AF510012AF98900003E07D9912AF987DE07F8A4F
:10AF610012BACCEF4410FB7DE07F8A12BFE3900060
:10AF710004124A0690005A741BF07D9A7F8A12B817
:10AF81009D12AF8F54FEFB7D947F8A02BFE37D94B7
:0EAF91007F8A12BACCEF22FB7F8A12BFE32226
:10BBB0007B607D9B7F8A12BFE3E4900002F09000DF
:10BBC00002E0FFC394E2501FEF94C6501AEF75F0E5
:10BBD0001BA424FEF9741835F0FA7BFF12AF4190D4
:07BBE0000002E004F080D731
:01BBE700223B
:03B91F0090001481
:10B9220012A6A64036EFD39408503012A64412BF96
:10B93200E390001475F00812A65E12BACCEF54F030
:10B94200FD900015E04DFB7DA07F8A12BFE39000C1
:0BB9520015A3E0FB7DA17F8A12BFE37C
:01B95D0022C7
:03B85B0090001446
:10B85E0012A6A64039EFD39408503312A64412BF55
:10B86E00E390001475F00412A65E12BACCEF540FDA
:10B87E00FD900015E0C454F04DFB7DA07F8A12BFF1
:0EB88E00E3900015A3E0FB7DA27F8A12BFE3CA
:01B89C002289
:05BE190090001DEFF098
:10BE1E0012BE487D9C7F8A12BACC90001EEFF09025
:10BE2E00001DE06006A3E054EF800690001EE04483
:09BE3E0010FB7D9C7F8A12BFE31A
:01BE470022D8
:03B7D40090001DC5
:10B7D70012A6A6403BEFD39408503512A64412BFD9
:10B7E700E37D9F7F8A12BACC90001EEFF090001D78
:10B7F700E06007A3E04401F0800790001EE054FEDC
:10B80700F012BE4890001EE0FB7D9F7F8A12BFE3C7
:01B81700220E
:10B5E000EFC394014006EFD394084004E4FEFF2229
:10B5F00012A64412BFE37DA07F8A12BACCEF540F8B
:10B60000900028F0A3E4F07DA17F8A12BACC9000CC
:10B6100028E0F0A3E04FF0900028E0FEA3E07803DC
:0AB62000CEC313CE13D8F9FF7E004D
:01B62A0022FD
:10B21700EFC394014006EFD394084004E4FEFF22F5
:10B2270012A64412BFE37DA07F8A12BACCEF54F076
:10B23700C4F8540FC868FEE4C454F048900028F0DE
:10B24700A3CEF07DA27F8A12BACC900028E0F0A3AB
:10B25700E04FF0900028E0FEA3E07802CEC313CEC3
:06B2670013D8F9FF7E0080
:01B26D0022BE
:10BCF40090004F12A676124A2612A69F12BFE39016
:10BD0400004F12A68A12BFE3900051124A06900017
:10BD140054E090005AF07D977F8A12B89D12A6AD28
:03BD240002BFE378
:10BD580090003012A676EDF0A3EB12A69E12BFE378
:10BD680090003012A68A12BFE3900032E0FBA3E0F5
:10BD7800900037F07D987F8A12B99D12A6AD02BF58
:01BD8800E3D7
:10BE750090003012A676ED12A69E12BFE390003018
:10BE850012A68A12BFE3900032E0900037F07B20C3
:0DBE95007D977F8A12B99D12A6AD02BFE312
:0984AA0090004F12A676124A263A
:1084B300900056124A26E4900055F0900054E06470
:1084C3000A707990005B7427F0A37410F012A66D04
:1084D300C3940AEC9400405612A63B12A67D601288
:1084E300900059A3E0243012A62C900055E004F02C
:1084F3008015900055E0600F900051E475F0011273
:108503004A0F74301246EF12A63B90005BE0FAA3C9
:10851300E0FBFDAC0212A6927D0A7C00AF03AE0223
:1085230012471390005BEEF0A3EFF00284D09000AB
:108533004FA3E02430A312A62F0285BE900054E07F
:10854300641060030285C890005B7410F0A3E4F02C
:1085530012A66DC39410EC9400404412A63B12A6DD
:108563007D6028900059E0FEA3E0FFC3940AEE94D7
:10857300004005EF24378007900059A3E024301210
:10858300A62C12A63B12A66D12A69290005BE0C425
:10859300F854F0C868F0A3E0C4540F48F080B11257
:1085A300A63BC3940AEE94004005EF24378007905E
:1085B300004FA3E02430FFA312A630900051124ACB
:0785C30006E41246EF7F0100
:0185CA00228E
:06C27A0090004F124A265D
:10C28000E4FF90004FE475F001124A0F1246A960D6
:04C29000030F80EE2A
:01C294002287
:069DFE0090001B124A2632
:109E04007DFF7F8A12BACC90001FEFF054FEFB7DD9
:109E1400FF7F8A12BFE37DE07F8A12BACCEF54EF52
:109E2400129E8DE490001EF012A64CFF604290003A
:109E34001EE02401FDE433FC90001B124A06E92DC8
:109E4400F9EA3CFAEF129E9690001EE02401FFE42A
:109E540033FE90001B124A06E92FF9EA3EFA740514
:109E6400129E9612A64C04FF90001EE02FF080B8BC
:109E74007DE07F8A12BACCEF4410129E8D90001FB1
:099E8400E0FB7DFF7F8A02BFE3D1
:109E8D00FB7DE07F8A12BFE322900024F07F8A12CF
:039E9D00BB0522E0
:100066000A0D6D6F646520300A0D000D0A5B4D5355
:10007600475D536574345769646553637265656E8D
:100086002829203D3E2053637265656E20746F20DB
:10009600343A33202121000A0D6D6F646520320A3F
:1000A6000D000D0A2B2B284F5344486967684D6590
:1000B6006E755F73756229204F53444D656E754C9E
:1000C6006576656C3A2564000D0A52455345545FC2
:1000D6004D6F6E69746F7256414C5545000A0D7925
:1000E600766D697820340A0D000A0D79766D697887
:1000F60020300A0D000A0D79766D697820310A0DD7
:10010600000A0D79766D697820320A0D000A0D799C
:10011600766D697820330A0D00436865636B205657
:100126004741204361626C65004F7574204F66201D
:1001360052616E676500FE62596B62714C2F713AAF
:1001460034FF001213566F6C756D65002020204138
:1001560075746F2041646A757374696E67202E2EFC
:100166002E2E20202000436F6D706F73697465001A
:1001760056657273696F6E004C4344205665727300
:10018600696F6E004456522056657273696F6E0031
:10019600574946492049500057494649204D414351
:1001A6000047415445574159004F534420506F73FF
:1001B6006974696F6E004F534420506F73696369A9
:1001C6005F6E004F534420FE5465714667FF004C36
:1001D600616E6775616765004C616E677565005392
:1001E600707261636865004964696F6D6100FE57EE
:1001F60056714667FF004272696768746E6573736D
:10020600004C756D696E6F7369745F0048656C6C40
:1002160069676B656974004272696C6C6F00FE40B9
:1002260024715F60FF00436F6E74726173740043E4
:100236006F6E747261737465004B6F6E7472617366
:100246007400436F6E74726173746500FE394F718A
:100256005F60FF0053617475726174696F6E00535D
:10026600AA74746967756E67005361747572616309
:10027600695F6E00FE4A2C33715F60FF004875654A
:1002860000546F6E616C69745C0046617262650051
:10029600546F6E616C6964616400FE4A5448715F14
:1002A60060FF0053686172706E6573730041637519
:1002B60069745C00536368AA726665004167756479
:1002C600657A6100FE463933715F60FF00526573DF
:1002D600657400445C66617574004772756E64658A
:1002E600696E7374656C75670050726564657465D4
:1002F600726D696E6163695F6E00FE66246DFF0054
:10030600576964652053637265656E0057494445B5
:1003160020FE6D3B714667FF004D6972726F720079
:100326004A756D70005345512054696D65205374AC
:100336006570004A756D702041560043616D204F0F
:1003460075740052657475726E00526563616C6CEB
:10035600004D6F6E69746F7220526563616C6C003C
:1003660044565220526563616C6C0045786974008E
:1003760020007665722041302E31310054696D655A
:100386004F757420536574757000476175676520F5
:1003960053657475700047617567652052656361C2
:1003A6006C6C005052494F5249545900526576655B
:1003B6007273204D6F6465005265736F6C75746956
:1003C6006F6E00465053005175616C697479005226
:1003D60065636F7264204D6F6465005265636F726A
:1003E60064204C656E677468005072652D616C619F
:1003F600726D00506F73742D7265636F7264004185
:1004060070706C79005265636F72645374617274B4
:10041600005265636F726453746F7000536E61703F
:1004260073686F7400446174652054696D65005982
:10043600656172004D6F6E74680044617900486FA3
:100446007572004D696E00536563004461796C698D
:10045600676874536176696E6700426567696E65A1
:1004660000456E64005765656B0054696D65005400
:10047600696D65205A6F6E650052657475726E26D9
:100486004170706C7900466F726D61742053442020
:100496004361726400417564696F205265636F72CF
:1004A60064004669726D7761726520557064617487
:1004B6006500596573004E6F004669727374204E6D
:1004C600756D626572005365636F6E64204E756D5F
:1004D600626572005468697264204E756D62657259
:1004E60000466F75727468204E756D6265720043C2
:1004F60068616E67652050617373776F7264004F31
:1005060076657257726974650044697220496D6137
:1005160067650054726967676572205647410054E3
:100526007269676765722044656C617900496E6619
:100536006F726D6174696F6E0055706461746520C9
:10054600436F6E66696700534420636F7665722059
:100556004465742E0043414D20410043414D2042E5
:100566000043414D20430043414D205200446973EE
:10057600706C61790044565220446973706C6179DD
:100586000044697374616E63652047617567650031
:100596004F5344204C6F636B0050617373776F72D7
:1005A6006400536F75726365205469746C6500430B
:1005B600564253204100435642532042004356427E
:1005C60053204300435642532052004175746F2016
:1005D600446179264E696768740044697220496DE2
:1005E6006167650044697220496D61676520410055
:1005F60044697220496D6167652042004469722032
:10060600496D6167652043005265617220536574C8
:1006160075700043414D20410043414D2052004337
:10062600414D20420043414D20430043414D20446B
:10063600000200456E676C697368004672616E7BE6
:10064600616973004465757473636800457370610E
:100656007E6F6C00FE6A2356FF200004014D6F6416
:100666006531004D6F646532004D6F64653300552A
:10067600736572004D6F646531004D6F64653200BD
:100686004D6F64653300557361676572004D6F6425
:10069600757331004D6F64757332004D6F647573F9
:1006A600330042656E75747A6572004D6F646F3102
:1006B600004D6F646F32004D6F646F330055737574
:1006C6006172696F00FE3A34FF3100FE3A34FF3240
:1006D60000FE3A34FF3300FE47515B71FF200008ED
:1006E600004175746F004E5453430050414C005303
:1006F6004543414D004E545343342E34330050414C
:100706004C4D0050414C4E0050414C3630000500D7
:100716004E6F726D616C00576964650050616E6F53
:1007260072616D610046756C6C000500FE1A1BFF58
:100736002000FE1C1DFF2000FE1E1DFF2000FE1FC8
:1007460020FF2000FE1F21FF200009004F666600E3
:1007560043433100434332004343330043433400B1
:1007660054310054320054330054340002004F4ECA
:10077600004F46460002004D4952524F52004E4F1E
:10078600524D414C000300446179004155544F00DD
:100796004E6967687400020031363A3900343A33DC
:1007A600000200004F4E004F464600040053494EDB
:1007B600474C45004455414C00545249504C450065
:1007C600412B422C422B410007004100412B4200A5
:1007D600412B4300412B5200412B424300412B4207
:1007E6005200412B43520007004200422B41004277
:1007F6002B4300422B5200422B414300422B4152D5
:1008060000422B43520007004300432B4100432B79
:100816004200432B5200432B414200432B415200DE
:10082600432B4252000A005200522B4100522B42E7
:1008360000522B4300522F414200522F4143005297
:100846002F424300522B414200522B414300522B70
:100856004243000E00515541440053455100412B7F
:100866004200432B5200412B5200522B4200412B97
:100876004300432B4200522F414200522B4142007B
:1008860041004200430052000500515541440043D7
:10089600414D410043414D420043414D43004341D8
:1008A6004D5200020000373230783438300033358C
:1008B60032783234300005000035003130003135F1
:1008C600003230003235003330000500004C6576CA
:1008D600656C2D31004C6576656C2D32004C657665
:1008E600656C2D33004C6576656C2D34004C657651
:1008F600656C2D35000300004E6F6E65004E6F72FD
:100906006D616C00416C61726D0006000031202043
:100916006D696E003220206D696E003320206D698E
:100926006E003420206D696E003520206D696E00E2
:100936003130206D696E0005000031352073656326
:10094600003330207365630036302073656300081A
:100956000000313520736563003330207365630012
:100966003630207365630002000044697361626C6F
:100976006500456E61626C6500040000466972732D
:1009860074005365636F6E64005468697264004650
:100996006F75727468000400410042004300520003
:1009A6001900002D3132002D3131002D3130002D4E
:1009B60039002D38002D37002D36002D35002D3409
:1009C600002D33002D32002D310030003100320071
:1009D6003300340035003600370038003900313036
:1009E6000031310031320002005020004420000363
:1009F6000032343030003438303000393630300090
:100A06000200FE1819FF2000FE1A1BFF200004003A
:100A1600FE1C1D1E1F2021FF2000FE222328292A3E
:100A26002BFF2000FE242528292A2BFF2000412BFE
:100A3600422C422B41000E00FE262728292A2BFF96
:100A4600200053455100412B4200432B5200412BBD
:100A56005200522B4200412B4300432B4200522F9F
:100A6600414200522B4142004100420043005200E5
:100A760056474100FF0176FF0176FF0176FF0176BA
:100A8600FF0176FF017EFF017EFF017EFF017EFFF3
:100A9600017EFF018AFF018AFF018AFF018AFF01A9
:100AA6008AFF0196FF0196FF0196FF0196FF0196C8
:100AB600FF019EFF019EFF019EFF019EFF019EFF1B
:100AC60001A7FF01A7FF01A7FF01A7FF01A7FF01DC
:100AD6001FFF012FFF012FFF012FFF012FFF013CF9
:100AE600FF0149FF01AFFF01AFFF01AFFF01BCFFEF
:100AF60001C9FF01D5FF01DEFF01E5FF01EDFF01A1
:100B0600F4FF01FCFF0207FF0212FF021DFF022491
:100B1600FF022CFF0235FF023FFF0248FF0252FF91
:100B2600025AFF025AFF0265FF026FFF027AFF02B6
:100B360083FF0287FF0290FF0296FF02A0FF02A931
:100B4600FF02B3FF02BAFF02C2FF02CAFF02D3FFCF
:100B560002D9FF02E0FF02EFFF0300FF031FFF03BE
:100B66001FFF031FFF031FFF031FFF0326FF0326AD
:100B7600FF0326FF0326FF0326FF032BFF032BFF9E
:100B8600032BFF032BFF032BFF0341FF0341FF034F
:100B960041FF0341FF0341FF0339FF0349FF0349B7
:100BA600FF0349FF0349FF0349FF0350FF0350FFBB
:100BB6000350FF0350FF0350FF0357FF0357FF0384
:100BC60057FF0357FF0357FF0366FF0366FF0366DE
:100BD600FF0366FF0366FF0371FF0371FF0371FFE7
:100BE6000371FF0371FF0573FF0573FF0573FF05AF
:100BF60073FF0573FF057BFF057BFF057BFF057B09
:100C0600FF057BFF0587FF0587FF0587FF0587FF34
:100C16000587FF0596FF0596FF0596FF0596FF05D6
:100C260096FF059FFF059FFF059FFF059FFF059FF9
:100C3600FF05A8FF05A8FF05A8FF05A8FF05A8FF53
:100C460005B5FF05B5FF05B5FF05B5FF05B5FF05FC
:100C5600BCFF05BCFF05BCFF05BCFF05BCFF05C30B
:100C6600FF05C3FF05C3FF05C3FF05C3FF05CAFF95
:100C760005CAFF05CAFF05CAFF05CAFF05D1FF055C
:100C8600D1FF05D1FF05D1FF05D1FF05E0FF05E046
:100C9600FF05E0FF05E0FF05E0FF05EAFF05F6FFBB
:100CA6000602FF060EFF060EFF060EFF060EFF06E5
:100CB6000EFF0619FF0619FF0619FF0619FF06198A
:100CC600FF0625FF0625FF0625FF0625FF0625FF4D
:100CD600062BFF062BFF062BFF062BFF062BFF0618
:100CE6001FFF061FFF061FFF061FFF061FFF063119
:100CF600FF0631FF0631FF0631FF0631FF0376FF9F
:100D06000378FF0382FF0390FF039CFF03A9FF0301
:100D1600B2FF0525FF0525FF0525FF0525FF05254E
:100D2600FF055BFF055BFF055BFF055BFF055BFFE3
:100D36000561FF0561FF0561FF0561FF0561FF05AF
:100D460067FF0567FF0567FF0567FF0567FF056D19
:100D5600FF056DFF056DFF056DFF056DFF03BEFF0A
:100D660003C9FF03CDFF03D5FF03E1FF03EFFF0335
:100D7600F9FF0405FF040BFF0417FF0422FF042BF1
:100D8600FF0435FF043AFF0440FF0444FF0449FF13
:100D9600044DFF0451FF0460FF0467FF046BFF046A
:100DA60070FF0475FF047FFF048CFF049BFF04A8FB
:100DB600FF04B8FF04BCFF04BFFF04CCFF04DAFF46
:100DC60004E7FF04F5FF0505FF050FFF0519FF05FD
:100DD60033FF053FFF054DFF0306FF0306FF03062E
:100DE600FF0306FF0312FE6C6F00FE727500FE60C5
:100DF6006300FE787B00FE666900FE848700FE01C4
:100E06000200FE7E8100FE8A8D00FE909300FE9613
:100E16009900FEC0C300FE9C9F00FEA2A500FEA88E
:100E2600AB00FEAEB100FEB4B700FEBABD000000D6
:100E360018031661180216610000FF0C81FFFFFF00
:100E46003200000700B807720000FF0BEBFFFFFF40
:100E56003200000700B907720000FF0C09FFFFFF10
:100E66003200000700BA07720000FF0C18FFFFFFF0
:100E76003200000700BB07720000FF0D11FFFFFFE5
:100E86003200000700CA07720000FF0D14FFFFFFC3
:100E96003200000700D6079C0000FF0BA0FFFFFFF3
:100EA6003200000300F1000000000000000000FF17
:100EB600FF00000000000000180216610000FF0D90
:100EC600B9FFFFFF3200000300F100000000FF0D34
:100ED600B6FFFFFF3200000300ED00000000000037
:100EE600000000FFFF00000000000000180216616D
:100EF6000000FF0DBCFFFFFF32000005002D0E3580
:100F06000000FF0DBFFFFFFF32000005002E0E356B
:100F16000000FF0DC2FFFFFF32000005002F0E3557
:100F26000000FF0DC5FFFFFF3200000500380E353B
:100F36000000FF0DC8FFFFFF3200000300EE0000B7
:100F46000000FF0BA0FFFFFF3200000300F10000CE
:100F560000000000000000FFFF000000000000008D
:100F6600180216610000FF0DBCFFFFFF32000005EE
:100F7600002D0E350000FF0DBFFFFFFF32000005FC
:100F8600002E0E350000FF0DC2FFFFFF32000005E8
:100F9600002F0E350000FF0DC5FFFFFF32000005D4
:100FA60000380E350000FF0DADFFFFFF32000003D5
:100FB60000EB00000000FF0DC8FFFFFF320EF60138
:100FC60000000EF20000FF0BA0FFFFFF320000033F
:100FD60000F1000000000000000000FFFF0000001C
:100FE60000000000180516610000FF0DA7FFFFFFB7
:100FF60032000007002C09A60000FF0D86FFFFFF48
:101006003200000500200E350000FF0D89FFFFFFAE
:101016003200000500210E350000FF0D8CFFFFFF9A
:101026003200000500220E350000FF0D8FFFFFFF86
:101036003200000500230E350000FF0D92FFFFFF72
:101046003200000500240E350000FF0DAAFFFFFF49
:101056003200000300F6000000000000000000FF60
:10106600FF000000000000000000FF0DB6FFFFFFBC
:1010760032000003009B00000000FF0DB9FFFFFFD8
:101086003200000300F1000000000000000000FF35
:10109600FF000000000000000000FF0DB6FFFFFF8C
:1010A60032000003007000000000FF0DB9FFFFFFD3
:1010B6003200000300F1000000000000000000FF05
:1010C600FF000000000000000000FF0DB6FFFFFF5C
:1010D60032000003009E00000000FF0DB9FFFFFF75
:1010E6003200000300F1000000000000000000FFD5
:1010F600FF000000000000000000FF0BBEFFFFFF26
:1011060032109E0100000E360000FF0BCDFFFFFFE0
:101116003210CE0100000E360000FF0BA0FFFFFFCD
:101126003200000300F1000000000000000000FF94
:10113600FF00000000000000180416610000FF0A0E
:10114600A7FFFFFF3600000B00F1000000000000C3
:1011560000FFFFFF3200000C00390E350000FF0AC9
:10116600B6FFFFFF3600000B00F100000000000094
:1011760000FFFFFF3600000C003A0E350000FF0AA4
:10118600C5FFFFFF3600000B00F100000000000065
:1011960000FFFFFF3600000C003B0E350000FF0B82
:1011A600A0FFFFFF3200000300F100000000000076
:1011B600000000FFFF000000000000001804166198
:1011C6000000FF0BAFFFFFFF32000003009B000093
:1011D6000000FF0BDCFFFFFF3200000300F40000FD
:1011E6000000FF0D02FFFFFF3200000B00F40000BD
:1011F6000000FF0D02FFFFFF3200000B00F40000AD
:101206000000FF0D02FFFFFF3200000B00F400009C
:101216000000FF0D02FFFFFF3200000B00F400008C
:101226000000FF0D05FFFFFF3600000B00F4000075
:1012360000000000000000FFFF00000000000000AA
:10124600180516610000FF0D6EFFFFFF3200000754
:1012560000E409100000FF0D74FFFFFF32000007D5
:1012660000E609550000FF0DB0FFFFFF3200000742
:1012760000EC099C0000FF0DAAFFFFFF32000003EF
:1012860000F5000000000000000000FFFF00000065
:1012960000000000180416610000FF0D6BFFFFFF41
:1012A60032124A01000012460000FF0D65FFFFFFE3
:1012B6003200000700E108BC0000FF0D68FFFFFFD9
:1012C6003200000700E208D00000FF0DADFFFFFF6F
:1012D600320F6A0100000F660000FF0DB3FFFFFF2B
:1012E600320EC20100000EBE0000FF0DAAFFFFFF76
:1012F6003200000300F5000000000000000000FFBF
:10130600FF00000000000000180516610000000044
:10131600000000FFFF000000000000001804166136
:101326000000FF0B07FFFFFF3200000400960E359A
:101336000000FF0B16FFFFFF3200000400950E357C
:101346000000FF0B25FFFFFF3200000400970E355B
:101356000000FF0B34FFFFFF3200000400990E353A
:101366000000FF0B43FFFFFF32000004009A0E351A
:101376000000FF0BA0FFFFFF3200000300F100009A
:1013860000000000000000FFFF0000000000000059
:10139600180516610000FF0CB7FFFFFF32000007BB
:1013A60000C107720000FF0CC6FFFFFF32000007F6
:1013B60000C207720000FF0CD5FFFFFF32000007D6
:1013C60000C307720000FF0CE4FFFFFF32000007B6
:1013D60000C407720000FF0BA0FFFFFF32000003EE
:1013E60000F1000000000000000000FFFF00000008
:1013F600000000000000FF0D26FFFFFF3200000482
:1014060000B20E350000FF0D35FFFFFF320000046D
:1014160000B30E350000FF0D44FFFFFF320000044D
:1014260000B40E350000FF0D53FFFFFF320000042D
:1014360000B50E350000FF0BA0FFFFFF32000003D2
:1014460000F1000000000000000000FFFF000000A7
:1014560000000000180516610000FF0C9FFFFFFF4B
:101466003200000700CD07CE0000FF0CA2FFFFFFF1
:101476003200000700CE07ED0000FF0CA5FFFFFFBE
:101486003200000700CF080C0000FF0BA0FFFFFF93
:101496003200000300F1000000000000000000FF21
:1014A600FF00000000000000180816610000FF0B96
:1014B60061FFFFFF32139A0100000E360000FF0D98
:1014C600CEFFFFFF32145E0100000E360000FF0C57
:1014D600A8FFFFFF3200000700C6082B0000FF0B25
:1014E60070FFFFFF3200000700C708590000FF0B1E
:1014F6008EFFFFFF3200000700C8088E0000FF0BBA
:101506007FFFFFFF3200000400C90E350000FF0D0B
:1015160017FFFFFF3213FA0100000E360000FF0B23
:10152600A0FFFFFF3200000300F1000000000000F2
:10153600000000FFFF000000000000000204FF3270
:101546000DEC000000FFFF32FF132601009F13225F
:101556000DF0000000FFFF32FF0E3E0100000E3AC4
:101566000DF4000000FFFF32FF14B201009F14AE1D
:101576000DF8000000FFFF32FF11C601000011C286
:1015860000000000000000FFFF0000000000000057
:101596000000000000FFFF32FF1546010000154263
:1015A60000000000000000FFFF0000000000000037
:1015B60000000064003200020034001A0001002C12
:1015C600001600000037001C000000C70064002D54
:1015D60000D200800000000700030000003F00204A
:1015E600002D00D200800000001F00100019007DB1
:1015F600005A001E00820069FF830018001E0000CA
:1016060000FF0080FF80007F00000000000700034D
:101616000000007F004011111171113B161A0102E2
:1016260001342C342C024B323232323232324B32CB
:1016360032321110131415707174727370717472E2
:101646007378630080800060808080802080808046
:10165600803B68F890900060808080802080808049
:10166600800358F8A0A00060808080802080808061
:101676008003322528282D64323232323232000A73
:10168600006000610062006300660067006800B9E0
:1016960000FC13DBA67B0060000017481BDB807B89
:1016A6000000000017481EF2807C800001B6314819
:1016B60026D58069000000006FDF13D4A691006074
:1016C6000000174821D4809100000000174813F24B
:1016D6008092800001B6344813DC807F0000000051
:1016E600605A14008B7C01500000294814DC807C71
:1016F60000000000294814F2807C800001B62948C9
:1017060014DC805F000000007B5A0C008B940150B3
:1017160000002D480CDC8094000000002D480CF2DF
:101726008094800001B62D480CDC807F000000000C
:10173600605A3AF680FB0050000026483AC380FB08
:101746000000000026483ACC80FB800001B62648FF
:101756003AC380BE00000000705A3FF98029045049
:1017660000002E483FC38029040000002E483FD0C9
:101776008029840001B62E483FC380E8000000009F
:10178600805A28A4806A04500000165A2884806A69
:1017960004000000165A2889806A84350035165AD6
:1017A6002884801C040000006B5A23F9801404501E
:1017B60000001F5A23C88014040000001F5A23F09B
:1017C6008014843501871F5A23C880E70000000073
:1017D600565A202020496E70757420203A20202009
:1017E60020202020202020202020200020202053E0
:1017F600797374656D203A20202020202020202037
:1018060020202020200020202048204672657120BC
:101816003A2020202020206B487A202020202000FB
:10182600202020562046726571203A202020202054
:101836002020487A202020202000202020462F57D4
:10184600205265763A2020202020202020202020AB
:101856002020200000000000000000000000000022
:10186600000000000000000000000000000001026F
:101876000205050403040404040404040404040423
:1018860004040404040404032020201C2020202037
:101896002020202020200020202020202020202062
:1018A6002020002E003A000101010101010102027F
:1018B60002020202020505050505050404040404E6
:1018C6000403202020000404040404032020200034
:1018D6002020202020202020202020002020202022
:0818E60020202020202020001A
:107AB200410121FF4101220041012700C120C11FD4
:107AC20041010F0041012400410129004101280028
:077AD20041011C00017900D5
:104F7100D3900011E09400900010E09400227E0094
:104F8100900011E09000105403FFEEF0A3EFF02227
:104F910090010DE0FEA3E0F5828E83229000257A38
:104FA100007926E0FF7E007B0190002E124A267BCD
:104FB100FF22EE900010F0A3EFF02275F0101249DD
:104FC100FA740E93FB740F93900110CBF0A3EBF0E6
:104FD1008F828E83ED75F0101249FA740993FF7474
:104FE1000A9390010DCFF0A3EFF022900029E02465
:104FF100F1FF900028E034FFFE90002D024A067573
:10500100F0101249FA740D93227A1579C890003183
:10501100124A267A1579B62290001F124A0690008C
:105021000E1247DFAAF0F97BFF90002D124A26905D
:10503100001F024A06900010A3E0FD22E0FDE4906B
:105041000035F0A3EDF022E0FF900010E4F0A32280
:1050510090010DE0FEA3E0FFF5828E8322E4900033
:1050610010F0A3F022900028E0FEA3E0FF22E0FE72
:10507100A3E0FF7B019000547409F02290010DE040
:10508100FEA3E0FFEE90011DF0A3EFF0A322FD755A
:10509100F00A84E5F02430F0ED75F00A84227E00F8
:1050A10090012AEEF0A3EFF022E0FEA3E0FF9001D1
:1050B10010E0FCA3E0F5828C832290000DE09000CB
:1050C1000FA4FFE5F08FF002479E75F0101249FA28
:1050D100740E93FC740F93AA04F97BFF90000712DE
:1050E1004A268F828E83227D017BFF7E00024683CA
:1050F100FFE975F003A42416F582E43400F5832258
:1051010090000FE0FEA3E0FF900110E0FAA3E0F5AC
:10511100828A83740393FDE49322EFF090000FE001
:105121002290004CE475F001124A0F0246A990004A
:1051310002124A5B900127E075F003A4F58285F025
:1051410083024A5BF0A3EFF0D39015B67401939FED
:10515100EE6480F8E49364809822FF900028E034A4
:10516100002290010DE0FEA3E0AA06F97BFF227563
:10517100F0100249FAA3E475F00102479EE0FEA394
:10518100E02DFDEE3CFCEDA4FBAAF0FF900018E041
:10519100229015B8E493FE740193FF2290000FE46E
:1051A100F0A3740EF022F0E0FF25E02422F582E462
:1051B1003416F583E49322F0EF25E02423F582E40D
:1051C1003416F583E493227E00EEF0A3EFF07B0129
:1051D10022EEF0A3EFF0A32290000D0246C2C3908D
:1051E1000011E09403227D017BFF7E007F0C0246CB
:1051F1008390012CE0640122740E93FB740F939051
:105201000110CBF0A3EBF022EF54F8FFA3E0540719
:105211004FFB7D177F8A22900011E02403F090005C
:1052210010E03400F02290000CE0FEA3E0FF9000BB
:105231000AA3E0FD22FFE493FC740193FDC3EF9DFB
:10524100FEE49C2290000DEEF0A3EFF0FD90001320
:10525100E0FF22E57925E02414F582E43401F583A9
:105261002235F0FA7BFF90000BE0900054F02224ED
:1052710040F582E43400F5832290012AA3E0FF2265
:10528100E0FFA3E090011DCFF0A3EFF0227D187C99
:1052910000124701EF22FFE08FF0A4FF22A3E054A8
:1052A100074438FB7D787F8A22C3900011E0940681
:1052B10022F090003AE004F022E0FEA3E0FF7B013F
:1052C10022E0FF7E007B017A00792722FBC3EF9B5E
:1052D100FFEE9400FEC322C3900011E0940222E08D
:1052E100FD75F00A84E5F0243022F9E43AFA024A25
:1052F100262FFFE035F0FAA9077BFF22E024052FD6
:10530100F075F0058422FFE4F0A3EFF02290001382
:10531100A3E0FF22FF7E007B017A007926229FEE27
:105321006480F8EC64809822124A060246A97D3214
:105331007F267E002275F011A4249DF9747722F551
:1053410082E43400F583EEF022F582E43400F58343
:03535100EEF02259
:03000E0012C49881
:0100110022CC
:057CD200900012EFF02C
:107CD70012000E900017EFF0900012E0B401047F3D
:107CE7000180027FFF9000171252FDE5F01251A7A5
:107CF700FEFD900013E4F0A3EDF0900125E0FDC335
:107D0700900014E09DF0900013E09400F09001259E
:107D1700EE1251B8FFFD900015E4F0A3EDF09001CD
:107D270026E0FDC3900016E09DF0900015E094005A
:107D3700F0900126EFF09000187401F0900018E021
:107D4700FFD39404506D12B5E0AD07AC0690001355
:107D570075F00812517EF975F003A42417F582E433
:107D67003400F583EFF0EA1250F1EFF0AF0112B2F1
:107D770017AC06AD0790001575F00412517E75F02B
:107D870003A42418F582E43400F583EFF0EAC4F87D
:107D970054F0C8EBC4540F485470FF900018E0F932
:107DA7001250F3E04F1250F1EFF0900018E004F09A
:107DB700027D4312BE487DE07F8A12BACCEF54EFB2
:107DC700127E329000187401F0900018E0FFD394EF
:107DD700045031EF14FB7D9E7F8A12BFE390001899
:107DE700E075F003A42416F9740035F0FA7B0190CE
:107DF700005A7403F07DA07F8A12B89D900018E0A6
:107E070004F080C57DE07F8A12BACCEF4410127E61
:107E170032900017E0FF12C41E12BE48E4FB7D90AB
:0A7E27007F8A12BFE3900017E0FF0E
:0A7E310022FB7DE07F8A12BFE322EE
:106CC600901622E493900125F0901623E493900108
:106CD60026F0E4FF12C41E7FB0126E577FA0126E1C
:106CE600577FA07E0012BFBD90014DEFF07FA1122D
:106CF6006E5F7FA2126E5F7FBA126E6E7FA4126EF7
:106D06006E7FAB126E667FA3126E7D7FBB126E7DA9
:106D16007FA5126E667FA6126E757FA7126E757FAF
:106D2600A8126E847D327F387E0012B6BE9001793D
:106D36007432F0E4FF1288F67D327F377E0012B699
:106D4600BE7D037FB27E0012B6BE7FBC126E847F0C
:106D5600BD126E937FBE126E93900102E0700FFD1E
:106D66007FAEFE12B6BE7D017FAC7E00800E7D0D2D
:106D76007FAE7E0012B6BEE4FD7FACFE12B6BEE468
:106D8600900140F07D027FAAFE12B6BE7FA9126E68
:106D9600ACE4FF12B5477BFF7A00796612C2957D97
:106DA600337FA07E0012BE757FB2126EAC7FB31227
:106DB6006E8B7FB4126E8B7FB5126EA47FB6126E89
:106DC600A41287F1E4FF12C4397D017FBF7E001251
:106DD600B6BE7FBF7E0012BFBDEF24FF9209E4FD61
:106DE6007FB8FE12B6BE7FB87E0012BFBD9000FF10
:106DF600EFF07D017FB77E0012B6BE7FB77E001230
:106E0600BFBD9000FAEFF07D027FB97E0012B6BEDC
:106E16007FB97E0012BFBD9000ECEFF0E4FD7FAFBE
:106E2600FE12B6BEE490013AF090010104F0FD7F37
:106E3600C57E0012B6BE7F1B126E9A7F1C7E0212A2
:106E4600B6BE7F1D126E9A7F1E7E0212B6BE02A7C6
:106E56003A7D017E0012B6BE22E4FDFE12B6BE22C7
:106E66007D017E0012B6BE22E4FDFE12B6BE227D74
:106E7600017E0012B6BE22E4FDFE12B6BE22E4FD7D
:106E8600FE12B6BE227D017E0012B6BE22E4FDFED3
:106E960012B6BE22E4FD7E0212B6BEE4FD227D01DC
:0D6EA6007E0012B6BE22E4FDFE12B6BE2232
:10C3120012C4A0900127EFF075F00584AFF0EFF0A2
:01C3220022F8
:10C1D200EFB401047F0180027FFF9001271252FD1C
:0CC1E200AFF0EFF012C439900127E0FF2D
:01C1EE00222E
:05AD5000900014EDF07D
:10AD5500EF75F003A42481FEE435F0A3F0A3CEF053
:10AD6500E4A3F0900017E0FFC3940350439000164E
:10AD7500E02FFF900015E03400FE12BFBD900018D3
:10AD85001251C87A00791A124FAA12500A129C134E
:10AD9500900017E02471FD90001AA3E0FF900014C5
:10ADA500E02FFB7F8A12BFE3900017E004F080B329
:01ADB500227B
:10AAB500EFB401047F0180027FFF90012BE02404A5
:10AAC500FD90012AE03400FCEF3395E0FEED2FFF09
:10AAD500EC3EF0A3EFF07E0090012A124F88FD7F37
:10AAE5008012B6BE7F107E0012BFBD7E007B017A4C
:10AAF500007912124FAA7A1579CE12500E129C13B4
:10AB050012527A900012A3E0FD12AD507F807E00B4
:10AB150012BFBDEF64037BA860047D3080027D32E7
:0AAB25007F3E7E0012BD5812527AE6
:01AB2F002203
:059A1600900012EFF0CA
:109A1B00ED90012BB4010DE02401FF90012AE034FD
:109A2B0000FE800BE024FFFF90012AE034FFFE9044
:109A3B000013EE1251455015125192900014E09FF5
:109A4B00EE6480F8900013E06480984003029ABDA6
:109A5B00900013E0FEA3E0FF1250A17B017A007986
:109A6B0015124FAA12500A129C13900012E0248A6E
:109A7B00FFE433FEA3A3E0FD12B6BE7F107E0012FF
:109A8B00BFBD9000131251C87A007917124FAA7AF2
:109A9B001579CE12500E129C13900012E02471FD1A
:109AAB00900017A3E0FF900015A3E02FFB7F8A1215
:059ABB00BFE312527A26
:019AC0002283
:10B1BF007D707F8A12BACCEF54BFFB7D707F8A12ED
:10B1CF00BFE37D7412B20D7D757F8A12BFE37D766A
:10B1DF0012B20D7D717F8A12BFE37B807D727F8AF1
:10B1EF0012BFE37B807D737F8A12BFE37D707F8AFE
:10B1FF0012BACCEF4440FB7D707F8A02BFE37B80A5
:08B20F007F8A12BFE37B80225D
:068CC20090001EEFF0FD22
:108CC8007F0B7E0012B6BE90001EE06403606CE469
:108CD800A3F0A3F090001FE0FEA3E0FFC3940FEE03
:108CE80064809480503B90001EE0C454F02448F502
:108CF80082E43416F583E5822FF582E5833EF58319
:108D0800E493FB90001FA3E02438F58274163EF527
:108D180083E493FD7F8A12BFE390001F125177808E
:108D2800B390001EE0C454F02457F582E43416F5DD
:0B8D380083E493900021125307804E4B
:108D4300E4FF12C4BF12B95E7F0112C4BF12B5940F
:108D53007F0212C4BFAD07E4FF12ABA27F0312C4AC
:108D6300BFAD077F0112ABA27F0412C4BF12AC12C6
:108D73007F0512C4BF7E009000231251CA7A007986
:0E8D830021124FAA7A16791012500E129C136C
:108D910090002112529E12BFE37D177F8A12BACC36
:098DA10090002112520912BFE3F7
:018DAA0022A6
:03C4D8007F0022C0
:07C4BF0012C40112509F227C
:059F4200900012EFF099
:109F4700EDB401067E007F0180047EFF7FFF900154
:109F57002AE0FCA3E0FD2FFFEC3EFE900013125118
:109F6700455016125192900013E0FAA3E0FB9FEEC2
:109F77006480F8EA6480984003AF0522900012E0FD
:109F870014601814601D14601A14602724FE602BD7
:109F97002406702DAF0312B95E802612530E12B538
:109FA70094801E900012E024FEFFA3A3E0FD12ABF5
:109FB700A2800E12530E12AC12800612530E12AC70
:109FC700E7900012E0FFA3A3E0FD12C4279000135F
:089FD700E0FEA3E0FF1250A11F
:019FDF00225F
:05B95E00900025EFF050
:10B9630012C4D2900025E0BF010C125315124FAA46
:10B973007A1579F8800A125315124FAA7A1579F2BB
:10B9830012500E129C139000FBE090161B93FD9037
:0AB993000026A3E0FB7F8A02BFE359
:05B59400900025EFF01E
:10B599009000FBE064047017124F9D7A1579D4125C
:10B5A900500E129C13900026A3E0FB7D748022129A
:10B5B9004F9D7A1579FE12500E129C1312C4D8EFC2
:10B5C9009000266007A3E0FB7D3A8005A3E0FB7DA0
:06B5D900107F8A12BFE39F
:01B5DF002249
:10ACE7007E007B017A007915124FAA7A1579EC124A
:10ACF700500E129C137DFF7F8A12BACC900017EF7B
:10AD0700F0E47DFF12AD497DBE7F8A12BACCEF54C5
:10AD1700CF44107DBE12AD497DC47F8A12BACCEFF5
:10AD27005480FD900015E0A2E713A3E0134DFB7DCF
:10AD3700C47F8A12BFE3900017E0FB7DFF7F8A0282
:02AD4700BFE368
:07AD4900FB7F8A12BFE32229
:05AC1200900025EFF0A9
:10AC17009000FBE06404702A9000257A00792612E0
:10AC27004FA47A1579E012500E129C137D707F8A1B
:10AC370012BACCEF54C0FF900026A3E04FFB7D7003
:10AC4700802F900025E0FF7E007B017A0079261295
:10AC57004FAA7A16790A12500E129C1312C4D8EF13
:10AC67009000266007A3E0FB7D3E8005A3E0FB7D07
:06AC7700157F8A12BFE305
:01AC7D0022B4
:08ABA200900025EFF0A3EDF097
:10ABAA0012C4D8EF60301252C2124FAA7A1679161E
:10ABBA0012500E129C13900025E0243CFD7F8A124D
:10ABCA00BACCEF5480FF900027A3E02FFB9000251A
:10ABDA00E0243CFD802C9000261252C2124FAA7A21
:10ABEA0016790412500E129C139000FBE090002577
:10ABFA00B40405E024728003E02413FD900027A327
:07AC0A00E0FB7F8A12BFE3AB
:01AC11002220
:059CB800900012EFF026
:109CBD007D787F8A12BACCEF5407540F900015129D
:109CCD005307900012E0B401047F0180027FFFEF83
:109CDD003395E09000158FF012479E90161012519B
:109CED0095900015E0FCA3E0FDC312531F400D90AD
:109CFD001612125195D3ED12531F400412527A22AF
:109D0D00AF057E007B017A007913124FAA7A15797F
:109D1D00B6900031124A267A167910129C139000D3
:109D2D001512529E12BFE37D177F8A12BACC900096
