:10381A006873636F6D20312031206368303A312537
:10382A00316278206368313A3025316278206368E2
:10383A00323A3025316278206368333A3025316272
:10384A00780A0D006873636F6D2031203120636838
:10385A00313A3125316278206368303A3025316255
:10386A0078206368323A3025316278206368333AC7
:10387A0030253162780A0D006873636F6D2031203C
:10388A0031206368323A256278206368303A3025FD
:10389A00316278206368313A302531627820636872
:1038AA00333A30253162780A0D006873636F6D20F0
:1038BA00312031206368333A3125316278206368D8
:1038CA00303A3025316278206368313A30253162E6
:1038DA0078206368323A30253162780A0D006873BD
:1038EA00636F6D20322032206368303A31253162AD
:1038FA0078206368313A3025316278206368323A39
:10390A003025316278206368333A30253162780A8B
:10391A000D006873636F6D20322032206368323A7B
:10392A00256278206368333A3125316278206368EA
:10393A00303A3025316278206368313A3025316275
:10394A00780A0D006873636F6D2032203220636835
:10395A00303A3025316278206368333A3125316252
:10396A0078206368313A3025316278206368323AC8
:10397A0030253162780A0D006873636F6D2032203A
:10398A0032206368333A3125316278206368313AEC
:10399A003025316278206368303A302531627820E8
:1039AA006368323A30253162780A0D006873636FB2
:1039BA006D20332031206368333A31253162782013
:1039CA006368303A3025316278206368313A3025AD
:1039DA00316278206368323A30253162780A0D0004
:1039EA006873636F6D20332033206368303A302563
:1039FA00316278206368313A302531627820636811
:103A0A00333A3125316278206368323A302531629F
:103A1A00780A0D006873636F6D2033203420636861
:103A2A00303A3025316278206368313A3025316284
:103A3A0078206368333A3125316278206368323AF4
:103A4A0030253162780A0D006873636F6D20342067
:103A5A0031206368303A3025316278206368313A20
:103A6A003025316278206368323A30253162782015
:103A7A006368333A31253162780A0D006873636FDF
:103A8A006D20322032206368303A31253162782045
:103A9A006368323A3025316278206368313A3025DA
:103AAA00316278206368333A30253162780A0D0032
:103ABA006873636F6D20322032206368323A256260
:103ACA0078206368313A3025316278206368303A69
:103ADA003025316278206368333A30253162780ABA
:103AEA000D006873636F6D20332033206368333AA7
:103AFA003125316278206368303A30253162782086
:103B0A006368313A3025316278206368323A302569
:103B1A003162780A0D006873636F6D20322032209B
:103B2A006368333A3125316278206368323A302546
:103B3A00316278206368313A3025316278206368CF
:103B4A00303A30253162780A0D006873636F6D2050
:103B5A00332031206368333A312531627820636833
:103B6A00303A3025316278206368323A3025316242
:103B7A0078206368313A30253162780A0D0068731B
:103B8A00636F6D20332031206368333A3125316207
:103B9A0078206368313A3025316278206368323A96
:103BAA003025316278206368303A30253162780AEC
:103BBA000D006873636F6D20332033206368333AD6
:103BCA003125316278206368303A302531627820B5
:103BDA006368323A3025316278206368313A302599
:103BEA003162780A0D006873636F6D2033203320C9
:103BFA006368333A3125316278206368313A302577
:103C0A00316278206368323A3025316278206368FD
:103C1A00303A30253162780A0D006873636F6D207F
:103C2A00332033206368303A312531627820636863
:103C3A00313A3025316278206368323A3025316270
:103C4A0078206368333A30253162780A0D00687348
:103C5A00636F6D20332033206368303A3025316238
:103C6A0078206368323A3025316278206368333AC3
:103C7A003125316278206368313A30253162780A19
:103C8A000D006873636F6D20322032206368313A09
:103C9A003125316278206368303A302531627820E4
:103CAA006368323A3025316278206368333A3025C6
:103CBA003162780A0D006873636F6D2032203220FA
:103CCA006368313A3125316278206368323A3025A7
:103CDA00316278206368333A30253162782063682C
:103CEA00303A30253162780A0D006873636F6D20AF
:103CFA00322032206368313A302531627820636895
:103D0A00333A3125316278206368323A302531629C
:103D1A0078206368303A30253162780A0D0068737A
:103D2A00636F6D20332033206368313A3125316265
:103D3A0078206368303A3025316278206368323AF5
:103D4A003025316278206368333A30253162780A47
:103D5A000D006873636F6D20332033206368313A36
:103D6A003025316278206368303A30253162782014
:103D7A006368333A3125316278206368323A3025F4
:103D8A003162780A0D006873636F6D203320332027
:103D9A006368313A3025316278206368323A3025D7
:103DAA00316278206368333A31253162782063685A
:103DBA00303A30253162780A0D006873636F6D20DE
:103DCA00322032206368323A256278206368303ABA
:103DDA003025316278206368313A302531627820A3
:103DEA006368333A30253162780A0D006873636F6D
:103DFA006D20322032206368323A25627820636867
:103E0A00313A3025316278206368333A302531629D
:103E1A0078206368303A30253162780A0D00687379
:103E2A00636F6D20322032206368323A256278202F
:103E3A006368333A3125316278206368313A302534
:103E4A00316278206368303A30253162780A0D0091
:103E5A006873636F6D20332033206368323A2562BA
:103E6A0078206368303A3025316278206368313AC5
:103E7A003025316278206368333A30253162780A16
:103E8A000D006873636F6D20332033206368323A04
:103E9A00256278206368303A302531627820636879
:103EAA00333A3125316278206368313A30253162FC
:103EBA00780A0D006873636F6D20332033206368BE
:103ECA00323A256278206368313A302531627820A7
:103EDA006368333A3125316278206368303A302595
:103EEA003162780A0D000D0A507265762E46573AED
:103EFA0025303478000D0A437572722E46573A25DA
:103F0A00303478000D0A5B4D53475D6D61696E5F11
:103F1A00696E697428293D3E2072657620213D200C
:103F2A00465756455220262063616C6C20436C65C7
:103F3A0061724261736963454528290D0A000D0AB9
:103F4A0043616E6E6F7420616363657373204545C8
:103F5A0050524F4D21212121000D0A4E6F20696ECA
:103F6A00697469616C697A6500545738383136006A
:103F7A005457383831364200545738383137004EA2
:103F8A006F7468696E67202D2D3078253032780D70
:103F9A000A00436865636B20616761696E202D2D95
:103FAA003078253032780D0A004C617374204368EA
:103FBA0065636B202D2D3078253032780D0A00FF8D
:103FCA00381AFF384EFF3882FF38B4FF38E8FF3915
:103FDA001CFF394EFF3982FF39B6FF39EAFF3A1E14
:103FEA00FF3A52FF3A86FF3ABAFF3AECFF3B20FF0C
:103FFA003B54FF3B88FF3BBCFF3BF0FF3C24FF3CAC
:10400A0058FF3C8CFF3CC0FF3CF4FF3D28FF3D5C61
:10401A00FF3D90FF3DC4FF3DF6FF3E28FF3E5AFF9D
:10402A003E8CFF3EBE2D2D2D3E2050616E656C3AB2
:10403A0020575647412D3830302A343830202D2D1C
:10404A00205449434F4E4C45535320485320376917
:04405A006E63680029
:10748300012D00013000C10CC10B02310000012F9E
:1074930000024C000041014001C10DC10E410143F6
:1074A3000041014100410144004401450000000046
:10A0EF00ED90001DF090001BE090001E2290001BD1
:10A0FF00E090001DF022EBA3F090001CE090001FF9
:10A10F0022FFEA33FE7C007D141241BE744E2DF8FF
:10A11F00E62290001CE0A3F0A32290001DF0900017
:10A12F001CE090001E22900028F0A3EFF07BFF228E
:10793E007B107DE07F8A12AB77129C55900000EE93
:10794E0012A1387A3E79F0900028EEF0A3EFF012F3
:10795E00AADD129C55EF64107003EE640260287B62
:10796E00FF7A3E79FF9000287402F0A37410F01293
:10797E00AADD7F107E0212A432129C55EE12A135A2
:10798E007A3E79FF12AADD129C55EF64107003EE59
:10799E0064027033900000E064027004A3E064108F
:1079AE00601B900117E0FF12AF5A7F0112AF7E12DB
:1079BE00AAB67BFF7A3F790E12AADD802C12AFCECB
:1079CE00900117EFF080227BFF7A3F794812AADDF3
:1079DE007BFF7A3F796312AADD90011774FFF07F67
:1079EE000112A724E4FF0290F67F087E0012AB512D
:1079FE0090011FEFF06004E0FF80027F0112A724C8
:107A0E001294E590011274FEF0129DD312A75D7FC1
:107A1E00061280097F0A12AE0D12AEDD7DFF127ABC
:107A2E00507D82127A50E4FB7DFF7F8A12AB777B0A
:107A3E00FF7DD07F8A12AB777BFF7DD17F8A12AB21
:017A4E0077C0
:097A4F00227B017F8A12AB772231
:10A18F0075F68775F65975BF10E4F5F6758DF4758C
:10A19F009850758922758855758A40758C407587DA
:10A1AF008075B80275A892D299D2ACF5C8C2CAD23E
:10A1BF00AD75AA5075BAF443A61843AD10C20E750B
:0FA1CF00DE4243D840F5B175B220F54AF549227A
:03000B000271CCB3
:0B71CC00C0E0C083C082C0D075D008B6
:1071D700054B900142E0600214F0900142E07033E9
:1071E700E5A05460C4135403FF900148E06F602387
:1071F700900146E0900145F0900147E0900146F08C
:10720700900148E0900147F0A3EFF0D20F900142C0
:107217007428F0E54BD39460500302731F0534E5DF
:107227003470020533754B00052FE52F6464600346
:107237000272D790011EE094FF5003E004F0E56569
:107247002401FFE43564FEE43563FDE435628F65B0
:107257008E648D63F562752F0090010DE0D3940164
:107267004003E014F090014BE0D394014003E01495
:10727700F0900069E004F090013AE0D394004003F5
:10728700E014F0301006900141E004F0300406905D
:107297000144E004F0900069E0B43C08E4F0900099
:1072A7007CE004F090007CE0B43C08E4F0900088B7
:1072B700E004F0900088E0B41808E4F0900087E05C
:1072C70004F0E5309001436005E004F08002E4F04B
:1072D700E54DF47003E54CF46008054DE54D70028B
:1072E700054CE5A0F4549C6029E52DB4030DE5A0F9
:1072F700F4549CF530C20BD20C8013E52DB4640E08
:10730700E5A0F4549CF530D20BD20C752D50052D09
:087317008006752D00753000A1
:09731F00D0D0D082D083D0E0323E
:10ACD500E4F565F564F563F562900117F07F64129C
:0EACE500AE0DC22012AFA2D2B47F0102AE0D9E
:10945A00E4FD7F8A12A6B2EF24DE601024D96014DC
:10946A00242870197BFF7A3F7973800E7BFF7A3F3D
:10947A00797A80067BFF7A3F798202ADF21294C62E
:10948A007A3F798912AADD12AF44EF701B1294C693
:10949A007A3F799C12AADD1294D8EF60EAE4FD7F44
:1094AA008A12A6B2EFF460DF7F6312AE0D1294D86F
:1094BA00E412A1357A3F79B312AADD22E4FD7F8A4C
:1094CA0012A6B2900028E4F0A3EFF07BFF227F639C
:0B94DA0012AE0DE4FD7F8A12A6B22244
:10ACF300EFB4010553E8FE8011EF700743E80153F9
:0EAD0300E8FD22EFB4020643E80143E8022215
:03001300020026C2
:03002600C2AA3239
:0300230002A7CA67
:10A7CA00C0E0C0D075D00830981EC298AF997435D1
:10A7DA002549F8EFF6744E2549F8A60F0549E549CB
:10A7EA00C394144003754900309904C299C20DD02C
:04A7FA00D0D0E032A9
:0300630002A8658B
:10A86500C0E0C0D075D008E5AA30E01653AAFE7442
:10A8750025252EF8A69A052EE52EC39408400375C6
:10A885002E00E5AA30E10553AAFDC20ED0D0D0E0D6
:01A895003290
:0BAF4400E549B54A037F00227F01228F
:08000300200DFD8F99D20D22A2
:08AFC600200EFD8F9AD20E222D
:03002B0002AEA181
:0FAEA100C0E0C2CF0532E53270020531D0E03299
:10AE0D00E52F2FFFE433FE7C007D641241BEE52F5C
:07AE1D00B505FBE4B504F7E5
:01AE2400220B
:10A63A00900025E4F0A3E52FF0E47B3CFAF9F8AFAB
:10A64A0065AE64AD63AC6212436CAC00AD01AE02A0
:10A65A00AF03E47B64FAF9F81242E1900025EE8F29
:0CA66A00F0124249900025E0FEA3E0FF42
:01A6760022C1
:10AC9700C3ED9FEC9E5010C374709FFF74179EFE08
:0FACA700EF2DFFEE3CFE22C3ED9FFFEC9EFE2241
:08A35E00900025EEF0A3EFF0E2
:10A36600900025E07002A3E06035E4900027F0A39A
:10A37600F0900027E0FEA3E0FFE4FCFD7BD8FAF9AD
:10A38600F8D31243FE400C900027E475F001124208
:0FA396004980DE90002574FFF5F012424980C126
:01A3A5002295
:055AA500900018EFF075
:105AAA00ED4410FDEB4410FBEF64056012E0FF6467
:105ABA0020600CEF6421600790001BE04410F09016
:105ACA00001CE04410F0900018E01245295B4100E8
:105ADA005B43015B4C025B53035B59045B6A055BE6
:105AEA006D065B76075B53085B96095B960A5B411A
:105AFA000B5B7F0C5B870D5B530E5BA50F5BB310D3
:105B0A005BBE115BB3125BBE135B59145BCC155BB6
:105B1A0043165BD6175BDF185B43195BEC1A5BD63F
:105B2A001B5B4C1C5C001D5B6A1E5B4C1F5C1720D8
:105B3A005C002100005C28801690001DEBF0A3EDAC
:105B4A00801412A0FCA3ED802F12A121ED801890E1
:105B5A00001DEDF0A3EBF090001BE090001F8025E4
:105B6A00025C0CED12A129F0A3EB802812A121EB13
:105B7A00F0A3ED801F12A0EFF0A3EB800812A0FCA7
:105B8A00A3EBF0A3EDF090001C025BF990001DED71
:105B9A00F012A105F090001B025BF990001CE0A333
:105BAA0012A0F3F0A3EB025C0612A121EDF0900023
:105BBA001B025C2012A121EBF090001BE090001F59
:105BCA00803A12A0EFF090001C025C20EB12A0F0C9
:105BDA0012A1078027EB12A129F0A3EDF090001B78
:105BEA00800D90001DEBF0ED12A106F090001BE075
:105BFA00900020F0802812A0FC12A105F0A3EDF07D
:105C0A00801C12A0FC12A12DF0A3ED800D12A0FCA5
:105C1A00A3EDF090001CE090001FF0A3EBF0E490DD
:105C2A000021F0900021E0FFC394145011744E2F0C
:105C3A00F8E4F674352FF8E4F6E004F080E5900114
:105C4A0012E06403700C900130E07006125CDB0213
:105C5A005CD8E4900022F0125CDB12A63A90002392
:105C6A00EEF0A3EFF012A63AC3900024E09FFF9053
:105C7A000023E09EFE12AF38C3EF9428EE648094AE
:105C8A008040E2E4900021F0900021E0FFC39414E8
:105C9A005029744E2FF8E664417018E0FB7A00240C
:105CAA000112A110B4430CEB240212A110B44B034D
:105CBA007F0122900021E004F080CD7FC87E00128F
:105CCA00A35E900022E004F0E0C3940340897F00C1
:105CDA0022900018E0FF3395E0FE903FC975F0036B
:105CEA00EF124498EE75F003A42583F5831244CD90
:105CFA0090001DE0900028F090001EE0900029F02E
:105D0A0090001FE090002AF0900020E090002BF015
:045D1A0012AADD22CA
:10918E000D0A2B2B28436C6561724F5344496E6652
:10919E006F293A20446973706C617965644F53444A
:1091AE003A2532780020000D0A5B4D53475D446925
:1091BE0073706C6179496E7075742829203D3E205C
:1091CE0053656C6563744D6F6465547970653D418C
:1091DE00564D6F646520746F207365742074696DCD
:1091EE0065202620646973706C6179686F6C645FAA
:1091FE00666C61673D256278002020205457383810
:10920E003036202020005465636877656C6C2C49DD
:03921E006E63007C
:0474B300410149004A
:0FAEBF0075F011A4249CF9746C35F0FA7BFF2216
:0CAF1400900149E0FEEFF4FFEE5FF02238
:07B00600900149E04FF02228
:06B01400900149E0FF225B
:10A09A0012B01490001BEFF012B014900028E4F0F4
:10A0AA00A3EFF07BFF7A91798E12AADD90001BE074
:10A0BA00FF20E20330E70512AB2BC20690001BE03B
:10A0CA0030E00312AEB090001BE030E40312AE257C
:10A0DA0090001BE030E10312A67790001BE030E607
:04A0EA000312AEDDD2
:01A0EE00224F
:1086180090001A74C2F012A09A7BFF7A7A79CF126E
:108628008DE17DFF7FA07E0012A9E17BFF7D327F77
:10863800A07E0012A896E4900019F0900019E0FFBF
:10864800C394F050197E007BFF7A9179B39000545F
:108658007401F012A832900019E004F080DD900156
:1086680049E04410F012B020EF64016077900019DF
:108678007401F0900019E0FE75F011906C9B1244A3
:1086880098E4936F6008900019E004F080E5EE121A
:10869800AEBF12ADD7900018EFF0A3E012AEBF90B6
:1086A8000018E0900054F07FA07E0012A8327FA34B
:1086B8007E0012AB51BF011990010AE070139001BE
:1086C8000D7405F07BFF7A9179B5900028F012AA15
:1086D800DD7D017F0212A4767F0112A95712A63A06
:0486E8008E7A8F7B7C
:0186EC00226B
:10AE2500E4FF12A957E4FD7F0212A476900149E0E0
:06AE350054EFF07F012242
:108881007DFF1289367D82128936E4FB7DFF7F8A66
:1088910012AB77900149E020E27C12A09A7F0A1284
:1088A100AE0D7BFF7A7B7951128DE17D327FC87EDF
:1088B1000012A9E17B197D377FC87E0012A8967B43
:1088C100197D737FDD7E0012A89612AE6F75F003DD
:1088D100EF900AE61244981244CDAE02AF01900027
:1088E10006EEF0A3EFF07BFF12ADD7900006E0FC9F
:1088F100A3E0AA04F97BFF900054EFF07FC87E004B
:1089010012A8327D017F0112A476E4FD7F0412A436
:10891100767F0112A957301A0590014E800390010C
:108921004DE0FF12905B900149E04404F012A63A39
:048931008E7A8F7B30
:10893500227B017F8A12AB777F057E0012A35E2220
:0FAEB000E4FD7F0212A476900149E054FEF022E7
:108FBF00E4900006F012B014900005EFF054967094
:108FCF0003029058E030E11512AFAB900001EEF0C4
:108FDF00A3EFF0A37407F0A374D0F08011900001F9
:108FEF00E57AF0A3E57BF0A3E4F0A374C8F012A632
:108FFF003AAD07AC06900001E0FEA3E0FF12AC977C
:10900F00D3900004E09F900003E09E503C90000539
:10901F00E05484600D12AB2B900006EFF01286180F
:10902F00C206900005E030E11D12A677900006EF12
:10903F00F07FA37E0012AB51BF010690010D7403A8
:0B904F00F0128618C2067F01227F008D
:01905A0022F3
:10AB2B00900149E030E20A7F0112AB4754FBF08001
:10AB3B00087F0212AB47547FF07F0122E4FD12A481
:06AB4B0076900149E022B2
:109C5500E4FFFE12AB51EF6454600280287F017E61
:109C65000012AB51EF64576002801A7F027E00122A
:109C7500AB51EF64386002800C7F037E0012AB515C
:109C8500EF64386004E4FEFF227F047E0012AB51CE
:109C9500EF900002F0A3E4F07F05FE12AB519000B7
:109CA50002E0FEA3E04FFF900002EEF0FEA3EFF00E
:019CB500228C
:10A43200900002EEF0A3EFF07D54E4FFFE12A3A61B
:10A442007D577F017E0012A3A67D387F027E001217
:10A45200A3A67D387F037E0012A3A6900002E0FD32
:10A462007F047E0012A3A6900002A3E0FD7F057E7A
:04A472000002A3A69B
:08AFCE007F067E0012AB512248
:09AF5A00AD077F067E0002A3A6EC
:08AFD6007F097E0012AB51223D
:09AF6300AD077F097E0002A3A6E0
:07AFDE007F0A7E0012AB5157
:01AFE5002249
:1094E500E4900003F0900002F0900002E075F011A6
:1094F500906CF0124498E493124529951C00952828
:1095050001953102953A03954304954C0595550609
:10951500955E0700009565900003E0FD7F0A7E00DB
:1095250002A3A6900003E04401F08034900003E01C
:109535004402F0802B900003E04404F08022900068
:1095450003E04408F08019900003E04410F0801017
:10955500900003E04420F08007900003E04440F0D1
:08956500900002E004F0808197
:07AFE6007F0D7E0012AB514C
:01AFED002241
:09AF6C00AD077F0D7E0002A3A6D3
:0AAF4F00EF2412FFE433FE12AB51B1
:01AF590022D5
:09AF7500EF2412FF7E0002A3A6E6
:09AF7E00AD077F0F7E0002A3A6BF
:07AFEE007F0C7E0012AB5145
:01AFF5002239
:09AF8700AD077F0C7E0002A3A6B9
:08AFF6007F387E0012AB5122EE
:09AF9000AD077F387E0002A3A684
:08AFFE007F377E0012AB5122E7
:09AF9900AD077F377E0002A3A67C
:10AAB600E4FD7FADFE12A3A6E4900119F0FD7F0828
:10AAC600FE12A3A6E4FD7F0EFE12A3A61263A21237
:07AAD6009B8C7F010280EB65
:10AD11009291D290120012C290221244A48E827596
:0EAD2100830012416DFF22EFF0A3EDF0A3229C
:0BA3A600900028EEF0A3EFF0A3EDF014
:10A3B100900028E0FEA3E07807CEC313CE13D8F9AE
:10A3C10044A054FE90002BF012AE3B90002BE0FF16
:10A3D100129A54900028A3E0FF129A5490002AE0A8
:0CA3E100FF129A541200167F0202AE0D0B
:04AB5100AD07AC069A
:10AB5500ED7807CEC313CE13D8F944A054FEFF12E7
:10AB6500A6B2900033EFF07F0212AE0D900033E0F5
:01AB7500FFE0
:01AB760022BC
:08A6B200900034EFF0A3EDF07D
:10A6BA0012AE3B900034E0FF129A54900035E0FF4E
:10A6CA00129A5412AE3B900034E04401FF129A549D
:10A6DA0012A8C7900036EFF0120016900036E0FF7D
:01A6EA00224D
:10AB770090005512AD28EBF012AE3B900055E0FF68
:10AB8700129A54900056E0FF129A54900057E0FF33
:06AB9700129A54020016A0
:08A5FC0090003412AD28EBF0D1
:10A6040012AE3B900034E0FF129A54900035E0FF04
:10A61400129A54E4900038F0900037E0FFA3E0C3AE
:10A624009F5010900036E0FF129A54900038E004D6
:06A63400F080E5020016B3
:09A4FC0090005512AD281244C471
:10A5050012AE3B900055E0FF129A54900056E0FFC2
:10A51500129A54E490005BF090005AE0FFA3E0FE2D
:10A52500C39F501190005712AD1B129A5490005BB7
:08A53500E004F080E3020016CF
:09A6EB00900020EFF0A31244C41A
:10A6F40012AE3B900020E0FF129A54E4900025F043
:10A70400900024E0FFA3E0FEC39F501190002112AB
:10A71400AD1B129A54900025E004F080E302001669
:0100120022CB
:10AE3B00D291120012D290120012C291120012C2C1
:02AE4B00902253
:0D001600C291120012D290120012D291225B
:109A5400C290EF30E703D38001C312AD11EF30E6BB
:109A640003D38001C312AD11EF30E503D38001C3EA
:109A740012AD11EF30E403D38001C312AD11EF3006
:109A8400E303D38001C312AD11EF30E203D38001AD
:109A9400C312AD11EF30E103D38001C312AD11EF56
:109AA40030E003D38001C312AD11C290C290D291B1
:099AB400D290D290D290C290220F
:10A8C700E4FFD291120012C290FDFCD290EF25E076
:10A8D700FF3091034401FFC2900DBD00010CED64F0
:0FA8E700084C70E7120012D290D290D290C2901B
:01A8F600223F
:1068FC000D0A504F574552206B657920000A0D62E6
:10690C00757377203020312037452038300D0A0040
:10691C000A0D6275737720302031203745203831CD
:10692C000D0A000A0D62757377203020312037452F
:10693C002038320D0A000A0D627573772030203131
:10694C002037452038330D0A000A0D627573772005
:10695C003020312037452038340D0A000A0D62757D
:10696C007377203020312037452038350D0A000A46
:10697C000D62757377203020312037452038360D65
:10698C000A000A0D627573772030203120374520BC
:10699C0038370D0A000A0D627573772030203120CC
:1069AC0037452038380D0A000A0D62757377203090
:1069BC0020312037452038390D0A000A0D627573D5
:1069CC0077203020312037452038410D0A000A0D40
:1069DC0062757377203020312037452038420D0AFC
:1069EC00000A0D627573772030203120374520382E
:1069FC00430D0A000A0D6275737720302031203761
:106A0C00452038440D0A000A0D627573772030203A
:106A1C00312037452038450D0A000A0D6275737711
:106A2C00203020312037452038460D0A000D0A4D04
:106A3C00454E554B4559206B657920000D4F5344FD
:106A4C005F4C4F434B000D0A4556454E544B455930
:106A5C00206B65792070726573736564000D0A5B39
:106A6C004D53475D436865636B4B6579496E2829C7
:106A7C003D3E20497352756E32383335436C6B543E
:0A6A8C00756E653D2562780020203C
:1074B7004101380041013E0041013B0041013900D3
:1074C7004101370041013C0041013F0041013600C5
:0B74D70041013D00C115017000C1170C
:10AE4D00E5A0F454906490227C007D0AAE0202418C
:01AE5D00BE36
:0EAEEC0012B014EF30E10302002E12A7FE2276
:0DAEFA0012B014EF30E1057F0112674A220B
:0DAF070012B014EF30E1057F0212674A22FC
:10ADA10012B014EF30E10B301F057F010275D9029B
:0BADB1006D897F01127B6412888122F3
:10ADBC0012B014EF30E10B301F057F020275D9027F
:0BADCC00002E7FFF127B6412888122A2
:10846500900004EFF0A3EDF012AF20900004E012AD
:10847500452984E90084E90184E90284E90384E962
:108485000484E90584E90684E90784E90884E9099F
:1084950084BA0C850F1085141184FA158527168466
:1084A500F02084F52184CE3884D73A85353E851968
:1084B5003F0000853C74FF90011BF0A3F090000580
:1084C500E060037F01227F002212ACB6128AA47FEE
:1084D500012212B014EF30E40512AE258003128696
:1084E500187F0122900005E07F012212AEFA804735
:1084F50012AF078042900005E060037F012212B0B1
:1085050014EF30E132126D89802D12ADA180281251
:10851500ADBC8023900005E060037F012212AEEC24
:10852500801512B014EF30E10E7FF412853F8007FD
:0A8535007D017FC0122DE07F0122BE
:104589009000017401F0301726201523C3E56595C5
:1045990074FFE5649573FEE5639572FDE5629571B7
:1045A900FCE47B0AFAF9F8D31243FE5002C2177FE2
:1045B90001129F3D900002EFF070030249849001BF
:1045C9003DE0900003F012AE4D7057E070547FD07B
:1045D9007E0712A35E12AE4D600890013EE06403AF
:1045E90070407D017FAC7E0012A3A6900003740188
:1045F900F090013DF0FF128009E4900002F07FD0B5
:104609007E0712A35E900130E030E505127C6180DF
:104619000F12AEDDE490013AF090013EF0128618D7
:10462900C206900130E0600C900002E06410600462
:10463900E402483D90013AE07013900003E0700DE8
:1046490090013EE06007E4F07F0112ACF3900002B4
:10465900E0601BA3E0701712AE4D6012900130E0CC
:10466900700C12A09AE41249ADC2067F012212AF62
:1046790020900002E0124529490C0246A00447A4F3
:104689000849570C48641047FA20481740484680A3
:10469900491490000049847BFF7A6879FC12AADDED
:1046A900201503024776E570C3940F4005E4F570C1
:1046B90080020570E57012452946FB014703024750
:1046C9000B03471304471B05472306472B074733AB
:1046D90008473B0947430A474B0B47530C475B0DB8
:1046E90047630E476B0F000046F37BFF7A69790930
:1046F90080767BFF7A69791C806E7BFF7A69792FD6
:1047090080667BFF7A697942805E7BFF7A69795599
:1047190080567BFF7A697968804E7BFF7A69797B5D
:1047290080467BFF7A69798E803E7BFF7A6979A121
:1047390080367BFF7A6979B4802E7BFF7A6979C7E5
:1047490080267BFF7A6979DA801E7BFF7A6979EDA9
:1047590080167BFF7A6A7900800E7BFF7A6A79136B
:1047690080067BFF7A6A792612ADF2803A201123FE
:10477900900130E06003024984FD7F0C128465904A
:104789000001EFF0E4900109F0FD7FABFE12A3A652
:10479900024984C2111286180249847BFF7A6A7918
:1047A9003912AADD30150AAF707E0012980102494C
:1047B90084201138900003E0700D1249AD7BFF7A17
:1047C9006A7948E402494E12B014EF30E10B301F08
:1047D900028010126D8902498412B014EF30E2038D
:1047E9000249847F3F1249A3F00249847F090249A3
:1047F9000420111512B014EF30E1077F01301F2397
:10480900801B7F101249A3802B7F060249042011C7
:104819002712B014EF30E1117F02301F061275D94B
:1048290002498412674A024984E4FD7F11128465B2
:10483900900001EFF07F01227F0702490420111641
:1048490090010AE0700A12B014EF30E10312A67762
:104859001292B10249847F05024904900130E0FFB8
:104869006009900119E07003024984EF60469001E4
:104879003CE07040900119E0640170387FACFE1291
:10488900AB51EF64016003024984900130E030E5E7
:104899000312AEDD90013C7401F0900136E070081E
:1048A90090012EE090013FF09001367401F09001E3
:1048B9002EF0803F20114290013CE06017E4900106
:1048C90030F09001327407F0E490013CF090012E31
:1048D900F002498490010AE0700A12B014EF30E145
:1048E9000312A67790012EE0700404F08005E4908D
:1048F900012EF0129E890249847F04126196D21614
:104909000249847BFF7A6A7952803E90014DE064C6
:10491900147068301765301514C2157F0112ACF395
:104929007D027FA07E0012A9E1C217800ED2157FF9
:104939000212ACF3AF707E001298017BFF7A6A799C
:1049490069A215E433900028F012AADD802D9001A8
:104959004DE0641770257F0212ACF37F647E00126C
:10496900A35E12498A12498A7F0112ACF3D21785D4
:104979006574856473856372856271900001E0FFD7
:10498900227F0112ACF37F647E0012A35E7F0212C4
:10499900ACF37F647E0012A35E22E4FD128465906D
:1049A9000001EF22FF1280097FF412AE0D12AEDD75
:0449B9001286182228
:109F3D00A20C9220C20C300F3AE5307036D2209030
:109F4D000145E0FEB40313A3E0B4020EA3E0700AD2
:109F5D00A3E0B401057530408017EEB403139001F2
:109F6D0046E0B4010CA3E07008A3E0B40203753021
:109F7D0020C20F2020037F0022EF6003AF3022208C
:079F8D000B03AF30227F003F
:019F940022AA
:08980100900004EEF0A3EFF06B
:1098090078067C007D017BFF7A6A79947E007F026D
:1098190012412E900004E0FAA3E0FBFF12AE55EDD1
:109829002430900007F0AF0312AE55900004EEF01B
:10983900A3EFF02430A3F07BFF7A7B7907128DE147
:109849007F1012B0067D027FA07E0012A9E17B0283
:109859007D377FA07E0012A8967B017A0079069059
:1098690000547402F07FA07E0012A8327D017F02AD
:0898790012A4767F0102A95739
:106C15000D0A43485F5457323833352825303278CA
:106C2500292C526561644465636F64657228307808
:106C35003636293D256278000D0A2043485F4156C6
:106C45002825303278290020200A0D000A0D6275AA
:106C5500737720302031203745203839000A0D62FE
:106C6500757377203020312041312031310A0D00F4
:106C75000A0D627573772030203120413220443768
:106C85000A0D000A0D6275737720302031203745D3
:106C95002038390D0A00FE00000000000000000049
:106CA50000000000000000014356425300000000B0
:106CB50000000000000000000243414D2044000098
:106CC50000000000000000000003415620200000E5
:106CD50000000000000000000000000000000000AF
:106CE5000000000000000000000000FE00000000A1
:106CF500000000000000000000000000014E545399
:106D050043000000000000000000000000025041A8
:106D15004C000000000000000000000000000353CC
:106D25004543414D00000000000000000000000543
:106D350050414C4D00000000000000000000000024
:106D45000650414C4E00000000000000000000000D
:106D5500000750414C3630000000000000000000E4
:106D65000000044E545343342E3433000000000019
:106D7500000000000000000000000000000000000E
:046D8500000000000A
:1074E200C10AC104C10241011000011D00011F00B7
:1074F200011300011100011200011E00011500011B
:107502001400011A00410115004101070041010C5C
:10751200004101130041010F00C10041011400C1EB
:0975220005C101C183C106C109C4
:10AA6600EF75F011A4249BF582E4346CF583E4932E
:10AA76002290000102416DE4FB7DFF7F8A22E4F50E
:08AA86001BF51CF519F518225F
:06A1DE0090001E1244C4B3
:10A1E400E4FE124154900021F012AA7780299000D5
:10A1F4001E1244A4124154FFB4FF0612AA77F4605D
:10A2040022900022EFF0FD12AA77900023F0FB9039
:10A214000021E0FF12AB7790001FE475F0021242B8
:09A224004980CB12AA7D02AB7740
:1096FE0090001DEFF07BFF7A58790512A1DE12AAB9
:10970E007D12AB7790001DE024FE601314601024D0
:10971E00FD600C240624F85011240A600D80117B84
:10972E00FF7A59795512A1DE800690001D7401F062
:10973E00900112E0B4051390011FE07002800B90AF
:10974E00001DE014FF12AD4C800312AC777B157D2B
:10975E00297F8A12AB777B067D5C7F8A12AB777F7F
:10976E000B7E0012AB51127E3E12AFD61280EBC2B0
:02977E002222A5
:10AE5E007D017F8A12A6B2EF30E7037F01227F00C9
:01AE6E0022C1
:1087BC00E490001AF0A3F0900112E0B405099001C6
:1087CC001FE0600302886FE4900018F012A0449040
:1087DC000019EFF090001BE004F0E0C3940A400392
:1087EC0002886F900019E0FF64FE60E090010BE0DE
:1087FC00FEEF6E60D7900018E0FFA3E0FEB5070611
:10880C00A3E004F0800AE490001AF0900018EEF057
:10881C0090001AE0C3940240B3900019E0FF700B73
:10882C0012A72490001C7401F0803090010BE070B2
:10883C001190010AE0700630060312AEDD1288704A
:10884C00801490010AE0700630060312AEDD128827
:10885C00707F3212AE0DE490001CF090001CE024EE
:03886C00FF92096F
:10886F0022900019E0FF12A724900019E0FF129642
:02887F00FE22D7
:10AC540012AE5EEF60037F01227D1C7F8A12A6B2D2
:10AC6400EF54F0FF30E7037F0122EF5470C4540F18
:02AC740004FFDB
:01AC760022BB
:109EE40012AC54AB07EB24FE601914601624FD6019
:109EF40012240224FC500424077017751B00751CDF
:109F04003C8006751B00751C32E475196B75183D91
:109F1400800312AA84F517F516E4FFEF75F011A477
:109F240024F0F582E4346CF583E493FEB503012256
:089F3400EE60030F80E57F00E1
:019F3C002202
:06B01A0090010BE0FF2293
:10A7240090010BEFF024FE601914601624FD6012F2
:10A73400240224FC500424077017751B00751C3C6C
:10A744008006751B00751C32E475196B75183D8005
:09A754000312AA84F517F5162280
:06B02000900112E0FF2286
:10ACB6007F0112AA66FE900112E0FDEE6D60030FA1
:0EACC60080F00F12AA6670027F0112AA66FFCC
:01ACD400225D
:09AFA200302003D2B722C2B7220D
:108AA400900112E06F7003028B4243E804900112BC
:108AB400EFF090010BE0FF1296FE900112E024FD0E
:108AC40060202402703A12ABE8128B43C2957D6693
:108AD4007F8A12A6B290002AEFF07BFF7A6C791598
:108AE400800E12AC0C128B43D2957BFF7A6C793DCD
:108AF400900112E0FF900028E4F0A3EFF012AADD49
:108B0400129F95900112E0FF12AF7E7F1E12AE0DF0
:108B14001287BC128618900135E0B4010553E8FBB6
:108B24008005E4FF1290F67F6412AE0D7BFF7DD0CA
:108B34007F8A12AB777BFF7DD17F8A12AB7722C20B
:098B44001AE4FF127B64C29422C2
:0FAECE00C22012AFBD43E804C2B5E4FF02ACF3EB
:0CAF200012A63A90011BEEF0A3EFF02205
:09AFAB0090011BE0FEA3E0FF226F
:1081CC00C374FF9FFFC39400400CEF94645007E40A
:1081DC00900002F0804BEFC39464400DEF948C50F0
:1081EC00089000027414F08038EFC3948C400DEFAB
:1081FC0094B450089000027428F08025EFC394B416
:10820C00400DEF94DC5008900002743CF08012EFAB
:10821C00C394DC400CEFD394FF5006900002744BD7
:10822C00F0900139E0702C900110E0C3940F5005D0
:10823C00E004F08024900002E0FFE51DD39F400491
:10824C00151D8008E51DC39F5002051DE49001100B
:10825C00F08006900002E0F51D7DFF7F8A12A6B229
:10826C00900001EFF012AA7D12AB777DBE7F8A12CF
:10827C00A6B2EF54CF4410FB7DBE7F8A12AB777D44
:10828C00C47F8A12A6B2EF5480451DFB7DC47F8A41
:0F829C0012AB77900001E0FB7DFF7F8A02AB778A
:10AE9100E4900134F090011EF09001327408F02228
:107821007FAB7E0012AB51900109EFF07FB07E007B
:1078310012AB5190010AEFF07FAC7E0012AB519078
:10784100013DEFF07FA37E0012AB51900137EFF0C5
:107851007FAA7E0012AB5190012AEFF07FAD7E002E
:1078610012AB51900119EFF07FA07E0012AB519045
:107871000139EFF07FB87E0012AB51900116EFF0A5
:107881007FB77E0012AB51900111EFF07FB97E00FE
:1078910012AB51900108EFF07FBF7E0012AB51EFA8
:1078A10024FF92087FC57E0012AB51900118EFF0C2
:1078B1007FAF7E0012AB5190012EEFF07FA51279C0
:1078C10036EE90012B7006E04401F08004E0540E86
:1078D100F07FA6127936EE90012C7006E04401F09B
:1078E1008004E0540EF07FA77E0012AB51AE07EE8C
:1078F10090012D7006E04401F08004E0540EF07F09
:10790100A87E0012AB51AE07EF90012F7006E04444
:1079110001F08004E0540EF012AFF690014DEFF04B
:1079210012AFFE90014EEFF07FB27E0012AB51908C
:04793100010EEFF064
:09793500227E0012AB51AE0722C4
:106A96007BFF7A6C794C12ADF290010AE0704912D4
:106AA600B014EF20E14230092920063CD206E490DA
:106AB600010DF07FA3FE12AB51EF7009900149E082
:106AC60054EFF0800690010D7403F07F06128009E2
:106AD600801630061312B014EF20E60CC2067FA310
:106AE6007E0012AB51128618125151900000EFF041
:106AF600125D1E900130E0701B900134E06015902D
:106B0600012AE0FF90011EE0C39F400812ABC3E4D8
:106B160090011EF0900139E0700E7DC97F8A12A6A1
:106B2600B2900000EFF080027FFF1281CC124589FF
:106B3600EF7003026C1490010DE06401706F12B0E7
:106B460014EF20E16812B014EF20E261900137E003
:106B5600605B900130E0705090010AE0700FFD7F9D
:106B66000212A476900149E054EFF0803B90012B8D
:106B7600E0540DF090012CE0540DF090012DE054FE
:106B86000DF090012FE0540DF0129BF290012BE0D6
:106B96004402F090012CE04402F090012DE0440202
:106BA600F090012FE04402F0E490010DF0128FBF47
:106BB60012B020EF1424FD5002800A12B014EF2008
:106BC600E1031287BC90014BE0B4010553E8FBE4F6
:106BD600F090014BE0B4020343E8087DB27F8A12CD
:106BE600A6B2EF6003026A9F7BB07DFD7F8A12AB7F
:106BF60077E4FF12ACF37FF47E0112A35E7F0112ED
:0E6C0600ACF37B307DFD7F8A12AB77026A9F74
:016C1400225D
:109CB600C2B5C22012AFBD7F0A7E0012A35EC2B437
:109CC60012A18F7F0112ACF312ACD512AE91129491
:109CD6005A12793E7F0A7E0012A35E127821900105
:109CE6002EE090013FF07FA97E0012AB5112A27ABE
:109CF600E4900130F07BFF7A6C795112ADF27F036C
:109D06001290F6900109E06003126A96127D548063
:019D1600F25A
:107D5400E4900001F0125151900000EFF0601BE03C
:107D6400FF125D1E900132E0B40803D38001C340CA
:107D7400197F011290F6D220800D900000E0FF12CE
:107D84005D1E12AECEC22012AFBDE4FF129F3DEFC6
:107D94006018B40415125151EF700F90010904F0EA
:107DA400FD7FAB7E0012A3A6805D90014BE06402D0
:107DB40070A312002A43E8087F107E0012A35ED24B
:107DC400B57B09127E367F0412AE0D7B0B127E3614
:107DD4007F0A12AE0D1200297B0F7DD57F8A12AB6C
:107DE400777F0512AE0D7BFF7A6C796212ADF27F5C
:107DF400647E0012A35E7BFF7A6C797512ADF2E4A7
:107E040090014BF0027D59128618129BF27FA37EDB
:107E14000012AB51BF010690010D7403F0C2067F3E
:107E2400011290F6D22012AFBD7BFF7A6C798802E2
:027E3400ADF2AD
:087E36007DD57F8A12AB772293
:107A5800A10AA20AA000A310A410A591A601A7013B
:107A6800A822A910AA00AB62119E00000100CC0C4C
:107A780002700000005000000F4000119E303100DD
:107A8800AFC81202F1100800500030004000119EEB
:107A98003100029000040170000000A0F5000F40C2
:107AA80000119E3100029000030170000000F0F503
:107AB800000F4000119E3230000C0D0A01B1040481
:107AC8000050C800044000119E313000160D0F020E
:107AD8003101000050A0000840119E3330100C986E
:107AE80028013101000000B400084000119E313027
:107AF800000C020F023101000050A00008400011E4
:107B08009E3130000A0502013101000050A0000832
:107B18004000119E32300040090204B1000890E094
:107B280000043340119E3130008A091808B08A05D4
:107B3800B05026083340119E30B40040270201F1AE
:107B4800000000E0000033C100119E303C1090603E
:0C7B58001502F102044050C80033C100C7
:10956D00900051FFE475F0011244ADEF02419A9065
:10957D00004FE0FEA3E0FF22EF14FB7D9E7F8A22C9
:10958D0090001B1244A490001EE0F582758300022A
:10959D00416DE0A4FFA3E5F0F0A3EFF07DA07F8A7D
:1095AD002290005BE0FCA3E0FD22EEF0A3EFF0A320
:1095BD00221241BE900059EEF0A3EFF04E22A3E02F
:1095CD00FB7D967F8A221241BE90004FECF0A3EDF9
:1095DD00F022F07B047D947F8A22EDF0EFC394019D
:0895ED0022E4FB7D947F8A2239
:10A9B40012A9D6900028F0E4A3F012A9D6FF9000C3
:10A9C40028E06F700C900029E004F0E0C3940A4082
:01A9D400E999
:0CA9D500227D957F8A12A6B2EF5440222A
:109DD300E490000DF0E490000CF090000CE0FFC361
:109DE3009408502FA3E075F008A4FEEF2E7D9C127B
:109DF3009E23FFA3E075F0089018EE124498E582C5
:109E03002FF582E43583F583E4937D9D129E23042D
:0F9E1300F080C790000DE004F0E0C3940240B669
:0C9E220022FB7F8A12AB7790000CE0223C
:109D1700900003EFF0A31244C4129D6544017D94A3
:109D2700129D6E900003E07D99129D6E7DE07F8A03
:109D370012A6B2EF4410FB7DE07F8A12AB7790004A
:109D4700041244A490005A741BF07D9A7F8A12A4CF
:109D5700FC129D6554FEFB7D947F8A02AB777D9450
:0E9D67007F8A12A6B2EF22FB7F8A12AB772210
:10A75D007B607D9B7F8A12AB77E4900002F09000C6
:10A76D0002E0FFC394E2501FEF94C6501AEF75F04C
:10A77D001BA424FEF9741835F0FA7BFF129D179077
:07A78D000002E004F080D798
:01A7940022A2
:03A57E0090001436
:10A581001295E74036EFD39408503012958512ABFF
:10A591007790001475F00812959F12A6B2EF54F04F
:10A5A100FD900015E04DFB7DA07F8A12AB779000F6
:0BA5B10015A3E0FB7DA17F8A12AB77B1
:01A5BC00227C
:03A4BA00900014FB
:10A4BD001295E74039EFD39408503312958512ABBE
:10A4CD007790001475F00412959F12A6B2EF540FF9
:10A4DD00FD900015E0C454F04DFB7DA07F8A12ABBA
:0EA4ED0077900015A3E0FB7DA27F8A12AB776B
:01A4FB00223E
:05A9570090001DEFF06F
:10A95C0012A9B47D9C7F8A12A6B290001EEFF090D3
:10A96C00001DE06006A3E054EF800690001EE0445A
:09A97C0010FB7D9C7F8A12AB7771
:01A9850022AF
:03A4760090001D36
:10A479001295E7403BEFD39408503512958512ABFE
:10A48900777D9F7F8A12A6B290001EEFF090001D83
:10A49900E06007A3E04401F0800790001EE054FE4D
:10A4A900F012A9B490001EE0FB7D9F7F8A12AB7762
:01A4B9002280
:10A31300EFC394014006EFD394084004E4FEFF2208
:10A3230012958512AB777DA07F8A12A6B2EF540FE8
:10A33300900028F0A3E4F07DA17F8A12A6B29000DA
:10A3430028E0F0A3E04FF0900028E0FEA3E07803BC
:0AA35300CEC313CE13D8F9FF7E002D
:01A35D0022DD
:109FED00EFC394014006EFD394084004E4FEFF2232
:109FFD0012958512AB777DA07F8A12A6B2EF54F031
:10A00D00C4F8540FC868FEE4C454F048900028F01A
:10A01D00A3CEF07DA27F8A12A6B2900028E0F0A315
:10A02D00E04FF0900028E0FEA3E07802CEC313CEFF
:06A03D0013D8F9FF7E00BC
:01A0430022FA
:10A8320090004F1295B71244C41295E012AB779074
:10A84200004F1295CB12AB779000511244A49000A6
:10A8520054E090005AF07D977F8A12A4FC1295EE84
:03A8620002AB77CF
:10A896009000301295B7EDF0A3EB1295DF12AB776F
:10A8A6009000301295CB12AB77900032E0FBA3E01C
:10A8B600900037F07D987F8A12A5FC1295EE02ABC8
:01A8C600771A
:10A9E1009000301295B7ED1295DF12AB77900030E1
:10A9F1001295CB12AB77900032E0900037F07B20BC
:0DAA01007D977F8A12A5FC1295EE02AB77BF
:0977000090004F1295B71244C429
:107709009000561244C4E4900055F0900054E0648F
:107719000A707990005B7427F0A37410F01295AE8B
:10772900C3940AEC9400405612957C1295BE6012DF
:10773900900059A3E0243012956D900055E004F0B3
:107749008015900055E0600F900051E475F001122A
:1077590044AD743012419A12957C90005BE0FAA313
:10776900E0FBFDAC021295D37D0A7C00AF03AE02AB
:107779001241BE90005BEEF0A3EFF0027726900075
:107789004FA3E02430A3129570027814900054E0BE
:107799006410600302781E90005B7410F0A3E4F09B
:1077A9001295AEC39410EC9400404412957C129546
:1077B900BE6028900059E0FEA3E0FFC3940AEE944E
:1077C900004005EF24378007900059A3E0243012C8
:1077D900956D12957C1295AE1295D390005BE0C41D
:1077E900F854F0C868F0A3E0C4540F48F080B1120F
:1077F900957CC3940AEE94004005EF2437800790E6
:10780900004FA3E02430FFA3129571900051124458
:07781900A4E412419A7F0173
:017820002245
:06ADD70090004F1244C47D
:10ADDD00E4FF90004FE475F0011244AD1241546050
:04ADED00030F80EEE2
:01ADF100223F
:068DE10090001B1244C4C7
:108DE7007DFF7F8A12A6B290001FEFF054FEFB7D35
:108DF700FF7F8A12AB777DE07F8A12A6B2EF54EF2E
:108E0700128E70E490001EF012958DFF6042900064
:108E17001EE02401FDE433FC90001B1244A4E92D5D
:108E2700F9EA3CFAEF128E7990001EE02401FFE484
:108E370033FE90001B1244A4E92FF9EA3EFA7405A9
:108E4700128E7912958D04FF90001EE02FF080B8E6
:108E57007DE07F8A12A6B2EF4410128E7090001F39
:098E6700E0FB7DFF7F8A02AB777E
:108E7000FB7DE07F8A12AB7722900024F07F8A127C
:038E8000A6EB223C
:100066000A0D6D6F646520300A0D000D0A5B4D5355
:10007600475D536574345769646553637265656E8D
:100086002829203D3E2053637265656E20746F20DB
:10009600343A33202121000A0D6D6F646520320A3F
:1000A6000D000D0A2B2B284F5344486967684D6590
:1000B6006E755F73756229204F53444D656E754C9E
:1000C6006576656C3A2564000D0A52455345545FC2
:1000D6004D6F6E69746F7256414C5545000A0D7925
:1000E600766D697820340A0D000A0D79766D697887
:1000F60020300A0D000A0D79766D697820310A0DD7
:10010600000A0D79766D697820320A0D000A0D799C
:10011600766D697820330A0D00436865636B205657
:100126004741204361626C65004F7574204F66201D
:1001360052616E676500FE62596B62714C2F713AAF
:1001460034FF001213566F6C756D65002020204138
:1001560075746F2041646A757374696E67202E2EFC
:100166002E2E20202000436F6D706F73697465001A
:1001760056657273696F6E004C4344205665727300
:10018600696F6E004456522056657273696F6E0031
:10019600574946492049500057494649204D414351
:1001A6000047415445574159004F534420506F73FF
:1001B6006974696F6E004F534420506F73696369A9
:1001C6005F6E004F534420FE5465714667FF004C36
:1001D600616E6775616765004C616E677565005392
:1001E600707261636865004964696F6D6100FE57EE
:1001F60056714667FF004272696768746E6573736D
:10020600004C756D696E6F7369745F0048656C6C40
:1002160069676B656974004272696C6C6F00FE40B9
:1002260024715F60FF00436F6E74726173740043E4
:100236006F6E747261737465004B6F6E7472617366
:100246007400436F6E74726173746500FE394F718A
:100256005F60FF0053617475726174696F6E00535D
:10026600AA74746967756E67005361747572616309
:10027600695F6E00FE4A2C33715F60FF004875654A
:1002860000546F6E616C69745C0046617262650051
:10029600546F6E616C6964616400FE4A5448715F14
:1002A60060FF0053686172706E6573730041637519
:1002B60069745C00536368AA726665004167756479
:1002C600657A6100FE463933715F60FF00526573DF
:1002D600657400445C66617574004772756E64658A
:1002E600696E7374656C75670050726564657465D4
:1002F600726D696E6163695F6E00FE66246DFF0054
:10030600576964652053637265656E0057494445B5
:1003160020FE6D3B714667FF004D6972726F720079
:100326004A756D70005345512054696D65205374AC
:100336006570004A756D702041560043616D204F0F
:1003460075740052657475726E00526563616C6CEB
:10035600004D6F6E69746F7220526563616C6C003C
:1003660044565220526563616C6C0045786974008E
:1003760020007665722041302E31340054696D6557
:100386004F757420536574757000476175676520F5
:1003960053657475700047617567652052656361C2
:1003A6006C6C005052494F5249545900526576655B
:1003B6007273204D6F6465005265736F6C75746956
:1003C6006F6E00465053005175616C697479005226
:1003D60065636F7264204D6F6465005265636F726A
:1003E60064204C656E677468005072652D616C619F
:1003F600726D00506F73742D7265636F7264004185
:1004060070706C79005265636F72645374617274B4
:10041600005265636F726453746F7000536E61703F
:1004260073686F7400446174652054696D65005982
:10043600656172004D6F6E74680044617900486FA3
:100446007572004D696E00536563004461796C698D
:10045600676874536176696E6700426567696E65A1
:1004660000456E64005765656B0054696D65005400
:10047600696D65205A6F6E650052657475726E26D9
:100486004170706C7900466F726D61742053442020
:100496004361726400417564696F205265636F72CF
:1004A60064004669726D7761726520557064617487
:1004B6006500596573004E6F004669727374204E6D
:1004C600756D626572005365636F6E64204E756D5F
:1004D600626572005468697264204E756D62657259
:1004E60000466F75727468204E756D6265720043C2
:1004F60068616E67652050617373776F7264004F31
:1005060076657257726974650044697220496D6137
:1005160067650054726967676572205647410054E3
:100526007269676765722044656C617900496E6619
:100536006F726D6174696F6E0055706461746520C9
:10054600436F6E66696700534420636F7665722059
:100556004465742E0043414D20410043414D2042E5
:100566000043414D20430043414D205200446973EE
:10057600706C61790044565220446973706C6179DD
:100586000044697374616E63652047617567650031
:100596004F5344204C6F636B0050617373776F72D7
:1005A6006400536F75726365205469746C6500430B
:1005B600564253204100435642532042004356427E
:1005C60053204300435642532052004175746F2016
:1005D600446179264E696768740044697220496DE2
:1005E6006167650044697220496D61676520410055
:1005F60044697220496D6167652042004469722032
:10060600496D6167652043005265617220536574C8
:1006160075700043414D20410043414D2052004337
:10062600414D20420043414D20430043414D20446B
:10063600000200456E676C697368004672616E7BE6
:10064600616973004465757473636800457370610E
:100656007E6F6C00FE6A2356FF200004014D6F6416
:100666006531004D6F646532004D6F64653300552A
:10067600736572004D6F646531004D6F64653200BD
:100686004D6F64653300557361676572004D6F6425
:10069600757331004D6F64757332004D6F647573F9
:1006A600330042656E75747A6572004D6F646F3102
:1006B600004D6F646F32004D6F646F330055737574
:1006C6006172696F00FE3A34FF3100FE3A34FF3240
:1006D60000FE3A34FF3300FE47515B71FF200008ED
:1006E600004175746F004E5453430050414C005303
:1006F6004543414D004E545343342E34330050414C
:100706004C4D0050414C4E0050414C3630000500D7
:100716004E6F726D616C00576964650050616E6F53
:1007260072616D610046756C6C000500FE1A1BFF58
:100736002000FE1C1DFF2000FE1E1DFF2000FE1FC8
:1007460020FF2000FE1F21FF200009004F666600E3
:1007560043433100434332004343330043433400B1
:1007660054310054320054330054340002004F4ECA
:10077600004F46460002004D4952524F52004E4F1E
:10078600524D414C000300446179004155544F00DD
:100796004E6967687400020031363A3900343A33DC
:1007A600000200004F4E004F464600040053494EDB
:1007B600474C45004455414C00545249504C450065
:1007C600412B422C422B410007004100412B4200A5
:1007D600412B4300412B5200412B424300412B4207
:1007E6005200412B43520007004200422B41004277
:1007F6002B4300422B5200422B414300422B4152D5
:1008060000422B43520007004300432B4100432B79
:100816004200432B5200432B414200432B415200DE
:10082600432B4252000A005200522B4100522B42E7
:1008360000522B4300522F414200522F4143005297
:100846002F424300522B414200522B414300522B70
:100856004243000E00515541440053455100412B7F
:100866004200432B5200412B5200522B4200412B97
:100876004300432B4200522F414200522B4142007B
:1008860041004200430052000500515541440043D7
:10089600414D410043414D420043414D43004341D8
:1008A6004D5200020000373230783438300033358C
:1008B60032783234300005000035003130003135F1
:1008C600003230003235003330000500004C6576CA
:1008D600656C2D31004C6576656C2D32004C657665
:1008E600656C2D33004C6576656C2D34004C657651
:1008F600656C2D35000300004E6F6E65004E6F72FD
:100906006D616C00416C61726D0006000031202043
:100916006D696E003220206D696E003320206D698E
:100926006E003420206D696E003520206D696E00E2
:100936003130206D696E0005000031352073656326
:10094600003330207365630036302073656300081A
:100956000000313520736563003330207365630012
:100966003630207365630002000044697361626C6F
:100976006500456E61626C6500040000466972732D
:1009860074005365636F6E64005468697264004650
:100996006F75727468000400410042004300520003
:1009A6001900002D3132002D3131002D3130002D4E
:1009B60039002D38002D37002D36002D35002D3409
:1009C600002D33002D32002D310030003100320071
:1009D6003300340035003600370038003900313036
:1009E6000031310031320002005020004420000363
:1009F6000032343030003438303000393630300090
:100A06000200FE1819FF2000FE1A1BFF200004003A
:100A1600FE1C1D1E1F2021FF2000FE222328292A3E
:100A26002BFF2000FE242528292A2BFF2000412BFE
:100A3600422C422B41000E00FE262728292A2BFF96
:100A4600200053455100412B4200432B5200412BBD
:100A56005200522B4200412B4300432B4200522F9F
:100A6600414200522B4142004100420043005200E5
:100A760056474100FF0176FF0176FF0176FF0176BA
:100A8600FF0176FF017EFF017EFF017EFF017EFFF3
:100A9600017EFF018AFF018AFF018AFF018AFF01A9
:100AA6008AFF0196FF0196FF0196FF0196FF0196C8
:100AB600FF019EFF019EFF019EFF019EFF019EFF1B
:100AC60001A7FF01A7FF01A7FF01A7FF01A7FF01DC
:100AD6001FFF012FFF012FFF012FFF012FFF013CF9
:100AE600FF0149FF01AFFF01AFFF01AFFF01BCFFEF
:100AF60001C9FF01D5FF01DEFF01E5FF01EDFF01A1
:100B0600F4FF01FCFF0207FF0212FF021DFF022491
:100B1600FF022CFF0235FF023FFF0248FF0252FF91
:100B2600025AFF025AFF0265FF026FFF027AFF02B6
:100B360083FF0287FF0290FF0296FF02A0FF02A931
:100B4600FF02B3FF02BAFF02C2FF02CAFF02D3FFCF
:100B560002D9FF02E0FF02EFFF0300FF031FFF03BE
:100B66001FFF031FFF031FFF031FFF0326FF0326AD
:100B7600FF0326FF0326FF0326FF032BFF032BFF9E
:100B8600032BFF032BFF032BFF0341FF0341FF034F
:100B960041FF0341FF0341FF0339FF0349FF0349B7
:100BA600FF0349FF0349FF0349FF0350FF0350FFBB
:100BB6000350FF0350FF0350FF0357FF0357FF0384
:100BC60057FF0357FF0357FF0366FF0366FF0366DE
:100BD600FF0366FF0366FF0371FF0371FF0371FFE7
:100BE6000371FF0371FF0573FF0573FF0573FF05AF
:100BF60073FF0573FF057BFF057BFF057BFF057B09
:100C0600FF057BFF0587FF0587FF0587FF0587FF34
:100C16000587FF0596FF0596FF0596FF0596FF05D6
:100C260096FF059FFF059FFF059FFF059FFF059FF9
:100C3600FF05A8FF05A8FF05A8FF05A8FF05A8FF53
:100C460005B5FF05B5FF05B5FF05B5FF05B5FF05FC
:100C5600BCFF05BCFF05BCFF05BCFF05BCFF05C30B
:100C6600FF05C3FF05C3FF05C3FF05C3FF05CAFF95
:100C760005CAFF05CAFF05CAFF05CAFF05D1FF055C
:100C8600D1FF05D1FF05D1FF05D1FF05E0FF05E046
:100C9600FF05E0FF05E0FF05E0FF05EAFF05F6FFBB
:100CA6000602FF060EFF060EFF060EFF060EFF06E5
:100CB6000EFF0619FF0619FF0619FF0619FF06198A
:100CC600FF0625FF0625FF0625FF0625FF0625FF4D
:100CD600062BFF062BFF062BFF062BFF062BFF0618
:100CE6001FFF061FFF061FFF061FFF061FFF063119
:100CF600FF0631FF0631FF0631FF0631FF0376FF9F
:100D06000378FF0382FF0390FF039CFF03A9FF0301
:100D1600B2FF0525FF0525FF0525FF0525FF05254E
:100D2600FF055BFF055BFF055BFF055BFF055BFFE3
:100D36000561FF0561FF0561FF0561FF0561FF05AF
:100D460067FF0567FF0567FF0567FF0567FF056D19
:100D5600FF056DFF056DFF056DFF056DFF03BEFF0A
:100D660003C9FF03CDFF03D5FF03E1FF03EFFF0335
:100D7600F9FF0405FF040BFF0417FF0422FF042BF1
:100D8600FF0435FF043AFF0440FF0444FF0449FF13
:100D9600044DFF0451FF0460FF0467FF046BFF046A
:100DA60070FF0475FF047FFF048CFF049BFF04A8FB
:100DB600FF04B8FF04BCFF04BFFF04CCFF04DAFF46
:100DC60004E7FF04F5FF0505FF050FFF0519FF05FD
:100DD60033FF053FFF054DFF0306FF0306FF03062E
:100DE600FF0306FF0312FE6C6F00FE727500FE60C5
:100DF6006300FE787B00FE666900FE848700FE01C4
:100E06000200FE7E8100FE8A8D00FE909300FE9613
:100E16009900FEC0C300FE9C9F00FEA2A500FEA88E
:100E2600AB00FEAEB100FEB4B700FEBABD000000D6
:100E360018031661180216610000FF0C81FFFFFF00
:100E46003200000700B807720000FF0BEBFFFFFF40
:100E56003200000700B907720000FF0C09FFFFFF10
:100E66003200000700BA07720000FF0C18FFFFFFF0
:100E76003200000700BB07720000FF0D11FFFFFFE5
:100E86003200000700CA07720000FF0D14FFFFFFC3
:100E96003200000700D6079C0000FF0BA0FFFFFFF3
:100EA6003200000300F1000000000000000000FF17
:100EB600FF00000000000000180216610000FF0D90
:100EC600B9FFFFFF3200000300F100000000FF0D34
:100ED600B6FFFFFF3200000300ED00000000000037
:100EE600000000FFFF00000000000000180216616D
:100EF6000000FF0DBCFFFFFF32000005002D0E3580
:100F06000000FF0DBFFFFFFF32000005002E0E356B
:100F16000000FF0DC2FFFFFF32000005002F0E3557
:100F26000000FF0DC5FFFFFF3200000500380E353B
:100F36000000FF0DC8FFFFFF3200000300EE0000B7
:100F46000000FF0BA0FFFFFF3200000300F10000CE
:100F560000000000000000FFFF000000000000008D
:100F6600180216610000FF0DBCFFFFFF32000005EE
:100F7600002D0E350000FF0DBFFFFFFF32000005FC
:100F8600002E0E350000FF0DC2FFFFFF32000005E8
:100F9600002F0E350000FF0DC5FFFFFF32000005D4
:100FA60000380E350000FF0DADFFFFFF32000003D5
:100FB60000EB00000000FF0DC8FFFFFF320EF60138
:100FC60000000EF20000FF0BA0FFFFFF320000033F
:100FD60000F1000000000000000000FFFF0000001C
:100FE60000000000180516610000FF0DA7FFFFFFB7
:100FF60032000007002C09A60000FF0D86FFFFFF48
:101006003200000500200E350000FF0D89FFFFFFAE
:101016003200000500210E350000FF0D8CFFFFFF9A
:101026003200000500220E350000FF0D8FFFFFFF86
:101036003200000500230E350000FF0D92FFFFFF72
:101046003200000500240E350000FF0DAAFFFFFF49
:101056003200000300F6000000000000000000FF60
:10106600FF000000000000000000FF0DB6FFFFFFBC
:1010760032000003009B00000000FF0DB9FFFFFFD8
:101086003200000300F1000000000000000000FF35
:10109600FF000000000000000000FF0DB6FFFFFF8C
:1010A60032000003007000000000FF0DB9FFFFFFD3
:1010B6003200000300F1000000000000000000FF05
:1010C600FF000000000000000000FF0DB6FFFFFF5C
:1010D60032000003009E00000000FF0DB9FFFFFF75
:1010E6003200000300F1000000000000000000FFD5
:1010F600FF000000000000000000FF0BBEFFFFFF26
:1011060032109E0100000E360000FF0BCDFFFFFFE0
:101116003210CE0100000E360000FF0BA0FFFFFFCD
:101126003200000300F1000000000000000000FF94
:10113600FF00000000000000180416610000FF0A0E
:10114600A7FFFFFF3600000B00F1000000000000C3
:1011560000FFFFFF3200000C00390E350000FF0AC9
:10116600B6FFFFFF3600000B00F100000000000094
:1011760000FFFFFF3600000C003A0E350000FF0AA4
:10118600C5FFFFFF3600000B00F100000000000065
:1011960000FFFFFF3600000C003B0E350000FF0B82
:1011A600A0FFFFFF3200000300F100000000000076
:1011B600000000FFFF000000000000001804166198
:1011C6000000FF0BAFFFFFFF32000003009B000093
:1011D6000000FF0BDCFFFFFF3200000300F40000FD
:1011E6000000FF0D02FFFFFF3200000B00F40000BD
:1011F6000000FF0D02FFFFFF3200000B00F40000AD
:101206000000FF0D02FFFFFF3200000B00F400009C
:101216000000FF0D02FFFFFF3200000B00F400008C
:101226000000FF0D05FFFFFF3600000B00F4000075
:1012360000000000000000FFFF00000000000000AA
:10124600180516610000FF0D6EFFFFFF3200000754
:1012560000E409100000FF0D74FFFFFF32000007D5
:1012660000E609550000FF0DB0FFFFFF3200000742
:1012760000EC099C0000FF0DAAFFFFFF32000003EF
:1012860000F5000000000000000000FFFF00000065
:1012960000000000180416610000FF0D6BFFFFFF41
:1012A60032124A01000012460000FF0D65FFFFFFE3
:1012B6003200000700E108BC0000FF0D68FFFFFFD9
:1012C6003200000700E208D00000FF0DADFFFFFF6F
:1012D600320F6A0100000F660000FF0DB3FFFFFF2B
:1012E600320EC20100000EBE0000FF0DAAFFFFFF76
:1012F6003200000300F5000000000000000000FFBF
:10130600FF00000000000000180516610000000044
:10131600000000FFFF000000000000001804166136
:101326000000FF0B07FFFFFF3200000400960E359A
:101336000000FF0B16FFFFFF3200000400950E357C
:101346000000FF0B25FFFFFF3200000400970E355B
:101356000000FF0B34FFFFFF3200000400990E353A
:101366000000FF0B43FFFFFF32000004009A0E351A
:101376000000FF0BA0FFFFFF3200000300F100009A
:1013860000000000000000FFFF0000000000000059
:10139600180516610000FF0CB7FFFFFF32000007BB
:1013A60000C107720000FF0CC6FFFFFF32000007F6
:1013B60000C207720000FF0CD5FFFFFF32000007D6
:1013C60000C307720000FF0CE4FFFFFF32000007B6
:1013D60000C407720000FF0BA0FFFFFF32000003EE
:1013E60000F1000000000000000000FFFF00000008
:1013F600000000000000FF0D26FFFFFF3200000482
:1014060000B20E350000FF0D35FFFFFF320000046D
:1014160000B30E350000FF0D44FFFFFF320000044D
:1014260000B40E350000FF0D53FFFFFF320000042D
:1014360000B50E350000FF0BA0FFFFFF32000003D2
:1014460000F1000000000000000000FFFF000000A7
:1014560000000000180516610000FF0C9FFFFFFF4B
:101466003200000700CD07CE0000FF0CA2FFFFFFF1
:101476003200000700CE07ED0000FF0CA5FFFFFFBE
:101486003200000700CF080C0000FF0BA0FFFFFF93
:101496003200000300F1000000000000000000FF21
:1014A600FF00000000000000180816610000FF0B96
:1014B60061FFFFFF32139A0100000E360000FF0D98
:1014C600CEFFFFFF32145E0100000E360000FF0C57
:1014D600A8FFFFFF3200000700C6082B0000FF0B25
:1014E60070FFFFFF3200000700C708590000FF0B1E
:1014F6008EFFFFFF3200000700C8088E0000FF0BBA
:101506007FFFFFFF3200000400C90E350000FF0D0B
:1015160017FFFFFF3213FA0100000E360000FF0B23
:10152600A0FFFFFF3200000300F1000000000000F2
:10153600000000FFFF000000000000000204FF3270
:101546000DEC000000FFFF32FF132601009F13225F
:101556000DF0000000FFFF32FF0E3E0100000E3AC4
:101566000DF4000000FFFF32FF14B201009F14AE1D
:101576000DF8000000FFFF32FF11C601000011C286
:1015860000000000000000FFFF0000000000000057
:101596000000000000FFFF32FF1546010000154263
:1015A60000000000000000FFFF0000000000000037
:1015B60000000064003200020034001A0001002C12
:1015C600001600000037001C000000C70064002D54
:1015D60000D200800000000700030000003F00204A
:1015E600002D00D200800000001F00100019007DB1
:1015F600005A001E00820069FF830018001E0000CA
:1016060000FF0080FF80007F00000000000700034D
:101616000000007F004011111171113B161A0102E2
:1016260001342C342C024B323232323232324B32CB
:1016360032321110131415707174727370717472E2
:101646007378630080800060808080802080808046
:10165600803B68F890900060808080802080808049
:10166600800358F8A0A00060808080802080808061
:101676008003322528282D64323232323232000A73
:10168600006000610062006300660067006800B9E0
:1016960000FC13DBA67B0060000017481BDB807B89
:1016A6000000000017481EF2807C800001B6314819
:1016B60026D58069000000006FDF13D4A691006074
:1016C6000000174821D4809100000000174813F24B
:1016D6008092800001B6344813DC807F0000000051
:1016E600605A14008B7C01500000294814DC807C71
:1016F60000000000294814F2807C800001B62948C9
:1017060014DC805F000000007B5A0C008B940150B3
:1017160000002D480CDC8094000000002D480CF2DF
:101726008094800001B62D480CDC807F000000000C
:10173600605A3AF680FB0050000026483AC380FB08
:101746000000000026483ACC80FB800001B62648FF
:101756003AC380BE00000000705A3FF98029045049
:1017660000002E483FC38029040000002E483FD0C9
:101776008029840001B62E483FC380E8000000009F
:10178600805A28A4806A04500000165A2884806A69
:1017960004000000165A2889806A84350035165AD6
:1017A6002884801C040000006B5A23F9801404501E
:1017B60000001F5A23C88014040000001F5A23F09B
:1017C6008014843501871F5A23C880E70000000073
:1017D600565A202020496E70757420203A20202009
:1017E60020202020202020202020200020202053E0
:1017F600797374656D203A20202020202020202037
:1018060020202020200020202048204672657120BC
:101816003A2020202020206B487A202020202000FB
:10182600202020562046726571203A202020202054
:101836002020487A202020202000202020462F57D4
:10184600205265763A2020202020202020202020AB
:101856002020200000000000000000000000000022
:10186600000000000000000000000000000001026F
:101876000205050403040404040404040404040423
:1018860004040404040404032020201C2020202037
:101896002020202020200020202020202020202062
:1018A6002020002E003A000101010101010102027F
:1018B60002020202020505050505050404040404E6
:1018C6000403202020000404040404032020200034
:1018D6002020202020202020202020002020202022
:0818E60020202020202020001A
:10752B004100FBFF4100FC0041010100C11FC11ED6
:10753B004100E9004100FE0041010300410102004E
:07754B004100F60001790088
:1049BD00D3900011E09400900010E09400227E004E
:1049CD00900011E09000105403FFEEF0A3EFF022E1
:1049DD009000E7E0FEA3E0F5828E83229000257A19
:1049ED00007926E0FF7E007B0190002E1244C47BEF
:1049FD00FF22EE900010F0A3EFF02275F01012449C
:104A0D0098740E93FB740F939000EACBF0A3EBF028
:104A1D008F828E83ED75F010124498740993FF7494
:104A2D000A939000E7CFF0A3EFF022900029E02445
:104A3D00F1FF900028E034FFFE90002D0244A47594
:104A4D00F010124498740D93227A1579C8900031A4
:104A5D001244C47A1579B62290001F1244A4900016
:104A6D000E12428AAAF0F97BFF90002D1244C490D9
:104A7D00001F0244A4900010A3E0FD22E0FDE4908D
:104A8D000035F0A3EDF022E0FF900010E4F0A3223A
:104A9D009000E7E0FEA3E0FFF5828E8322E4900014
:104AAD0010F0A3F022900028E0FEA3E0FF22E0FE2C
:104ABD00A3E0FF7B019000547409F0229000E7E021
:104ACD00FEA3E0FFEE9000F7F0A3EFF0A322FD753B
:104ADD00F00A84E5F02430F0ED75F00A84227E00B2
:104AED00900104EEF0A3EFF022E0FEA3E0FF9000B2
:104AFD00EAE0FCA3E0F5828C832290000DE09000AB
:104B0D000FA4FFE5F08FF002424975F010124498A2
:104B1D00740E93FC740F93AA04F97BFF9000071297
:104B2D0044C48F828E83227D017BFF7E0002412E45
:104B3D00FFE975F003A42416F582E43400F5832211
:104B4D0090000FE0FEA3E0FF9000EAE0FAA3E0F58D
:104B5D00828A83740393FDE49322EFF090000FE0BB
:104B6D002290004CE475F0011244AD0241549000C6
:104B7D00021244F9900101E075F003A4F58285F06D
:104B8D00830244F9F0A3EFF0D39015B67401939F0F
:104B9D00EE6480F8E49364809822FF900028E0345E
:104BAD0000229000E7E0FEA3E0AA06F97BFF227544
:104BBD00F010024498A3E475F001024249E0FEA30F
:104BCD00E02DFDEE3CFCEDA4FBAAF0FF900018E0FB
:104BDD00229015B8E493FE740193FF2290000FE428
:104BED00F0A3740EF022F0E0FF25E02422F582E41C
:104BFD003416F583E49322F0EF25E02423F582E4C7
:104C0D003416F583E493227E00EEF0A3EFF07B01E2
:104C1D0022EEF0A3EFF0A32290000D02416DC390A0
:104C2D000011E09403227D017BFF7E007F0C024189
:104C3D002E900106E0640122740E93FB740F939085
:104C4D0000EACBF0A3EBF022EF54F8FFA3E05407FA
:104C5D004FFB7D177F8A22900011E02403F0900016
:104C6D0010E03400F02290000CE0FEA3E0FF900075
:104C7D000AA3E0FD22FFE493FC740193FDC3EF9DB5
:104C8D00FEE49C2290000DEEF0A3EFF0FD900013DA
:104C9D00E0FF22E57925E024EEF582E43400F5838A
:104CAD002235F0FA7BFF90000BE0900054F02224A7
:104CBD0040F582E43400F58322900104A3E0FF2245
:104CCD00E0FFA3E09000F7CFF0A3EFF0227D187C7A
:104CDD00001241ACEF22FFE08FF0A4FF22A3E054BD
:104CED00074438FB7D787F8A22C3900011E094063B
:104CFD0022F090003AE004F022E0FEA3E0FF7B01F9
:104D0D0022E0FF7E007B017A00792722FBC3EF9B17
:104D1D00FFEE9400FEC322C3900011E0940222E046
:104D2D00FD75F00A84E5F0243022F9E43AFA0244E4
:104D3D00C42FFFE035F0FAA9077BFF22E024052FF1
:104D4D00F075F0058422FFE4F0A3EFF0229000133C
:104D5D00A3E0FF22FF7E007B017A007926229FEEE1
:104D6D006480F8EC648098221244A40241547D3290
:104D7D007F267E002275F011A4249CF9746C22F517
:104D8D0082E43400F583EEF022F582E43400F583FD
:034D9D00EEF02213
:03000E0012AFE648
:0100110022CC
:05706300900012EFF0A7
:1070680012000E900017EFF0900012E0B401047FB8
:107078000180027FFF900017124D49E5F0124BF393
:10708800FEFD900013E4F0A3EDF09000FFE0FDC3D7
:10709800900014E09DF0900013E09400F09000FF41
:1070A800EE124C04FFFD900015E4F0A3EDF0900102
:1070B80000E0FDC3900016E09DF0900015E09400FC
:1070C800F0900100EFF09000187401F0900018E0C3
:1070D800FFD39404506D12A313AD07AC06900013B0
:1070E80075F008124BCAF975F003A42417F582E469
:1070F8003400F583EFF0EA124B3DEFF0AF01129F39
:10710800EDAC06AD0790001575F004124BCA75F08A
:1071180003A42418F582E43400F583EFF0EAC4F8F8
:1071280054F0C8EBC4540F485470FF900018E0F9AD
:10713800124B3FE04F124B3DEFF0900018E004F087
:107148000270D412A9B47DE07F8A12A6B2EF54EF80
:107158001271C39000187401F0900018E0FFD394E6
:10716800045031EF14FB7D9E7F8A12AB7790001894
:10717800E075F003A42416F9740035F0FA7B019049
:10718800005A7403F07DA07F8A12A4FC900018E0D6
:1071980004F080C57DE07F8A12A6B2EF4410127118
:1071A800C3900017E0FF12AF6C12A9B4E4FB7D9006
:0A71B8007F8A12AB77900017E0FF0A
:0A71C20022FB7DE07F8A12AB7722EA
:1063A200901622E4939000FFF0901623E49390015C
:1063B20000F0E4FF12AF6C7FB01265337FA012656C
:1063C200337FA07E0012AB51900139EFF07FA11212
:1063D200653B7FA212653B7FBA12654A7FA41265B4
:1063E2004A7FAB1265427FA31265597FBB12655982
:1063F2007FA51265427FA61265517FA71265517F64
:10640200A81265607D327F387E0012A3A690014DEE
:106412007432F0E4FF127B647D327F377E0012A378
:10642200A67D037FB27E0012A3A67FBC1265607FA9
:10643200BD12656F7FBE12656F900119E0700FFD8E
:106442007FAEFE12A3A67D017FAC7E00800E7D0D85
:106452007FAE7E0012A3A6E4FD7FACFE12A3A6E4EB
:10646200900134F07D027FAAFE12A3A67FA91265D5
:1064720088E4FF12A27A7BFF7A00796612ADF27D80
:10648200337FA07E0012A9E17FB21265887FB3122A
:1064920065677FB41265677FB51265807FB6126546
:1064A20080127821E4FF12AF877D017FBF7E001248
:1064B200A3A67FBF7E0012AB51EF24FF9208E4FD3A
:1064C2007FB8FE12A3A67FB87E0012AB51900116D0
:1064D200EFF07D017FB77E0012A3A67FB77E001288
:1064E200AB51900111EFF07D027FB97E0012A3A69D
:1064F2007FB97E0012AB51900108EFF0E4FD7FAF4F
:10650200FE12A3A6E490012EF090011804F0FD7F84
:10651200C57E0012A3A67F1B1265767F1C7E021227
:10652200A3A67F1D1265767F1E7E0212A3A6029687
:106532007B7D017E0012A3A622E4FDFE12A3A62209
:106542007D017E0012A3A622E4FDFE12A3A6227DF7
:10655200017E0012A3A622E4FDFE12A3A622E4FD00
:10656200FE12A3A6227D017E0012A3A622E4FDFE56
:1065720012A3A622E4FD7E0212A3A6E4FD227D015F
:0D6582007E0012A3A622E4FDFE12A3A622B5
:10AE6F0012AFEE900101EFF075F00584AFF0EFF047
:01AE7F0022B0
:10AD2F00EFB401047F0180027FFF900101124D49B2
:0CAD3F00AFF0EFF012AF87900101E0FFD1
:01AD4B0022E5
:059B2600900014EDF0B9
:109B2B00EF75F003A42481FEE435F0A3F0A3CEF08F
:109B3B00E4A3F0900017E0FFC3940350439000168A
:109B4B00E02FFF900015E03400FE12AB519000188F
:109B5B00124C147A00791A1249F6124A56128BF6E5
:109B6B00900017E02471FD90001AA3E0FF90001401
:109B7B00E02FFB7F8A12AB77900017E004F080B3E5
:019B8B0022B7
:1098FD00EFB401047F0180027FFF900105E0240495
:10990D00FD900104E03400FCEF3395E0FEED2FFFF8
:10991D00EC3EF0A3EFF07E009001041249D4FD7FE0
:10992D008012A3A67F107E0012AB517E007B017AC0
:10993D000079121249F67A1579CE124A5A128BF61F
:10994D00124CC6900012A3E0FD129B267F807E0074
:10995D0012AB51EF64037BA860047D3080027D3231
:0A996D007F3E7E0012A896124CC641
:0199770022CD
:0589F900900012EFF0F8
:1089FE00ED900105B4010DE02401FF900104E03477
:108A0E0000FE800BE024FFFF900104E034FFFE9097
:108A1E000013EE124B915015124BDE900014E09F96
:108A2E00EE6480F8900013E06480984003028AA000
:108A3E00900013E0FEA3E0FF124AED7B017A00796D
:108A4E00151249F6124A56128BF6900012E0248A3D
:108A5E00FFE433FEA3A3E0FD12A3A67F107E001257
:108A6E00AB51900013124C147A0079171249F67A12
:108A7E001579CE124A5A128BF6900012E02471FD2F
:108A8E00900017A3E0FF900015A3E02FFB7F8A1242
:058A9E00AB77124CC68D
:018AA30022B0
:109F95007D707F8A12A6B2EF54BFFB7D707F8A1257
:109FA500AB777D74129FE37D757F8A12AB777D76E3
:109FB500129FE37D717F8A12AB777B807D727F8AEA
:109FC50012AB777B807D737F8A12AB777D707F8A3A
:109FD50012A6B2EF4440FB7D707F8A02AB777B808F
:089FE5007F8A12AB777B80221A
:067E3E0090001EEFF0FDB4
:107E44007F0B7E0012A3A690001EE06403606CE426
:107E5400A3F0A3F090001FE0FEA3E0FFC3940FEE95
:107E640064809480503B90001EE0C454F02448F594
:107E740082E43416F583E5822FF582E5833EF583AB
:107E8400E493FB90001FA3E02438F58274163EF5BA
:107E940083E493FD7F8A12AB7790001F124BC3805B
:107EA400B390001EE0C454F02457F582E43416F570
:0B7EB40083E493900021124D53804E98
:107EBF00E4FF12B00D12A5BD7F0112B00D12A2C7C3
:107ECF007F0212B00DAD07E4FF1299787F0312B055
:107EDF000DAD077F011299787F0412B00D1299E84A
:107EEF007F0512B00D7E00900023124C167A007998
:0E7EFF00211249F67A167910124A5A128BF6A1
:107F0D00900021124CEA12AB777D177F8A12A6B230
:097F1D00900021124C5512AB77C3
:017F26002238
:03B026007F002286
:07B00D0012AF4F124AEB22C3
:058E8300900012EFF069
:108E8800EDB401067E007F0180047EFF7FFF900124
:108E980004E0FCA3E0FD2FFFEC3EFE900013124B14
:108EA800915016124BDE900013E0FAA3E0FB9FEE00
:108EB8006480F8EA6480984003AF0522900012E0CD
:108EC80014601814601D14601A14602724FE602BA7
:108ED8002406702DAF0312A5BD8026124D5A12A28A
:108EE800C7801E900012E024FEFFA3A3E0FD1299A4
:108EF80078800E124D5A1299E88006124D5A129A2D
:108F0800BD900012E0FFA3A3E0FD12AF759000131F
:088F1800E0FEA3E0FF124AEDA8
:018F2000222E
:05A5BD00900025EFF005
:10A5C20012B020900025E0BF010C124D611249F635
:10A5D2007A1579F8800A124D611249F67A1579F2E4
:10A5E200124A5A128BF6900112E090161B93FD90BC
:0AA5F2000026A3E0FB7F8A02AB778E
:05A2C700900025EFF0FE
:10A2CC00900112E0640470171249E97A1579D412DE
:10A2DC004A5A128BF6900026A3E0FB7D7480221262
:10A2EC0049E97A1579FE124A5A128BF612B026EF0A
:10A2FC009000266007A3E0FB7D3A8005A3E0FB7D80
:06A30C00107F8A12AB77FE
:01A312002228
:109ABD007E007B017A0079151249F67A1579EC1240
:109ACD004A5A128BF67DFF7F8A12A6B2900017EFCD
:109ADD00F0E47DFF129B1F7DBE7F8A12A6B2EF546C
:109AED00CF44107DBE129B1F7DC47F8A12A6B2EF9C
:109AFD005480FD900015E0A2E713A3E0134DFB7D0C
:109B0D00C47F8A12AB77900017E0FB7DFF7F8A023E
:029B1D00AB7724
:079B1F00FB7F8A12AB7722E5
:0599E800900025EFF0E6
:1099ED00900112E06404702A9000257A0079261205
:1099FD0049F07A1579E0124A5A128BF67D707F8AFA
:109A0D0012A6B2EF54C0FF900026A3E04FFB7D706D
:109A1D00802F900025E0FF7E007B017A00792612D1
:109A2D0049F67A16790A124A5A128BF612B026EFB7
:109A3D009000266007A3E0FB7D3E8005A3E0FB7D43
:069A4D00157F8A12AB77C1
:019A530022F0
:08997800900025EFF0A3EDF0D3
:1099800012B026EF6030124D0E1249F67A16791693
:10999000124A5A128BF6900025E0243CFD7F8A1271
:1099A000A6B2EF5480FF900027A3E02FFB90002584
:1099B000E0243CFD802C900026124D0E1249F67AD0
:1099C000167904124A5A128BF6900112E090002583
:1099D000B40405E024728003E02413FD900027A363
:0799E000E0FB7F8A12AB7768
:0199E700225D
:058C9B00900012EFF053
:108CA0007D787F8A12A6B2EF5407540F90001512F8
:108CB0004D53900012E0B401047F0180027FFFEF6A
:108CC0003395E09000158FF0124249901610124B28
:108CD000E1900015E0FCA3E0FDC3124D6B400D9048
:108CE0001612124BE1D3ED124D6B4004124CC6220A
:108CF000AF057E007B017A0079131249F67A157967
:108D0000B69000311244C47A167910128BF6900096
:108D100015124CEA12AB777D177F8A12A6B290002B
:108D200015124C5512AB77900013A3E0FD7F05128E
:0D8D3000AF75900013E0FEA3E0FF124AEDC6
:018D3D002213
:109B8C00900112E090000AF09001127401F0900123
:109B9C0012E0FFC394075030EFB40413E4900009B3
:109BAC00F0900009E090167E129BE140F48011E4E5
:109BBC00900009F0900009E0901678129BE140F4B7
:109BCC00900112E004F080C690000AE0900112F0BF
:059BDC007F03027E3E44
:109BE100FF93FD12AF75900009E004F0E0C3940605
:019BF1002251
:1080EB0090001EEFF0D39403400B7F011280EB90B6
:1080FB00001E7401F0900130E0B420177FA27E00C7
:10810B0012AB51EF700D90001EF07BFF7A0079716E
:0B811B0012AADD90001EE090011DF094
:1081260012B01AEF6401601E12B01AEF64046016F2
:1081360012B01AEF6405600E12B01AEF64076006FB
:1081460012B01AEF700F90001EE075F00AA4249882
:10815600F97416800D90001EE075F00AA424C0F98B
:10816600741635F0FA7BFF9000211244C490011D6D
:108176007401F012A9B4E490001FF0A3F090001F60
:10818600E0FEA3E0FFC3940AEE64809480502FEFD4
:1081960025E0FFEE33FE74842FF58274163EF583D8
:1081A600740193FD900021124D75FB7F8A12AB7707
:0E81B600900022124BC390001F124BC380BFDB
:0881C40090011DE0FF02AF6312
:10AA0E00E579C3940450229000F7E0FEA3E0FF1214
:10AA1E004CA0EEF0A3EFF09000FAE0FFAE790579CE
:0CAA2E0074752EF8A6077F01227F00221D
:10AD6900E57960151579124CA0124CCD74752579C9
:0CAD7900F8E69000FAF07F01227F002233
:10A3ED0090001D1244C4900020EDF0BDFF037FFFCF
:10A3FD0022900020E004F0E075F010A4FF90001D05
:10A40D001244A4E92FF9EA35F0FA90000712416DD4
