:103828006873636F6D20312031206368303A312529
:10383800316278206368313A3025316278206368D4
:10384800323A3025316278206368333A3025316264
:10385800780A0D006873636F6D203120312063682A
:10386800313A3125316278206368303A3025316247
:1038780078206368323A3025316278206368333AB9
:1038880030253162780A0D006873636F6D2031202E
:1038980031206368323A256278206368303A3025EF
:1038A800316278206368313A302531627820636864
:1038B800333A30253162780A0D006873636F6D20E2
:1038C800312031206368333A3125316278206368CA
:1038D800303A3025316278206368313A30253162D8
:1038E80078206368323A30253162780A0D006873AF
:1038F800636F6D20322032206368303A312531629F
:1039080078206368313A3025316278206368323A2A
:103918003025316278206368333A30253162780A7D
:103928000D006873636F6D20322032206368323A6D
:10393800256278206368333A3125316278206368DC
:10394800303A3025316278206368313A3025316267
:10395800780A0D006873636F6D2032203220636827
:10396800303A3025316278206368333A3125316244
:1039780078206368313A3025316278206368323ABA
:1039880030253162780A0D006873636F6D2032202C
:1039980032206368333A3125316278206368313ADE
:1039A8003025316278206368303A302531627820DA
:1039B8006368323A30253162780A0D006873636FA4
:1039C8006D20332031206368333A31253162782005
:1039D8006368303A3025316278206368313A30259F
:1039E800316278206368323A30253162780A0D00F6
:1039F8006873636F6D20332033206368303A302555
:103A0800316278206368313A302531627820636802
:103A1800333A3125316278206368323A3025316291
:103A2800780A0D006873636F6D2033203420636853
:103A3800303A3025316278206368313A3025316276
:103A480078206368333A3125316278206368323AE6
:103A580030253162780A0D006873636F6D20342059
:103A680031206368303A3025316278206368313A12
:103A78003025316278206368323A30253162782007
:103A88006368333A31253162780A0D006873636FD1
:103A98006D20322032206368303A31253162782037
:103AA8006368323A3025316278206368313A3025CC
:103AB800316278206368333A30253162780A0D0024
:103AC8006873636F6D20322032206368323A256252
:103AD80078206368313A3025316278206368303A5B
:103AE8003025316278206368333A30253162780AAC
:103AF8000D006873636F6D20332033206368333A99
:103B08003125316278206368303A30253162782077
:103B18006368313A3025316278206368323A30255B
:103B28003162780A0D006873636F6D20322032208D
:103B38006368333A3125316278206368323A302538
:103B4800316278206368313A3025316278206368C1
:103B5800303A30253162780A0D006873636F6D2042
:103B6800332031206368333A312531627820636825
:103B7800303A3025316278206368323A3025316234
:103B880078206368313A30253162780A0D0068730D
:103B9800636F6D20332031206368333A31253162F9
:103BA80078206368313A3025316278206368323A88
:103BB8003025316278206368303A30253162780ADE
:103BC8000D006873636F6D20332033206368333AC8
:103BD8003125316278206368303A302531627820A7
:103BE8006368323A3025316278206368313A30258B
:103BF8003162780A0D006873636F6D2033203320BB
:103C08006368333A3125316278206368313A302568
:103C1800316278206368323A3025316278206368EF
:103C2800303A30253162780A0D006873636F6D2071
:103C3800332033206368303A312531627820636855
:103C4800313A3025316278206368323A3025316262
:103C580078206368333A30253162780A0D0068733A
:103C6800636F6D20332033206368303A302531622A
:103C780078206368323A3025316278206368333AB5
:103C88003125316278206368313A30253162780A0B
:103C98000D006873636F6D20322032206368313AFB
:103CA8003125316278206368303A302531627820D6
:103CB8006368323A3025316278206368333A3025B8
:103CC8003162780A0D006873636F6D2032203220EC
:103CD8006368313A3125316278206368323A302599
:103CE800316278206368333A30253162782063681E
:103CF800303A30253162780A0D006873636F6D20A1
:103D0800322032206368313A302531627820636886
:103D1800333A3125316278206368323A302531628E
:103D280078206368303A30253162780A0D0068736C
:103D3800636F6D20332033206368313A3125316257
:103D480078206368303A3025316278206368323AE7
:103D58003025316278206368333A30253162780A39
:103D68000D006873636F6D20332033206368313A28
:103D78003025316278206368303A30253162782006
:103D88006368333A3125316278206368323A3025E6
:103D98003162780A0D006873636F6D203320332019
:103DA8006368313A3025316278206368323A3025C9
:103DB800316278206368333A31253162782063684C
:103DC800303A30253162780A0D006873636F6D20D0
:103DD800322032206368323A256278206368303AAC
:103DE8003025316278206368313A30253162782095
:103DF8006368333A30253162780A0D006873636F5F
:103E08006D20322032206368323A25627820636858
:103E1800313A3025316278206368333A302531628F
:103E280078206368303A30253162780A0D0068736B
:103E3800636F6D20322032206368323A2562782021
:103E48006368333A3125316278206368313A302526
:103E5800316278206368303A30253162780A0D0083
:103E68006873636F6D20332033206368323A2562AC
:103E780078206368303A3025316278206368313AB7
:103E88003025316278206368333A30253162780A08
:103E98000D006873636F6D20332033206368323AF6
:103EA800256278206368303A30253162782063686B
:103EB800333A3125316278206368313A30253162EE
:103EC800780A0D006873636F6D20332033206368B0
:103ED800323A256278206368313A30253162782099
:103EE8006368333A3125316278206368303A302587
:103EF8003162780A0D000D0A507265762E46573ADF
:103F080025303478000D0A437572722E46573A25CB
:103F1800303478000D0A5B4D53475D6D61696E5F03
:103F2800696E697428293D3E2072657620213D20FE
:103F3800465756455220262063616C6C20436C65B9
:103F480061724261736963454528290D0A000D0AAB
:103F580043616E6E6F7420616363657373204545BA
:103F680050524F4D21212121000D0A4E6F20696EBC
:103F7800697469616C697A6500545738383136005C
:103F88005457383831364200545738383137004E94
:103F98006F7468696E67202D2D3078253032780D62
:103FA8000A00436865636B20616761696E202D2D87
:103FB8003078253032780D0A004C617374204368DC
:103FC80065636B202D2D3078253032780D0A00FF7F
:103FD8003828FF385CFF3890FF38C2FF38F6FF39C1
:103FE8002AFF395CFF3990FF39C4FF39F8FF3A2CB2
:103FF800FF3A60FF3A94FF3AC8FF3AFAFF3B2EFFB8
:104008003B62FF3B96FF3BCAFF3BFEFF3C32FF3C57
:1040180066FF3C9AFF3CCEFF3D02FF3D36FF3D6AFE
:10402800FF3D9EFF3DD2FF3E04FF3E36FF3E68FF48
:104038003E9AFF3ECC2D2D2D3E2050616E656C3A88
:1040480020575647412D3830302A343830202D2D0E
:10405800205449434F4E4C45535320485320376909
:044068006E6368001B
:107BD400012D00013000C10DC10C02310000012F44
:107BE40000024C000041013B01C10EC10F41013EA6
:107BF4000041013C0041013F0044014000000000FD
:10B12200ED90001DF090001BE090001E2290001B8D
:10B13200E090001DF022EBA3F090001CE090001FB5
:10B1420022FFEA33FE7C007D14124730744E2DF844
:10B15200E62290001CE0A3F0A32290001DF09000D4
:10B162001CE090001E22900029F0A3EFF07BFF224A
:10846F007B107DE07F8A12BD5312AB86900000EE29
:10847F0012B16B7A3E79FE900029EEF0A3EFF01265
:10848F00BCB912AB86EF64107003EE640260287BF8
:10849F00FF7A3F790D9000297402F0A37410F01247
:1084AF00BCB97F107E0212B54412AB86EE12B168D2
:1084BF007A3F790D12BCB912AB86EF64107003EEE0
:1084CF0064027033900000E064027004A3E0641053
:1084DF00601B900101E0FF12C1DD7F0112C1F81294
:1084EF00BC927BFF7A3F791C12BCB9802C12C24818
:1084FF00900101EFF080227BFF7A3F795612BCB9D1
:10850F007BFF7A3F797112BCB990010174FFF07F44
:10851F000112B8E9E4FF02A62B7F087E0012BD2DE1
:10852F0090010DEFF06004E0FF80027F0112B8E9C7
:10853F0012A2079000FC74FEF012ACFF12B95B7F21
:10854F0006128B4A7F0A12C07D12C15E7DFF128513
:10855F00817D82128581E4FB7DFF7F8A12BD537B73
:10856F00FF7DD07F8A12BD537BFF7DD17F8A12BDE5
:01857F0053A8
:09858000227B017F8A12BD532207
:10B1C20075F68775F65975BF10E4F5F6758DF47549
:10B1D2009850758922758855758A40758C40758797
:10B1E2008075B80275A892D299D2ACF5C8C2CAD2FB
:10B1F200AD75AA5075BAF443A61843AD10C20F75C7
:0FB20200DE4243D840F5B175B220F54AF5492236
:03000B00027A78FE
:0B7A7800C0E0C083C082C0D075D00801
:107A8300054B90013DE0600214F090013DE070333E
:107A9300E5A05460C4135403FF900143E06F6023D7
:107AA300900141E0900140F0900142E0900141F0EB
:107AB300900143E0900142F0A3EFF0D21090013D1A
:107AC3007430F0E54BD394605003027BCB0534E56F
:107AD3003470020533754B00052FE52F6464600392
:107AE300027B8390010CE094FF5003E004F0E56512
:107AF3002401FFE43564FEE43563FDE435628F65FC
:107B03008E648D63F562752F009000F3E0D39401CA
:107B13004003E014F090016DE0D394014003E014BE
:107B2300F090006AE004F0900147E0D39400400332
:107B3300E014F030110690013CE004F030040690AC
:107B4300013FE004F090006AE0B43C08E4F09000E8
:107B53007DE004F090007DE0B43C08E4F0900089FF
:107B6300E004F0900089E0B41808E4F0900088E0A5
:107B730004F0E53090013E6005E004F08002E4F09B
:107B8300E54DF47003E54CF46008054DE54D7002D6
:107B9300054CE5A0F4549C6029E52DB4030DE5A044
:107BA300F4549CF530C20CD20D8013E52DB4640E51
:107BB300E5A0F4549CF530D20CD20D752D50052D53
:087BC3008006752D00753000ED
:097BCB00D0D0D082D083D0E0328A
:10BF1000E4F565F564F563F562900101F07F641264
:0EBF2000C07DC22112C21CD2B47F0102C07DBE
:10A17C00E4FD7F8A12B877EF24DE601024D96014D6
:10A18C00242870197BFF7A3F7981800E7BFF7A3F00
:10A19C00798880067BFF7A3F799002C04912A1E84A
:10A1AC007A3F799712BCB912C1D2EF701B12A1E899
:10A1BC007A3F79AA12BCB912A1FAEF60EAE4FD7FEA
:10A1CC008A12B877EFF460DF7F6312C07D12A1FAB8
:10A1DC00E412B1687A3F79C112BCB922E4FD7F8ADE
:10A1EC0012B877900029E4F0A3EFF07BFF227F6395
:0BA1FC0012C07DE4FD7F8A12B87722BC
:10BF2E00EFB4010553E8FE8011EF700743E80153AB
:0EBF3E00E8FD22EFB4020643E80143E80222C8
:03001300020026C2
:03002600C2AA3239
:0300230002B9C857
:10B9C800C0E0C0D075D00830981EC298AF997435C1
:10B9D8002549F8EFF6744E2549F8A60F0549E549BB
:10B9E800C394144003754900309904C299C20ED01B
:04B9F800D0D0E03299
:0300630002BA9747
:10BA9700C0E0C0D075D008E5AA30E01653AAFE74FE
:10BAA70025252EF8A69A052EE52EC3940840037582
:10BAB7002E00E5AA30E10553AAFDC20FD0D0D0E091
:01BAC700324C
:0BC1D200E549B54A037F00227F0122EF
:08000300200EFD8F99D20E22A0
:08C24000200FFD8F9AD20F229E
:03002B0002C122ED
:0FC12200C0E0C2CF0532E53270020531D0E03205
:10C07D00E52F2FFFE433FE7C007D64124730E52F62
:07C08D00B505FBE4B504F763
:01C094002289
:10B74C00900026E4F0A3E52FF0E47B3CFAF9F8AF87
:10B75C0065AE64AD63AC621248EBAC00AD01AE02F9
:10B76C00AF03E47B64FAF9F8124860900026EE8F80
:0CB77C00F01247BB900026E0FEA3E0FFA7
:01B78800229E
:10BE9400C3ED9FEC9E5010C374709FFF74179EFEF9
:0FBEA400EF2DFFEE3CFE22C3ED9FFFEC9EFE2232
:08B42A00900026EEF0A3EFF004
:10B43200900026E07002A3E06035E4900028F0A3BB
:10B44200F0900028E0FEA3E0FFE4FCFD7BD8FAF9CF
:10B45200F8D312497D400C900028E475F0011247A0
:0FB46200BB80DE90002674FFF5F01247BB80C15F
:01B4710022B8
:0560AD00900018EFF067
:1060B200E4900025F0ED4410FDEB4410FBEF640585
:1060C2006015900018E0FF6420600CEF6421600707
:1060D20090001BE04410F090001CE04410F090008F
:1060E20018E0124AA8615100615301615C026163C8
:1060F20003616904617A05617D066186076163084F
:1061020061A60961A60A61510B618F0C61970D614D
:10611200630E61B50F61C31061CE1161C31261CE0E
:106122001361691461DC1561531661E61761EF189A
:1061320061531961FC1A61E61B615C1C62101D61EE
:106142007A1E615C1F622720621021000062388083
:106152001690001DEBF0A3ED801412B12FA3ED8079
:106162002F12B154ED801890001DEDF0A3EBF090CA
:10617200001BE090001F802502621CED12B15CF052
:10618200A3EB802812B154EBF0A3ED801F12B122D1
:10619200F0A3EB800812B12FA3EBF0A3EDF0900077
:1061A2001C02620990001DEDF012B138F090001B44
:1061B20002620990001CE0A312B126F0A3EB026276
:1061C2001612B154EDF090001B02623012B154EB82
:1061D200F090001BE090001F803A12B122F0900074
:1061E2001C026230EB12B12312B13A8027EB12B1DA
:1061F2005CF0A3EDF090001B800D90001DEBF0ED24
:1062020012B139F090001BE0900020F0802812B10A
:106212002F12B138F0A3EDF0801C12B12F12B16031
:10622200F0A3ED800D12B12FA3EDF090001CE090D1
:10623200001FF0A3EBF0E4900021F0900021E0FFBA
:10624200C394145011744E2FF8E4F674352FF8E409
:10625200F6E004F080E59000FCE06403700C90012D
:1062620035E070061262F30262F0E4900022F0124E
:1062720062F312B74C900023EEF0A3EFF0A3742860
:10628200F012B74CC3900024E09FFF900023E09EE1
:10629200FE12C1C6900025E0FDC3EF9D7480F86E2A
:1062A2009840DEE4900021F0900021E0FFC39414B6
:1062B2005029744E2FF8E664417018E0FB7A0024EE
:1062C2000112B143B4430CEB240212B143B44B03A9
:1062D2007F0122900021E004F080CD7FC87E001271
:1062E200B42A900022E004F0E0C3940340817F00CE
:1062F20022900018E0FF3395E0FE903FD775F0033F
:10630200EF124A17EE75F003A42583F583124A4C67
:1063120090001DE0900029F090001EE090002AF00D
:1063220090001FE090002BF0900020E090002CF0F5
:0463320012BCB922BE
:109992000D0A2B2B28436C6561724F5344496E6646
:1099A2006F293A20446973706C617965644F53443E
:1099B2003A2532780020000D0A5B4D53475D446919
:1099C20073706C6179496E7075742829203D3E2050
:1099D20053656C6563744D6F6465547970653D4180
:1099E200564D6F646520746F207365742074696DC1
:1099F20065202620646973706C6179686F6C645F9E
:109A0200666C61673D256278000D0A2B2B2844693C
:109A120073706C6179566F6C29002020205457387E
:109A2200383036202020005465636877656C6C2CD2
:049A3200496E630016
:047C040041016B00CF
:0FC1400075F011A424D8F9747E35F0FA7BFF2234
:0CC1A20090016BE0FEEFF4FFEE5FF02276
:07C2800090016BE04FF0227A
:06C28E0090016BE0FF22AD
:10B0780012C28E90001CEFF012C28E900029E4F0EC
:10B08800A3EFF07BFF7A99799212BCB990001CE08B
:10B09800FF20E20330E70512BD07C20790001CE05D
:10B0A80030E00312C13190001CE030E40312C09577
:10B0B80090001CE030E10312B80290001CE030E67A
:04B0C8000312C15E50
:01B0CC002261
:1092360090001B74C2F012B0787BFF7A8679001218
:109246009B7C7DFF7FA07E0012BBE57BFF7D327F8E
:10925600A07E0012BAC8E490001AF090001AE0FF4F
:10926600C394F050197E007BFF7A9979B790005429
:109276007401F012BA6490001AE004F080DD9001E7
:109286006BE04410F012C29AEF6401607790001A06
:109296007401F090001AE0FE75F011907ED7124A24
:1092A60017E4936F600890001AE004F080E5EE1270
:1092B600C14012C02E900019EFF0A3E012C14090F9
:1092C6000019E0900054F07FA07E0012BA647FA3DC
:1092D6007E0012BD2DBF01199000EFE070139000C3
:1092E600F37405F07BFF7A9979B9900029F012BCE6
:1092F600B97D017F0212B5887F0112BB8912B74C76
:049306008E7A8F7B51
:01930A002240
:10C09500E4FF12BB89E4FD7F0212B58890016BE0D5
:06C0A50054EFF07F0122C0
:1093DA007BFF7A9A790B12BCB97DFF1294987D8231
:1093EA00129498E4FB7DFF7F8A12BD5390016BE0D3
:1093FA0020E27C12B0787F0A12C07D7BFF7A8679E0
:10940A0082129B7C7D327FC87E0012BBE57B197D70
:10941A00377FC87E0012BAC87B197D737FDD7E0054
:10942A0012BAC812C0F075F003EF900AFE124A177A
:10943A00124A4CAE02AF01900006EEF0A3EFF07BA9
:10944A00FF12C02E900006E0FCA3E0AA04F97BFFFD
:10945A00900054EFF07FC87E0012BA647D017F014C
:10946A0012B588E4FD7F0412B5887F0112BB8930EA
:10947A001B05900170800390016FE0FF129F3790E7
:0D948A00016BE04404F012B74C8E7A8F7B2A
:10949700227B017F8A12BD537F057E0012B42A22E8
:0FC13100E4FD7F0212B58890016BE054FEF0220E
:109DFF00E4900006F012C28E900005EFF0549670BA
:109E0F0003029E98E030E11512C225900001EEF09A
:109E1F00A3EFF0A37407F0A374D0F08011900001AA
:109E2F00E57AF0A3E57BF0A3E4F0A374C8F012B7D2
:109E3F004CAD07AC06900001E0FEA3E0FF12BE940C
:109E4F00D3900004E09F900003E09E503C900005EB
:109E5F00E05484600D12BD07900006EFF0129236A9
:109E6F00C207900005E030E11D12B802900006EF26
:109E7F00F07FA37E0012BD2DBF01069000F3740387
:0B9E8F00F0129236C2077F01227F0014
:019E9A0022A5
:10BD070090016BE030E20A7F0112BD2354FBF08003
:10BD1700087F0212BD23547FF07F0122E4FD12B594
:06BD27008890016BE02290
:10AB8600E4FFFE12BD2DEF6454600280287F017E33
:10AB96000012BD2DEF64576002801A7F027E0012FC
:10ABA600BD2DEF64386002800C7F037E0012BD2D40
:10ABB600EF64386004E4FEFF227F047E0012BD2DA0
:10ABC600EF900002F0A3E4F07F05FE12BD2D900089
:10ABD60002E0FEA3E04FFF900002EEF0FEA3EFF0CE
:01ABE600224C
:10B54400900002EEF0A3EFF07D54E4FFFE12B4721B
:10B554007D577F017E0012B4727D387F027E001217
:10B56400B4727D387F037E0012B472900002E0FD55
:10B574007F047E0012B472900002A3E0FD7F057E7A
:04B584000002B4729B
:08C248007F067E0012BD2D22CD
:09C1DD00AD077F067E0002B4727A
:08C250007F097E0012BD2D22C2
:09C1E600AD077F097E0002B4726E
:07C258007F0A7E0012BD2DDC
:01C25F0022BC
:10A20700E4900003F0900002F0900002E075F01176
:10A21700907F2C124A17E493124AA8A23E00A24A42
:10A2270001A25302A25C03A26504A26E05A27706EF
:10A23700A280070000A287900003E0FD7F0A7E004E
:10A2470002B472900003E04401F08034900003E010
:10A257004402F0802B900003E04404F08022900039
:10A2670003E04408F08019900003E04410F08010E8
:10A27700900003E04420F08007900003E04440F0A2
:08A28700900002E004F0808168
:07C260007F0D7E0012BD2DD1
:01C2670022B4
:09C1EF00AD077F0D7E0002B47261
:02BE5300AB073B
:10BE55009000FCE0FF7E007C007D0612471EEF246B
:0EBE65000CFFE43EFEEF2BFFEC3EFE12BD2D67
:01BE730022AC
:10C0BD009000FCE075F006A4240C2FFF7E0002B466
:01C0CD007200
:09C1F800AD077F0F7E0002B47256
:07C268007F0C7E0012BD2DCA
:01C26F0022AC
:09C20100AD077F0C7E0002B4724F
:08C270007F387E0012BD2D2273
:09C20A00AD077F387E0002B4721A
:08C278007F377E0012BD2D226C
:09C21300AD077F377E0002B47212
:10BC9200E4FD7FADFE12B472E4900103F0FD7F0873
:10BCA200FE12B472E4FD7F0EFE12B472126C3112F7
:07BCB200AB207F01028C2C86
:10BF4C009291D290120012C29022124A238E8275C4
:0EBF5C0083001246DFFF22EFF0A3EDF0A322D8
:0BB47200900028EEF0A3EFF0A3EDF037
:10B47D00900028E0FEA3E07807CEC313CE13D8F9D1
:10B48D0044A054FE90002BF012C0AB90002BE0FFB7
:10B49D0012A9E8900028A3E0FF12A9E890002AE085
:0CB4AD00FF12A9E81200167F0202C07D09
:04BD2D00AD07AC06AC
:10BD3100ED7807CEC313CE13D8F944A054FEFF12F9
:10BD4100B877900033EFF07F0212C07D900033E0AE
:01BD5100FFF2
:01BD520022CE
:08B87700900034EFF0A3EDF0A6
:10B87F0012C0AB900034E0FF12A9E8900035E0FF52
:10B88F0012A9E812C0AB900034E04401FF12A9E8FE
:10B89F0012BAF9900036EFF0120016900036E0FF62
:01B8AF002276
:10BD530090005512BF63EBF012C0AB900055E0FFAB
:10BD630012A9E8900056E0FF12A9E8900057E0FFFF
:06BD730012A9E80200160F
:08B70E0090003412BF63EBF060
:10B7160012C0AB900034E0FF12A9E8900035E0FFBC
:10B7260012A9E8E4900038F0900037E0FFA3E0C3E8
:10B736009F5010900036E0FF12A9E8900038E00410
:06B74600F080E502001690
:09B60E0090005512BF63124A437B
:10B6170012C0AB900055E0FF12A9E8900056E0FF7A
:10B6270012A9E8E490005BF090005AE0FFA3E0FE67
:10B63700C39F501190005712BF5612A9E890005BA4
:08B64700E004F080E3020016AC
:09B8B000900021EFF0A3124A43BD
:10B8B90012C0AB900021E0FF12A9E8E4900026F045
:10B8C900900025E0FFA3E0FEC39F501190002212D3
:10B8D900BF5612A9E8900026E004F080E3020016A2
:0100120022CB
:10C0AB00D291120012D290120012C291120012C23F
:02C0BB009022D1
:0D001600C291120012D290120012D291225B
:10A9E800C290EF30E703D38001C312BF4CEF30E6CB
:10A9F80003D38001C312BF4CEF30E503D38001C3FA
:10AA080012BF4CEF30E403D38001C312BF4CEF30C8
:10AA1800E303D38001C312BF4CEF30E203D38001BC
:10AA2800C312BF4CEF30E103D38001C312BF4CEF18
:10AA380030E003D38001C312BF4CC290C290D291C0
:09AA4800D290D290D290C290226B
:10BAF900E4FFD291120012C290FDFCD290EF25E032
:10BB0900FF3091034401FFC2900DBD00010CED64AB
:0FBB1900084C70E7120012D290D290D290C290D6
:01BB280022FA
:106336000D0A504F574552206B6579207072657370
:10634600736564000D0A4D454E55206B65792070C6
:10635600726573736564000D0A494E505554534F68
:1063660055524345206B6579207072657373656479
:10637600000D0A5550206B65792070726573736540
:1063860064000D0A444F574E206B65792070726584
:1063960073736564000D0A53454C4543544B455988
:1063A600206B65792070726573736564000D0A4E03
:1063B6004F542041535349474E4544206B6579203D
:1063C60070726573736564000D0A504F574552200D
:1063D6006B657920000A0D627573772030203120B5
:1063E60037452038300D0A000A0D62757377203064
:1063F60020312037452038310D0A000A0D627573A9
:1064060077203020312037452038320D0A000A0D1A
:1064160062757377203020312037452038330D0AD6
:10642600000A0D62757377203020312037452038F9
:10643600340D0A000A0D627573772030203120373B
:10644600452038350D0A000A0D6275737720302015
:10645600312037452038360D0A000A0D62757377EC
:10646600203020312037452038370D0A000A0D62CA
:10647600757377203020312037452038380D0A00D3
:106486000A0D627573772030203120374520383960
:106496000D0A000A0D6275737720302031203745CA
:1064A6002038410D0A000A0D6275737720302031BD
:1064B6002037452038420D0A000A0D627573772091
:1064C6003020312037452038430D0A000A0D627509
:1064D6007377203020312037452038440D0A000AD2
:1064E6000D62757377203020312037452038450DF1
:1064F6000A000A0D62757377203020312037452057
:1065060038460D0A0054726967676572466C6167A2
:106516003D25303278000D0A4D454E554B455920E4
:106526006B657920000D4F53445F4C4F434B000D74
:106536000A52454D4F5F564F4C5550000D0A524575
:106546004D4F5F564F4C444E000D0A4556454E542E
:106556004B4559206B6579207072657373656400CD
:106566000D0A5B4D53475D436865636B4B6579491F
:106576006E28293D3E20497352756E3238333543B5
:0D6586006C6B54756E653D25627800202019
:107C08004101450041014A00410148004101460047
:107C18004101490041014B0041014400C116017076
:037C280000C11880
:10C0CE00E5A0F454906490227C007D0AAE020247F3
:01C0DE003031
:0EC16D0012C28EEF30E10302002E12B9FC2246
:0DC17B0012C28EEF30E1057F01126FD92254
:0DC1880012C28EEF30E1057F02126FD92246
:10BFF80012C28EEF30E10B3020057F01028106026C
:0BC0080076357F0112834E1293DA227E
:10C0130012C28EEF30E10B3020057F02028106024F
:0BC02300002E7FFF12834E1293DA22E2
:10908300900004EFF0A3EDF012C1AE900004E012E3
:109093004AA89107009107019107029107039107DD
:1090A300049107059107069107079107089107099E
:1090B30090D80C912D10913211911815914516915C
:1090C3000E2091132190EC3890F53A91533E91374D
:1090D3003F0000915A74FF900109F0A3F09000053E
:1090E300E060037F01227F002212BEB312956C7FE2
:1090F300012212C28EEF30E40512C0958003129252
:10910300367F0122900005E07F012212C17B804758
:1091130012C1888042900005E060037F012212C2E1
:109123008EEF30E132127635802D12BFF88028128F
:10913300C0138023900005E060037F012212C16DFC
:10914300801512C28EEF30E10E7FF412915D80071D
:0A9153007D017FC0122DFA7F01227A
:104B08009000017401F0301826201623C3E565953E
:104B180074FFE5649573FEE5639572FDE562957132
:104B2800FCE47B0AFAF9F8D312497D5002C2187FD7
:104B38000112AEC3900002EFF07003024F7EE02432
:104B4800F8601C24F8602024F0602424E060282405
:104B5800C0602C247C70307BFF7A637936802E7B92
:104B6800FF7A63794A80267BFF7A63795D801E7BB2
:104B7800FF7A63797780167BFF7A637988800E7B6A
:104B8800FF7A63799B80067BFF7A6379B312BCB99D
:104B98007FAC7E0012BD2D900003EFF012C0CE70E6
:104BA80053E070507FD07E0712B42A12C0CE60083E
:104BB80090014AE06403703C7D017FAC7E0012B432
:104BC800729000037401F0FF128B4AE4900002F027
:104BD8007FD07E0712B42A900135E030E5051287B0
:104BE8009A800F12C15EE4900147F090014AF012DA
:104BF8009236C207900135E0600C900002E0641024
:104C08006004E4024E37900147E07013900003E01F
:104C1800700D90014AE06007E4F07F0112BF2E900A
:104C28000002E0601BA3E0701712C0CE6012900172
:104C380035E0700C12B078E4124FA7C2077F01224A
:104C480012C1AE900002E0124AA84F06024C71044D
:104C58004D87084F510C4E5E104DE6204E0A404ECF
:104C680040804F0E9000004F7E7BFF7A6379CE1212
:104C7800BCB9201603024D47E570C3940F4005E404
:104C8800F57080020570E570124AA84CCC014CD42E
:104C9800024CDC034CE4044CEC054CF4064CFC07D9
:104CA8004D04084D0C094D140A4D1C0B4D240C4D98
:104CB8002C0D4D340E4D3C0F00004CC47BFF7A6325
:104CC80079DB80767BFF7A6379EE806E7BFF7A648E
:104CD800790180667BFF7A647914805E7BFF7A6451
:104CE800792780567BFF7A64793A804E7BFF7A6415
:104CF800794D80467BFF7A647960803E7BFF7A64D9
:104D0800797380367BFF7A647986802E7BFF7A649C
:104D1800799980267BFF7A6479AC801E7BFF7A6460
:104D280079BF80167BFF7A6479D2800E7BFF7A6424
:104D380079E580067BFF7A6479F812C049804C7B5C
:104D4800FF7A65790B900135E0FF900029E4F0A324
:104D5800EFF012BCB9201223900135E06003024F36
:104D68007EFD7F0C129083900001EFF0E49000EE3E
:104D7800F0FD7FABFE12B472024F7EC212804B7BF5
:104D8800FF7A65791C12BCB930160AAF707E001222
:104D9800A5AB024F7E201241900003E0700D124F28
:104DA800A77BFF7A65792BE4024F4812C28EEF3059
:104DB800E10B3020028019127635024F7E12C28E26
:104DC800EF30E20C12B07812B802129236024F7E1F
:104DD8007F3F124F9DF0024F7E7F09024EFE201248
:104DE8001C12C28EEF30E1077F0130202A80227A20
:104DF800657935124FB77F10124F9D80327F0602BA
:104E08004EFE20122E12C28EEF30E1117F023020AA
:104E180006128106024F7E126FD9024F7E7A65799B
:104E280042124FB7E4FD7F11129083900001EFF01A
:104E38007F01227F07024EFE2012169000EFE070DD
:104E48000A12C28EEF30E10312B802129E9B024F83
:104E58007E7F05024EFE900135E0FF600990010358
:104E6800E07003024F7EEF6046900149E070409089
:104E78000103E0640170387FACFE12BD2DEF6401C0
:104E88006003024F7E900135E030E50312C15E9069
:104E980001497401F0900144E07008900133E090FA
:104EA800014BF09001447401F0900133F0803F20F1
:104EB8001242900149E06017E4900135F090013703
:104EC8007407F0E4900149F0900133F0024F7E90AE
:104ED80000EFE0700A12C28EEF30E10312B80290C0
:104EE8000133E0700404F08005E4900133F012AD62
:104EF800B5024F7E7F04126A25D217024F7E7BFFD0
:104F08007A65794F803E90016FE0641470683018BC
:104F180065301614C2167F0112BF2E7D027FA07E57
:104F28000012BBE5C218800ED2167F0212BF2EAF48
:104F3800707E0012A5AB7BFF7A657966A216E43312
:104F4800900029F012BCB9802D90016FE0641770B1
:104F5800257F0212BF2E7F647E0012B42A124F846E
:104F6800124F847F0112BF2ED21885657485647331
:0B4F7800856372856271900001E0FF0C
:104F8300227F0112BF2E7F647E0012B42A7F021299
:104F9300BF2E7F647E0012B42A22E4FD1290839018
:104FA3000001EF22FF128B4A7FF412C07D12C15E13
:0F4FB300129236227BFFE4900029F012BCB92243
:10AEC300A20D9221C20D30103AE5307036D2219096
:10AED3000140E0FEB40313A3E0B4020EA3E0700A42
:10AEE300A3E0B401057530408017EEB4031390015D
:10AEF30041E0B4010CA3E07008A3E0B40203753091
:10AF030020C2102021037F0022EF6003AF302220F4
:07AF13000C03AF30227F00A8
:01AF1A002214
:08A5AB00900004EEF0A3EFF0B4
:10A5B30078067C007D017BFF7A6579917E007F02BE
:10A5C3001246A0900004E0FAA3E0FBFF12C0D6ED10
:10A5D3002430900007F0AF0312C0D6900004EEF0D1
:10A5E300A3EFF02430A3F07BFF7A867938129B7CAB
:10A5F3007F1012C2807D027FA07E0012BBE57B022A
:10A603007D377FA07E0012BAC87B017A007906905D
:10A6130000547402F07FA07E0012BA647D017F02B1
:08A6230012B5887F0102BB891A
:107E77000D0A43485F545732383335282530327856
:107E8700292C526561644465636F64657228307894
:107E97003636293D256278000D0A2043485F415652
:107EA7002825303278290020200A0D000A0D627536
:107EB700737720302031203745203839000A0D628A
:107EC700757377203020312037452038390D0A0067
:107ED700FE0000000000000000000000000000009D
:107EE700000143564253000000000000000000005C
:107EF70000000243414D2044000000000000000044
:107F07000000000341562020000000000000000090
:107F1700000000000000000000000000000000005A
:107F27000000000000FE000000000000000000004C
:107F3700000000000000014E545343000000000001
:107F4700000000000000000250414C00000000004B
:107F5700000000000000000003534543414D0000AE
:107F67000000000000000000000550414C4D0000DB
:107F7700000000000000000000000650414C4E00C9
:107F870000000000000000000000000750414C36D0
:107F9700300000000000000000000000044E5453B1
:107FA70043342E34330000000000000000000000BE
:0E7FB7000000000000000000000000000000BC
:107C2B00C10BC104C1024100F600011D004400F765
:107C3B0000000000440104000000004100F000417E
:107C4B0000EB00C185011F0001130001110001129F
:107C5B0000011E00011500011400011A004100FF74
:107C6B00004100EC004100F2004100FD004100F535
:107C7B0000C1004100FE00C106C101C183C107C1A3
:017C8B000AEE
:10B4B90074F72FF582E43400F58322EF75F011A4B7
:10B4C90024D7F582E4347EF583E49322F074042FC3
:10B4D900F582E43401F583229000010246DFE4FBA2
:10B4E9007DFF7F8A22E4F51BF51CF519F5182290DA
:06B4F900001CE004F0223B
:06B2110090001F124A43E9
:10B21700E4FE1246C6900022F012B4E180299000A5
:10B227001F124A231246C6FFB4FF0612B4E1F460A8
:10B2370022900023EFF0FD12B4E1900024F0FB9080
:10B247000022E0FF12BD53900020E475F002124780
:09B25700BB80CB12B4E702BD5329
:10A4A80090001EEFF07BFF7A5E790D12B21112B4A4
:10A4B800E712BD5390001EE024FE601314601024C0
:10A4C800FD600C240624F85011240A600D80117BCD
:10A4D800FF7A5F795D12B211800690001E7401F058
:10A4E8009000FCE0B4051390010DE07002800B9021
:10A4F800001EE014FF12BF87800312BE747B157D17
:10A50800297F8A12BD537B067D5C7F8A12BD537FEB
:10A518000B7E0012BD2D12897F12C250128C2CC2E4
:02A528002322EC
:10C0DF007D017F8A12B877EF30E7037F01227F005F
:01C0EF00222E
:1094A700E490001BF0A3F09000FCE0B405099001E4
:1094B7000DE0600302955AE4900019F012B0229073
:1094C700001AEFF090001CE004F0E0C3940A400398
:1094D70002955A90001AE0FF64FE60E09000F1E008
:1094E700FEEF6E60D7900019E0FFA3E0FEB5070618
:1094F700A3E004F0800AE490001BF0900019EEF05E
:1095070090001BE0C3940240B390001AE0FF700B79
:1095170012B8E990001D7401F080309000F1E070FE
:10952700119000EFE0700630070312C15E12955BE1
:1095370080149000EFE0700630070312C15E1295A9
:109547005B7F3212C07DE490001DF090001DE02487
:03955700FF920A76
:10955A002290001AE0FF12B8E990001AE0FF12A464
:02956A00A82235
:10BE300012C0DFEF60037F01227D1C7F8A12B8777A
:10BE4000EF54F0FF30E7037F0122EF5470C4540F2A
:02BE500004FFED
:01BE520022CD
:10AE6A0012BE30AB07EB24FE601914601624FD6095
:10AE7A0012240224FC500424077017751B00751C49
:10AE8A003C8006751B00751C32E475196B75183DFC
:10AE9A00800312B4EEF517F516E4FFEF75F011A46E
:10AEAA00242CF582E4347FF583E493FEB503012272
:08AEBA00EE60030F80E57F004C
:01AEC200226D
:06C294009000F1E0FF2222
:10B8E9009000F1EFF024FE601914601624FD601237
:10B8F900240224FC500424077017751B00751C3C96
:10B909008006751B00751C32E475196B75183D802E
:09B919000312B4EEF517F5162235
:06C29A009000FCE0FF2211
:10BEB3007F0112B4C4FE9000FCE0FDEE6D60030F41
:0EBEC30080F00F12B4C470027F0112B4C4FFED
:01BED100224E
:09C21C00302103D2B722C2B7227F
:10956C00900018EFF09000FCE06F700302961E90D4
:10957C00013AE0B4010543E804800312B83D9000C1
:10958C0018E09000FCF09000F1E0FF12A4A890000D
:10959C00FCE024FD60202402703A12BDC412961F18
:1095AC00C2957D667F8A12B87790002BEFF07BFF17
:1095BC007A7E7977800E12BDE812961FD2957BFFCA
:1095CC007A7E799F9000FCE0FF900029E4F0A3EFF5
:1095DC00F012BCB912AF1B9000FCE0FF12C1F87F77
:1095EC001E12C07D1294A712923690013AE0B4017B
:1095FC000553E8FB8005E4FF12A62B7F6412C07DA7
:10960C007BFF7DD07F8A12BD537BFF7DD17F8A1279
:0D961C00BD5322C21BE4FF12834EC29422F4
:0DC19500C22112C23712B83DE4FF02BF2ED6
:0CC1AE0012B74C900109EEF0A3EFF02254
:09C22500900109E0FEA3E0FF22F4
:108D0D00C374FF9FFFC39400400CEF94645007E4BD
:108D1D00900002F0804BEFC39464400DEF948C50A3
:108D2D00089000027414F08038EFC3948C400DEF5E
:108D3D0094B450089000027428F08025EFC394B4C9
:108D4D00400DEF94DC5008900002743CF08012EF5F
:108D5D00C394DC400CEFD394FF5006900002744B8B
:108D6D00F0900146E0702C9000F6E0C3940F500592
:108D7D00E004F08024900002E0FFE51DD39F400445
:108D8D00151D8008E51DC39F5002051DE49000F6DA
:108D9D00F08006900002E0F51D7DFF7F8A12B87706
:108DAD00900001EFF012B4E712BD537DBE7F8A1221
:108DBD00B877EF54CF4410FB7DBE7F8A12BD537D33
:108DCD00C47F8A12B877EF5480451DFB7DC47F8A1E
:0F8DDD0012BD53900001E0FB7DFF7F8A02BD5362
:10C11200E4900139F090010CF09001377408F0229C
:108695007FAB7E0012BD2D9000EEEFF07FB07E0027
:1086A50012BD2D9000EFEFF07FAA7E0012BD2D9038
:1086B500012FEFF07FAD7E0012BD2D900103EFF08D
:1086C5007FA07E0012BD2D900146EFF07FB87E00A1
:1086D50012BD2D900100EFF07FB77E0012BD2D90E9
:1086E50000FBEFF07FB97E0012BD2D9000EDEFF09D
:1086F5007FBF7E0012BD2DEF24FF92097FC57E004E
:1087050012BD2D900102EFF07FAF7E0012BD2D90BE
:108715000133EFF07FA5128792EE9001307006E0ED
:108725004401F08004E0540EF07FA6128792EE908B
:1087350001317006E04401F08004E0540EF07FA79B
:108745007E0012BD2DAE07EE9001327006E04401A9
:10875500F08004E0540EF07FA87E0012BD2DAE0718
:10876500EF9001347006E04401F08004E0540EF00F
:1087750012C27090016FEFF012C278900170EFF0A5
:0C8785007FB27E0012BD2D9000F4EFF0DA
:09879100227E0012BD2DAE07226C
:1074BC007BFF7A7E79AE12C0499000EFE0704912E2
:1074CC00C28EEF20E142300A2920073CD207E4901B
:1074DC0000F3F07FA3FE12BD2DEF700990016BE05D
:1074EC0054EFF080069000F37403F07F06128B4A81
:1074FC00801630071312C28EEF20E60CC2077FA352
:10750C007E0012BD2D129236129CC0900000EFF03E
:10751C00126593900135E0701B900139E060159075
:10752C00012FE0FF90010CE0C39F400812BD9FE4C7
:10753C0090010CF0900146E0700E7DC97F8A12B864
:10754C0077900000EFF080027FFF128D0D124B0838
:10755C00EF70030276349000F3E06401707312C292
:10756C008EEF20E16C7FA37E0012BD2DEF606212C6
:10757C00C28EEF20E25B900135E070509000EFE09E
:10758C00700FFD7F0212B58890016BE054EFF08014
:10759C003B900130E0540DF0900131E0540DF0902F
:1075AC000132E0540DF0900134E0540DF012AE10A5
:1075BC00900130E04402F0900131E04402F090017F
:1075CC0032E04402F0900134E04402F0E49000F325
:1075DC00F0129DFF12C29AEF1424FD5002800A1281
:1075EC00C28EEF20E1031294A790016DE0B4010567
:1075FC0053E8FBE4F07DB27F8A12B877EF600302A8
:10760C0074C57BB07DFD7F8A12BD53E4FF12BF2E83
:10761C007FF47E0112B42A7F0112BF2E7B307DFDD8
:08762C007F8A12BD530274C5F0
:017634002233
:10ACA300C2B5C22112C2377F0A7E0012B42AC2B4CF
:10ACB30012B1C27F0112BF2E12BF1012C11212A114
:10ACC3007C12846F7F0A7E0012B42A12869590014B
:10ACD30033E090014BF07FA97E0012BD2D12B2FB31
:10ACE300E4900135F07BFF7A7E79B312C04990007E
:0CACF300EEE060031274BC12A28F80F22D
:10A28F00E4900002F0129CC0900001EFF0601BE020
:10A29F00FF126593900137E0B40803D38001C340E8
:10A2AF0019E4FF12A62BD221800D900001E0FF12BE
:10A2BF00659312C195C22112C237E4FF12AEC3904B
:10A2CF000000EFF060BFE0B404BB129CC0EF70B5AC
:10A2DF009000EE04F0FD7FAB7E0012B47212923646
:10A2EF0012AE107FA37E0012BD2DBF01069000F3AA
:10A2FF007403F0C207E4FF12A62BD22112C2377BE0
:08A30F00FF7A7E79C402C04907
:107FC500900103E0600A640170359000EBE0702FCA
:107FD500300503028105D205E490001CF090001CD9
:107FE500E0FFC39404500E12B4B9E412B4D5E4F022
:107FF50012B4F880E8E49000F0F09000EBF022C2B3
:10800500059000EBE0FF9000F0E0FED39F406AEEA4
:108015009F90001DF0E490001CF090001DE0FF9083
:10802500001CE0C39F504AE4FF12B4D6E0FE12B430
:10803500B9E06E600B90001EEE12B4D5E4F0800539
:108045000FEFB404E4E4FF12B4B9E0FE90001EE0C3
:10805500FDEED39D401012B4B9E014F012B4B9E0AE
:10806500FE12B4D6EEF00FEFB404DC12B4F80280C1
:108075001F9000EBE09000F0F09000F0E090001D04
:10808500F0A37405F0E490001CF090001CE0FFC321
:108095009404502812B4B9E0FF90001DE0FEEFB53E
:1080A500061590001CE0FF90001EF0EEB4010DEFE8
:1080B500049000FEF0800512B4F880CE7F0112C056
:1080C5007D90001EE014600D14600F1460142403ED
:1080D5007025E48025E4F5148022E4F514F515C235
:1080E5001922E4F514F515F51A9000ECE064066024
:1080F5000FE49000F5F022E4F514F515F51AC21910
:018105002257
:10858900A10AA20AA000A310A410A591A601A701FF
:10859900A822A910AA00AB62119E00000100CC0C10
:1085A90002700000005000000F4000119E303100A1
:1085B900AFC81202F1100800500030004000119EAF
:1085C9003100029000040170000000A0F5000F4086
:1085D90000119E3100029000030170000000F0F5C7
:1085E900000F4000119E3230000C0D0A01B1040445
:1085F9000050C800044000119E313000160D0F02D2
:108609003101000050A0000840119E3330100C9831
:1086190028013101000000B400084000119E3130EA
:10862900000C020F023101000050A00008400011A7
:108639009E3130000A0502013101000050A00008F6
:108649004000119E32300040090204B1000890E058
:1086590000043340119E3130008A091808B08A0598
:10866900B05026083340119E30B40040270201F172
:10867900000000E0000033C100119E303C10906002
:0C8689001502F102044050C80036C10088
:10A31700900051FFE475F001124A2CEF02470C90B0
:10A32700004FE0FEA3E0FF22EF14FB7D9E7F8A2211
:10A3370090001C124A2390001FE0F58275830002EB
:10A3470046DFE0A4FFA3E5F0F0A3EFF07DA07F8A4E
:10A357002290005BE0FCA3E0FD22EEF0A3EFF0A368
:10A3670022124730900059EEF0A3EFF04E22A3E0FF
:10A37700FB7D967F8A2212473090004FECF0A3EDC9
:10A38700F022F07B047D947F8A22EDF0EFC39401E5
:08A3970022E4FB7D947F8A2281
:10BBB80012BBDA900028F0E4A3F012BBDAFF900081
:10BBC80028E06F700C900029E004F0E0C3940A406C
:01BBD800E983
:0CBBD900227D957F8A12B877EF5440223D
:10ACFF00E490000EF0E490000DF090000DE0FFC323
:10AD0F009408502FA3E075F008A4FEEF2E7D9C123F
:10AD1F00AD4FFFA3E075F008901908124A17E582AE
:10AD2F002FF582E43583F583E4937D9D12AD4F04B7
:0FAD3F00F080C790000EE004F0E0C3940240B62D
:0CAD4E0022FB7F8A12BD5390000DE02212
:10ABE700900003EFF0A3124A4312AC3544017D9461
:10ABF70012AC3E900003E07D9912AC3E7DE07F8A67
:10AC070012B877EF4410FB7DE07F8A12BD539000A6
:10AC170004124A2390005A741BF07D9A7F8A12B659
:10AC27000E12AC3554FEFB7D947F8A02BD537D9492
:0EAC37007F8A12B877EF22FB7F8A12BD53226C
:10B95B007B607D9B7F8A12BD53E4900002F09000C8
:10B96B0002E0FFC394E2501FEF94C6501AEF75F03C
:10B97B001BA42418F9741935F0FA7BFF12ABE7906E
:07B98B000002E004F080D788
:01B992002292
:03B6900090001512
:10B6930012A3914036EFD39408503012A32F12BD5A
:10B6A3005390001575F00812A34912B877EF54F0C0
:10B6B300FD900016E04DFB7DA07F8A12BD539000E4
:0BB6C30016A3E0FB7DA17F8A12BD539F
:01B6CE002259
:03B5CC00900015D7
:10B5CF0012A3914039EFD39408503312A32F12BD19
:10B5DF005390001575F00412A34912B877EF540F6A
:10B5EF00FD900016E0C454F04DFB7DA07F8A12BD84
:0EB5FF0053900016A3E0FB7DA27F8A12BD537D
:01B60D00221A
:05BB890090001EEFF02A
:10BB8E0012BBB87D9C7F8A12B87790001FEFF090A1
:10BB9E00001EE06006A3E054EF800690001FE04414
:09BBAE0010FB7D9C7F8A12BD533F
:01BBB700226B
:03B5880090001E12
:10B58B0012A391403BEFD39408503512A32F12BD59
:10B59B00537D9F7F8A12B87790001FEFF090001EAB
:10B5AB00E06007A3E04401F0800790001FE054FE29
:10B5BB00F012BBB890001FE0FB7D9F7F8A12BD533A
:01B5CB00225D
:10B39400EFC394014006EFD394084004E4FEFF2277
:10B3A40012A32F12BD537DA07F8A12B877EF540FDA
:10B3B400900028F0A3E4F07DA17F8A12B877900072
:10B3C40028E0F0A3E04FF0900028E0FEA3E078032B
:0AB3D400CEC313CE13D8F9FF7E009C
:01B3DE00224C
:10AFCB00EFC394014006EFD394084004E4FEFF2244
:10AFDB0012A32F12BD537DA07F8A12B877EF54F0C6
:10AFEB00C4F8540FC868FEE4C454F048900028F02D
:10AFFB00A3CEF07DA27F8A12B877900028E0F0A351
:10B00B00E04FF0900028E0FEA3E07802CEC313CE11
:06B01B0013D8F9FF7E00CE
:01B02100220C
:10BA640090004F12A361124A4312A38A12BD53904D
:10BA7400004F12A37512BD53900051124A23900037
:10BA840054E090005AF07D977F8A12B60E12A39864
:03BA940002BD539D
:10BAC80090003012A361EDF0A3EB12A38912BD53CD
:10BAD80090003012A37512BD53900032E0FBA3E032
:10BAE800900037F07D987F8A12B70E12A39802BD96
:01BAF80053FA
:10BBE50090003012A361ED12A38912BD539000306D
:10BBF50012A37512BD53900032E0900037F07B2000
:0DBC05007D977F8A12B70E12A39802BD53DF
:09822D0090004F12A361124A43B4
:10823600900056124A43E4900055F0900054E064D2
:108246000A707990005B7427F0A37410F012A3589B
:10825600C3940AEC9400405612A32612A368601237
:10826600900059A3E0243012A317900055E004F0C3
:108276008015900055E0600F900051E475F00112F2
:108286004A2C743012470C12A32690005BE0FAA326
:10829600E0FBFDAC0212A37D7D0A7C00AF03AE02BB
:1082A60012473090005BEEF0A3EFF002825390008D
:1082B6004FA3E02430A312A31A028341900054E096
:1082C6006410600302834B90005B7410F0A3E4F02B
:1082D60012A358C39410EC9400404412A32612A390
:1082E600686028900059E0FEA3E0FFC3940AEE946C
:1082F600004005EF24378007900059A3E024301290
:10830600A31712A32612A35812A37D90005BE0C404
:10831600F854F0C868F0A3E0C4540F48F080B112D6
:10832600A326C3940AEE94004005EF2437800790F5
:10833600004FA3E02430FFA312A31B900051124A62
:0783460023E412470C7F0144
:01834D00220D
:06C02E0090004F124A438E
:10C03400E4FF90004FE475F001124A2C1246C660EA
:04C04400030F80EE78
:01C0480022D5
:069B7C0090001C124A4398
:109B82007DFF7F8A12B877900020EFF054FEFB7DB4
:109B9200FF7F8A12BD537DE07F8A12B877EF54EFC0
:109BA200129C0BE490001FF012A337FF604290005A
:109BB2001FE02401FDE433FC90001C124A23E92D2E
:109BC200F9EA3CFAEF129C1490001FE02401FFE432
:109BD20033FE90001C124A23E92FF9EA3EFA74057B
:109BE200129C1412A33704FF90001FE02FF080B8DC
:109BF2007DE07F8A12B877EF4410129C0B90002010
:099C0200E0FB7DFF7F8A02BD53E7
:109C0B00FB7DE07F8A12BD5322900025F07F8A12E4
:039C1B00B8B022BC
:100066000A0D6D6F646520300A0D000D0A5B4D5355
:10007600475D536574345769646553637265656E8D
:100086002829203D3E2053637265656E20746F20DB
:10009600343A33202121000D0A5345542049746512
:1000A6006D2056616C75653A2069642D2558000AE5
:1000B6000D6D6F646520320A0D000D0A2B2B284F3B
:1000C6005344486967684D656E755F73756229208C
:1000D6004F53444D656E754C6576656C3A256400E4
:1000E6000D0A52455345545F4D6F6E69746F7256D3
:1000F600414C5545000A0D79766D697820340A0D14
:10010600000A0D79766D697820300A0D000A0D799E
:10011600766D697820310A0D000A0D79766D697859
:1001260020320A0D000A0D79766D697820330A0DA2
:1001360000436865636B20564741204361626C65E6
:10014600004F7574204F662052616E676500FE622F
:10015600596B62714C2F713A34FF001213566F6C53
:10016600756D65002020204175746F2041646A75A5
:100176007374696E67202E2E2E2E20202000436F6A
:100186006D706F736974650056657273696F6E0082
:100196004C43442056657273696F6E004456522074
:1001A60056657273696F6E0057494649204950007B
:1001B60057494649204D4143004741544557415907
:1001C600004F534420506F736974696F6E004F532C
:1001D6004420506F736963695F6E004F534420FE7D
:1001E6005465714667FF004C616E6775616765000F
:1001F6004C616E677565005370726163686500498E
:1002060064696F6D6100FE5756714667FF00427262
:10021600696768746E657373004C756D696E6F738C
:1002260069745F0048656C6C69676B656974004248
:1002360072696C6C6F00FE4024715F60FF00436F53
:100246006E747261737400436F6E74726173746559
:10025600004B6F6E747261737400436F6E747261DB
:1002660073746500FE394F715F60FF0053617475EA
:10027600726174696F6E0053AA74746967756E67EC
:100286000053617475726163695F6E00FE4A2C33B8
:10029600715F60FF0048756500546F6E616C69742C
:1002A6005C00466172626500546F6E616C696461E0
:1002B6006400FE4A5448715F60FF005368617270C3
:1002C6006E6573730041637569745C00536368AA55
:1002D6007266650041677564657A6100FE4639336A
:1002E600715F60FF00526573657400445C666175FA
:1002F60074004772756E6465696E7374656C7567B4
:100306000050726564657465726D696E6163695FDC
:100316006E00FE66246DFF005769646520536372A4
:1003260065656E005749444520FE6D3B714667FF83
:10033600004D6972726F72004A756D7000534551B7
:100346002054696D652053746570004A756D702080
:1003560041560043616D204F757400526574757285
:100366006E00526563616C6C004D6F6E69746F72DE
:1003760020526563616C6C0044565220526563617D
:100386006C6C0045786974002000766572204130F7
:100396002E30340054696D654F757420536574753D
:1003A6007000476175676520536574757000476115
:1003B60075676520526563616C6C005072696F7277
:1003C60069747900526576657273204D6F646500B5
:1003D6005265736F6C7574696F6E004650530051A9
:1003E60075616C697479005265636F7264204D6F34
:1003F6006465005265636F7264204C656E6774684D
:10040600005072652D616C61726D00506F73742DB2
:100416007265636F7264004170706C790052656337
:100426006F72645374617274005265636F726453C1
:10043600746F7000536E617073686F7400446174FA
:10044600652054696D650059656172004D6F6E7463
:10045600680044617900486F7572004D696E0053FB
:100466006563004461796C69676874536176696E87
:100476006700426567696E6500456E64005765658D
:100486006B0054696D650054696D65205A6F6E6521
:100496000052657475726E264170706C7900466FF5
:1004A600726D617420534420436172640041756427
:1004B600696F205265636F7264004669726D776179
:1004C60072652055706461746500596573004E6FDE
:1004D600004669727374204E756D626572005365CD
:1004E600636F6E64204E756D626572005468697242
:1004F60064204E756D62657200466F757274682071
:100506004E756D626572004368616E676520506165
:100516007373776F7264004F76657257726974658C
:100526000044697220496D616765005472696767A6
:1005360065722056474100547269676765722044A8
:10054600656C617900496E666F726D6174696F6E74
:100556000055706461746520436F6E666967005369
:100566004420636F766572204465742E0043414DC6
:1005760020410043414D20420043414D204300436A
:10058600414D205200446973706C617900445652A3
:1005960020446973706C61790044697374616E6399
:1005A60065204761756765004F5344204C6F636B48
:1005B6000050617373776F726400536F7572636571
:1005C600205469746C6500435642532041004356DB
:1005D600425320420043564253204300435642535F
:1005E6002052004175746F20446179264E69676810
:1005F600740044697220496D616765004469722020
:10060600496D61676520410044697220496D6167E3
:100616006520420044697220496D61676520430088
:10062600526561722053657475700043414D2041D7
:100636000043414D20520043414D20420043414D6D
:1006460020430043414D2044000200456E676C691B
:100656007368004672616E7B6169730044657574E8
:1006660073636800457370617E6F6C00FE6A235683
:10067600FF200004014D6F646531004D6F646532E3
:10068600004D6F6465330055736572004D6F646588
:1006960031004D6F646532004D6F646533005573EC
:1006A60061676572004D6F64757331004D6F6475D7
:1006B6007332004D6F647573330042656E75747ADC
:1006C6006572004D6F646F31004D6F646F32004D7F
:1006D6006F646F33005573756172696F00FE3A344B
:1006E600FF3100FE3A34FF3200FE3A34FF3300FE9B
:1006F60047515B71FF200008004175746F004E542E
:1007060053430050414C00534543414D004E545312
:1007160043342E34330050414C4D0050414C4E0072
:1007260050414C36300005004E6F726D616C0057BB
:100736006964650050616E6F72616D610046756C2B
:100746006C000500FE1A1BFF2000FE1C1DFF20008A
:10075600FE1E1DFF2000FE1F20FF2000FE1F21FFA2
:10076600200009004F6666004343310043433200D0
:10077600434333004343340054310054320054336E
:100786000054340002004F4E004F46460002004D12
:100796004952524F52004E4F524D414C00030044B5
:1007A6006179004155544F004E6967687400020034
:1007B60031363A3900343A33000200004F4E004FCA
:1007C600464600040053494E474C45004455414CAB
:1007D60000545249504C4500412B422C422B4100BB
:1007E60007004100412B4200412B4300412B5200A0
:1007F600412B424300412B425200412B43520007FA
:10080600004200422B4100422B4300422B52004241
:100816002B414300422B415200422B43520007001A
:100826004300432B4100432B4200432B5200432BF2
:10083600414200432B415200432B4252000A0052D0
:1008460000522B4100522B4200522B4300522F41A3
:100856004200522F414300522F424300522B414245
:1008660000522B414300522B4243000E005155418A
:10087600440053455100412B4200432B5200412B6B
:100886005200522B4200412B4300432B4200522F71
:10089600414200522B4142004100420043005200B7
:1008A6000500515541440043414D410043414D42ED
:1008B6000043414D430043414D5200020000373290
:1008C6003078343830003335327832343000050031
:1008D600003500313000313500323000323500331A
:1008E60030000500004C6576656C2D31004C657650
:1008F600656C2D32004C6576656C2D33004C657643
:10090600656C2D34004C6576656C2D350003000052
:100916004E6F6E65004E6F726D616C00416C617258
:100926006D000600003120206D696E003220206DBA
:10093600696E003320206D696E003420206D696E6B
:10094600003520206D696E003130206D696E00051E
:100956000000313520736563003330207365630012
:1009660036302073656300080000313520736563F7
:1009760000333020736563003630207365630002F0
:10098600000044697361626C6500456E61626C6566
:10099600000400004669727374005365636F6E64E9
:1009A60000546869726400466F75727468000400CA
:1009B60041004200430052001900002D3132002D43
:1009C6003131002D3130002D39002D38002D370002
:1009D6002D36002D35002D34002D33002D32002DFF
:1009E600310030003100320033003400350036006B
:1009F6003700380039003130003131003132000221
:100A060000502000442000030032343030003438D7
:100A160030300039363030000200FE1819FF200051
:100A2600FE1A1BFF20000400FE1C1D1E1F2021FFB6
:100A36002000FE222328292A2BFF2000FE24252819
:100A4600292A2BFF2000412B422C422B41000E006D
:100A5600FE262728292A2BFF200053455100412B2B
:100A66004200432B5200412B5200522B4200412B95
:100A76004300432B4200522F414200522B41420079
:100A8600410042004300520056474100FF018EFFDD
:100A9600018EFF018EFF018EFF018EFF0196FF0181
:100AA60096FF0196FF0196FF0196FF01A2FF01A2A4
:100AB600FF01A2FF01A2FF01A2FF01AEFF01AEFFEF
:100AC60001AEFF01AEFF01AEFF01B6FF01B6FF01A9
:100AD600B6FF01B6FF01B6FF01BFFF01BFFF01BFB1
:100AE600FF01BFFF01BFFF0137FF0147FF0147FFBE
:100AF6000147FF0147FF0154FF0161FF01C7FF01E5
:100B0600C7FF01C7FF01D4FF01E1FF01EDFF01F6B9
:100B1600FF01FDFF0205FF020CFF0214FF021FFF8B
:100B2600022AFF0235FF023CFF0244FF024DFF028C
:100B360057FF0260FF026AFF0272FF0272FF027D28
:100B4600FF0287FF0292FF029BFF029FFF02A8FFA0
:100B560002AEFF02B8FF02C1FF02CBFF02D2FF02C4
:100B6600DAFF02E2FF02EBFF02F1FF02F8FF0307E2
:100B7600FF0318FF0337FF0337FF0337FF0337FF72
:100B86000337FF033EFF033EFF033EFF033EFF0323
:100B96003EFF0343FF0343FF0343FF0343FF0343B8
:100BA600FF0359FF0359FF0359FF0359FF0359FF79
:100BB6000351FF0361FF0361FF0361FF0361FF034D
:100BC60061FF0368FF0368FF0368FF0368FF0368AC
:100BD600FF036FFF036FFF036FFF036FFF036FFFDB
:100BE600037EFF037EFF037EFF037EFF037EFF037C
:100BF60089FF0389FF0389FF0389FF0389FF058BAB
:100C0600FF058BFF058BFF058BFF058BFF0593FF0C
:100C16000593FF0593FF0593FF0593FF059FFF05CA
:100C26009FFF059FFF059FFF059FFF05AEFF05AED2
:100C3600FF05AEFF05AEFF05AEFF05B7FF05B7FF23
:100C460005B7FF05B7FF05B7FF05C0FF05C0FF05E0
:100C5600C0FF05C0FF05C0FF05CDFF05CDFF05CDD3
:100C6600FF05CDFF05CDFF05D4FF05D4FF05D4FF55
:100C760005D4FF05D4FF05DBFF05DBFF05DBFF051C
:100C8600DBFF05DBFF05E2FF05E2FF05E2FF05E20C
:100C9600FF05E2FF05E9FF05E9FF05E9FF05E9FFB5
:100CA60005E9FF05F8FF05F8FF05F8FF05F8FF055C
:100CB600F8FF0602FF060EFF061AFF0626FF0626A7
:100CC600FF0626FF0626FF0626FF0631FF0631FF32
:100CD6000631FF0631FF0631FF063DFF063DFF06E2
:100CE6003DFF063DFF063DFF0643FF0643FF064365
:100CF600FF0643FF0643FF0637FF0637FF0637FFAB
:100D06000637FF0637FF0649FF0649FF0649FF0675
:100D160049FF0649FF038EFF0390FF039AFF03A8CE
:100D2600FF03B4FF03C1FF03CAFF053DFF053DFFF7
:100D3600053DFF053DFF053DFF0573FF0573FF05F7
:100D460073FF0573FF0573FF0579FF0579FF0579C5
:100D5600FF0579FF0579FF057FFF057FFF057FFF0B
:100D6600057FFF057FFF0585FF0585FF0585FF05D7
:100D760085FF0585FF03D6FF03E1FF03E5FF03EDCE
:100D8600FF03F9FF0407FF0411FF041DFF0423FFFF
:100D9600042FFF043AFF0443FF044DFF0452FF04EF
:100DA60058FF045CFF0461FF0465FF0469FF0478D3
:100DB600FF047FFF0483FF0488FF048DFF0497FF71
:100DC60004A4FF04B3FF04C0FF04D0FF04D4FF044F
:100DD600D7FF04E4FF04F2FF04FFFF050DFF051D26
:100DE600FF0527FF0531FF054BFF0557FF0565FF8B
:100DF600031EFF031EFF031EFF031EFF032AFE6CD6
:100E06006F00FE727500FE606300FE787B00FE6672
:100E16006900FE848700FE010200FE7E8100FE8AD4
:100E26008D00FE909300FE969900FEC0C300FE9CC6
:100E36009F00FEA2A500FEA8AB00FEAEB100FEB468
:100E4600B700FEBABD00000018031661180216614D
:100E56000000FF0C99FFFFFF3200000700B8078A69
:100E66000000FF0C03FFFFFF3200000700B9078AEE
:100E76000000FF0C21FFFFFF3200000700BA078ABF
:100E86000000FF0C30FFFFFF3200000700BB078A9F
:100E96000000FF0D29FFFFFF3200000700CA078A86
:100EA6000000FF0D2CFFFFFF3200000700D607B43D
:100EB6000000FF0BB8FFFFFF3200000300F1000047
:100EC60000000000000000FFFF000000000000001E
:100ED600180216610000FF0DD1FFFFFF320000036C
:100EE60000F100000000FF0DCEFFFFFF32000003FF
:100EF60000ED000000000000000000FFFF00000001
:100F060000000000180216610000FF0DD4FFFFFF6D
:100F160032000005002D0E4D0000FF0DD7FFFFFF2C
:100F260032000005002E0E4D0000FF0DDAFFFFFF18
:100F360032000005002F0E4D0000FF0DDDFFFFFF04
:100F46003200000500380E4D0000FF0DE0FFFFFFE8
:100F56003200000300EE00000000FF0BB8FFFFFFA9
:100F66003200000300F1000000000000000000FF56
:100F7600FF00000000000000180216610000FF0DCF
:100F8600D4FFFFFF32000005002D0E4D0000FF0DBF
:100F9600D7FFFFFF32000005002E0E4D0000FF0DAB
:100FA600DAFFFFFF32000005002F0E4D0000FF0D97
:100FB600DDFFFFFF3200000500380E4D0000FF0D7B
:100FC600C5FFFFFF3200000300EB00000000FF0D2D
:100FD600E0FFFFFF320F0E0100000F0A0000FF0BBB
:100FE600B8FFFFFF3200000300F100000000000020
:100FF600000000FFFF000000000000001805166159
:101006000000FF0DBFFFFFFF32000007002C09BEE6
:101016000000FF0D9EFFFFFF3200000500200E4D71
:101026000000FF0DA1FFFFFF3200000500210E4D5D
:101036000000FF0DA4FFFFFF3200000500220E4D49
:101046000000FF0DA7FFFFFF3200000500230E4D35
:101056000000FF0DAAFFFFFF3200000500240E4D21
:101066000000FF0DC2FFFFFF3200000300F6000084
:1010760000000000000000FFFF000000000000006C
:101086000000FF0DCEFFFFFF32000003009B0000B3
:101096000000FF0DD1FFFFFF3200000300F100004A
:1010A60000000000000000FFFF000000000000003C
:1010B6000000FF0DCEFFFFFF3200000300700000AE
:1010C6000000FF0DD1FFFFFF3200000300F100001A
:1010D60000000000000000FFFF000000000000000C
:1010E6000000FF0DCEFFFFFF32000003009E000050
:1010F6000000FF0DD1FFFFFF3200000300F10000EA
:1011060000000000000000FFFF00000000000000DB
:101116000000FF0BD6FFFFFF3210B60100000E4E97
:101126000000FF0BE5FFFFFF3210E60100000E4E48
:101136000000FF0BB8FFFFFF3200000300F10000C4
:1011460000000000000000FFFF000000000000009B
:10115600180416610000FF0ABFFFFFFF3600000BF0
:1011660000F100000000000000FFFFFF3200000C4D
:1011760000390E4D0000FF0ACEFFFFFF3600000BC0
:1011860000F100000000000000FFFFFF3600000C29
:10119600003A0E4D0000FF0ADDFFFFFF3600000B90
:1011A60000F100000000000000FFFFFF3600000C09
:1011B600003B0E4D0000FF0BB8FFFFFF320000039F
:1011C60000F1000000000000000000FFFF0000002A
:1011D60000000000180416610000FF0BC7FFFFFFA8
:1011E60032000003009B00000000FF0BF4FFFFFF2E
:1011F6003200000300F400000000FF0D1AFFFFFF9D
:101206003200000B00F400000000FF0D1AFFFFFF84
:101216003200000B00F400000000FF0D1AFFFFFF74
:101226003200000B00F400000000FF0D1AFFFFFF64
:101236003200000B00F400000000FF0D1DFFFFFF51
:101246003600000B00F4000000000000000000FF64
:10125600FF00000000000000180516610000FF0DE9
:1012660086FFFFFF3200000700E409280000FF0D9B
:101276008CFFFFFF3200000700E6096D0000FF0D3E
:10128600C8FFFFFF3200000700EC09B40000FF0DA5
:10129600C2FFFFFF3200000300F50000000000005F
:1012A600000000FFFF0000000000000018041661A7
:1012B6000000FF0D83FFFFFF321262010000125E85
:1012C6000000FF0D7DFFFFFF3200000700E108D49C
:1012D6000000FF0D80FFFFFF3200000700E208E874
:1012E6000000FF0DC5FFFFFF320F820100000F7ED9
:1012F6000000FF0DCBFFFFFF320EDA0100000ED615
:101306000000FF0DC2FFFFFF3200000300F50000E2
:1013160000000000000000FFFF00000000000000C9
:101326001805166100000000000000FFFF00000025
:1013360000000000180416610000FF0B1FFFFFFFEE
:101346003200000400960E4D0000FF0B2EFFFFFF3B
:101356003200000400950E4D0000FF0B3DFFFFFF1D
:101366003200000400970E4D0000FF0B4CFFFFFFFC
:101376003200000400990E4D0000FF0B5BFFFFFFDB
:1013860032000004009A0E4D0000FF0BB8FFFFFF6D
:101396003200000300F1000000000000000000FF22
:1013A600FF00000000000000180516610000FF0C99
:1013B600CFFFFFFF3200000700C1078A0000FF0CC5
:1013C600DEFFFFFF3200000700C2078A0000FF0CA5
:1013D600EDFFFFFF3200000700C3078A0000FF0C85
:1013E600FCFFFFFF3200000700C4078A0000FF0B66
:1013F600B8FFFFFF3200000300F10000000000000C
:10140600000000FFFF000000000000000000FF0DCC
:101416003EFFFFFF3200000400B20E4D0000FF0D3C
:101426004DFFFFFF3200000400B30E4D0000FF0D1C
:101436005CFFFFFF3200000400B40E4D0000FF0DFC
:101446006BFFFFFF3200000400B50E4D0000FF0BDE
:10145600B8FFFFFF3200000300F1000000000000AB
:10146600000000FFFF0000000000000018051661E4
:101476000000FF0CB7FFFFFF3200000700CD07E6B4
:101486000000FF0CBAFFFFFF3200000700CE080580
:101496000000FF0CBDFFFFFF3200000700CF08244D
:1014A6000000FF0BB8FFFFFF3200000300F1000051
:1014B60000000000000000FFFF0000000000000028
:1014C600180816610000FF0B79FFFFFF3213B20107
:1014D60000000E4E0000FF0DE6FFFFFF32147601FE
:1014E60000000E4E0000FF0CC0FFFFFF3200000799
:1014F60000C608430000FF0B88FFFFFF320000070D
:1015060000C708710000FF0BA6FFFFFF32000007AF
:1015160000C808A60000FF0B97FFFFFF320000047B
:1015260000C90E4D0000FF0D2FFFFFFF3214120100
:1015360000000E4E0000FF0BB8FFFFFF3200000355
:1015460000F1000000000000000000FFFF000000A6
:10155600000000000204FF320E04000000FFFF320C
:10156600FF133E01009F133A0E08000000FFFF32F2
:10157600FF0E560100000E520E0C000000FFFF3257
:10158600FF14CA01009F14C60E10000000FFFF32B0
:10159600FF11DE01000011DA00000000000000FF6C
:1015A600FF000000000000000000000000FFFF3206
:1015B600FF155E010000155A00000000000000FF44
:1015C600FF0000000000000000000064003200027E
:1015D6000034001A0001002C001600000037001C21
:1015E600000000C70064002D00D200800000000744
:1015F60000030000003F0020002D00D20080000004
:10160600001F00100019007D005A001E00820069AC
:10161600FF830018001E000000FF0080FF80007F8F
:1016260000000000000700030000007F00401111C9
:101636001171113B161A010201342C342C024B3263
:101646003232323232324B323232111013141570BA
:101656007174727370717472737863008080006045
:101666008080808020808080803B68F89090006039
:101676008080808020808080800358F8A0A0006051
:1016860080808080208080808003322528282D64F9
:10169600323232323232000A006000610062006388
:1016A60000660067006800B900FC13DBA67B0060DB
:1016B600000017481BDB807B0000000017481EF265
:1016C600807C800001B6314826D580690000000084
:1016D6006FDF13D4A69100600000174821D48091D3
:1016E60000000000174813F28092800001B63448CB
:1016F60013DC807F00000000605A14008B7C0150D0
:101706000000294814DC807C00000000294814F2FF
:10171600807C800001B6294814DC805F0000000050
:101726007B5A0C008B94015000002D480CDC8094F1
:10173600000000002D480CF28094800001B62D4870
:101746000CDC807F00000000605A3AF680FB0050F7
:10175600000026483AC380FB0000000026483ACC29
:1017660080FB800001B626483AC380BE0000000018
:10177600705A3FF98029045000002E483FC3802943
:10178600040000002E483FD08029840001B62E4870
:101796003FC380E800000000805A28A4806A0450F5
:1017A6000000165A2884806A04000000165A288908
:1017B600806A84350035165A2884801C040000008F
:1017C6006B5A23F98014045000001F5A23C8801452
:1017D600040000001F5A23F08014843501871F5A25
:1017E60023C880E700000000565A202020496E706A
:1017F600757420203A202020202020202020202020
:101806002020200020202053797374656D203A2013
:1018160020202020202020202020202020002020E2
:1018260020482046726571203A2020202020206B17
:10183600487A20202020200020202056204672654D
:1018460071203A20202020202020487A20202020A5
:101856002000202020462F57205265763A2020204F
:101866002020202020202020202020000000000012
:101876000000000000000000000000000000000062
:101886000000000000000102020205050503040431
:101896000404040404040404040404040404040402
:1018A600032020201C202020202020202020200073
:1018B6002020202020202020202020002E003A005A
:1018C60001010101010202020202020505050505E8
:1018D600050505050504040404040403202020006E
:1018E60004040404040320202000202020202020BB
:1018F6002020202020002020202020202020202002
:021906002000BF
:107C8C00410122FF4101230041012800C120C11FF5
:107C9C00410110004101250041012A004101290048
:077CAC0041011D00017900F8
:104FC200D3900011E09400900010E09400227E0043
:104FD200900011E09000105403FFEEF0A3EFF022D6
:104FE20090010EE0FEA3E0F5828E83229000267AE5
:104FF200007927E0FF7E007B0190002F124A437B5D
:10500200FF22EE900010F0A3EFF02275F010124A8A
:1050120017740E93FB740F93900111CBF0A3EBF076
:105022008F828E83ED75F010124A17740993FF7404
:105032000A9390010ECFF0A3EFF022900029E02412
:10504200F1FF900028E034FFFE90002D024A237504
:10505200F010124A17740D93227A1579E0900032FB
:10506200124A437A1579CE2290001F124A239000E9
:105072000E1247FCAAF0F97BFF90002D124A4390D2
:10508200001F024A23900010A3E0FD22E0FDE490FD
:105092000035F0A3EDF02290010EE0FEA3E0FFF553
:1050A200828E8322E0FF900010E4F0A322E49000BD
:1050B20010F0A3F022900028E0FEA3E0FF22E0FE21
:1050C200A3E0FF7B019000547409F02290010EE0EE
:1050D200FEA3E0FFEE90011EF0A3EFF0A322FD7508
:1050E200F00A84E5F02430F0ED75F00A84227E00A7
:1050F20090012BEEF0A3EFF022E0FEA3E0FF90017F
:1051020011E0FCA3E0F5828C832290000EE0900077
:1051120010A4FFE5F08FF00247BB75F010124A179A
:10512200740E93FC740F93AA04F97BFF900007128C
:105132004A438F828E83227D017BFF7E000246A03E
:10514200FFE975F003A42416F582E43400F5832206
:10515200900010E0FEA3E0FF900111E0FAA3E0F559
:10516200828A83740393FDE49322EFF090000FE0B0
:105172002290004CE475F001124A2C0246C69000BF
:1051820002124A78900128E075F003A4F58285F0B6
:1051920083024A78F0A3EFF0D39015CE7401939F67
:1051A200EE6480F8E49364809822FF900028E03453
:1051B200002290010EE0FEA3E0AA06F97BFF227511
:1051C200F010024A17A3E475F0010247BBE0FEA308
:1051D200E02DFDEE3CFCEDA4FBAAF0FF900018E0F0
:1051E200229015D0E493FE740193FF22900010E404
:1051F200F0A3740EF022F0E0FF25E0243AF582E4F9
:105202003416F583E49322F0EF25E0243BF582E4A3
:105212003416F583E493227E00EEF0A3EFF07B01D7
:1052220022EEF0A3EFF0A32290000D0246DFC3901E
:105232000011E09403227D017BFF7E007F0C024679
:10524200A090012DE0640122740E93FB740F9390E1
:105252000111CBF0A3EBF022EF54F8FFA3E05407C7
:105262004FFB7D177F8A22900011E02403F090000B
:1052720010E03400F02290000CE0FEA3E0FF90006A
:105282000AA3E0FD22FFE493FC740193FDC3EF9DAA
:10529200FEE49C2290000EEEF0A3EFF0FD900014CD
:1052A200E0FF22E57925E02415F582E43401F58357
:1052B2002235F0FA7BFF90000BE0900054F022249C
:1052C20040F582E43400F5832290012BA3E0FF2213
:1052D200E0FFA3E090011ECFF0A3EFF0227D187C47
:1052E2000012471EEF22FFE08FF0A4FF22A3E0543A
:1052F200074438FB7D787F8A22C3900011E0940630
:1053020022F090003AE004F022E0FEA3E0FF7B01ED
:1053120022E0FF7E007B017A00792822FBC3EF9B0B
:10532200FFEE9400FEC322C3900011E0940222E03B
:10533200FD75F00A84E5F0243022F9E43AFA024AD3
:10534200432FFFE035F0FAA9077BFF22E024052F67
:10535200F075F0058422FFE4F0A3EFF02290001331
:10536200A3E0FF22FF7E007B017A007927229FEED5
:105372006480F8EC64809822124A230246C67D3289
:105382007F267E002275F011A424D8F9747E22F5BE
:1053920082E43400F583EEF022F582E43400F583F2
:0353A200EEF02208
:03000E0012C260BB
:0100110022CC
:05790F00900012EFF0F2
:1079140012000E900017EFF0900012E0B401047F03
:107924000180027FFF90001712534EE5F01251F8C8
:10793400FEFD900013E4F0A3EDF0900126E0FDC3FA
:10794400900014E09DF0900013E09400F090012664
:10795400EE125209FFFD900015E4F0A3EDF0900142
:1079640027E0FDC3900016E09DF0900015E0940020
:10797400F0900127EFF09000187401F0900018E0E7
:10798400FFD39404506D12B394AD07AC069000136A
:1079940075F0081251CFF975F003A42417F582E4A9
:1079A4003400F583EFF0EA125142EFF0AF0112AF69
:1079B400CBAC06AD0790001575F0041251CF75F0ED
:1079C40003A42418F582E43400F583EFF0EAC4F844
:1079D40054F0C8EBC4540F485470FF900018E0F9F9
:1079E400125144E04F125142EFF0900018E004F0BD
:1079F40002798012BBB87DE07F8A12B877EF54EF2A
:107A0400127A6F9000187401F0900018E0FFD3947C
:107A1400045031EF14FB7D9E7F8A12BD53900018F1
:107A2400E075F003A42416F9740035F0FA7B019094
:107A3400005A7403F07DA07F8A12B60E900018E0FD
:107A440004F080C57DE07F8A12B877EF4410127A83
:107A54006F900017E0FF12C1EF12BBB8E4FB7D90FA
:0A7A64007F8A12BD53900017E0FF67
:0A7A6E0022FB7DE07F8A12BD532247
:106C310090163AE493900126F090163BE49390016C
:106C410027F0E4FF12C1EF7FB0126DC27FA0126D79
:106C5100C27FA07E0012BD2D900146EFF07FA112F0
:106C61006DCA7FA2126DCA7FBA126DD97FA4126D4F
:106C7100D97FAB126DD17FA3126DE87FBB126DE896
:106C81007FA5126DD17FA6126DE07FA7126DE07F07
:106C9100A8126DEF7D327F387E0012B47290016FC1
:106CA1007432F0E4FF12834E7D327F377E0012B4DE
:106CB100727D037FB27E0012B4727FBC126DEF7FD2
:106CC100BD126DFE7FBE126DFE900103E0700FFDDF
:106CD1007FAEFE12B4727D017FAC7E00800E7D0D11
:106CE1007FAE7E0012B472E4FD7FACFE12B472E49A
:106CF100900139F07D027FAAFE12B4727FA9126E53
:106D010017E4FF12B2FB7BFF7A00796612C0497D5E
:106D1100337FA07E0012BBE57FB2126E177FB312E4
:106D21006DF67FB4126DF67FB5126E0F7FB6126EDF
:106D31000F128695E4FF12C2017D017FBF7E001212
:106D4100B4727FBF7E0012BD2DEF24FF9209E4FDD6
:106D51007FB8FE12B4727FB87E0012BD2D90010083
:106D6100EFF07D017FB77E0012B4727FB77E001213
:106D7100BD2D9000FBEFF07D027FB97E0012B47251
:106D81007FB97E0012BD2D9000EDEFF0E4FD7FAFE5
:106D9100FE12B472E4900133F090010204F0FD7F21
:106DA100C57E0012B4727F1B126E057F1C7E02121B
:106DB100B4727F1D126E057F1E7E0212B47202A490
:106DC100257D017E0012B47222E4FDFE12B472220E
:106DD1007D017E0012B47222E4FDFE12B472227DA6
:106DE100017E0012B47222E4FDFE12B47222E4FDAF
:106DF100FE12B472227D017E0012B47222E4FDFE05
:106E010012B47222E4FD7E0212B472E4FD227D010D
:0D6E11007E0012B47222E4FDFE12B4722263
:10C0F00012C268900128EFF075F00584AFF0EFF000
:01C10000221C
:10BF6A00EFB401047F0180027FFF90012812534E33
:0CBF7A00AFF0EFF012C201900128E0FFD0
:01BF86002298
:05AABA00900014EDF016
:10AABF00EF75F003A42481FEE435F0A3F0A3CEF0EC
:10AACF00E4A3F0900017E0FFC394035043900016E7
:10AADF00E02FFF900015E03400FE12BD2D900018FE
:10AAEF001252197A00791A124FFB12505B1298ED1D
:10AAFF00900017E02471FD90001AA3E0FF9000145E
:10AB0F00E02FFB7F8A12BD53900017E004F080B353
:01AB1F002213
:10A81F00EFB401047F0180027FFF90012CE024043C
:10A82F00FD90012BE03400FCEF3395E0FEED2FFFA0
:10A83F00EC3EF0A3EFF07E0090012B124FD9FD7F7D
:10A84F008012B4727F107E0012BD2D7E007B017AC4
:10A85F00007912124FFB7A1579E612505F1298EDBC
:10A86F001252CB900012A3E0FD12AABA7F807E0095
:10A87F0012BD2DEF64037BA860047D3080027D3212
:0AA88F007F3E7E0012BAC81252CBC1
:01A89900229C
:05979900900012EFF04A
:10979E00ED90012CB4010DE02401FF90012BE0347B
:1097AE0000FE800BE024FFFF90012BE034FFFE90C3
:1097BE000013EE12519650151251E3900014E09FD3
:1097CE00EE6480F8900013E06480984003029840A5
:1097DE00900013E0FEA3E0FF1250F27B017A0079B5
:1097EE0015124FFB12505B1298ED900012E0248A76
:1097FE00FFE433FEA3A3E0FD12B4727F107E0012CD
:10980E00BD2D9000131252197A007917124FFB7A60
:10981E001579E612505F1298ED900012E02471FD5A
:10982E00900017A3E0FF900015A3E02FFB7F8A1294
:05983E00BD531252CBE6
:019843002202
:10AF1B007D707F8A12B877EF54BFFB7D707F8A12EA
:10AF2B00BD537D7412AF697D757F8A12BD537D76DB
:10AF3B0012AF697D717F8A12BD537B807D727F8AD0
:10AF4B0012BD537B807D737F8A12BD537D707F8AC8
:10AF5B0012B877EF4440FB7D707F8A02BD537B8034
:08AF6B007F8A12BD537B802296
:06897F0090001FEFF0FD67
:108985007F0B7E0012B47290001FE06403606CE4FC
:10899500A3F0A3F0900020E0FEA3E0FFC3940FEE48
:1089A50064809480503B90001FE0C454F02460F52F
:1089B50082E43416F583E5822FF582E5833EF5835F
:1089C500E493FB900020A3E02450F58274163EF555
:1089D50083E493FD7F8A12BD539000201251C88015
:1089E500B390001FE0C454F0246FF582E43416F50B
:0B89F50083E493900022125358804E40
:108A0000E4FF12C28712B6CF7F0112C28712B348A9
:108A10007F0212C287AD07E4FF12A90C7F0312C2C6
:108A200087AD077F0112A90C7F0412C28712A97CAF
:108A30007F0512C2877E0090002412521B7A0079B3
:0E8A400022124FFB7A16792812505F1298ED21
:108A4E009000221252EF12BD537D177F8A12B87713
:098A5E0090002212525A12BD537D
:018A670022EC
:03C2A0007F0022FA
:07C2870012BE531250F02219
:059D6100900012EFF07C
:109D6600EDB401067E007F0180047EFF7FFF900137
:109D76002BE0FCA3E0FD2FFFEC3EFE9000131251FA
:109D86009650161251E3900013E0FAA3E0FB9FEE03
:109D96006480F8EA6480984003AF0522900012E0E0
:109DA60014601814601D14601A14602724FE602BBA
:109DB6002406702DAF0312B6CF802612535F12B35E
:109DC60048801E900012E024FEFFA3A3E0FD12A926
:109DD6000C800E12535F12A97C800612535F12AAE2
:109DE60051900012E0FFA3A3E0FD12C0BD90001346
:089DF600E0FEA3E0FF1250F2B1
:019DFE002242
:05B6CF00900026EFF0E1
:10B6D40012C29A900026E0BF010C125366124FFB6F
:10B6E4007A167910800A125366124FFB7A16790A79
:10B6F40012505F1298ED9000FCE090163393FD9089
:0AB704000027A3E0FB7F8A02BD537B
:05B34800900026EFF06B
:10B34D009000FCE064047017124FEE7A1579EC1240
:10B35D00505F1298ED900027A3E0FB7D74802212C0
:10B36D004FEE7A16791612505F1298ED12C2A0EFB9
:10B37D009000276007A3E0FB7D3A8005A3E0FB7DED
:06B38D00107F8A12BD537F
:01B393002297
:10AA51007E007B017A007915124FFB7A1679041278
:10AA6100505F1298ED7DFF7F8A12B877900017EF43
:10AA7100F0E47DFF12AAB37DBE7F8A12B877EF544E
:10AA8100CF44107DBE12AAB37DC47F8A12B877EF7E
:10AA91005480FD900015E0A2E713A3E0134DFB7D68
:10AAA100C47F8A12BD53900017E0FB7DFF7F8A02AD
:02AAB100BD5393
:07AAB300FB7F8A12BD532254
:05A97C00900026EFF041
:10A981009000FCE06404702A9000267A0079271276
:10A991004FF57A1579F812505F1298ED7D707F8A24
:10A9A10012B877EF54C0FF900027A3E04FFB7D70F2
:10A9B100802F900026E0FF7E007B017A007927122C
:10A9C1004FFB7A16792212505F1298ED12C2A0EF56
:10A9D1009000276007A3E0FB7D3E8005A3E0FB7D9F
:06A9E100157F8A12BD5330
:01A9E700224D
:08A90C00900026EFF0A3EDF02E
:10A9140012C2A0EF6030125313124FFB7A16792E35
:10A9240012505F1298ED900026E0243CFD7F8A12BD
:10A93400B877EF5480FF900028A3E02FFB90002607
:10A94400E0243CFD802C900027125313124FFB7A15
:10A9540016791C12505F1298ED9000FCE0900026CE
:10A96400B40405E024728003E02413FD900028A3BE
:07A97400E0FB7F8A12BD53D6
