:1037FB006873636F6D20312031206368303A312557
:10380B00316278206368313A302531627820636801
:10381B00323A3025316278206368333A3025316291
:10382B00780A0D006873636F6D2031203120636857
:10383B00313A3125316278206368303A3025316274
:10384B0078206368323A3025316278206368333AE6
:10385B0030253162780A0D006873636F6D2031205B
:10386B0031206368323A256278206368303A30251C
:10387B00316278206368313A302531627820636891
:10388B00333A30253162780A0D006873636F6D200F
:10389B00312031206368333A3125316278206368F7
:1038AB00303A3025316278206368313A3025316205
:1038BB0078206368323A30253162780A0D006873DC
:1038CB00636F6D20322032206368303A31253162CC
:1038DB0078206368313A3025316278206368323A58
:1038EB003025316278206368333A30253162780AAB
:1038FB000D006873636F6D20322032206368323A9B
:10390B00256278206368333A312531627820636809
:10391B00303A3025316278206368313A3025316294
:10392B00780A0D006873636F6D2032203220636854
:10393B00303A3025316278206368333A3125316271
:10394B0078206368313A3025316278206368323AE7
:10395B0030253162780A0D006873636F6D20322059
:10396B0032206368333A3125316278206368313A0B
:10397B003025316278206368303A30253162782007
:10398B006368323A30253162780A0D006873636FD1
:10399B006D20332031206368333A31253162782032
:1039AB006368303A3025316278206368313A3025CC
:1039BB00316278206368323A30253162780A0D0023
:1039CB006873636F6D20332033206368303A302582
:1039DB00316278206368313A302531627820636830
:1039EB00333A3125316278206368323A30253162BF
:1039FB00780A0D006873636F6D2033203420636881
:103A0B00303A3025316278206368313A30253162A3
:103A1B0078206368333A3125316278206368323A13
:103A2B0030253162780A0D006873636F6D20342086
:103A3B0031206368303A3025316278206368313A3F
:103A4B003025316278206368323A30253162782034
:103A5B006368333A31253162780A0D006873636FFE
:103A6B006D20322032206368303A31253162782064
:103A7B006368323A3025316278206368313A3025F9
:103A8B00316278206368333A30253162780A0D0051
:103A9B006873636F6D20322032206368323A25627F
:103AAB0078206368313A3025316278206368303A88
:103ABB003025316278206368333A30253162780AD9
:103ACB000D006873636F6D20332033206368333AC6
:103ADB003125316278206368303A302531627820A5
:103AEB006368313A3025316278206368323A302589
:103AFB003162780A0D006873636F6D2032203220BB
:103B0B006368333A3125316278206368323A302565
:103B1B00316278206368313A3025316278206368EE
:103B2B00303A30253162780A0D006873636F6D206F
:103B3B00332031206368333A312531627820636852
:103B4B00303A3025316278206368323A3025316261
:103B5B0078206368313A30253162780A0D0068733A
:103B6B00636F6D20332031206368333A3125316226
:103B7B0078206368313A3025316278206368323AB5
:103B8B003025316278206368303A30253162780A0B
:103B9B000D006873636F6D20332033206368333AF5
:103BAB003125316278206368303A302531627820D4
:103BBB006368323A3025316278206368313A3025B8
:103BCB003162780A0D006873636F6D2033203320E8
:103BDB006368333A3125316278206368313A302596
:103BEB00316278206368323A30253162782063681D
:103BFB00303A30253162780A0D006873636F6D209F
:103C0B00332033206368303A312531627820636882
:103C1B00313A3025316278206368323A302531628F
:103C2B0078206368333A30253162780A0D00687367
:103C3B00636F6D20332033206368303A3025316257
:103C4B0078206368323A3025316278206368333AE2
:103C5B003125316278206368313A30253162780A38
:103C6B000D006873636F6D20322032206368313A28
:103C7B003125316278206368303A30253162782003
:103C8B006368323A3025316278206368333A3025E5
:103C9B003162780A0D006873636F6D203220322019
:103CAB006368313A3125316278206368323A3025C6
:103CBB00316278206368333A30253162782063684B
:103CCB00303A30253162780A0D006873636F6D20CE
:103CDB00322032206368313A3025316278206368B4
:103CEB00333A3125316278206368323A30253162BC
:103CFB0078206368303A30253162780A0D0068739A
:103D0B00636F6D20332033206368313A3125316284
:103D1B0078206368303A3025316278206368323A14
:103D2B003025316278206368333A30253162780A66
:103D3B000D006873636F6D20332033206368313A55
:103D4B003025316278206368303A30253162782033
:103D5B006368333A3125316278206368323A302513
:103D6B003162780A0D006873636F6D203320332046
:103D7B006368313A3025316278206368323A3025F6
:103D8B00316278206368333A312531627820636879
:103D9B00303A30253162780A0D006873636F6D20FD
:103DAB00322032206368323A256278206368303AD9
:103DBB003025316278206368313A302531627820C2
:103DCB006368333A30253162780A0D006873636F8C
:103DDB006D20322032206368323A25627820636886
:103DEB00313A3025316278206368333A30253162BD
:103DFB0078206368303A30253162780A0D00687399
:103E0B00636F6D20322032206368323A256278204E
:103E1B006368333A3125316278206368313A302553
:103E2B00316278206368303A30253162780A0D00B0
:103E3B006873636F6D20332033206368323A2562D9
:103E4B0078206368303A3025316278206368313AE4
:103E5B003025316278206368333A30253162780A35
:103E6B000D006873636F6D20332033206368323A23
:103E7B00256278206368303A302531627820636898
:103E8B00333A3125316278206368313A302531621B
:103E9B00780A0D006873636F6D20332033206368DD
:103EAB00323A256278206368313A302531627820C6
:103EBB006368333A3125316278206368303A3025B4
:103ECB003162780A0D000D0A507265762E46573A0C
:103EDB0025303478000D0A437572722E46573A25F9
:103EEB00303478000D0A5B4D53475D6D61696E5F31
:103EFB00696E697428293D3E2072657620213D202C
:103F0B00465756455220262063616C6C20436C65E6
:103F1B0061724261736963454528290D0A000D0AD8
:103F2B0043616E6E6F7420616363657373204545E7
:103F3B0050524F4D21212121000D0A4E6F20696EE9
:103F4B00697469616C697A65005457383831360089
:103F5B005457383831364200545738383137004EC1
:103F6B006F7468696E67202D2D3078253032780D8F
:103F7B000A00436865636B20616761696E202D2DB4
:103F8B003078253032780D0A004C61737420436809
:103F9B0065636B202D2D3078253032780D0A00FFAC
:103FAB0037FBFF382FFF3863FF3895FF38C9FF38D1
:103FBB00FDFF392FFF3963FF3997FF39CBFF39FFEE
:103FCB00FF3A33FF3A67FF3A9BFF3ACDFF3B01FFC6
:103FDB003B35FF3B69FF3B9DFF3BD1FF3C05FF3C66
:103FEB0039FF3C6DFF3CA1FF3CD5FF3D09FF3D3D3B
:103FFB00FF3D71FF3DA5FF3DD7FF3E09FF3E3BFF58
:10400B003E6DFF3E9F2D2D2D3E2050616E656C3A0F
:10401B0020575647412D3830302A343830202D2D3B
:10402B00205449434F4E4C45535320485320376936
:04403B006E63680048
:107AFB00012D00013000C10DC10C02310000012F1E
:107B0B0000024C000041013B01C10EC10F41013E7F
:107B1B000041013C0041013F0044014000000000D6
:10B00A00ED90001DF090001BE090001E2290001BA6
:10B01A00E090001DF022EBA3F090001CE090001FCE
:10B02A0022FFEA33FE7C007D14124703744E2DF88A
:10B03A00E62290001CE0A3F0A32290001DF09000ED
:10B04A001CE090001E22900029F0A3EFF07BFF2263
:108275007B107DE07F8A12BC3B12AA6E900000EE57
:1082850012B0537A3E79D1900029EEF0A3EFF012A7
:10829500BBA112AA6EEF64107003EE640260287B26
:1082A500FF7A3E79E09000297402F0A37410F01271
:1082B500BBA17F107E0212B42C12AA6EEE12B05032
:1082C5007A3E79E012BBA112AA6EEF64107003EE3C
:1082D50064027033900000E064027004A3E064104F
:1082E500601B900101E0FF12C0857F0112C0A91239
:1082F500BB7A7BFF7A3E79EF12BBA1802C12C0F9C5
:10830500900101EFF080227BFF7A3F792912BBA112
:108315007BFF7A3F794412BBA190010174FFF07F86
:108325000112B7D1E4FF02A0E57F087E0012BC155B
:1083350090010DEFF06004E0FF80027F0112B7D1DC
:1083450012A16E9000FC74FEF012AC4612B8437F89
:1083550006128A4D7F0A12BF2B12BFFB7DFF1283C7
:10836500877D82128387E4FB7DFF7F8A12BC3B7B7E
:10837500FF7DD07F8A12BC3B7BFF7DD17F8A12BCFB
:018385003BBC
:09838600227B017F8A12BC3B221C
:10B0AA0075F68775F65975BF10E4F5F6758DF47562
:10B0BA009850758922758855758A40758C407587B0
:10B0CA008075B80275A892D299D2ACF5C8C2CAD214
:10B0DA00AD75AA5075BAF443A61843AD10C20F75E0
:0FB0EA00DE4243D840F5B175B220F54AF5492250
:03000B0002799FD8
:0B799F00C0E0C083C082C0D075D008DB
:1079AA00054B90013DE0600214F090013DE0703318
:1079BA00E5A05460C4135403FF900143E06F6023B1
:1079CA00900141E0900140F0900142E0900141F0C5
:1079DA00900143E0900142F0A3EFF0D21090013DF4
:1079EA007430F0E54BD394605003027AF20534E523
:1079FA003470020533754B00052FE52F646460036C
:107A0A00027AAA90010CE094FF5003E004F0E565C5
:107A1A002401FFE43564FEE43563FDE435628F65D5
:107A2A008E648D63F562752F009000F3E0D39401A4
:107A3A004003E014F090016DE0D394014003E01498
:107A4A00F090006AE004F0900147E0D3940040030C
:107A5A00E014F030110690013CE004F03004069086
:107A6A00013FE004F090006AE0B43C08E4F09000C2
:107A7A007DE004F090007DE0B43C08E4F0900089D9
:107A8A00E004F0900089E0B41808E4F0900088E07F
:107A9A0004F0E53090013E6005E004F08002E4F075
:107AAA00E54DF47003E54CF46008054DE54D7002B0
:107ABA00054CE5A0F4549C6029E52DB4030DE5A01E
:107ACA00F4549CF530C20CD20D8013E52DB4640E2B
:107ADA00E5A0F4549CF530D20CD20D752D50052D2D
:087AEA008006752D00753000C7
:097AF200D0D0D082D083D0E03264
:10BDD700E4F565F564F563F562900101F07F64129F
:0EBDE700BF2BC22112C0CDD2B47F0102BF2BF0
:10A05A00E4FD7F8A12B75FEF24DE601024D9601412
:10A06A00242870197BFF7A3F7954800E7BFF7A3F50
:10A07A00795B80067BFF7A3F796302BF1012A0C624
:10A08A007A3F796A12BBA112C06FEF701B12A0C689
:10A09A007A3F797D12BBA112A0D8EF60EAE4FD7F76
:10A0AA008A12B75FEFF460DF7F6312BF2B12A0D86A
:10A0BA00E412B0507A3F799412BBA122E4FD7F8A60
:10A0CA0012B75F900029E4F0A3EFF07BFF227F63D1
:0BA0DA0012BF2BE4FD7F8A12B75F224B
:10BDF500EFB4010553E8FE8011EF700743E80153E6
:0EBE0500E8FD22EFB4020643E80143E8022202
:03001300020026C2
:03002600C2AA3239
:0300230002B8B070
:10B8B000C0E0C0D075D00830981EC298AF997435DA
:10B8C0002549F8EFF6744E2549F8A60F0549E549D4
:10B8D000C394144003754900309904C299C20ED034
:04B8E000D0D0E032B2
:0300630002B97F60
:10B97F00C0E0C0D075D008E5AA30E01653AAFE7417
:10B98F0025252EF8A69A052EE52EC394084003759B
:10B99F002E00E5AA30E10553AAFDC20FD0D0D0E0AA
:01B9AF003265
:0BC06F00E549B54A037F00227F012253
:08000300200EFD8F99D20E22A0
:08C0F100200FFD8F9AD20F22EF
:03002B0002BFBF52
:0FBFBF00C0E0C2CF0532E53270020531D0E0326A
:10BF2B00E52F2FFFE433FE7C007D64124703E52FE2
:07BF3B00B505FBE4B504F7B6
:01BF420022DC
:10B63400900026E4F0A3E52FF0E47B3CFAF9F8AFA0
:10B6440065AE64AD63AC621248BEAC00AD01AE023F
:10B65400AF03E47B64FAF9F8124833900026EE8FC6
:0CB66400F012478E900026E0FEA3E0FFED
:01B6700022B7
:10BD5B00C3ED9FEC9E5010C374709FFF74179EFE33
:0FBD6B00EF2DFFEE3CFE22C3ED9FFFEC9EFE226C
:08B31200900026EEF0A3EFF01D
:10B31A00900026E07002A3E06035E4900028F0A3D4
:10B32A00F0900028E0FEA3E0FFE4FCFD7BD8FAF9E8
:10B33A00F8D3124950400C900028E475F0011247E6
:0FB34A008E80DE90002674FFF5F012478E80C1D2
:01B3590022D1
:05606700900018EFF0AD
:10606C00E4900025F0ED4410FDEB4410FBEF6405CB
:10607C006015900018E0FF6420600CEF642160074D
:10608C0090001BE04410F090001CE04410F09000D5
:10609C0018E0124A7B610B00610D01611602611D53
:1060AC0003612304613405613706614007611D08F3
:1060BC0061600961600A610B0B61490C61510D61F2
:1060CC001D0E616F0F617D10618811617D126188F9
:1060DC0013612314619615610D1661A01761A9183F
:1060EC00610D1961B61A61A01B61161C61CA1D6194
:1060FC00341E61161F61E12061CA21000061F2802B
:10610C001690001DEBF0A3ED801412B017A3ED80D8
:10611C002F12B03CED801890001DEDF0A3EBF09029
:10612C00001BE090001F80250261D6ED12B044F0F8
:10613C00A3EB802812B03CEBF0A3ED801F12B00A49
:10614C00F0A3EB800812B017A3EBF0A3EDF09000D6
:10615C001C0261C390001DEDF012B020F090001BEA
:10616C000261C390001CE0A312B00EF0A3EB02611D
:10617C00D012B03CEDF090001B0261EA12B03CEB87
:10618C00F090001BE090001F803A12B00AF09000D3
:10619C001C0261EAEB12B00B12B0228027EB12B09A
:1061AC0044F0A3EDF090001B800D90001DEBF0ED82
:1061BC0012B021F090001BE0900020F0802812B06B
:1061CC001712B020F0A3EDF0801C12B01712B048DB
:1061DC00F0A3ED800D12B017A3EDF090001CE09031
:1061EC00001FF0A3EBF0E4900021F0900021E0FF01
:1061FC00C394145011744E2FF8E4F674352FF8E450
:10620C00F6E004F080E59000FCE06403700C900173
:10621C0035E070061262AF0262AC9000257428F073
:10622C00E4900022F01262AF12B634900023EEF02C
:10623C00A3EFF012B634C3900024E09FFF9000232C
:10624C00E09EFE12C063900025E0FDC3EF9D7480BC
:10625C00F86E9840DEE4900021F0900021E0FFC33E
:10626C0094145029744E2FF8E664417018E0FB7AB0
:10627C0000240112B02BB4430CEB240212B02BB44B
:10628C004B037F0122900021E004F080CD7FC87E7B
:10629C000012B312900022E004F0E0C39403408596
:0262AC007F0071
:1062AE0022900018E0FF3395E0FE903FAA75F003B0
:1062BE00EF1249EAEE75F003A42583F583124A1F07
:1062CE0090001DE0900029F090001EE090002AF052
:1062DE0090001FE090002BF0900020E090002CF03A
:0462EE0012BBA1221C
:109D8E000D0A2B2B28436C6561724F5344496E6646
:109D9E006F293A20446973706C617965644F53443E
:109DAE003A2532780020000D0A5B4D53475D446919
:109DBE0073706C6179496E7075742829203D3E2050
:109DCE0053656C6563744D6F6465547970653D4180
:109DDE00564D6F646520746F207365742074696DC1
:109DEE0065202620646973706C6179686F6C645F9E
:109DFE00666C61673D256278002020205457383804
:109E0E003036202020005465636877656C6C2C49D1
:039E1E006E630070
:047B2B0041016B00A9
:0FBFDD0075F011A424FFF9747D35F0FA7BFF2273
:0CC03F0090016BE0FEEFF4FFEE5FF022DA
:07C1310090016BE04FF022CA
:06C13F0090016BE0FF22FD
:10AF0D0012C13F90001CEFF012C13F900029E4F0F8
:10AF1D00A3EFF07BFF7A9D798E12BBA190001CE010
:10AF2D00FF20E20330E70512BBEFC20790001CE0E3
:10AF3D0030E00312BFCE90001CE030E40312BF439B
:10AF4D0090001CE030E10312B6EA90001CE030E600
:04AF5D000312BFFB21
:01AF610022CD
:1091390090001B74C2F012AF0D7BFF7A847906127E
:109149009A757DFF7FA07E0012BACD7BFF7D327FAD
:10915900A07E0012B9B0E490001AF090001AE0FF66
:10916900C394F050197E007BFF7A9D79B390005427
:109179007401F012B94C90001AE004F080DD9001FE
:109189006BE04410F012C14BEF6401607790001A54
:109199007401F090001AE0FE75F011907DFE1249FD
:1091A900EAE4936F600890001AE004F080E5EE129B
:1091B900BFDD12BEF5900019EFF0A3E012BFDD90FC
:1091C9000019E0900054F07FA07E0012B94C7FA3F3
:1091D9007E0012BC15BF01199000EFE070139000DA
:1091E900F37405F07BFF7A9D79B5900029F012BBE5
:1091F900A17D017F0212B4707F0112BA7112B634D7
:049209008E7A8F7B4F
:01920D00223E
:10BF4300E4FF12BA71E4FD7F0212B47090016BE05A
:06BF530054EFF07F012213
:1093A2007DFF1294577D82129457E4FB7DFF7F8AE2
:1093B20012BC3B90016BE020E27C12AF0D7F0A12DF
:1093C200BF2B7BFF7A847988129A757D327FC87EA3
:1093D2000012BACD7B197D377FC87E0012B9B07BEF
:1093E200197D737FDD7E0012B9B012BF8D75F00357
:1093F200EF900AE61249EA124A1FAE02AF0190004C
:1094020006EEF0A3EFF07BFF12BEF5900006E0FC43
:10941200A3E0AA04F97BFF900054EFF07FC87E001E
:1094220012B94C7D017F0112B470E4FD7F0412B4C5
:10943200707F0112BA71301B059001708003900198
:109442006FE0FF129CF390016BE04404F012B6341B
:049452008E7A8F7B04
:10945600227B017F8A12BC3B7F057E0012B312225B
:0FBFCE00E4FD7F0212B47090016BE054FEF0228C
:109C5700E4900006F012C13F900005EFF0549670B3
:109C670003029CF0E030E11512C0D6900001EEF03F
:109C7700A3EFF0A37407F0A374D0F0801190000154
:109C8700E57AF0A3E57BF0A3E4F0A374C8F012B67D
:109C970034AD07AC06900001E0FEA3E0FF12BD5B08
:109CA700D3900004E09F900003E09E503C90000595
:109CB700E05484600D12BBEF900006EFF01291396B
:109CC700C207900005E030E11D12B6EA900006EFEA
:109CD700F07FA37E0012BC15BF01069000F374034A
:0B9CE700F0129139C2077F01227F00BC
:019CF200224F
:10BBEF0090016BE030E20A7F0112BC0B54FBF08036
:10BBFF00087F0212BC0B547FF07F0122E4FD12B4C8
:06BC0F007090016BE022C1
:10AA6E00E4FFFE12BC15EF6454600280287F017E65
:10AA7E000012BC15EF64576002801A7F027E00122E
:10AA8E00BC15EF64386002800C7F037E0012BC158B
:10AA9E00EF64386004E4FEFF227F047E0012BC15D2
:10AAAE00EF900002F0A3E4F07F05FE12BC159000BB
:10AABE0002E0FEA3E04FFF900002EEF0FEA3EFF0E7
:01AACE002265
:10B42C00900002EEF0A3EFF07D54E4FFFE12B35A4D
:10B43C007D577F017E0012B35A7D387F027E001249
:10B44C00B35A7D387F037E0012B35A900002E0FDA0
:10B45C007F047E0012B35A900002A3E0FD7F057EAC
:04B46C000002B35ACD
:08C0F9007F067E0012BC152237
:09C08500AD077F067E0002B35AEC
:08C101007F097E0012BC15222B
:09C08E00AD077F097E0002B35AE0
:07C109007F0A7E0012BC1545
:01C11000220C
:10A16E00E4900003F0900002F0900002E075F01110
:10A17E00907E531249EAE493124A7BA1A500A1B145
:10A18E0001A1BA02A1C303A1CC04A1D505A1DE068B
:10A19E00A1E7070000A1EE900003E0FD7F0A7E001C
:10A1AE0002B35A900003E04401F08034900003E0C3
:10A1BE004402F0802B900003E04404F080229000D3
:10A1CE0003E04408F08019900003E04410F0801082
:10A1DE00900003E04420F08007900003E04440F03C
:08A1EE00900002E004F0808102
:07C111007F0D7E0012BC153A
:01C118002204
:09C09700AD077F0D7E0002B35AD3
:0AC07A00EF2412FFE433FE12BC15A0
:01C084002299
:09C0A000EF2412FF7E0002B35AE6
:09C0A900AD077F0F7E0002B35ABF
:07C119007F0C7E0012BC1533
:01C1200022FC
:09C0B200AD077F0C7E0002B35AB9
:08C121007F387E0012BC1522DC
:09C0BB00AD077F387E0002B35A84
:08C129007F377E0012BC1522D5
:09C0C400AD077F377E0002B35A7C
:10BB7A00E4FD7FADFE12B35AE4900103F0FD7F08A5
:10BB8A00FE12B35AE4FD7F0EFE12B35A12698D12E9
:07BB9A00AA087F01028B2FB6
:10BE13009291D290120012C290221249F68E82752C
:0EBE230083001246B2FF22EFF0A3EDF0A3223F
:0BB35A00900028EEF0A3EFF0A3EDF050
:10B36500900028E0FEA3E07807CEC313CE13D8F9EA
:10B3750044A054FE90002BF012BF5990002BE0FF23
:10B3850012A8D0900028A3E0FF12A8D090002AE0D0
:0CB39500FF12A8D01200167F0202BF2B8E
:04BC1500AD07AC06C5
:10BC1900ED7807CEC313CE13D8F944A054FEFF1212
:10BC2900B75F900033EFF07F0212BF2B900033E033
:01BC3900FF0B
:01BC3A0022E7
:08B75F00900034EFF0A3EDF0BF
:10B7670012BF59900034E0FF12A8D0900035E0FFD7
:10B7770012A8D012BF59900034E04401FF12A8D09C
:10B7870012B9E1900036EFF0120016900036E0FF94
:01B79700228F
:10BC3B0090005512BE2AEBF012BF59900055E0FF51
:10BC4B0012A8D0900056E0FF12A8D0900057E0FF4A
:06BC5B0012A8D002001641
:08B5F60090003412BE2AEBF0B4
:10B5FE0012BF59900034E0FF12A8D0900035E0FF42
:10B60E0012A8D0E4900038F0900037E0FFA3E0C31A
:10B61E009F5010900036E0FF12A8D0900038E00442
:06B62E00F080E5020016A9
:09B4F60090005512BE2A124A16FC
:10B4FF0012BF59900055E0FF12A8D0900056E0FF00
:10B50F0012A8D0E490005BF090005AE0FFA3E0FE99
:10B51F00C39F501190005712BE1D12A8D090005B10
:08B52F00E004F080E3020016C5
:09B79800900021EFF0A3124A1603
:10B7A10012BF59900021E0FF12A8D0E4900026F0CA
:10B7B100900025E0FFA3E0FEC39F501190002212EC
:10B7C100BE1D12A8D0900026E004F080E30200160E
:0100120022CB
:10BF5900D291120012D290120012C291120012C292
:02BF6900902224
:0D001600C291120012D290120012D291225B
:10A8D000C290EF30E703D38001C312BE13EF30E61E
:10A8E00003D38001C312BE13EF30E503D38001C34D
:10A8F00012BE13EF30E403D38001C312BE13EF3056
:10A90000E303D38001C312BE13EF30E203D380010F
:10A91000C312BE13EF30E103D38001C312BE13EFA5
:10A9200030E003D38001C312BE13C290C290D29113
:09A93000D290D290D290C2902284
:10B9E100E4FFD291120012C290FDFCD290EF25E04B
:10B9F100FF3091034401FFC2900DBD00010CED64C5
:0FBA0100084C70E7120012D290D290D290C290EF
:01BA10002213
:106B7A000D0A504F52000D0A4D454E55000D0A4957
:106B8A004E000D0A5550000D0A444E000D0A534599
:106B9A004C000D0A4552524F52000D0A504F5745AC
:106BAA0052206B657920000A0D62757377203020B8
:106BBA00312037452038300D0A000A0D6275737787
:106BCA00203020312037452038310D0A000A0D6265
:106BDA00757377203020312037452038320D0A006E
:106BEA000A0D6275737720302031203745203833FB
:106BFA000D0A000A0D62757377203020312037455F
:106C0A002038340D0A000A0D62757377203020315E
:106C1A002037452038350D0A000A0D627573772032
:106C2A003020312037452038360D0A000A0D6275AA
:106C3A007377203020312037452038370D0A000A73
:106C4A000D62757377203020312037452038380D92
:106C5A000A000A0D627573772030203120374520EB
:106C6A0038390D0A000A0D627573772030203120F9
:106C7A0037452038410D0A000A0D627573772030B6
:106C8A0020312037452038420D0A000A0D627573FB
:106C9A0077203020312037452038430D0A000A0D6D
:106CAA0062757377203020312037452038440D0A29
:106CBA00000A0D627573772030203120374520385D
:106CCA00450D0A000A0D627573772030203120378E
:106CDA00452038460D0A0054726967676572466C2A
:106CEA0061673D25303278000D0A4D454E554B45BA
:106CFA0059206B657920000D4F53445F4C4F434B2D
:106D0A00000D0A4556454E544B4559206B6579206E
:106D1A0070726573736564000D0A5B4D53475D437A
:106D2A006865636B4B6579496E28293D3E20497336
:106D3A0052756E32383335436C6B54756E653D252A
:056D4A0062780020202A
:107B2F004101450041014A00410148004101460021
:107B3F004101490041014B0041014400C116017050
:037B4F0000C1185A
:10BF6B00E5A0F454906490227C007D0AAE02024757
:01BF7B0003C2
:0EC00A0012C13FEF30E10302002E12B8E42213
:0DC0180012C13FEF30E1057F01126F0A22D7
:0DC0250012C13FEF30E1057F02126F0A22C9
:10BEBF0012C13FEF30E10B3020057F0102802D02D0
:0BBECF0073EE7F011285A01293A222E7
:10BEDA0012C13FEF30E10B3020057F0202802D02B4
:0BBEEA00002E7FFF1285A01293A22201
:108F8600900004EFF0A3EDF012C04B900004E01245
:108F96004A7B900A00900A01900A02900A03900AFE
:108FA60004900A05900A06900A07900A08900A0992
:108FB6008FDB0C903010903511901B159048169051
:108FC60011209016218FEF388FF83A90563E903A3E
:108FD6003F0000905D74FF900109F0A3F09000053A
:108FE600E060037F01227F002212BD7A1294667F21
:108FF600012212C13FEF30E40512BF4380031291F4
:10900600397F0122900005E07F012212C0188047B7
:1090160012C0258042900005E060037F012212C144
:109026003FEF30E1321273EE802D12BEBF80281260
:10903600BEDA8023900005E060037F012212C00A99
:10904600801512C13FEF30E10E7FF4129060800769
:0A9056007D017FC0122DE07F012292
:104ADB009000017401F0301826201623C3E565956C
:104AEB0074FFE5649573FEE5639572FDE562957160
:104AFB00FCE47B0AFAF9F8D31249505002C2187F32
:104B0B000112ADB0900002EFF07003024F43E024AE
:104B1B00F8601C24F8602024F0602424E060282432
:104B2B00C0602C247C70307BFF7A6B797A802E7B73
:104B3B00FF7A6B798080267BFF7A6B7987801E7B6F
:104B4B00FF7A6B798C80167BFF7A6B7991800E7B69
:104B5B00FF7A6B799680067BFF7A6B799C12BBA1EF
:104B6B007FAC7E0012BC15900003EFF012BF6B7090
:104B7B0053E070507FD07E0712B31212BF6B6008E8
:104B8B0090014AE06403703C7D017FAC7E0012B360
:104B9B005A9000037401F0FF128A4DE4900002F06A
:104BAB007FD07E0712B312900135E030E5051286F7
:104BBB009D800F12BFFBE4900147F090014AF01269
:104BCB009139C207900135E0600C900002E064104F
:104BDB006004E4024DFC900147E07013900003E089
:104BEB00700D90014AE06007E4F07F0112BDF59073
:104BFB000002E0601BA3E0701712BF6B6012900104
:104C0B0035E0700C12AF0DE4124F6CC2077F01221E
:104C1B0012C04B900002E0124A7B4ECB024C440474
:104C2B004D5A084F160C4E23104DB9204DD6404E01
:104C3B0005804ED39000004F437BFF7A6B79A41213
:104C4B00BBA1201603024D1AE570C3940F4005E477
:104C5B00F57080020570E570124A7B4C9F014CA7E2
:104C6B00024CAF034CB7044CBF054CC7064CCF07E7
:104C7B004CD7084CDF094CE70A4CEF0B4CF70C4CAC
:104C8B00FF0D4D070E4D0F0F00004C977BFF7A6BFE
:104C9B0079B180767BFF7A6B79C4806E7BFF7A6B00
:104CAB0079D780667BFF7A6B79EA805E7BFF7A6BC4
:104CBB0079FD80567BFF7A6C7910804E7BFF7A6C86
:104CCB00792380467BFF7A6C7936803E7BFF7A6C4A
:104CDB00794980367BFF7A6C795C802E7BFF7A6C0E
:104CEB00796F80267BFF7A6C7982801E7BFF7A6CD2
:104CFB00799580167BFF7A6C79A8800E7BFF7A6C96
:104D0B0079BB80067BFF7A6C79CE12BF10804C7B0F
:104D1B00FF7A6C79E1900135E0FF900029E4F0A374
:104D2B00EFF012BBA1201223900135E06003024F7C
:104D3B0043FD7F0C128F86900001EFF0E49000EEA4
:104D4B00F0FD7FABFE12B35A024F43C212804B7B76
:104D5B00FF7A6C79F212BBA130160AAF707E00128B
:104D6B00A512024F43201241900003E0700D124F29
:104D7B006C7BFF7A6D7901E4024F0D12C13FEF306E
:104D8B00E10B30200280191273EE024F4312C13F28
:104D9B00EF30E20C12AF0D12B6EA129139024F430B
:104DAB007F3F124F62F0024F437F09024EC3201226
:104DBB001512C13FEF30E1077F01302023801B7FAD
:104DCB0010124F62802B7F06024EC320122712C196
:104DDB003FEF30E1117F0230200612802D024F434E
:104DEB00126F0A024F43E4FD7F11128F8690000170
:104DFB00EFF07F01227F07024EC32012169000EFC7
:104E0B00E0700A12C13FEF30E10312B6EA129EB115
:104E1B00024F437F05024EC3900135E0FF600990BE
:104E2B000103E07003024F43EF6046900149E070CD
:104E3B0040900103E0640170387FACFE12BC15EFAB
:104E4B0064016003024F43900135E030E50312BF6C
:104E5B00FB9001497401F0900144E070089001331C
:104E6B00E090014BF09001447401F0900133F0801D
:104E7B003F201242900149E06017E4900135F09019
:104E8B0001377407F0E4900149F0900133F0024FC1
:104E9B00439000EFE0700A12C13FEF30E10312B60E
:104EAB00EA900133E0700404F08005E4900133F0E4
:104EBB0012ACFC024F437F04126781D217024F439F
:104ECB007BFF7A6D790B803E90016FE06414706804
:104EDB00301865301614C2167F0112BDF57D027FA6
:104EEB00A07E0012BACDC218800ED2167F0212BD60
:104EFB00F5AF707E0012A5127BFF7A6D7922A21698
:104F0B00E433900029F012BBA1802D90016FE06477
:104F1B001770257F0212BDF57F647E0012B312124B
:104F2B004F49124F497F0112BDF5D2188565748523
:0D4F3B006473856372856271900001E0FF70
:104F4800227F0112BDF57F647E0012B3127F021228
:104F5800BDF57F647E0012B31222E4FD128F8690A5
:104F68000001EF22FF128A4D7FF412BF2B12BFFB04
:044F78001291392237
:10ADB000A20D9221C20D30103AE5307036D22190AA
:10ADC0000140E0FEB40313A3E0B4020EA3E0700A56
:10ADD000A3E0B401057530408017EEB40313900171
:10ADE00041E0B4010CA3E07008A3E0B402037530A5
:10ADF00020C2102021037F0022EF6003AF30222009
:07AE00000C03AF30227F00BC
:01AE07002228
:08A51200900004EEF0A3EFF04D
:10A51A0078067C007D017BFF7A6D794D7E007F0293
:10A52A00124673900004E0FAA3E0FBFF12BF73ED3A
:10A53A002430900007F0AF0312BF73900004EEF0CE
:10A54A00A3EFF02430A3F07BFF7A84793E129A7548
:10A55A007F1012C1317D027FA07E0012BACD7B022C
:10A56A007D377FA07E0012B9B07B017A0079069010
:10A57A0000547402F07FA07E0012B94C7D017F0264
:08A58A0012B4707F0102BA71E6
:107D9E000D0A43485F545732383335282530327830
:107DAE00292C526561644465636F6465722830786E
:107DBE003636293D256278000D0A2043485F41562C
:107DCE002825303278290020200A0D000A0D627510
:107DDE00737720302031203745203839000A0D6264
:107DEE00757377203020312037452038390D0A0041
:107DFE00FE00000000000000000000000000000077
:107E0E000001435642530000000000000000000035
:107E1E0000000243414D204400000000000000001D
:107E2E00000000034156202000000000000000006A
:107E3E000000000000000000000000000000000034
:107E4E000000000000FE0000000000000000000026
:107E5E00000000000000014E5453430000000000DB
:107E6E00000000000000000250414C000000000025
:107E7E00000000000000000003534543414D000088
:107E8E000000000000000000000550414C4D0000B5
:107E9E00000000000000000000000650414C4E00A3
:107EAE0000000000000000000000000750414C36AA
:107EBE00300000000000000000000000044E54538B
:107ECE0043342E3433000000000000000000000098
:0E7EDE00000000000000000000000000000096
:107B5200C10BC104C1024100F600011D004400F73F
:107B620000000000440104000000004100F0004158
:107B720000EB00C185011F00011300011100011279
:107B820000011E00011500011400011A004100FF4E
:107B9200004100EC004100F2004100FD004100F50F
:107BA20000C1004100FE00C106C101C183C107C17D
:017BB2000AC8
:10B3A10074F72FF582E43400F58322EF75F011A4D0
:10B3B10024FEF582E4347DF583E49322F074042FB6
:10B3C100F582E43401F583229000010246B2E4FBE8
:10B3D1007DFF7F8A22E4F51BF51CF519F5182290F3
:06B3E100001DE004F02253
:06B0F90090001F124A1630
:10B0FF00E4FE124699900022F012B3C98029900005
:10B10F001F1249F6124699FFB4FF0612B3C9F46035
:10B11F0022900023EFF0FD12B3C9900024F0FB90B2
:10B12F000022E0FF12BC3B900020E475F0021247B2
:09B13F008E80CB12B3CF02BC3BA1
:10A40F0090001EEFF07BFF7A5D79C712B0F912B39F
:10A41F00CF12BC3B90001EE024FE6013146010248A
:10A42F00FD600C240624F85011240A600D80117B66
:10A43F00FF7A5F791712B0F9800690001E7401F051
:10A44F009000FCE0B4051390010DE07002800B90BA
:10A45F00001EE014FF12BE4E800312BD3B7B157D24
:10A46F00297F8A12BC3B7B067D5C7F8A12BC3B7FB7
:10A47F000B7E0012BC1512888212C101128B2FC2E3
:02A48F00232286
:10BF7C007D017F8A12B75FEF30E7037F01227F00DC
:01BF8C002292
:1092DD00E490001BF0A3F09000FCE0B405099001B0
:1092ED000DE06003029390E4900019F012AEB79078
:1092FD00001AEFF090001CE004F0E0C3940A400364
:10930D0002939090001AE0FF64FE60E09000F1E09F
:10931D00FEEF6E60D7900019E0FFA3E0FEB50706E3
:10932D00A3E004F0800AE490001BF0900019EEF029
:10933D0090001BE0C3940240B390001AE0FF700B45
:10934D0012B7D190001D7401F080309000F1E070E3
:10935D00119000EFE0700630070312BFFB129391DE
:10936D0080149000EFE0700630070312BFFB1293DC
:10937D00917F3212BF2BE490001DF090001DE02470
:03938D00FF920A42
:109390002290001AE0FF12B7D190001AE0FF12A449
:0293A0000F229A
:10BD180012BF7CEF60037F01227D1C7F8A12B75F10
:10BD2800EF54F0FF30E7037F0122EF5470C4540F43
:02BD380004FF06
:01BD3A0022E6
:10AD570012BD18AB07EB24FE601914601624FD60C2
:10AD670012240224FC500424077017751B00751C5D
:10AD77003C8006751B00751C32E475196B75183D10
:10AD8700800312B3D6F517F516E4FFEF75F011A49B
:10AD97002453F582E4347EF583E493FEB503012260
:08ADA700EE60030F80E57F0060
:01ADAF002281
:06C145009000F1E0FF2272
:10B7D1009000F1EFF024FE601914601624FD601250
:10B7E100240224FC500424077017751B00751C3CAF
:10B7F1008006751B00751C32E475196B75183D8048
:09B801000312B3D6F517F5162267
:06C14B009000FCE0FF2261
:10BD7A007F0112B3ACFE9000FCE0FDEE6D60030F94
:0EBD8A0080F00F12B3AC70027F0112B3ACFF59
:01BD98002288
:09C0CD00302103D2B722C2B722D0
:10946600900018EFF09000FCE06F700302951890E2
:10947600013AE0B4010543E804800312B7259000E1
:1094860018E09000FCF09000F1E0FF12A40F9000AD
:10949600FCE024FD60202402703A12BCAC1295193F
:1094A600C2957D667F8A12B75F90002BEFF07BFF37
:1094B6007A7D799E800E12BCD0129519D2957BFFCB
:1094C6007A7D79C69000FCE0FF900029E4F0A3EFD6
:1094D600F012BBA112AE089000FCE0FF12C0A97FFB
:1094E6001E12BF2B1292DD12913990013AE0B4019F
:1094F6000553E8FB8005E4FF12A0E57F6412BF2B4D
:109506007BFF7DD07F8A12BC3B7BFF7DD17F8A1299
:0D951600BC3B22C21BE4FF1285A0C29422C0
:0DC03200C22112C0E843E804E4FF02BDF59E
:0CC04B0012B634900109EEF0A3EFF022D1
:09C0D600900109E0FEA3E0FF2245
:108C1000C374FF9FFFC39400400CEF94645007E4BB
:108C2000900002F0804BEFC39464400DEF948C50A1
:108C3000089000027414F08038EFC3948C400DEF5C
:108C400094B450089000027428F08025EFC394B4C7
:108C5000400DEF94DC5008900002743CF08012EF5D
:108C6000C394DC400CEFD394FF5006900002744B89
:108C7000F0900146E0702C9000F6E0C3940F500590
:108C8000E004F08024900002E0FFE51DD39F400443
:108C9000151D8008E51DC39F5002051DE49000F6D8
:108CA000F08006900002E0F51D7DFF7F8A12B75F1D
:108CB000900001EFF012B3CF12BC3B7DBE7F8A1251
:108CC000B75FEF54CF4410FB7DBE7F8A12BC3B7D63
:108CD000C47F8A12B75FEF5480451DFB7DC47F8A35
:0F8CE00012BC3B900001E0FB7DFF7F8A02BC3B92
:10BFAF00E4900139F090010CF09001377408F02201
:10849B007FAB7E0012BC159000EEEFF07FB07E003C
:1084AB0012BC159000EFEFF07FAA7E0012BC159066
:1084BB00012FEFF07FAD7E0012BC15900103EFF0A2
:1084CB007FA07E0012BC15900146EFF07FB87E00B6
:1084DB0012BC15900100EFF07FB77E0012BC159017
:1084EB0000FBEFF07FB97E0012BC159000EDEFF0B2
:1084FB007FBF7E0012BC15EF24FF92097FC57E0063
:10850B0012BC15900102EFF07FAF7E0012BC1590EC
:10851B000133EFF07FA5128598EE9001307006E0E5
:10852B004401F08004E0540EF07FA6128598EE9083
:10853B0001317006E04401F08004E0540EF07FA797
:10854B007E0012BC15AE07EE9001327006E04401BE
:10855B00F08004E0540EF07FA87E0012BC15AE072D
:10856B00EF9001347006E04401F08004E0540EF00B
:10857B0012C12190016FEFF012C129900170EFF041
:0C858B007FB27E0012BC159000F4EFF0EF
:09859700227E0012BC15AE072281
:10726B007BFF7A7D79D512BF109000EFE070491249
:10727B00C13FEF20E142300A2920073CD207E490BE
:10728B0000F3F07FA3FE12BC15EF700990016BE0C9
:10729B0054EFF080069000F37403F07F06128A4DD2
:1072AB00801630071312C13FEF20E60CC2077FA3F5
:1072BB007E0012BC151291391299D2900000EFF09A
:1072CB001262F2900135E0701B900139E06015906D
:1072DB00012FE0FF90010CE0C39F400812BC87E434
:1072EB0090010CF0900146E0700E7DC97F8A12B7B9
:1072FB005F900000EFF080027FFF128C10124ADBD0
:10730B00EF70030273ED9000F3E06401707312C130
:10731B003FEF20E16C12C13FEF20E2657FA37E00BF
:10732B0012BC15EF605B900135E070509000EFE000
:10733B00700FFD7F0212B47090016BE054EFF08080
:10734B003B900130E0540DF0900131E0540DF09082
:10735B000132E0540DF0900134E0540DF012AACF3D
:10736B00900130E04402F0900131E04402F09001D2
:10737B0032E04402F0900134E04402F0E49000F378
:10738B00F0129C5712C14BEF1424FD5002800A12CD
:10739B00C13FEF20E1031292DD90016DE0B40105D6
:1073AB0053E8FBE4F090016DE0B4020343E8087D81
:1073BB00B27F8A12B75FEF60030272747BB07DFD00
:1073CB007F8A12BC3BE4FF12BDF57FF47E0112B342
:1073DB00127F0112BDF57B307DFD7F8A12BC3B0213
:0273EB007274BA
:0173ED00227D
:10ABEA00C2B5C22112C0E87F0A7E0012B312C2B4F3
:10ABFA0012B0AA7F0112BDF512BDD712BFAF12A0C3
:10AC0A005A1282757F0A7E0012B31212849B900137
:10AC1A0033E090014BF07FA97E0012BC1512B1E31C
:10AC2A00E4900135F07BFF7A7D79DA12BF1090004B
:0CAC3A00EEE0600312726B12A1F680F2D3
:10A1F600E4900002F01299D2900001EFF0601BE0AB
:10A20600FF1262F2900137E0B40803D38001C34025
:10A21600197F0112A0E5D221800D900001E0FF1206
:10A2260062F212C032C22112C0E8E4FF12ADB09051
:10A236000000EFF060BFE0B404BB1299D2EF70B536
:10A246009000EE04F0FD7FAB7E0012B35A129139F6
:10A2560012AACF7FA37E0012BC15BF01069000F3A1
:10A266007403F0C2077F0112A0E5D22112C0E87B79
:08A27600FF7A7D79EB02BF10B5
:107EEC00900103E0600A640170359000EBE0702FA4
:107EFC0030050302802CD205E490001DF090001D8B
:107F0C00E0FFC39404500E12B3A1E412B3BDE4F02D
:107F1C0012B3E080E8E49000F0F09000EBF022C2A5
:107F2C00059000EBE0FF9000F0E0FED39F406AEE7E
:107F3C009F90001EF0E490001DF090001EE0FF905A
:107F4C00001DE0C39F504AE4FF12B3BEE0FE12B323
:107F5C00A1E06E600B90001FEE12B3BDE4F0800543
:107F6C000FEFB404E4E4FF12B3A1E0FE90001FE0B5
:107F7C00FDEED39D401012B3A1E014F012B3A1E0BA
:107F8C00FE12B3BEEEF00FEFB404DC12B3E0027FCE
:107F9C00469000EBE09000F0F09000F0E090001EB6
:107FAC00F0A37405F0E490001DF090001DE0FFC3F9
:107FBC009404502812B3A1E0FF90001EE0FEEFB530
:107FCC00061590001DE0FF90001FF0EEB4010DEFC0
:107FDC00049000FEF0800512B3E080CE7F0112BF4A
:107FEC002B90001FE014600D14600F146014240318
:107FFC007025E48025E4F5148022E4F514F515C20F
:10800C001922E4F514F515F51A9000ECE0640660FD
:10801C000FE49000F5F022E4F514F515F51AC219E9
:01802C002231
:10838F00A10AA20AA000A310A410A591A601A701FB
:10839F00A822A910AA00AB62119E00000100CC0C0C
:1083AF0002700000005000000F4000119E3031009D
:1083BF00AFC81202F1100800500030004000119EAB
:1083CF003100029000040170000000A0F5000F4082
:1083DF0000119E3100029000030170000000F0F5C3
:1083EF00000F4000119E3230000C0D0A01B1040441
:1083FF000050C800044000119E313000160D0F02CE
:10840F003101000050A0000840119E3330100C982D
:10841F0028013101000000B400084000119E3130E6
:10842F00000C020F023101000050A00008400011A3
:10843F009E3130000A0502013101000050A00008F2
:10844F004000119E32300040090204B1000890E054
:10845F0000043340119E3130008A091808B08A0594
:10846F00B05026083340119E30B40040270201F16E
:10847F00000000E0000033C100119E303C109060FE
:0C848F001502F102044050C80036C10084
:10A27E00900051FFE475F0011249FFEF0246DF90A6
:10A28E00004FE0FEA3E0FF22EF14FB7D9E7F8A22AB
:10A29E0090001C1249F690001FE0F58275830002B3
:10A2AE0046B2E0A4FFA3E5F0F0A3EFF07DA07F8A15
:10A2BE002290005BE0FCA3E0FD22EEF0A3EFF0A302
:10A2CE0022124703900059EEF0A3EFF04E22A3E0C6
:10A2DE00FB7D967F8A2212470390004FECF0A3ED90
:10A2EE00F022F07B047D947F8A22EDF0EFC394017F
:08A2FE0022E4FB7D947F8A221B
:10BAA00012BAC2900028F0E4A3F012BAC2FF9000CC
:10BAB00028E06F700C900029E004F0E0C3940A4085
:01BAC000E99C
:0CBAC100227D957F8A12B75FEF5440226F
:10AC4600E490000EF0E490000DF090000DE0FFC3DC
:10AC56009408502FA3E075F008A4FEEF2E7D9C12F9
:10AC6600AC96FFA3E075F0089018EE1249EAE5826B
:10AC76002FF582E43583F583E4937D9D12AC96042B
:0FAC8600F080C790000EE004F0E0C3940240B6E7
:0CAC950022FB7F8A12BC3B90000DE022E5
:10AB2E00900003EFF0A3124A1612AB7C44017D9401
:10AB3E0012AB85900003E07D9912AB857DE07F8A94
:10AB4E0012B75FEF4410FB7DE07F8A12BC3B900092
:10AB5E00041249F690005A741BF07D9A7F8A12B443
:10AB6E00F612AB7C54FEFB7D947F8A02BC3B7D9437
:0EAB7E007F8A12B75FEF22FB7F8A12BC3B2258
:10B843007B607D9B7F8A12BC3BE4900002F09000FA
:10B8530002E0FFC394E2501FEF94C6501AEF75F055
:10B863001BA424FEF9741835F0FA7BFF12AB2E905B
:07B873000002E004F080D7A1
:01B87A0022AB
:03B578009000152B
:10B57B0012A2F84036EFD39408503012A29612BCA8
:10B58B003B90001575F00812A2B012B75FEF54F0A4
:10B59B00FD900016E04DFB7DA07F8A12BC3B900016
:0BB5AB0016A3E0FB7DA17F8A12BC3BD1
:01B5B6002272
:03B4B400900015F0
:10B4B70012A2F84039EFD39408503312A29612BC67
:10B4C7003B90001575F00412A2B012B75FEF540F4E
:10B4D700FD900016E0C454F04DFB7DA07F8A12BC9E
:0EB4E7003B900016A3E0FB7DA27F8A12BC3BC7
:01B4F5002234
:05BA710090001EEFF043
:10BA760012BAA07D9C7F8A12B75F90001FEFF090EC
:10BA8600001EE06006A3E054EF800690001FE0442D
:09BA960010FB7D9C7F8A12BC3B71
:01BA9F002284
:03B4700090001E2B
:10B4730012A2F8403BEFD39408503512A29612BCA7
:10B483003B7D9F7F8A12B75F90001FEFF090001EF5
:10B49300E06007A3E04401F0800790001FE054FE42
:10B4A300F012BAA090001FE0FB7D9F7F8A12BC3B85
:01B4B3002276
:10B27C00EFC394014006EFD394084004E4FEFF2290
:10B28C0012A29612BC3B7DA07F8A12B75FEF540FBF
:10B29C00900028F0A3E4F07DA17F8A12B75F9000A4
:10B2AC0028E0F0A3E04FF0900028E0FEA3E0780344
:0AB2BC00CEC313CE13D8F9FF7E00B5
:01B2C6002265
:10AE6000EFC394014006EFD394084004E4FEFF22B0
:10AE700012A29612BC3B7DA07F8A12B75FEF54F0FE
:10AE8000C4F8540FC868FEE4C454F048900028F099
:10AE9000A3CEF07DA27F8A12B75F900028E0F0A3D6
:10AEA000E04FF0900028E0FEA3E07802CEC313CE7E
:06AEB00013D8F9FF7E003B
:01AEB6002279
:10B94C0090004F12A2C8124A1612A2F112BC3B90E0
:10B95C00004F12A2DC12BC3B9000511249F6900031
:10B96C0054E090005AF07D977F8A12B4F612A2FF31
:03B97C0002BC3BCF
:10B9B00090003012A2C8EDF0A3EB12A2F012BC3B33
:10B9C00090003012A2DC12BC3B900032E0FBA3E0FE
:10B9D000900037F07D987F8A12B5F612A2FF02BC64
:01B9E0003B2B
:10BACD0090003012A2C8ED12A2F012BC3B900030D3
:10BADD0012A2DC12BC3B900032E0900037F07B20CC
:0DBAED007D977F8A12B5F612A2FF02BC3BC6
:0981540090004F12A2C8124A1655
:10815D00900056124A16E4900055F0900054E064D9
:10816D000A707990005B7427F0A37410F012A2BF0F
:10817D00C3940AEC9400405612A28D12A2CF601245
:10818D00900059A3E0243012A27E900055E004F037
:10819D008015900055E0600F900051E475F00112CC
:1081AD0049FF74301246DF12A28D90005BE0FAA3F6
:1081BD00E0FBFDAC0212A2E47D0A7C00AF03AE022F
:1081CD0012470390005BEEF0A3EFF002817A90006E
:1081DD004FA3E02430A312A281028268900054E0E4
:1081ED006410600302827290005B7410F0A3E4F0DF
:1081FD0012A2BFC39410EC9400404412A28D12A29F
:10820D00CF6028900059E0FEA3E0FFC3940AEE94DE
:10821D00004005EF24378007900059A3E024301269
:10822D00A27E12A28D12A2BF12A2E490005BE0C446
:10823D00F854F0C868F0A3E0C4540F48F080B112B0
:10824D00A28DC3940AEE94004005EF243780079069
:10825D00004FA3E02430FFA312A2829000511249D7
:07826D00F6E41246DF7F0179
:0182740022E7
:06BEF50090004F124A16F6
:10BEFB00E4FF90004FE475F0011249FF1246996080
:04BF0B00030F80EEB2
:01BF0F00220F
:069A750090001C124A16CD
:109A7B007DFF7F8A12B75F900020EFF054FEFB7DD5
:109A8B00FF7F8A12BC3B7DE07F8A12B75FEF54EFFA
:109A9B00129B04E490001FF012A29EFF6042900004
:109AAB001FE02401FDE433FC90001C1249F6E92D64
:109ABB00F9EA3CFAEF129B0D90001FE02401FFE442
:109ACB0033FE90001C1249F6E92FF9EA3EFA7405B1
:109ADB00129B0D12A29E04FF90001FE02FF080B886
:109AEB007DE07F8A12B75FEF4410129B0490002039
:099AFB00E0FB7DFF7F8A02BC3B09
:109B0400FB7DE07F8A12BC3B22900025F07F8A1205
:039B1400B79822DD
:100066000A0D6D6F646520300A0D000D0A5B4D5355
:10007600475D536574345769646553637265656E8D
:100086002829203D3E2053637265656E20746F20DB
:10009600343A33202121000A0D6D6F646520320A3F
:1000A6000D000D0A2B2B284F5344486967684D6590
:1000B6006E755F73756229204F53444D656E754C9E
:1000C6006576656C3A2564000D0A52455345545FC2
:1000D6004D6F6E69746F7256414C5545000A0D7925
:1000E600766D697820340A0D000A0D79766D697887
:1000F60020300A0D000A0D79766D697820310A0DD7
:10010600000A0D79766D697820320A0D000A0D799C
:10011600766D697820330A0D00436865636B205657
:100126004741204361626C65004F7574204F66201D
:1001360052616E676500FE62596B62714C2F713AAF
:1001460034FF001213566F6C756D65002020204138
:1001560075746F2041646A757374696E67202E2EFC
:100166002E2E20202000436F6D706F73697465001A
:1001760056657273696F6E004C4344205665727300
:10018600696F6E004456522056657273696F6E0031
:10019600574946492049500057494649204D414351
:1001A6000047415445574159004F534420506F73FF
:1001B6006974696F6E004F534420506F73696369A9
:1001C6005F6E004F534420FE5465714667FF004C36
:1001D600616E6775616765004C616E677565005392
:1001E600707261636865004964696F6D6100FE57EE
:1001F60056714667FF004272696768746E6573736D
:10020600004C756D696E6F7369745F0048656C6C40
:1002160069676B656974004272696C6C6F00FE40B9
:1002260024715F60FF00436F6E74726173740043E4
:100236006F6E747261737465004B6F6E7472617366
:100246007400436F6E74726173746500FE394F718A
:100256005F60FF0053617475726174696F6E00535D
:10026600AA74746967756E67005361747572616309
:10027600695F6E00FE4A2C33715F60FF004875654A
:1002860000546F6E616C69745C0046617262650051
:10029600546F6E616C6964616400FE4A5448715F14
:1002A60060FF0053686172706E6573730041637519
:1002B60069745C00536368AA726665004167756479
:1002C600657A6100FE463933715F60FF00526573DF
:1002D600657400445C66617574004772756E64658A
:1002E600696E7374656C75670050726564657465D4
:1002F600726D696E6163695F6E00FE66246DFF0054
:10030600576964652053637265656E0057494445B5
:1003160020FE6D3B714667FF004D6972726F720079
:100326004A756D70005345512054696D65205374AC
:100336006570004A756D702041560043616D204F0F
:1003460075740052657475726E00526563616C6CEB
:10035600004D6F6E69746F7220526563616C6C003C
:1003660044565220526563616C6C0045786974008E
:1003760020007665722041302E30360054696D6556
:100386004F757420536574757000476175676520F5
:1003960053657475700047617567652052656361C2
:1003A6006C6C005072696F7269747900526576657B
:1003B6007273204D6F6465005265736F6C75746956
:1003C6006F6E00465053005175616C697479005226
:1003D60065636F7264204D6F6465005265636F726A
:1003E60064204C656E677468005072652D616C619F
:1003F600726D00506F73742D7265636F7264004185
:1004060070706C79005265636F72645374617274B4
:10041600005265636F726453746F7000536E61703F
:1004260073686F7400446174652054696D65005982
:10043600656172004D6F6E74680044617900486FA3
:100446007572004D696E00536563004461796C698D
:10045600676874536176696E6700426567696E65A1
:1004660000456E64005765656B0054696D65005400
:10047600696D65205A6F6E650052657475726E26D9
:100486004170706C7900466F726D61742053442020
:100496004361726400417564696F205265636F72CF
:1004A60064004669726D7761726520557064617487
:1004B6006500596573004E6F004669727374204E6D
:1004C600756D626572005365636F6E64204E756D5F
:1004D600626572005468697264204E756D62657259
:1004E60000466F75727468204E756D6265720043C2
:1004F60068616E67652050617373776F7264004F31
:1005060076657257726974650044697220496D6137
:1005160067650054726967676572205647410054E3
:100526007269676765722044656C617900496E6619
:100536006F726D6174696F6E0055706461746520C9
:10054600436F6E66696700534420636F7665722059
:100556004465742E0043414D20410043414D2042E5
:100566000043414D20430043414D205200446973EE
:10057600706C61790044565220446973706C6179DD
:100586000044697374616E63652047617567650031
:100596004F5344204C6F636B0050617373776F72D7
:1005A6006400536F75726365205469746C6500430B
:1005B600564253204100435642532042004356427E
:1005C60053204300435642532052004175746F2016
:1005D600446179264E696768740044697220496DE2
:1005E6006167650044697220496D61676520410055
:1005F60044697220496D6167652042004469722032
:10060600496D6167652043005265617220536574C8
:1006160075700043414D20410043414D2052004337
:10062600414D20420043414D20430043414D20446B
:10063600000200456E676C697368004672616E7BE6
:10064600616973004465757473636800457370610E
:100656007E6F6C00FE6A2356FF200004014D6F6416
:100666006531004D6F646532004D6F64653300552A
:10067600736572004D6F646531004D6F64653200BD
:100686004D6F64653300557361676572004D6F6425
:10069600757331004D6F64757332004D6F647573F9
:1006A600330042656E75747A6572004D6F646F3102
:1006B600004D6F646F32004D6F646F330055737574
:1006C6006172696F00FE3A34FF3100FE3A34FF3240
:1006D60000FE3A34FF3300FE47515B71FF200008ED
:1006E600004175746F004E5453430050414C005303
:1006F6004543414D004E545343342E34330050414C
:100706004C4D0050414C4E0050414C3630000500D7
:100716004E6F726D616C00576964650050616E6F53
:1007260072616D610046756C6C000500FE1A1BFF58
:100736002000FE1C1DFF2000FE1E1DFF2000FE1FC8
:1007460020FF2000FE1F21FF200009004F666600E3
:1007560043433100434332004343330043433400B1
:1007660054310054320054330054340002004F4ECA
:10077600004F46460002004D4952524F52004E4F1E
:10078600524D414C000300446179004155544F00DD
:100796004E6967687400020031363A3900343A33DC
:1007A600000200004F4E004F464600040053494EDB
:1007B600474C45004455414C00545249504C450065
:1007C600412B422C422B410007004100412B4200A5
:1007D600412B4300412B5200412B424300412B4207
:1007E6005200412B43520007004200422B41004277
:1007F6002B4300422B5200422B414300422B4152D5
:1008060000422B43520007004300432B4100432B79
:100816004200432B5200432B414200432B415200DE
:10082600432B4252000A005200522B4100522B42E7
:1008360000522B4300522F414200522F4143005297
:100846002F424300522B414200522B414300522B70
:100856004243000E00515541440053455100412B7F
:100866004200432B5200412B5200522B4200412B97
:100876004300432B4200522F414200522B4142007B
:1008860041004200430052000500515541440043D7
:10089600414D410043414D420043414D43004341D8
:1008A6004D5200020000373230783438300033358C
:1008B60032783234300005000035003130003135F1
:1008C600003230003235003330000500004C6576CA
:1008D600656C2D31004C6576656C2D32004C657665
:1008E600656C2D33004C6576656C2D34004C657651
:1008F600656C2D35000300004E6F6E65004E6F72FD
:100906006D616C00416C61726D0006000031202043
:100916006D696E003220206D696E003320206D698E
:100926006E003420206D696E003520206D696E00E2
:100936003130206D696E0005000031352073656326
:10094600003330207365630036302073656300081A
:100956000000313520736563003330207365630012
:100966003630207365630002000044697361626C6F
:100976006500456E61626C6500040000466972732D
:1009860074005365636F6E64005468697264004650
:100996006F75727468000400410042004300520003
:1009A6001900002D3132002D3131002D3130002D4E
:1009B60039002D38002D37002D36002D35002D3409
:1009C600002D33002D32002D310030003100320071
:1009D6003300340035003600370038003900313036
:1009E6000031310031320002005020004420000363
:1009F6000032343030003438303000393630300090
:100A06000200FE1819FF2000FE1A1BFF200004003A
:100A1600FE1C1D1E1F2021FF2000FE222328292A3E
:100A26002BFF2000FE242528292A2BFF2000412BFE
:100A3600422C422B41000E00FE262728292A2BFF96
:100A4600200053455100412B4200432B5200412BBD
:100A56005200522B4200412B4300432B4200522F9F
:100A6600414200522B4142004100420043005200E5
:100A760056474100FF0176FF0176FF0176FF0176BA
:100A8600FF0176FF017EFF017EFF017EFF017EFFF3
:100A9600017EFF018AFF018AFF018AFF018AFF01A9
:100AA6008AFF0196FF0196FF0196FF0196FF0196C8
:100AB600FF019EFF019EFF019EFF019EFF019EFF1B
:100AC60001A7FF01A7FF01A7FF01A7FF01A7FF01DC
:100AD6001FFF012FFF012FFF012FFF012FFF013CF9
:100AE600FF0149FF01AFFF01AFFF01AFFF01BCFFEF
:100AF60001C9FF01D5FF01DEFF01E5FF01EDFF01A1
:100B0600F4FF01FCFF0207FF0212FF021DFF022491
:100B1600FF022CFF0235FF023FFF0248FF0252FF91
:100B2600025AFF025AFF0265FF026FFF027AFF02B6
:100B360083FF0287FF0290FF0296FF02A0FF02A931
:100B4600FF02B3FF02BAFF02C2FF02CAFF02D3FFCF
:100B560002D9FF02E0FF02EFFF0300FF031FFF03BE
:100B66001FFF031FFF031FFF031FFF0326FF0326AD
:100B7600FF0326FF0326FF0326FF032BFF032BFF9E
:100B8600032BFF032BFF032BFF0341FF0341FF034F
:100B960041FF0341FF0341FF0339FF0349FF0349B7
:100BA600FF0349FF0349FF0349FF0350FF0350FFBB
:100BB6000350FF0350FF0350FF0357FF0357FF0384
:100BC60057FF0357FF0357FF0366FF0366FF0366DE
:100BD600FF0366FF0366FF0371FF0371FF0371FFE7
:100BE6000371FF0371FF0573FF0573FF0573FF05AF
:100BF60073FF0573FF057BFF057BFF057BFF057B09
:100C0600FF057BFF0587FF0587FF0587FF0587FF34
:100C16000587FF0596FF0596FF0596FF0596FF05D6
:100C260096FF059FFF059FFF059FFF059FFF059FF9
:100C3600FF05A8FF05A8FF05A8FF05A8FF05A8FF53
:100C460005B5FF05B5FF05B5FF05B5FF05B5FF05FC
:100C5600BCFF05BCFF05BCFF05BCFF05BCFF05C30B
:100C6600FF05C3FF05C3FF05C3FF05C3FF05CAFF95
:100C760005CAFF05CAFF05CAFF05CAFF05D1FF055C
:100C8600D1FF05D1FF05D1FF05D1FF05E0FF05E046
:100C9600FF05E0FF05E0FF05E0FF05EAFF05F6FFBB
:100CA6000602FF060EFF060EFF060EFF060EFF06E5
:100CB6000EFF0619FF0619FF0619FF0619FF06198A
:100CC600FF0625FF0625FF0625FF0625FF0625FF4D
:100CD600062BFF062BFF062BFF062BFF062BFF0618
:100CE6001FFF061FFF061FFF061FFF061FFF063119
:100CF600FF0631FF0631FF0631FF0631FF0376FF9F
:100D06000378FF0382FF0390FF039CFF03A9FF0301
:100D1600B2FF0525FF0525FF0525FF0525FF05254E
:100D2600FF055BFF055BFF055BFF055BFF055BFFE3
:100D36000561FF0561FF0561FF0561FF0561FF05AF
:100D460067FF0567FF0567FF0567FF0567FF056D19
:100D5600FF056DFF056DFF056DFF056DFF03BEFF0A
:100D660003C9FF03CDFF03D5FF03E1FF03EFFF0335
:100D7600F9FF0405FF040BFF0417FF0422FF042BF1
:100D8600FF0435FF043AFF0440FF0444FF0449FF13
:100D9600044DFF0451FF0460FF0467FF046BFF046A
:100DA60070FF0475FF047FFF048CFF049BFF04A8FB
:100DB600FF04B8FF04BCFF04BFFF04CCFF04DAFF46
:100DC60004E7FF04F5FF0505FF050FFF0519FF05FD
:100DD60033FF053FFF054DFF0306FF0306FF03062E
:100DE600FF0306FF0312FE6C6F00FE727500FE60C5
:100DF6006300FE787B00FE666900FE848700FE01C4
:100E06000200FE7E8100FE8A8D00FE909300FE9613
:100E16009900FEC0C300FE9C9F00FEA2A500FEA88E
:100E2600AB00FEAEB100FEB4B700FEBABD000000D6
:100E360018031661180216610000FF0C81FFFFFF00
:100E46003200000700B807720000FF0BEBFFFFFF40
:100E56003200000700B907720000FF0C09FFFFFF10
:100E66003200000700BA07720000FF0C18FFFFFFF0
:100E76003200000700BB07720000FF0D11FFFFFFE5
:100E86003200000700CA07720000FF0D14FFFFFFC3
:100E96003200000700D6079C0000FF0BA0FFFFFFF3
:100EA6003200000300F1000000000000000000FF17
:100EB600FF00000000000000180216610000FF0D90
:100EC600B9FFFFFF3200000300F100000000FF0D34
:100ED600B6FFFFFF3200000300ED00000000000037
:100EE600000000FFFF00000000000000180216616D
:100EF6000000FF0DBCFFFFFF32000005002D0E3580
:100F06000000FF0DBFFFFFFF32000005002E0E356B
:100F16000000FF0DC2FFFFFF32000005002F0E3557
:100F26000000FF0DC5FFFFFF3200000500380E353B
:100F36000000FF0DC8FFFFFF3200000300EE0000B7
:100F46000000FF0BA0FFFFFF3200000300F10000CE
:100F560000000000000000FFFF000000000000008D
:100F6600180216610000FF0DBCFFFFFF32000005EE
:100F7600002D0E350000FF0DBFFFFFFF32000005FC
:100F8600002E0E350000FF0DC2FFFFFF32000005E8
:100F9600002F0E350000FF0DC5FFFFFF32000005D4
:100FA60000380E350000FF0DADFFFFFF32000003D5
:100FB60000EB00000000FF0DC8FFFFFF320EF60138
:100FC60000000EF20000FF0BA0FFFFFF320000033F
:100FD60000F1000000000000000000FFFF0000001C
:100FE60000000000180516610000FF0DA7FFFFFFB7
:100FF60032000007002C09A60000FF0D86FFFFFF48
:101006003200000500200E350000FF0D89FFFFFFAE
:101016003200000500210E350000FF0D8CFFFFFF9A
:101026003200000500220E350000FF0D8FFFFFFF86
:101036003200000500230E350000FF0D92FFFFFF72
:101046003200000500240E350000FF0DAAFFFFFF49
:101056003200000300F6000000000000000000FF60
:10106600FF000000000000000000FF0DB6FFFFFFBC
:1010760032000003009B00000000FF0DB9FFFFFFD8
:101086003200000300F1000000000000000000FF35
:10109600FF000000000000000000FF0DB6FFFFFF8C
:1010A60032000003007000000000FF0DB9FFFFFFD3
:1010B6003200000300F1000000000000000000FF05
:1010C600FF000000000000000000FF0DB6FFFFFF5C
:1010D60032000003009E00000000FF0DB9FFFFFF75
:1010E6003200000300F1000000000000000000FFD5
:1010F600FF000000000000000000FF0BBEFFFFFF26
:1011060032109E0100000E360000FF0BCDFFFFFFE0
:101116003210CE0100000E360000FF0BA0FFFFFFCD
:101126003200000300F1000000000000000000FF94
:10113600FF00000000000000180416610000FF0A0E
:10114600A7FFFFFF3600000B00F1000000000000C3
:1011560000FFFFFF3200000C00390E350000FF0AC9
:10116600B6FFFFFF3600000B00F100000000000094
:1011760000FFFFFF3600000C003A0E350000FF0AA4
:10118600C5FFFFFF3600000B00F100000000000065
:1011960000FFFFFF3600000C003B0E350000FF0B82
:1011A600A0FFFFFF3200000300F100000000000076
:1011B600000000FFFF000000000000001804166198
:1011C6000000FF0BAFFFFFFF32000003009B000093
:1011D6000000FF0BDCFFFFFF3200000300F40000FD
:1011E6000000FF0D02FFFFFF3200000B00F40000BD
:1011F6000000FF0D02FFFFFF3200000B00F40000AD
:101206000000FF0D02FFFFFF3200000B00F400009C
:101216000000FF0D02FFFFFF3200000B00F400008C
:101226000000FF0D05FFFFFF3600000B00F4000075
:1012360000000000000000FFFF00000000000000AA
:10124600180516610000FF0D6EFFFFFF3200000754
:1012560000E409100000FF0D74FFFFFF32000007D5
:1012660000E609550000FF0DB0FFFFFF3200000742
:1012760000EC099C0000FF0DAAFFFFFF32000003EF
:1012860000F5000000000000000000FFFF00000065
:1012960000000000180416610000FF0D6BFFFFFF41
:1012A60032124A01000012460000FF0D65FFFFFFE3
:1012B6003200000700E108BC0000FF0D68FFFFFFD9
:1012C6003200000700E208D00000FF0DADFFFFFF6F
:1012D600320F6A0100000F660000FF0DB3FFFFFF2B
:1012E600320EC20100000EBE0000FF0DAAFFFFFF76
:1012F6003200000300F5000000000000000000FFBF
:10130600FF00000000000000180516610000000044
:10131600000000FFFF000000000000001804166136
:101326000000FF0B07FFFFFF3200000400960E359A
:101336000000FF0B16FFFFFF3200000400950E357C
:101346000000FF0B25FFFFFF3200000400970E355B
:101356000000FF0B34FFFFFF3200000400990E353A
:101366000000FF0B43FFFFFF32000004009A0E351A
:101376000000FF0BA0FFFFFF3200000300F100009A
:1013860000000000000000FFFF0000000000000059
:10139600180516610000FF0CB7FFFFFF32000007BB
:1013A60000C107720000FF0CC6FFFFFF32000007F6
:1013B60000C207720000FF0CD5FFFFFF32000007D6
:1013C60000C307720000FF0CE4FFFFFF32000007B6
:1013D60000C407720000FF0BA0FFFFFF32000003EE
:1013E60000F1000000000000000000FFFF00000008
:1013F600000000000000FF0D26FFFFFF3200000482
:1014060000B20E350000FF0D35FFFFFF320000046D
:1014160000B30E350000FF0D44FFFFFF320000044D
:1014260000B40E350000FF0D53FFFFFF320000042D
:1014360000B50E350000FF0BA0FFFFFF32000003D2
:1014460000F1000000000000000000FFFF000000A7
:1014560000000000180516610000FF0C9FFFFFFF4B
:101466003200000700CD07CE0000FF0CA2FFFFFFF1
:101476003200000700CE07ED0000FF0CA5FFFFFFBE
:101486003200000700CF080C0000FF0BA0FFFFFF93
:101496003200000300F1000000000000000000FF21
:1014A600FF00000000000000180816610000FF0B96
:1014B60061FFFFFF32139A0100000E360000FF0D98
:1014C600CEFFFFFF32145E0100000E360000FF0C57
:1014D600A8FFFFFF3200000700C6082B0000FF0B25
:1014E60070FFFFFF3200000700C708590000FF0B1E
:1014F6008EFFFFFF3200000700C8088E0000FF0BBA
:101506007FFFFFFF3200000400C90E350000FF0D0B
:1015160017FFFFFF3213FA0100000E360000FF0B23
:10152600A0FFFFFF3200000300F1000000000000F2
:10153600000000FFFF000000000000000204FF3270
:101546000DEC000000FFFF32FF132601009F13225F
:101556000DF0000000FFFF32FF0E3E0100000E3AC4
:101566000DF4000000FFFF32FF14B201009F14AE1D
:101576000DF8000000FFFF32FF11C601000011C286
:1015860000000000000000FFFF0000000000000057
:101596000000000000FFFF32FF1546010000154263
:1015A60000000000000000FFFF0000000000000037
:1015B60000000064003200020034001A0001002C12
:1015C600001600000037001C000000C70064002D54
:1015D60000D200800000000700030000003F00204A
:1015E600002D00D200800000001F00100019007DB1
:1015F600005A001E00820069FF830018001E0000CA
:1016060000FF0080FF80007F00000000000700034D
:101616000000007F004011111171113B161A0102E2
:1016260001342C342C024B323232323232324B32CB
:1016360032321110131415707174727370717472E2
:101646007378630080800060808080802080808046
:10165600803B68F890900060808080802080808049
:10166600800358F8A0A00060808080802080808061
:101676008003322528282D64323232323232000A73
:10168600006000610062006300660067006800B9E0
:1016960000FC13DBA67B0060000017481BDB807B89
:1016A6000000000017481EF2807C800001B6314819
:1016B60026D58069000000006FDF13D4A691006074
:1016C6000000174821D4809100000000174813F24B
:1016D6008092800001B6344813DC807F0000000051
:1016E600605A14008B7C01500000294814DC807C71
:1016F60000000000294814F2807C800001B62948C9
:1017060014DC805F000000007B5A0C008B940150B3
:1017160000002D480CDC8094000000002D480CF2DF
:101726008094800001B62D480CDC807F000000000C
:10173600605A3AF680FB0050000026483AC380FB08
:101746000000000026483ACC80FB800001B62648FF
:101756003AC380BE00000000705A3FF98029045049
:1017660000002E483FC38029040000002E483FD0C9
:101776008029840001B62E483FC380E8000000009F
:10178600805A28A4806A04500000165A2884806A69
:1017960004000000165A2889806A84350035165AD6
:1017A6002884801C040000006B5A23F9801404501E
:1017B60000001F5A23C88014040000001F5A23F09B
:1017C6008014843501871F5A23C880E70000000073
:1017D600565A202020496E70757420203A20202009
:1017E60020202020202020202020200020202053E0
:1017F600797374656D203A20202020202020202037
:1018060020202020200020202048204672657120BC
:101816003A2020202020206B487A202020202000FB
:10182600202020562046726571203A202020202054
:101836002020487A202020202000202020462F57D4
:10184600205265763A2020202020202020202020AB
:101856002020200000000000000000000000000022
:10186600000000000000000000000000000001026F
:101876000205050403040404040404040404040423
:1018860004040404040404032020201C2020202037
:101896002020202020200020202020202020202062
:1018A6002020002E003A000101010101010102027F
:1018B60002020202020505050505050404040404E6
:1018C6000403202020000404040404032020200034
:1018D6002020202020202020202020002020202022
:0818E60020202020202020001A
:107BB300410122FF4101230041012800C120C11FCF
:107BC300410110004101250041012A004101290022
:077BD30041011D00017900D2
:104F7C00D3900011E09400900010E09400227E0089
:104F8C00900011E09000105403FFEEF0A3EFF0221C
:104F9C0090010EE0FEA3E0F5828E83229000267A2B
:104FAC00007927E0FF7E007B0190002F124A167BD0
:104FBC00FF22EE900010F0A3EFF02275F0101249D2
:104FCC00EA740E93FB740F93900111CBF0A3EBF0EA
:104FDC008F828E83ED75F0101249EA740993FF7479
:104FEC000A9390010ECFF0A3EFF022900029E02459
:104FFC00F1FF900028E034FFFE90002D0249F67579
:10500C00F0101249EA740D93227A1579C890003287
:10501C00124A167A1579B62290001F1249F69000A2
:10502C000E1247CFAAF0F97BFF90002D124A169072
:10503C00001F0249F6900010A3E0FD22E0FDE49071
:10504C000035F0A3EDF02290010EE0FEA3E0FFF599
:10505C00828E8322E0FF900010E4F0A322E4900003
:10506C0010F0A3F022900028E0FEA3E0FF22E0FE67
:10507C00A3E0FF7B019000547409F02290010EE034
:10508C00FEA3E0FFEE90011EF0A3EFF0A322FD754E
:10509C00F00A84E5F02430F0ED75F00A84227E00ED
:1050AC0090012BEEF0A3EFF022E0FEA3E0FF9001C5
:1050BC0011E0FCA3E0F5828C832290000EE09000BE
:1050CC0010A4FFE5F08FF002478E75F0101249EA3C
:1050DC00740E93FC740F93AA04F97BFF90000712D3
:1050EC004A168F828E83227D017BFF7E00024673DF
:1050FC00FFE975F003A42416F582E43400F583224D
:10510C00900010E0FEA3E0FF900111E0FAA3E0F59F
:10511C00828A83740393FDE49322EFF090000FE0F6
:10512C002290004CE475F0011249FF024699900060
:10513C0002124A4B900128E075F003A4F58285F029
:10514C0083024A4BF0A3EFF0D39015B67401939FF2
:10515C00EE6480F8E49364809822FF900028E03499
:10516C00002290010EE0FEA3E0AA06F97BFF227557
:10517C00F0100249EAA3E475F00102478EE0FEA3A9
:10518C00E02DFDEE3CFCEDA4FBAAF0FF900018E036
:10519C00229015B8E493FE740193FF22900010E462
:1051AC00F0A3740EF022F0E0FF25E02422F582E457
:1051BC003416F583E49322F0EF25E02423F582E402
:1051CC003416F583E493227E00EEF0A3EFF07B011E
:1051DC0022EEF0A3EFF0A32290000D0246B2C39092
:1051EC000011E09403227D017BFF7E007F0C0246C0
:1051FC007390012DE0640122740E93FB740F939055
:10520C000111CBF0A3EBF022EF54F8FFA3E054070D
:10521C004FFB7D177F8A22900011E02403F0900051
:10522C0010E03400F02290000CE0FEA3E0FF9000B0
:10523C000AA3E0FD22FFE493FC740193FDC3EF9DF0
:10524C00FEE49C2290000EEEF0A3EFF0FD90001413
:10525C00E0FF22E57925E02415F582E43401F5839D
:10526C002235F0FA7BFF90000BE0900054F02224E2
:10527C0040F582E43400F5832290012BA3E0FF2259
:10528C00E0FFA3E090011ECFF0A3EFF0227D187C8D
:10529C00001246F1EF22FFE08FF0A4FF22A3E054AE
:1052AC00074438FB7D787F8A22C3900011E0940676
:1052BC0022F090003AE004F022E0FEA3E0FF7B0134
:1052CC0022E0FF7E007B017A00792822FBC3EF9B52
:1052DC00FFEE9400FEC322C3900011E0940222E082
:1052EC00FD75F00A84E5F0243022F9E43AFA024A1A
:1052FC00162FFFE035F0FAA9077BFF22E024052FDB
:10530C00F075F0058422FFE4F0A3EFF02290001377
:10531C00A3E0FF22FF7E007B017A007927229FEE1B
:10532C006480F8EC648098221249F60246997D322A
:10533C007F267E002275F011A424FFF9747D22F5DE
:10534C0082E43400F583EEF022F582E43400F58338
:03535C00EEF0224E
:03000E0012C1110B
:0100110022CC
:05783600900012EFF0CC
:10783B0012000E900017EFF0900012E0B401047FDD
:10784B000180027FFF900017125308E5F01251B22E
:10785B00FEFD900013E4F0A3EDF0900126E0FDC3D4
:10786B00900014E09DF0900013E09400F09001263E
:10787B00EE1251C3FFFD900015E4F0A3EDF0900163
:10788B0027E0FDC3900016E09DF0900015E09400FA
:10789B00F0900127EFF09000187401F0900018E0C1
:1078AB00FFD39404506D12B27CAD07AC069000135D
:1078BB0075F008125189F975F003A42417F582E4C9
:1078CB003400F583EFF0EA1250FCEFF0AF0112AE8B
:1078DB0060AC06AD0790001575F00412518975F078
:1078EB0003A42418F582E43400F583EFF0EAC4F81E
:1078FB0054F0C8EBC4540F485470FF900018E0F9D3
:10790B001250FEE04F1250FCEFF0900018E004F024
:10791B000278A712BAA07DE07F8A12B75FEF54EF0F
:10792B001279969000187401F0900018E0FFD39430
:10793B00045031EF14FB7D9E7F8A12BC3B900018E4
:10794B00E075F003A42416F9740035F0FA7B01906E
:10795B00005A7403F07DA07F8A12B4F6900018E0F1
:10796B0004F080C57DE07F8A12B75FEF4410127977
:10797B0096900017E0FF12C09712BAA0E4FB7D901F
:0A798B007F8A12BC3B900017E0FF5A
:0A79950022FB7DE07F8A12BC3B223A
:10698D00901622E493900126F0901623E493900143
:10699D0027F0E4FF12C0977FB0126B1E7FA0126B21
:1069AD001E7FA07E0012BC15900146EFF07FA11254
:1069BD006B267FA2126B267FBA126B357FA4126BEA
:1069CD00357FAB126B2D7FA3126B447FBB126B44D3
:1069DD007FA5126B2D7FA6126B3C7FA7126B3C7FA0
:1069ED00A8126B4B7D327F387E0012B35A90016F27
:1069FD007432F0E4FF1285A07D327F377E0012B332
:106A0D005A7D037FB27E0012B35A7FBC126B4B7F4F
:106A1D00BD126B5A7FBE126B5A900103E0700FFDD1
:106A2D007FAEFE12B35A7D017FAC7E00800E7D0DD0
:106A3D007FAE7E0012B35AE4FD7FACFE12B35AE472
:106A4D00900139F07D027FAAFE12B35A7FA9126B15
:106A5D0073E4FF12B1E37BFF7A00796612BF107DFC
:106A6D00337FA07E0012BACD7FB2126B737FB3124B
:106A7D006B527FB4126B527FB5126B6B7FB6126B7C
:106A8D006B12849BE4FF12C0B27D017FBF7E0012AA
:106A9D00B35A7FBF7E0012BC15EF24FF9209E4FDAF
:106AAD007FB8FE12B35A7FB87E0012BC159001005C
:106ABD00EFF07D017FB77E0012B35A7FB77E0012D3
:106ACD00BC159000FBEFF07D027FB97E0012B35A2A
:106ADD007FB97E0012BC159000EDEFF0E4FD7FAFA5
:106AED00FE12B35AE4900133F090010204F0FD7FE1
:106AFD00C57E0012B35A7F1B126B617F1C7E021282
:106B0D00B35A7F1D126B617F1E7E0212B35A02A310
:106B1D008C7D017E0012B35A22E4FDFE12B35A227F
:106B2D007D017E0012B35A22E4FDFE12B35A227D7E
:106B3D00017E0012B35A22E4FDFE12B35A22E4FD87
:106B4D00FE12B35A227D017E0012B35A22E4FDFEDD
:106B5D0012B35A22E4FD7E0212B35AE4FD227D01E6
:0D6B6D007E0012B35A22E4FDFE12B35A223C
:10BF8D0012C119900128EFF075F00584AFF0EFF0B4
:01BF9D002281
:10BE3100EFB401047F0180027FFF900128125308B3
:0CBE4100AFF0EFF012C0B2900128E0FF5B
:01BE4D0022D2
:05A9A200900014EDF02F
:10A9A700EF75F003A42481FEE435F0A3F0A3CEF005
:10A9B700E4A3F0900017E0FFC39403504390001600
:10A9C700E02FFF900015E03400FE12BC1590001830
:10A9D7001251D37A00791A124FB51250151297E710
:10A9E700900017E02471FD90001AA3E0FF90001477
:10A9F700E02FFB7F8A12BC3B900017E004F080B386
:01AA0700222C
:10A70700EFB401047F0180027FFF90012CE0240455
:10A71700FD90012BE03400FCEF3395E0FEED2FFFB9
:10A72700EC3EF0A3EFF07E0090012B124F93FD7FDC
:10A737008012B35A7F107E0012BC157E007B017A0F
:10A74700007912124FB57A1579CE1250191297E780
:10A75700125285900012A3E0FD12A9A27F807E000D
:10A7670012BC15EF64037BA860047D3080027D3244
:0AA777007F3E7E0012B9B012528539
:01A7810022B5
:05969300900012EFF051
:10969800ED90012CB4010DE02401FF90012BE03482
:1096A80000FE800BE024FFFF90012BE034FFFE90CA
:1096B8000013EE125150501512519D900014E09F66
:1096C800EE6480F8900013E0648098400302973AB3
:1096D800900013E0FEA3E0FF1250AC7B017A007902
:1096E80015124FB51250151297E7900012E0248A10
:1096F800FFE433FEA3A3E0FD12B35A7F107E0012ED
:10970800BC159000131251D37A007917124FB57A0D
:109718001579CE1250191297E7900012E02471FDC6
:10972800900017A3E0FF900015A3E02FFB7F8A129B
:05973800BC3B1252854C
:01973D002209
:10AE08007D707F8A12B75FEF54BFFB7D707F8A1217
:10AE1800BC3B7D7412AE567D757F8A12BC3B7D7635
:10AE280012AE567D717F8A12BC3B7B807D727F8A11
:10AE380012BC3B7B807D737F8A12BC3B7D707F8A0E
:10AE480012B75FEF4440FB7D707F8A02BC3B7B807A
:08AE58007F8A12BC3B7B8022C3
:0688820090001FEFF0FD65
:108888007F0B7E0012B35A90001FE06403606CE413
:10889800A3F0A3F0900020E0FEA3E0FFC3940FEE46
:1088A80064809480503B90001FE0C454F02448F545
:1088B80082E43416F583E5822FF582E5833EF5835D
:1088C800E493FB900020A3E02438F58274163EF56B
:1088D80083E493FD7F8A12BC3B9000201251828072
:1088E800B390001FE0C454F02457F582E43416F521
:0B88F80083E493900022125312804E84
:10890300E4FF12C13812B5B77F0112C13812B23079
:108913007F0212C138AD07E4FF12A7F47F0312C12F
:1089230038AD077F0112A7F47F0412C13812A8647F
:108933007F0512C1387E009000241251D57A007948
:0E89430022124FB57A1679101250191297E7CA
:108951009000221252A912BC3B7D177F8A12B75F89
:0989610090002212521412BC3BDA
:01896A0022EA
:03C151007F00224A
:07C1380012C07A1250AA2286
:059BB900900012EFF026
:109BBE00EDB401067E007F0180047EFF7FFF9001E1
:109BCE002BE0FCA3E0FD2FFFEC3EFE9000131251A4
:109BDE0050501612519D900013E0FAA3E0FB9FEE39
:109BEE006480F8EA6480984003AF0522900012E08A
:109BFE0014601814601D14601A14602724FE602B64
:109C0E002406702DAF0312B5B7802612531912B267
:109C1E0030801E900012E024FEFFA3A3E0FD12A7E9
:109C2E00F4800E12531912A864800612531912A949
:109C3E0039900012E0FFA3A3E0FD12C0A090001324
:089C4E00E0FEA3E0FF1250ACA0
:019C560022EB
:05B5B700900026EFF0FA
:10B5BC0012C14B900026E0BF010C125320124FB564
:10B5CC007A1579F8800A125320124FB57A1579F250
:10B5DC001250191297E79000FCE090161B93FD9007
:0AB5EC000027A3E0FB7F8A02BC3BAE
:05B23000900026EFF084
:10B235009000FCE064047017124FA87A1579D412B7
:10B2450050191297E7900027A3E0FB7D7480221226
:10B255004FA87A1579FE1250191297E712C151EFCE
:10B265009000276007A3E0FB7D3A8005A3E0FB7D06
:06B27500107F8A12BC3BB1
:01B27B0022B0
:10A939007E007B017A007915124FB57A1579EC12F0
:10A9490050191297E77DFF7F8A12B75F900017EFC2
:10A95900F0E47DFF12A99B7DBE7F8A12B75FEF5499
:10A96900CF44107DBE12A99B7DC47F8A12B75FEFC9
:10A979005480FD900015E0A2E713A3E0134DFB7D81
:10A98900C47F8A12BC3B900017E0FB7DFF7F8A02DF
:02A99900BC3BC5
:07A99B00FB7F8A12BC3B2286
:05A86400900026EFF05A
:10A869009000FCE06404702A9000267A007927128F
:10A879004FAF7A1579E01250191297E77D707F8AE8
:10A8890012B75FEF54C0FF900027A3E04FFB7D7024
:10A89900802F900026E0FF7E007B017A0079271245
:10A8A9004FB57A16790A1250191297E712C151EF6A
:10A8B9009000276007A3E0FB7D3E8005A3E0FB7DB8
:06A8C900157F8A12BC3B62
:01A8CF002266
:08A7F400900026EFF0A3EDF048
:10A7FC0012C151EF60301252CD124FB57A16791644
:10A80C001250191297E7900026E0243CFD7F8A1223
:10A81C00B75FEF5480FF900028A3E02FFB90002639
:10A82C00E0243CFD802C9000271252CD124FB57ABB
:10A83C001679041250191297E79000FCE09000264C
:10A84C00B40405E024728003E02413FD900028A3D7
:07A85C00E0FB7F8A12BC3B08
:01A8630022D2
:05988C00900012EFF056
:109891007D787F8A12B75FEF5407540F900015123D
:1098A1005312900012E0B401047F0180027FFFEFA8
:1098B1003395E09000158FF012478E9016101251DB
:1098C100A0900015E0FCA3E0FDC312532A400D90C7
:1098D10016121251A0D3ED12532A400412528522BE
:1098E100AF057E007B017A007913124FB57A1579A5
:1098F100B6900032124A167A1679101297E7900044
:10990100151252A912BC3B7D177F8A12B75F9000D6
:109911001512521412BC3B900013A3E0FD7F0512F7
:0D992100C0A0900013E0FEA3E0FF1250ACC8
:01992E002216
:10AA08009000FCE090000AF09000FC7401F09000C7
:10AA1800FCE0FFC394075030EFB40413E49000093E
:10AA2800F0900009E090167E12AA5D40F48011E4CF
