:10382A006873636F6D20312031206368303A312527
:10383A00316278206368313A3025316278206368D2
:10384A00323A3025316278206368333A3025316262
:10385A00780A0D006873636F6D2031203120636828
:10386A00313A3125316278206368303A3025316245
:10387A0078206368323A3025316278206368333AB7
:10388A0030253162780A0D006873636F6D2031202C
:10389A0031206368323A256278206368303A3025ED
:1038AA00316278206368313A302531627820636862
:1038BA00333A30253162780A0D006873636F6D20E0
:1038CA00312031206368333A3125316278206368C8
:1038DA00303A3025316278206368313A30253162D6
:1038EA0078206368323A30253162780A0D006873AD
:1038FA00636F6D20322032206368303A312531629D
:10390A0078206368313A3025316278206368323A28
:10391A003025316278206368333A30253162780A7B
:10392A000D006873636F6D20322032206368323A6B
:10393A00256278206368333A3125316278206368DA
:10394A00303A3025316278206368313A3025316265
:10395A00780A0D006873636F6D2032203220636825
:10396A00303A3025316278206368333A3125316242
:10397A0078206368313A3025316278206368323AB8
:10398A0030253162780A0D006873636F6D2032202A
:10399A0032206368333A3125316278206368313ADC
:1039AA003025316278206368303A302531627820D8
:1039BA006368323A30253162780A0D006873636FA2
:1039CA006D20332031206368333A31253162782003
:1039DA006368303A3025316278206368313A30259D
:1039EA00316278206368323A30253162780A0D00F4
:1039FA006873636F6D20332033206368303A302553
:103A0A00316278206368313A302531627820636800
:103A1A00333A3125316278206368323A302531628F
:103A2A00780A0D006873636F6D2033203420636851
:103A3A00303A3025316278206368313A3025316274
:103A4A0078206368333A3125316278206368323AE4
:103A5A0030253162780A0D006873636F6D20342057
:103A6A0031206368303A3025316278206368313A10
:103A7A003025316278206368323A30253162782005
:103A8A006368333A31253162780A0D006873636FCF
:103A9A006D20322032206368303A31253162782035
:103AAA006368323A3025316278206368313A3025CA
:103ABA00316278206368333A30253162780A0D0022
:103ACA006873636F6D20322032206368323A256250
:103ADA0078206368313A3025316278206368303A59
:103AEA003025316278206368333A30253162780AAA
:103AFA000D006873636F6D20332033206368333A97
:103B0A003125316278206368303A30253162782075
:103B1A006368313A3025316278206368323A302559
:103B2A003162780A0D006873636F6D20322032208B
:103B3A006368333A3125316278206368323A302536
:103B4A00316278206368313A3025316278206368BF
:103B5A00303A30253162780A0D006873636F6D2040
:103B6A00332031206368333A312531627820636823
:103B7A00303A3025316278206368323A3025316232
:103B8A0078206368313A30253162780A0D0068730B
:103B9A00636F6D20332031206368333A31253162F7
:103BAA0078206368313A3025316278206368323A86
:103BBA003025316278206368303A30253162780ADC
:103BCA000D006873636F6D20332033206368333AC6
:103BDA003125316278206368303A302531627820A5
:103BEA006368323A3025316278206368313A302589
:103BFA003162780A0D006873636F6D2033203320B9
:103C0A006368333A3125316278206368313A302566
:103C1A00316278206368323A3025316278206368ED
:103C2A00303A30253162780A0D006873636F6D206F
:103C3A00332033206368303A312531627820636853
:103C4A00313A3025316278206368323A3025316260
:103C5A0078206368333A30253162780A0D00687338
:103C6A00636F6D20332033206368303A3025316228
:103C7A0078206368323A3025316278206368333AB3
:103C8A003125316278206368313A30253162780A09
:103C9A000D006873636F6D20322032206368313AF9
:103CAA003125316278206368303A302531627820D4
:103CBA006368323A3025316278206368333A3025B6
:103CCA003162780A0D006873636F6D2032203220EA
:103CDA006368313A3125316278206368323A302597
:103CEA00316278206368333A30253162782063681C
:103CFA00303A30253162780A0D006873636F6D209F
:103D0A00322032206368313A302531627820636884
:103D1A00333A3125316278206368323A302531628C
:103D2A0078206368303A30253162780A0D0068736A
:103D3A00636F6D20332033206368313A3125316255
:103D4A0078206368303A3025316278206368323AE5
:103D5A003025316278206368333A30253162780A37
:103D6A000D006873636F6D20332033206368313A26
:103D7A003025316278206368303A30253162782004
:103D8A006368333A3125316278206368323A3025E4
:103D9A003162780A0D006873636F6D203320332017
:103DAA006368313A3025316278206368323A3025C7
:103DBA00316278206368333A31253162782063684A
:103DCA00303A30253162780A0D006873636F6D20CE
:103DDA00322032206368323A256278206368303AAA
:103DEA003025316278206368313A30253162782093
:103DFA006368333A30253162780A0D006873636F5D
:103E0A006D20322032206368323A25627820636856
:103E1A00313A3025316278206368333A302531628D
:103E2A0078206368303A30253162780A0D00687369
:103E3A00636F6D20322032206368323A256278201F
:103E4A006368333A3125316278206368313A302524
:103E5A00316278206368303A30253162780A0D0081
:103E6A006873636F6D20332033206368323A2562AA
:103E7A0078206368303A3025316278206368313AB5
:103E8A003025316278206368333A30253162780A06
:103E9A000D006873636F6D20332033206368323AF4
:103EAA00256278206368303A302531627820636869
:103EBA00333A3125316278206368313A30253162EC
:103ECA00780A0D006873636F6D20332033206368AE
:103EDA00323A256278206368313A30253162782097
:103EEA006368333A3125316278206368303A302585
:103EFA003162780A0D000D0A507265762E46573ADD
:103F0A0025303478000D0A437572722E46573A25C9
:103F1A00303478000D0A5B4D53475D6D61696E5F01
:103F2A00696E697428293D3E2072657620213D20FC
:103F3A00465756455220262063616C6C20436C65B7
:103F4A0061724261736963454528290D0A000D0AA9
:103F5A0043616E6E6F7420616363657373204545B8
:103F6A0050524F4D21212121000D0A4E6F20696EBA
:103F7A00697469616C697A6500545738383136005A
:103F8A005457383831364200545738383137004E92
:103F9A006F7468696E67202D2D3078253032780D60
:103FAA000A00436865636B20616761696E202D2D85
:103FBA003078253032780D0A004C617374204368DA
:103FCA0065636B202D2D3078253032780D0A00FF7D
:103FDA00382AFF385EFF3892FF38C4FF38F8FF39B5
:103FEA002CFF395EFF3992FF39C6FF39FAFF3A2EA4
:103FFA00FF3A62FF3A96FF3ACAFF3AFCFF3B30FFAC
:10400A003B64FF3B98FF3BCCFF3C00FF3C34FF3C4A
:10401A0068FF3C9CFF3CD0FF3D04FF3D38FF3D6CF0
:10402A00FF3DA0FF3DD4FF3E06FF3E38FF3E6AFF3C
:10403A003E9CFF3ECE2D2D2D3E2050616E656C3A82
:10404A0020575647412D3830302A343830202D2D0C
:10405A00205449434F4E4C45535320485320376907
:04406A006E63680019
:1074A200012D00013000C10CC10B02310000012F7F
:1074B20000024C000041014001C10DC10E410143D7
:1074C2000041014100410144004401450000000027
:10A10E00ED90001DF090001BE090001E2290001BB1
:10A11E00E090001DF022EBA3F090001CE090001FD9
:10A12E0022FFEA33FE7C007D141241CE744E2DF8D0
:10A13E00E62290001CE0A3F0A32290001DF09000F8
:10A14E001CE090001E22900028F0A3EFF07BFF226F
:10795D007B107DE07F8A12AB96129C74900000EE36
:10796D0012A1577A3F7900900028EEF0A3EFF012A4
:10797D00AAFC129C74EF64107003EE640260287B05
:10798D00FF7A3F790F9000287402F0A37410F01263
:10799D00AAFC7F107E0212A451129C74EE12A15407
:1079AD007A3F790F12AAFC129C74EF64107003EEEB
:1079BD0064027033900000E064027004A3E0641070
:1079CD00601B900117E0FF12AF797F0112AF9D127E
:1079DD00AAD57BFF7A3F791E12AAFC802C12AFED3F
:1079ED00900117EFF080227BFF7A3F795812AAFCA5
:1079FD007BFF7A3F797312AAFC90011774FFF07F19
:107A0D000112A743E4FF0291157F087E0012AB70AF
:107A1D0090011FEFF06004E0FF80027F0112A74389
:107A2D0012950490011274FEF0129DF212A77C7F44
:107A3D00061280287F0A12AE2C12AEFC7DFF127A40
:107A4D006F7D82127A6FE4FB7DFF7F8A12AB967B8E
:107A5D00FF7DD07F8A12AB967BFF7DD17F8A12ABE3
:017A6D009682
:097A6E00227B017F8A12AB9622F3
:10A1AE0075F68775F65975BF10E4F5F6758DF4756D
:10A1BE009850758922758855758A40758C407587BB
:10A1CE008075B80275A892D299D2ACF5C8C2CAD21F
:10A1DE00AD75AA5075BAF443A61843AD10C20E75EC
:0FA1EE00DE4243D840F5B175B220F54AF549225B
:03000B000271EB94
:0B71EB00C0E0C083C082C0D075D00897
:1071F600054B900142E0600214F0900142E07033CA
:10720600E5A05460C4135403FF900148E06F602367
:10721600900146E0900145F0900147E0900146F06C
:10722600900148E0900147F0A3EFF0D20F900142A1
:107236007428F0E54BD39460500302733E0534E5A1
:107246003470020533754B00052FE52F6464600327
:107256000272F690011EE094FF5003E004F0E5652B
:107266002401FFE43564FEE43563FDE435628F6591
:107276008E648D63F562752F0090010DE0D3940145
:107286004003E014F090014BE0D394014003E01476
:10729600F0900069E004F090013AE0D394004003D6
:1072A600E014F0301006900141E004F0300406903E
:1072B6000144E004F0900069E0B43C08E4F090007A
:1072C6007CE004F090007CE0B43C08E4F090008898
:1072D600E004F0900088E0B41808E4F0900087E03D
:1072E60004F0E5309001436005E004F08002E4F02C
:1072F600E54DF47003E54CF46008054DE54D70026C
:10730600054CE5A0F4549C6029E52DB4030DE5A0D9
:10731600F4549CF530C20BD20C8013E52DB4640EE8
:10732600E5A0F4549CF530D20BD20C752D50052DEA
:087336008006752D0075300082
:09733E00D0D0D082D083D0E0321F
:10ACF400E4F565F564F563F562900117F07F64127D
:0EAD0400AE2CC22012AFC1D2B47F0102AE2C21
:10947900E4FD7F8A12A6D1EF24DE601024D960149E
:10948900242870197BFF7A3F7983800E7BFF7A3F0E
:10949900798A80067BFF7A3F799202AE111294E5B0
:1094A9007A3F799912AAFC12AF63EF701B1294E507
:1094B9007A3F79AC12AAFC1294F7EF60EAE4FD7FD7
:1094C9008A12A6D1EFF460DF7F6312AE2C1294F7F3
:1094D900E412A1547A3F79C312AAFC22E4FD7F8ADF
:1094E90012A6D1900028E4F0A3EFF07BFF227F635E
:0B94F90012AE2CE4FD7F8A12A6D122E7
:10AD1200EFB4010553E8FE8011EF700743E80153D9
:0EAD2200E8FD22EFB4020643E80143E80222F6
:03001300020026C2
:03002600C2AA3239
:0300230002A7E948
:10A7E900C0E0C0D075D00830981EC298AF997435B2
:10A7F9002549F8EFF6744E2549F8A60F0549E549AC
:10A80900C394144003754900309904C299C20DD00C
:04A81900D0D0E03289
:0300630002A8846C
:10A88400C0E0C0D075D008E5AA30E01653AAFE7423
:10A8940025252EF8A69A052EE52EC39408400375A7
:10A8A4002E00E5AA30E10553AAFDC20ED0D0D0E0B7
:01A8B4003271
:0BAF6300E549B54A037F00227F012270
:08000300200DFD8F99D20D22A2
:08AFE500200EFD8F9AD20E220E
:03002B0002AEC062
:0FAEC000C0E0C2CF0532E53270020531D0E0327A
:10AE2C00E52F2FFFE433FE7C007D641241CEE52F2D
:07AE3C00B505FBE4B504F7C6
:01AE430022EC
:10A65900900025E4F0A3E52FF0E47B3CFAF9F8AF8C
:10A6690065AE64AD63AC6212437CAC00AD01AE0271
:10A67900AF03E47B64FAF9F81242F1900025EE8FFA
:0CA68900F0124259900025E0FEA3E0FF13
:01A6950022A2
:10ACB600C3ED9FEC9E5010C374709FFF74179EFEE9
:0FACC600EF2DFFEE3CFE22C3ED9FFFEC9EFE2222
:08A37D00900025EEF0A3EFF0C3
:10A38500900025E07002A3E06035E4900027F0A37B
:10A39500F0900027E0FEA3E0FFE4FCFD7BD8FAF98E
:10A3A500F8D312440E400C900027E475F0011242D8
:0FA3B5005980DE90002574FFF5F012425980C1E7
:01A3C4002276
:055AB500900018EFF065
:105ABA00ED4410FDEB4410FBEF64056012E0FF6457
:105ACA0020600CEF6421600790001BE04410F09006
:105ADA00001CE04410F0900018E01245395B5100B8
:105AEA005B53015B5C025B63035B69045B7A055B86
:105AFA007D065B86075B63085BA6095BA60A5B51AA
:105B0A000B5B8F0C5B970D5B630E5BB50F5BC31072
:105B1A005BCE115BC3125BCE135B69145BDC155B56
:105B2A0053165BE6175BEF185B53195BFC1A5BE6CF
:105B3A001B5B5C1C5C101D5B7A1E5B5C1F5C272078
:105B4A005C102100005C38801690001DEBF0A3ED7C
:105B5A00801412A11BA3ED802F12A140ED80189092
:105B6A00001DEDF0A3EBF090001BE090001F8025D4
:105B7A00025C1CED12A148F0A3EB802812A140EBB5
:105B8A00F0A3ED801F12A10EF0A3EB800812A11B57
:105B9A00A3EBF0A3EDF090001C025C0990001DED50
:105BAA00F012A124F090001B025C0990001CE0A3F3
:105BBA0012A112F0A3EB025C1612A140EDF09000C4
:105BCA001B025C3012A140EBF090001BE090001F1A
:105BDA00803A12A10EF090001C025C30EB12A10F69
:105BEA0012A1268027EB12A148F0A3EDF090001B2A
:105BFA00800D90001DEBF0ED12A125F090001BE046
:105C0A00900020F0802812A11B12A124F0A3EDF02D
:105C1A00801C12A11B12A14CF0A3ED800D12A11B36
:105C2A00A3EDF090001CE090001FF0A3EBF0E490CD
:105C3A000021F0900021E0FFC394145011744E2FFC
:105C4A00F8E4F674352FF8E4F6E004F080E5900104
:105C5A0012E06403700C900130E07006125CEB02F3
:105C6A005CE8E4900022F0125CEB12A65990002343
:105C7A00EEF0A3EFF012A659C3900024E09FFF9024
:105C8A000023E09EFE12AF57C3EF9428EE6480947F
:105C9A008040E2E4900021F0900021E0FFC39414D8
:105CAA005029744E2FF8E664417018E0FB7A0024FC
:105CBA000112A12FB4430CEB240212A12FB44B03FF
:105CCA007F0122900021E004F080CD7FC87E00127F
:105CDA00A37D900022E004F0E0C3940340897F0092
:105CEA0022900018E0FF3395E0FE903FD975F0034B
:105CFA00EF1244A8EE75F003A42583F5831244DD60
:105D0A0090001DE0900028F090001EE0900029F01D
:105D1A0090001FE090002AF0900020E090002BF005
:045D2A0012AAFC229B
:1091AD000D0A2B2B28436C6561724F5344496E6633
:1091BD006F293A20446973706C617965644F53442B
:1091CD003A2532780020000D0A5B4D53475D446906
:1091DD0073706C6179496E7075742829203D3E203D
:1091ED0053656C6563744D6F6465547970653D416D
:1091FD00564D6F646520746F207365742074696DAE
:10920D0065202620646973706C6179686F6C645F8A
:10921D00666C61673D2562780020202054573838F0
:10922D003036202020005465636877656C6C2C49BE
:03923D006E63005D
:0474D200410149002B
:0FAEDE0075F011A424BBF9746C35F0FA7BFF22D8
:0CAF3300900149E0FEEFF4FFEE5FF02219
:07B02500900149E04FF02209
:06B03300900149E0FF223C
:10A0B90012B03390001BEFF012B033900028E4F097
:10A0C900A3EFF07BFF7A9179AD12AAFC90001BE017
:10A0D900FF20E20330E70512AB4AC20690001BE0FD
:10A0E90030E00312AECF90001BE030E40312AE441F
:10A0F90090001BE030E10312A69690001BE030E6C9
:04A109000312AEFC93
:01A10D00222F
:1086370090001A74C2F012A0B97BFF7A7A79EE1211
:108647008E007DFF7FA07E0012AA007BFF7D327F18
:10865700A07E0012A8B5E4900019F0900019E0FF81
:10866700C394F050197E007BFF7A9179D290005421
:108677007401F012A851900019E004F080DD900118
:1086870049E04410F012B03FEF64016077900019A1
:108697007401F0900019E0FE75F011906CBA124465
:1086A700A8E4936F6008900019E004F080E5EE12EB
:1086B700AEDE12ADF6900018EFF0A3E012AEDE903A
:1086C7000018E0900054F07FA07E0012A8517FA30D
:1086D7007E0012AB70BF011990010AE07013900180
:1086E7000D7405F07BFF7A9179D4900028F012AAD7
:1086F700FC7D017F0212A4957F0112A97612A6596B
:048707008E7A8F7B5C
:01870B00224B
:10AE4400E4FF12A976E4FD7F0212A495900149E083
:06AE540054EFF07F012223
:1088A0007DFF1289557D82128955E4FB7DFF7F8A09
:1088B00012AB96900149E020E27C12A0B97F0A1227
:1088C000AE2C7BFF7A7B7970128E007D327FC87E62
:1088D0000012AA007B197D377FC87E0012A8B57BE5
:1088E000197D737FDD7E0012A8B512AE8E75F00380
:1088F000EF900AE61244A81244DDAE02AF019000E8
:1089000006EEF0A3EFF07BFF12ADF6900006E0FC60
:10891000A3E0AA04F97BFF900054EFF07FC87E002B
:1089200012A8517D017F0112A495E4FD7F0412A4D9
:10893000957F0112A976301A0590014E80039001AF
:108940004DE0FF12907A900149E04404F012A659DC
:048950008E7A8F7B11
:10895400227B017F8A12AB967F057E0012A37D22C3
:0FAECF00E4FD7F0212A495900149E054FEF022A9
:108FDE00E4900006F012B033900005EFF054967056
:108FEE0003029077E030E11512AFCA900001EEF067
:108FFE00A3EFF0A37407F0A374D0F08011900001DA
:10900E00E57AF0A3E57BF0A3E4F0A374C8F012A612
:10901E0059AD07AC06900001E0FEA3E0FF12ACB61E
:10902E00D3900004E09F900003E09E503C9000051A
:10903E00E05484600D12AB4A900006EFF0128637B2
:10904E00C206900005E030E11D12A696900006EFD4
:10905E00F07FA37E0012AB70BF010690010D74036A
:0B906E00F0128637C2067F01227F004F
:0190790022D4
:10AB4A00900149E030E20A7F0112AB6654FBF080C3
:10AB5A00087F0212AB66547FF07F0122E4FD12A443
:06AB6A0095900149E02274
:109C7400E4FFFE12AB70EF6454600280287F017E23
:109C84000012AB70EF64576002801A7F027E0012EC
:109C9400AB70EF64386002800C7F037E0012AB70FF
:109CA400EF64386004E4FEFF227F047E0012AB7090
:109CB400EF900002F0A3E4F07F05FE12AB70900079
:109CC40002E0FEA3E04FFF900002EEF0FEA3EFF0EF
:019CD400226D
:10A45100900002EEF0A3EFF07D54E4FFFE12A3C5DD
:10A461007D577F017E0012A3C57D387F027E0012D9
:10A47100A3C57D387F037E0012A3C5900002E0FDD5
:10A481007F047E0012A3C5900002A3E0FD7F057E3C
:04A491000002A3C55D
:08AFED007F067E0012AB70220A
:09AF7900AD077F067E0002A3C5AE
:08AFF5007F097E0012AB7022FF
:09AF8200AD077F097E0002A3C5A2
:07AFFD007F0A7E0012AB7019
:01B004002229
:10950400E4900003F0900002F0900002E075F01186
:10951400906D0F1244A8E493124539953B0095478A
:1095240001955002955903956204956B059574064F
:10953400957D0700009584900003E0FD7F0A7E007E
:1095440002A3C5900003E04401F08034900003E0DE
:109554004402F0802B900003E04404F08022900049
:1095640003E04408F08019900003E04410F08010F8
:10957400900003E04420F08007900003E04440F0B2
:08958400900002E004F0808178
:07B005007F0D7E0012AB700D
:01B00C002221
:09AF8B00AD077F0D7E0002A3C595
:0AAF6E00EF2412FFE433FE12AB7073
:01AF780022B6
:09AF9400EF2412FF7E0002A3C5A8
:09AF9D00AD077F0F7E0002A3C581
:07B00D007F0C7E0012AB7006
:01B014002219
:09AFA600AD077F0C7E0002A3C57B
:08B015007F387E0012AB7022AF
:09AFAF00AD077F387E0002A3C546
:08B01D007F377E0012AB7022A8
:09AFB800AD077F377E0002A3C53E
:10AAD500E4FD7FADFE12A3C5E4900119F0FD7F08EA
:10AAE500FE12A3C5E4FD7F0EFE12A3C51263B212CA
:07AAF5009BAB7F0102810A07
:10AD30009291D290120012C290221244B48E827567
:0EAD4000830012417DFF22EFF0A3EDF0A3226D
:0BA3C500900028EEF0A3EFF0A3EDF0F5
:10A3D000900028E0FEA3E07807CEC313CE13D8F98F
:10A3E00044A054FE90002BF012AE5A90002BE0FFD8
:10A3F000129A73900028A3E0FF129A7390002AE04B
:0CA40000FF129A731200167F0202AE2CAD
:04AB7000AD07AC067B
:10AB7400ED7807CEC313CE13D8F944A054FEFF12C8
:10AB8400A6D1900033EFF07F0212AE2C900033E098
:01AB9400FFC1
:01AB9500229D
:08A6D100900034EFF0A3EDF05E
:10A6D90012AE5A900034E0FF129A73900035E0FFF1
:10A6E900129A7312AE5A900034E04401FF129A7321
:10A6F90012A8E6900036EFF0120016900036E0FF3F
:01A70900222D
:10AB960090005512AD47EBF012AE5A900055E0FF0B
:10ABA600129A73900056E0FF129A73900057E0FFD6
:06ABB600129A7302001662
:08A61B0090003412AD47EBF092
:10A6230012AE5A900034E0FF129A73900035E0FFA7
:10A63300129A73E4900038F0900037E0FFA3E0C370
:10A643009F5010900036E0FF129A73900038E00498
:06A65300F080E502001694
:09A51B0090005512AD471244D422
:10A5240012AE5A900055E0FF129A73900056E0FF65
:10A53400129A73E490005BF090005AE0FFA3E0FEEF
:10A54400C39F501190005712AD3A129A7390005B5A
:08A55400E004F080E3020016B0
:09A70A00900020EFF0A31244D4EA
:10A7130012AE5A900020E0FF129A73E4900025F0E5
:10A72300900024E0FFA3E0FEC39F5011900021128C
:10A73300AD3A129A73900025E004F080E30200160C
:0100120022CB
:10AE5A00D291120012D290120012C291120012C2A2
:02AE6A00902234
:0D001600C291120012D290120012D291225B
:109A7300C290EF30E703D38001C312AD30EF30E67D
:109A830003D38001C312AD30EF30E503D38001C3AC
:109A930012AD30EF30E403D38001C312AD30EF30A9
:109AA300E303D38001C312AD30EF30E203D380016F
:109AB300C312AD30EF30E103D38001C312AD30EFF9
:109AC30030E003D38001C312AD30C290C290D29173
:099AD300D290D290D290C29022F0
:10A8E600E4FFD291120012C290FDFCD290EF25E057
:10A8F600FF3091034401FFC2900DBD00010CED64D1
:0FA90600084C70E7120012D290D290D290C290FB
:01A91500221F
:10691B000D0A504F574552206B657920000A0D62C6
:10692B00757377203020312037452038300D0A0021
:10693B000A0D6275737720302031203745203831AE
:10694B000D0A000A0D627573772030203120374510
:10695B002038320D0A000A0D627573772030203112
:10696B002037452038330D0A000A0D6275737720E6
:10697B003020312037452038340D0A000A0D62755E
:10698B007377203020312037452038350D0A000A27
:10699B000D62757377203020312037452038360D46
:1069AB000A000A0D6275737720302031203745209D
:1069BB0038370D0A000A0D627573772030203120AD
:1069CB0037452038380D0A000A0D62757377203071
:1069DB0020312037452038390D0A000A0D627573B6
:1069EB0077203020312037452038410D0A000A0D21
:1069FB0062757377203020312037452038420D0ADD
:106A0B00000A0D627573772030203120374520380E
:106A1B00430D0A000A0D6275737720302031203741
:106A2B00452038440D0A000A0D627573772030201B
:106A3B00312037452038450D0A000A0D62757377F2
:106A4B00203020312037452038460D0A000D0A4DE5
:106A5B00454E554B4559206B657920000D4F5344DE
:106A6B005F4C4F434B000D0A4556454E544B455911
:106A7B00206B65792070726573736564000D0A5B1A
:106A8B004D53475D436865636B4B6579496E2829A8
:106A9B003D3E20497352756E32383335436C6B541F
:0A6AAB00756E653D2562780020201D
:1074D6004101380041013E0041013B0041013900B4
:1074E6004101370041013C0041013F0041013600A6
:0B74F60041013D00C115017000C117ED
:10AE6C00E5A0F454906490227C007D0AAE0202416D
:01AE7C00CE07
:0EAF0B0012B033EF30E10302002E12A81D2217
:0DAF190012B033EF30E1057F0112676922AD
:0DAF260012B033EF30E1057F02126769229F
:10ADC00012B033EF30E10B301F057F010275F8023E
:0BADD0006DA87F01127B831288A02277
:10ADDB0012B033EF30E10B301F057F020275F80222
:0BADEB00002E7FFF127B831288A02245
:10848400900004EFF0A3EDF012AF3F900004E0126F
:108494004539850800850801850802850803850893
:1084A40004850805850806850807850808850809E0
:1084B40084D90C852E1085331185191585461685AA
:1084C4000F2085142184ED3884F63A85543E85388E
:1084D4003F0000855B74FF90011BF0A3F090000542
:1084E400E060037F01227F002212ACD5128AC37F91
:1084F400012212B033EF30E40512AE448003128639
:10850400377F0122900005E07F012212AF198047D6
:1085140012AF268042900005E060037F012212B072
:1085240033EF30E132126DA8802D12ADC0802812D5
:10853400ADDB8023900005E060037F012212AF0BC6
:10854400801512B033EF30E10E7FF412855E8007A0
:0A8554007D017FC0122DE07F01229F
:104599009000017401F0301726201523C3E56595B5
:1045A90074FFE5649573FEE5639572FDE5629571A7
:1045B900FCE47B0AFAF9F8D312440E5002C2177FC1
:1045C90001129F5C900002EFF07003024994900180
:1045D9003DE0900003F012AE6C7057E070547FD04C
:1045E9007E0712A37D12AE6C600890013EE0640361
:1045F90070407D017FAC7E0012A3C5900003740159
:10460900F090013DF0FF128028E4900002F07FD085
:104619007E0712A37D900130E030E505127C808091
:104629000F12AEFCE490013AF090013EF012863789
:10463900C206900130E0600C900002E06410600452
:10464900E402484D90013AE07013900003E0700DC8
:1046590090013EE06007E4F07F0112AD1290000284
:10466900E0601BA3E0701712AE6C6012900130E09D
:10467900700C12A0B9E41249BDC2067F012212AF23
:104689003F900002E0124539491C0246B00447B484
:104699000849670C487410480A2048274048568042
:1046A900492490000049947BFF7A69791B12AAFC7E
:1046B900201503024786E570C3940F4005E4F570A1
:1046C90080020570E570124539470B01471302470F
:1046D9001B03472304472B05473306473B0747433B
:1046E90008474B0947530A475B0B47630C476B0D58
:1046F90047730E477B0F000047037BFF7A697928D0
:1047090080767BFF7A69793B806E7BFF7A69794E87
:1047190080667BFF7A697961805E7BFF7A6979744B
:1047290080567BFF7A697987804E7BFF7A69799A0F
:1047390080467BFF7A6979AD803E7BFF7A6979C0D3
:1047490080367BFF7A6979D3802E7BFF7A6979E697
:1047590080267BFF7A6979F9801E7BFF7A6A790C5A
:1047690080167BFF7A6A791F800E7BFF7A6A79321D
:1047790080067BFF7A6A794512AE11803A201123AF
:10478900900130E06003024994FD7F0C128484900B
:104799000001EFF0E4900109F0FD7FABFE12A3C523
:1047A900024994C2111286370249947BFF7A6A79C9
:1047B9005812AAFC30150AAF707E001298200249DF
:1047C90094201138900003E0700D1249BD7BFF7AE7
:1047D9006A7967E402495E12B033EF30E10B301FAA
:1047E900028010126DA802499412B033EF30E2032F
:1047F9000249947F3F1249B3F00249947F09024963
:104809001420111512B033EF30E1077F01301F2357
:10481900801B7F101249B3802B7F06024914201197
:104829002712B033EF30E1117F02301F061275F8FD
:10483900024994126769024994E4FD7F1112848444
:10484900900001EFF07F01227F0702491420111621
:1048590090010AE0700A12B033EF30E10312A69614
:104869001292D00249947F05024914900130E0FF69
:104879006009900119E07003024994EF60469001C4
:104889003CE07040900119E0640170387FACFE1281
:10489900AB70EF64016003024994900130E030E5A8
:1048A9000312AEFC90013C7401F0900136E07008EF
:1048B90090012EE090013FF09001367401F09001D3
:1048C9002EF0803F20114290013CE06017E49001F6
:1048D90030F09001327407F0E490013CF090012E21
:1048E900F002499490010AE0700A12B033EF30E106
:1048F9000312A69690012EE0700404F08005E4905E
:10490900012EF0129EA80249947F041261A6D216C4
:104919000249947BFF7A6A7971803E90014DE06487
:10492900147068301765301514C2157F0112AD1265
:104939007D027FA07E0012AA00C217800ED2157FC9
:104949000212AD12AF707E001298207BFF7A6A794D
:1049590088A215E433900028F012AAFC802D90015A
:104969004DE0641770257F0212AD127F647E00123C
:10497900A37D12499A12499A7F0112AD12D2178565
:104989006574856473856372856271900001E0FFC7
:10499900227F0112AD127F647E0012A37D7F021275
:1049A900AD127F647E0012A37D22E4FD12848490FF
:1049B9000001EF22FF1280287FF412AE2C12AEFC08
:0449C90012863722F9
:109F5C00A20C9220C20C300F3AE5307036D2209011
:109F6C000145E0FEB40313A3E0B4020EA3E0700AB3
:109F7C00A3E0B401057530408017EEB403139001D3
:109F8C0046E0B4010CA3E07008A3E0B40203753002
:109F9C0020C20F2020037F0022EF6003AF3022206D
:079FAC000B03AF30227F0020
:019FB300228B
:08982000900004EEF0A3EFF04C
:1098280078067C007D017BFF7A6A79B37E007F022F
:1098380012413E900004E0FAA3E0FBFF12AE74ED83
:109848002430900007F0AF0312AE74900004EEF0DD
:10985800A3EFF02430A3F07BFF7A7B7926128E00E9
:109868007F1012B0257D027FA07E0012AA007B0225
:109878007D377FA07E0012A8B57B017A007906901B
:1098880000547402F07FA07E0012A8517D017F026F
:0898980012A4957F0102A976DC
:106C34000D0A43485F5457323833352825303278AB
:106C4400292C526561644465636F646572283078E9
:106C54003636293D256278000D0A2043485F4156A7
:106C64002825303278290020200A0D000A0D62758B
:106C7400737720302031203745203839000A0D62DF
:106C8400757377203020312041312031310A0D00D5
:106C94000A0D627573772030203120413220443749
:106CA4000A0D000A0D6275737720302031203745B4
:106CB4002038390D0A00FE0000000000000000002A
:106CC4000000000000000001435642530000000091
:106CD40000000000000000000243414D2044000079
:106CE40000000000000000000003415620200000C6
:106CF4000000000000000000000000000000000090
:106D04000000000000000000000000FE0000000081
:106D1400000000000000000000000000014E545379
:106D24004300000000000000000000000002504189
:106D34004C000000000000000000000000000353AD
:106D44004543414D00000000000000000000000524
:106D540050414C4D00000000000000000000000005
:106D64000650414C4E0000000000000000000000EE
:106D7400000750414C3630000000000000000000C5
:106D84000000044E545343342E34330000000000FA
:106D940000000000000000000000000000000000EF
:046DA40000000000EB
:10750100C10AC104C10241011000011D00011F0097
:10751100011300011100011200011E0001150001FB
:107521001400011A00410115004101070041010C3D
:10753100004101130041010F00C10041011400C1CC
:0975410005C101C183C106C109A5
:10AA8500EF75F011A424BAF582E4346CF583E493F0
:10AA95002290000102417DE4FB7DFF7F8A22E4F5DF
:08AAA5001BF51CF519F5182240
:06A1FD0090001E1244D484
:10A20300E4FE124164900021F012AA968029900086
:10A213001E1244B4124164FFB4FF0612AA96F460FE
:10A2230022900022EFF0FD12AA96900023F0FB90FB
:10A233000021E0FF12AB9690001FE475F00212427A
:09A243005980CB12AA9C02AB96D3
:10971D0090001DEFF07BFF7A58791512A1FD12AA6A
:10972D009C12AB9690001DE024FE60131460102473
:10973D00FD600C240624F85011240A600D80117B65
:10974D00FF7A59796512A1FD800690001D7401F014
:10975D00900112E0B4051390011FE07002800B9090
:10976D00001DE014FF12AD6B800312AC967B157DCE
:10977D00297F8A12AB967B067D5C7F8A12AB967F22
:10978D000B7E0012AB70127E5D12AFF512810AC214
:02979D00222286
:10AE7D007D017F8A12A6D1EF30E7037F01227F008B
:01AE8D0022A2
:1087DB00E490001AF0A3F0900112E0B405099001A7
:1087EB001FE0600302888EE4900018F012A06390E3
:1087FB000019EFF090001BE004F0E0C3940A400373
:10880B0002888E900019E0FF64FE60E090010BE09F
:10881B00FEEF6E60D7900018E0FFA3E0FEB50706F1
:10882B00A3E004F0800AE490001AF0900018EEF038
:10883B0090001AE0C3940240B3900019E0FF700B54
:10884B0012A74390001C7401F0803090010BE07074
:10885B001190010AE0700630060312AEFC12888FED
:10886B00801490010AE0700630060312AEFC1288E9
:10887B008F7F3212AE2CE490001CF090001CE02491
:03888B00FF920950
:10888E0022900019E0FF12A743900019E0FF129703
:02889E001D2299
:10AC730012AE7DEF60037F01227D1C7F8A12A6D175
:10AC8300EF54F0FF30E7037F0122EF5470C4540FF9
:02AC930004FFBC
:01AC9500229C
:109F030012AC73AB07EB24FE601914601624FD60DA
:109F130012240224FC500424077017751B00751CBF
:109F23003C8006751B00751C32E475196B75183D72
:109F3300800312AAA3F517F516E4FFEF75F011A439
:109F4300240FF582E4346DF583E493FEB503012217
:089F5300EE60030F80E57F00C2
:019F5B0022E3
:06B0390090010BE0FF2274
:10A7430090010BEFF024FE601914601624FD6012D3
:10A75300240224FC500424077017751B00751C3C4D
:10A763008006751B00751C32E475196B75183D80E6
:09A773000312AAA3F517F5162242
:06B03F00900112E0FF2267
:10ACD5007F0112AA85FE900112E0FDEE6D60030F63
:0EACE50080F00F12AA8570027F0112AA85FF6F
:01ACF300223E
:09AFC100302003D2B722C2B722EE
:108AC300900112E06F7003028B6143E8049001127E
:108AD300EFF090010BE0FF12971D900112E024FDCF
:108AE30060202402703A12AC07128B62C2957D6635
:108AF3007F8A12A6D190002AEFF07BFF7A6C79343B
:108B0300800E12AC2B128B62D2957BFF7A6C795C50
:108B1300900112E0FF900028E4F0A3EFF012AAFC0A
:108B2300129FB4900112E0FF12AF9D7F1E12AE2C74
:108B33001287DB128637900135E0B4010553E8FB59
:108B43008005E4FF1291157F6412AE2C7BFF7DD06C
:108B53007F8A12AB967BFF7DD17F8A12AB9622C2AE
:098B63001AE4FF127B83C2942284
:0FAEED00C22012AFDC43E804C2B5E4FF02AD128D
:0CAF3F0012A65990011BEEF0A3EFF022C7
:09AFCA0090011BE0FEA3E0FF2250
:1081EB00C374FF9FFFC39400400CEF94645007E4EB
:1081FB00900002F0804BEFC39464400DEF948C50D1
:10820B00089000027414F08038EFC3948C400DEF8B
:10821B0094B450089000027428F08025EFC394B4F6
:10822B00400DEF94DC5008900002743CF08012EF8C
:10823B00C394DC400CEFD394FF5006900002744BB8
:10824B00F0900139E0702C900110E0C3940F5005B1
:10825B00E004F08024900002E0FFE51DD39F400472
:10826B00151D8008E51DC39F5002051DE4900110EC
:10827B00F08006900002E0F51D7DFF7F8A12A6D1EB
:10828B00900001EFF012AA9C12AB967DBE7F8A1272
:10829B00A6D1EF54CF4410FB7DBE7F8A12AB967DE7
:1082AB00C47F8A12A6D1EF5480451DFB7DC47F8A03
:0F82BB0012AB96900001E0FB7DFF7F8A02AB962D
:10AEB000E4900134F090011EF09001327408F02209
:107840007FAB7E0012AB70900109EFF07FB07E003D
:1078500012AB7090010AEFF07FAC7E0012AB70901B
:10786000013DEFF07FA37E0012AB70900137EFF087
:107870007FAA7E0012AB7090012AEFF07FAD7E00F0
:1078800012AB70900119EFF07FA07E0012AB7090E8
:107890000139EFF07FB87E0012AB70900116EFF067
:1078A0007FB77E0012AB70900111EFF07FB97E00C0
:1078B00012AB70900108EFF07FBF7E0012AB70EF4B
:1078C00024FF92087FC57E0012AB70900118EFF084
:1078D0007FAF7E0012AB7090012EEFF07FA5127982
:1078E00055EE90012B7006E04401F08004E0540E48
:1078F000F07FA6127955EE90012C7006E04401F05D
:107900008004E0540EF07FA77E0012AB70AE07EE4D
:1079100090012D7006E04401F08004E0540EF07FE9
:10792000A87E0012AB70AE07EF90012F7006E04406
:1079300001F08004E0540EF012B01590014DEFF00C
:1079400012B01D90014EEFF07FB27E0012AB70902E
:04795000010EEFF045
:09795400227E0012AB70AE072286
:106AB5007BFF7A6C796B12AE1190010AE070491276
:106AC500B033EF20E14230092920063CD206E4909C
:106AD500010DF07FA3FE12AB70EF7009900149E044
:106AE50054EFF0800690010D7403F07F06128028A4
:106AF500801630061312B033EF20E60CC2067FA3D2
:106B05007E0012AB70128637125161900000EFF0D3
:106B1500125D2E900130E0701B900134E0601590FD
:106B2500012AE0FF90011EE0C39F400812ABE2E49A
:106B350090011EF0900139E0700E7DC97F8A12A682
:106B4500D1900000EFF080027FFF1281EB12459992
:106B5500EF7003026C3390010DE06401706F12B0A9
:106B650033EF20E16812B033EF20E261900137E0A6
:106B7500605B900130E0705090010AE0700FFD7F7E
:106B85000212A495900149E054EFF0803B90012B4F
:106B9500E0540DF090012CE0540DF090012DE054DF
:106BA5000DF090012FE0540DF0129C1190012BE097
:106BB5004402F090012CE04402F090012DE04402E3
:106BC500F090012FE04402F0E490010DF0128FDE09
:106BD50012B03FEF1424FD5002800A12B033EF20AB
:106BE500E1031287DB90014BE0B4010553E8FBE4B8
:106BF500F090014BE0B4020343E8087DB27F8A12AE
:106C0500A6D1EF6003026ABE7BB07DFD7F8A12AB21
:106C150096E4FF12AD127FF47E0112A37D7F01126F
:0E6C2500AD127B307DFD7F8A12AB96026ABEF7
:016C3300223E
:109CD500C2B5C22012AFDC7F0A7E0012A37DC2B4DA
:109CE50012A1AE7F0112AD1212ACF412AEB01294F5
:109CF5007912795D7F0A7E0012A37D12784090016A
:109D05002EE090013FF07FA97E0012AB7012A29960
:109D1500E4900130F07BFF7A6C797012AE117F030D
:109D2500129115900109E06003126AB5127D7380E6
:019D3500F23B
:107D7300E4900001F0125161900000EFF0601BE00D
:107D8300FF125D2E900132E0B40803D38001C3409B
:107D9300197F01129115D220800D900000E0FF128F
:107DA3005D2E12AEEDC22012AFDCE4FF129F5CEF3A
:107DB3006018B40415125161EF700F90010904F0BB
:107DC300FD7FAB7E0012A3C5805D90014BE0640292
:107DD30070A312002A43E8087F107E0012A37DD20D
:107DE300B57B09127E557F0412AE2C7B0B127E5598
:107DF3007F0A12AE2C1200297B0F7DD57F8A12AB2E
:107E0300967F0512AE2C7BFF7A6C798112AE117FBF
:107E1300647E0012A37D7BFF7A6C799412AE11E429
:107E230090014BF0027D78128637129C117FA37E5E
:107E33000012AB70BF010690010D7403F0C2067F00
:107E430001129115D22012AFDC7BFF7A6C79A70265
:027E5300AE116E
:087E55007DD57F8A12AB962255
:107A7700A10AA20AA000A310A410A591A601A7011C
:107A8700A822A910AA00AB62119E00000100CC0C2D
:107A970002700000005000000F4000119E303100BE
:107AA700AFC81202F1100800500030004000119ECC
:107AB7003100029000040170000000A0F5000F40A3
:107AC70000119E3100029000030170000000F0F5E4
:107AD700000F4000119E3230000C0D0A01B1040462
:107AE7000050C800044000119E313000160D0F02EF
:107AF7003101000050A0000840119E3330100C984F
:107B070028013101000000B400084000119E313007
:107B1700000C020F023101000050A00008400011C4
:107B27009E3130000A0502013101000050A0000813
:107B37004000119E32300040090204B1000890E075
:107B470000043340119E3130008A091808B08A05B5
:107B5700B05026083340119E30B40040270201F18F
:107B6700000000E0000033C100119E303C1090601F
:0C7B77001502F102044050C80033C100A8
:10958C00900051FFE475F0011244BDEF0241AA9026
:10959C00004FE0FEA3E0FF22EF14FB7D9E7F8A22AA
:1095AC0090001B1244B490001EE0F58275830002FB
:1095BC00417DE0A4FFA3E5F0F0A3EFF07DA07F8A4E
:1095CC002290005BE0FCA3E0FD22EEF0A3EFF0A301
:1095DC00221241CE900059EEF0A3EFF04E22A3E000
:1095EC00FB7D967F8A221241CE90004FECF0A3EDCA
:1095FC00F022F07B047D947F8A22EDF0EFC394017E
:08960C0022E4FB7D947F8A2219
:10A9D30012A9F5900028F0E4A3F012A9F5FF900066
:10A9E30028E06F700C900029E004F0E0C3940A4063
:01A9F300E97A
:0CA9F400227D957F8A12A6D1EF544022EC
:109DF200E490000DF0E490000CF090000CE0FFC342
:109E02009408502FA3E075F008A4FEEF2E7D9C125B
:109E12009E42FFA3E075F0089018EE1244A8E58276
:109E22002FF582E43583F583E4937D9D129E4204EF
:0F9E3200F080C790000DE004F0E0C3940240B64A
:0C9E410022FB7F8A12AB9690000CE022FE
:109D3600900003EFF0A31244D4129D8444017D9455
:109D4600129D8D900003E07D99129D8D7DE07F8AA6
:109D560012A6D1EF4410FB7DE07F8A12AB969000ED
:109D6600041244B490005A741BF07D9A7F8A12A59F
:109D76001B129D8454FEFB7D947F8A02AB967D94D4
:0E9D86007F8A12A6D1EF22FB7F8A12AB9622B3
:10A77C007B607D9B7F8A12AB96E4900002F0900088
:10A78C0002E0FFC394E2501FEF94C6501AEF75F02D
:10A79C001BA424FEF9741835F0FA7BFF129D369039
:07A7AC000002E004F080D779
:01A7B3002283
:03A59D0090001417
:10A5A0001296064036EFD3940850301295A412ABA1
:10A5B0009690001475F0081295BE12A6D1EF54F0D3
:10A5C000FD900015E04DFB7DA07F8A12AB969000B8
:0BA5D00015A3E0FB7DA17F8A12AB9673
:01A5DB00225D
:03A4D900900014DC
:10A4DC001296064039EFD3940850331295A412AB60
:10A4EC009690001475F0041295BE12A6D1EF540F7D
:10A4FC00FD900015E0C454F04DFB7DA07F8A12AB9B
:0EA50C0096900015A3E0FB7DA27F8A12AB960D
:01A51A00221E
:05A9760090001DEFF050
:10A97B0012A9D37D9C7F8A12A6D190001EEFF09076
:10A98B00001DE06006A3E054EF800690001EE0443B
:09A99B0010FB7D9C7F8A12AB9633
:01A9A4002290
:03A4950090001D17
:10A49800129606403BEFD3940850351295A412ABA0
:10A4A800967D9F7F8A12A6D190001EEFF090001D26
:10A4B800E06007A3E04401F0800790001EE054FE2E
:10A4C800F012A9D390001EE0FB7D9F7F8A12AB9605
:01A4D8002261
:10A33200EFC394014006EFD394084004E4FEFF22E9
:10A342001295A412AB967DA07F8A12A6D1EF540F6C
:10A35200900028F0A3E4F07DA17F8A12A6D190009C
:10A3620028E0F0A3E04FF0900028E0FEA3E078039D
:0AA37200CEC313CE13D8F9FF7E000E
:01A37C0022BE
:10A00C00EFC394014006EFD394084004E4FEFF2212
:10A01C001295A412AB967DA07F8A12A6D1EF54F0B4
:10A02C00C4F8540FC868FEE4C454F048900028F0FB
:10A03C00A3CEF07DA27F8A12A6D1900028E0F0A3D7
:10A04C00E04FF0900028E0FEA3E07802CEC313CEE0
:06A05C0013D8F9FF7E009D
:01A0620022DB
:10A8510090004F1295D61244D41295FF12AB9690E8
:10A86100004F1295EA12AB969000511244B4900039
:10A8710054E090005AF07D977F8A12A51B12960D25
:03A8810002AB9691
:10A8B5009000301295D6EDF0A3EB1295FE12AB96F3
:10A8C5009000301295EA12AB96900032E0FBA3E0BF
:10A8D500900037F07D987F8A12A61B12960D02AB69
:01A8E50096DC
:10AA00009000301295D6ED1295FE12AB9690003064
:10AA10001295EA12AB96900032E0900037F07B205E
:0DAA20007D977F8A12A61B12960D02AB9641
:09771F0090004F1295D61244D4DB
:107728009000561244D4E4900055F0900054E06460
:107738000A707990005B7427F0A37410F01295CD4D
:10774800C3940AEC9400405612959B1295DD601282
:10775800900059A3E0243012958C900055E004F075
:107768008015900055E0600F900051E475F001120B
:1077780044BD74301241AA12959B90005BE0FAA3B5
:10778800E0FBFDAC021295F27D0A7C00AF03AE026D
:107798001241CE90005BEEF0A3EFF0027745900027
:1077A8004FA3E02430A312958F027833900054E061
:1077B8006410600302783D90005B7410F0A3E4F05D
:1077C8001295CDC39410EC9400404412959B1295E9
:1077D800DD6028900059E0FEA3E0FFC3940AEE9410
:1077E800004005EF24378007900059A3E0243012A9
:1077F800958C12959B1295CD1295F290005BE0C482
:10780800F854F0C868F0A3E0C4540F48F080B112EF
:10781800959BC3940AEE94004005EF2437800790A7
:10782800004FA3E02430FFA312959090005112441A
:07783800B4E41241AA7F0134
:01783F002226
:06ADF60090004F1244D44E
:10ADFC00E4FF90004FE475F0011244BD1241646011
:04AE0C00030F80EEC2
:01AE1000221F
:068E000090001B1244D497
:108E06007DFF7F8A12A6D190001FEFF054FEFB7DF6
:108E1600FF7F8A12AB967DE07F8A12A6D1EF54EFD0
:108E2600128E8FE490001EF01295ACFF6042900007
:108E36001EE02401FDE433FC90001B1244B4E92D2E
:108E4600F9EA3CFAEF128E9890001EE02401FFE446
:108E560033FE90001B1244B4E92FF9EA3EFA74057A
:108E6600128E981295AC04FF90001EE02FF080B889
:108E76007DE07F8A12A6D1EF4410128E8F90001FDC
:098E8600E0FB7DFF7F8A02AB9640
:108E8F00FB7DE07F8A12AB9622900024F07F8A123E
:038E9F00A70A22FD
:100066000A0D6D6F646520300A0D000D0A5B4D5355
:10007600475D536574345769646553637265656E8D
:100086002829203D3E2053637265656E20746F20DB
:10009600343A33202121000A0D6D6F646520320A3F
:1000A6000D000D0A2B2B284F5344486967684D6590
:1000B6006E755F73756229204F53444D656E754C9E
:1000C6006576656C3A2564000D0A52455345545FC2
:1000D6004D6F6E69746F7256414C5545000A0D7925
:1000E600766D697820340A0D000A0D79766D697887
:1000F60020300A0D000A0D79766D697820310A0DD7
:10010600000A0D79766D697820320A0D000A0D799C
:10011600766D697820330A0D00436865636B205657
:100126004741204361626C65004F7574204F66201D
:1001360052616E676500FE62596B62714C2F713AAF
:1001460034FF001213566F6C756D65002020204138
:1001560075746F2041646A757374696E67202E2EFC
:100166002E2E20202000436F6D706F73697465001A
:1001760056657273696F6E004C4344205665727300
:10018600696F6E004456522056657273696F6E0031
:10019600574946492049500057494649204D414351
:1001A6000047415445574159004F534420506F73FF
:1001B6006974696F6E004F534420506F73696369A9
:1001C6005F6E004F534420FE5465714667FF004C36
:1001D600616E6775616765004C616E677565005392
:1001E600707261636865004964696F6D6100FE57EE
:1001F60056714667FF004272696768746E6573736D
:10020600004C756D696E6F7369745F0048656C6C40
:1002160069676B656974004272696C6C6F00FE40B9
:1002260024715F60FF00436F6E74726173740043E4
:100236006F6E747261737465004B6F6E7472617366
:100246007400436F6E74726173746500FE394F718A
:100256005F60FF0053617475726174696F6E00535D
:10026600AA74746967756E67005361747572616309
:10027600695F6E00FE4A2C33715F60FF004875654A
:1002860000546F6E616C69745C0046617262650051
:10029600546F6E616C6964616400FE4A5448715F14
:1002A60060FF0053686172706E6573730041637519
:1002B60069745C00536368AA726665004167756479
:1002C600657A6100FE463933715F60FF00526573DF
:1002D600657400445C66617574004772756E64658A
:1002E600696E7374656C75670050726564657465D4
:1002F600726D696E6163695F6E00FE66246DFF0054
:10030600576964652053637265656E0057494445B5
:1003160020FE6D3B714667FF004D6972726F720079
:100326004A756D70005345512054696D65205374AC
:100336006570004A756D702041560043616D204F0F
:1003460075740052657475726E00526563616C6CEB
:10035600004D6F6E69746F7220526563616C6C003C
:1003660044565220526563616C6C0045786974008E
:1003760020007665722041302E31350054696D6556
:100386004F757420536574757000476175676520F5
:1003960053657475700047617567652052656361C2
:1003A6006C6C005052494F5249545900526576655B
:1003B6007273204D6F6465005265736F6C75746956
:1003C6006F6E00465053005175616C697479005226
:1003D60065636F7264204D6F6465005265636F726A
:1003E60064204C656E677468005072652D616C619F
:1003F600726D00506F73742D7265636F7264004185
:1004060070706C79005265636F72645374617274B4
:10041600005265636F726453746F7000536E61703F
:1004260073686F7400446174652054696D65005982
:10043600656172004D6F6E74680044617900486FA3
:100446007572004D696E00536563004461796C698D
:10045600676874536176696E6700426567696E65A1
:1004660000456E64005765656B0054696D65005400
:10047600696D65205A6F6E650052657475726E26D9
:100486004170706C7900466F726D61742053442020
:100496004361726400417564696F205265636F72CF
:1004A60064004669726D7761726520557064617487
:1004B6006500596573004E6F004669727374204E6D
:1004C600756D626572005365636F6E64204E756D5F
:1004D600626572005468697264204E756D62657259
:1004E60000466F75727468204E756D6265720043C2
:1004F60068616E67652050617373776F7264004F31
:1005060076657257726974650044697220496D6137
:1005160067650054726967676572205647410054E3
:100526007269676765722044656C617900496E6619
:100536006F726D6174696F6E0055706461746520C9
:10054600436F6E66696700534420636F7665722059
:100556004465742E0043414D20410043414D2042E5
:100566000043414D20430043414D205200446973EE
:10057600706C61790044565220446973706C6179DD
:100586000044697374616E63652047617567650031
:100596004F5344204C6F636B0050617373776F72D7
:1005A6006400536F75726365205469746C6500430B
:1005B600564253204100435642532042004356427E
:1005C60053204300435642532052004175746F2016
:1005D600446179264E696768740044697220496DE2
:1005E6006167650044697220496D61676520410055
:1005F60044697220496D6167652042004469722032
:10060600496D6167652043005265617220536574C8
:1006160075700043414D20410043414D2052004337
:10062600414D20420043414D20430043414D20446B
:10063600000200456E676C697368004672616E7BE6
:10064600616973004465757473636800457370610E
:100656007E6F6C00FE6A2356FF200004014D6F6416
:100666006531004D6F646532004D6F64653300552A
:10067600736572004D6F646531004D6F64653200BD
:100686004D6F64653300557361676572004D6F6425
:10069600757331004D6F64757332004D6F647573F9
:1006A600330042656E75747A6572004D6F646F3102
:1006B600004D6F646F32004D6F646F330055737574
:1006C6006172696F00FE3A34FF3100FE3A34FF3240
:1006D60000FE3A34FF3300FE47515B71FF200008ED
:1006E600004175746F004E5453430050414C005303
:1006F6004543414D004E545343342E34330050414C
:100706004C4D0050414C4E0050414C3630000500D7
:100716004E6F726D616C00576964650050616E6F53
:1007260072616D610046756C6C000500FE1A1BFF58
:100736002000FE1C1DFF2000FE1E1DFF2000FE1FC8
:1007460020FF2000FE1F21FF200009004F666600E3
:1007560043433100434332004343330043433400B1
:1007660054310054320054330054340002004F4ECA
:10077600004F46460002004D4952524F52004E4F1E
:10078600524D414C000300446179004155544F00DD
:100796004E6967687400020031363A3900343A33DC
:1007A600000200004F4E004F464600040053494EDB
:1007B600474C45004455414C00545249504C450065
:1007C600412B422C422B410007004100412B4200A5
:1007D600412B4300412B5200412B424300412B4207
:1007E6005200412B43520007004200422B41004277
:1007F6002B4300422B5200422B414300422B4152D5
:1008060000422B43520007004300432B4100432B79
:100816004200432B5200432B414200432B415200DE
:10082600432B4252000A005200522B4100522B42E7
:1008360000522B4300522F414200522F4143005297
:100846002F424300522B414200522B414300522B70
:100856004243000E00515541440053455100412B7F
:100866004200432B5200412B5200522B4200412B97
:100876004300432B4200522F414200522B4142007B
:1008860041004200430052000500515541440043D7
:10089600414D410043414D420043414D43004341D8
:1008A6004D5200020000373230783438300033358C
:1008B60032783234300005000035003130003135F1
:1008C600003230003235003330000500004C6576CA
:1008D600656C2D31004C6576656C2D32004C657665
:1008E600656C2D33004C6576656C2D34004C657651
:1008F600656C2D35000300004E6F6E65004E6F72FD
:100906006D616C00416C61726D0006000031202043
:100916006D696E003220206D696E003320206D698E
:100926006E003420206D696E003520206D696E00E2
:100936003130206D696E0005000031352073656326
:10094600003330207365630036302073656300081A
:100956000000313520736563003330207365630012
:100966003630207365630002000044697361626C6F
:100976006500456E61626C6500040000466972732D
:1009860074005365636F6E64005468697264004650
:100996006F75727468000400410042004300520003
:1009A6001900002D3132002D3131002D3130002D4E
:1009B60039002D38002D37002D36002D35002D3409
:1009C600002D33002D32002D310030003100320071
:1009D6003300340035003600370038003900313036
:1009E6000031310031320002005020004420000363
:1009F6000032343030003438303000393630300090
:100A06000200FE1819FF2000FE1A1BFF200004003A
:100A1600FE1C1D1E1F2021FF2000FE222328292A3E
:100A26002BFF2000FE242528292A2BFF2000412BFE
:100A3600422C422B41000E00FE262728292A2BFF96
:100A4600200053455100412B4200432B5200412BBD
:100A56005200522B4200412B4300432B4200522F9F
:100A6600414200522B4142004100420043005200E5
:100A760056474100FF0176FF0176FF0176FF0176BA
:100A8600FF0176FF017EFF017EFF017EFF017EFFF3
:100A9600017EFF018AFF018AFF018AFF018AFF01A9
:100AA6008AFF0196FF0196FF0196FF0196FF0196C8
:100AB600FF019EFF019EFF019EFF019EFF019EFF1B
:100AC60001A7FF01A7FF01A7FF01A7FF01A7FF01DC
:100AD6001FFF012FFF012FFF012FFF012FFF013CF9
:100AE600FF0149FF01AFFF01AFFF01AFFF01BCFFEF
:100AF60001C9FF01D5FF01DEFF01E5FF01EDFF01A1
:100B0600F4FF01FCFF0207FF0212FF021DFF022491
:100B1600FF022CFF0235FF023FFF0248FF0252FF91
:100B2600025AFF025AFF0265FF026FFF027AFF02B6
:100B360083FF0287FF0290FF0296FF02A0FF02A931
:100B4600FF02B3FF02BAFF02C2FF02CAFF02D3FFCF
:100B560002D9FF02E0FF02EFFF0300FF031FFF03BE
:100B66001FFF031FFF031FFF031FFF0326FF0326AD
:100B7600FF0326FF0326FF0326FF032BFF032BFF9E
:100B8600032BFF032BFF032BFF0341FF0341FF034F
:100B960041FF0341FF0341FF0339FF0349FF0349B7
:100BA600FF0349FF0349FF0349FF0350FF0350FFBB
:100BB6000350FF0350FF0350FF0357FF0357FF0384
:100BC60057FF0357FF0357FF0366FF0366FF0366DE
:100BD600FF0366FF0366FF0371FF0371FF0371FFE7
:100BE6000371FF0371FF0573FF0573FF0573FF05AF
:100BF60073FF0573FF057BFF057BFF057BFF057B09
:100C0600FF057BFF0587FF0587FF0587FF0587FF34
:100C16000587FF0596FF0596FF0596FF0596FF05D6
:100C260096FF059FFF059FFF059FFF059FFF059FF9
:100C3600FF05A8FF05A8FF05A8FF05A8FF05A8FF53
:100C460005B5FF05B5FF05B5FF05B5FF05B5FF05FC
:100C5600BCFF05BCFF05BCFF05BCFF05BCFF05C30B
:100C6600FF05C3FF05C3FF05C3FF05C3FF05CAFF95
:100C760005CAFF05CAFF05CAFF05CAFF05D1FF055C
:100C8600D1FF05D1FF05D1FF05D1FF05E0FF05E046
:100C9600FF05E0FF05E0FF05E0FF05EAFF05F6FFBB
:100CA6000602FF060EFF060EFF060EFF060EFF06E5
:100CB6000EFF0619FF0619FF0619FF0619FF06198A
:100CC600FF0625FF0625FF0625FF0625FF0625FF4D
:100CD600062BFF062BFF062BFF062BFF062BFF0618
:100CE6001FFF061FFF061FFF061FFF061FFF063119
:100CF600FF0631FF0631FF0631FF0631FF0376FF9F
:100D06000378FF0382FF0390FF039CFF03A9FF0301
:100D1600B2FF0525FF0525FF0525FF0525FF05254E
:100D2600FF055BFF055BFF055BFF055BFF055BFFE3
:100D36000561FF0561FF0561FF0561FF0561FF05AF
:100D460067FF0567FF0567FF0567FF0567FF056D19
:100D5600FF056DFF056DFF056DFF056DFF03BEFF0A
:100D660003C9FF03CDFF03D5FF03E1FF03EFFF0335
:100D7600F9FF0405FF040BFF0417FF0422FF042BF1
:100D8600FF0435FF043AFF0440FF0444FF0449FF13
:100D9600044DFF0451FF0460FF0467FF046BFF046A
:100DA60070FF0475FF047FFF048CFF049BFF04A8FB
:100DB600FF04B8FF04BCFF04BFFF04CCFF04DAFF46
:100DC60004E7FF04F5FF0505FF050FFF0519FF05FD
:100DD60033FF053FFF054DFF0306FF0306FF03062E
:100DE600FF0306FF0312FE6C6F00FE727500FE60C5
:100DF6006300FE787B00FE666900FE848700FE01C4
:100E06000200FE7E8100FE8A8D00FE909300FE9613
:100E16009900FEC0C300FE9C9F00FEA2A500FEA88E
:100E2600AB00FEAEB100FEB4B700FEBABD000000D6
:100E360018031661180216610000FF0C81FFFFFF00
:100E46003200000700B807720000FF0BEBFFFFFF40
:100E56003200000700B907720000FF0C09FFFFFF10
:100E66003200000700BA07720000FF0C18FFFFFFF0
:100E76003200000700BB07720000FF0D11FFFFFFE5
:100E86003200000700CA07720000FF0D14FFFFFFC3
:100E96003200000700D6079C0000FF0BA0FFFFFFF3
:100EA6003200000300F1000000000000000000FF17
:100EB600FF00000000000000180216610000FF0D90
:100EC600B9FFFFFF3200000300F100000000FF0D34
:100ED600B6FFFFFF3200000300ED00000000000037
:100EE600000000FFFF00000000000000180216616D
:100EF6000000FF0DBCFFFFFF32000005002D0E3580
:100F06000000FF0DBFFFFFFF32000005002E0E356B
:100F16000000FF0DC2FFFFFF32000005002F0E3557
:100F26000000FF0DC5FFFFFF3200000500380E353B
:100F36000000FF0DC8FFFFFF3200000300EE0000B7
:100F46000000FF0BA0FFFFFF3200000300F10000CE
:100F560000000000000000FFFF000000000000008D
:100F6600180216610000FF0DBCFFFFFF32000005EE
:100F7600002D0E350000FF0DBFFFFFFF32000005FC
:100F8600002E0E350000FF0DC2FFFFFF32000005E8
:100F9600002F0E350000FF0DC5FFFFFF32000005D4
:100FA60000380E350000FF0DADFFFFFF32000003D5
:100FB60000EB00000000FF0DC8FFFFFF320EF60138
:100FC60000000EF20000FF0BA0FFFFFF320000033F
:100FD60000F1000000000000000000FFFF0000001C
:100FE60000000000180516610000FF0DA7FFFFFFB7
:100FF60032000007002C09A60000FF0D86FFFFFF48
:101006003200000500200E350000FF0D89FFFFFFAE
:101016003200000500210E350000FF0D8CFFFFFF9A
:101026003200000500220E350000FF0D8FFFFFFF86
:101036003200000500230E350000FF0D92FFFFFF72
:101046003200000500240E350000FF0DAAFFFFFF49
:101056003200000300F6000000000000000000FF60
:10106600FF000000000000000000FF0DB6FFFFFFBC
:1010760032000003009B00000000FF0DB9FFFFFFD8
:101086003200000300F1000000000000000000FF35
:10109600FF000000000000000000FF0DB6FFFFFF8C
:1010A60032000003007000000000FF0DB9FFFFFFD3
:1010B6003200000300F1000000000000000000FF05
:1010C600FF000000000000000000FF0DB6FFFFFF5C
:1010D60032000003009E00000000FF0DB9FFFFFF75
:1010E6003200000300F1000000000000000000FFD5
:1010F600FF000000000000000000FF0BBEFFFFFF26
:1011060032109E0100000E360000FF0BCDFFFFFFE0
:101116003210CE0100000E360000FF0BA0FFFFFFCD
:101126003200000300F1000000000000000000FF94
:10113600FF00000000000000180416610000FF0A0E
:10114600A7FFFFFF3600000B00F1000000000000C3
:1011560000FFFFFF3200000C00390E350000FF0AC9
:10116600B6FFFFFF3600000B00F100000000000094
:1011760000FFFFFF3600000C003A0E350000FF0AA4
:10118600C5FFFFFF3600000B00F100000000000065
:1011960000FFFFFF3600000C003B0E350000FF0B82
:1011A600A0FFFFFF3200000300F100000000000076
:1011B600000000FFFF000000000000001804166198
:1011C6000000FF0BAFFFFFFF32000003009B000093
:1011D6000000FF0BDCFFFFFF3200000300F40000FD
:1011E6000000FF0D02FFFFFF3200000B00F40000BD
:1011F6000000FF0D02FFFFFF3200000B00F40000AD
:101206000000FF0D02FFFFFF3200000B00F400009C
:101216000000FF0D02FFFFFF3200000B00F400008C
:101226000000FF0D05FFFFFF3600000B00F4000075
:1012360000000000000000FFFF00000000000000AA
:10124600180516610000FF0D6EFFFFFF3200000754
:1012560000E409100000FF0D74FFFFFF32000007D5
:1012660000E609550000FF0DB0FFFFFF3200000742
:1012760000EC099C0000FF0DAAFFFFFF32000003EF
:1012860000F5000000000000000000FFFF00000065
:1012960000000000180416610000FF0D6BFFFFFF41
:1012A60032124A01000012460000FF0D65FFFFFFE3
:1012B6003200000700E108BC0000FF0D68FFFFFFD9
:1012C6003200000700E208D00000FF0DADFFFFFF6F
:1012D600320F6A0100000F660000FF0DB3FFFFFF2B
:1012E600320EC20100000EBE0000FF0DAAFFFFFF76
:1012F6003200000300F5000000000000000000FFBF
:10130600FF00000000000000180516610000000044
:10131600000000FFFF000000000000001804166136
:101326000000FF0B07FFFFFF3200000400960E359A
:101336000000FF0B16FFFFFF3200000400950E357C
:101346000000FF0B25FFFFFF3200000400970E355B
:101356000000FF0B34FFFFFF3200000400990E353A
:101366000000FF0B43FFFFFF32000004009A0E351A
:101376000000FF0BA0FFFFFF3200000300F100009A
:1013860000000000000000FFFF0000000000000059
:10139600180516610000FF0CB7FFFFFF32000007BB
:1013A60000C107720000FF0CC6FFFFFF32000007F6
:1013B60000C207720000FF0CD5FFFFFF32000007D6
:1013C60000C307720000FF0CE4FFFFFF32000007B6
:1013D60000C407720000FF0BA0FFFFFF32000003EE
:1013E60000F1000000000000000000FFFF00000008
:1013F600000000000000FF0D26FFFFFF3200000482
:1014060000B20E350000FF0D35FFFFFF320000046D
:1014160000B30E350000FF0D44FFFFFF320000044D
:1014260000B40E350000FF0D53FFFFFF320000042D
:1014360000B50E350000FF0BA0FFFFFF32000003D2
:1014460000F1000000000000000000FFFF000000A7
:1014560000000000180516610000FF0C9FFFFFFF4B
:101466003200000700CD07CE0000FF0CA2FFFFFFF1
:101476003200000700CE07ED0000FF0CA5FFFFFFBE
:101486003200000700CF080C0000FF0BA0FFFFFF93
:101496003200000300F1000000000000000000FF21
:1014A600FF00000000000000180816610000FF0B96
:1014B60061FFFFFF32139A0100000E360000FF0D98
:1014C600CEFFFFFF32145E0100000E360000FF0C57
:1014D600A8FFFFFF3200000700C6082B0000FF0B25
:1014E60070FFFFFF3200000700C708590000FF0B1E
:1014F6008EFFFFFF3200000700C8088E0000FF0BBA
:101506007FFFFFFF3200000400C90E350000FF0D0B
:1015160017FFFFFF3213FA0100000E360000FF0B23
:10152600A0FFFFFF3200000300F1000000000000F2
:10153600000000FFFF000000000000000204FF3270
:101546000DEC000000FFFF32FF132601009F13225F
:101556000DF0000000FFFF32FF0E3E0100000E3AC4
:101566000DF4000000FFFF32FF14B201009F14AE1D
:101576000DF8000000FFFF32FF11C601000011C286
:1015860000000000000000FFFF0000000000000057
:101596000000000000FFFF32FF1546010000154263
:1015A60000000000000000FFFF0000000000000037
:1015B60000000064003200020034001A0001002C12
:1015C600001600000037001C000000C70064002D54
:1015D60000D200800000000700030000003F00204A
:1015E600002D00D200800000001F00100019007DB1
:1015F600005A001E00820069FF830018001E0000CA
:1016060000FF0080FF80007F00000000000700034D
:101616000000007F004011111171113B161A0102E2
:1016260001342C342C024B323232323232324B32CB
:1016360032321110131415707174727370717472E2
:101646007378630080800060808080802080808046
:10165600803B68F890900060808080802080808049
:10166600800358F8A0A00060808080802080808061
:101676008003322528282D64323232323232000A73
:10168600006000610062006300660067006800B9E0
:1016960000FC13DBA67B0060000017481BDB807B89
:1016A6000000000017481EF2807C800001B6314819
:1016B60026D58069000000006FDF13D4A691006074
:1016C6000000174821D4809100000000174813F24B
:1016D6008092800001B6344813DC807F0000000051
:1016E600605A14008B7C01500000294814DC807C71
:1016F60000000000294814F2807C800001B62948C9
:1017060014DC805F000000007B5A0C008B940150B3
:1017160000002D480CDC8094000000002D480CF2DF
:101726008094800001B62D480CDC807F000000000C
:10173600605A3AF680FB0050000026483AC380FB08
:101746000000000026483ACC80FB800001B62648FF
:101756003AC380BE00000000705A3FF98029045049
:1017660000002E483FC38029040000002E483FD0C9
:101776008029840001B62E483FC380E8000000009F
:10178600805A28A4806A04500000165A2884806A69
:1017960004000000165A2889806A84350035165AD6
:1017A6002884801C040000006B5A23F9801404501E
:1017B60000001F5A23C88014040000001F5A23F09B
:1017C6008014843501871F5A23C880E70000000073
:1017D600565A202020496E70757420203A20202009
:1017E60020202020202020202020200020202053E0
:1017F600797374656D203A20202020202020202037
:1018060020202020200020202048204672657120BC
:101816003A2020202020206B487A202020202000FB
:10182600202020562046726571203A202020202054
:101836002020487A202020202000202020462F57D4
:10184600205265763A2020202020202020202020AB
:101856002020200000000000000000000000000022
:10186600000000000000000000000000000001026F
:101876000205050403040404040404040404040423
:1018860004040404040404032020201C2020202037
:101896002020202020200020202020202020202062
:1018A6002020002E003A000101010101010102027F
:1018B60002020202020505050505050404040404E6
:1018C6000403202020000404040404032020200034
:1018D6002020202020202020202020002020202022
:0818E60020202020202020001A
:10754A004100FBFF4100FC0041010100C11FC11EB7
:10755A004100E9004100FE0041010300410102002F
:07756A004100F60001790069
:1049CD00D3900011E09400900010E09400227E003E
:1049DD00900011E09000105403FFEEF0A3EFF022D1
:1049ED009000E7E0FEA3E0F5828E83229000257A09
:1049FD00007926E0FF7E007B0190002E1244D47BCF
:104A0D00FF22EE900010F0A3EFF02275F01012448B
:104A1D00A8740E93FB740F939000EACBF0A3EBF008
:104A2D008F828E83ED75F0101244A8740993FF7474
:104A3D000A939000E7CFF0A3EFF022900029E02435
:104A4D00F1FF900028E034FFFE90002D0244B47574
:104A5D00F0101244A8740D93227A1579C890003184
:104A6D001244D47A1579B62290001F1244B49000E6
:104A7D000E12429AAAF0F97BFF90002D1244D490A9
:104A8D00001F0244B4900010A3E0FD22E0FDE4906D
:104A9D000035F0A3EDF022E0FF900010E4F0A3222A
:104AAD009000E7E0FEA3E0FFF5828E8322E4900004
:104ABD0010F0A3F022900028E0FEA3E0FF22E0FE1C
:104ACD00A3E0FF7B019000547409F0229000E7E011
:104ADD00FEA3E0FFEE9000F7F0A3EFF0A322FD752B
:104AED00F00A84E5F02430F0ED75F00A84227E00A2
:104AFD00900104EEF0A3EFF022E0FEA3E0FF9000A2
:104B0D00EAE0FCA3E0F5828C832290000DE090009A
:104B1D000FA4FFE5F08FF002425975F0101244A872
:104B2D00740E93FC740F93AA04F97BFF9000071287
:104B3D0044D48F828E83227D017BFF7E0002413E15
:104B4D00FFE975F003A42416F582E43400F5832201
:104B5D0090000FE0FEA3E0FF9000EAE0FAA3E0F57D
:104B6D00828A83740393FDE49322EFF090000FE0AB
:104B7D002290004CE475F0011244BD024164900096
:104B8D0002124509900101E075F003A4F58285F04C
:104B9D0083024509F0A3EFF0D39015B67401939FEE
:104BAD00EE6480F8E49364809822FF900028E0344E
:104BBD0000229000E7E0FEA3E0AA06F97BFF227534
:104BCD00F0100244A8A3E475F001024259E0FEA3DF
:104BDD00E02DFDEE3CFCEDA4FBAAF0FF900018E0EB
:104BED00229015B8E493FE740193FF2290000FE418
:104BFD00F0A3740EF022F0E0FF25E02422F582E40C
:104C0D003416F583E49322F0EF25E02423F582E4B6
:104C1D003416F583E493227E00EEF0A3EFF07B01D2
:104C2D0022EEF0A3EFF0A32290000D02417DC39080
:104C3D000011E09403227D017BFF7E007F0C024179
:104C4D003E900106E0640122740E93FB740F939065
:104C5D0000EACBF0A3EBF022EF54F8FFA3E05407EA
:104C6D004FFB7D177F8A22900011E02403F0900006
:104C7D0010E03400F02290000CE0FEA3E0FF900065
:104C8D000AA3E0FD22FFE493FC740193FDC3EF9DA5
:104C9D00FEE49C2290000DEEF0A3EFF0FD900013CA
:104CAD00E0FF22E57925E024EEF582E43400F5837A
:104CBD002235F0FA7BFF90000BE0900054F0222497
:104CCD0040F582E43400F58322900104A3E0FF2235
:104CDD00E0FFA3E09000F7CFF0A3EFF0227D187C6A
:104CED00001241BCEF22FFE08FF0A4FF22A3E0549D
:104CFD00074438FB7D787F8A22C3900011E094062B
:104D0D0022F090003AE004F022E0FEA3E0FF7B01E8
:104D1D0022E0FF7E007B017A00792722FBC3EF9B07
:104D2D00FFEE9400FEC322C3900011E0940222E036
:104D3D00FD75F00A84E5F0243022F9E43AFA0244D4
:104D4D00D42FFFE035F0FAA9077BFF22E024052FD1
:104D5D00F075F0058422FFE4F0A3EFF0229000132C
:104D6D00A3E0FF22FF7E007B017A007926229FEED1
:104D7D006480F8EC648098221244B40241647D3260
:104D8D007F267E002275F011A424BBF9746C22F5E8
:104D9D0082E43400F583EEF022F582E43400F583ED
:034DAD00EEF02203
:03000E0012B00528
:0100110022CC
:05708200900012EFF088
:1070870012000E900017EFF0900012E0B401047F99
:107097000180027FFF900017124D59E5F0124C0353
:1070A700FEFD900013E4F0A3EDF09000FFE0FDC3B8
:1070B700900014E09DF0900013E09400F09000FF22
:1070C700EE124C14FFFD900015E4F0A3EDF09001D3
:1070D70000E0FDC3900016E09DF0900015E09400DD
:1070E700F0900100EFF09000187401F0900018E0A4
:1070F700FFD39404506D12A332AD07AC0690001372
:1071070075F008124BDAF975F003A42417F582E439
:107117003400F583EFF0EA124B4DEFF0AF0112A008
:107127000CAC06AD0790001575F004124BDA75F03C
:1071370003A42418F582E43400F583EFF0EAC4F8D9
:1071470054F0C8EBC4540F485470FF900018E0F98E
:10715700124B4FE04F124B4DEFF0900018E004F048
:107167000270F312A9D37DE07F8A12A6D1EF54EF04
:107177001271E29000187401F0900018E0FFD394A8
:10718700045031EF14FB7D9E7F8A12AB9690001856
:10719700E075F003A42416F9740035F0FA7B01902A
:1071A700005A7403F07DA07F8A12A51B900018E097
:1071B70004F080C57DE07F8A12A6D1EF44101271DA
:1071C700E2900017E0FF12AF8B12A9D3E4FB7D908A
:0A71D7007F8A12AB96900017E0FFCC
:0A71E10022FB7DE07F8A12AB9622AC
:1063B200901622E4939000FFF0901623E49390014C
:1063C20000F0E4FF12AF8B7FB01265437FA012652D
:1063D200437FA07E0012AB70900139EFF07FA112D3
:1063E200654B7FA212654B7FBA12655A7FA4126574
:1063F2005A7FAB1265527FA31265697FBB12656932
:106402007FA51265527FA61265617FA71265617F23
:10641200A81265707D327F387E0012A3C590014DAF
:106422007432F0E4FF127B837D327F377E0012A349
:10643200C57D037FB27E0012A3C57FBC1265707F4B
:10644200BD12657F7FBE12657F900119E07014FD59
:106452007FAEFE12A3C57FAC12657790013D740139
:10646200F080137D0D7FAE7E0012A3C57FAC126556
:1064720098E490013DF0E4900134F07D027FAAFEA1
:1064820012A3C57FA9126598E4FF12A2997BFF7A35
:1064920000796612AE117D337FA07E0012AA007FC2
:1064A200B21265A77FB31265777FB41265867FB596
:1064B2001265867FB612659F127840E4FF12AFA67E
:1064C2007FBF12659F7FBF7E0012AB70EF24FF92E9
:1064D200087FB81265A77FB87E0012AB70900116D4
:1064E200EFF07D017FB77E0012A3C57FB77E001259
:1064F200AB70900111EFF07D027FB97E0012A3C54F
:106502007FB97E0012AB70900108EFF0E4FD7FAF1F
:10651200FE12A3C5E490012EF090011804F0FD7F55
:10652200C57E0012A3C57F1B12658E7F1C7E0212E0
:10653200A3C57F1D12658E7F1E7E0212A3C5029621
:106542009A7D017E0012A3C522E4FDFE12A3C5229C
:106552007D017E0012A3C522E4FDFE12A3C5227DA9
:10656200017E0012A3C522E4FDFE12A3C522E4FDB2
:10657200FE12A3C5227D017E0012A3C522E4FDFE08
:1065820012A3C5227D017E0012A3C522E4FD7E0274
:1065920012A3C5E4FD22E4FDFE12A3C5227D017E05
:0C65A2000012A3C522E4FDFE12A3C522D6
:10AE8E0012B00D900101EFF075F00584AFF0EFF008
:01AE9E002291
:10AD4E00EFB401047F0180027FFF900101124D5983
:0CAD5E00AFF0EFF012AFA6900101E0FF93
:01AD6A0022C6
:059B4500900014EDF09A
:109B4A00EF75F003A42481FEE435F0A3F0A3CEF070
:109B5A00E4A3F0900017E0FFC3940350439000166B
:109B6A00E02FFF900015E03400FE12AB7090001851
:109B7A00124C247A00791A124A06124A66128C1575
:109B8A00900017E02471FD90001AA3E0FF900014E2
:109B9A00E02FFB7F8A12AB96900017E004F080B3A7
:019BAA002298
:10991C00EFB401047F0180027FFF900105E0240475
:10992C00FD900104E03400FCEF3395E0FEED2FFFD9
:10993C00EC3EF0A3EFF07E009001041249E4FD7FB1
:10994C008012A3C57F107E0012AB707E007B017A63
:10995C00007912124A067A1579CE124A6A128C15BF
:10996C00124CD6900012A3E0FD129B457F807E0026
:10997C0012AB70EF64037BA860047D3080027D32F3
:0A998C007F3E7E0012A8B5124CD6F3
:0199960022AE
:058A1800900012EFF0D8
:108A1D00ED900105B4010DE02401FF900104E03457
:108A2D0000FE800BE024FFFF900104E034FFFE9078
:108A3D000013EE124BA15015124BEE900014E09F57
:108A4D00EE6480F8900013E06480984003028ABFC2
:108A5D00900013E0FEA3E0FF124AFD7B017A00793E
:108A6D0015124A06124A66128C15900012E0248ADD
:108A7D00FFE433FEA3A3E0FD12A3C57F107E001219
:108A8D00AB70900013124C247A007917124A067AB3
:108A9D001579CE124A6A128C15900012E02471FDE0
:108AAD00900017A3E0FF900015A3E02FFB7F8A1223
:058ABD00AB96124CD63F
:018AC2002291
:109FB4007D707F8A12A6D1EF54BFFB7D707F8A1219
:109FC400AB967D7412A0027D757F8A12AB967D7666
:109FD40012A0027D717F8A12AB967B807D727F8A8C
:109FE40012AB967B807D737F8A12AB967D707F8ADD
:109FF40012A6D1EF4440FB7D707F8A02AB967B8032
:08A004007F8A12AB967B8022DB
:067E5D0090001EEFF0FD95
:107E63007F0B7E0012A3C590001EE06403606CE4E8
:107E7300A3F0A3F090001FE0FEA3E0FFC3940FEE76
:107E830064809480503B90001EE0C454F02448F575
:107E930082E43416F583E5822FF582E5833EF5838C
:107EA300E493FB90001FA3E02438F58274163EF59B
:107EB30083E493FD7F8A12AB9690001F124BD3800D
:107EC300B390001EE0C454F02457F582E43416F551
:0B7ED30083E493900021124D63804E69
:107EDE00E4FF12B02C12A5DC7F0112B02C12A2E628
:107EEE007F0212B02CAD07E4FF1299977F0312B0F8
:107EFE002CAD077F011299977F0412B02C129A07AE
:107F0E007F0512B02C7E00900023124C267A007949
:0E7F1E0021124A067A167910124A6A128C1540
:107F2C00900021124CFA12AB967D177F8A12A6D1C3
:097F3C00900021124C6512AB9675
:017F45002219
:03B045007F002267
:07B02C0012AF6E124AFB2275
:058EA200900012EFF04A
:108EA700EDB401067E007F0180047EFF7FFF900105
:108EB70004E0FCA3E0FD2FFFEC3EFE900013124BF5
:108EC700A15016124BEE900013E0FAA3E0FB9FEEC1
:108ED7006480F8EA6480984003AF0522900012E0AE
:108EE70014601814601D14601A14602724FE602B88
:108EF7002406702DAF0312A5DC8026124D6A12A23C
:108F0700E6801E900012E024FEFFA3A3E0FD129965
:108F170097800E124D6A129A078006124D6A129AAE
:108F2700DC900012E0FFA3A3E0FD12AF94900013C2
:088F3700E0FEA3E0FF124AFD79
:018F3F00220F
:05A5DC00900025EFF0E6
:10A5E10012B03F900025E0BF010C124D71124A06D6
:10A5F1007A1579F8800A124D71124A067A1579F2A4
:10A60100124A6A128C15900112E090161B93FD906C
:0AA611000026A3E0FB7F8A02AB964F
:05A2E600900025EFF0DF
:10A2EB00900112E0640470171249F97A1579D412AF
:10A2FB004A6A128C15900026A3E0FB7D7480221213
:10A30B0049F97A1579FE124A6A128C1512B045EF8B
:10A31B009000266007A3E0FB7D3A8005A3E0FB7D60
:06A32B00107F8A12AB96C0
:01A331002209
:109ADC007E007B017A007915124A067A1579EC1210
:109AEC004A6A128C157DFF7F8A12A6D1900017EF5F
:109AFC00F0E47DFF129B3E7DBE7F8A12A6D1EF540F
:109B0C00CF44107DBE129B3E7DC47F8A12A6D1EF3E
:109B1C005480FD900015E0A2E713A3E0134DFB7DEC
:109B2C00C47F8A12AB96900017E0FB7DFF7F8A0200
:029B3C00AB96E6
:079B3E00FB7F8A12AB9622A7
:059A0700900025EFF0C6
:109A0C00900112E06404702A9000257A00792612E5
:109A1C004A007A1579E0124A6A128C157D707F8A99
:109A2C0012A6D1EF54C0FF900026A3E04FFB7D702F
:109A3C00802F900025E0FF7E007B017A00792612B2
:109A4C004A067A16790A124A6A128C1512B045EF38
:109A5C009000266007A3E0FB7D3E8005A3E0FB7D24
:069A6C00157F8A12AB9683
:019A720022D1
:08999700900025EFF0A3EDF0B4
:10999F0012B045EF6030124D1E124A067A16791634
:1099AF00124A6A128C15900025E0243CFD7F8A1222
:1099BF00A6D1EF5480FF900027A3E02FFB90002546
:1099CF00E0243CFD802C900026124D1E124A067A90
:1099DF00167904124A6A128C15900112E090002534
:1099EF00B40405E024728003E02413FD900027A344
:0799FF00E0FB7F8A12AB962A
:019A0600223D
:058CBA00900012EFF034
:108CBF007D787F8A12A6D1EF5407540F90001512BA
:108CCF004D63900012E0B401047F0180027FFFEF3B
:108CDF003395E09000158FF0124259901610124BF9
:108CEF00F1900015E0FCA3E0FDC3124D7B400D9009
:108CFF001612124BF1D3ED124D7B4004124CD622BB
:108D0F00AF057E007B017A007913124A067A157936
:108D1F00B69000311244D47A167910128C15900047
:108D2F0015124CFA12AB967D177F8A12A6D19000BE
:108D3F0015124C6512AB96900013A3E0FD7F051240
:0D8D4F00AF94900013E0FEA3E0FF124AFD78
:018D5C0022F4
:109BAB00900112E090000AF09001127401F0900104
:109BBB0012E0FFC394075030EFB40413E490000994
:109BCB00F0900009E090167E129C0040F48011E4A6
:109BDB00900009F0900009E0901678129C0040F478
:109BEB00900112E004F080C690000AE0900112F0A0
:059BFB007F03027E5D06
:109C0000FF93FD12AF94900009E004F0E0C39406C6
:019C10002231
:10810A0090001EEFF0D39403400B7F0112810A9076
:10811A00001E7401F0900130E0B420177FA27E00A7
:10812A0012AB70EF700D90001EF07BFF7A00797130
:0B813A0012AAFC90001EE090011DF056
:1081450012B039EF6401601E12B039EF6404601695
:1081550012B039EF6405600E12B039EF640760069E
:1081650012B039EF700F90001EE075F00AA4249844
:10817500F97416800D90001EE075F00AA424C0F96C
:10818500741635F0FA7BFF9000211244D490011D3E
:108195007401F012A9D3E490001FF0A3F090001F22
:1081A500E0FEA3E0FFC3940AEE64809480502FEFB5
:1081B50025E0FFEE33FE74842FF58274163EF583B9
:1081C500740193FD900021124D85FB7F8A12AB96B9
:0E81D500900022124BD390001F124BD380BF9C
:0881E30090011DE0FF02AF82D4
:10AA2D00E579C3940450229000F7E0FEA3E0FF12F5
:10AA3D004CB0EEF0A3EFF09000FAE0FFAE7905799F
:0CAA4D0074752EF8A6077F01227F0022FE
:10AD8800E57960151579124CB0124CDD747525798A
:0CAD9800F8E69000FAF07F01227F002214
:10A40C0090001D1244D4900020EDF0BDFF037FFF9F
:10A41C0022900020E004F0E075F010A4FF90001DE5
