:10380B006873636F6D20312031206368303A312546
:10381B00316278206368313A3025316278206368F1
:10382B00323A3025316278206368333A3025316281
:10383B00780A0D006873636F6D2031203120636847
:10384B00313A3125316278206368303A3025316264
:10385B0078206368323A3025316278206368333AD6
:10386B0030253162780A0D006873636F6D2031204B
:10387B0031206368323A256278206368303A30250C
:10388B00316278206368313A302531627820636881
:10389B00333A30253162780A0D006873636F6D20FF
:1038AB00312031206368333A3125316278206368E7
:1038BB00303A3025316278206368313A30253162F5
:1038CB0078206368323A30253162780A0D006873CC
:1038DB00636F6D20322032206368303A31253162BC
:1038EB0078206368313A3025316278206368323A48
:1038FB003025316278206368333A30253162780A9B
:10390B000D006873636F6D20322032206368323A8A
:10391B00256278206368333A3125316278206368F9
:10392B00303A3025316278206368313A3025316284
:10393B00780A0D006873636F6D2032203220636844
:10394B00303A3025316278206368333A3125316261
:10395B0078206368313A3025316278206368323AD7
:10396B0030253162780A0D006873636F6D20322049
:10397B0032206368333A3125316278206368313AFB
:10398B003025316278206368303A302531627820F7
:10399B006368323A30253162780A0D006873636FC1
:1039AB006D20332031206368333A31253162782022
:1039BB006368303A3025316278206368313A3025BC
:1039CB00316278206368323A30253162780A0D0013
:1039DB006873636F6D20332033206368303A302572
:1039EB00316278206368313A302531627820636820
:1039FB00333A3125316278206368323A30253162AF
:103A0B00780A0D006873636F6D2033203420636870
:103A1B00303A3025316278206368313A3025316293
:103A2B0078206368333A3125316278206368323A03
:103A3B0030253162780A0D006873636F6D20342076
:103A4B0031206368303A3025316278206368313A2F
:103A5B003025316278206368323A30253162782024
:103A6B006368333A31253162780A0D006873636FEE
:103A7B006D20322032206368303A31253162782054
:103A8B006368323A3025316278206368313A3025E9
:103A9B00316278206368333A30253162780A0D0041
:103AAB006873636F6D20322032206368323A25626F
:103ABB0078206368313A3025316278206368303A78
:103ACB003025316278206368333A30253162780AC9
:103ADB000D006873636F6D20332033206368333AB6
:103AEB003125316278206368303A30253162782095
:103AFB006368313A3025316278206368323A302579
:103B0B003162780A0D006873636F6D2032203220AA
:103B1B006368333A3125316278206368323A302555
:103B2B00316278206368313A3025316278206368DE
:103B3B00303A30253162780A0D006873636F6D205F
:103B4B00332031206368333A312531627820636842
:103B5B00303A3025316278206368323A3025316251
:103B6B0078206368313A30253162780A0D0068732A
:103B7B00636F6D20332031206368333A3125316216
:103B8B0078206368313A3025316278206368323AA5
:103B9B003025316278206368303A30253162780AFB
:103BAB000D006873636F6D20332033206368333AE5
:103BBB003125316278206368303A302531627820C4
:103BCB006368323A3025316278206368313A3025A8
:103BDB003162780A0D006873636F6D2033203320D8
:103BEB006368333A3125316278206368313A302586
:103BFB00316278206368323A30253162782063680D
:103C0B00303A30253162780A0D006873636F6D208E
:103C1B00332033206368303A312531627820636872
:103C2B00313A3025316278206368323A302531627F
:103C3B0078206368333A30253162780A0D00687357
:103C4B00636F6D20332033206368303A3025316247
:103C5B0078206368323A3025316278206368333AD2
:103C6B003125316278206368313A30253162780A28
:103C7B000D006873636F6D20322032206368313A18
:103C8B003125316278206368303A302531627820F3
:103C9B006368323A3025316278206368333A3025D5
:103CAB003162780A0D006873636F6D203220322009
:103CBB006368313A3125316278206368323A3025B6
:103CCB00316278206368333A30253162782063683B
:103CDB00303A30253162780A0D006873636F6D20BE
:103CEB00322032206368313A3025316278206368A4
:103CFB00333A3125316278206368323A30253162AC
:103D0B0078206368303A30253162780A0D00687389
:103D1B00636F6D20332033206368313A3125316274
:103D2B0078206368303A3025316278206368323A04
:103D3B003025316278206368333A30253162780A56
:103D4B000D006873636F6D20332033206368313A45
:103D5B003025316278206368303A30253162782023
:103D6B006368333A3125316278206368323A302503
:103D7B003162780A0D006873636F6D203320332036
:103D8B006368313A3025316278206368323A3025E6
:103D9B00316278206368333A312531627820636869
:103DAB00303A30253162780A0D006873636F6D20ED
:103DBB00322032206368323A256278206368303AC9
:103DCB003025316278206368313A302531627820B2
:103DDB006368333A30253162780A0D006873636F7C
:103DEB006D20322032206368323A25627820636876
:103DFB00313A3025316278206368333A30253162AD
:103E0B0078206368303A30253162780A0D00687388
:103E1B00636F6D20322032206368323A256278203E
:103E2B006368333A3125316278206368313A302543
:103E3B00316278206368303A30253162780A0D00A0
:103E4B006873636F6D20332033206368323A2562C9
:103E5B0078206368303A3025316278206368313AD4
:103E6B003025316278206368333A30253162780A25
:103E7B000D006873636F6D20332033206368323A13
:103E8B00256278206368303A302531627820636888
:103E9B00333A3125316278206368313A302531620B
:103EAB00780A0D006873636F6D20332033206368CD
:103EBB00323A256278206368313A302531627820B6
:103ECB006368333A3125316278206368303A3025A4
:103EDB003162780A0D000D0A507265762E46573AFC
:103EEB0025303478000D0A437572722E46573A25E9
:103EFB00303478000D0A5B4D53475D6D61696E5F21
:103F0B00696E697428293D3E2072657620213D201B
:103F1B00465756455220262063616C6C20436C65D6
:103F2B0061724261736963454528290D0A000D0AC8
:103F3B0043616E6E6F7420616363657373204545D7
:103F4B0050524F4D21212121000D0A4E6F20696ED9
:103F5B00697469616C697A65005457383831360079
:103F6B005457383831364200545738383137004EB1
:103F7B006F7468696E67202D2D3078253032780D7F
:103F8B000A00436865636B20616761696E202D2DA4
:103F9B003078253032780D0A004C617374204368F9
:103FAB0065636B202D2D3078253032780D0A00FF9C
:103FBB00380BFF383FFF3873FF38A5FF38D9FF396F
:103FCB000DFF393FFF3973FF39A7FF39DBFF3A0F7D
:103FDB00FF3A43FF3A77FF3AABFF3ADDFF3B11FF66
:103FEB003B45FF3B79FF3BADFF3BE1FF3C15FF3C06
:103FFB0049FF3C7DFF3CB1FF3CE5FF3D19FF3D4DCB
:10400B00FF3D81FF3DB5FF3DE7FF3E19FF3E4BFFF7
:10401B003E7DFF3EAF2D2D2D3E2050616E656C3ADF
:10402B0020575647412D3830302A343830202D2D2B
:10403B00205449434F4E4C45535320485320376926
:04404B006E63680038
:107A1500012D00013000C10DC10C02310000012F04
:107A250000024C000041013F01C10EC10F4101425E
:107A350000410140004101430044014400000000B1
:10B17200ED90001DF090001BE090001E2290001B3D
:10B18200E090001DF022EBA3F090001CE090001F65
:10B1920022FFEA33FE7C007D14124713744E2DF811
:10B1A200E62290001CE0A3F0A32290001DF0900084
:10B1B2001CE090001E22900028F0A3EFF07BFF22FB
:108451007B107DE07F8A12BDA612AC88900000EEF1
:1084610012B1BB7A3E79E1900028EEF0A3EFF01251
:10847100BD0C12AC88EF64107003EE640260287BBF
:10848100FF7A3E79F09000287402F0A37410F01284
:10849100BD0C7F107E0212B59412AC88EE12B1B8F9
:1084A1007A3E79F012BD0C12AC88EF64107003EEC5
:1084B10064027033900000E064027004A3E0641071
:1084C100601B900100E0FF12C1F37F0112C217127D
:1084D100BCE57BFF7A3E79FF12BD0C802C12C2678E
:1084E100900100EFF080227BFF7A3F793912BD0CB9
:1084F1007BFF7A3F795412BD0C90010074FFF07F2D
:108501000112B939E4FF02A21E7F087E0012BD806C
:1085110090010CEFF06004E0FF80027F0112B93995
:1085210012A2A79000FB74FEF012AE0112B9AB7F4C
:1085310006128C297F0A12C09912C1697DFF12852A
:10854100637D82128563E4FB7DFF7F8A12BDA67B7A
:10855100FF7DD07F8A12BDA67BFF7DD17F8A12BDB0
:01856100A673
:09856200227B017F8A12BDA622D2
:10B2120075F68775F65975BF10E4F5F6758DF475F8
:10B222009850758922758855758A40758C40758746
:10B232008075B80275A892D299D2ACF5C8C2CAD2AA
:10B24200AD75AA5075BAF443A61843AD10C20F7576
:0FB25200DE4243D840F5B175B220F54AF54922E6
:03000B00027B7302
:0B7B7300C0E0C083C082C0D075D00805
:107B7E00054B900141E0600214F0900141E070333A
:107B8E00E5A05460C4135403FF900147E06F6023D7
:107B9E00900145E0900144F0900146E0900145F0DF
:107BAE00900147E0900146F0A3EFF0D21090014112
:107BBE007430F0E54BD394605003027CC60534E577
:107BCE003470020533754B00052FE52F6464600396
:107BDE00027C7E90010BE094FF5003E004F0E5651B
:107BEE002401FFE43564FEE43563FDE435628F6500
:107BFE008E648D63F562752F009000F2E0D39401D0
:107C0E004003E014F0900171E0D394014003E014BE
:107C1E00F0900069E004F090014BE0D39400400333
:107C2E00E014F0301106900140E004F030040690AC
:107C3E000143E004F0900069E0B43C08E4F09000E9
:107C4E007CE004F090007CE0B43C08E4F090008806
:107C5E00E004F0900088E0B41808E4F0900087E0AB
:107C6E0004F0E5309001426005E004F08002E4F09B
:107C7E00E54DF47003E54CF46008054DE54D7002DA
:107C8E00054CE5A0F4549C6029E52DB4030DE5A048
:107C9E00F4549CF530C20CD20D8013E52DB4640E55
:107CAE00E5A0F4549CF530D20CD20D752D50052D57
:087CBE008006752D00753000F1
:097CC600D0D0D082D083D0E0328E
:10BF6100E4F565F564F563F562900100F07F641214
:0EBF7100C099C22112C23BD2B47F0102C09916
:10A19300E4FD7F8A12B8C7EF24DE601024D960146F
:10A1A300242870197BFF7A3F7964800E7BFF7A3F06
:10A1B300796B80067BFF7A3F797302C07E12A1FF21
:10A1C3007A3F797A12BD0C12C1DDEF701B12A1FF29
:10A1D3007A3F798D12BD0C12A211EF60EAE4FD7F84
:10A1E3008A12B8C7EFF460DF7F6312C09912A2111D
:10A1F300E412B1B87A3F79A412BD0C22E4FD7F8A40
:10A2030012B8C7900028E4F0A3EFF07BFF227F632E
:0BA2130012C099E4FD7F8A12B8C72238
:10BF7F00EFB4010553E8FE8011EF700743E801535A
:0EBF8F00E8FD22EFB4020643E80143E8022277
:03001300020026C2
:03002600C2AA3239
:0300230002BA4FCF
:10BA4F00C0E0C0D075D00830981EC298AF99743539
:10BA5F002549F8EFF6744E2549F8A60F0549E54933
:10BA6F00C394144003754900309904C299C20ED093
:04BA7F00D0D0E03211
:0300630002BAEAF4
:10BAEA00C0E0C0D075D008E5AA30E01653AAFE74AB
:10BAFA0025252EF8A69A052EE52EC394084003752F
:10BB0A002E00E5AA30E10553AAFDC20FD0D0D0E03D
:01BB1A0032F8
:0BC1DD00E549B54A037F00227F0122E4
:08000300200EFD8F99D20E22A0
:08C25F00200FFD8F9AD20F227F
:03002B0002C12DE2
:0FC12D00C0E0C2CF0532E53270020531D0E032FA
:10C09900E52F2FFFE433FE7C007D64124713E52F63
:07C0A900B505FBE4B504F747
:01C0B000226D
:10B79C00900025E4F0A3E52FF0E47B3CFAF9F8AF38
:10B7AC0065AE64AD63AC621248CEAC00AD01AE02C6
:10B7BC00AF03E47B64FAF9F8124843900025EE8F4E
:0CB7CC00F012479E900025E0FEA3E0FF75
:01B7D800224E
:10BEC600C3ED9FEC9E5010C374709FFF74179EFEC7
:0FBED600EF2DFFEE3CFE22C3ED9FFFEC9EFE2200
:08B47A00900025EEF0A3EFF0B5
:10B48200900025E07002A3E06035E4900027F0A36D
:10B49200F0900027E0FEA3E0FFE4FCFD7BD8FAF980
:10B4A200F8D3124960400C900027E475F00112476E
:0FB4B2009E80DE90002574FFF5F012479E80C14A
:01B4C1002268
:05608400900018EFF090
:10608900ED4410FDEB4410FBEF64056012E0FF6482
:1060990020600CEF6421600790001BE04410F09031
:1060A900001CE04410F0900018E0124A8B612000B7
:1060B900612201612B026132036138046149056182
:1060C9004C0661550761320861750961750A6120DD
:1060D9000B615E0C61660D61320E61840F61921075
:1060E900619D11619212619D1361381461AB156153
:1060F900221661B51761BE1861221961CB1A61B503
:106109001B612B1C61DF1D61491E612B1F61F6207C
:1061190061DF2100006207801690001DEBF0A3EDFE
:10612900801412B17FA3ED802F12B1A4ED801890D5
:10613900001DEDF0A3EBF090001BE090001F8025FF
:106149000261EBED12B1ACF0A3EB802812B1A4EB24
:10615900F0A3ED801F12B172F0A3EB800812B17F9A
:10616900A3EBF0A3EDF090001C0261D890001DEDA7
:10617900F012B188F090001B0261D890001CE0A3D6
:1061890012B176F0A3EB0261E512B1A4EDF0900033
:106199001B0261FF12B1A4EBF090001BE090001FFD
:1061A900803A12B172F090001C0261FFEB12B173D8
:1061B90012B18A8027EB12B1ACF0A3EDF090001B6D
:1061C900800D90001DEBF0ED12B189F090001BE0FD
:1061D900900020F0802812B17F12B188F0A3EDF071
:1061E900801C12B17F12B1B0F0A3ED800D12B17F06
:1061F900A3EDF090001CE090001FF0A3EBF0E490F9
:106209000021F0900021E0FFC394145011744E2F27
:10621900F8E4F674352FF8E4F6E004F080E5900030
:10622900FBE06403700C900139E070061262BA0257
:1062390062B7E4900022F01262BA12B79C90002370
:10624900EEF0A3EFF012B79CC3900024E09FFF90FB
:106259000023E09EFE12C1D1C3EF9428EE6480941E
:106269008040E2E4900021F0900021E0FFC3941403
:106279005029744E2FF8E664417018E0FB7A002427
:106289000112B193B4430CEB240212B193B44B0342
:106299007F0122900021E004F080CD7FC87E0012AA
:1062A900B47A900022E004F0E0C3940340897F00AF
:1062B90022900018E0FF3395E0FE903FBA75F00395
:1062C900EF1249FAEE75F003A42583F583124A2FDC
:1062D90090001DE0900028F090001EE0900029F049
:1062E90090001FE090002AF0900020E090002BF031
:0462F90012BD0C22A4
:109EC7000D0A2B2B28436C6561724F5344496E660C
:109ED7006F293A20446973706C617965644F534404
:109EE7003A2532780020000D0A5B4D53475D4469DF
:109EF70073706C6179496E7075742829203D3E2016
:109F070053656C6563744D6F6465547970653D4145
:109F1700564D6F646520746F207365742074696D86
:109F270065202620646973706C6179686F6C645F63
:109F3700666C61673D2562780020202054573838C9
:109F47003036202020005465636877656C6C2C4997
:039F57006E630036
:047A450041016F008C
:0FC14B0075F011A424DBF9747F35F0FA7BFF2225
:0CC1AD0090016FE0FEEFF4FFEE5FF02267
:07C29F0090016FE04FF02257
:06C2AD0090016FE0FF228A
:10B0C80012C2AD90001CEFF012C2AD900028E4F05F
:10B0D800A3EFF07BFF7A9E79C712BD0C90001CE0AD
:10B0E800FF20E20330E70512BD5AC20790001CE0BA
:10B0F80030E00312C13C90001CE030E40312C0B100
:10B1080090001CE030E10312B85290001CE030E6D9
:04B118000312C169F4
:01B11C002210
:1093150090001B74C2F012B0C87BFF7A8579E21207
:109325009BAE7DFF7FA07E0012BC387BFF7D327F28
:10933500A07E0012BB1BE490001AF090001AE0FF1B
:10934500C394F050197E007BFF7A9E79EC9000540F
:109355007401F012BAB790001AE004F080DD9001B4
:109365006FE04410F012C2B9EF6401607790001A03
:109375007401F090001AE0FE75F011907FDA124941
:10938500FAE4936F600890001AE004F080E5EE12AD
:10939500C14B12C063900019EFF0A3E012C14B90CE
:1093A5000019E0900054F07FA07E0012BAB77FA3A9
:1093B5007E0012BD80BF01199000EEE07013900091
:1093C500F27405F07BFF7A9E79EE900028F012BDCD
:1093D5000C7D017F0212B5D87F0112BBDC12B79C50
:0493E5008E7A8F7B72
:0193E9002261
:10C0B100E4FF12BBDCE4FD7F0212B5D890016FE012
:06C0C10054EFF07F0122A4
:10957E007DFF1296337D82129633E4FB7DFF7F8A48
:10958E0012BDA690016FE020E27C12B0C87F0A12D5
:10959E00C0997BFF7A867964129BAE7D327FC87E3E
:1095AE000012BC387B197D377FC87E0012BB1B7B37
:1095BE00197D737FDD7E0012BB1B12C0FB75F0039D
:1095CE00EF900AE61249FA124A2FAE02AF0190004E
:1095DE0006EEF0A3EFF07BFF12C063900006E0FCF6
:1095EE00A3E0AA04F97BFF900054EFF07FC87E0041
:1095FE0012BAB77D017F0112B5D8E4FD7F0412B512
:10960E00D87F0112BBDC301B0590017480039001E2
:10961E0073E0FF129E2C90016FE04404F012B79C91
:04962E008E7A8F7B26
:10963200227B017F8A12BDA67F057E0012B47A22A8
:0FC13C00E4FD7F0212B5D890016FE054FEF022AF
:109D9000E4900006F012C2AD900005EFF05496700A
:109DA00003029E29E030E11512C244900001EEF05A
:109DB000A3EFF0A37407F0A374D0F080119000011A
:109DC000E57AF0A3E57BF0A3E4F0A374C8F012B742
:109DD0009CAD07AC06900001E0FEA3E0FF12BEC6FA
:109DE000D3900004E09F900003E09E503C9000055B
:109DF000E05484600D12BD5A900006EFF0129315E6
:109E0000C207900005E030E11D12B852900006EF45
:109E1000F07FA37E0012BD80BF01069000F27403A4
:0B9E2000F0129315C2077F01227F00A3
:019E2B002214
:10BD5A0090016FE030E20A7F0112BD7654FBF08059
:10BD6A00087F0212BD76547FF07F0122E4FD12B5EE
:06BD7A00D890016FE022E9
:10AC8800E4FFFE12BD80EF6454600280287F017EDD
:10AC98000012BD80EF64576002801A7F027E0012A6
:10ACA800BD80EF64386002800C7F037E0012BD8097
:10ACB800EF64386004E4FEFF227F047E0012BD804A
:10ACC800EF900002F0A3E4F07F05FE12BD80900033
:10ACD80002E0FEA3E04FFF900002EEF0FEA3EFF0CB
:01ACE8002249
:10B59400900002EEF0A3EFF07D54E4FFFE12B4C27B
:10B5A4007D577F017E0012B4C27D387F027E001277
:10B5B400B4C27D387F037E0012B4C2900002E0FD65
:10B5C4007F047E0012B4C2900002A3E0FD7F057EDA
:04B5D4000002B4C2FB
:08C267007F067E0012BD80225B
:09C1F300AD077F067E0002B4C214
:08C26F007F097E0012BD802250
:09C1FC00AD077F097E0002B4C208
:07C277007F0A7E0012BD806A
:01C27E00229D
:10A2A700E4900003F0900002F0900002E075F011D6
:10A2B70090802F1249FAE493124A8BA2DE00A2EA99
:10A2C70001A2F302A2FC03A30504A30E05A317062C
:10A2D700A320070000A327900003E0FD7F0A7E006C
:10A2E70002B4C2900003E04401F08034900003E020
:10A2F7004402F0802B900003E04404F08022900099
:10A3070003E04408F08019900003E04410F0801047
:10A31700900003E04420F08007900003E04440F001
:08A32700900002E004F08081C7
:07C27F007F0D7E0012BD805F
:01C286002295
:09C20500AD077F0D7E0002B4C2FA
:0AC1E800EF2412FFE433FE12BD80C5
:01C1F200222A
:09C20E00EF2412FF7E0002B4C20D
:09C21700AD077F0F7E0002B4C2E6
:07C287007F0C7E0012BD8058
:01C28E00228D
:09C22000AD077F0C7E0002B4C2E0
:08C28F007F387E0012BD802201
:09C22900AD077F387E0002B4C2AB
:08C297007F377E0012BD8022FA
:09C23200AD077F377E0002B4C2A3
:10BCE500E4FD7FADFE12B4C2E4900102F0FD7F08D1
:10BCF500FE12B4C2E4FD7F0EFE12B4C212698112B7
:07BD0500ABBF7F01028D0BB3
:10BF9D009291D290120012C29022124A068E827590
:0EBFAD0083001246C2FF22EFF0A3EDF0A322A4
:0BB4C200900028EEF0A3EFF0A3EDF0E7
:10B4CD00900028E0FEA3E07807CEC313CE13D8F981
:10B4DD0044A054FE90002BF012C0C790002BE0FF4B
:10B4ED0012AA87900028A3E0FF12AA8790002AE0F5
:0CB4FD00FF12AA871200167F0202C099FD
:04BD8000AD07AC0659
:10BD8400ED7807CEC313CE13D8F944A054FEFF12A6
:10BD9400B8C7900033EFF07F0212C099900033E0EF
:01BDA400FF9F
:01BDA500227B
:08B8C700900034EFF0A3EDF056
:10B8CF0012C0C7900034E0FF12AA87900035E0FF46
:10B8DF0012AA8712C0C7900034E04401FF12AA8752
:10B8EF0012BB4C900036EFF0120016900036E0FFBE
:01B8FF002226
:10BDA60090005512BFB4EBF012C0C7900055E0FFEB
:10BDB60012AA87900056E0FF12AA87900057E0FF6C
:06BDC60012AA870200161C
:08B75E0090003412BFB4EBF0BF
:10B7660012C0C7900034E0FF12AA87900035E0FFB0
:10B7760012AA87E4900038F0900037E0FFA3E0C3F8
:10B786009F5010900036E0FF12AA87900038E00420
:06B79600F080E502001640
:09B65E0090005512BFB4124A26F7
:10B6670012C0C7900055E0FF12AA87900056E0FF6E
:10B6770012AA87E490005BF090005AE0FFA3E0FE77
:10B68700C39F501190005712BFA712AA8790005B63
:08B69700E004F080E30200165C
:09B90000900021EFF0A3124A2689
:10B9090012C0C7900021E0FF12AA87E4900026F038
:10B91900900025E0FFA3E0FEC39F50119000221282
:10B92900BFA712AA87900026E004F080E302001660
:0100120022CB
:10C0C700D291120012D290120012C291120012C223
:02C0D7009022B5
:0D001600C291120012D290120012D291225B
:10AA8700C290EF30E703D38001C312BF9DEF30E6DA
:10AA970003D38001C312BF9DEF30E503D38001C309
:10AAA70012BF9DEF30E403D38001C312BF9DEF3087
:10AAB700E303D38001C312BF9DEF30E203D38001CC
:10AAC700C312BF9DEF30E103D38001C312BF9DEFD7
:10AAD70030E003D38001C312BF9DC290C290D291D0
:09AAE700D290D290D290C29022CC
:10BB4C00E4FFD291120012C290FDFCD290EF25E0DE
:10BB5C00FF3091034401FFC2900DBD00010CED6458
:0FBB6C00084C70E7120012D290D290D290C29083
:01BB7B0022A7
:106B6E000D0A504F52000D0A4D454E55000D0A4963
:106B7E004E000D0A5550000D0A444E000D0A5345A5
:106B8E004C000D0A4552524F52000D0A504F5745B8
:106B9E0052206B657920000A0D62757377203020C4
:106BAE00312037452038300D0A000A0D6275737793
:106BBE00203020312037452038310D0A000A0D6271
:106BCE00757377203020312037452038320D0A007A
:106BDE000A0D627573772030203120374520383307
:106BEE000D0A000A0D62757377203020312037456B
:106BFE002038340D0A000A0D62757377203020316B
:106C0E002037452038350D0A000A0D62757377203E
:106C1E003020312037452038360D0A000A0D6275B6
:106C2E007377203020312037452038370D0A000A7F
:106C3E000D62757377203020312037452038380D9E
:106C4E000A000A0D627573772030203120374520F7
:106C5E0038390D0A000A0D62757377203020312005
:106C6E0037452038410D0A000A0D627573772030C2
:106C7E0020312037452038420D0A000A0D62757307
:106C8E0077203020312037452038430D0A000A0D79
:106C9E0062757377203020312037452038440D0A35
:106CAE00000A0D6275737720302031203745203869
:106CBE00450D0A000A0D627573772030203120379A
:106CCE00452038460D0A0054726967676572466C36
:106CDE0061673D2530327820205072696F72697479
:106CEE00793D25303278000D0A4D454E554B4559AC
:106CFE00206B657920000D4F53445F4C4F434B0082
:106D0E000D0A4556454E544B4559206B65792070FA
:106D1E00726573736564000D0A5B4D53475D43687E
:106D2E0065636B4B6579496E28293D3E2049735248
:106D3E00756E32383335436C6B54756E653D256216
:046D4E007800202089
:107A49004101490041014E0041014C0041014A00F8
:107A590041014D0041014F0041014800C11601702B
:037A690000C11841
:10C0D900E5A0F454906490227C007D0AAE020247E8
:01C0E9001343
:0EC1780012C2ADEF30E10302002E12BA832294
:0DC1860012C2ADEF30E1057F011270EE2214
:0DC1930012C2ADEF30E1057F021270EE2206
:10C02D0012C2ADEF30E10B3020057F010282090213
:0BC03D0075D27F0112877C12957E22D5
:10C0480012C2ADEF30E10B3020057F0202820902F7
:0BC05800002E7FFF12877C12957E22D5
:10916200900004EFF0A3EDF012C1B9900004E012F8
:109172004A8B91E60091E60191E60291E60391E6BF
:109182000491E60591E60691E60791E60891E60963
:1091920091B70C920C1092111191F715922416911D
:1091A200ED2091F22191CB3891D43A92323E92162F
:1091B2003F0000923974FF900108F0A3F09000057F
:1091C200E060037F01227F002212BEE51296427FF9
:1091D200012212C2ADEF30E40512C0B18003129336
:1091E200157F0122900005E07F012212C18680478F
:1091F20012C1938042900005E060037F012212C2F7
:10920200ADEF30E1321275D2802D12C02D802812BE
:10921200C0488023900005E060037F012212C178DC
:10922200801512C2ADEF30E10E7FF412923C80073E
:0A9232007D017FC0122DE07F0122B4
:104AEB009000017401F0301826201623C3E565955C
:104AFB0074FFE5649573FEE5639572FDE562957150
:104B0B00FCE47B0AFAF9F8D31249605002C2187F11
:104B1B000112AF6B900002EFF07003024F60E024C4
:104B2B00F8601C24F8602024F0602424E060282422
:104B3B00C0602C247C70307BFF7A6B796E802E7B6F
:104B4B00FF7A6B797480267BFF7A6B797B801E7B77
:104B5B00FF7A6B798080167BFF7A6B7985800E7B71
:104B6B00FF7A6B798A80067BFF7A6B799012BD0C8A
:104B7B007FAC7E0012BD80900003EFF012C0D970A5
:104B8B0053E070507FD07E0712B47A12C0D9600800
:104B9B0090014EE06403703C7D017FAC7E0012B44B
:104BAB00C29000037401F0FF128C29E4900002F014
:104BBB007FD07E0712B47A900139E030E505128878
:104BCB0079800F12C169E490014BF090014EF01205
:104BDB009315C207900139E0600C900002E064105D
:104BEB006004E4024E1990014BE07013900003E057
:104BFB00700D90014EE06007E4F07F0112BF7F90D3
:104C0B000002E0601BA3E0701712C0D96012900184
:104C1B0039E0700C12B0C8E4124F89C2077F012231
:104C2B0012C1B9900002E0124A8B4EE8024C5404B8
:104C3B004D77084F330C4E40104DD6204DF3404E60
:104C4B0022804EF09000004F607BFF7A6B799812B8
:104C5B00BD0C201603024D2AE570C3940F4005E4EA
:104C6B00F57080020570E570124A8B4CAF014CB7A2
:104C7B00024CBF034CC7044CCF054CD7064CDF0787
:104C8B004CE7084CEF094CF70A4CFF0B4D070C4D4A
:104C9B000F0D4D170E4D1F0F00004CA77BFF7A6BAE
:104CAB0079A580767BFF7A6B79B8806E7BFF7A6B08
:104CBB0079CB80667BFF7A6B79DE805E7BFF7A6BCC
:104CCB0079F180567BFF7A6C7904804E7BFF7A6C8E
:104CDB00791780467BFF7A6C792A803E7BFF7A6C52
:104CEB00793D80367BFF7A6C7950802E7BFF7A6C16
:104CFB00796380267BFF7A6C7976801E7BFF7A6CDA
:104D0B00798980167BFF7A6C799C800E7BFF7A6C9D
:104D1B0079AF80067BFF7A6C79C212C07E80597B9B
:104D2B00FF7A6C79D5900139E0FF900028E4F0A36D
:104D3B00EFF0900102E0FF90002AE4F0A3EFF012F5
:104D4B00BD0C201223900139E06003024F60FD7F00
:104D5B000C129162900001EFF0E49000EDF0FD7FFA
:104D6B00ABFE12B4C2024F60C212804B7BFF7A6C57
:104D7B0079F512BD0C30160AAF707E0012A64B02ED
:104D8B004F60201241900003E0700D124F897BFFA2
:104D9B007A6D7904E4024F2A12C2ADEF30E10B3089
:104DAB00200280191275D2024F6012C2ADEF30E2B1
:104DBB000C12B0C812B852129315024F607F3F12FB
:104DCB004F7FF0024F607F09024EE020121512C296
:104DDB00ADEF30E1077F01302023801B7F10124F96
:104DEB007F802B7F06024EE020122712C2ADEF30E0
:104DFB00E1117F02302006128209024F601270EE21
:104E0B00024F60E4FD7F11129162900001EFF07F81
:104E1B0001227F07024EE02012169000EEE0700A8E
:104E2B0012C2ADEF30E10312B852129FEA024F608B
:104E3B007F05024EE0900139E0FF6009900102E02E
:104E4B007003024F60EF604690014DE0704090019F
:104E5B0002E0640170387FACFE12BD80EF6401602C
:104E6B0003024F60900139E030E50312C1699001F4
:104E7B004D7401F0900148E07008900137E090010B
:104E8B004FF09001487401F0900137F0803F2012F1
:104E9B004290014DE06017E4900139F090013B74B2
:104EAB0007F0E490014DF0900137F0024F60900055
:104EBB00EEE0700A12C2ADEF30E10312B85290016E
:104ECB0037E0700404F08005E4900137F012AEB7C0
:104EDB00024F607F04126775D217024F607BFF7A17
:104EEB006D790E803E900173E06414706830186524
:104EFB00301614C2167F0112BF7F7D027FA07E0089
:104F0B0012BC38C218800ED2167F0212BF7FAF7050
:104F1B007E0012A64B7BFF7A6D7925A216E43390A7
:104F2B000028F012BD0C802D900173E064177025E2
:104F3B007F0212BF7F7F647E0012B47A124F66121B
:104F4B004F667F0112BF7FD21885657485647385A8
:0A4F5B006372856271900001E0FFAF
:104F6500227F0112BF7F7F647E0012B47A7F021216
:104F7500BF7F7F647E0012B47A22E4FD12916290B5
:104F85000001EF22FF128C297FF412C09912C1692A
:044F9500129315223C
:10AF6B00A20D9221C20D30103AE5307036D22190ED
:10AF7B000144E0FEB40313A3E0B4020EA3E0700A95
:10AF8B00A3E0B401057530408017EEB403139001B4
:10AF9B0045E0B4010CA3E07008A3E0B402037530E4
:10AFAB0020C2102021037F0022EF6003AF3022204C
:07AFBB000C03AF30227F0000
:01AFC200226C
:08A64B00900004EEF0A3EFF013
:10A6530078067C007D017BFF7A6D79507E007F0256
:10A66300124683900004E0FAA3E0FBFF12C0E1ED81
:10A673002430900007F0AF0312C0E1900004EEF025
:10A68300A3EFF02430A3F07BFF7A86791A129BAEF6
:10A693007F1012C29F7D027FA07E0012BC387B0216
:10A6A3007D377FA07E0012BB1B7B017A0079069069
:10A6B30000547402F07FA07E0012BAB77D017F02BE
:08A6C30012B5D87F0102BBDCD7
:107F7A000D0A43485F545732383335282530327852
:107F8A00292C526561644465636F64657228307890
:107F9A003636293D256278000D0A2043485F41564E
:107FAA002825303278290020200A0D000A0D627532
:107FBA00737720302031203745203839000A0D6286
:107FCA00757377203020312037452038390D0A0063
:107FDA00FE00000000000000000000000000000099
:107FEA000001435642530000000000000000000058
:107FFA0000000243414D2044000000000000000040
:10800A00000000034156202000000000000000008C
:10801A000000000000000000000000000000000056
:10802A000000000000FE0000000000000000000048
:10803A00000000000000014E5453430000000000FD
:10804A00000000000000000250414C000000000047
:10805A00000000000000000003534543414D0000AA
:10806A000000000000000000000550414C4D0000D7
:10807A00000000000000000000000650414C4E00C5
:10808A0000000000000000000000000750414C36CC
:10809A00300000000000000000000000044E5453AD
:1080AA0043342E34330000000000000000000000BA
:0E80BA000000000000000000000000000000B8
:107A6C00C10BC104C1024100F500011D004400F628
:107A7C0000000000440103000000004100EF004141
:107A8C0000EA00C185011F00011300011100011261
:107A9C0000011E00011500011400011A004100FE36
:107AAC00004100EB004100F1004100FC004100F4FA
:107ABC0000C1004100FD00C106C101C183C107C165
:017ACC000AAF
:10B5090074F62FF582E43400F58322EF75F011A467
:10B5190024DAF582E4347FF583E49322F074032F6F
:10B52900F582E43401F583229000010246C2E4FB6E
:10B539007DFF7F8A22E4F51BF51CF519F518229089
:06B54900001BE004F022EB
:06B2610090001F124A26B6
:10B26700E4FE1246A9900022F012B5318029900021
:10B277001F124A061246A9FFB4FF0612B531F46041
:10B2870022900023EFF0FD12B531900024F0FB90DF
:10B297000022E0FF12BDA6900020E475F0021247DD
:09B2A7009E80CB12B53702BDA652
:10A5480090001EEFF07BFF7A5D79E412B26112B5DC
:10A558003712BDA690001EE024FE6013146010247C
:10A56800FD600C240624F85011240A600D80117B2C
:10A57800FF7A5F793412B261800690001E7401F090
:10A588009000FBE0B4051390010CE07002800B9082
:10A59800001EE014FF12BFD8800312BEA67B157DF3
:10A5A800297F8A12BDA67B067D5C7F8A12BDA67FA5
:10A5B8000B7E0012BD80128A5E12C26F128D0BC212
:02A5C80023224C
:10C0EA007D017F8A12B8C7EF30E7037F01227F0004
:01C0FA002223
:1094B900E490001BF0A3F09000FBE0B405099001D3
:1094C9000CE0600302956CE4900019F012B0729000
:1094D900001AEFF090001CE004F0E0C3940A400386
:1094E90002956C90001AE0FF64FE60E09000F0E0E5
:1094F900FEEF6E60D7900019E0FFA3E0FEB5070606
:10950900A3E004F0800AE490001BF0900019EEF04B
:1095190090001BE0C3940240B390001AE0FF700B67
:1095290012B93990001D7401F080309000F0E0709C
:10953900119000EEE0700630070312C16912956DB3
:1095490080149000EEE0700630070312C16912958D
:109559006D7F3212C099E490001DF090001DE02447
:03956900FF920A64
:10956C002290001AE0FF12B93990001AE0FF12A500
:02957C00482283
:10BE830012C0EAEF60037F01227D1C7F8A12B8C7CC
:10BE9300EF54F0FF30E7037F0122EF5470C4540FD7
:02BEA30004FF9A
:01BEA500227A
:10AF120012BE83AB07EB24FE601914601624FD6099
:10AF220012240224FC500424077017751B00751CA0
:10AF32003C8006751B00751C32E475196B75183D53
:10AF4200800312B53EF517F516E4FFEF75F011A474
:10AF5200242FF582E43480F583E493FEB5030122C5
:08AF6200EE60030F80E57F00A3
:01AF6A0022C4
:06C2B3009000F0E0FF2204
:10B939009000F0EFF024FE601914601624FD6012E7
:10B94900240224FC500424077017751B00751C3C45
:10B959008006751B00751C32E475196B75183D80DE
:09B969000312B53EF517F5162294
:06C2B9009000FBE0FF22F3
:10BEE5007F0112B514FE9000FBE0FDEE6D60030FBF
:0EBEF50080F00F12B51470027F0112B514FF19
:01BF0300221B
:09C23B00302103D2B722C2B72260
:10964200900018EFF09000FBE06F70030296F49028
:10965200013EE0B4010543E804800312B88D900096
:1096620018E09000FBF09000F0E0FF12A548900097
:10967200FBE024FD60202402703A12BE171296F518
:10968200C2957D667F8A12B8C790002AEFF07BFFF1
:109692007A7F797A800E12BE3B1296F5D2957BFFC5
:1096A2007A7F79A29000FBE0FF900028E4F0A3EF1C
:1096B200F012BD0C12AFC39000FBE0FF12C2177F85
:1096C2001E12C0991294B912931590013EE0B40192
:1096D2000553E8FB8005E4FF12A21E7F6412C099C5
:1096E2007BFF7DD07F8A12BDA67BFF7DD17F8A1250
:0D96F200BDA622C21BE4FF12877CC2942299
:0DC1A000C22112C25643E804E4FF02BF7F33
:0CC1B90012B79C900108EEF0A3EFF022FA
:09C24400900108E0FEA3E0FF22D6
:108DEC00C374FF9FFFC39400400CEF94645007E4DE
:108DFC00900002F0804BEFC39464400DEF948C50C4
:108E0C00089000027414F08038EFC3948C400DEF7E
:108E1C0094B450089000027428F08025EFC394B4E9
:108E2C00400DEF94DC5008900002743CF08012EF7F
:108E3C00C394DC400CEFD394FF5006900002744BAB
:108E4C00F090014AE0702C9000F5E0C3940F5005AF
:108E5C00E004F08024900002E0FFE51DD39F400465
:108E6C00151D8008E51DC39F5002051DE49000F5FB
:108E7C00F08006900002E0F51D7DFF7F8A12B8C7D6
:108E8C00900001EFF012B53712BDA67DBE7F8A129D
:108E9C00B8C7EF54CF4410FB7DBE7F8A12BDA67DB0
:108EAC00C47F8A12B8C7EF5480451DFB7DC47F8AEE
:0F8EBC0012BDA6900001E0FB7DFF7F8A02BDA6DC
:10C11D00E490013DF090010BF090013B7408F0228A
:108677007FAB7E0012BD809000EDEFF07FB07E00F3
:1086870012BD809000EEEFF07FAA7E0012BD8090B1
:108697000133EFF07FAD7E0012BD80900102EFF055
:1086A7007FA07E0012BD8090014AEFF07FB87E0068
:1086B70012BD809000FFEFF07FB77E0012BD809063
:1086C70000FAEFF07FB97E0012BD809000ECEFF06A
:1086D7007FBF7E0012BD80EF24FF92097FC57E0019
:1086E70012BD80900101EFF07FAF7E0012BD809038
:1086F7000137EFF07FA5128774EE9001347006E022
:108707004401F08004E0540EF07FA6128774EE90C7
:1087170001357006E04401F08004E0540EF07FA7B5
:108727007E0012BD80AE07EE9001367006E0440170
:10873700F08004E0540EF07FA87E0012BD80AE07E3
:10874700EF9001387006E04401F08004E0540EF029
:1087570012C28F900173EFF012C297900174EFF07D
:0C8767007FB27E0012BD809000F3EFF0A6
:09877300227E0012BD80AE072237
:10744F007BFF7A7F79B112C07E9000EEE070491217
:10745F00C2ADEF20E142300A2920073CD207E49069
:10746F0000F2F07FA3FE12BD80EF700990016FE074
:10747F0054EFF080069000F27403F07F06128C290F
:10748F00801630071312C2ADEF20E60CC2077FA3A0
:10749F007E0012BD80129315126D52900000EFF016
:1074AF001262FD900139E0701B90013DE060159074
:1074BF000133E0FF90010BE0C39F400812BDF2E4DF
:1074CF0090010BF090014AE0700E7DC97F8A12B8CF
:1074DF00C7900000EFF080027FFF128DEC124AEB95
:1074EF00EF70030275D19000F2E06401707312C265
:1074FF00ADEF20E16C12C2ADEF20E2657FA37E00FD
:10750F0012BD80EF605B900139E070509000EEE0AB
:10751F00700FFD7F0212B5D890016FE054EFF0802D
:10752F003B900134E0540DF0900135E0540DF09094
:10753F000136E0540DF0900138E0540DF012AC25F7
:10754F00900134E04402F0900135E04402F09001E4
:10755F0036E04402F0900138E04402F0E49000F28B
:10756F00F0129D9012C2B9EF1424FD5002800A123E
:10757F00C2ADEF20E1031294B9900171E0B401059F
:10758F0053E8FBE4F0900171E0B4020343E8087D97
:10759F00B27F8A12B8C7EF60030274587BB07DFDCB
:1075AF007F8A12BDA6E4FF12BF7F7FF47E0112B463
:1075BF007A7F0112BF7F7B307DFD7F8A12BDA602CD
:0275CF007458EE
:0175D1002297
:10ADA500C2B5C22112C2567F0A7E0012B47AC2B45D
:10ADB50012B2127F0112BF7F12BF6112C11D12A113
:10ADC500931284517F0A7E0012B47A12867790011D
:10ADD50037E090014FF07FA97E0012BD8012B34B82
:10ADE500E4900139F07BFF7A7F79B612C07E90003E
:0CADF500EDE0600312744F12A32F80F2F7
:10A32F00E4900002F0126D52900001EFF0601BE01C
:10A33F00FF1262FD90013BE0B40803D38001C340DC
:10A34F00197F0112A21ED221800D900001E0FF1291
:10A35F0062FD12C1A0C22112C256E4FF12AF6B9070
:10A36F000000EFF060BFE0B404BB126D52EF70B5A8
:10A37F009000ED04F0FD7FAB7E0012B4C212931576
:10A38F0012AC257FA37E0012BD80BF01069000F2A4
:10A39F007403F0C2077F0112A21ED22112C2567B94
:08A3AF00FF7A7F79C702C07E2E
:1080C800900102E0600A640170359000EAE0702FC8
:1080D800300503028208D205E490001BF090001BD3
:1080E800E0FFC39404500E12B509E412B525E4F07C
:1080F80012B54880E8E49000EFF09000EAF022C260
:10810800059000EAE0FF9000EFE0FED39F406AEEA2
:108118009F90001CF0E490001BF090001CE0FF9082
:10812800001BE0C39F504AE4FF12B526E0FE12B5DB
:1081380009E06E600B90001DEE12B525E4F0800595
:108148000FEFB404E4E4FF12B509E0FE90001DE06F
:10815800FDEED39D401012B509E014F012B509E008
:10816800FE12B526EEF00FEFB404DC12B54802811A
:10817800229000EAE09000EFF09000EFE090001C01
:10818800F0A37405F0E490001BF090001BE0FFC31F
:108198009404502812B509E0FF90001CE0FEEFB5EA
:1081A800061590001BE0FF90001DF0EEB4010DEFE6
:1081B800049000FDF0800512B54880CE7F0112C002
:1081C8009990001DE014600D14600F1460142403CE
:1081D8007025E48025E4F5148022E4F514F515C231
:1081E8001922E4F514F515F51A9000EBE064066021
:1081F8000FE49000F4F022E4F514F515F51AC2190D
:018208002253
:10856B00A10AA20AA000A310A410A591A601A7011D
:10857B00A822A910AA00AB62119E00000100CC0C2E
:10858B0002700000005000000F4000119E303100BF
:10859B00AFC81202F1100800500030004000119ECD
:1085AB003100029000040170000000A0F5000F40A4
:1085BB0000119E3100029000030170000000F0F5E5
:1085CB00000F4000119E3230000C0D0A01B1040463
:1085DB000050C800044000119E313000160D0F02F0
:1085EB003101000050A0000840119E3330100C9850
:1085FB0028013101000000B400084000119E313009
:10860B00000C020F023101000050A00008400011C5
:10861B009E3130000A0502013101000050A0000814
:10862B004000119E32300040090204B1000890E076
:10863B0000043340119E3130008A091808B08A05B6
:10864B00B05026083340119E30B40040270201F190
:10865B00000000E0000033C100119E303C10906020
:0C866B001502F102044050C80036C100A6
:10A3B700900051FFE475F001124A0FEF0246EF904B
:10A3C700004FE0FEA3E0FF22EF14FB7D9E7F8A2271
:10A3D70090001C124A0690001FE0F5827583000268
:10A3E70046C2E0A4FFA3E5F0F0A3EFF07DA07F8ACB
:10A3F7002290005BE0FCA3E0FD22EEF0A3EFF0A3C8
:10A4070022124713900059EEF0A3EFF04E22A3E07B
:10A41700FB7D967F8A2212471390004FECF0A3ED45
:10A42700F022F07B047D947F8A22EDF0EFC3940144
:08A4370022E4FB7D947F8A22E0
:10BC0B0012BC2D900028F0E4A3F012BC2DFF900085
:10BC1B0028E06F700C900029E004F0E0C3940A4018
:01BC2B00E92F
:0CBC2C00227D957F8A12B8C7EF54402299
:10AE0100E490000EF0E490000DF090000DE0FFC31F
:10AE11009408502FA3E075F008A4FEEF2E7D9C123C
:10AE2100AE51FFA3E075F0089018EE1249FAE582E1
:10AE31002FF582E43583F583E4937D9D12AE5104B1
:0FAE4100F080C790000EE004F0E0C3940240B62A
:0CAE500022FB7F8A12BDA690000DE022BC
:10ACE900900003EFF0A3124A2612AD3744017D9478
:10ACF90012AD40900003E07D9912AD407DE07F8A5E
:10AD090012B8C7EF4410FB7DE07F8A12BDA6900000
:10AD190004124A0690005A741BF07D9A7F8A12B673
:10AD29005E12AD3754FEFB7D947F8A02BDA67D94E9
:0EAD39007F8A12B8C7EF22FB7F8A12BDA622C6
:10B9AB007B607D9B7F8A12BDA6E4900002F0900025
:10B9BB0002E0FFC394E2501FEF94C6501AEF75F0EC
:10B9CB001BA424FEF9741835F0FA7BFF12ACE99036
:07B9DB000002E004F080D738
:01B9E2002242
:03B6E000900015C2
:10B6E30012A4314036EFD39408503012A3CF12BDC9
:10B6F300A690001575F00812A3E912B8C7EF54F02D
:10B70300FD900016E04DFB7DA07F8A12BDA6900040
:0BB7130016A3E0FB7DA17F8A12BDA6FB
:01B71E002208
:03B61C0090001586
:10B61F0012A4314039EFD39408503312A3CF12BD87
:10B62F00A690001575F00412A3E912B8C7EF540FD6
:10B63F00FD900016E0C454F04DFB7DA07F8A12BD33
:0EB64F00A6900016A3E0FB7DA27F8A12BDA686
:01B65D0022CA
:05BBDC0090001EEFF0D7
:10BBE10012BC0B7D9C7F8A12B8C790001FEFF090AA
:10BBF100001EE06006A3E054EF800690001FE044C1
:09BC010010FB7D9C7F8A12BDA698
:01BC0A002217
:03B5D80090001EC2
:10B5DB0012A431403BEFD39408503512A3CF12BDC8
:10B5EB00A67D9F7F8A12B8C790001FEFF090001EB8
:10B5FB00E06007A3E04401F0800790001FE054FED9
:10B60B00F012BC0B90001FE0FB7D9F7F8A12BDA642
:01B61B00220C
:10B3E400EFC394014006EFD394084004E4FEFF2227
:10B3F40012A3CF12BDA67DA07F8A12B8C7EF540F47
:10B40400900028F0A3E4F07DA17F8A12B8C79000D1
:10B4140028E0F0A3E04FF0900028E0FEA3E07803DA
:0AB42400CEC313CE13D8F9FF7E004B
:01B42E0022FB
:10B01B00EFC394014006EFD394084004E4FEFF22F3
:10B02B0012A3CF12BDA67DA07F8A12B8C7EF54F032
:10B03B00C4F8540FC868FEE4C454F048900028F0DC
:10B04B00A3CEF07DA27F8A12B8C7900028E0F0A3B0
:10B05B00E04FF0900028E0FEA3E07802CEC313CEC1
:06B06B0013D8F9FF7E007E
:01B0710022BC
:10BAB70090004F12A401124A2612A42A12BDA69082
:10BAC700004F12A41512BDA6900051124A0690000D
:10BAD70054E090005AF07D977F8A12B65E12A43820
:03BAE70002BDA6F7
:10BB1B0090003012A401EDF0A3EB12A42912BDA6E4
:10BB2B0090003012A41512BDA6900032E0FBA3E0EA
:10BB3B00900037F07D987F8A12B75E12A43802BD51
:01BB4B00A653
:10BC380090003012A401ED12A42912BDA690003084
:10BC480012A41512BDA6900032E0900037F07B20B8
:0DBC58007D977F8A12B75E12A43802BDA648
:0983300090004F12A401124A262C
:10833900900056124A26E4900055F0900054E064EB
:108349000A707990005B7427F0A37410F012A3F8F7
:10835900C3940AEC9400405612A3C612A4086012F2
:10836900900059A3E0243012A3B7900055E004F01F
:108379008015900055E0600F900051E475F00112EE
:108389004A0F74301246EF12A3C690005BE0FAA3BD
:10839900E0FBFDAC0212A41D7D0A7C00AF03AE0216
:1083A90012471390005BEEF0A3EFF00283569000A2
:1083B9004FA3E02430A312A3BA028444900054E0EE
:1083C9006410600302844E90005B7410F0A3E4F023
:1083D90012A3F8C39410EC9400404412A3C612A44B
:1083E900086028900059E0FEA3E0FFC3940AEE94C8
:1083F900004005EF24378007900059A3E02430128C
:10840900A3B712A3C612A3F812A41D90005BE0C47F
:10841900F854F0C868F0A3E0C4540F48F080B112D2
:10842900A3C6C3940AEE94004005EF243780079051
:10843900004FA3E02430FFA312A3BB900051124ABE
:0784490006E41246EF7F017B
:018450002209
:06C0630090004F124A2676
:10C06900E4FF90004FE475F001124A0F1246A960EF
:04C07900030F80EE43
:01C07D0022A0
:069BAE0090001C124A2683
:109BB4007DFF7F8A12B8C7900020EFF054FEFB7D32
:109BC400FF7F8A12BDA67DE07F8A12B8C7EF54EFEB
:109BD400129C3DE490001FF012A3D7FF6042900056
:109BE4001FE02401FDE433FC90001C124A06E92D19
:109BF400F9EA3CFAEF129C4690001FE02401FFE4CE
:109C040033FE90001C124A06E92FF9EA3EFA740565
:109C1400129C4612A3D704FF90001FE02FF080B8D7
:109C24007DE07F8A12B8C7EF4410129C3D9000205B
:099C3400E0FB7DFF7F8A02BDA662
:109C3D00FB7DE07F8A12BDA622900025F07F8A125F
:039C4D00B9002239
:100066000A0D6D6F646520300A0D000D0A5B4D5355
:10007600475D536574345769646553637265656E8D
:100086002829203D3E2053637265656E20746F20DB
:10009600343A33202121000A0D6D6F646520320A3F
:1000A6000D000D0A2B2B284F5344486967684D6590
:1000B6006E755F73756229204F53444D656E754C9E
:1000C6006576656C3A2564000D0A52455345545FC2
:1000D6004D6F6E69746F7256414C5545000A0D7925
:1000E600766D697820340A0D000A0D79766D697887
:1000F60020300A0D000A0D79766D697820310A0DD7
:10010600000A0D79766D697820320A0D000A0D799C
:10011600766D697820330A0D00436865636B205657
:100126004741204361626C65004F7574204F66201D
:1001360052616E676500FE62596B62714C2F713AAF
:1001460034FF001213566F6C756D65002020204138
:1001560075746F2041646A757374696E67202E2EFC
:100166002E2E20202000436F6D706F73697465001A
:1001760056657273696F6E004C4344205665727300
:10018600696F6E004456522056657273696F6E0031
:10019600574946492049500057494649204D414351
:1001A6000047415445574159004F534420506F73FF
:1001B6006974696F6E004F534420506F73696369A9
:1001C6005F6E004F534420FE5465714667FF004C36
:1001D600616E6775616765004C616E677565005392
:1001E600707261636865004964696F6D6100FE57EE
:1001F60056714667FF004272696768746E6573736D
:10020600004C756D696E6F7369745F0048656C6C40
:1002160069676B656974004272696C6C6F00FE40B9
:1002260024715F60FF00436F6E74726173740043E4
:100236006F6E747261737465004B6F6E7472617366
:100246007400436F6E74726173746500FE394F718A
:100256005F60FF0053617475726174696F6E00535D
:10026600AA74746967756E67005361747572616309
:10027600695F6E00FE4A2C33715F60FF004875654A
:1002860000546F6E616C69745C0046617262650051
:10029600546F6E616C6964616400FE4A5448715F14
:1002A60060FF0053686172706E6573730041637519
:1002B60069745C00536368AA726665004167756479
:1002C600657A6100FE463933715F60FF00526573DF
:1002D600657400445C66617574004772756E64658A
:1002E600696E7374656C75670050726564657465D4
:1002F600726D696E6163695F6E00FE66246DFF0054
:10030600576964652053637265656E0057494445B5
:1003160020FE6D3B714667FF004D6972726F720079
:100326004A756D70005345512054696D65205374AC
:100336006570004A756D702041560043616D204F0F
:1003460075740052657475726E00526563616C6CEB
:10035600004D6F6E69746F7220526563616C6C003C
:1003660044565220526563616C6C0045786974008E
:1003760020007665722041302E30380054696D6554
:100386004F757420536574757000476175676520F5
:1003960053657475700047617567652052656361C2
:1003A6006C6C005052494F5249545900526576655B
:1003B6007273204D6F6465005265736F6C75746956
:1003C6006F6E00465053005175616C697479005226
:1003D60065636F7264204D6F6465005265636F726A
:1003E60064204C656E677468005072652D616C619F
:1003F600726D00506F73742D7265636F7264004185
:1004060070706C79005265636F72645374617274B4
:10041600005265636F726453746F7000536E61703F
:1004260073686F7400446174652054696D65005982
:10043600656172004D6F6E74680044617900486FA3
:100446007572004D696E00536563004461796C698D
:10045600676874536176696E6700426567696E65A1
:1004660000456E64005765656B0054696D65005400
:10047600696D65205A6F6E650052657475726E26D9
:100486004170706C7900466F726D61742053442020
:100496004361726400417564696F205265636F72CF
:1004A60064004669726D7761726520557064617487
:1004B6006500596573004E6F004669727374204E6D
:1004C600756D626572005365636F6E64204E756D5F
:1004D600626572005468697264204E756D62657259
:1004E60000466F75727468204E756D6265720043C2
:1004F60068616E67652050617373776F7264004F31
:1005060076657257726974650044697220496D6137
:1005160067650054726967676572205647410054E3
:100526007269676765722044656C617900496E6619
:100536006F726D6174696F6E0055706461746520C9
:10054600436F6E66696700534420636F7665722059
:100556004465742E0043414D20410043414D2042E5
:100566000043414D20430043414D205200446973EE
:10057600706C61790044565220446973706C6179DD
:100586000044697374616E63652047617567650031
:100596004F5344204C6F636B0050617373776F72D7
:1005A6006400536F75726365205469746C6500430B
:1005B600564253204100435642532042004356427E
:1005C60053204300435642532052004175746F2016
:1005D600446179264E696768740044697220496DE2
:1005E6006167650044697220496D61676520410055
:1005F60044697220496D6167652042004469722032
:10060600496D6167652043005265617220536574C8
:1006160075700043414D20410043414D2052004337
:10062600414D20420043414D20430043414D20446B
:10063600000200456E676C697368004672616E7BE6
:10064600616973004465757473636800457370610E
:100656007E6F6C00FE6A2356FF200004014D6F6416
:100666006531004D6F646532004D6F64653300552A
:10067600736572004D6F646531004D6F64653200BD
:100686004D6F64653300557361676572004D6F6425
:10069600757331004D6F64757332004D6F647573F9
:1006A600330042656E75747A6572004D6F646F3102
:1006B600004D6F646F32004D6F646F330055737574
:1006C6006172696F00FE3A34FF3100FE3A34FF3240
:1006D60000FE3A34FF3300FE47515B71FF200008ED
:1006E600004175746F004E5453430050414C005303
:1006F6004543414D004E545343342E34330050414C
:100706004C4D0050414C4E0050414C3630000500D7
:100716004E6F726D616C00576964650050616E6F53
:1007260072616D610046756C6C000500FE1A1BFF58
:100736002000FE1C1DFF2000FE1E1DFF2000FE1FC8
:1007460020FF2000FE1F21FF200009004F666600E3
:1007560043433100434332004343330043433400B1
:1007660054310054320054330054340002004F4ECA
:10077600004F46460002004D4952524F52004E4F1E
:10078600524D414C000300446179004155544F00DD
:100796004E6967687400020031363A3900343A33DC
:1007A600000200004F4E004F464600040053494EDB
:1007B600474C45004455414C00545249504C450065
:1007C600412B422C422B410007004100412B4200A5
:1007D600412B4300412B5200412B424300412B4207
:1007E6005200412B43520007004200422B41004277
:1007F6002B4300422B5200422B414300422B4152D5
:1008060000422B43520007004300432B4100432B79
:100816004200432B5200432B414200432B415200DE
:10082600432B4252000A005200522B4100522B42E7
:1008360000522B4300522F414200522F4143005297
:100846002F424300522B414200522B414300522B70
:100856004243000E00515541440053455100412B7F
:100866004200432B5200412B5200522B4200412B97
:100876004300432B4200522F414200522B4142007B
:1008860041004200430052000500515541440043D7
:10089600414D410043414D420043414D43004341D8
:1008A6004D5200020000373230783438300033358C
:1008B60032783234300005000035003130003135F1
:1008C600003230003235003330000500004C6576CA
:1008D600656C2D31004C6576656C2D32004C657665
:1008E600656C2D33004C6576656C2D34004C657651
:1008F600656C2D35000300004E6F6E65004E6F72FD
:100906006D616C00416C61726D0006000031202043
:100916006D696E003220206D696E003320206D698E
:100926006E003420206D696E003520206D696E00E2
:100936003130206D696E0005000031352073656326
:10094600003330207365630036302073656300081A
:100956000000313520736563003330207365630012
:100966003630207365630002000044697361626C6F
:100976006500456E61626C6500040000466972732D
:1009860074005365636F6E64005468697264004650
:100996006F75727468000400410042004300520003
:1009A6001900002D3132002D3131002D3130002D4E
:1009B60039002D38002D37002D36002D35002D3409
:1009C600002D33002D32002D310030003100320071
:1009D6003300340035003600370038003900313036
:1009E6000031310031320002005020004420000363
:1009F6000032343030003438303000393630300090
:100A06000200FE1819FF2000FE1A1BFF200004003A
:100A1600FE1C1D1E1F2021FF2000FE222328292A3E
:100A26002BFF2000FE242528292A2BFF2000412BFE
:100A3600422C422B41000E00FE262728292A2BFF96
:100A4600200053455100412B4200432B5200412BBD
:100A56005200522B4200412B4300432B4200522F9F
:100A6600414200522B4142004100420043005200E5
:100A760056474100FF0176FF0176FF0176FF0176BA
:100A8600FF0176FF017EFF017EFF017EFF017EFFF3
:100A9600017EFF018AFF018AFF018AFF018AFF01A9
:100AA6008AFF0196FF0196FF0196FF0196FF0196C8
:100AB600FF019EFF019EFF019EFF019EFF019EFF1B
:100AC60001A7FF01A7FF01A7FF01A7FF01A7FF01DC
:100AD6001FFF012FFF012FFF012FFF012FFF013CF9
:100AE600FF0149FF01AFFF01AFFF01AFFF01BCFFEF
:100AF60001C9FF01D5FF01DEFF01E5FF01EDFF01A1
:100B0600F4FF01FCFF0207FF0212FF021DFF022491
:100B1600FF022CFF0235FF023FFF0248FF0252FF91
:100B2600025AFF025AFF0265FF026FFF027AFF02B6
:100B360083FF0287FF0290FF0296FF02A0FF02A931
:100B4600FF02B3FF02BAFF02C2FF02CAFF02D3FFCF
:100B560002D9FF02E0FF02EFFF0300FF031FFF03BE
:100B66001FFF031FFF031FFF031FFF0326FF0326AD
:100B7600FF0326FF0326FF0326FF032BFF032BFF9E
:100B8600032BFF032BFF032BFF0341FF0341FF034F
:100B960041FF0341FF0341FF0339FF0349FF0349B7
:100BA600FF0349FF0349FF0349FF0350FF0350FFBB
:100BB6000350FF0350FF0350FF0357FF0357FF0384
:100BC60057FF0357FF0357FF0366FF0366FF0366DE
:100BD600FF0366FF0366FF0371FF0371FF0371FFE7
:100BE6000371FF0371FF0573FF0573FF0573FF05AF
:100BF60073FF0573FF057BFF057BFF057BFF057B09
:100C0600FF057BFF0587FF0587FF0587FF0587FF34
:100C16000587FF0596FF0596FF0596FF0596FF05D6
:100C260096FF059FFF059FFF059FFF059FFF059FF9
:100C3600FF05A8FF05A8FF05A8FF05A8FF05A8FF53
:100C460005B5FF05B5FF05B5FF05B5FF05B5FF05FC
:100C5600BCFF05BCFF05BCFF05BCFF05BCFF05C30B
:100C6600FF05C3FF05C3FF05C3FF05C3FF05CAFF95
:100C760005CAFF05CAFF05CAFF05CAFF05D1FF055C
:100C8600D1FF05D1FF05D1FF05D1FF05E0FF05E046
:100C9600FF05E0FF05E0FF05E0FF05EAFF05F6FFBB
:100CA6000602FF060EFF060EFF060EFF060EFF06E5
:100CB6000EFF0619FF0619FF0619FF0619FF06198A
:100CC600FF0625FF0625FF0625FF0625FF0625FF4D
:100CD600062BFF062BFF062BFF062BFF062BFF0618
:100CE6001FFF061FFF061FFF061FFF061FFF063119
:100CF600FF0631FF0631FF0631FF0631FF0376FF9F
:100D06000378FF0382FF0390FF039CFF03A9FF0301
:100D1600B2FF0525FF0525FF0525FF0525FF05254E
:100D2600FF055BFF055BFF055BFF055BFF055BFFE3
:100D36000561FF0561FF0561FF0561FF0561FF05AF
:100D460067FF0567FF0567FF0567FF0567FF056D19
:100D5600FF056DFF056DFF056DFF056DFF03BEFF0A
:100D660003C9FF03CDFF03D5FF03E1FF03EFFF0335
:100D7600F9FF0405FF040BFF0417FF0422FF042BF1
:100D8600FF0435FF043AFF0440FF0444FF0449FF13
:100D9600044DFF0451FF0460FF0467FF046BFF046A
:100DA60070FF0475FF047FFF048CFF049BFF04A8FB
:100DB600FF04B8FF04BCFF04BFFF04CCFF04DAFF46
:100DC60004E7FF04F5FF0505FF050FFF0519FF05FD
:100DD60033FF053FFF054DFF0306FF0306FF03062E
:100DE600FF0306FF0312FE6C6F00FE727500FE60C5
:100DF6006300FE787B00FE666900FE848700FE01C4
:100E06000200FE7E8100FE8A8D00FE909300FE9613
:100E16009900FEC0C300FE9C9F00FEA2A500FEA88E
:100E2600AB00FEAEB100FEB4B700FEBABD000000D6
:100E360018031661180216610000FF0C81FFFFFF00
:100E46003200000700B807720000FF0BEBFFFFFF40
:100E56003200000700B907720000FF0C09FFFFFF10
:100E66003200000700BA07720000FF0C18FFFFFFF0
:100E76003200000700BB07720000FF0D11FFFFFFE5
:100E86003200000700CA07720000FF0D14FFFFFFC3
:100E96003200000700D6079C0000FF0BA0FFFFFFF3
:100EA6003200000300F1000000000000000000FF17
:100EB600FF00000000000000180216610000FF0D90
:100EC600B9FFFFFF3200000300F100000000FF0D34
:100ED600B6FFFFFF3200000300ED00000000000037
:100EE600000000FFFF00000000000000180216616D
:100EF6000000FF0DBCFFFFFF32000005002D0E3580
:100F06000000FF0DBFFFFFFF32000005002E0E356B
:100F16000000FF0DC2FFFFFF32000005002F0E3557
:100F26000000FF0DC5FFFFFF3200000500380E353B
:100F36000000FF0DC8FFFFFF3200000300EE0000B7
:100F46000000FF0BA0FFFFFF3200000300F10000CE
:100F560000000000000000FFFF000000000000008D
:100F6600180216610000FF0DBCFFFFFF32000005EE
:100F7600002D0E350000FF0DBFFFFFFF32000005FC
:100F8600002E0E350000FF0DC2FFFFFF32000005E8
:100F9600002F0E350000FF0DC5FFFFFF32000005D4
:100FA60000380E350000FF0DADFFFFFF32000003D5
:100FB60000EB00000000FF0DC8FFFFFF320EF60138
:100FC60000000EF20000FF0BA0FFFFFF320000033F
:100FD60000F1000000000000000000FFFF0000001C
:100FE60000000000180516610000FF0DA7FFFFFFB7
:100FF60032000007002C09A60000FF0D86FFFFFF48
:101006003200000500200E350000FF0D89FFFFFFAE
:101016003200000500210E350000FF0D8CFFFFFF9A
:101026003200000500220E350000FF0D8FFFFFFF86
:101036003200000500230E350000FF0D92FFFFFF72
:101046003200000500240E350000FF0DAAFFFFFF49
:101056003200000300F6000000000000000000FF60
:10106600FF000000000000000000FF0DB6FFFFFFBC
:1010760032000003009B00000000FF0DB9FFFFFFD8
:101086003200000300F1000000000000000000FF35
:10109600FF000000000000000000FF0DB6FFFFFF8C
:1010A60032000003007000000000FF0DB9FFFFFFD3
:1010B6003200000300F1000000000000000000FF05
:1010C600FF000000000000000000FF0DB6FFFFFF5C
:1010D60032000003009E00000000FF0DB9FFFFFF75
:1010E6003200000300F1000000000000000000FFD5
:1010F600FF000000000000000000FF0BBEFFFFFF26
:1011060032109E0100000E360000FF0BCDFFFFFFE0
:101116003210CE0100000E360000FF0BA0FFFFFFCD
:101126003200000300F1000000000000000000FF94
:10113600FF00000000000000180416610000FF0A0E
:10114600A7FFFFFF3600000B00F1000000000000C3
:1011560000FFFFFF3200000C00390E350000FF0AC9
:10116600B6FFFFFF3600000B00F100000000000094
:1011760000FFFFFF3600000C003A0E350000FF0AA4
:10118600C5FFFFFF3600000B00F100000000000065
:1011960000FFFFFF3600000C003B0E350000FF0B82
:1011A600A0FFFFFF3200000300F100000000000076
:1011B600000000FFFF000000000000001804166198
:1011C6000000FF0BAFFFFFFF32000003009B000093
:1011D6000000FF0BDCFFFFFF3200000300F40000FD
:1011E6000000FF0D02FFFFFF3200000B00F40000BD
:1011F6000000FF0D02FFFFFF3200000B00F40000AD
:101206000000FF0D02FFFFFF3200000B00F400009C
:101216000000FF0D02FFFFFF3200000B00F400008C
:101226000000FF0D05FFFFFF3600000B00F4000075
:1012360000000000000000FFFF00000000000000AA
:10124600180516610000FF0D6EFFFFFF3200000754
:1012560000E409100000FF0D74FFFFFF32000007D5
:1012660000E609550000FF0DB0FFFFFF3200000742
:1012760000EC099C0000FF0DAAFFFFFF32000003EF
:1012860000F5000000000000000000FFFF00000065
:1012960000000000180416610000FF0D6BFFFFFF41
:1012A60032124A01000012460000FF0D65FFFFFFE3
:1012B6003200000700E108BC0000FF0D68FFFFFFD9
:1012C6003200000700E208D00000FF0DADFFFFFF6F
:1012D600320F6A0100000F660000FF0DB3FFFFFF2B
:1012E600320EC20100000EBE0000FF0DAAFFFFFF76
:1012F6003200000300F5000000000000000000FFBF
:10130600FF00000000000000180516610000000044
:10131600000000FFFF000000000000001804166136
:101326000000FF0B07FFFFFF3200000400960E359A
:101336000000FF0B16FFFFFF3200000400950E357C
:101346000000FF0B25FFFFFF3200000400970E355B
:101356000000FF0B34FFFFFF3200000400990E353A
:101366000000FF0B43FFFFFF32000004009A0E351A
:101376000000FF0BA0FFFFFF3200000300F100009A
:1013860000000000000000FFFF0000000000000059
:10139600180516610000FF0CB7FFFFFF32000007BB
:1013A60000C107720000FF0CC6FFFFFF32000007F6
:1013B60000C207720000FF0CD5FFFFFF32000007D6
:1013C60000C307720000FF0CE4FFFFFF32000007B6
:1013D60000C407720000FF0BA0FFFFFF32000003EE
:1013E60000F1000000000000000000FFFF00000008
:1013F600000000000000FF0D26FFFFFF3200000482
:1014060000B20E350000FF0D35FFFFFF320000046D
:1014160000B30E350000FF0D44FFFFFF320000044D
:1014260000B40E350000FF0D53FFFFFF320000042D
:1014360000B50E350000FF0BA0FFFFFF32000003D2
:1014460000F1000000000000000000FFFF000000A7
:1014560000000000180516610000FF0C9FFFFFFF4B
:101466003200000700CD07CE0000FF0CA2FFFFFFF1
:101476003200000700CE07ED0000FF0CA5FFFFFFBE
:101486003200000700CF080C0000FF0BA0FFFFFF93
:101496003200000300F1000000000000000000FF21
:1014A600FF00000000000000180816610000FF0B96
:1014B60061FFFFFF32139A0100000E360000FF0D98
:1014C600CEFFFFFF32145E0100000E360000FF0C57
:1014D600A8FFFFFF3200000700C6082B0000FF0B25
:1014E60070FFFFFF3200000700C708590000FF0B1E
:1014F6008EFFFFFF3200000700C8088E0000FF0BBA
:101506007FFFFFFF3200000400C90E350000FF0D0B
:1015160017FFFFFF3213FA0100000E360000FF0B23
:10152600A0FFFFFF3200000300F1000000000000F2
:10153600000000FFFF000000000000000204FF3270
:101546000DEC000000FFFF32FF132601009F13225F
:101556000DF0000000FFFF32FF0E3E0100000E3AC4
:101566000DF4000000FFFF32FF14B201009F14AE1D
:101576000DF8000000FFFF32FF11C601000011C286
:1015860000000000000000FFFF0000000000000057
:101596000000000000FFFF32FF1546010000154263
:1015A60000000000000000FFFF0000000000000037
:1015B60000000064003200020034001A0001002C12
:1015C600001600000037001C000000C70064002D54
:1015D60000D200800000000700030000003F00204A
:1015E600002D00D200800000001F00100019007DB1
:1015F600005A001E00820069FF830018001E0000CA
:1016060000FF0080FF80007F00000000000700034D
:101616000000007F004011111171113B161A0102E2
:1016260001342C342C024B323232323232324B32CB
:1016360032321110131415707174727370717472E2
:101646007378630080800060808080802080808046
:10165600803B68F890900060808080802080808049
:10166600800358F8A0A00060808080802080808061
:101676008003322528282D64323232323232000A73
:10168600006000610062006300660067006800B9E0
:1016960000FC13DBA67B0060000017481BDB807B89
:1016A6000000000017481EF2807C800001B6314819
:1016B60026D58069000000006FDF13D4A691006074
:1016C6000000174821D4809100000000174813F24B
:1016D6008092800001B6344813DC807F0000000051
:1016E600605A14008B7C01500000294814DC807C71
:1016F60000000000294814F2807C800001B62948C9
:1017060014DC805F000000007B5A0C008B940150B3
:1017160000002D480CDC8094000000002D480CF2DF
:101726008094800001B62D480CDC807F000000000C
:10173600605A3AF680FB0050000026483AC380FB08
:101746000000000026483ACC80FB800001B62648FF
:101756003AC380BE00000000705A3FF98029045049
:1017660000002E483FC38029040000002E483FD0C9
:101776008029840001B62E483FC380E8000000009F
:10178600805A28A4806A04500000165A2884806A69
:1017960004000000165A2889806A84350035165AD6
:1017A6002884801C040000006B5A23F9801404501E
:1017B60000001F5A23C88014040000001F5A23F09B
:1017C6008014843501871F5A23C880E70000000073
:1017D600565A202020496E70757420203A20202009
:1017E60020202020202020202020200020202053E0
:1017F600797374656D203A20202020202020202037
:1018060020202020200020202048204672657120BC
:101816003A2020202020206B487A202020202000FB
:10182600202020562046726571203A202020202054
:101836002020487A202020202000202020462F57D4
:10184600205265763A2020202020202020202020AB
:101856002020200000000000000000000000000022
:10186600000000000000000000000000000001026F
:101876000205050403040404040404040404040423
:1018860004040404040404032020201C2020202037
:101896002020202020200020202020202020202062
:1018A6002020002E003A000101010101010102027F
:1018B60002020202020505050505050404040404E6
:1018C6000403202020000404040404032020200034
:1018D6002020202020202020202020002020202022
:0818E60020202020202020001A
:107ACD00410121FF4101220041012700C120C11FB9
:107ADD0041010F004101240041012900410128000D
:077AED0041011C00017900BA
:104F9900D3900011E09400900010E09400227E006C
:104FA900900011E09000105403FFEEF0A3EFF022FF
:104FB90090010DE0FEA3E0F5828E83229000267A0F
:104FC900007927E0FF7E007B0190002F124A267BA3
:104FD900FF22EE900010F0A3EFF02275F0101249B5
:104FE900FA740E93FB740F93900110CBF0A3EBF0BE
:104FF9008F828E83ED75F0101249FA740993FF744C
:105009000A9390010DCFF0A3EFF022900029E0243C
:10501900F1FF900028E034FFFE90002D024A06754A
:10502900F0101249FA740D93227A1579C89000325A
:10503900124A267A1579B62290001F124A06900064
:105049000E1247DFAAF0F97BFF90002D124A269035
:10505900001F024A06900010A3E0FD22E0FDE49043
:105069000035F0A3EDF022E0FF900010E4F0A32258
:1050790090010DE0FEA3E0FFF5828E8322E490000B
:1050890010F0A3F022900028E0FEA3E0FF22E0FE4A
:10509900A3E0FF7B019000547409F02290010DE018
:1050A900FEA3E0FFEE90011DF0A3EFF0A322FD7532
:1050B900F00A84E5F02430F0ED75F00A84227E00D0
:1050C90090012AEEF0A3EFF022E0FEA3E0FF9001A9
:1050D90010E0FCA3E0F5828C832290000EE09000A2
:1050E90010A4FFE5F08FF002479E75F0101249FAFF
:1050F900740E93FC740F93AA04F97BFF90000712B6
:105109004A268F828E83227D017BFF7E00024683A1
:10511900FFE975F003A42416F582E43400F583222F
:10512900900010E0FEA3E0FF900110E0FAA3E0F583
:10513900828A83740393FDE49322EFF090000FE0D9
:105149002290004CE475F001124A0F0246A9900022
:1051590002124A5B900127E075F003A4F58285F0FD
:1051690083024A5BF0A3EFF0D39015B67401939FC5
:10517900EE6480F8E49364809822FF900028E0347C
:10518900002290010DE0FEA3E0AA06F97BFF22753B
:10519900F0100249FAA3E475F00102479EE0FEA36C
:1051A900E02DFDEE3CFCEDA4FBAAF0FF900018E019
:1051B900229015B8E493FE740193FF22900010E445
:1051C900F0A3740EF022F0E0FF25E02422F582E43A
:1051D9003416F583E49322F0EF25E02423F582E4E5
:1051E9003416F583E493227E00EEF0A3EFF07B0101
:1051F90022EEF0A3EFF0A32290000D0246C2C39065
:105209000011E09403227D017BFF7E007F0C0246A2
:105219008390012CE0640122740E93FB740F939028
:105229000110CBF0A3EBF022EF54F8FFA3E05407F1
:105239004FFB7D177F8A22900011E02403F0900034
:1052490010E03400F02290000CE0FEA3E0FF900093
:105259000AA3E0FD22FFE493FC740193FDC3EF9DD3
:10526900FEE49C2290000EEEF0A3EFF0FD900014F6
:10527900E0FF22E57925E02414F582E43401F58381
:105289002235F0FA7BFF90000BE0900054F02224C5
:1052990040F582E43400F5832290012AA3E0FF223D
:1052A900E0FFA3E090011DCFF0A3EFF0227D187C71
:1052B90000124701EF22FFE08FF0A4FF22A3E05480
:1052C900074438FB7D787F8A22C3900011E0940659
:1052D90022F090003AE004F022E0FEA3E0FF7B0117
:1052E90022E0FF7E007B017A00792822FBC3EF9B35
:1052F900FFEE9400FEC322C3900011E0940222E065
:10530900FD75F00A84E5F0243022F9E43AFA024AFC
:10531900262FFFE035F0FAA9077BFF22E024052FAD
:10532900F075F0058422FFE4F0A3EFF0229000135A
:10533900A3E0FF22FF7E007B017A007927229FEEFE
:105349006480F8EC64809822124A060246A97D32EC
:105359007F267E002275F011A424DBF9747F22F5E3
:1053690082E43400F583EEF022F582E43400F5831B
:03537900EEF02231
:03000E0012C27F9C
:0100110022CC
:0578AC00900012EFF056
:1078B10012000E900017EFF0900012E0B401047F67
:1078C1000180027FFF900017125325E5F01251CF7E
:1078D100FEFD900013E4F0A3EDF0900125E0FDC35F
:1078E100900014E09DF0900013E09400F0900125C9
:1078F100EE1251E0FFFD900015E4F0A3EDF09001D0
:1079010026E0FDC3900016E09DF0900015E0940084
:10791100F0900126EFF09000187401F0900018E04B
:10792100FFD39404506D12B3E4AD07AC069000137D
:1079310075F0081251A6F975F003A42417F582E435
:107941003400F583EFF0EA125119EFF0AF0112B0F4
:107951001BAC06AD0790001575F0041251A675F029
:1079610003A42418F582E43400F583EFF0EAC4F8A7
:1079710054F0C8EBC4540F485470FF900018E0F95C
:1079810012511BE04F125119EFF0900018E004F072
:1079910002791D12BC0B7DE07F8A12B8C7EF54EF4C
:1079A100127A0C9000187401F0900018E0FFD39443
:1079B100045031EF14FB7D9E7F8A12BDA690001802
:1079C100E075F003A42416F9740035F0FA7B0190F8
:1079D100005A7403F07DA07F8A12B65E900018E011
:1079E10004F080C57DE07F8A12B8C7EF4410127A97
:1079F1000C900017E0FF12C20512BC0BE4FB7D9056
:0A7A01007F8A12BDA6900017E0FF77
:0A7A0B0022FB7DE07F8A12BDA62257
:10698100901622E493900125F0901623E493900150
:1069910026F0E4FF12C2057FB0126B127FA0126BCA
:1069A100127FA07E0012BD8090014AEFF07FA112FC
:1069B1006B1A7FA2126B1A7FBA126B297FA4126B1A
:1069C100297FAB126B217FA3126B387FBB126B380F
:1069D1007FA5126B217FA6126B307FA7126B307FD0
:1069E100A8126B3F7D327F387E0012B4C2900173D2
:1069F1007432F0E4FF12877C7D327F377E0012B45F
:106A0100C27D037FB27E0012B4C27FBC126B3F7F96
:106A1100BD126B4E7FBE126B4E900102E0700FFDF6
:106A21007FAEFE12B4C27D017FAC7E00800E7D0D73
:106A31007FAE7E0012B4C2E4FD7FACFE12B4C2E4AC
:106A410090013DF07D027FAAFE12B4C27FA9126BB4
:106A510067E4FF12B34B7BFF7A00796612C07E7D3B
:106A6100337FA07E0012BC387FB2126B677FB312F6
:106A71006B467FB4126B467FB5126B5F7FB6126BAC
:106A81005F128677E4FF12C2207D017FBF7E001274
:106A9100B4C27FBF7E0012BD80EF24FF9209E4FDE6
:106AA1007FB8FE12B4C27FB87E0012BD809000FF95
:106AB100EFF07D017FB77E0012B4C27FB77E001276
:106AC100BD809000FAEFF07D027FB97E0012B4C262
:106AD1007FB97E0012BD809000ECEFF0E4FD7FAF46
:106AE100FE12B4C2E4900137F090010104F0FD7F81
:106AF100C57E0012B4C27F1B126B557F1C7E021231
:106B0100B4C27F1D126B557F1E7E0212B4C202A455
:106B1100C57D017E0012B4C222E4FDFE12B4C22280
:106B21007D017E0012B4C222E4FDFE12B4C2227DB8
:106B3100017E0012B4C222E4FDFE12B4C222E4FDC1
:106B4100FE12B4C2227D017E0012B4C222E4FDFE17
:106B510012B4C222E4FD7E0212B4C2E4FD227D0120
:0D6B61007E0012B4C222E4FDFE12B4C22276
:10C0FB0012C287900127EFF075F00584AFF0EFF0D7
:01C10B002211
:10BFBB00EFB401047F0180027FFF9001271253250C
:0CBFCB00AFF0EFF012C220900127E0FF61
:01BFD7002247
:05AB5900900014EDF076
:10AB5E00EF75F003A42481FEE435F0A3F0A3CEF04C
:10AB6E00E4A3F0900017E0FFC39403504390001647
:10AB7E00E02FFF900015E03400FE12BD809000180B
:10AB8E001251F07A00791A124FD21250321299C322
:10AB9E00900017E02471FD90001AA3E0FF900014BE
:10ABAE00E02FFB7F8A12BDA6900017E004F080B361
:01ABBE002274
:10A8BE00EFB401047F0180027FFF90012BE024049E
:10A8CE00FD90012AE03400FCEF3395E0FEED2FFF02
:10A8DE00EC3EF0A3EFF07E0090012A124FB0FD7F08
:10A8EE008012B4C27F107E0012BD807E007B017A82
:10A8FE00007912124FD27A1579CE1250361299C3B0
:10A90E001252A2900012A3E0FD12AB597F807E007E
:10A91E0012BD80EF64037BA860047D3080027D321F
:0AA92E007F3E7E0012BB1B1252A2F6
:01A9380022FC
:05986F00900012EFF073
:10987400ED90012BB4010DE02401FF90012AE034A6
:1098840000FE800BE024FFFF90012AE034FFFE90ED
:109894000013EE12516D50151251BA900014E09F4E
:1098A400EE6480F8900013E06480984003029916F7
:1098B400900013E0FEA3E0FF1250C97B017A007907
:1098C40015124FD21250321299C3900012E0248A1A
:1098D400FFE433FEA3A3E0FD12B4C27F107E0012A6
:1098E400BD809000131251F07A007917124FD27A8A
:1098F4001579CE1250361299C3900012E02471FDEE
:10990400900017A3E0FF900015A3E02FFB7F8A12BD
:05991400BDA61252A2E5
:01991900222B
:10AFC3007D707F8A12B8C7EF54BFFB7D707F8A12F2
:10AFD300BDA67D7412B0117D757F8A12BDA67D76E4
:10AFE30012B0117D717F8A12BDA67B807D727F8A2C
:10AFF30012BDA67B807D737F8A12BDA67D707F8A7A
:10B0030012B8C7EF4440FB7D707F8A02BDA67B80E8
:08B013007F8A12BDA67B80229A
:068A5E0090001FEFF0FD87
:108A64007F0B7E0012B4C290001FE06403606CE4CC
:108A7400A3F0A3F0900020E0FEA3E0FFC3940FEE68
:108A840064809480503B90001FE0C454F02448F567
:108A940082E43416F583E5822FF582E5833EF5837F
:108AA400E493FB900020A3E02438F58274163EF58D
:108AB40083E493FD7F8A12BDA690002012519F800B
:108AC400B390001FE0C454F02457F582E43416F543
:0B8AD40083E49390002212532F804E89
:108ADF00E4FF12C2A612B71F7F0112C2A612B398EB
:108AEF007F0212C2A6AD07E4FF12A9AB7F0312C229
:108AFF00A6AD077F0112A9AB7F0412C2A612AA1B53
:108B0F007F0512C2A67E009000241251F27A0079DE
:0E8B1F0022124FD27A1679101250361299C3D4
:108B2D009000221252C612BDA67D177F8A12B8C7B9
:098B3D0090002212523112BDA673
:018B4600220C
:03C2BF007F0022DB
:07C2A60012C1E81250C7228B
:059CF200900012EFF0EC
:109CF700EDB401067E007F0180047EFF7FFF9001A7
:109D07002AE0FCA3E0FD2FFFEC3EFE90001312516A
:109D17006D50161251BA900013E0FAA3E0FB9FEEC4
:109D27006480F8EA6480984003AF0522900012E04F
:109D370014601814601D14601A14602724FE602B29
:109D47002406702DAF0312B71F802612533612B3A5
:109D570098801E900012E024FEFFA3A3E0FD12A945
:109D6700AB800E12533612AA1B800612533612AA64
:109D7700F0900012E0FFA3A3E0FD12C20E900013C3
:089D8700E0FEA3E0FF1250C949
:019D8F0022B1
:05B71F00900026EFF090
:10B7240012C2B9900026E0BF010C12533D124FD251
:10B734007A1579F8800A12533D124FD27A1579F2AC
:10B744001250361299C39000FBE090161B93FD90A3
:0AB754000027A3E0FB7F8A02BDA6D8
:05B39800900026EFF01B
:10B39D009000FBE064047017124FC57A1579D41232
:10B3AD0050361299C3900027A3E0FB7D74802212C2
:10B3BD004FC57A1579FE1250361299C312C2BFEFDE
:10B3CD009000276007A3E0FB7D3A8005A3E0FB7D9D
:06B3DD00107F8A12BDA6DC
:01B3E3002247
:10AAF0007E007B017A007915124FD27A1579EC121B
:10AB000050361299C37DFF7F8A12B8C7900017EFA5
:10AB1000F0E47DFF12AB527DBE7F8A12B8C7EF54BE
:10AB2000CF44107DBE12AB527DC47F8A12B8C7EFEE
:10AB30005480FD900015E0A2E713A3E0134DFB7DC8
:10AB4000C47F8A12BDA6900017E0FB7DFF7F8A02BA
:02AB5000BDA6A0
:07AB5200FB7F8A12BDA62261
:05AA1B00900026EFF0A1
:10AA20009000FBE06404702A9000267A00792712D7
:10AA30004FCC7A1579E01250361299C37D707F8A17
:10AA400012B8C7EF54C0FF900027A3E04FFB7D7002
:10AA5000802F900026E0FF7E007B017A007927128C
:10AA60004FD27A16790A1250361299C312C2BFEF2A
:10AA70009000276007A3E0FB7D3E8005A3E0FB7DFF
:06AA8000157F8A12BDA63D
:01AA860022AD
:08A9AB00900026EFF0A3EDF08F
:10A9B30012C2BFEF60301252EA124FD27A167916E2
:10A9C3001250361299C3900026E0243CFD7F8A1270
:10A9D300B8C7EF5480FF900028A3E02FFB90002618
:10A9E300E0243CFD802C9000271252EA124FD27AC9
:10A9F3001679041250361299C39000FBE09000269A
:10AA0300B40405E024728003E02413FD900028A31E
:07AA1300E0FB7F8A12BDA6E3
:01AA1A002219
:059A6800900012EFF078
:109A6D007D787F8A12B8C7EF5407540F90001512F6
:109A7D00532F900012E0B401047F0180027FFFEFAD
:109A8D003395E09000158FF012479E9016101251ED
:109A9D00BD900015E0FCA3E0FDC3125347400D90AF
:109AAD0016121251BDD3ED12534740041252A22289
:109ABD00AF057E007B017A007913124FD27A1579AA
:109ACD00B6900032124A267A1679101299C3900078
:109ADD00151252C612BDA67D177F8A12B8C7900007
:109AED001512523112BDA6900013A3E0FD7F051291
:0D9AFD00C20E900013E0FEA3E0FF1250C95E
:019B0A002238
:10ABBF009000FBE090000AF09000FB7401F0900011
:10ABCF00FBE0FFC394075030EFB40413E490000987
