:10380B006873636F6D20312031206368303A312546
:10381B00316278206368313A3025316278206368F1
:10382B00323A3025316278206368333A3025316281
:10383B00780A0D006873636F6D2031203120636847
:10384B00313A3125316278206368303A3025316264
:10385B0078206368323A3025316278206368333AD6
:10386B0030253162780A0D006873636F6D2031204B
:10387B0031206368323A256278206368303A30250C
:10388B00316278206368313A302531627820636881
:10389B00333A30253162780A0D006873636F6D20FF
:1038AB00312031206368333A3125316278206368E7
:1038BB00303A3025316278206368313A30253162F5
:1038CB0078206368323A30253162780A0D006873CC
:1038DB00636F6D20322032206368303A31253162BC
:1038EB0078206368313A3025316278206368323A48
:1038FB003025316278206368333A30253162780A9B
:10390B000D006873636F6D20322032206368323A8A
:10391B00256278206368333A3125316278206368F9
:10392B00303A3025316278206368313A3025316284
:10393B00780A0D006873636F6D2032203220636844
:10394B00303A3025316278206368333A3125316261
:10395B0078206368313A3025316278206368323AD7
:10396B0030253162780A0D006873636F6D20322049
:10397B0032206368333A3125316278206368313AFB
:10398B003025316278206368303A302531627820F7
:10399B006368323A30253162780A0D006873636FC1
:1039AB006D20332031206368333A31253162782022
:1039BB006368303A3025316278206368313A3025BC
:1039CB00316278206368323A30253162780A0D0013
:1039DB006873636F6D20332033206368303A302572
:1039EB00316278206368313A302531627820636820
:1039FB00333A3125316278206368323A30253162AF
:103A0B00780A0D006873636F6D2033203420636870
:103A1B00303A3025316278206368313A3025316293
:103A2B0078206368333A3125316278206368323A03
:103A3B0030253162780A0D006873636F6D20342076
:103A4B0031206368303A3025316278206368313A2F
:103A5B003025316278206368323A30253162782024
:103A6B006368333A31253162780A0D006873636FEE
:103A7B006D20322032206368303A31253162782054
:103A8B006368323A3025316278206368313A3025E9
:103A9B00316278206368333A30253162780A0D0041
:103AAB006873636F6D20322032206368323A25626F
:103ABB0078206368313A3025316278206368303A78
:103ACB003025316278206368333A30253162780AC9
:103ADB000D006873636F6D20332033206368333AB6
:103AEB003125316278206368303A30253162782095
:103AFB006368313A3025316278206368323A302579
:103B0B003162780A0D006873636F6D2032203220AA
:103B1B006368333A3125316278206368323A302555
:103B2B00316278206368313A3025316278206368DE
:103B3B00303A30253162780A0D006873636F6D205F
:103B4B00332031206368333A312531627820636842
:103B5B00303A3025316278206368323A3025316251
:103B6B0078206368313A30253162780A0D0068732A
:103B7B00636F6D20332031206368333A3125316216
:103B8B0078206368313A3025316278206368323AA5
:103B9B003025316278206368303A30253162780AFB
:103BAB000D006873636F6D20332033206368333AE5
:103BBB003125316278206368303A302531627820C4
:103BCB006368323A3025316278206368313A3025A8
:103BDB003162780A0D006873636F6D2033203320D8
:103BEB006368333A3125316278206368313A302586
:103BFB00316278206368323A30253162782063680D
:103C0B00303A30253162780A0D006873636F6D208E
:103C1B00332033206368303A312531627820636872
:103C2B00313A3025316278206368323A302531627F
:103C3B0078206368333A30253162780A0D00687357
:103C4B00636F6D20332033206368303A3025316247
:103C5B0078206368323A3025316278206368333AD2
:103C6B003125316278206368313A30253162780A28
:103C7B000D006873636F6D20322032206368313A18
:103C8B003125316278206368303A302531627820F3
:103C9B006368323A3025316278206368333A3025D5
:103CAB003162780A0D006873636F6D203220322009
:103CBB006368313A3125316278206368323A3025B6
:103CCB00316278206368333A30253162782063683B
:103CDB00303A30253162780A0D006873636F6D20BE
:103CEB00322032206368313A3025316278206368A4
:103CFB00333A3125316278206368323A30253162AC
:103D0B0078206368303A30253162780A0D00687389
:103D1B00636F6D20332033206368313A3125316274
:103D2B0078206368303A3025316278206368323A04
:103D3B003025316278206368333A30253162780A56
:103D4B000D006873636F6D20332033206368313A45
:103D5B003025316278206368303A30253162782023
:103D6B006368333A3125316278206368323A302503
:103D7B003162780A0D006873636F6D203320332036
:103D8B006368313A3025316278206368323A3025E6
:103D9B00316278206368333A312531627820636869
:103DAB00303A30253162780A0D006873636F6D20ED
:103DBB00322032206368323A256278206368303AC9
:103DCB003025316278206368313A302531627820B2
:103DDB006368333A30253162780A0D006873636F7C
:103DEB006D20322032206368323A25627820636876
:103DFB00313A3025316278206368333A30253162AD
:103E0B0078206368303A30253162780A0D00687388
:103E1B00636F6D20322032206368323A256278203E
:103E2B006368333A3125316278206368313A302543
:103E3B00316278206368303A30253162780A0D00A0
:103E4B006873636F6D20332033206368323A2562C9
:103E5B0078206368303A3025316278206368313AD4
:103E6B003025316278206368333A30253162780A25
:103E7B000D006873636F6D20332033206368323A13
:103E8B00256278206368303A302531627820636888
:103E9B00333A3125316278206368313A302531620B
:103EAB00780A0D006873636F6D20332033206368CD
:103EBB00323A256278206368313A302531627820B6
:103ECB006368333A3125316278206368303A3025A4
:103EDB003162780A0D000D0A507265762E46573AFC
:103EEB0025303478000D0A437572722E46573A25E9
:103EFB00303478000D0A5B4D53475D6D61696E5F21
:103F0B00696E697428293D3E2072657620213D201B
:103F1B00465756455220262063616C6C20436C65D6
:103F2B0061724261736963454528290D0A000D0AC8
:103F3B0043616E6E6F7420616363657373204545D7
:103F4B0050524F4D21212121000D0A4E6F20696ED9
:103F5B00697469616C697A65005457383831360079
:103F6B005457383831364200545738383137004EB1
:103F7B006F7468696E67202D2D3078253032780D7F
:103F8B000A00436865636B20616761696E202D2DA4
:103F9B003078253032780D0A004C617374204368F9
:103FAB0065636B202D2D3078253032780D0A00FF9C
:103FBB00380BFF383FFF3873FF38A5FF38D9FF396F
:103FCB000DFF393FFF3973FF39A7FF39DBFF3A0F7D
:103FDB00FF3A43FF3A77FF3AABFF3ADDFF3B11FF66
:103FEB003B45FF3B79FF3BADFF3BE1FF3C15FF3C06
:103FFB0049FF3C7DFF3CB1FF3CE5FF3D19FF3D4DCB
:10400B00FF3D81FF3DB5FF3DE7FF3E19FF3E4BFFF7
:10401B003E7DFF3EAF2D2D2D3E2050616E656C3ADF
:10402B0020575647412D3830302A343830202D2D2B
:10403B00205449434F4E4C45535320485320376926
:04404B006E63680038
:1074F400012D00013000C10CC10B02310000012F2D
:1075040000024C000041013601C10DC10E41013998
:10751400004101370041013A0044013B00000000F2
:10A14000ED90001DF090001BE090001E2290001B7F
:10A15000E090001DF022EBA3F090001CE090001FA7
:10A1600022FFEA33FE7C007D141241AF744E2DF8BD
:10A17000E62290001CE0A3F0A32290001DF09000C6
:10A180001CE090001E22900028F0A3EFF07BFF223D
:10788A007B107DE07F8A12AB9A129CA6900000EED4
:10789A0012A1897A3E79E1900028EEF0A3EFF01266
:1078AA00AB00129CA6EF64107003EE640260287BA2
:1078BA00FF7A3E79F09000287402F0A37410F01257
:1078CA00AB007F107E0212A483129CA6EE12A18640
:1078DA007A3E79F012AB00129CA6EF64107003EEA8
:1078EA0064027033900000E064027004A3E0641044
:1078FA00601B900117E0FF12AF9C7F0112AFC0120C
:10790A00AAD97BFF7A3E79FF12AB00802C12B01005
:10791A00900117EFF080227BFF7A3F793912AB0092
:10792A007BFF7A3F795412AB0090011774FFF07F06
:10793A000112A775E4FF0291477F087E0012AB741B
:10794A0090011FEFF06004E0FF80027F0112A7752B
:10795A0012953690011274FEF0129E2412A7AE7F81
:10796A000612805A7F0A12AE4F12AF1F7DFF12799C
:10797A009C7D8212799CE4FB7DFF7F8A12AB9A7B05
:10798A00FF7DD07F8A12AB9A7BFF7DD17F8A12ABB3
:01799A009A52
:09799B00227B017F8A12AB9A22C3
:10A1E00075F68775F65975BF10E4F5F6758DF4753B
:10A1F0009850758922758855758A40758C40758789
:10A200008075B80275A892D299D2ACF5C8C2CAD2EC
:10A21000AD75AA5075BAF443A61843AD10C20E75B9
:0FA22000DE4243D840F5B175B220F54AF5492228
:03000B0002723D41
:0B723D00C0E0C083C082C0D075D00844
:10724800054B900138E0600214F0900138E070338B
:10725800E5A05460C4135403FF90013EE06F60231F
:1072680090013CE090013BF090013DE090013CF042
:1072780090013EE090013DF0A3EFF0D20F9001386D
:107288007430F0E54BD3946050030273900534E5F5
:107298003470020533754B00052FE52F64646003D5
:1072A80002734890011EE094FF5003E004F0E56586
:1072B8002401FFE43564FEE43563FDE435628F653F
:1072C8008E648D63F562752F0090010DE0D39401F3
:1072D8004003E014F0900149E0D394014003E01426
:1072E800F0900069E004F0900142E0D3940040037C
:1072F800E014F0301006900137E004F030040690F6
:10730800013AE004F0900069E0B43C08E4F0900031
:107318007CE004F090007CE0B43C08E4F090008845
:10732800E004F0900088E0B41808E4F0900087E0EA
:1073380004F0E5309001396005E004F08002E4F0E3
:10734800E54DF47003E54CF46008054DE54D700219
:10735800054CE5A0F4549C6029E52DB4030DE5A087
:10736800F4549CF530C20BD20C8013E52DB4640E96
:10737800E5A0F4549CF530D20BD20C752D50052D98
:087388008006752D0075300030
:09739000D0D0D082D083D0E032CD
:10AD1700E4F565F564F563F562900117F07F641259
:0EAD2700AE4FC22012AFE4D2B47F0102AE4F95
:1094AB00E4FD7F8A12A703EF24DE601024D9601439
:1094BB00242870197BFF7A3F7964800E7BFF7A3FFB
:1094CB00796B80067BFF7A3F797302AE3412951766
:1094DB007A3F797A12AB0012AF86EF701B12951799
:1094EB007A3F798D12AB00129529EF60EAE4FD7F8C
:1094FB008A12A703EFF460DF7F6312AE4F12952938
:10950B00E412A1867A3F79A412AB0022E4FD7F8A94
:10951B0012A703900028E4F0A3EFF07BFF227F63F8
:0B952B0012AE4FE4FD7F8A12A703225E
:10AD3500EFB4010553E8FE8011EF700743E80153B6
:0EAD4500E8FD22EFB4020643E80143E80222D3
:03001300020026C2
:03002600C2AA3239
:0300230002A81B15
:10A81B00C0E0C0D075D00830981EC298AF9974357F
:10A82B002549F8EFF6744E2549F8A60F0549E54979
:10A83B00C394144003754900309904C299C20DD0DA
:04A84B00D0D0E03257
:0300630002A8B63A
:10A8B600C0E0C0D075D008E5AA30E01653AAFE74F1
:10A8C60025252EF8A69A052EE52EC3940840037575
:10A8D6002E00E5AA30E10553AAFDC20ED0D0D0E085
:01A8E600323F
:0BAF8600E549B54A037F00227F01224D
:08000300200DFD8F99D20D22A2
:08B00800200EFD8F9AD20E22EA
:03002B0002AEE33F
:0FAEE300C0E0C2CF0532E53270020531D0E03257
:10AE4F00E52F2FFFE433FE7C007D641241AFE52F29
:07AE5F00B505FBE4B504F7A3
:01AE660022C9
:10A68B00900025E4F0A3E52FF0E47B3CFAF9F8AF5A
:10A69B0065AE64AD63AC6212435DAC00AD01AE025E
:10A6AB00AF03E47B64FAF9F81242D2900025EE8FE7
:0CA6BB00F012423A900025E0FEA3E0FF00
:01A6C7002270
:10ACBA00C3ED9FEC9E5010C374709FFF74179EFEE5
:0FACCA00EF2DFFEE3CFE22C3ED9FFFEC9EFE221E
:08A3AF00900025EEF0A3EFF091
:10A3B700900025E07002A3E06035E4900027F0A349
:10A3C700F0900027E0FEA3E0FFE4FCFD7BD8FAF95C
:10A3D700F8D31243EF400C900027E475F0011242C6
:0FA3E7003A80DE90002574FFF5F012423A80C1F3
:01A3F6002244
:055AE800900018EFF032
:105AED00ED4410FDEB4410FBEF64056012E0FF6424
:105AFD0020600CEF6421600790001BE04410F090D3
:105B0D00001CE04410F0900018E012451A5B840070
:105B1D005B86015B8F025B96035B9C045BAD055B53
:105B2D00B0065BB9075B96085BD9095BD90A5B8444
:105B3D000B5BC20C5BCA0D5B960E5BE80F5BF61040
:105B4D005C01115BF6125C01135B9C145C0F155B21
:105B5D0086165C19175C22185B86195C2F1A5C1966
:105B6D001B5B8F1C5C431D5BAD1E5B8F1F5C5A2046
:105B7D005C432100005C6B801690001DEBF0A3EDE3
:105B8D00801412A14DA3ED802F12A172ED801890FB
:105B9D00001DEDF0A3EBF090001BE090001F8025A1
:105BAD00025C4FED12A17AF0A3EB802812A172EBEB
:105BBD00F0A3ED801F12A140F0A3EB800812A14DC0
:105BCD00A3EBF0A3EDF090001C025C3C90001DEDEA
:105BDD00F012A156F090001B025C3C90001CE0A35B
:105BED0012A144F0A3EB025C4912A172EDF09000FA
:105BFD001B025C6312A172EBF090001BE090001F82
:105C0D00803A12A140F090001C025C63EB12A1419E
:105C1D0012A1588027EB12A17AF0A3EDF090001B92
:105C2D00800D90001DEBF0ED12A157F090001BE0E0
:105C3D00900020F0802812A14D12A156F0A3EDF096
:105C4D00801C12A14D12A17EF0A3ED800D12A14D6D
:105C5D00A3EDF090001CE090001FF0A3EBF0E4909A
:105C6D000021F0900021E0FFC394145011744E2FC9
:105C7D00F8E4F674352FF8E4F6E004F080E59001D1
:105C8D0012E06403700C900130E07006125D1E028C
:105C9D005D1BE4900022F0125D1E12A68B90002376
:105CAD00EEF0A3EFF012A68BC3900024E09FFF90BF
:105CBD000023E09EFE12AF7AC3EF9428EE64809429
:105CCD008040E2E4900021F0900021E0FFC39414A5
:105CDD005029744E2FF8E664417018E0FB7A0024C9
:105CED000112A161B4430CEB240212A161B44B0368
:105CFD007F0122900021E004F080CD7FC87E00124C
:105D0D00A3AF900022E004F0E0C3940340897F002C
:105D1D0022900018E0FF3395E0FE903FBA75F00336
:105D2D00EF124489EE75F003A42583F5831244BE6A
:105D3D0090001DE0900028F090001EE0900029F0EA
:105D4D0090001FE090002AF0900020E090002BF0D2
:045D5D0012AB002263
:1091DF000D0A2B2B28436C6561724F5344496E6601
:1091EF006F293A20446973706C617965644F5344F9
:1091FF003A2532780020000D0A5B4D53475D4469D4
:10920F0073706C6179496E7075742829203D3E200A
:10921F0053656C6563744D6F6465547970653D413A
:10922F00564D6F646520746F207365742074696D7B
:10923F0065202620646973706C6179686F6C645F58
:10924F00666C61673D2562780020202054573838BE
:10925F003036202020005465636877656C6C2C498C
:03926F006E63002B
:0475240041014700DA
:0FAF010075F011A4240DF9746D35F0FA7BFF2261
:0CAF5600900147E0FEEFF4FFEE5FF022F8
:07B04800900147E04FF022E8
:06B05600900147E0FF221B
:10A0EB0012B05690001BEFF012B056900028E4F01F
:10A0FB00A3EFF07BFF7A9179DF12AB0090001BE0AE
:10A10B00FF20E20330E70512AB4EC20690001BE0C6
:10A11B0030E00312AEF290001BE030E40312AE67A6
:10A12B0090001BE030E10312A6C890001BE030E664
:04A13B000312AF1F3D
:01A13F0022FD
:1086690090001A74C2F012A0EB7BFF7A7A791B1280
:108679008E327DFF7FA07E0012AA047BFF7D327FB0
:10868900A07E0012A8E7E4900019F0900019E0FF1D
:10869900C394F050197E007BFF7A927904900054BC
:1086A9007401F012A883900019E004F080DD9001B4
:1086B90047E04410F012B062EF640160779000194E
:1086C9007401F0900019E0FE75F011906D0C1244E0
:1086D90089E4936F6008900019E004F080E5EE12D8
:1086E900AF0112AE19900018EFF0A3E012AF01909C
:1086F9000018E0900054F07FA07E0012A8837FA3A9
:108709007E0012AB74BF011990010AE07013900149
:108719000D7405F07BFF7A927906900028F012AB70
:10872900007D017F0212A4C77F0112A9A812A68B9E
:048739008E7A8F7B2A
:01873D002219
:10AE6700E4FF12A9A8E4FD7F0212A4C7900147E0FE
:06AE770054EFF07F012200
:1088D2007DFF1289877D82128987E4FB7DFF7F8A73
:1088E20012AB9A900147E020E27C12A0EB7F0A12C1
:1088F200AE4F7BFF7A7A799D128E327D327FC87EAF
:108902000012AA047B197D377FC87E0012A8E77B7C
:10891200197D737FDD7E0012A8E712AEB175F003F8
:10892200EF900AE61244891244BEAE02AF019000F3
:1089320006EEF0A3EFF07BFF12AE19900006E0FC0A
:10894200A3E0AA04F97BFF900054EFF07FC87E00F9
:1089520012A8837D017F0112A4C7E4FD7F0412A443
:10896200C77F0112A9A8301A0590014C800390011B
:108972004BE0FF1290AC900147E04404F012A68B4A
:048982008E7A8F7BDF
:10898600227B017F8A12AB9A7F057E0012A3AF225B
:0FAEF200E4FD7F0212A4C7900147E054FEF02256
:10901000E4900006F012B056900005EFF054967000
:10902000030290A9E030E11512AFED900001EEF0DF
:10903000A3EFF0A37407F0A374D0F08011900001A7
:10904000E57AF0A3E57BF0A3E4F0A374C8F012A6E0
:109050008BAD07AC06900001E0FEA3E0FF12ACBAB6
:10906000D3900004E09F900003E09E503C900005E8
:10907000E05484600D12AB4E900006EFF01286694A
:10908000C206900005E030E11D12A6C8900006EF70
:10909000F07FA37E0012AB74BF010690010D740334
:0B90A000F0128669C2067F01227F00EB
:0190AB0022A2
:10AB4E00900147E030E20A7F0112AB6A54FBF080BD
:10AB5E00087F0212AB6A547FF07F0122E4FD12A43B
:06AB6E00C7900147E02240
:109CA600E4FFFE12AB74EF6454600280287F017EED
:109CB6000012AB74EF64576002801A7F027E0012B6
:109CC600AB74EF64386002800C7F037E0012AB74C5
:109CD600EF64386004E4FEFF227F047E0012AB745A
:109CE600EF900002F0A3E4F07F05FE12AB74900043
:109CF60002E0FEA3E04FFF900002EEF0FEA3EFF0BD
:019D0600223A
:10A48300900002EEF0A3EFF07D54E4FFFE12A3F779
:10A493007D577F017E0012A3F77D387F027E001275
:10A4A300A3F77D387F037E0012A3F7900002E0FD3F
:10A4B3007F047E0012A3F7900002A3E0FD7F057ED8
:04A4C3000002A3F7F9
:08B010007F067E0012AB7422E2
:09AF9C00AD077F067E0002A3F759
:08B018007F097E0012AB7422D7
:09AFA500AD077F097E0002A3F74D
:07B020007F0A7E0012AB74F1
:01B027002206
:10953600E4900003F0900002F0900002E075F01154
:10954600906D61124489E49312451A956D009579E0
:1095560001958202958B03959404959D0595A60623
:1095660095AF07000095B6900003E0FD7F0A7E00E8
:1095760002A3F7900003E04401F08034900003E07A
:109586004402F0802B900003E04404F08022900017
:1095960003E04408F08019900003E04410F08010C6
:1095A600900003E04420F08007900003E04440F080
:0895B600900002E004F0808146
:07B028007F0D7E0012AB74E6
:01B02F0022FE
:09AFAE00AD077F0D7E0002A3F740
:0AAF9100EF2412FFE433FE12AB744C
:01AF9B002293
:09AFB700EF2412FF7E0002A3F753
:09AFC000AD077F0F7E0002A3F72C
:07B030007F0C7E0012AB74DF
:01B0370022F6
:09AFC900AD077F0C7E0002A3F726
:08B038007F387E0012AB742288
:09AFD200AD077F387E0002A3F7F1
:08B040007F377E0012AB742281
:09AFDB00AD077F377E0002A3F7E9
:10AAD900E4FD7FADFE12A3F7E4900119F0FD7F08B4
:10AAE900FE12A3F7E4FD7F0EFE12A3F71263E5122F
:07AAF9009BDD7F0102813C9F
:10AD53009291D290120012C290221244958E827563
:0EAD6300830012415EFF22EFF0A3EDF0A32269
:0BA3F700900028EEF0A3EFF0A3EDF0C3
:10A40200900028E0FEA3E07807CEC313CE13D8F95C
:10A4120044A054FE90002BF012AE7D90002BE0FF82
:10A42200129AA5900028A3E0FF129AA590002AE0B4
:0CA43200FF129AA51200167F0202AE4F26
:04AB7400AD07AC0677
:10AB7800ED7807CEC313CE13D8F944A054FEFF12C4
:10AB8800A703900033EFF07F0212AE4F900033E03E
:01AB9800FFBD
:01AB99002299
:08A70300900034EFF0A3EDF02B
:10A70B0012AE7D900034E0FF129AA5900035E0FF69
:10A71B00129AA512AE7D900034E04401FF129AA567
:10A72B0012A918900036EFF0120016900036E0FFD9
:01A73B0022FB
:10AB9A0090005512AD6AEBF012AE7D900055E0FFC1
:10ABAA00129AA5900056E0FF129AA5900057E0FF6E
:06ABBA00129AA50200162C
:08A64D0090003412AD6AEBF03D
:10A6550012AE7D900034E0FF129AA5900035E0FF20
:10A66500129AA5E4900038F0900037E0FFA3E0C30C
:10A675009F5010900036E0FF129AA5900038E00434
:06A68500F080E502001662
:09A54D0090005512AD6A1244B5EC
:10A5560012AE7D900055E0FF129AA5900056E0FFDE
:10A56600129AA5E490005BF090005AE0FFA3E0FE8B
:10A57600C39F501190005712AD5D129AA590005BD3
:08A58600E004F080E30200167E
:09A73C00900020EFF0A31244B5D7
:10A7450012AE7D900020E0FF129AA5E4900025F05E
:10A75500900024E0FFA3E0FEC39F5011900021125A
:10A76500AD5D129AA5900025E004F080E302001685
:0100120022CB
:10AE7D00D291120012D290120012C291120012C27F
:02AE8D00902211
:0D001600C291120012D290120012D291225B
:109AA500C290EF30E703D38001C312AD53EF30E628
:109AB50003D38001C312AD53EF30E503D38001C357
:109AC50012AD53EF30E403D38001C312AD53EF3031
:109AD500E303D38001C312AD53EF30E203D380011A
:109AE500C312AD53EF30E103D38001C312AD53EF81
:109AF50030E003D38001C312AD53C290C290D2911E
:099B0500D290D290D290C29022BD
:10A91800E4FFD291120012C290FDFCD290EF25E024
:10A92800FF3091034401FFC2900DBD00010CED649E
:0FA93800084C70E7120012D290D290D290C290C9
:01A9470022ED
:1065D2000D0A504F52000D0A4D454E55000D0A4905
:1065E2004E000D0A5550000D0A444E000D0A534547
:1065F2004C000D0A4552524F52000D0A504F57455A
:1066020052206B657920000A0D6275737720302065
:10661200312037452038300D0A000A0D6275737734
:10662200203020312037452038310D0A000A0D6212
:10663200757377203020312037452038320D0A001B
:106642000A0D6275737720302031203745203833A8
:106652000D0A000A0D62757377203020312037450C
:106662002038340D0A000A0D62757377203020310C
:106672002037452038350D0A000A0D6275737720E0
:106682003020312037452038360D0A000A0D627558
:106692007377203020312037452038370D0A000A21
:1066A2000D62757377203020312037452038380D40
:1066B2000A000A0D62757377203020312037452099
:1066C20038390D0A000A0D627573772030203120A7
:1066D20037452038410D0A000A0D62757377203064
:1066E20020312037452038420D0A000A0D627573A9
:1066F20077203020312037452038430D0A000A0D1B
:1067020062757377203020312037452038440D0AD6
:10671200000A0D627573772030203120374520380A
:10672200450D0A000A0D627573772030203120373B
:10673200452038460D0A000D0A4D454E554B455928
:10674200206B657920000D4F53445F4C4F434B0043
:106752000D0A4556454E544B4559206B65792070BC
:10676200726573736564000D0A5B4D53475D436840
:1067720065636B4B6579496E28293D3E204973520A
:10678200756E32383335436C6B54756E653D2562D8
:04679200780020204B
:107528004101400041014500410143004101410042
:10753800410144004101460041013F00C11501706D
:0375480000C11768
:10AE8F00E5A0F454906490227C007D0AAE0202414A
:01AE9F00AF03
:0EAF2E0012B056EF30E10302002E12A84F229F
:0DAF3C0012B056EF30E1057F01126951227D
:0DAF490012B056EF30E1057F02126951226F
:10ADE30012B056EF30E10B301F057F0102764202AD
:0BADF3006DFA7F01127BB51288D2229E
:10ADFE0012B056EF30E10B301F057F020276420291
:0BAE0E00002E7FFF127BB51288D222BD
:1084B600900004EFF0A3EDF012AF62900004E0121A
:1084C600451A853A00853A01853A02853A03853A86
:1084D60004853A05853A06853A07853A08853A09B4
:1084E600850B0C856010856511854B15857816857D
:1084F6004120854621851F3885283A85863E856A2E
:108506003F0000858D74FF90011BF0A3F0900005DD
:10851600E060037F01227F002212ACD9128AF57F28
:10852600012212B056EF30E40512AE6780031286C0
:10853600697F0122900005E07F012212AF3C80474F
:1085460012AF498042900005E060037F012212B01D
:1085560056EF30E132126DFA802D12ADE38028120B
:10856600ADFE8023900005E060037F012212AF2E4E
:10857600801512B056EF30E10E7FF4128590800719
:0A8586007D017FC0122DE07F01226D
:10457A009000017401F0301726201523C3E56595D4
:10458A0074FFE5649573FEE5639572FDE5629571C6
:10459A00FCE47B0AFAF9F8D31243EF5002C2177F00
:1045AA0001129F8E900002EFF070030249C7E024C7
:1045BA00F8601C24F8602024F0602424E060282499
:1045CA00C0602C247C70307BFF7A6579D2802E7B88
:1045DA00FF7A6579D880267BFF7A6579DF801E7B32
:1045EA00FF7A6579E480167BFF7A6579E9800E7B2C
:1045FA00FF7A6579EE80067BFF7A6579F412AB0063
:10460A007FAC7E0012AB74900003EFF012AE8F7095
:10461A0053E070507FD07E0712A3AF12AE8F6008AE
:10462A00900145E06403703C7D017FAC7E0012A3DB
:10463A00F79000037401F0FF12805AE4900002F030
:10464A007FD07E0712A3AF900130E030E505127CDF
:10465A00B2800F12AF1FE4900142F0900145F012B0
:10466A008669C206900130E0600C900002E0641096
:10467A006004E4024880900142E07013900003E075
:10468A00700D900145E06007E4F07F0112AD3590AE
:10469A000002E0601BA3E0701712AE8F6012900157
:1046AA0030E0700C12A0EBE41249F0C2067F01223E
:1046BA0012AF62900002E012451A494F0246E30423
:1046CA0047E708499A0C48A710483D20485A4048ED
:1046DA008980495790000049C77BFF7A6579FC12A7
:1046EA00AB002015030247B9E570C3940F4005E4F7
:1046FA00F57080020570E57012451A473E0147467B
:10470A0002474E03475604475E05476606476E074B
:10471A00477608477E0947860A478E0B47960C4715
:10472A009E0D47A60E47AE0F000047367BFF7A66FE
:10473A00790980767BFF7A66791C806E7BFF7A66C0
:10474A00792F80667BFF7A667942805E7BFF7A6684
:10475A00795580567BFF7A667968804E7BFF7A6648
:10476A00797B80467BFF7A66798E803E7BFF7A660C
:10477A0079A180367BFF7A6679B4802E7BFF7A66D0
:10478A0079C780267BFF7A6679DA801E7BFF7A6694
:10479A0079ED80167BFF7A677900800E7BFF7A6756
:1047AA00791380067BFF7A67792612AE34803A2025
:1047BA001123900130E060030249C7FD7F0C128487
:1047CA00B6900001EFF0E4900109F0FD7FABFE1214
:1047DA00A3F70249C7C2111286690249C77BFF7A49
:1047EA0067793912AB0030150AAF707E0012985201
:1047FA000249C7201138900003E0700D1249F07B7E
:10480A00FF7A677948E402499112B056EF30E10B1A
:10481A00301F028010126DFA0249C712B056EF30EB
:10482A00E2030249C77F3F1249E6F00249C77F09FE
:10483A0002494720111512B056EF30E1077F0130C7
:10484A001F23801B7F101249E6802B7F06024947EF
:10485A0020112712B056EF30E1117F02301F0612E5
:10486A0076420249C71269510249C7E4FD7F111213
:10487A0084B6900001EFF07F01227F0702494720AA
:10488A00111690010AE0700A12B056EF30E10312D5
:10489A00A6C81293020249C77F0502494790013010
:1048AA00E0FF6009900119E070030249C7EF604612
:1048BA00900144E07040900119E0640170387FACC7
:1048CA00FE12AB74EF640160030249C7900130E045
:1048DA0030E50312AF1F9001447401F090013FE0EC
:1048EA00700890012EE0900146F090013F7401F0AB
:1048FA0090012EF0803F201142900144E06017E4BD
:10490A00900130F09001327407F0E4900144F09085
:10491A00012EF00249C790010AE0700A12B056EF60
:10492A0030E10312A6C890012EE0700404F080055D
:10493A00E490012EF0129EDA0249C77F041261D96F
:10494A00D2160249C77BFF7A677952803E90014BA3
:10495A00E064147068301765301514C2157F0112AF
:10496A00AD357D027FA07E0012AA04C217800ED246
:10497A00157F0212AD35AF707E001298527BFF7A16
:10498A00677969A215E433900028F012AB00802DF4
:10499A0090014BE0641770257F0212AD357F647E6B
:1049AA000012A3AF1249CD1249CD7F0112AD35D203
:1049BA0017856574856473856372856271900001D9
:0249CA00E0FF0C
:1049CC00227F0112AD357F647E0012A3AF7F0212ED
:1049DC00AD357F647E0012A3AF22E4FD1284B69045
:1049EC000001EF22FF12805A7FF412AE4F12AF1F5C
:0449FC001286692294
:109F8E00A20C9220C20C300F3AE5307036D22090DF
:109F9E00013BE0FEB40313A3E0B4020EA3E0700A8B
:109FAE00A3E0B401057530408017EEB403139001A1
:109FBE003CE0B4010CA3E07008A3E0B402037530DA
:109FCE0020C20F2020037F0022EF6003AF3022203B
:079FDE000B03AF30227F00EE
:019FE5002259
:08985200900004EEF0A3EFF01A
:10985A0078067C007D017BFF7A6779947E007F021F
:10986A0012411F900004E0FAA3E0FBFF12AE97ED4D
:10987A002430900007F0AF0312AE97900004EEF088
:10988A00A3EFF02430A3F07BFF7A7A7953128E3259
:10989A007F1012B0487D027FA07E0012AA047B02CC
:1098AA007D377FA07E0012A8E77B017A00790690B7
:1098BA0000547402F07FA07E0012A8837D017F020B
:0898CA0012A4C77F0102A9A846
:106C86000D0A43485F545732383335282530327859
:106C9600292C526561644465636F64657228307897
:106CA6003636293D256278000D0A2043485F415655
:106CB6002825303278290020200A0D000A0D627539
:106CC600737720302031203745203839000A0D628D
:106CD600757377203020312041312031310A0D0083
:106CE6000A0D6275737720302031204132204437F7
:106CF6000A0D000A0D627573772030203120374562
:106D06002038390D0A00FE000000000000000000D7
:106D1600000000000000000143564253000000003E
:106D260000000000000000000243414D2044000026
:106D36000000000000000000000341562020000073
:106D4600000000000000000000000000000000003D
:106D56000000000000000000000000FE000000002F
:106D6600000000000000000000000000014E545327
:106D76004300000000000000000000000002504137
:106D86004C0000000000000000000000000003535B
:106D96004543414D000000000000000000000005D2
:106DA60050414C4D000000000000000000000000B3
:106DB6000650414C4E00000000000000000000009C
:106DC600000750414C363000000000000000000073
:106DD6000000044E545343342E34330000000000A8
:106DE600000000000000000000000000000000009D
:046DF6000000000099
:10754B00C10AC104C10241011000011D00011F004D
:10755B00011300011100011200011E0001150001B1
:10756B001400011A00410115004101070041010CF3
:10757B00004101130041010F00C10041011400C182
:09758B0005C101C183C106C1095B
:10AA8900EF75F011A4240CF582E4346DF583E49399
:10AA99002290000102415EE4FB7DFF7F8A22E4F5FA
:08AAA9001BF51CF519F518223C
:06A22F0090001E1244B570
:10A23500E4FE124145900021F012AA9A802990006F
:10A245001E124495124145FFB4FF0612AA9AF46006
:10A2550022900022EFF0FD12AA9A900023F0FB90C5
:10A265000021E0FF12AB9A90001FE475F002124244
:09A275003A80CB12AAA002AB9AB8
:10974F0090001DEFF07BFF7A58794812A22F12AAD2
:10975F00A012AB9A90001DE024FE60131460102439
:10976F00FD600C240624F85011240A600D80117B33
:10977F00FF7A59799812A22F800690001D7401F07C
:10978F00900112E0B4051390011FE07002800B905E
:10979F00001DE014FF12AD8E800312AC9A7B157D75
:1097AF00297F8A12AB9A7B067D5C7F8A12AB9A7FE8
:1097BF000B7E0012AB74127E8F12B01812813CC256
:0297CF00222254
:10AEA0007D017F8A12A703EF30E7037F01227F0035
:01AEB000227F
:10880D00E490001AF0A3F0900112E0B40509900174
:10881D001FE060030288C0E4900018F012A095904C
:10882D000019EFF090001BE004F0E0C3940A400340
:10883D000288C0900019E0FF64FE60E090010BE03B
:10884D00FEEF6E60D7900018E0FFA3E0FEB50706BF
:10885D00A3E004F0800AE490001AF0900018EEF006
:10886D0090001AE0C3940240B3900019E0FF700B22
:10887D0012A77590001C7401F0803090010BE07010
:10888D001190010AE0700630060312AF1F1288C165
:10889D00801490010AE0700630060312AF1F128893
:1088AD00C17F3212AE4FE490001CF090001CE0240A
:0388BD00FF92091E
:1088C00022900019E0FF12A775900019E0FF12979F
:0288D0004F2235
:10AC770012AEA0EF60037F01227D1C7F8A12A7031B
:10AC8700EF54F0FF30E7037F0122EF5470C4540FF5
:02AC970004FFB8
:01AC99002298
:109F350012AC77AB07EB24FE601914601624FD60A4
:109F450012240224FC500424077017751B00751C8D
:109F55003C8006751B00751C32E475196B75183D40
:109F6500800312AAA7F517F516E4FFEF75F011A403
:109F75002461F582E4346DF583E493FEB503012293
:089F8500EE60030F80E57F0090
:019F8D0022B1
:06B05C0090010BE0FF2251
:10A7750090010BEFF024FE601914601624FD6012A1
:10A78500240224FC500424077017751B00751C3C1B
:10A795008006751B00751C32E475196B75183D80B4
:09A7A5000312AAA7F517F516220C
:06B06200900112E0FF2244
:10ACD9007F0112AA89FE900112E0FDEE6D60030F5B
:0EACE90080F00F12AA8970027F0112AA89FF63
:01ACF700223A
:09AFE400302003D2B722C2B722CB
:108AF500900112E06F7003028B9343E8049001121A
:108B0500EFF090010BE0FF12974F900112E024FD6A
:108B150060202402703A12AC0B128B94C2957D66CC
:108B25007F8A12A70390002AEFF07BFF7A6C798683
:108B3500800E12AC2F128B94D2957BFF7A6C79AE96
:108B4500900112E0FF900028E4F0A3EFF012AB00D3
:108B5500129FE6900112E0FF12AFC07F1E12AE4FCA
:108B650012880D128669900135E0B4010553E8FBC2
:108B75008005E4FF1291477F6412AE4F7BFF7DD0E5
:108B85007F8A12AB9A7BFF7DD17F8A12AB9A22C274
:098B95001AE4FF127BB5C2942220
:0FAF1000C22012AFFF43E804C2B5E4FF02AD3523
:0CAF620012A68B90011BEEF0A3EFF02272
:09AFED0090011BE0FEA3E0FF222D
:10821D00C374FF9FFFC39400400CEF94645007E4B8
:10822D00900002F0804BEFC39464400DEF948C509E
:10823D00089000027414F08038EFC3948C400DEF59
:10824D0094B450089000027428F08025EFC394B4C4
:10825D00400DEF94DC5008900002743CF08012EF5A
:10826D00C394DC400CEFD394FF5006900002744B86
:10827D00F0900141E0702C900110E0C3940F500577
:10828D00E004F08024900002E0FFE51DD39F400440
:10829D00151D8008E51DC39F5002051DE4900110BA
:1082AD00F08006900002E0F51D7DFF7F8A12A70386
:1082BD00900001EFF012AAA012AB9A7DBE7F8A1238
:1082CD00A703EF54CF4410FB7DBE7F8A12AB9A7D7E
:1082DD00C47F8A12A703EF5480451DFB7DC47F8A9E
:0F82ED0012AB9A900001E0FB7DFF7F8A02AB9AF3
:10AED300E4900134F090011EF09001327408F022E6
:107AB0007FAB7E0012AB74900109EFF07FB07E00C7
:107AC00012AB7490010AEFF07FAA7E0012AB7490A3
:107AD000012AEFF07FAD7E0012AB74900119EFF038
:107AE0007FA07E0012AB74900141EFF07FB87E0062
:107AF00012AB74900116EFF07FB77E0012AB74905A
:107B00000111EFF07FB97E0012AB74900108EFF025
:107B10007FBF7E0012AB74EF24FF92087FC57E000A
:107B200012AB74900118EFF07FAF7E0012AB74902F
:107B3000012EEFF07FA5127BADEE90012B7006E0D9
:107B40004401F08004E0540EF07FA6127BADEE906D
:107B5000012C7006E04401F08004E0540EF07FA791
:107B60007E0012AB74AE07EE90012D7006E044016A
:107B7000F08004E0540EF07FA87E0012AB74AE07D4
:107B8000EF90012F7006E04401F08004E0540EF005
:107B900012B03890014BEFF012B04090014CEFF072
:0C7BA0007FB27E0012AB7490010EEFF07B
:097BAC00227E0012AB74AE072228
:106B03007BFF7A6C79BD12AE3490010AE0704912B2
:106B1300B056EF20E14230092920063CD206E4902A
:106B2300010DF07FA3FE12AB74EF7009900147E0F3
:106B330054EFF0800690010D7403F07F0612805A23
:106B4300801630061312B056EF20E60CC2067FA360
:106B53007E0012AB74128669125194900000EFF01C
:106B6300125D61900130E0701B900134E06015907C
:106B7300012AE0FF90011EE0C39F400812ABE6E448
:106B830090011EF0900141E0700E7DC97F8A12A72B
:106B930003900000EFF080027FFF12821D12457AFE
:106BA300EF7003026C8590010DE06401707312B005
:106BB30056EF20E16C12B056EF20E2657FA37E0012
:106BC30012AB74EF605B900130E0705090010AE00B
:106BD300700FFD7F0212A4C7900147E054EFF080CD
:106BE3003B90012BE0540DF090012CE0540DF090FC
:106BF300012DE0540DF090012FE0540DF0129C4351
:106C030090012BE04402F090012CE04402F090014B
:106C13002DE04402F090012FE04402F0E490010DD6
:106C2300F012901012B062EF1424FD5002800A1289
:106C3300B056EF20E10312880D900149E0B401053D
:106C430053E8FBE4F0900149E0B4020343E8087D14
:106C5300B27F8A12A703EF6003026B0C7BB07DFD4A
:106C63007F8A12AB9AE4FF12AD357FF47E0112A343
:106C7300AF7F0112AD357B307DFD7F8A12AB9A0267
:026C83006B0C98
:016C850022EC
:109D0700C2B5C22012AFFF7F0A7E0012A3AFC2B452
:109D170012A1E07F0112AD3512AD1712AED3129426
:109D2700AB12788A7F0A7E0012A3AF127AB0900135
:109D37002EE0900146F07FA97E0012AB7412A2CBF1
:109D4700E4900130F07BFF7A6C79C212AE347F0366
:109D5700129147900109E06003126B03127DA58001
:019D6700F209
:107DA500E4900001F0125194900000EFF0601BE0A8
:107DB500FF125D61900132E0B40803D38001C34036
:107DC500197F01129147D220800D900000E0FF122B
:107DD5005D6112AF10C22012AFFFE4FF129F8EEF5C
:107DE5006018B40415125194EF700F90010904F056
:107DF500FD7FAB7E0012A3F7805D900149E0640230
:107E050070A312002A43E8087F107E0012A3AFD2A8
:107E1500B57B09127E877F0412AE4F7B0B127E87DE
:107E25007F0A12AE4F1200297B0F7DD57F8A12ABD8
:107E35009A7F0512AE4F7BFF7A6C79D312AE347FF1
:107E4500647E0012A3AF7BFF7A6C79E612AE34E450
:107E5500900149F0027DAA128669129C437FA37E98
:107E65000012AB74BF010690010D7403F0C2067FCA
:107E750001129147D22012AFFF7BFF7A6C79F9028C
:027E8500AE3419
:087E87007DD57F8A12AB9A221F
:1079A400A10AA20AA000A310A410A591A601A701F0
:1079B400A822A910AA00AB62119E00000100CC0C01
:1079C40002700000005000000F4000119E30310092
:1079D400AFC81202F1100800500030004000119EA0
:1079E4003100029000040170000000A0F5000F4077
:1079F40000119E3100029000030170000000F0F5B8
:107A0400000F4000119E3230000C0D0A01B1040435
:107A14000050C800044000119E313000160D0F02C2
:107A24003101000050A0000840119E3330100C9822
:107A340028013101000000B400084000119E3130DB
:107A4400000C020F023101000050A0000840001198
:107A54009E3130000A0502013101000050A00008E7
:107A64004000119E32300040090204B1000890E049
:107A740000043340119E3130008A091808B08A0589
:107A8400B05026083340119E30B40040270201F163
:107A9400000000E0000033C100119E303C109060F3
:0C7AA4001502F102044050C80033C1007C
:1095BE00900051FFE475F00112449EEF02418B9032
:1095CE00004FE0FEA3E0FF22EF14FB7D9E7F8A2278
:1095DE0090001B12449590001EE0F58275830002E8
:1095EE00415EE0A4FFA3E5F0F0A3EFF07DA07F8A3B
:1095FE002290005BE0FCA3E0FD22EEF0A3EFF0A3CF
:10960E00221241AF900059EEF0A3EFF04E22A3E0EC
:10961E00FB7D967F8A221241AF90004FECF0A3EDB6
:10962E00F022F07B047D947F8A22EDF0EFC394014B
:08963E0022E4FB7D947F8A22E7
:10A9D70012A9F9900028F0E4A3F012A9F9FF90005A
:10A9E70028E06F700C900029E004F0E0C3940A405F
:01A9F700E976
:0CA9F800227D957F8A12A703EF544022B5
:109E2400E490000DF0E490000CF090000CE0FFC30F
:109E34009408502FA3E075F008A4FEEF2E7D9C1229
:109E44009E74FFA3E075F0089018EE124489E58231
:109E54002FF582E43583F583E4937D9D129E74048B
:0F9E6400F080C790000DE004F0E0C3940240B618
:0C9E730022FB7F8A12AB9A90000CE022C8
:109D6800900003EFF0A31244B5129DB644017D9410
:109D7800129DBF900003E07D99129DBF7DE07F8A10
:109D880012A703EF4410FB7DE07F8A12AB9A900084
:109D98000412449590005A741BF07D9A7F8A12A58C
:109DA8004D129DB654FEFB7D947F8A02AB9A7D943A
:0E9DB8007F8A12A703EF22FB7F8A12AB9A224A
:10A7AE007B607D9B7F8A12AB9AE4900002F0900052
:10A7BE0002E0FFC394E2501FEF94C6501AEF75F0FB
:10A7CE001BA424FEF9741835F0FA7BFF129D6890D5
:07A7DE000002E004F080D747
:01A7E5002251
:03A5CF00900014E5
:10A5D2001296384036EFD3940850301295D612AB0B
:10A5E2009A90001475F0081295F012A703EF54F038
:10A5F200FD900015E04DFB7DA07F8A12AB9A900082
:0BA6020015A3E0FB7DA17F8A12AB9A3C
:01A60D00222A
:03A50B00900014A9
:10A50E001296384039EFD3940850331295D612ABC9
:10A51E009A90001475F0041295F012A703EF540FE1
:10A52E00FD900015E0C454F04DFB7DA07F8A12AB68
:0EA53E009A900015A3E0FB7DA27F8A12AB9AD3
:01A54C0022EC
:05A9A80090001DEFF01E
:10A9AD0012A9D77D9C7F8A12A70390001EEFF0900D
:10A9BD00001DE06006A3E054EF800690001EE04409
:09A9CD0010FB7D9C7F8A12AB9AFD
:01A9D600225E
:03A4C70090001DE5
:10A4CA00129638403BEFD3940850351295D612AB0A
:10A4DA009A7D9F7F8A12A70390001EEFF090001DBD
:10A4EA00E06007A3E04401F0800790001EE054FEFC
:10A4FA00F012A9D790001EE0FB7D9F7F8A12AB9ACB
:01A50A00222E
:10A36400EFC394014006EFD394084004E4FEFF22B7
:10A374001295D612AB9A7DA07F8A12A703EF540FD1
:10A38400900028F0A3E4F07DA17F8A12A703900037
:10A3940028E0F0A3E04FF0900028E0FEA3E078036B
:0AA3A400CEC313CE13D8F9FF7E00DC
:01A3AE00228C
:10A03E00EFC394014006EFD394084004E4FEFF22E0
:10A04E001295D612AB9A7DA07F8A12A703EF54F019
:10A05E00C4F8540FC868FEE4C454F048900028F0C9
:10A06E00A3CEF07DA27F8A12A703900028E0F0A372
:10A07E00E04FF0900028E0FEA3E07802CEC313CEAE
:06A08E0013D8F9FF7E006B
:01A0940022A9
:10A8830090004F1296081244B512963112AB9A906B
:10A89300004F12961C12AB9A9000511244959000EF
:10A8A30054E090005AF07D977F8A12A54D12963F8F
:03A8B30002AB9A5B
:10A8E700900030129608EDF0A3EB12963012AB9A57
:10A8F70090003012961C12AB9A900032E0FBA3E056
:10A90700900037F07D987F8A12A64D12963F02ABD2
:01A917009AA5
:10AA0400900030129608ED12963012AB9A900030F6
:10AA140012961C12AB9A900032E0900037F07B2023
:0DAA24007D977F8A12A64D12963F02AB9AD5
:0977690090004F1296081244B57D
:107772009000561244B5E4900055F0900054E06435
:107782000A707990005B7427F0A37410F01295FFD1
:10779200C3940AEC940040561295CD12960F6012D3
:1077A200900059A3E024301295BE900055E004F0F9
:1077B2008015900055E0600F900051E475F00112C1
:1077C200449E743012418B1295CD90005BE0FAA377
:1077D200E0FBFDAC021296247D0A7C00AF03AE02F0
:1077E2001241AF90005BEEF0A3EFF002778F9000B2
:1077F2004FA3E02430A31295C102787D900054E09B
:107802006410600302788790005B7410F0A3E4F0C8
:107812001295FFC39410EC940040441295CD129639
:107822000F6028900059E0FEA3E0FFC3940AEE9493
:10783200004005EF24378007900059A3E02430125E
:1078420095BE1295CD1295FF12962490005BE0C46E
:10785200F854F0C868F0A3E0C4540F48F080B112A5
:1078620095CDC3940AEE94004005EF24378007902B
:10787200004FA3E02430FFA31295C290005112449E
:0778820095E412418B7F0128
:0178890022DC
:06AE190090004F1244B549
:10AE1F00E4FF90004FE475F00112449E124145602B
:04AE2F00030F80EE9F
:01AE330022FC
:068E320090001B1244B584
:108E38007DFF7F8A12A70390001FEFF054FEFB7D91
:108E4800FF7F8A12AB9A7DE07F8A12A703EF54EF67
:108E5800128EC1E490001EF01295DEFF6042900071
:108E68001EE02401FDE433FC90001B124495E92D1B
:108E7800F9EA3CFAEF128ECA90001EE02401FFE4E2
:108E880033FE90001B124495E92FF9EA3EFA740567
:108E9800128ECA1295DE04FF90001EE02FF080B8F3
:108EA8007DE07F8A12A703EF4410128EC190001F45
:098EB800E0FB7DFF7F8A02AB9A0A
:108EC100FB7DE07F8A12AB9A22900024F07F8A1208
:038ED100A73C2299
:100066000A0D6D6F646520300A0D000D0A5B4D5355
:10007600475D536574345769646553637265656E8D
:100086002829203D3E2053637265656E20746F20DB
:10009600343A33202121000A0D6D6F646520320A3F
:1000A6000D000D0A2B2B284F5344486967684D6590
:1000B6006E755F73756229204F53444D656E754C9E
:1000C6006576656C3A2564000D0A52455345545FC2
:1000D6004D6F6E69746F7256414C5545000A0D7925
:1000E600766D697820340A0D000A0D79766D697887
:1000F60020300A0D000A0D79766D697820310A0DD7
:10010600000A0D79766D697820320A0D000A0D799C
:10011600766D697820330A0D00436865636B205657
:100126004741204361626C65004F7574204F66201D
:1001360052616E676500FE62596B62714C2F713AAF
:1001460034FF001213566F6C756D65002020204138
:1001560075746F2041646A757374696E67202E2EFC
:100166002E2E20202000436F6D706F73697465001A
:1001760056657273696F6E004C4344205665727300
:10018600696F6E004456522056657273696F6E0031
:10019600574946492049500057494649204D414351
:1001A6000047415445574159004F534420506F73FF
:1001B6006974696F6E004F534420506F73696369A9
:1001C6005F6E004F534420FE5465714667FF004C36
:1001D600616E6775616765004C616E677565005392
:1001E600707261636865004964696F6D6100FE57EE
:1001F60056714667FF004272696768746E6573736D
:10020600004C756D696E6F7369745F0048656C6C40
:1002160069676B656974004272696C6C6F00FE40B9
:1002260024715F60FF00436F6E74726173740043E4
:100236006F6E747261737465004B6F6E7472617366
:100246007400436F6E74726173746500FE394F718A
:100256005F60FF0053617475726174696F6E00535D
:10026600AA74746967756E67005361747572616309
:10027600695F6E00FE4A2C33715F60FF004875654A
:1002860000546F6E616C69745C0046617262650051
:10029600546F6E616C6964616400FE4A5448715F14
:1002A60060FF0053686172706E6573730041637519
:1002B60069745C00536368AA726665004167756479
:1002C600657A6100FE463933715F60FF00526573DF
:1002D600657400445C66617574004772756E64658A
:1002E600696E7374656C75670050726564657465D4
:1002F600726D696E6163695F6E00FE66246DFF0054
:10030600576964652053637265656E0057494445B5
:1003160020FE6D3B714667FF004D6972726F720079
:100326004A756D70005345512054696D65205374AC
:100336006570004A756D702041560043616D204F0F
:1003460075740052657475726E00526563616C6CEB
:10035600004D6F6E69746F7220526563616C6C003C
:1003660044565220526563616C6C0045786974008E
:1003760020007665722041302E31320054696D6559
:100386004F757420536574757000476175676520F5
:1003960053657475700047617567652052656361C2
:1003A6006C6C005052494F5249545900526576655B
:1003B6007273204D6F6465005265736F6C75746956
:1003C6006F6E00465053005175616C697479005226
:1003D60065636F7264204D6F6465005265636F726A
:1003E60064204C656E677468005072652D616C619F
:1003F600726D00506F73742D7265636F7264004185
:1004060070706C79005265636F72645374617274B4
:10041600005265636F726453746F7000536E61703F
:1004260073686F7400446174652054696D65005982
:10043600656172004D6F6E74680044617900486FA3
:100446007572004D696E00536563004461796C698D
:10045600676874536176696E6700426567696E65A1
:1004660000456E64005765656B0054696D65005400
:10047600696D65205A6F6E650052657475726E26D9
:100486004170706C7900466F726D61742053442020
:100496004361726400417564696F205265636F72CF
:1004A60064004669726D7761726520557064617487
:1004B6006500596573004E6F004669727374204E6D
:1004C600756D626572005365636F6E64204E756D5F
:1004D600626572005468697264204E756D62657259
:1004E60000466F75727468204E756D6265720043C2
:1004F60068616E67652050617373776F7264004F31
:1005060076657257726974650044697220496D6137
:1005160067650054726967676572205647410054E3
:100526007269676765722044656C617900496E6619
:100536006F726D6174696F6E0055706461746520C9
:10054600436F6E66696700534420636F7665722059
:100556004465742E0043414D20410043414D2042E5
:100566000043414D20430043414D205200446973EE
:10057600706C61790044565220446973706C6179DD
:100586000044697374616E63652047617567650031
:100596004F5344204C6F636B0050617373776F72D7
:1005A6006400536F75726365205469746C6500430B
:1005B600564253204100435642532042004356427E
:1005C60053204300435642532052004175746F2016
:1005D600446179264E696768740044697220496DE2
:1005E6006167650044697220496D61676520410055
:1005F60044697220496D6167652042004469722032
:10060600496D6167652043005265617220536574C8
:1006160075700043414D20410043414D2052004337
:10062600414D20420043414D20430043414D20446B
:10063600000200456E676C697368004672616E7BE6
:10064600616973004465757473636800457370610E
:100656007E6F6C00FE6A2356FF200004014D6F6416
:100666006531004D6F646532004D6F64653300552A
:10067600736572004D6F646531004D6F64653200BD
:100686004D6F64653300557361676572004D6F6425
:10069600757331004D6F64757332004D6F647573F9
:1006A600330042656E75747A6572004D6F646F3102
:1006B600004D6F646F32004D6F646F330055737574
:1006C6006172696F00FE3A34FF3100FE3A34FF3240
:1006D60000FE3A34FF3300FE47515B71FF200008ED
:1006E600004175746F004E5453430050414C005303
:1006F6004543414D004E545343342E34330050414C
:100706004C4D0050414C4E0050414C3630000500D7
:100716004E6F726D616C00576964650050616E6F53
:1007260072616D610046756C6C000500FE1A1BFF58
:100736002000FE1C1DFF2000FE1E1DFF2000FE1FC8
:1007460020FF2000FE1F21FF200009004F666600E3
:1007560043433100434332004343330043433400B1
:1007660054310054320054330054340002004F4ECA
:10077600004F46460002004D4952524F52004E4F1E
:10078600524D414C000300446179004155544F00DD
:100796004E6967687400020031363A3900343A33DC
:1007A600000200004F4E004F464600040053494EDB
:1007B600474C45004455414C00545249504C450065
:1007C600412B422C422B410007004100412B4200A5
:1007D600412B4300412B5200412B424300412B4207
:1007E6005200412B43520007004200422B41004277
:1007F6002B4300422B5200422B414300422B4152D5
:1008060000422B43520007004300432B4100432B79
:100816004200432B5200432B414200432B415200DE
:10082600432B4252000A005200522B4100522B42E7
:1008360000522B4300522F414200522F4143005297
:100846002F424300522B414200522B414300522B70
:100856004243000E00515541440053455100412B7F
:100866004200432B5200412B5200522B4200412B97
:100876004300432B4200522F414200522B4142007B
:1008860041004200430052000500515541440043D7
:10089600414D410043414D420043414D43004341D8
:1008A6004D5200020000373230783438300033358C
:1008B60032783234300005000035003130003135F1
:1008C600003230003235003330000500004C6576CA
:1008D600656C2D31004C6576656C2D32004C657665
:1008E600656C2D33004C6576656C2D34004C657651
:1008F600656C2D35000300004E6F6E65004E6F72FD
:100906006D616C00416C61726D0006000031202043
:100916006D696E003220206D696E003320206D698E
:100926006E003420206D696E003520206D696E00E2
:100936003130206D696E0005000031352073656326
:10094600003330207365630036302073656300081A
:100956000000313520736563003330207365630012
:100966003630207365630002000044697361626C6F
:100976006500456E61626C6500040000466972732D
:1009860074005365636F6E64005468697264004650
:100996006F75727468000400410042004300520003
:1009A6001900002D3132002D3131002D3130002D4E
:1009B60039002D38002D37002D36002D35002D3409
:1009C600002D33002D32002D310030003100320071
:1009D6003300340035003600370038003900313036
:1009E6000031310031320002005020004420000363
:1009F6000032343030003438303000393630300090
:100A06000200FE1819FF2000FE1A1BFF200004003A
:100A1600FE1C1D1E1F2021FF2000FE222328292A3E
:100A26002BFF2000FE242528292A2BFF2000412BFE
:100A3600422C422B41000E00FE262728292A2BFF96
:100A4600200053455100412B4200432B5200412BBD
:100A56005200522B4200412B4300432B4200522F9F
:100A6600414200522B4142004100420043005200E5
:100A760056474100FF0176FF0176FF0176FF0176BA
:100A8600FF0176FF017EFF017EFF017EFF017EFFF3
:100A9600017EFF018AFF018AFF018AFF018AFF01A9
:100AA6008AFF0196FF0196FF0196FF0196FF0196C8
:100AB600FF019EFF019EFF019EFF019EFF019EFF1B
:100AC60001A7FF01A7FF01A7FF01A7FF01A7FF01DC
:100AD6001FFF012FFF012FFF012FFF012FFF013CF9
:100AE600FF0149FF01AFFF01AFFF01AFFF01BCFFEF
:100AF60001C9FF01D5FF01DEFF01E5FF01EDFF01A1
:100B0600F4FF01FCFF0207FF0212FF021DFF022491
:100B1600FF022CFF0235FF023FFF0248FF0252FF91
:100B2600025AFF025AFF0265FF026FFF027AFF02B6
:100B360083FF0287FF0290FF0296FF02A0FF02A931
:100B4600FF02B3FF02BAFF02C2FF02CAFF02D3FFCF
:100B560002D9FF02E0FF02EFFF0300FF031FFF03BE
:100B66001FFF031FFF031FFF031FFF0326FF0326AD
:100B7600FF0326FF0326FF0326FF032BFF032BFF9E
:100B8600032BFF032BFF032BFF0341FF0341FF034F
:100B960041FF0341FF0341FF0339FF0349FF0349B7
:100BA600FF0349FF0349FF0349FF0350FF0350FFBB
:100BB6000350FF0350FF0350FF0357FF0357FF0384
:100BC60057FF0357FF0357FF0366FF0366FF0366DE
:100BD600FF0366FF0366FF0371FF0371FF0371FFE7
:100BE6000371FF0371FF0573FF0573FF0573FF05AF
:100BF60073FF0573FF057BFF057BFF057BFF057B09
:100C0600FF057BFF0587FF0587FF0587FF0587FF34
:100C16000587FF0596FF0596FF0596FF0596FF05D6
:100C260096FF059FFF059FFF059FFF059FFF059FF9
:100C3600FF05A8FF05A8FF05A8FF05A8FF05A8FF53
:100C460005B5FF05B5FF05B5FF05B5FF05B5FF05FC
:100C5600BCFF05BCFF05BCFF05BCFF05BCFF05C30B
:100C6600FF05C3FF05C3FF05C3FF05C3FF05CAFF95
:100C760005CAFF05CAFF05CAFF05CAFF05D1FF055C
:100C8600D1FF05D1FF05D1FF05D1FF05E0FF05E046
:100C9600FF05E0FF05E0FF05E0FF05EAFF05F6FFBB
:100CA6000602FF060EFF060EFF060EFF060EFF06E5
:100CB6000EFF0619FF0619FF0619FF0619FF06198A
:100CC600FF0625FF0625FF0625FF0625FF0625FF4D
:100CD600062BFF062BFF062BFF062BFF062BFF0618
:100CE6001FFF061FFF061FFF061FFF061FFF063119
:100CF600FF0631FF0631FF0631FF0631FF0376FF9F
:100D06000378FF0382FF0390FF039CFF03A9FF0301
:100D1600B2FF0525FF0525FF0525FF0525FF05254E
:100D2600FF055BFF055BFF055BFF055BFF055BFFE3
:100D36000561FF0561FF0561FF0561FF0561FF05AF
:100D460067FF0567FF0567FF0567FF0567FF056D19
:100D5600FF056DFF056DFF056DFF056DFF03BEFF0A
:100D660003C9FF03CDFF03D5FF03E1FF03EFFF0335
:100D7600F9FF0405FF040BFF0417FF0422FF042BF1
:100D8600FF0435FF043AFF0440FF0444FF0449FF13
:100D9600044DFF0451FF0460FF0467FF046BFF046A
:100DA60070FF0475FF047FFF048CFF049BFF04A8FB
:100DB600FF04B8FF04BCFF04BFFF04CCFF04DAFF46
:100DC60004E7FF04F5FF0505FF050FFF0519FF05FD
:100DD60033FF053FFF054DFF0306FF0306FF03062E
:100DE600FF0306FF0312FE6C6F00FE727500FE60C5
:100DF6006300FE787B00FE666900FE848700FE01C4
:100E06000200FE7E8100FE8A8D00FE909300FE9613
:100E16009900FEC0C300FE9C9F00FEA2A500FEA88E
:100E2600AB00FEAEB100FEB4B700FEBABD000000D6
:100E360018031661180216610000FF0C81FFFFFF00
:100E46003200000700B807720000FF0BEBFFFFFF40
:100E56003200000700B907720000FF0C09FFFFFF10
:100E66003200000700BA07720000FF0C18FFFFFFF0
:100E76003200000700BB07720000FF0D11FFFFFFE5
:100E86003200000700CA07720000FF0D14FFFFFFC3
:100E96003200000700D6079C0000FF0BA0FFFFFFF3
:100EA6003200000300F1000000000000000000FF17
:100EB600FF00000000000000180216610000FF0D90
:100EC600B9FFFFFF3200000300F100000000FF0D34
:100ED600B6FFFFFF3200000300ED00000000000037
:100EE600000000FFFF00000000000000180216616D
:100EF6000000FF0DBCFFFFFF32000005002D0E3580
:100F06000000FF0DBFFFFFFF32000005002E0E356B
:100F16000000FF0DC2FFFFFF32000005002F0E3557
:100F26000000FF0DC5FFFFFF3200000500380E353B
:100F36000000FF0DC8FFFFFF3200000300EE0000B7
:100F46000000FF0BA0FFFFFF3200000300F10000CE
:100F560000000000000000FFFF000000000000008D
:100F6600180216610000FF0DBCFFFFFF32000005EE
:100F7600002D0E350000FF0DBFFFFFFF32000005FC
:100F8600002E0E350000FF0DC2FFFFFF32000005E8
:100F9600002F0E350000FF0DC5FFFFFF32000005D4
:100FA60000380E350000FF0DADFFFFFF32000003D5
:100FB60000EB00000000FF0DC8FFFFFF320EF60138
:100FC60000000EF20000FF0BA0FFFFFF320000033F
:100FD60000F1000000000000000000FFFF0000001C
:100FE60000000000180516610000FF0DA7FFFFFFB7
:100FF60032000007002C09A60000FF0D86FFFFFF48
:101006003200000500200E350000FF0D89FFFFFFAE
:101016003200000500210E350000FF0D8CFFFFFF9A
:101026003200000500220E350000FF0D8FFFFFFF86
:101036003200000500230E350000FF0D92FFFFFF72
:101046003200000500240E350000FF0DAAFFFFFF49
:101056003200000300F6000000000000000000FF60
:10106600FF000000000000000000FF0DB6FFFFFFBC
:1010760032000003009B00000000FF0DB9FFFFFFD8
:101086003200000300F1000000000000000000FF35
:10109600FF000000000000000000FF0DB6FFFFFF8C
:1010A60032000003007000000000FF0DB9FFFFFFD3
:1010B6003200000300F1000000000000000000FF05
:1010C600FF000000000000000000FF0DB6FFFFFF5C
:1010D60032000003009E00000000FF0DB9FFFFFF75
:1010E6003200000300F1000000000000000000FFD5
:1010F600FF000000000000000000FF0BBEFFFFFF26
:1011060032109E0100000E360000FF0BCDFFFFFFE0
:101116003210CE0100000E360000FF0BA0FFFFFFCD
:101126003200000300F1000000000000000000FF94
:10113600FF00000000000000180416610000FF0A0E
:10114600A7FFFFFF3600000B00F1000000000000C3
:1011560000FFFFFF3200000C00390E350000FF0AC9
:10116600B6FFFFFF3600000B00F100000000000094
:1011760000FFFFFF3600000C003A0E350000FF0AA4
:10118600C5FFFFFF3600000B00F100000000000065
:1011960000FFFFFF3600000C003B0E350000FF0B82
:1011A600A0FFFFFF3200000300F100000000000076
:1011B600000000FFFF000000000000001804166198
:1011C6000000FF0BAFFFFFFF32000003009B000093
:1011D6000000FF0BDCFFFFFF3200000300F40000FD
:1011E6000000FF0D02FFFFFF3200000B00F40000BD
:1011F6000000FF0D02FFFFFF3200000B00F40000AD
:101206000000FF0D02FFFFFF3200000B00F400009C
:101216000000FF0D02FFFFFF3200000B00F400008C
:101226000000FF0D05FFFFFF3600000B00F4000075
:1012360000000000000000FFFF00000000000000AA
:10124600180516610000FF0D6EFFFFFF3200000754
:1012560000E409100000FF0D74FFFFFF32000007D5
:1012660000E609550000FF0DB0FFFFFF3200000742
:1012760000EC099C0000FF0DAAFFFFFF32000003EF
:1012860000F5000000000000000000FFFF00000065
:1012960000000000180416610000FF0D6BFFFFFF41
:1012A60032124A01000012460000FF0D65FFFFFFE3
:1012B6003200000700E108BC0000FF0D68FFFFFFD9
:1012C6003200000700E208D00000FF0DADFFFFFF6F
:1012D600320F6A0100000F660000FF0DB3FFFFFF2B
:1012E600320EC20100000EBE0000FF0DAAFFFFFF76
:1012F6003200000300F5000000000000000000FFBF
:10130600FF00000000000000180516610000000044
:10131600000000FFFF000000000000001804166136
:101326000000FF0B07FFFFFF3200000400960E359A
:101336000000FF0B16FFFFFF3200000400950E357C
:101346000000FF0B25FFFFFF3200000400970E355B
:101356000000FF0B34FFFFFF3200000400990E353A
:101366000000FF0B43FFFFFF32000004009A0E351A
:101376000000FF0BA0FFFFFF3200000300F100009A
:1013860000000000000000FFFF0000000000000059
:10139600180516610000FF0CB7FFFFFF32000007BB
:1013A60000C107720000FF0CC6FFFFFF32000007F6
:1013B60000C207720000FF0CD5FFFFFF32000007D6
:1013C60000C307720000FF0CE4FFFFFF32000007B6
:1013D60000C407720000FF0BA0FFFFFF32000003EE
:1013E60000F1000000000000000000FFFF00000008
:1013F600000000000000FF0D26FFFFFF3200000482
:1014060000B20E350000FF0D35FFFFFF320000046D
:1014160000B30E350000FF0D44FFFFFF320000044D
:1014260000B40E350000FF0D53FFFFFF320000042D
:1014360000B50E350000FF0BA0FFFFFF32000003D2
:1014460000F1000000000000000000FFFF000000A7
:1014560000000000180516610000FF0C9FFFFFFF4B
:101466003200000700CD07CE0000FF0CA2FFFFFFF1
:101476003200000700CE07ED0000FF0CA5FFFFFFBE
:101486003200000700CF080C0000FF0BA0FFFFFF93
:101496003200000300F1000000000000000000FF21
:1014A600FF00000000000000180816610000FF0B96
:1014B60061FFFFFF32139A0100000E360000FF0D98
:1014C600CEFFFFFF32145E0100000E360000FF0C57
:1014D600A8FFFFFF3200000700C6082B0000FF0B25
:1014E60070FFFFFF3200000700C708590000FF0B1E
:1014F6008EFFFFFF3200000700C8088E0000FF0BBA
:101506007FFFFFFF3200000400C90E350000FF0D0B
:1015160017FFFFFF3213FA0100000E360000FF0B23
:10152600A0FFFFFF3200000300F1000000000000F2
:10153600000000FFFF000000000000000204FF3270
:101546000DEC000000FFFF32FF132601009F13225F
:101556000DF0000000FFFF32FF0E3E0100000E3AC4
:101566000DF4000000FFFF32FF14B201009F14AE1D
:101576000DF8000000FFFF32FF11C601000011C286
:1015860000000000000000FFFF0000000000000057
:101596000000000000FFFF32FF1546010000154263
:1015A60000000000000000FFFF0000000000000037
:1015B60000000064003200020034001A0001002C12
:1015C600001600000037001C000000C70064002D54
:1015D60000D200800000000700030000003F00204A
:1015E600002D00D200800000001F00100019007DB1
:1015F600005A001E00820069FF830018001E0000CA
:1016060000FF0080FF80007F00000000000700034D
:101616000000007F004011111171113B161A0102E2
:1016260001342C342C024B323232323232324B32CB
:1016360032321110131415707174727370717472E2
:101646007378630080800060808080802080808046
:10165600803B68F890900060808080802080808049
:10166600800358F8A0A00060808080802080808061
:101676008003322528282D64323232323232000A73
:10168600006000610062006300660067006800B9E0
:1016960000FC13DBA67B0060000017481BDB807B89
:1016A6000000000017481EF2807C800001B6314819
:1016B60026D58069000000006FDF13D4A691006074
:1016C6000000174821D4809100000000174813F24B
:1016D6008092800001B6344813DC807F0000000051
:1016E600605A14008B7C01500000294814DC807C71
:1016F60000000000294814F2807C800001B62948C9
:1017060014DC805F000000007B5A0C008B940150B3
:1017160000002D480CDC8094000000002D480CF2DF
:101726008094800001B62D480CDC807F000000000C
:10173600605A3AF680FB0050000026483AC380FB08
:101746000000000026483ACC80FB800001B62648FF
:101756003AC380BE00000000705A3FF98029045049
:1017660000002E483FC38029040000002E483FD0C9
:101776008029840001B62E483FC380E8000000009F
:10178600805A28A4806A04500000165A2884806A69
:1017960004000000165A2889806A84350035165AD6
:1017A6002884801C040000006B5A23F9801404501E
:1017B60000001F5A23C88014040000001F5A23F09B
:1017C6008014843501871F5A23C880E70000000073
:1017D600565A202020496E70757420203A20202009
:1017E60020202020202020202020200020202053E0
:1017F600797374656D203A20202020202020202037
:1018060020202020200020202048204672657120BC
:101816003A2020202020206B487A202020202000FB
:10182600202020562046726571203A202020202054
:101836002020487A202020202000202020462F57D4
:10184600205265763A2020202020202020202020AB
:101856002020200000000000000000000000000022
:10186600000000000000000000000000000001026F
:101876000205050403040404040404040404040423
:1018860004040404040404032020201C2020202037
:101896002020202020200020202020202020202062
:1018A6002020002E003A000101010101010102027F
:1018B60002020202020505050505050404040404E6
:1018C6000403202020000404040404032020200034
:1018D6002020202020202020202020002020202022
:0818E60020202020202020001A
:107594004100FBFF4100FC0041010100C11FC11E6D
:1075A4004100E9004100FE004101030041010200E5
:0775B4004100F6000179001F
:104A0000D3900011E09400900010E09400227E000A
:104A1000900011E09000105403FFEEF0A3EFF0229D
:104A20009000E7E0FEA3E0F5828E83229000257AD5
:104A3000007926E0FF7E007B0190002E1244B57BBA
:104A4000FF22EE900010F0A3EFF02275F010124458
:104A500089740E93FB740F939000EACBF0A3EBF0F4
:104A60008F828E83ED75F010124489740993FF7460
:104A70000A939000E7CFF0A3EFF022900029E02402
:104A8000F1FF900028E034FFFE90002D0244957560
:104A9000F010124489740D93227A1579C890003170
:104AA0001244B57A1579B62290001F1244959000F1
:104AB0000E12427BAAF0F97BFF90002D1244B590B4
:104AC000001F024495900010A3E0FD22E0FDE49059
:104AD0000035F0A3EDF022E0FF900010E4F0A322F7
:104AE0009000E7E0FEA3E0FFF5828E8322E49000D1
:104AF00010F0A3F022900028E0FEA3E0FF22E0FEE9
:104B0000A3E0FF7B019000547409F0229000E7E0DD
:104B1000FEA3E0FFEE9000F7F0A3EFF0A322FD75F7
:104B2000F00A84E5F02430F0ED75F00A84227E006E
:104B3000900104EEF0A3EFF022E0FEA3E0FF90006E
:104B4000EAE0FCA3E0F5828C832290000DE0900067
:104B50000FA4FFE5F08FF002423A75F0101244897D
:104B6000740E93FC740F93AA04F97BFF9000071254
:104B700044B58F828E83227D017BFF7E0002411F20
:104B8000FFE975F003A42416F582E43400F58322CE
:104B900090000FE0FEA3E0FF9000EAE0FAA3E0F54A
:104BA000828A83740393FDE49322EFF090000FE078
:104BB0002290004CE475F00112449E0241459000A1
:104BC000021244EA900101E075F003A4F58285F039
:104BD000830244EAF0A3EFF0D39015B67401939FDB
:104BE000EE6480F8E49364809822FF900028E0341B
:104BF00000229000E7E0FEA3E0AA06F97BFF227501
:104C0000F010024489A3E475F00102423AE0FEA3E9
:104C1000E02DFDEE3CFCEDA4FBAAF0FF900018E0B7
:104C2000229015B8E493FE740193FF2290000FE4E4
:104C3000F0A3740EF022F0E0FF25E02422F582E4D8
:104C40003416F583E49322F0EF25E02423F582E483
:104C50003416F583E493227E00EEF0A3EFF07B019F
:104C600022EEF0A3EFF0A32290000D02415EC3906C
:104C70000011E09403227D017BFF7E007F0C024146
:104C80001F900106E0640122740E93FB740F939051
:104C900000EACBF0A3EBF022EF54F8FFA3E05407B7
:104CA0004FFB7D177F8A22900011E02403F09000D3
:104CB00010E03400F02290000CE0FEA3E0FF900032
:104CC0000AA3E0FD22FFE493FC740193FDC3EF9D72
:104CD000FEE49C2290000DEEF0A3EFF0FD90001397
:104CE000E0FF22E57925E024EEF582E43400F58347
:104CF0002235F0FA7BFF90000BE0900054F0222464
:104D000040F582E43400F58322900104A3E0FF2201
:104D1000E0FFA3E09000F7CFF0A3EFF0227D187C36
:104D20000012419DEF22FFE08FF0A4FF22A3E05488
:104D3000074438FB7D787F8A22C3900011E09406F7
:104D400022F090003AE004F022E0FEA3E0FF7B01B5
:104D500022E0FF7E007B017A00792722FBC3EF9BD4
:104D6000FFEE9400FEC322C3900011E0940222E003
:104D7000FD75F00A84E5F0243022F9E43AFA0244A1
:104D8000B52FFFE035F0FAA9077BFF22E024052FBD
:104D9000F075F0058422FFE4F0A3EFF022900013F9
:104DA000A3E0FF22FF7E007B017A007926229FEE9E
:104DB0006480F8EC648098221244950241457D326B
:104DC0007F267E002275F011A4240DF9746D22F562
:104DD00082E43400F583EEF022F582E43400F583BA
:034DE000EEF022D0
:03000E0012B02805
:0100110022CC
:0570D400900012EFF036
:1070D90012000E900017EFF0900012E0B401047F47
:1070E9000180027FFF900017124D8CE5F0124C369B
:1070F900FEFD900013E4F0A3EDF09000FFE0FDC366
:10710900900014E09DF0900013E09400F09000FFCF
:10711900EE124C47FFFD900015E4F0A3EDF090014D
:1071290000E0FDC3900016E09DF0900015E094008A
:10713900F0900100EFF09000187401F0900018E051
:10714900FFD39404506D12A364AD07AC06900013ED
:1071590075F008124C0DF975F003A42417F582E4B3
:107169003400F583EFF0EA124B80EFF0AF0112A083
:107179003EAC06AD0790001575F004124C0D75F084
:1071890003A42418F582E43400F583EFF0EAC4F887
:1071990054F0C8EBC4540F485470FF900018E0F93C
:1071A900124B82E04F124B80EFF0900018E004F090
:1071B90002714512A9D77DE07F8A12A703EF54EF28
:1071C9001272349000187401F0900018E0FFD39403
:1071D900045031EF14FB7D9E7F8A12AB9A90001800
:1071E900E075F003A42416F9740035F0FA7B0190D8
:1071F900005A7403F07DA07F8A12A54D900018E013
:1072090004F080C57DE07F8A12A703EF4410127253
:1072190034900017E0FF12AFAE12A9D7E4FB7D90BE
:0A7229007F8A12AB9A900017E0FF75
:0A72330022FB7DE07F8A12AB9A2255
:1063E500901622E4939000FFF0901623E493900119
:1063F50000F0E4FF12AFAE7FB01265767FA01265A4
:10640500767FA07E0012AB74900141EFF07FA11260
:10641500657E7FA212657E7FBA12658D7FA41265A7
:106425008D7FAB1265857FA312659C7FBB12659C32
:106435007FA51265857FA61265947FA71265947F57
:10644500A81265A37D327F387E0012A3F790014B19
:106455007432F0E4FF127BB57D327F377E0012A3E4
:10646500F77D037FB27E0012A3F77FBC1265A37F81
:10647500BD1265B27FBE1265B2900119E0700FFDC5
:106485007FAEFE12A3F77D017FAC7E00800E7D0DF1
:106495007FAE7E0012A3F7E4FD7FACFE12A3F7E406
:1064A500900134F07D027FAAFE12A3F77FA9126541
:1064B500CBE4FF12A2CB7BFF7A00796612AE347D66
:1064C500337FA07E0012AA047FB21265CB7FB31280
:1064D50065AA7FB41265AA7FB51265C37FB612653A
:1064E500C3127AB0E4FF12AFC97D017FBF7E0012EF
:1064F500A3F77FBF7E0012AB74EF24FF9208E4FD83
:106505007FB8FE12A3F77FB87E0012AB7490011618
:10651500EFF07D017FB77E0012A3F77FB77E0012F3
:10652500AB74900111EFF07D027FB97E0012A3F7E5
:106535007FB97E0012AB74900108EFF0E4FD7FAFE8
:10654500FE12A3F7E490012EF090011804F0FD7FF0
:10655500C57E0012A3F77F1B1265B97F1C7E021250
:10656500A3F77F1D1265B97F1E7E0212A3F702965F
:10657500CC7D017E0012A3F722E4FDFE12A3F722D3
:106585007D017E0012A3F722E4FDFE12A3F7227D12
:10659500017E0012A3F722E4FDFE12A3F722E4FD1B
:1065A500FE12A3F7227D017E0012A3F722E4FDFE71
:1065B50012A3F722E4FD7E0212A3F7E4FD227D017A
:0D65C5007E0012A3F722E4FDFE12A3F722D0
:10AEB10012B030900101EFF075F00584AFF0EFF0C2
:01AEC100226E
:10AD7100EFB401047F0180027FFF900101124D8C2D
:0CAD8100AFF0EFF012AFC9900101E0FF4D
:01AD8D0022A3
:059B7700900014EDF068
:109B7C00EF75F003A42481FEE435F0A3F0A3CEF03E
:109B8C00E4A3F0900017E0FFC39403504390001639
:109B9C00E02FFF900015E03400FE12AB749000181B
:109BAC00124C577A00791A124A39124A99128C4778
:109BBC00900017E02471FD90001AA3E0FF900014B0
:109BCC00E02FFB7F8A12AB9A900017E004F080B371
:019BDC002266
:10994E00EFB401047F0180027FFF900105E0240443
:10995E00FD900104E03400FCEF3395E0FEED2FFFA7
:10996E00EC3EF0A3EFF07E00900104124A17FD7F4B
:10997E008012A3F77F107E0012AB747E007B017AFB
:10998E00007912124A397A1579CE124A9D128C47F5
:10999E00124D09900012A3E0FD129B777F807E008E
:1099AE0012AB74EF64037BA860047D3080027D32BD
:0A99BE007F3E7E0012A8E7124D095B
:0199C800227C
:058A4A00900012EFF0A6
:108A4F00ED900105B4010DE02401FF900104E03425
:108A5F0000FE800BE024FFFF900104E034FFFE9046
:108A6F000013EE124BD45015124C21900014E09FBE
:108A7F00EE6480F8900013E06480984003028AF15E
:108A8F00900013E0FEA3E0FF124B307B017A0079D8
:108A9F0015124A39124A99128C47900012E0248A13
:108AAF00FFE433FEA3A3E0FD12A3F77F107E0012B5
:108ABF00AB74900013124C577A007917124A397A17
:108ACF001579CE124A9D128C47900012E02471FD49
:108ADF00900017A3E0FF900015A3E02FFB7F8A12F1
:058AEF00AB9A124D09D5
:018AF400225F
:109FE6007D707F8A12A703EF54BFFB7D707F8A12B4
:109FF600AB9A7D7412A0347D757F8A12AB9A7D76FA
:10A0060012A0347D717F8A12AB9A7B807D727F8A23
:10A0160012AB9A7B807D737F8A12AB9A7D707F8AA2
:10A0260012A703EF4440FB7D707F8A02AB9A7B80C8
:08A036007F8A12AB9A7B8022A5
:067E8F0090001EEFF0FD63
:107E95007F0B7E0012A3F790001EE06403606CE484
:107EA500A3F0A3F090001FE0FEA3E0FFC3940FEE44
:107EB50064809480503B90001EE0C454F02448F543
:107EC50082E43416F583E5822FF582E5833EF5835A
:107ED500E493FB90001FA3E02438F58274163EF569
:107EE50083E493FD7F8A12AB9A90001F124C0680A3
:107EF500B390001EE0C454F02457F582E43416F51F
:0B7F050083E493900021124D96804E03
:107F1000E4FF12B04F12A60E7F0112B04F12A31849
:107F20007F0212B04FAD07E4FF1299C97F0312B070
:107F30004FAD077F011299C97F0412B04F129A39D1
:107F40007F0512B04F7E00900023124C597A0079C1
:0E7F500021124A397A167910124A9D128C4776
:107F5E00900021124D2D12AB9A7D177F8A12A70326
:097F6E00900021124C9812AB9A0C
:017F770022E7
:03B068007F002244
:07B04F0012AF91124B2E22FB
:058ED400900012EFF018
:108ED900EDB401067E007F0180047EFF7FFF9001D3
:108EE90004E0FCA3E0FD2FFFEC3EFE900013124BC3
:108EF900D45016124C21900013E0FAA3E0FB9FEE28
:108F09006480F8EA6480984003AF0522900012E07B
:108F190014601814601D14601A14602724FE602B55
:108F29002406702DAF0312A60E8026124D9D12A3A2
:108F390018801E900012E024FEFFA3A3E0FD129901
:108F4900C9800E124D9D129A398006124D9D129BB1
:108F59000E900012E0FFA3A3E0FD12AFB79000133B
:088F6900E0FEA3E0FF124B3013
:018F710022DD
:05A60E00900025EFF0B3
:10A6130012B062900025E0BF010C124DA4124A391A
:10A623007A1579F8800A124DA4124A397A1579F20B
:10A63300124A9D128C47900112E090161B93FD90D5
:0AA643000026A3E0FB7F8A02AB9A19
:05A31800900025EFF0AC
:10A31D00900112E064047017124A2C7A1579D41248
:10A32D004A9D128C47900026A3E0FB7D748022127B
:10A33D004A2C7A1579FE124A9D128C4712B068EF9D
:10A34D009000266007A3E0FB7D3A8005A3E0FB7D2E
:06A35D00107F8A12AB9A8A
:01A3630022D7
:109B0E007E007B017A007915124A397A1579EC12AA
:109B1E004A9D128C477DFF7F8A12A703900017EF94
:109B2E00F0E47DFF129B707DBE7F8A12A703EF5477
:109B3E00CF44107DBE129B707DC47F8A12A703EFA7
:109B4E005480FD900015E0A2E713A3E0134DFB7DBA
:109B5E00C47F8A12AB9A900017E0FB7DFF7F8A02CA
:029B6E00AB9AB0
:079B7000FB7F8A12AB9A2271
:059A3900900025EFF094
:109A3E00900112E06404702A9000257A00792612B3
:109A4E004A337A1579E0124A9D128C477D707F8ACF
:109A5E0012A703EF54C0FF900026A3E04FFB7D70CA
:109A6E00802F900025E0FF7E007B017A0079261280
:109A7E004A397A16790A124A9D128C4712B068EF4B
:109A8E009000266007A3E0FB7D3E8005A3E0FB7DF2
:069A9E00157F8A12AB9A4D
:019AA400229F
:0899C900900025EFF0A3EDF082
:1099D10012B068EF6030124D51124A397A16791679
:1099E100124A9D128C47900025E0243CFD7F8A128B
:1099F100A703EF5480FF900027A3E02FFB900025E1
:109A0100E0243CFD802C900026124D51124A397AF7
:109A1100167904124A9D128C47900112E09000259C
:109A2100B40405E024728003E02413FD900027A311
:079A3100E0FB7F8A12AB9AF3
:019A3800220B
:058CEC00900012EFF002
:108CF1007D787F8A12A703EF5407540F9000151255
:108D01004D96900012E0B401047F0180027FFFEFD5
:108D11003395E09000158FF012423A901610124CE4
:108D210024900015E0FCA3E0FDC3124DAE400D9070
:108D31001612124C24D3ED124DAE4004124D0922ED
:108D4100AF057E007B017A007913124A397A1579D1
:108D5100B69000311244B57A167910128C47900002
:108D610015124D2D12AB9A7D177F8A12A703900021
:108D710015124C9812AB9A900013A3E0FD7F0512D7
:0D8D8100AFB7900013E0FEA3E0FF124B30EF
:018D8E0022C2
:109BDD00900112E090000AF09001127401F09001D2
:109BED0012E0FFC394075030EFB40413E490000962
:109BFD00F0900009E090167E129C3240F48011E442
:109C0D00900009F0900009E0901678129C3240F413
:109C1D00900112E004F080C690000AE0900112F06D
:059C2D007F03027E8FA1
:109C3200FF93FD12AFB7900009E004F0E0C3940671
:019C420022FF
:10813C0090001EEFF0D39403400B7F0112813C9012
:10814C00001E7401F0900130E0B420177FA27E0075
:10815C0012AB74EF700D90001EF07BFF7A007971FA
:0B816C0012AB0090001EE090011DF01F
:1081770012B05CEF6401601E12B05CEF640460161D
:1081870012B05CEF6405600E12B05CEF6407600626
:1081970012B05CEF700F90001EE075F00AA42498EF
:1081A700F97416800D90001EE075F00AA424C0F93A
:1081B700741635F0FA7BFF9000211244B590011D2B
:1081C7007401F012A9D7E490001FF0A3F090001FEC
:1081D700E0FEA3E0FFC3940AEE64809480502FEF83
:1081E70025E0FFEE33FE74842FF58274163EF58387
:1081F700740193FD900021124DB8FB7F8A12AB9A50
:0E820700900022124C0690001F124C0680BF01
:0882150090011DE0FF02AFA57E
:10AA3100E579C3940450229000F7E0FEA3E0FF12F1
