:103530006873636F6D20312031206368303A312524
:10354000316278206368313A3025316278206368CF
:10355000323A3025316278206368333A302531625F
:10356000780A0D006873636F6D2031203120636825
:10357000313A3125316278206368303A3025316242
:1035800078206368323A3025316278206368333AB4
:1035900030253162780A0D006873636F6D20312029
:1035A00031206368323A256278206368303A3025EA
:1035B000316278206368313A30253162782063685F
:1035C000333A30253162780A0D006873636F6D20DD
:1035D000312031206368333A3125316278206368C5
:1035E000303A3025316278206368313A30253162D3
:1035F00078206368323A30253162780A0D006873AA
:10360000636F6D20322032206368303A3125316299
:1036100078206368313A3025316278206368323A25
:103620003025316278206368333A30253162780A78
:103630000D006873636F6D20322032206368323A68
:10364000256278206368333A3125316278206368D7
:10365000303A3025316278206368313A3025316262
:10366000780A0D006873636F6D2032203220636822
:10367000303A3025316278206368333A312531623F
:1036800078206368313A3025316278206368323AB5
:1036900030253162780A0D006873636F6D20322027
:1036A00032206368333A3125316278206368313AD9
:1036B0003025316278206368303A302531627820D5
:1036C0006368323A30253162780A0D006873636F9F
:1036D0006D20332031206368333A31253162782000
:1036E0006368303A3025316278206368313A30259A
:1036F000316278206368323A30253162780A0D00F1
:103700006873636F6D20332033206368303A30254F
:10371000316278206368313A3025316278206368FD
:10372000333A3125316278206368323A302531628C
:10373000780A0D006873636F6D203320342063684E
:10374000303A3025316278206368313A3025316271
:1037500078206368333A3125316278206368323AE1
:1037600030253162780A0D006873636F6D20342054
:1037700031206368303A3025316278206368313A0D
:103780003025316278206368323A30253162782002
:103790006368333A31253162780A0D006873636FCC
:1037A0006D20322032206368303A31253162782032
:1037B0006368323A3025316278206368313A3025C7
:1037C000316278206368333A30253162780A0D001F
:1037D0006873636F6D20322032206368323A25624D
:1037E00078206368313A3025316278206368303A56
:1037F0003025316278206368333A30253162780AA7
:103800000D006873636F6D20332033206368333A93
:103810003125316278206368303A30253162782072
:103820006368313A3025316278206368323A302556
:103830003162780A0D006873636F6D203220322088
:103840006368333A3125316278206368323A302533
:10385000316278206368313A3025316278206368BC
:10386000303A30253162780A0D006873636F6D203D
:10387000332031206368333A312531627820636820
:10388000303A3025316278206368323A302531622F
:1038900078206368313A30253162780A0D00687308
:1038A000636F6D20332031206368333A31253162F4
:1038B00078206368313A3025316278206368323A83
:1038C0003025316278206368303A30253162780AD9
:1038D0000D006873636F6D20332033206368333AC3
:1038E0003125316278206368303A302531627820A2
:1038F0006368323A3025316278206368313A302586
:103900003162780A0D006873636F6D2033203320B5
:103910006368333A3125316278206368313A302563
:10392000316278206368323A3025316278206368EA
:10393000303A30253162780A0D006873636F6D206C
:10394000332033206368303A312531627820636850
:10395000313A3025316278206368323A302531625D
:1039600078206368333A30253162780A0D00687335
:10397000636F6D20332033206368303A3025316225
:1039800078206368323A3025316278206368333AB0
:103990003125316278206368313A30253162780A06
:1039A0000D006873636F6D20322032206368313AF6
:1039B0003125316278206368303A302531627820D1
:1039C0006368323A3025316278206368333A3025B3
:1039D0003162780A0D006873636F6D2032203220E7
:1039E0006368313A3125316278206368323A302594
:1039F000316278206368333A302531627820636819
:103A0000303A30253162780A0D006873636F6D209B
:103A1000322032206368313A302531627820636881
:103A2000333A3125316278206368323A3025316289
:103A300078206368303A30253162780A0D00687367
:103A4000636F6D20332033206368313A3125316252
:103A500078206368303A3025316278206368323AE2
:103A60003025316278206368333A30253162780A34
:103A70000D006873636F6D20332033206368313A23
:103A80003025316278206368303A30253162782001
:103A90006368333A3125316278206368323A3025E1
:103AA0003162780A0D006873636F6D203320332014
:103AB0006368313A3025316278206368323A3025C4
:103AC000316278206368333A312531627820636847
:103AD000303A30253162780A0D006873636F6D20CB
:103AE000322032206368323A256278206368303AA7
:103AF0003025316278206368313A30253162782090
:103B00006368333A30253162780A0D006873636F59
:103B10006D20322032206368323A25627820636853
:103B2000313A3025316278206368333A302531628A
:103B300078206368303A30253162780A0D00687366
:103B4000636F6D20322032206368323A256278201C
:103B50006368333A3125316278206368313A302521
:103B6000316278206368303A30253162780A0D007E
:103B70006873636F6D20332033206368323A2562A7
:103B800078206368303A3025316278206368313AB2
:103B90003025316278206368333A30253162780A03
:103BA0000D006873636F6D20332033206368323AF1
:103BB000256278206368303A302531627820636866
:103BC000333A3125316278206368313A30253162E9
:103BD000780A0D006873636F6D20332033206368AB
:103BE000323A256278206368313A30253162782094
:103BF0006368333A3125316278206368303A302582
:103C00003162780A0D000D0A507265762E46573AD9
:103C100025303478000D0A437572722E46573A25C6
:103C2000303478000D0A5B4D53475D6D61696E5FFE
:103C3000696E697428293D3E2072657620213D20F9
:103C4000465756455220262063616C6C20436C65B4
:103C500061724261736963454528290D0A000D0AA6
:103C600043616E6E6F7420616363657373204545B5
:103C700050524F4D21212121000D0A4E6F20696EB7
:103C8000697469616C697A65005457383831360057
:103C90005457383831364200545738383137004E8F
:103CA0006F7468696E67202D2D3078253032780D5D
:103CB0000A00436865636B20616761696E202D2D82
:103CC0003078253032780D0A004C617374204368D7
:103CD00065636B202D2D3078253032780D0A00FF7A
:103CE0003530FF3564FF3598FF35CAFF35FEFF36A6
:103CF00032FF3664FF3698FF36CCFF3700FF37348B
:103D0000FF3768FF379CFF37D0FF3802FF3836FF98
:103D1000386AFF389EFF38D2FF3906FF393AFF393B
:103D20006EFF39A2FF39D6FF3A0AFF3A3EFF3A72D8
:103D3000FF3AA6FF3ADAFF3B0CFF3B3EFF3B70FF2A
:103D40003BA2FF3BD42D2D2D3E2050616E656C3A79
:103D500020575647412D3830302A343830202D2D09
:103D6000205449434F4E4C45535320485320376904
:043D70006E63680016
:107AF100012D00013000C10DC10C02310000012F28
:107B010000024C000041013201C10EC10F4101359B
:107B110000410133004101360044013700000000FB
:10C4510090001CF0A3EFF07BFF22E0D394017480E5
:03C46100948022A2
:10863A007B107DE07F8A12C10712AF94900000EE92
:10864A0012C4547A3C790690001CEEF0A3EFF012A3
:10865A00BE8E12AF94EF64107003EE640260287B42
:10866A00FF7A3C791590001C7402F0A37410F01282
:10867A00BE8E7F107E0212B82412AF94EE12C4513D
:10868A007A3C791512BE8E12AF94EF64107003EE25
:10869A0064027033900000E064027004A3E0641086
:1086AA00601B900110E0FF12C55F7F0112C57A12AC
:1086BA00C1757BFF7A3C792412BE8E802C12C5D1FB
:1086CA00900110EFF080227BFF7A3C795E12BE8E19
:1086DA007BFF7A3C797912BE8E90011074FFF07F8D
:1086EA000112BC40E4FF0291827F087E0012C0E1C1
:1086FA00900117EFF06004E0FF80027F0112BC4096
:10870A0012A66090010B74FEF012AECC12B8AB7FC9
:10871A0006128A9E7F0A12C40F12C4E612C1977DFE
:10872A00FF12874F7D8212874FE4FB7DFF7F8A12FB
:10873A00C1077BFF7DD07F8A12C1077BFF7DD17F76
:04874A008A12C107C7
:09874E00227B017F8A12C107227F
:10B58F0075F68775F65975BF10E4F5F6758DF47578
:10B59F009850758922758855758A40758C407587C6
:10B5AF008075B80275A892D299D2ACF5C8C2CAD22A
:10B5BF00AD75AA5075BAF443A61843AD10C20F75F6
:0FB5CF00DE4243D840F5B175B220F54AF5492266
:03000B0002769EDC
:0B769E00C0E0C083C082C0D075D008DF
:1076A900054B900134E0600214F0900134E070332E
:1076B900E5A05460C4135403FF90013AE06F6023BE
:1076C900900138E0900137F0900139E0900138F0ED
:1076D90090013AE0900139F0A3EFF0D21090013413
:1076E9007428F0D3E54B9460748094805003027839
:1076F9000C0534E53470020533754B00052F9001F4
:107709004612C45B4003E014F0E52F646460030291
:1077190077BF900116E0C394FF748094805003E012
:1077290004F0E5652401FFE43564FEE43563FDE416
:1077390035628F658E648D63F562752F0090010542
:1077490012C45B4003E014F090014712C45B40038C
:10775900E014F090005EE004F090012CE0D3940076
:10776900748094804003E014F0301106900133E0F6
:1077790004F0300406900136E004F090005EE06405
:107789003C7007F0900071E004F0900071E0643CF7
:107799007007F090007DE004F090007DE0641870BF
:1077A90007F090007CE004F0E5309001356005E0D9
:1077B90004F08002E4F0E54DF47003E54CF4600850
:1077C900054DE54D7002054CE5A0F4549C602EAFC3
:1077D9002D7E00EF6403700DE5A0F4549CF530C2D2
:1077E9000CD20D8014EF64644E700EE5A0F4549C25
:1077F900F530D20CD20D752D50052D8006752D0052
:03780900753000D7
:09780C00D0D0D082D083D0E0324C
:10C21700E4F565F564F563F562900110F07F64124B
:0EC22700C40FC22112C59ED2B47F0102C40F03
:10A5450012A5CCEF24DE601024D9601424287019DC
:10A555007BFF7A3C7989800E7BFF7A3C7990800677
:10A565007BFF7A3C799802C3DB12A5BA7A3C799FC6
:10A5750012BE8E12C540EF7027FD7F8A12BBCEE456
:10A5850012C4517A3C79B212BE8E7F6312C40F1287
:10A59500A5CCEF60DEE4FD7F8A12BBCEEFF460D37D
:10A5A5007F6312C40F7F6312C40F12A5BA7A3C7978
:10A5B500C912BE8E22E4FD7F8A12BBCE90001CE438
:0FA5C500F0A3EFF07BFF22E4FD7F8A12BBCE22D2
:10C12D00EFFD7C006401700553E8FE8014ED4C704A
:10C13D000743E80153E8FD22ED64024C700643E825
:05C14D000143E802229D
:0300130002C60E14
:03C60E00C2AA328B
:0300230002BCB26A
:10BCB200C0E0C0D075D008309822C298AF997435D0
:10BCC2002549F8EFF6744E2549F8A60F0549C3E554
:10BCD200499414748094804003754900309904C2D9
:08BCE20099C20ED0D0D0E0326F
:0300630002BB1EBF
:10BB1E00C0E0C0D075D008E5AA54016401701A5374
:10BB2E00AAFE7425252EF8A69A052EC3E52E940896
:10BB3E00748094804003752E00E5AA54026402704E
:0BBB4E000553AAFDC20FD0D0D0E0329A
:0BC54000E549B54A037F00227F01227D
:10C28E00C2AC7435254AF8E6FF054AE54AC3941454
:0BC29E00748094804003E4F54AD2ACA9
:01C2A9002272
:08000300200EFD8F99D20E22A0
:08C5C200200FFD8F9AD20F2219
:03002B0002C4B953
:0FC4B900C0E0C2CF0532E53270020531D0E0326B
:10C40F00E52F2FFFE433FE7C007D64124473E52F8C
:07C41F00B505FBE4B504F7CD
:01C4260022F3
:10BA2C00900016E4F0A3E52FF0E47B3CFAF9F8AFB4
:10BA3C0065AE64AD63AC6212462EAC00AD01AE02D5
:10BA4C00AF03E47B64FAF9F81245A3900016EE8F6D
:0CBA5C00F01244FE900016E0FEA3E0FF94
:01BA680022BB
:10C1D900C3ED9FEC9E5010C374709FFF74179EFEB1
:0FC1E900EF2DFFEE3CFE22C3ED9FFFEC9EFE22EA
:08B75000900019EEF0A3EFF0E8
:10B75800900019E07002A3E06035E490001BF0A3AC
:10B76800F090001BE0FEA3E0FFE4FCFD7BD8FAF9B3
:10B77800F8D31246C0400C90001BE475F001124447
:0FB78800FE80DE90001974FFF5F01244FE80C1C0
:01B79700228F
:109266000D0A2B2B28436C6561724F5344496E6679
:109276006F293A20446973706C617965644F534471
:109286003A253278000D0A766C6F73735F666C61EF
:10929600673D3D31000D0A766C6F73735F666C61D6
:1092A600673D3D30002000540053004A000D0A2B54
:1092B6002B28446973706C6179566F6C29002020E5
:1092C600205457383830362020200054656368779C
:1092D600656C6C2C496E6300564C6F737300FE5BB5
:1092E6005BFF6FFE50FF560043414D20412020207A
:1092F6000043414D2042202020200043414D205272
:109306002020202000415620202020202020002040
:10931600FE07FF2041204D41FE53FF0020FE07FFC0
:1093260020FE51FF204D41FE53FF002020FE07FF87
:1093360020FE52FF204D41FE53FF00FE54FF00FE6B
:0393460055FF00D0
:0C7B2100410143004101440041014100CA
:10C2AA00900126E07B017D312290011FE06401228A
:0CC2BA007A9279AD7BFF90005474012251
:0CC51C00900141E0FEEFF4FFEE5FF02222
:07C5CA00900141E04FF02257
:06C60200900141E0FF225F
:10B1150012C602900016EFF012C60290001CE4F071
:10B12500A3EFF07BFF7A92796612BE8E900016E04F
:10B1350020E20330E70512BFB0C207900016E030E9
:10B14500E00312C4D7900016E030E40312C4279040
:10B155000016E030E10312BAA6900016E030E603CF
:0DB1650012C4E6900016E030E30312C4C8E7
:01B1720022BA
:10BD22002212C602EF30E32E7F1012C51CE49001EE
:10BD320043F07F0812C51C900142E064017D05704A
:10BD4200057F6BFE80047F6A7E0012BFDE7BFF7A76
:06BD520092799B12BE8EE7
:01BD580022C8
:1058F8009000157422F012B1157BFF7A7F79E112BE
:10590800A22F7DFFE4FFFE12BFDE7BFF125BFDE4EA
:10591800900014F0900014E0FFC394F07480948019
:1059280050157E007A9279AB12C2BEF012BE289052
:105938000014E004F080DD900141E04410F012C64C
:10594800089000147401F0900014E0FE75F01190B6
:105958006CDE12475AE4936F6008900014E004F07C
:1059680080E5EE75F011A424DFF9746C35F0FA7B4C
:10597800FF12C3C0900013EFF0A3E024FE700302EF
:105988005A2A147003025A83147003025B1E2403FC
:105998006003025B5E7FA5125BE6703D7B0A7D3487
:1059A800125C1E7F187E0012BEC17A9279EE7408CE
:1059B800125C10900122E06003025AA312C2B36085
:1059C80003025B5E12C2AA7F087E006006125BF3C8
:1059D800025ACB125C06025ACB125BA07A93791555
:1059E800740C125BCC600512C2BA801612C2B37076
:1059F8002112C2AA6013125BDC7A93794590005495
:105A08007402F07F197E008006125BB9E4FFFE1273
:105A1800BE28900126E07003025B5E900122E0023E
:105A28005B5E7FA6125BE6702E7B0AFF125B8F7AA5
:105A38009279F7125B7B6003025AA312C2B3600328
:105A4800025B5E12C2AA7F087E006005125BF380CB
:105A580003125C06025ACB125BA07A937922740D6A
:105A6800125BCC6003025AF012C2B36003025B5EA1
:105A780012C2AA6003025AFF025B167FA87E0012B8
:105A8800C0E1900142EFF06401703B7B017F20127E
:105A98005B8F7A937901125B7B60097BFF7A92793D
:105AA800AD025B5112C2B36003025B5E12C2AA7FF1
:105AB800087E006005125C28800912BEC17BFF7A4F
:105AC8009279B1025B517B0E125BFD7B017D341232
:105AD8005BDC7A937931900054740EF0E4FFFE1287
:105AE800BE28900122E0600512C2BA801C12C2B31F
:105AF800706412C2AA60177F197E0012BEC17BFFB4
:105B08007A9379459000547403F07F198043125BAF
:105B1800B9E4FFFE803D9001427401F07B0A7D34B8
:105B2800E4125C1EE4FFFE12BEC17A93790B74097D
:105B3800125C10900126E0601D900122E070177B36
:105B4800017D317F08FE125C289000547401F07FBB
:105B5800087E0012BE289001057404F07D017F02C2
:105B680012B8687F0112BF5212BD2212BA2C8E7A67
:025B78008F7B21
:105B7A00227BFF9000547409F07F1A7E0012BE281F
:105B8A00900122E0227D34FE12BEC17B087D32E400
:105B9A00FFFE12BEC1227B097D347F197E0012BE30
:105BAA00C17B087D327F017E0012BEC17BFF22E4E9
:105BBA00FFFE12BEC17BFF7A9379419000547403B1
:105BCA00F022900054F07F017E0012BE289001223C
:105BDA00E0227F197E0012BEC17BFF227E0012C026
:105BEA00E1900142EFF064012212BEC17BFF7A927A
:105BFA0079AF227D32E4FFFE12BEC12212BEC17B02
:105C0A00FF7A9279B1227BFF900054F07F1A7E00CE
:105C1A0012BE2822FFFE12BEC17B087D322212BEAE
:085C2A00C17BFF7A9279AF22E1
:10C42700E4FF12BF52E4FD7F0212B868900141E0B9
:06C4370054EFF07F01222A
:0AC54B00E4FD7F0212B8687F0122B0
:0FC4C800E4FD7F0312B8687F0812C51C7F0122B4
:109867007BFF7A9279B312BE8E7DFF1299267D8295
:10987700129926E4FB7DFF7F8A12C107900141E020
:109887005404707C12B1157F0A12C40F7BFF7A80D3
:10989700795012A22F7D327FC87E0012BFDE7B195E
:1098A7007D377FC87E0012BEC17B197D737FDD7E49
:1098B7000012BEC112C48775F003EF900A741247F5
:1098C7005A12478FAE02AF01900006EEF0A3EFF0F9
:1098D7007BFF12C3C0900006E0FCA3E0AA04F97B5B
:1098E700FF900054EFF07FC87E0012BE287D017FF5
:1098F7000112B868E4FD7F0412B8687F0112BF52F5
:10990700301B0590014A8003900149E0FF129F9D9B
:0E991700900141E04404F012BA2C8E7A8F7B4E
:10992500227B017F8A12C1077F057E0012B7502274
:0FC4D700E4FD7F0212B868900141E054FEF022AC
:10A37300E4900140F012C60290013FEFF054967052
:10A383000302A40EE030E11512C5A790013BEEF0E5
:10A39300A3EFF0A37407F0A374D0F0801190013BF6
:10A3A300E57AF0A3E57BF0A3E4F0A374C8F012BA56
:10A3B3002CAD07AC0690013BE0FEA3E0FF12C1D930
:10A3C300D390013EE09F90013DE09E503E90013FBF
:10A3D300E05484600D12BFB0900140EFF01258F8C2
:10A3E300C20790013FE030E11F12BAA6900140EF8F
:10A3F300F07FA37E0012C0E1EF64017006900105B7
:0DA403007403F01258F8C2077F01227F0099
:01A410002229
:10BFB000900141E030E20FE4FF12BF527F0112BF57
:10BFC000D454FBF080087F0212BFD4547FF0129C3F
:0EBFD000427F0122E4FD12B868900141E02298
:10AF9400E4FFFE12C0E1EF6454600280287F017E6A
:10AFA4000012C0E1EF64576002801A7F027E001233
:10AFB400C0E1EF64386002800C7F037E0012C0E1C0
:10AFC400EF64386004E4FEFF227F047E0012C0E1D7
:10AFD400EF900002F0A3E4F07F05FE12C0E19000C0
:10AFE40002E0FEA3E04FFF900002EEF0FEA3EFF0BC
:01AFF400223A
:10B82400900002EEF0A3EFF07D54E4FFFE12B7980F
:10B834007D577F017E0012B7987D387F027E00120B
:10B84400B7987D387F037E0012B798900002E0FD20
:10B854007F047E0012B798900002A3E0FD7F057E6E
:04B864000002B7988F
:07C5D1007F067E0002C0E1BD
:09C55F00AD077F067E0002B798CB
:07C5D8007F0A7E0002C0E1B2
:10A66000E4900003F0900002F0900002E075F01119
:10A67000906D3312475AE4931247EBA69700A6A3B6
:10A6800001A6AC02A6B503A6BE04A6C705A6D006C1
:10A69000A6D9070000A6E0900003E0FD7F0A7E0037
:10A6A00002B798900003E04401F08034900003E08A
:10A6B0004402F0802B900003E04404F080229000DC
:10A6C00003E04408F08019900003E04410F080108B
:10A6D000900003E04420F08007900003E04440F045
:08A6E000900002E004F080810B
:07C5DF007F0D7E0002C0E1A8
:09C56800AD077F0D7E0002B798BB
:0AC55500EF2412FFE433FE02C0E100
:09C57100EF2412FF7E0002B798CE
:09C57A00AD077F0F7E0002B798A7
:07C5E6007F0C7E0002C0E1A2
:09C58300AD077F0C7E0002B798A1
:07C5ED007F387E0002C0E16F
:09C58C00AD077F387E0002B7986C
:07C5F4007F377E0002C0E169
:09C59500AD077F377E0002B79864
:10C17500E4FD7FADFE12B798E4900112F0FD7F0853
:10C18500FE12B798E4FD7F0EFE12B798126DCC0231
:02C19500ACC339
:10C235009291D29012C61DC290221247668E8275C7
:0EC245008300124422FF22EFF0A3EDF0A322AB
:0BB79800900028EEF0A3EFF0A3EDF00E
:10B7A300900028E0FEA3E07807CEC313CE13D8F9A8
:10B7B30044A054FE90002BF012C46490002BE0FFD1
:10B7C30012AD2D900028A3E0FF12AD2D90002AE0CA
:0CB7D300FF12AD2D1200167F0202C40F01
:04C0E100AD07AC06F5
:10C0E500ED7807CEC313CE13D8F944A054FEFF1242
:10C0F500BBCE900033EFF07F0212C40F900033E007
:01C10500FF3A
:01C106002216
:08BBCE00900034EFF0A3EDF04C
:10BBD60012C464900034E0FF12AD2D900035E0FFF2
:10BBE60012AD2D12C464900034E04401FF12AD2D55
:10BBF60012BEF2900036EFF0120016900036E0FF0B
:01BC0600221B
:10C1070090005512C24CEBF012C464900055E0FF4A
:10C1170012AD2D900056E0FF12AD2D900057E0FFB5
:06C1270012AD2D0200160E
:08B9B00090003412C24CEBF0D0
:10B9B80012C464900034E0FF12AD2D900035E0FF12
:10B9C80012AD2DE4900038F0900037E0FFA3E0C3FB
:10B9D8009F5010900036E0FF12AD2D900038E00423
:06B9E800F080E5020016EC
:09B8ED0090005512C24C1247866E
:10B8F60012C464900055E0FF12AD2D900056E0FF93
:10B9060012AD2DE490005BF090005AE0FFA3E0FE3C
:10B91600C39F501190005712C23F12AD2D90005B8D
:08B92600E004F080E3020016CA
:09BC070090001BEFF0A312478628
:10BC100012C46490001BE0FF12AD2DE4900020F0F0
:10BC200090001FE0FFA3E0FEC39F501190001C1284
:10BC3000C23F12AD2D900020E004F080E302001618
:01C61D0022FA
:10C46400D29112C61DD29012C61DC29112C61DC20F
:02C47400902214
:0D001600C29112C61DD29012C61DD29122B9
:10AD2D00C290EF30E703D38001C312C235EF30E696
:10AD3D0003D38001C312C235EF30E503D38001C3C5
:10AD4D0012C235EF30E403D38001C312C235EF30A8
:10AD5D00E303D38001C312C235EF30E203D3800188
:10AD6D00C312C235EF30E103D38001C312C235EFF8
:10AD7D0030E003D38001C312C235C290C290D2918C
:09AD8D00D290D290D290C2902223
:10BEF200E4FFD29112C61DC290FDFCD290EF25E064
:10BF0200FF3091034401FFC2900DBD00010CED64AE
:0FBF1200084C70E712C61DD290D290D290C29008
:01BF210022FD
:10653B000D0A504F574552206B6579207072657369
:10654B00736564000D0A4D454E55206B65792070BF
:10655B00726573736564000D0A494E505554534F61
:10656B0055524345206B6579207072657373656472
:10657B00000D0A5550206B65792070726573736539
:10658B0064000D0A444F574E206B6579207072657D
:10659B0073736564000D0A53454C4543544B455981
:1065AB00206B65792070726573736564000D0A4EFC
:1065BB004F542041535349474E4544206B65792036
:1065CB0070726573736564000D0A2A2A2A2A2A4F92
:1065DB0053445F4C4F434B000D0A504F57455220CD
:1065EB006B657920000A0D6275737720302031209E
:1065FB0037452038300D0A000A0D6275737720304D
:10660B0020312037452038310D0A000A0D62757391
:10661B0077203020312037452038320D0A000A0D03
:10662B0062757377203020312037452038330D0ABF
:10663B00000A0D62757377203020312037452038E2
:10664B00340D0A000A0D6275737720302031203724
:10665B00452038350D0A000A0D62757377203020FE
:10666B00312037452038360D0A000A0D62757377D5
:10667B00203020312037452038370D0A000A0D62B3
:10668B00757377203020312037452038380D0A00BC
:10669B000A0D627573772030203120374520383949
:1066AB000D0A000A0D6275737720302031203745B3
:1066BB002038410D0A000A0D6275737720302031A6
:1066CB002037452038420D0A000A0D62757377207A
:1066DB003020312037452038430D0A000A0D6275F2
:1066EB007377203020312037452038440D0A000ABB
:1066FB000D62757377203020312037452038450DDA
:10670B000A000A0D6275737720302031203745203F
:10671B0038460D0A000D0A4D454E554B4559206B19
:10672B00657920000D0A202A4F53445F4C4F434B91
:10673B00000D0A52454D4F5F564F4C5550000D0AF8
:10674B0052454D4F5F564F4C444E000D0A5B4D5317
:10675B00475D436865636B4B6579496E28293D3E00
:10676B0020497352756E32383335436C6B54756EEA
:08677B00653D25627800202035
:107B2D0041012A004101300041012D0041012B008E
:107B3D004101290041012E00410131004101280080
:0B7B4D0041012F00C116017000C1189B
:10C43D00AFA0EFF4FFEF54906490227C007D0AAE24
:04C44D000202447330
:10BDF50012C602EF30E10302002E12B1157DFF12CB
:10BE0500BE197D8212BE19E4FB7DFF7F8A12C10730
:10BE150012BE5B227B017F8A12C1077F057E00125D
:03BE2500B75022F1
:0DC4F50012C602EF30E1057F01126FB02288
:0DC5020012C602EF30E1057F02126FB02279
:10C38A0012C602EF30E10B3020057F010282CD0296
:0BC39A0078157F011283F512986722CE
:10C3A50012C602EF30E10B3020057F020282CD027A
:0BC3B500002E7FFF1283F51298672214
:10993500900004EFF0A3EDF012C528900004E012AA
:1099450047EB99B60099B60199B60299B60399B64F
:109955000499B60599B60699B60799B60899B60950
:1099650099870C99DC1099E11199C71599F4169905
:10997500BD2099C221999B3899A43A99E63F0000E8
:109985009A0074FF900114F0A3F0900005E06003C5
:109995007F01227F002212C1F81288707F012212F6
:1099A500C602EF30E40512C42780031258F87F0180
:1099B50022900005E07F012212C4F5803E12C50207
:1099C5008039900005E060037F012212C602EF3066
:1099D500E129127815802412C38A801F12C3A5803D
:1099E5001A900005E060037F012212BDF5800C127C
:0E99F500C602EF30E1057FF412A4AF7F01221D
:10484B009000017401F0301826201623C3E56595FE
:10485B0074FFE5649573FEE5639572FDE5629571F2
:10486B00FCE47B0AFAF9F8D31246C05002C2187F57
:10487B000112AFF5900002EFF07003024D01E0243E
:10488B00F8601C24F8602024F0602424E0602824C5
:10489B00C0602C247C70307BFF7A65793B802E7B4B
:1048AB00FF7A65794F80267BFF7A657962801E7B64
:1048BB00FF7A65797C80167BFF7A65798D800E7B1C
:1048CB00FF7A6579A080067BFF7A6579B812BE8E78
:1048DB0090012FE0900003F012C43D704FE0704C3C
:1048EB00124D4512C43D6008900130E06403703CEA
:1048FB007D017FAC7E0012B7989000037401F0909D
:10490B00012FF0FF128A9EE4900002F0124D4590A9
:10491B000122E030E505128FB3800F12C4E6E4905C
:10492B00012CF0900130F01258F8C207900122E0F0
:10493B00600C900002E064106004E4024BB990013B
:10494B0030E06403702E900003E070287D017FAC93
:10495B00FE12B79890012F7401F0FF128A9E7FD040
:10496B007E0712B7501258F8E4900130F07F011215
:10497B00C12DC20790012CE07013900003E0700D65
:10498B00900130E06007E4F07F0112C12D9000022E
:10499B00E06022A3E0701E12C43D6019900122E07A
:1049AB00701312B115E4124D357A6579D3124D207F
:1049BB00C2077F012212C528900002E01247EB4983
:1049CB00E6044AEE084CD40C4BEA104B4D204B7BC3
:1049DB00404BC2804C929000004D017BFF7A657971
:1049EB00E312BE8E201603024AC0C3E570940F7407
:1049FB008094804005E4F57080020570E5701247E5
:104A0B00EB4A45014A4D024A55034A5D044A650586
:104A1B004A6D064A75074A7D084A85094A8D0A4A36
:104A2B00950B4A9D0C4AA50D4AAD0E4AB50F0000D9
:104A3B004A3D7BFF7A6579F080767BFF7A66790356
:104A4B00806E7BFF7A66791680667BFF7A667929A2
:104A5B00805E7BFF7A66793C80567BFF7A66794F66
:104A6B00804E7BFF7A66796280467BFF7A6679752A
:104A7B00803E7BFF7A66798880367BFF7A66799BEE
:104A8B00802E7BFF7A6679AE80267BFF7A6679C1B2
:104A9B00801E7BFF7A6679D480167BFF7A6679E776
:104AAB00800E7BFF7A6679FA80067BFF7A67790D39
:104ABB0012C3DB803A201223900122E06003024DE7
:104ACB0001FD7F0C129935900001EFF0E49001018C
:104ADB00F0FD7FABFE12B798024D01C2121258F8CF
:104AEB00024D017BFF7A67792012BE8E30160AAF1A
:104AFB00707E0012A974024D01201241900126E034
:104B0B006003024D01900003E0700D124D357BFFE9
:104B1B007A67792FE4024CCB12C602EF30E10B30EF
:104B2B0020028010127815024D0112C602EF30E2FE
:104B3B0003024D017F3F124D2BF0024D017F090205
:104B4B004C8A20122612C602EF30E1077F0130207B
:104B5B0034802C7A67793C124D2012C602EF30E478
:104B6B000312B1157F10124D2B80437F06024C8A26
:104B7B0020123F12C602EF30E1117F0230200612E5
:104B8B0082CD024D01126FB0024D017BFF7A677926
:104B9B0049E490001CF012BE8E12C602EF30E40303
:104BAB0012B115E4FD7F11129935900001EFF07FE2
:104BBB0001227F07024C8A201220900102E0700A2A
:104BCB0012C602EF30E10312BAA612C602EF30E4AE
:104BDB000312C427129DA6024D017F05024C8A9039
:104BEB000122E0FF6009900112E07003024D01EF1A
:104BFB00604690012EE07040900112E06401703825
:104C0B007FACFE12C0E1EF64016003024D01900125
:104C1B0022E030E50312C4E690012E7401F09001FE
:104C2B0028E0700890011FE0900131F0900128748A
:104C3B0001F090011FF0803F20124290012EE060A6
:104C4B0017E4900122F09001247407F0E490012EF8
:104C5B00F090011FF0024D01900102E0700A12C6A4
:104C6B0002EF30E10312BAA690011FE0700404F0CA
:104C7B008005E490011FF012B499024D017F0412DC
:104C8B0069C4D217024D01900149E064147067307A
:104C9B001864301613C2167F0112C12D7D02E4FF7A
:104CAB00FE12BFDEC218800ED2167F0212C12DAFCC
:104CBB00707E0012A9747BFF7A677956A216E433D3
:104CCB0090001CF012BE8E802D900149E06417708D
:104CDB00257F0212C12D7F647E0012B750124D0743
:104CEB00124D077F0112C12DD2188565748564732F
:0B4CFB00856372856271900001E0FF8C
:104D0600227F0112C12D7F647E0012B7507F0212EE
:104D1600C12D7F647E0012B750227BFFE490001CF9
:104D2600F012BE8E22E4FD129935900001EF22FFAB
:104D3600128A9E7FF412C40F12C4E61258F8227F1C
:074D4600D07E0712B75022D6
:10AFF500A20D9221C20D301043E530703FD2219051
:10B005000137E0FD7C0064037015A3E06402700F56
:10B01500A3E0700BA3E064017005753040801BED63
:10B0250064034C7015900138E06401700DA3E07065
:10B0350009A3E064027003753020C2102021037F4C
:10B045000022EF6003AF3022200C03AF30227F00D7
:01B0550022D8
:08A97400900004EEF0A3EFF0E7
:10A97C0078067C007D017BFF7A6779817E007F02FF
:10A98C001243E3900004E0FAA3E0FBFF12C448ED8D
:10A99C002430900007F0AF0312C448900004EEF08E
:10A9AC00A3EFF02430A3F07BFF7A80790612A22F5C
:10A9BC007F1012C5CA7D02E4FFFE12BFDE7B027D52
:10A9CC0037E4FFFE12BEC17B017A00790690005479
:10A9DC007402F0E4FFFE12BE287D017F0212B868FB
:05A9EC007F0102BF52D3
:106BCC000D0A202A2A476574566964656F4D6F64F7
:106BDC00653D25303278000D0A43485F54573238F2
:106BEC0033352825303278292C526561644465632D
:106BFC006F6465722830783636293D256278000D31
:106C0C000A202A2A43485F43414D522825303278C6
:106C1C0029000D0A2043485F415628253032782937
:106C2C00000D0A2043485F43414D422825303278FD
:106C3C0029000D0A41565F4D4F44455F44454C4178
:106C4C00593D3D31000D0A2A2A2A20446562756798
:106C5C00204D6F646520697320676F696E67202A09
:106C6C002A2A000D0A28706F776572206F666620DD
:106C7C007265626F6F74290020200A0D00FE0000FF
:106C8C0000000000000000000000000000000143B4
:106C9C0056425300000000000000000000000002FB
:106CAC0043414D20440000000000000000000000A3
:106CBC0003415620200000000000000000000000EE
:106CCC0000000000000000000000000000000000B8
:106CDC000000FE00000000000000000000000000AA
:106CEC000000000143414D20410000000000000065
:106CFC00000000000443414D204200000000000051
:106D0C0000000000000243414D20522020000000F2
:106D1C00000000000000034156202000000000008D
:106D2C0000000000000000FE000000000000000059
:106D3C000000000000000000014E5453430000000E
:106D4C000000000000000000000250414C00000058
:106D5C000000000000000000000003534543414DBB
:106D6C0000000000000000000000000550414C4DE8
:106D7C000000000000000000000000000650414C24
:106D8C004E00000000000000000000000007504111
:106D9C004C36300000000000000000000000044EE3
:106DAC00545343342E343300000000000000000024
:106DBC0000000000000000000000000000000000C7
:107B5800C10BC104C10241010800011D0041010916
:107B680000011F00011300011100011200011E0095
:107B7800011500011400011A0041010E004100FF27
:107B8800004101040041010C0041010700C100410E
:0D7B9800010D00C106C101C183C107C10A72
:10C03800EF75F011A424DEF582E4346CF583E49303
:10C0480022E0FF90001CE4F0A3EFF0229000010230
:0CC058004422E4F51BF51CF519F5182234
:06B4EC00900019124786D2
:10B4F200E4FE12440990001CF012C054802990000E
:10B5020019124766124409FFF4700612C054F4601F
:10B512002290001DEFF0FD12C05490001EF0FB902F
:10B52200001CE0FF12C10790001AE475F0021244F9
:0CB53200FE80CBE4FB7DFF7F8A02C10796
:109AC700900018EFF07BFF7A62799B12B4ECE412F6
:109AD7009B7D900018E0900109F024FE601314604C
:109AE7001024FD600C240624F85011240A600D8010
:109AF700117BFF7A6379EB12B4EC8006900018743F
:109B070001F090010BE064057013900117E07002FB
:109B1700800B900018E014FF12C271800312C1B9C4
:109B27007B157D297F8A12C1077B067D5C7F8A12A0
:109B3700C1077F0B7E0012C0E1128EC2900018E0B1
:109B470064017007129B7D7B788012900018E06497
:109B5700027011FB7DFF7F8A12C1077B947D627FB4
:109B67008A12C1077BFF7A6B79CC90001812C04923
:0F9B770012BE8EC22322FB7DFF7F8A12C10722FE
:10C476007D017F8A12BBCEEF30E7037F01227F006A
:01C486002293
:1096C200E4900015F0A3F090010BE064057009909E
:1096D2000117E06003029783E4900013F012B0B622
:1096E200900014EFF0900016E004F0E0C3940A74C6
:1096F2008094804003029783900014E0FFFD7C0079
:1097020064FE60D9900103E0FEEF6E60D09000131A
:10971200E0FFA3E0FEB50706A3E004F0800AE490B0
:109722000015F0900013EEF0900015E0C39402745F
:1097320080948040A8ED4C7010900014E0FF12BCA1
:10974200409000177401F08030900103E070119096
:109752000102E0700630070312C4E61297848014F7
:10976200900102E0700630070312C4E61297847F6C
:109772003212C40FE4900017F0900017E024FF9219
:019782000ADC
:1097830022900014E0FF12BC40900014E0FF129AF4
:02979300C722EB
:10C1520012C476EF60037F01227D1C7F8A12BBCE60
:10C16200EF54F0FF30E7037F0122EF5470C4540F05
:02C1720004FFC8
:01C1740022A8
:10B2E30012C152AB07EB24FE601914601624FD60F3
:10B2F30012240224FC500424077017751B00751CCC
:10B303003C8006751B00751C32E475196B75183D7E
:10B31300800312C05AF517F516E4FFEF75F011A478
:10B323002433F582E4346DF583E493FEB5030122FF
:08B33300EE60030F80E57F00CE
:01B33B0022EF
:10BC4000900103EFF024FE601914601624FD6012C9
:10BC5000240224FC500424077017751B00751C3C3B
:10BC60008006751B00751C32E475196B75183D80D4
:09BC70000312C05AF517F5162263
:06C6080090010BE0FF228F
:10C1F8007F0112C038FE90010BE0FDEE6D60030F69
:0EC2080080F00F12C03870027F0112C038FFA4
:01C216002205
:09C59E00302103D2B722C2B722FA
:10887000900012EFF043E8047B01128977E4FB7D5E
:10888000B47F8A12C107E4FB12897712897F9000B6
:1088900012E090010BF0900103E0FF129AC79001E3
:1088A0000BE024FE602F14603E14604D2403706DB5
:1088B00012C2FEC21BC294C29512897FE4FF1283CA
:1088C000F57D667F8A12BBCE90001EEFF07BFF7AAB
:1088D0006B79E3803F12C352C21BD2941289687B2A
:1088E000FF7A6C790B802D12C336C21BC294128999
:1088F000687BFF7A6C791E801B12C31AC21BE4FFCF
:108900001283F57F147E0012B750D294C2957BFF7C
:108910007A6C792D90010B12C04912BE8E12B33CB5
:1089200090010BE0FF12C57A7F1E12C40F1296C28F
:10893000129C421258F8900127E06401700E53E82F
:10894000FB7BFF7A6C793E12BE8E8005E4FF1291AC
:10895000827F6412C40F7BFF7DD07F8A12C1077BA8
:10896000FF7DD17F8A02C107D2957F147E0012B7A6
:1089700050E4FF1283F5227DFF7F8A12C107227F18
:07898000147E0012B7502223
:0DC50F00C22112C5B943E804E4FF02C12DAA
:0CC5280012BA2C900114EEF0A3EFF022E8
:09C5A700900114E0FEA3E0FF2264
:10898700C374FF9FFD7C00C3748094804010ED94F6
:1089970064748094805007E4900002F08073C3ED04
:1089A7009464EC648094804012ED948CEC64809421
:1089B7008050089000027414F08056C3ED948CEC3C
:1089C700648094804012ED94B4EC648094805008E5
:1089D7009000027428F08039C3ED94B4EC6480945D
:1089E700804012ED94DCEC64809480500890000283
:1089F700743CF0801CC3ED94DCEC648094804011DF
:108A0700D3ED94FFEC648094805006900002744B81
:108A1700F090012BE07030900108E0C3940F748050
:108A270094805005E004F08024900002E0FFE51DEB
:108A3700D39F4004151D8008E51DC39F5002051DE7
:108A4700E4900108F08006900002E0F51D7DFF7FAD
:108A57008A12BBCE900001EFF0E47DFF128A977D6A
:108A6700BE7F8A12BBCEEF54CF44107DBE128A97C9
:108A77007DC47F8A12BBCEEF5480451DFB7DC47F2A
:108A87008A12C107900001E0FB7DFF7F8A02C107C0
:078A9700FB7F8A12C10722D8
:10C4A900E4900126F0900116F09001247408F0221E
:108757007FAB7E0012C0E1900101EFF07FB07E0099
:1087670012C0E1900102EFF07FAC7E0012C0E190F1
:10877700012FEFF07FA37E0012C0E1900129EFF0F7
:108787007FAA7E0012C0E190011BEFF0E490011276
:10879700F07FA0FE12C0E190012BEFF07FB87E00C2
:1087A70012C0E190010FEFF07FB77E0012C0E19099
:1087B700010AEFF07FB97E0012C0E1900100EFF0EF
:1087C7007FBF7E0012C0E1EF24FF92097FC57E00C4
:1087D70012C0E1900111EFF07FC67E0012C0E1EFF9
:1087E70024FF9205E490011FF07FA5FE12C0E1ADC2
:1087F70007ED90011C7006E04401F08004E0540E80
:10880700F07FA6128868ED90011D7006E04401F024
:108817008004E0540EF07FA7128868ED90011E7067
:1088270006E04401F08004E0540EF07FA87E0012B9
:10883700C0E1AD07EF9001217006E04401F080042C
:10884700E0540EF012C5ED900149EFF012C5F49017
:10885700014AEFF07FB27E0012C0E1900106EFF00F
:09886700227E0012C0E1AD0722DF
:10A0E700C22112C5B97F0A7E0012B750C2B412B599
:10A0F7008F7F0112C12D12C21712C4A912A5457F65
:10A107008A12C61A12863A7F0A7E0012B7507BC699
:10A117007D027F8A12C10712875790011FE09001C5
:10A1270031F07FA97E0012C0E112B53EE490012212
:10A13700F07BFF7A6C795112BE8E7F031291827B7E
:10A147000912A1837F0412C40F7B0B12A1837F0A1C
:10A1570012C40F7B0F7DD57F8A12C107900101E0E2
:10A16700700C12BD8D7BFF7A6C796F12BE8E9001D9
:10A1770001E06003128BB112A9F180F27DD57F8ACD
:04A1870012C10722D8
:108BB1007BFF7A6C798412C3DB12C540EF6005122A
:108BC1004D4D80F5128063900000EFF0125C329001
:108BD1000122E0701B900126E0601590011BE0FF6F
:108BE100900116E0C39F400812BB59E4900116F0B2
:108BF10090012BE0700E7DC97F8A12BBCE900000E0
:108C0100EFF080027FFF12898712484BEF70030259
:108C11008CBF12C602EF5406705012C602EF20E458
:108C21002E7F1012C5CA1258F89001057403F07F07
:108C3100A47E0012C0E1EF702E7FA2FE12C0E1EF10
:108C41007025900124E06401701D128FB38018908B
:108C51000105E064017010900129E06401700812BF
:108C6100C54BE4900105F012BD2212C608EF142491
:108C7100FD5002800A12C602EF20E1031296C29053
:108C81000146E06401700453E8FBF07DB27F8A1273
:108C9100BBCEEF6003028BBA7BB07DFD7F8A12C130
:108CA10007E4FF12C12D7FF47E0112B7507F01123C
:0E8CB100C12D7B307DFD7F8A12C107028BBA78
:018CBF002292
:10A9F100E4900001F0128063900000EFF0600EE03F
:10AA0100FF125C327F01129182D2218013900000EB
:10AA1100E0FF125C32900122E0700812C50FC221E2
:10AA210012C5B9E4FF12AFF5EF6019640470151295
:10AA31008063EF700F90010104F0FD7FAB7E001287
:10AA4100B798800512BD2280AC1258F812BD8D7FD7
:10AA5100A37E0012C0E1EF6401700690010574034A
:0DAA6100F0C2077F01129182D22102C5B917
:107F17000D0A496620796F752764206C696B6520A7
:107F2700746F20657869742C207072657373206193
:107F37006E79204B65792E2E2E2E000D0A446F7711
:107F47006E6C6F6164205573657220466F6E742086
:107F570074616B6573203A202564205B7831306D3E
:107F6700735D00A10AA20AA000A310A410A591A600
:107F770001A701A822A910AA00AB62119E00000167
:107F870000CC0C02700000005000000F4000119E52
:107F9700303100AFC81202F1100800502230004003
:107FA70000119E3100029000040170000000A055EE
:107FB700000F4000119E3100029000030170000085
:107FC70000F055000F4000119E3230000C0D0A01E1
:107FD700B104040050C800044000119E3130000075
:107FE70000210131010000D000000840119E30310E
:107FF7000025431E05F0000000D02238084000117C
:108007009E3130000A0502013101000050000008CE
:108017004000119E3230007C090204B10005B0E037
:1080270000043340119E313000C0091308B08A059F
:10803700B05021083340119E30B4007C1E0201F17C
:10804700000000E0000033C100119E303C1090603A
:0C8057001502F102044050C80033C100C3
:109A0300EDF0EFFD7C00C394017480948022E0FFAD
:109A130025E0246AF582E4347FF583E493FDEF25A2
:109A2300E0246BF582E4347FF583E493FB7F8A22A1
:109A3300900051FFE475F00112476FEF02444FD3DA
:109A4300ED9408748094802290004FE0FEA3E0FF21
:109A530022EF14FB7D9E7F8A2290001612476690A8
:109A63000019E0F582758300024422E0A4FFA3E518
:109A7300F0F0A3EFF07DA07F8A2290005BE0FCA3CF
:109A8300E0FD22EEF0A3EFF0A322124473900059FD
:109A9300EEF0A3EFF04E22A3E0FB7D967F8A221225
:109AA300447390004FECF0A3EDF022F07B047D941F
:109AB3007F8A22E0FBC394FE7480948022E4FB7DC2
:049AC300947F8A22E0
:10BD590012BD82900028F0E4A3F0900029E0C3947A
:10BD69000A74809480501112BD82FF900028E06F00
:08BD79007006A3E004F080E273
:0CBD8100227D957F8A12BBCEEF54402239
:10AECC00E490000EF090000EE0C394027480948025
:10AEDC005047E490000DF090000DE0FFC3129A442F
:10AEEC00502FA3E075F008A4FEEF2E7D9C12AF2628
:10AEFC00FFA3E075F0089016B912475AE5822FF5BA
:10AF0C0082E43583F583E4937D9D12AF2604F080B3
:09AF1C00C690000EE004F080ACC8
:0CAF250022FB7F8A12C10790000DE02281
:10B17300900006EFF0A312478612B1C144017D94FB
:10B1830012B1CA900006E07D9912B1CA7DE07F8AB0
:10B1930012BBCEEF4410FB7DE07F8A12C107900003
:10B1A3000712476690005A741BF07D9A7F8A12B883
:10B1B300ED12B1C154FEFB7D947F8A02C1077D94D9
:0EB1C3007F8A12BBCEEF22FB7F8A12C10722C9
:10B8AB007B607D9B7F8A12C107E4900005F09000BE
:10B8BB0005E0FF7E00C394E2748094805023EF94E4
:10B8CB00C674809480501AE075F01BA424C9F974D7
:10B8DB001635F0FA7BFF12B173900005E004F0808F
:01B8EB00CD8F
:01B8EC002239
:03B9EE00900015B1
:10B9F100129A034035129A425030129A5412C107DA
:10BA010090001575F008129A6E12BBCEEF54F0FD3E
:10BA1100900016E04DFB7DA07F8A12C107900016B1
:0ABA2100A3E0FB7DA17F8A12C1079C
:01BA2B0022F8
:03B92E0090001571
:10B93100129A034038129A425033129A5412C10794
:10B9410090001575F004129A6E12BBCEEF540FFDE4
:10B95100900016E0C454F04DFB7DA07F8A12C10710
:0DB96100900016A3E0FB7DA27F8A12C107B3
:01B96E0022B6
:05BF5200900018EFF063
:10BF570012BD597D9C7F8A12BBCE900019EFF090DD
:10BF67000018E06006A3E054EF8006900019E04453
:09BF770010FB7D9C7F8A12C107BA
:01BF8000229E
:03B8680090001835
:10B86B00129A03403A129A425035129A5412C10757
:10B87B007D9F7F8A12BBCE900019EFF0900018E0ED
:10B88B006007A3E04401F08007900019E054FEF03C
:0FB89B0012BD59900019E0FB7D9F7F8A12C107F3
:01B8AA00227B
:10B67500129A054005129A424004E4FEFF22129AEE
:10B685005412C1077DA07F8A12BBCEEF540F9000E4
:10B6950028F0A3E4F07DA17F8A12BBCE900028E0BC
:10B6A500F0A3E04FF0900028E0FEA3E07803CEC3BE
:08B6B50013CE13D8F9FF7E004B
:01B6BD00226A
:10B44400129A054005129A424004E4FEFF22129A21
:10B454005412C1077DA07F8A12BBCEEF54F0C4F80A
:10B46400540FC868FEE4C454F048900028F0A3CEFA
:10B47400F07DA27F8A12BBCE900028E0F0A3E04FBB
:10B48400F0900028E0FEA3E07802CEC313CE13D8D8
:04B49400F9FF7E003E
:01B498002291
:058CC000900002EFF03E
:108CC5007B02128DA07D9E128DA8E4900003F0908A
:108CD5000003E0C3940C74809480500E129A111214
:108CE500C107900003E004F080E5900002E07029E0
:108CF500FB128DA0E4900003F0900003129AB65089
:108D05004F7D96128DB0FB7D977F8A12C1077B97A9
:108D15007D98128DB004F080E0128DBA7BFF7A7FCA
:108D2500791712C3DB12C540EF7025128DBA7D96F7
:108D3500128DA87B477D987F8A12C107E4900003B6
:108D4500F0900003E0128D67128D6770F4028D2A92
:108D55007B177D9F7F8A12C1077B0F7D9C7F8A02CF
:028D6500C10744
:108D6700FB04F07D977F8A12C107900003E0FB04A4
:108D7700F07D977F8A12C107900003E0FB04F07D26
:108D8700977F8A12C107900003E0FB04F07D977F6D
:108D97008A12C107900003E0227D947F8A12C107DF
:108DA70022E4FB7F8A12C107227F8A12C107900043
:0D8DB70003E0227B0C7D947F8A12C107220D
:0581A500900002EFF064
:1081AA007B027D947F8A12C1077B017D9E1282B871
:1081BA00900003E0C3940C74809480500E129A11BC
:1081CA0012C107900003E004F080E5900002E0701D
:1081DA002A7B807D941282B8900003129AB64003DB
:1081EA0002826D7D961282C3FB7D977F8A12C10738
:1081FA007B977D981282C304F080DD900002E064D0
:10820A000170437BFF7A7F791712C3DBE490000485
:10821A00F012C540EF704C7B8C7D947F8A12C107A7
:10822A00E4FB7D967F8A12C1077B477D987F8A127D
:10823A00C107E4900003F0900003E012827F1282EB
:10824A007F70F402821BE4F533F53412B8ABAF3415
:10825A00AE337BFF7A7F794290001CEEF0A3EFF0F9
:10826A0012BE8E7B177D9F7F8A12C1077B0F7D9C72
:05827A007F8A02C1072C
:10827F00FB04F07D977F8A12C107900003E0FB0497
:10828F00F07D977F8A12C107900003E0FB04F07D19
:10829F00977F8A12C107900003E0FB04F07D977F60
:1082AF008A12C107900003E0227F8A12C107E4906F
:0E82BF000003F0227F8A12C107900003E02224
:10BE280090004F129A86124786129AAF12C1079055
:10BE3800004F129A9A12C10790005112476690005B
:10BE480054E090005AF07D977F8A12B8ED129AC09C
:03BE580002C1071D
:10BEC100900030129A86EDF0A3EB129AAE12C107E0
:10BED100900030129A9A12C107900032E0FBA3E061
:10BEE100900037F07D987F8A12B9B0129AC002C1D2
:01BEF1000749
:10BFDE00900030129A86ED129AAE12C10790003080
:10BFEE00129A9A12C107900032E0900037F07B202F
:0DBFFE007D977F8A12B9B0129AC002C10768
:0985190090004F129A8612478669
:10852200900056124786E4900055F0900054E064A3
:108532000A707990005B7427F0A37410F0129A7D90
:10854200C3940AEC94004056129A4B129A8D601210
:10855200900059A3E02430129A33900055E004F0C1
:108562008015900055E0600F900051E475F0011203
:10857200476F743012444F129A4B90005BE0FAA39B
:10858200E0FBFDAC02129AA27D0A7C00AF03AE02B0
:1085920012447390005BEEF0A3EFF002853F90006F
:1085A2004FA3E02430A3129A3602862D900054E0A5
:1085B2006410600302863790005B7410F0A3E4F04D
:1085C200129A7DC39410EC94004044129A4B129A72
:1085D2008D6028900059E0FEA3E0FFC3940AEE9458
:1085E200004005EF24378007900059A3E0243012A1
:1085F2009A33129A4B129A7D129AA290005BE0C4AF
:10860200F854F0C868F0A3E0C4540F48F080B112E7
:108612009A4BC3940AEE94004005EF2437800790EA
:10862200004FA3E02430FFA3129A37900051124763
:0786320066E412444F7F01D2
:01863900221E
:06C3C00090004F124786B9
:10C3C600E4FF90004FE475F00112476F12440960D4
:04C3D600030F80EEE3
:01C3DA002240
:06A22F00900016124786A4
:10A235007DFF7F8A12BBCE90001AEFF054FEFB7DA6
:10A24500FF7F8A12C1077DE07F8A12BBCEEF54EFF4
:10A2550012A2BEE4900019F0129A5CFF60429000D1
:10A2650019E02401FDE433FC900016124766E92D40
:10A27500F9EA3CFAEF12A2C7900019E02401FFE4C5
:10A2850033FE900016124766E92FF9EA3EFA740587
:10A2950012A2C7129A5C04FF900019E02FF080B853
:10A2A5007DE07F8A12BBCEEF441012A2BE90001A49
:09A2B500E0FB7DFF7F8A02C10776
:10A2BE00FB7DE07F8A12C1072290001FF07F8A1279
:03A2CE00BC0722A8
:100066000A0D6D6F646520300A0D000D0A53455464
:10007600204974656D2056616C75653A2069642D5A
:100086002558000D0A2B2B284F5344486967684DA5
:10009600656E755F73756229204F53444D656E75A5
:1000A6004C6576656C3A2564000D0A5245534554F5
:1000B6005F4D6F6E69746F7256414C5545000A0D5F
:1000C60079766D697820340A0D000A0D79766D69A6
:1000D6007820300A0D000A0D79766D697820310A8C
:1000E6000D000A0D79766D697820320A0D000A0D29
:1000F60079766D697820330A0D00436865636B2055
:10010600564741204361626C65004F7574204F6607
:100116002052616E676500FE62596B62714C2F71E9
:100126003A34FF001213566F6C756D65002020205F
:100136004175746F2041646A757374696E67202E09
:100146002E2E2E20202000436F6D706F736974650C
:100156000056657273696F6E004C43442056657293
:1001660073696F6E004456522056657273696F6EDE
:1001760000574946492049500057494649204D41B4
:10018600430047415445574159004F534420506F4F
:10019600736974696F6E004F534420506F736963BF
:1001A600695F6E004F534420FE5465714667FF0039
:1001B6004C616E6775616765004C616E67756500B9
:1001C60053707261636865004964696F6D6100FE12
:1001D6005756714667FF004272696768746E6573A9
:1001E60073004C756D696E6F7369745F0048656C5A
:1001F6006C69676B656974004272696C6C6F00FEAE
:100206004024715F60FF00436F6E74726173740007
:10021600436F6E747261737465004B6F6E747261B6
:10022600737400436F6E74726173746500FE394FA8
:10023600715F60FF0053617475726174696F6E005F
:1002460053AA74746967756E670053617475726139
:1002560063695F6E00FE4A2C33715F60FF0048756C
:100266006500546F6E616C69745C0046617262650C
:1002760000546F6E616C6964616400FE4A54487193
:100286005F60FF0053686172706E6573730041634F
:100296007569745C00536368AA7266650041677588
:1002A60064657A6100FE463933715F60FF0052650E
:1002B60073657400445C66617574004772756E649C
:1002C60065696E7374656C756700507265646574F4
:1002D60065726D696E6163695F6E00FE66246DFF0F
:1002E600004D6972726F72004A756D70004A756DC5
:1002F60070204477656C6C004A756D70204156001D
:1003060043616D204F75740052657475726E0052AC
:100316004543414C4C004D6F6E69746F72205265B7
:1003260063616C6C0044565220526563616C6C00CC
:100336002020202020457869740020005645522050
:100346004820312E30302E303030310054696D6502
:100356004F75742053657475700047617567652025
:1003660053657475700047617567652052656361F2
:100376006C6C005052494F5249545900526576658B
:100386007273204D6F6465005265736F6C75746986
:100396006F6E00465053005175616C697479005256
:1003A60065636F7264204D6F6465005265636F729A
:1003B60064204C656E677468005072652D616C61CF
:1003C600726D00506F73742D7265636F72640041B5
:1003D60070706C79005265636F72645374617274E5
:1003E600005265636F726453746F7000536E617070
:1003F60073686F7400446174652054696D650059B3
:10040600656172004D6F6E74680044617900486FD3
:100416007572004D696E00536563004461796C69BD
:10042600676874536176696E6700426567696E65D1
:1004360000456E64005765656B0054696D65005430
:10044600696D65205A6F6E650052657475726E2609
:100456004170706C7900466F726D61742053442050
:100466004361726400417564696F205265636F72FF
:1004760064004669726D77617265205570646174B7
:100486006500596573004E6F004669727374204E9D
:10049600756D626572005365636F6E64204E756D8F
:1004A600626572005468697264204E756D62657289
:1004B60000466F75727468204E756D6265720043F2
:1004C60068616E67652050617373776F7264004F61
:1004D60076657257726974650054726967676572EA
:1004E60020536574005472696767657220564741E8
:1004F60000547269676765722044656C61790049CA
:100506006E666F726D6174696F6E005570646174AA
:100516006520436F6E66696700534420636F766596
:1005260072204465742E0043414D20410043414DE5
:1005360020420041562020200043414D20520041D8
:10054600562020520043414D204E616D65004456B1
:100556005220446973706C61790044697374616EEA
:100566006365204761756765004F5344204C6F6390
:100576006B0050617373776F726400536F757263AB
:1005860065205469746C650043564253204100430C
:10059600564253204200435642532043004356429C
:1005A600532052004175746F20446179264E696765
:1005B60068740044697220496D6167650044697218
:1005C60020496D61676520410044697220496D616B
:1005D600676520420044697220496D616765204362
:1005E60000526561722053657475700043414D2059
:1005F60041204D4952524F520043414D2052204D09
:100606004952524F520043414D2042204D495252C9
:100616004F520043414D20430043414D20440002C8
:1006260000456E676C697368004672616E7B61692E
:1006360073004465757473636800457370617E6FFB
:100646006C00FE6A2356FF200004014D6F6465317D
:10065600004D6F646532004D6F64653300557365F8
:1006660072004D6F646531004D6F646532004D6FE9
:1006760064653300557361676572004D6F64757309
:1006860031004D6F64757332004D6F6475733300BE
:1006960042656E75747A6572004D6F646F31004DF8
:1006A6006F646F32004D6F646F33005573756172FE
:1006B600696F00FE3A34FF3100FE3A34FF3200FE25
:1006C6003A34FF3300FE47515B71FF2000080041BA
:1006D60075746F004E5453430050414C00534543CC
:1006E600414D004E545343342E34330050414C4D4B
:1006F6000050414C4E0050414C3630000500FE1A69
:100706001BFF2000FE1C1DFF2000FE1E1DFF2000FB
:10071600FE1F20FF2000FE1F21FF200009004F665C
:1007260066004343310043433200434333004343AF
:100736003400543100543200543300543400020063
:100746004F4E004F46460002004D4952524F52004E
:100756004E4F524D414C00030044617900415554BF
:100766004F004E6967687400020031363A3900342A
:100776003A33000200004F4E004F46460004005335
:10078600494E474C45004455414C00545249504C43
:100796004500412B422C422B410007004100412BD2
:1007A6004200412B4300412B5200412B4243004162
:1007B6002B425200412B43520007004200422B417C
:1007C60000422B4300422B5200422B414300422B56
:1007D600415200422B43520007004300432B410085
:1007E600432B4200432B5200432B414200432B41F3
:1007F6005200432B4252000A005200522B41005233
:100806002B4200522B4300522F414200522F4143AC
:1008160000522F424300522B414200522B414300CB
:10082600522B4243000500410042005200534551FD
:1008360000020000373230783438300033353278F1
:1008460032343000050000350031300031350032D9
:1008560030003235003330000500004C6576656C9B
:100866002D31004C6576656C2D32004C6576656CD5
:100876002D33004C6576656C2D34004C6576656CC1
:100886002D35000300004E6F6E65004E6F726D6170
:100896006C00416C61726D000600003120206D69AC
:1008A6006E003220206D696E003320206D696E0067
:1008B6003420206D696E003520206D696E00313060
:1008C600206D696E000500003135207365630033C5
:1008D60030207365630036302073656300080000BE
:1008E600313520736563003330207365630036301D
:1008F600207365630002000044697361626C6500E1
:10090600456E61626C65000400004669727374008E
:100916005365636F6E6400546869726400466F7550
:10092600727468000400410042004300520019003E
:10093600002D3132002D3131002D3130002D39009E
:100946002D38002D37002D36002D35002D34002D85
:1009560033002D32002D31003000310032003300DB
:1009660034003500360037003800390031300031A8
:1009760031003132000200502000442000030032D2
:100986003430300034383030003936303000020030
:10099600FE1819FF2000FE1A1BFF20000400FE1C93
:1009A6001D1E1F2021FF2000FE222328292A2BFF9F
:1009B6002000FE242528292A2BFF2000412B422C2B
:1009C600422B41000E00FE262728292A2BFF200055
:1009D60053455100412B4200432B5200412B5200FC
:1009E600522B4200412B4300432B4200522F4142DF
:1009F60000522B414200410042004300520056473C
:100A06004100FF0157FF0157FF0157FF0157FF0143
:100A160057FF015FFF015FFF015FFF015FFF015F9E
:100A2600FF016BFF016BFF016BFF016BFF016BFFAA
:100A36000177FF0177FF0177FF0177FF0177FF015C
:100A46007FFF017FFF017FFF017FFF017FFF01889D
:100A5600FF0188FF0188FF0188FF0188FF0100FF71
:100A66000110FF0110FF0110FF0110FF011DFF0122
:100A76002AFF0190FF0190FF0190FF019DFF01AA4F
:100A8600FF01B6FF01BFFF01C6FF01CEFF01D5FF83
:100A960001DDFF01E8FF01F3FF01FEFF0205FF0292
:100AA6000DFF0216FF0220FF0229FF0233FF023B61
:100AB600FF023BFF0246FF0250FF025BFF0264FF9C
:100AC6000268FF0271FF0277FF0281FF028AFF02BE
:100AD60094FF029BFF02A3FF02ABFF02B4FF02BA20
:100AE600FF02C1FF02D0FF02E1FF02E7FF02E7FFBC
:100AF60002E7FF02E7FF02E7FF02EEFF02EEFF0258
:100B0600EEFF02EEFF02EEFF02F3FF02F3FF02F337
:100B1600FF02F3FF02F3FF0306FF0306FF0306FFD0
:100B26000306FF0306FF02FEFF030EFF030EFF038D
:100B36000EFF030EFF030EFF0315FF0315FF03153C
:100B4600FF0315FF0315FF031CFF031CFF031CFF18
:100B5600031CFF031CFF032BFF032BFF032BFF03C9
:100B66002BFF032BFF0336FF0336FF0336FF033647
:100B7600FF0336FF054BFF054BFF054BFF054BFFFC
:100B8600054BFF0554FF0554FF0554FF0554FF05AB
:100B960054FF0560FF0560FF0560FF0560FF056007
:100BA600FF056FFF056FFF056FFF056FFF056FFF01
:100BB6000578FF0578FF0578FF0578FF0578FF05BE
:100BC60081FF0581FF0581FF0581FF0581FF058EF8
:100BD600FF058EFF058EFF058EFF058EFF0595FF2F
:100BE6000595FF0595FF0595FF0595FF059CFF05F6
:100BF6009CFF059CFF059CFF059CFF05A3FF05A325
:100C0600FF05A3FF05A3FF05A3FF05AAFF05AAFF8E
:100C160005AAFF05AAFF05AAFF05B9FF05B9FF0545
:100C2600B9FF05B9FF05B9FF05C3FF05CFFF05DB12
:100C3600FF05E7FF05E7FF05E7FF05E7FF05E7FF18
:100C460005F2FF05F2FF05F2FF05F2FF05F2FF06CA
:100C56000CFF060CFF060CFF060CFF060CFF061920
:100C6600FF0619FF0619FF0619FF0619FF05FFFF04
:100C760005FFFF05FFFF05FFFF05FFFF061FFF0638
:100C86001FFF061FFF061FFF061FFF0340FF03424D
:100C9600FF0352FF0360FF036CFF0379FF0382FF2C
:100CA60004F7FF04F7FF04F7FF04F7FF04F7FF0557
:100CB6002DFF052DFF052DFF052DFF052DFF053306
:100CC600FF0533FF0533FF0533FF0533FF0539FF06
:100CD6000539FF0539FF0539FF0539FF053FFF05D2
:100CE6003FFF053FFF053FFF053FFF038EFF0399CB
:100CF600FF039DFF03A5FF03B1FF03BFFF03C9FF6A
:100D060003D5FF03DBFF03E7FF03F2FF03FBFF044B
:100D160005FF040AFF0410FF0414FF0419FF041D55
:100D2600FF0421FF0430FF0437FF043BFF0440FFAC
:100D36000445FF044FFF045CFF046BFF0478FF04C7
:100D460088FF048CFF048FFF049CFF04AAFF04B7EE
:100D5600FF04C5FF04D5FF04DFFF04EBFF0505FF15
:100D66000511FF051FFE6C6F00FE727500FE6063C5
:100D760000FE787B00FE666900FE848700FE0102A5
:100D860000FE7E8100FE8A8D00FE909300FE9699FD
:100D960000FEC0C300FE9C9F00FEA2A500FEA8ABFD
:100DA60000FEAEB100FEB4B700FEBABD00000013EF
:100DB600031661130216610000FF0B79FFFFFF3275
:100DC60000000700B907440000FF0B97FFFFFF3242
:100DD60000000700BA07440000FF0C0FFFFFFF32B8
:100DE60000000700B807440000FF0BA6FFFFFF3214
:100DF60000000700BB07440000FF0B2EFFFFFF3279
:100E060000000300F1000000000000000000FFFFEA
:100E160000000000000000130216610000FF0D47ED
:100E2600FFFFFF3200000300F100000000FF0D4449
:100E3600FFFFFF3200000300ED000000000000008D
:100E46000000FFFF00000000000000130216610012
:100E560000FF0D4AFFFFFF32000005002D0DB40014
:100E660000FF0D4DFFFFFF32000005002E0DB40000
:100E760000FF0D50FFFFFF32000005002F0DB400EC
:100E860000FF0D53FFFFFF3200000500380DB400D0
:100E960000FF0D56FFFFFF3200000300EE000000CA
:100EA60000FF0B2EFFFFFF3200000300F1000000E1
:100EB600000000000000FFFF00000000000000131B
:100EC6000216610000FF0D4AFFFFFF320000050019
:100ED6002D0DB40000FF0D4DFFFFFF320000050091
:100EE6002E0DB40000FF0D50FFFFFF32000005007D
:100EF6002F0DB40000FF0D53FFFFFF320000050069
:100F0600380DB40000FF0D3BFFFFFF320000030069
:100F1600EB00000000FF0D56FFFFFF320E550100EB
:100F2600000E510000FF0B2EFFFFFF3200000300F2
:100F3600F1000000000000000000FFFF00000000BC
:100F4600000000130516610000FF0D35FFFFFF329C
:100F5600000007002C09340000FF0D14FFFFFF32CC
:100F660000000500200DB40000FF0D17FFFFFF3243
:100F760000000500210DB40000FF0D1AFFFFFF322F
:100F860000000500220DB40000FF0D1DFFFFFF321B
:100F960000000500230DB40000FF0D20FFFFFF3207
:100FA60000000500240DB40000FF0D38FFFFFF32DE
:100FB60000000300F6000000000000000000FFFF34
:100FC600000000000000000000FF0D44FFFFFF329C
:100FD600000003009B00000000FF0D47FFFFFF32EB
:100FE60000000300F1000000000000000000FFFF09
:100FF600000000000000000000FF0D44FFFFFF326C
:10100600000003007000000000FF0D47FFFFFF32E5
:1010160000000300F1000000000000000000FFFFD8
:10102600000000000000000000FF0D44FFFFFF323B
:10103600000003009E00000000FF0D47FFFFFF3287
:1010460000000300F1000000000000000000FFFFA8
:10105600000000000000000000FF0B4CFFFFFF3205
:101066000FFD0100000DB50000FF0B5BFFFFFF3217
:10107600102D0100000DB50000FF0B2EFFFFFF3203
:1010860000000300F1000000000000000000FFFF68
:1010960000000000000000130416610000FF0A357E
:1010A600FFFFFF3600000B00F1000000000000000B
:1010B600FFFFFF3200000C00390DB40000FF0A44A8
:1010C600FFFFFF3600000B00F100000000000000EB
:1010D600FFFFFF3600000C003A0DB40000FF0A5374
:1010E600FFFFFF3600000B00F100000000000000CB
:1010F600FFFFFF3600000C003B0DB40000FF0B2E77
:10110600FFFFFF3200000300F100000000000000B6
:101116000000FFFF0000000000000013041661003D
:1011260000FF0C90FFFFFF3200000B00F4000000F0
:1011360000FF0C90FFFFFF3200000B00F4000000E0
:1011460000FF0C93FFFFFF3600000B00F4000000C9
:1011560000FF0C90FFFFFF3200000B00F4000000C0
:1011660000FF0C90FFFFFF3200000B00F4000000B0
:1011760000FF0C90FFFFFF3200000B00F4000000A0
:1011860000FF0B6AFFFFFF3200000B00F4000000B7
:10119600000000000000FFFF000000000000001338
:1011A6000516610000FF0CFCFFFFFF320000070080
:1011B600E4089E0000FF0D02FFFFFF32000007005B
:1011C600E608E30000FF0D3EFFFFFF3200000700C8
:1011D600EC092A0000FF0D38FFFFFF320000030074
:1011E600F5000000000000000000FFFF0000000006
:1011F600000000130416610000FF0CF9FFFFFF3228
:1012060011A901000011A50000FF0CF3FFFFFF323A
:1012160000000700E1084A0000FF0CF6FFFFFF325E
:1012260000000700E2085E0000FF0D3BFFFFFF32F3
:101236000EC90100000EC50000FF0D41FFFFFF3281
:101246000E210100000E1D0000FF0D38FFFFFF32CA
:1012560000000300F5000000000000000000FFFF92
:1012660000000000000000130516610000000000E9
:101276000000FFFF000000000000001304166100DC
:1012860000FF0A95FFFFFF3200000500960DB4002F
:1012960000FF0AA4FFFFFF3200000500950DB40011
:1012A60000FF0AB3FFFFFF3200000500970DB400F0
:1012B60000FF0AC2FFFFFF3200000500990DB400CF
:1012C60000FF0AD1FFFFFF32000005009A0DB400AF
:1012D60000FF0B2EFFFFFF3200000300F1000000AD
:1012E600000000000000FFFF0000000000000013E7
:1012F6000516610000FF0C45FFFFFF3200000700E6
:10130600C107440000FF0C72FFFFFF320000070018
:10131600C407440000FF0B2EFFFFFF32000003004E
:10132600F1000000000000000000FFFF00000000C8
:101336000000000000FF0CB4FFFFFF3200000500B4
:10134600B20DB40000FF0CE1FFFFFF320000050004
:10135600B50DB40000FF0CD2FFFFFF320000050000
:10136600B40DB40000FF0B2EFFFFFF320000030098
:10137600F1000000000000000000FFFF0000000078
:10138600000000130516610000FF0C2DFFFFFF3261
:1013960000000700CD07A00000FF0C30FFFFFF3262
:1013A60000000700CE07BF0000FF0C33FFFFFF322F
:1013B60000000700CF07DE0000FF0B2EFFFFFF3205
:1013C60000000300F1000000000000000000FFFF25
:1013D60000000000000000130816610000FF0C4525
:1013E600FFFFFF3200000700C107440000FF0C5456
:1013F600FFFFFF3200000700C207440000FF0C7227
:10140600FFFFFF3200000700C407440000FF0B0D7A
:10141600FFFFFF3200000500C90DB40000FF0B2BD3
:10142600FFFFFF3200000700D707440000FF0B3D17
:10143600FFFFFF32000003009B00000000FF0B2EA1
:10144600FFFFFF3200000300F10000000000000073
:101456000000FFFF000000000000000204FF320D44
:101466006B000000FFFF32FF128501009F12810D05
:101476006F000000FFFF32FF0DBD0100000DB90D2A
:1014860073000000FFFF32FF13E101009F13DD0D23
:1014960077000000FFFF32FF11250D00001121002B
:1014A600000000000000FFFF000000000000000038
:1014B60000000000FFFF32FF146501000014610008
:1014C600000000000000FFFF000000000000000018
:1014D600000064003200020034001A0001002C00F3
:1014E6001600000037001C000000C70064002D0035
:1014F600D200800000000700030000003F0020002B
:101506002D00D200800000001F00100025004E00B4
:1015160046001E00820069FFAD004F001300000068
:10152600FF0080FF80007F0000000000070003002E
:1015360000007F004011111111113B161A01020122
:10154600342C342C024B323232323232324B32327B
:101556003211101314157071747273707174727382
:10156600786300808000608080808020808080801A
:101576003B68F8909000608080808020808080802A
:101586000358F8A0A0006080808080208080808042
:101596000332463232323232323232323220202076
:1015A600496E70757420203A2020202020202020AB
:1015B6002020202020200020202053797374656D80
:1015C600203A2020202020202020202020202020FB
:1015D60000202020482046726571203A20202020D5
:1015E60020206B487A202020202000202020562012
:1015F60046726571203A20202020202020487A203B
:101606002020202000202020462F57205265763AA1
:101616002020202020202020202020202020000004
:1016260000000000000000000000000000000000B4
:10163600000000000000000000010202050504038E
:101646000404040404040404040404040404040454
:101656000404032020201C202020202020202020DD
:1016660020002020202020202020202020002E00C6
:101676003A00010101010101010202020202020215
:1016860005050505050504040404040403202020BB
:10169600000404040404032020200020202020202D
:1016A6002020202020200020202020202020202054
:0316B600202000F1
:107BA5004100F3FF4100F4004100F900C120C11F6D
:107BB5004100E1004100F6004100FB004100FA00F0
:077BC5004100EE0001790010
:10515E009000DFE0FEA3E0F5828E8322D390001153
:10516E00E09400900010E09400225403FFEEF0A3B0
:10517E00EFF0229000207A007921E0FF7E007B0183
:10518E009000291247867BFF2275F01012475A7441
:10519E000E93FB740F939000E2CBF0A3EBF08F8293
:1051AE008E83ED75F01012475A740993FF740A93AB
:1051BE009000DFCFF0A3EFF022900029E024F1FF62
:1051CE00900028E034FFFE90002D02476675F01027
:1051DE0012475A740D9322E4900010F0A3EFF022C0
:1051EE007A1479E790002C1247867A1479D522909A
:1051FE00001F12476690000E12453FAAF0F97BFF82
:10520E0090002D12478690001F024766900010A353
:10521E00E0FD22900010EEF0A3EFF022E0FDE4900E
:10522E000035F0A3EDF0229000DFE0FEA3E0FFF5E5
:10523E00828E8322E4900010F0A3F022900010E4FE
:10524E00F0A322E0FEA3E0FF7B019000547404F073
:10525E00229000DFE0FEA3E0FFEE9000EFF0A3EF60
:10526E00F0A3227E009000FCEEF0A3EFF022FD757D
:10527E00F00A84E5F02430F0ED75F00A84229000F7
:10528E0028E0FEA3E0FF2290000FE06401229000D0
:10529E000EE0900010A4FFE5F08FF00244FE75F0D2
:1052AE001012475A740E93FC740F93AA04F97BFFE5
:1052BE009000071247868F828E83227D017BFF7EB0
:1052CE00000243E3E0FFD394047480948022FFE94C
:1052DE0075F003A42416F582E43400F583229000C1
:1052EE0010E0FEA3E0FF9000E2E0FAA3E0F5828A70
:1052FE0083740393FDE493229000E2E0FCA3E0F5B7
:10530E00828C832290004CE475F00112476F0244A8
:10531E00099000021247BB9000F9E075F003A4F566
:10532E008285F0830247BBF0A3EFF0D39014D574BF
:10533E0001939FEE6480F8E49364809822FF9000BE
:10534E0028E03400229000DFE0FEA3E0AA06F97BFD
:10535E00FF2275F01002475AE0FEA3E02DFDEE3C51
:10536E00FCEDA4FBAAF0FF900018E022C390001100
:10537E00E0940322C3E0FF9403748094802290147F
:10538E00D7E493FE740193FF229000FEE0640122A5
:10539E00F0E0FF25E02441F582E43415F583E49333
:1053AE0022F0EF25E02442F582E43415F583E493F0
:1053BE00227E00EEF0A3EFF022EEF0A3EFF0A32298
:1053CE00E4F0A3740EF0227D017BFF7E007F0C02C1
:1053DE0043E3740E93FB740F939000E2CBF0A3EBB8
:1053EE00F022EF54F8FFA3E054074FFB7D177F8A9E
:1053FE002290000CE0FEA3E0FF90000AA3E0FD2245
:10540E00FFE493FC740193FDC3EF9DFEE49C229098
:10541E00000EEEF0A3EFF0FD900014E0FF22E57910
:10542E0025E024E6F582E43400F5832235F0FA7B9C
:10543E00FF90000BE0900054F0222440F582E434FB
:10544E0000F583229000FCA3E0FF22E0FFA3E09092
:10545E0000EFCFF0A3EFF0227D137C00124461EF3A
:10546E0022FFE08FF0A4FF2290000D024422A3E061
:10547E0054074438FB7D787F8A22900009E0C3945C
:10548E00067480948022C3900011E0940622F0905E
:10549E00003AE004F022E0FEA3E0FF7B0122FBC312
:1054AE00EF9BFFEE9400FEC322C3900011E0940226
:1054BE0022E0FD75F00A84E5F0243022F9E43AFA90
:1054CE000247862FFFE035F0FAA9077BFF22E02482
:1054DE00052FF075F0058422FFE4F0A3EFF0229083
:1054EE000013A3E0FF229FEE6480F8EC6480982204
:1054FE007D327F217E002275F011A4248AF9746C0E
:10550E0022F582E43400F583EEF022F582E43400D5
:0F551E00F583EEF022E0FFC394057480948022A1
:03C6110002C5DF80
:05798800900012EFF079
:10798D0012C611900017EFF0900012E06401700420
:10799D007F0180027FFF9000171254DCE5F0125337
:1079AD009EFEFD900013E4F0A3EDF09000F7E0FDD6
:1079BD00C3900014E09DF0900013E09400F090004F
:1079CD00F7EE1253AFFFFD900015E4F0A3EDF0902C
:1079DD0000F8E0FDC3900016E09DF0900015E094D6
:1079ED0000F09000F8EFF09000187401F09000187E
:1079FD00E01252D4506FE0FF12B675AD07AC069091
:107A0D00001375F008125366F975F003A42417F5E9
:107A1D0082E43400F583EFF0EA1252DCEFF0AF01AF
:107A2D0012B444AC06AD0790001575F00412536600
:107A3D0075F003A42418F582E43400F583EFF0EA21
:107A4D00C4F854F0C8EBC4540F485470FF9000189C
:107A5D00E0F91252DEE04F1252DCEFF0900018E028
:107A6D0004F00279FA12BD597DE07F8A12BBCEEF88
:107A7D0054EF127AE89000187401F0900018125229
:107A8D00D25031EF14FB7D9E7F8A12C107900018F2
:107A9D00E075F003A42416F9740035F0FA7B01901B
:107AAD00005A7403F07DA07F8A12B8ED900018E0A3
:107ABD0004F080C77DE07F8A12BBCEEF4410127AAE
:107ACD00E8900017E0FF12C56812BD59E4FB7D90E8
:0A7ADD007F8A12C107900017E0FF36
:0A7AE70022FB7DE07F8A12C1072216
:106DCC00901541E4939000F7F0901542E4939000F5
:106DDC00F8F0E4FF12C5687FB0126F447FA0126F09
:106DEC00447FA07E0012C0E190012BEFF07FA11236
:106DFC006F5C7FA2126F5C7FBA126F6B7FA4126FF5
:106E0C004C7FAB126F4C7FA3126F6B7FBB126F72F8
:106E1C007FA5126F547FA6126F547FA7126F637FEA
:106E2C00A8126F727D327F387E0012B7989001499C
:106E3C007432F0E4FF1283F57D327F377E0012B797
:106E4C00987D037FB27E0012B7987FBC126F817F52
:106E5C00BD126F817FBE126F9A7FAC126F6390016F
:106E6C002F7401F0E4900126F07D037FAAFE12B787
:106E7C00987FA9126F9AE4FF12B53E7BFF7A0079D6
:106E8C006612C3DB7D33E4FFFE12BFDE7FB2126FEE
:106E9C00A97FB3126F797FB4126F797FB5126F88A7
:106EAC007FB6126F88128757E4FF12C5837FBF121B
:106EBC006FA17FBF7E0012C0E1EF24FF92097FB863
:106ECC00126FA97FB87E0012C0E190010FEFF07F26
:106EDC00B7126FA17FB77E0012C0E190010AEFF0EC
:106EEC007D027FB97E0012B7987FB97E0012C0E197
:106EFC00900100EFF0E4FD7FAFFE12B798E4900133
:106F0C001FF090011104F0FD7FC57E0012B7987F31
:106F1C001B126F907F1C7E0212B7987F1D126F9010
:106F2C007F1E7E0212B798D2057D017FC67E0012AD
:106F3C00B79812A6E8029C427D017E0012B79822F7
:106F4C007D017E0012B798227D017E0012B7982237
:106F5C00E4FDFE12B798227D017E0012B79822E460
:106F6C00FDFE12B79822E4FDFE12B798227D017E39
:106F7C000012B79822E4FDFE12B798227D017E0024
:106F8C0012B79822E4FD7E0212B798E4FD22E4FDCC
:106F9C00FE12B798227D017E0012B79822E4FDFE06
:046FAC0012B798225E
:10C4870012C5E69000F9EFF075F00584AFF0EFF014
:01C497002282
:10C25300EF640170047F0180027FFF9000F91254A4
:0DC26300DCAFF0EFF012C5839000F9E0FFB2
:01C2700022AB
:05AE6600900014EDF066
:10AE6B00EF75F003A42481FEE435F0A3F0A3CEF03C
:10AE7B00E4A3F09000171253825045900016E02F78
:10AE8B00FF900015E03400FE12C0E1900018125341
:10AE9B00BF7B017A00791A12518E1251EE12A04229
:10AEAB00900017E02471FD90001AA3E0FF900014AE
:10AEBB00E02FFB7F8A12C107900017E004F080B3EC
:01AECB002264
:10AA6E00EF640170047F0180027FFF9000FDE024FF
:10AA7E0004FD9000FCE03400FCEF3395E0FEED2F7A
:10AA8E00FFEC3EF0A3EFF07E009000FC125178FD3B
:10AA9E007F8012B7987F107E0012C0E17E007B018E
:10AAAE007A00791212518E7A1479ED1251F212A0A7
:10AABE0042125452900012A3E0FD12AE667F807EC9
:10AACE000012C0E1EF64037B8560047D3080027D5F
:0BAADE00327F347E0012BEC1125452C1
:01AAE900224A
:059CF800900012EFF0E6
:109CFD00ED64019000FD700DE02401FF9000FCE08B
:109D0D003400FE800BE024FFFF9000FCE034FFFEEA
:109D1D00900013EE125335501512538C900014E031
:109D2D009FEE6480F8900013E06480984003029DDC
:109D3D00A2900013E0FEA3E0FF1252737B017A00A4
:109D4D00791512518E1251EE12A042900012E0249C
:109D5D008AFFE433FEA3A3E0FD12B7987F107E00C7
:109D6D0012C0E19000131253BF7B017A00791712D4
:109D7D00518E7A1479ED1251F212A042900012E038
:109D8D002471FD900017A3E0FF900015A3E02FFBB9
:089D9D007F8A12C10712545223
:019DA500229B
:10B33C007D707F8A12BBCEEF54BFFB7D707F8A126B
:10B34C00C1077D7412B38A7D757F8A12C1077D7621
:10B35C0012B38A7D717F8A12C1077B807D727F8ACE
:10B36C0012C1077B807D737F8A12C1077D707F8A33
:10B37C0012BBCEEF4440FB7D707F8A02C1077B80FD
:08B38C007F8A12C1077B8022B9
:068EC200900019EFF0FD25
:108EC8007F0B7E0012B798900019E064036070E48D
:108ED800A3F0A3F090001AE0FEA3E0FFC3940FEE06
:108EE80064809480503F900019E0C454F02467F5E2
:108EF80082E43415F583E5822FF582E5833EF58318
:108F0800E493FB90001AA3E02457F58274153EF50C
:108F180083E493FD7F8A12C10790001AE475F0017B
:108F28001244FE80AF900019E0C454F02476F58214
:0F8F3800E43415F583E49390001C1254E6805244
:108F4700E4FF12C5FB12C0907F0112C5FB12BF22BE
:108F57007F0212C5FBAD07E4FF12AAEA7F0312C521
:108F6700FBAD077F0112AAEA7F0412C5FB12B39477
:108F77007F0512C5FB7E0090001EEEF0A3EFF07B8D
:108F8700017A00791C12518E7A15792F1251F2123B
:028F9700A042F6
:108F990090001C12547C12C1077D177F8A12BBCE28
:098FA90090001C1253F012C107E4
:018FB200229C
:03C614007F002282
:07C5FB0012C5551252712216
:05A41100900012EFF0C5
:10A41600ED64017005FE7F0180047EFF7FFF9000E2
:10A42600FCE0FCA3E0FD2FFFEC3EFE900013125370
:10A4360035501612538C900013E0FAA3E0FB9FEE02
:10A446006480F8EA6480984003AF0522900012E029
:10A4560014601814601D14601A14602724FE602B03
:10A466002406702DAF0312C09080261254ED12BF41
:10A4760022801E900012E024FEFFA3A3E0FD12AA94
:10A48600EA800E1254ED12B39480061254ED12AD0A
:10A4960096900012E0FFA3A3E0FD12C57190001391
:08A4A600E0FEA3E0FF12527377
:01A4AE00228B
:10C090007E007B017A00792012518E7A1579111277
:10C0A00051F212A04290010BE090153A93FD9000DE
:09C0B00020A3E0FB7F8A02C10716
:10BF22007E007B017A00792012518E7A15791D12DA
:10BF320051F212A04212C614EF9000206007A3E053
:0FBF4200FB7D3A8005A3E0FB7D107F8A12C107CB
:01BF510022CD
:10AD96007E007B017A00791512518E7A15790B1295
:10ADA60051F212A0427DFF7F8A12BBCE900017EFB0
:10ADB600F0E47DFF12ADF87DBE7F8A12BBCEEF5464
:10ADC600CF44107DBE12ADF87DC47F8A12BBCEEF94
:10ADD6005480FD900015E0A2E713A3E0134DFB7D20
:10ADE600C47F8A12C107900017E0FB7DFF7F8A02AD
:02ADF600C10793
:07ADF800FB7F8A12C1072254
:05B39400900020EFF025
